{
  "_format": "hh-sol-artifact-1",
  "contractName": "LakomiVault",
  "sourceName": "contracts/LakomiVault.sol",
  "abi": [
    {
      "inputs": [
        {
          "internalType": "address",
          "name": "_stableToken",
          "type": "address"
        },
        {
          "internalType": "uint256",
          "name": "_withdrawalThreshold",
          "type": "uint256"
        },
        {
          "internalType": "uint256",
          "name": "_withdrawalTimelock",
          "type": "uint256"
        },
        {
          "internalType": "uint256",
          "name": "_simpananPokokAmount",
          "type": "uint256"
        },
        {
          "internalType": "uint256",
          "name": "_simpananWajibAmount",
          "type": "uint256"
        },
        {
          "internalType": "uint256",
          "name": "_simpananWajibPeriod",
          "type": "uint256"
        }
      ],
      "stateMutability": "nonpayable",
      "type": "constructor"
    },
    {
      "inputs": [],
      "name": "AccessControlBadConfirmation",
      "type": "error"
    },
    {
      "inputs": [
        {
          "internalType": "address",
          "name": "account",
          "type": "address"
        },
        {
          "internalType": "bytes32",
          "name": "neededRole",
          "type": "bytes32"
        }
      ],
      "name": "AccessControlUnauthorizedAccount",
      "type": "error"
    },
    {
      "inputs": [],
      "name": "EnforcedPause",
      "type": "error"
    },
    {
      "inputs": [],
      "name": "ExpectedPause",
      "type": "error"
    },
    {
      "inputs": [],
      "name": "LakomiVault__AlreadyExecuted",
      "type": "error"
    },
    {
      "inputs": [],
      "name": "LakomiVault__AlreadySet",
      "type": "error"
    },
    {
      "inputs": [],
      "name": "LakomiVault__ExceedsThreshold",
      "type": "error"
    },
    {
      "inputs": [],
      "name": "LakomiVault__InsufficientBalance",
      "type": "error"
    },
    {
      "inputs": [],
      "name": "LakomiVault__InsufficientShares",
      "type": "error"
    },
    {
      "inputs": [],
      "name": "LakomiVault__InvalidWithdrawal",
      "type": "error"
    },
    {
      "inputs": [],
      "name": "LakomiVault__NoRevenueToDistribute",
      "type": "error"
    },
    {
      "inputs": [],
      "name": "LakomiVault__NoSHUToClaim",
      "type": "error"
    },
    {
      "inputs": [],
      "name": "LakomiVault__NotApproved",
      "type": "error"
    },
    {
      "inputs": [],
      "name": "LakomiVault__NotMember",
      "type": "error"
    },
    {
      "inputs": [],
      "name": "LakomiVault__SimpananPokokAlreadyPaid",
      "type": "error"
    },
    {
      "inputs": [],
      "name": "LakomiVault__SimpananPokokNotPaid",
      "type": "error"
    },
    {
      "inputs": [],
      "name": "LakomiVault__SimpananWajibNotDue",
      "type": "error"
    },
    {
      "inputs": [],
      "name": "LakomiVault__TimelockNotMet",
      "type": "error"
    },
    {
      "inputs": [],
      "name": "LakomiVault__TransferFailed",
      "type": "error"
    },
    {
      "inputs": [],
      "name": "LakomiVault__ZeroAddress",
      "type": "error"
    },
    {
      "inputs": [],
      "name": "LakomiVault__ZeroAmount",
      "type": "error"
    },
    {
      "inputs": [],
      "name": "ReentrancyGuardReentrantCall",
      "type": "error"
    },
    {
      "inputs": [
        {
          "internalType": "address",
          "name": "token",
          "type": "address"
        }
      ],
      "name": "SafeERC20FailedOperation",
      "type": "error"
    },
    {
      "anonymous": false,
      "inputs": [
        {
          "indexed": true,
          "internalType": "address",
          "name": "member",
          "type": "address"
        },
        {
          "indexed": false,
          "internalType": "uint8",
          "name": "tier",
          "type": "uint8"
        }
      ],
      "name": "ContributionTierUpdated",
      "type": "event"
    },
    {
      "anonymous": false,
      "inputs": [
        {
          "indexed": true,
          "internalType": "address",
          "name": "member",
          "type": "address"
        },
        {
          "indexed": false,
          "internalType": "uint256",
          "name": "amount",
          "type": "uint256"
        },
        {
          "indexed": false,
          "internalType": "uint256",
          "name": "shares",
          "type": "uint256"
        },
        {
          "indexed": false,
          "internalType": "uint256",
          "name": "timestamp",
          "type": "uint256"
        }
      ],
      "name": "Deposited",
      "type": "event"
    },
    {
      "anonymous": false,
      "inputs": [
        {
          "indexed": true,
          "internalType": "address",
          "name": "govern",
          "type": "address"
        }
      ],
      "name": "GovernSet",
      "type": "event"
    },
    {
      "anonymous": false,
      "inputs": [
        {
          "indexed": true,
          "internalType": "address",
          "name": "to",
          "type": "address"
        },
        {
          "indexed": false,
          "internalType": "uint256",
          "name": "amount",
          "type": "uint256"
        },
        {
          "indexed": false,
          "internalType": "bytes",
          "name": "reason",
          "type": "bytes"
        }
      ],
      "name": "GovernanceSpend",
      "type": "event"
    },
    {
      "anonymous": false,
      "inputs": [
        {
          "indexed": false,
          "internalType": "address",
          "name": "account",
          "type": "address"
        }
      ],
      "name": "Paused",
      "type": "event"
    },
    {
      "anonymous": false,
      "inputs": [
        {
          "indexed": false,
          "internalType": "uint256",
          "name": "amount",
          "type": "uint256"
        },
        {
          "indexed": false,
          "internalType": "uint256",
          "name": "timestamp",
          "type": "uint256"
        }
      ],
      "name": "RevenueReceived",
      "type": "event"
    },
    {
      "anonymous": false,
      "inputs": [
        {
          "indexed": true,
          "internalType": "bytes32",
          "name": "role",
          "type": "bytes32"
        },
        {
          "indexed": true,
          "internalType": "bytes32",
          "name": "previousAdminRole",
          "type": "bytes32"
        },
        {
          "indexed": true,
          "internalType": "bytes32",
          "name": "newAdminRole",
          "type": "bytes32"
        }
      ],
      "name": "RoleAdminChanged",
      "type": "event"
    },
    {
      "anonymous": false,
      "inputs": [
        {
          "indexed": true,
          "internalType": "bytes32",
          "name": "role",
          "type": "bytes32"
        },
        {
          "indexed": true,
          "internalType": "address",
          "name": "account",
          "type": "address"
        },
        {
          "indexed": true,
          "internalType": "address",
          "name": "sender",
          "type": "address"
        }
      ],
      "name": "RoleGranted",
      "type": "event"
    },
    {
      "anonymous": false,
      "inputs": [
        {
          "indexed": true,
          "internalType": "bytes32",
          "name": "role",
          "type": "bytes32"
        },
        {
          "indexed": true,
          "internalType": "address",
          "name": "account",
          "type": "address"
        },
        {
          "indexed": true,
          "internalType": "address",
          "name": "sender",
          "type": "address"
        }
      ],
      "name": "RoleRevoked",
      "type": "event"
    },
    {
      "anonymous": false,
      "inputs": [
        {
          "indexed": true,
          "internalType": "address",
          "name": "member",
          "type": "address"
        },
        {
          "indexed": true,
          "internalType": "uint256",
          "name": "distributionId",
          "type": "uint256"
        },
        {
          "indexed": false,
          "internalType": "uint256",
          "name": "amount",
          "type": "uint256"
        }
      ],
      "name": "SHUClaimed",
      "type": "event"
    },
    {
      "anonymous": false,
      "inputs": [
        {
          "indexed": true,
          "internalType": "uint256",
          "name": "distributionId",
          "type": "uint256"
        },
        {
          "indexed": false,
          "internalType": "uint256",
          "name": "totalAmount",
          "type": "uint256"
        },
        {
          "indexed": false,
          "internalType": "uint256",
          "name": "memberCount",
          "type": "uint256"
        },
        {
          "indexed": false,
          "internalType": "uint256",
          "name": "perShare",
          "type": "uint256"
        }
      ],
      "name": "SHUDistributed",
      "type": "event"
    },
    {
      "anonymous": false,
      "inputs": [
        {
          "indexed": false,
          "internalType": "uint256",
          "name": "oldAmount",
          "type": "uint256"
        },
        {
          "indexed": false,
          "internalType": "uint256",
          "name": "newAmount",
          "type": "uint256"
        }
      ],
      "name": "SimpananPokokAmountUpdated",
      "type": "event"
    },
    {
      "anonymous": false,
      "inputs": [
        {
          "indexed": true,
          "internalType": "address",
          "name": "member",
          "type": "address"
        },
        {
          "indexed": false,
          "internalType": "uint256",
          "name": "amount",
          "type": "uint256"
        },
        {
          "indexed": false,
          "internalType": "uint256",
          "name": "timestamp",
          "type": "uint256"
        }
      ],
      "name": "SimpananPokokPaid",
      "type": "event"
    },
    {
      "anonymous": false,
      "inputs": [
        {
          "indexed": false,
          "internalType": "uint256",
          "name": "oldAmount",
          "type": "uint256"
        },
        {
          "indexed": false,
          "internalType": "uint256",
          "name": "newAmount",
          "type": "uint256"
        }
      ],
      "name": "SimpananWajibAmountUpdated",
      "type": "event"
    },
    {
      "anonymous": false,
      "inputs": [
        {
          "indexed": true,
          "internalType": "address",
          "name": "member",
          "type": "address"
        },
        {
          "indexed": false,
          "internalType": "uint256",
          "name": "amount",
          "type": "uint256"
        },
        {
          "indexed": false,
          "internalType": "uint256",
          "name": "periods",
          "type": "uint256"
        },
        {
          "indexed": false,
          "internalType": "uint256",
          "name": "timestamp",
          "type": "uint256"
        }
      ],
      "name": "SimpananWajibPaid",
      "type": "event"
    },
    {
      "anonymous": false,
      "inputs": [
        {
          "indexed": false,
          "internalType": "uint256",
          "name": "oldThreshold",
          "type": "uint256"
        },
        {
          "indexed": false,
          "internalType": "uint256",
          "name": "newThreshold",
          "type": "uint256"
        }
      ],
      "name": "ThresholdUpdated",
      "type": "event"
    },
    {
      "anonymous": false,
      "inputs": [
        {
          "indexed": false,
          "internalType": "uint256",
          "name": "oldTimelock",
          "type": "uint256"
        },
        {
          "indexed": false,
          "internalType": "uint256",
          "name": "newTimelock",
          "type": "uint256"
        }
      ],
      "name": "TimelockUpdated",
      "type": "event"
    },
    {
      "anonymous": false,
      "inputs": [
        {
          "indexed": true,
          "internalType": "address",
          "name": "token",
          "type": "address"
        }
      ],
      "name": "TokenSet",
      "type": "event"
    },
    {
      "anonymous": false,
      "inputs": [
        {
          "indexed": false,
          "internalType": "address",
          "name": "account",
          "type": "address"
        }
      ],
      "name": "Unpaused",
      "type": "event"
    },
    {
      "anonymous": false,
      "inputs": [
        {
          "indexed": true,
          "internalType": "uint256",
          "name": "id",
          "type": "uint256"
        }
      ],
      "name": "WithdrawalCanceled",
      "type": "event"
    },
    {
      "anonymous": false,
      "inputs": [
        {
          "indexed": true,
          "internalType": "uint256",
          "name": "id",
          "type": "uint256"
        },
        {
          "indexed": false,
          "internalType": "address",
          "name": "recipient",
          "type": "address"
        },
        {
          "indexed": false,
          "internalType": "uint256",
          "name": "amount",
          "type": "uint256"
        }
      ],
      "name": "WithdrawalExecuted",
      "type": "event"
    },
    {
      "anonymous": false,
      "inputs": [
        {
          "indexed": true,
          "internalType": "uint256",
          "name": "id",
          "type": "uint256"
        },
        {
          "indexed": true,
          "internalType": "address",
          "name": "recipient",
          "type": "address"
        },
        {
          "indexed": false,
          "internalType": "uint256",
          "name": "amount",
          "type": "uint256"
        },
        {
          "indexed": false,
          "internalType": "uint256",
          "name": "executableAt",
          "type": "uint256"
        }
      ],
      "name": "WithdrawalRequested",
      "type": "event"
    },
    {
      "anonymous": false,
      "inputs": [
        {
          "indexed": true,
          "internalType": "address",
          "name": "member",
          "type": "address"
        },
        {
          "indexed": false,
          "internalType": "uint256",
          "name": "amount",
          "type": "uint256"
        },
        {
          "indexed": false,
          "internalType": "uint256",
          "name": "shares",
          "type": "uint256"
        },
        {
          "indexed": false,
          "internalType": "uint256",
          "name": "timestamp",
          "type": "uint256"
        }
      ],
      "name": "Withdrawn",
      "type": "event"
    },
    {
      "inputs": [],
      "name": "DEFAULT_ADMIN_ROLE",
      "outputs": [
        {
          "internalType": "bytes32",
          "name": "",
          "type": "bytes32"
        }
      ],
      "stateMutability": "view",
      "type": "function"
    },
    {
      "inputs": [],
      "name": "GOVERN_ROLE",
      "outputs": [
        {
          "internalType": "bytes32",
          "name": "",
          "type": "bytes32"
        }
      ],
      "stateMutability": "view",
      "type": "function"
    },
    {
      "inputs": [],
      "name": "LOAN_ROLE",
      "outputs": [
        {
          "internalType": "bytes32",
          "name": "",
          "type": "bytes32"
        }
      ],
      "stateMutability": "view",
      "type": "function"
    },
    {
      "inputs": [],
      "name": "TIER2_THRESHOLD",
      "outputs": [
        {
          "internalType": "uint256",
          "name": "",
          "type": "uint256"
        }
      ],
      "stateMutability": "view",
      "type": "function"
    },
    {
      "inputs": [],
      "name": "TIER3_THRESHOLD",
      "outputs": [
        {
          "internalType": "uint256",
          "name": "",
          "type": "uint256"
        }
      ],
      "stateMutability": "view",
      "type": "function"
    },
    {
      "inputs": [],
      "name": "TREASURER_ROLE",
      "outputs": [
        {
          "internalType": "bytes32",
          "name": "",
          "type": "bytes32"
        }
      ],
      "stateMutability": "view",
      "type": "function"
    },
    {
      "inputs": [],
      "name": "accumulatedRevenue",
      "outputs": [
        {
          "internalType": "uint256",
          "name": "",
          "type": "uint256"
        }
      ],
      "stateMutability": "view",
      "type": "function"
    },
    {
      "inputs": [
        {
          "internalType": "address",
          "name": "spender",
          "type": "address"
        },
        {
          "internalType": "uint256",
          "name": "amount",
          "type": "uint256"
        }
      ],
      "name": "approveUSDCSpending",
      "outputs": [],
      "stateMutability": "nonpayable",
      "type": "function"
    },
    {
      "inputs": [
        {
          "internalType": "uint256",
          "name": "withdrawalId",
          "type": "uint256"
        }
      ],
      "name": "approveWithdrawal",
      "outputs": [],
      "stateMutability": "nonpayable",
      "type": "function"
    },
    {
      "inputs": [
        {
          "internalType": "uint256",
          "name": "withdrawalId",
          "type": "uint256"
        }
      ],
      "name": "cancelWithdrawal",
      "outputs": [],
      "stateMutability": "nonpayable",
      "type": "function"
    },
    {
      "inputs": [
        {
          "internalType": "uint256",
          "name": "distributionId",
          "type": "uint256"
        }
      ],
      "name": "claimSHU",
      "outputs": [],
      "stateMutability": "nonpayable",
      "type": "function"
    },
    {
      "inputs": [
        {
          "internalType": "address",
          "name": "member",
          "type": "address"
        }
      ],
      "name": "contributionScore",
      "outputs": [
        {
          "internalType": "uint256",
          "name": "",
          "type": "uint256"
        }
      ],
      "stateMutability": "view",
      "type": "function"
    },
    {
      "inputs": [
        {
          "internalType": "address",
          "name": "",
          "type": "address"
        }
      ],
      "name": "contributions",
      "outputs": [
        {
          "internalType": "uint256",
          "name": "",
          "type": "uint256"
        }
      ],
      "stateMutability": "view",
      "type": "function"
    },
    {
      "inputs": [
        {
          "internalType": "uint256",
          "name": "amount",
          "type": "uint256"
        }
      ],
      "name": "deposit",
      "outputs": [
        {
          "internalType": "uint256",
          "name": "sharesIssued",
          "type": "uint256"
        }
      ],
      "stateMutability": "nonpayable",
      "type": "function"
    },
    {
      "inputs": [],
      "name": "distributeSHU",
      "outputs": [],
      "stateMutability": "nonpayable",
      "type": "function"
    },
    {
      "inputs": [
        {
          "internalType": "address",
          "name": "token",
          "type": "address"
        },
        {
          "internalType": "address",
          "name": "to",
          "type": "address"
        },
        {
          "internalType": "uint256",
          "name": "amount",
          "type": "uint256"
        }
      ],
      "name": "emergencyWithdraw",
      "outputs": [],
      "stateMutability": "nonpayable",
      "type": "function"
    },
    {
      "inputs": [
        {
          "internalType": "uint256",
          "name": "withdrawalId",
          "type": "uint256"
        }
      ],
      "name": "executeWithdrawal",
      "outputs": [],
      "stateMutability": "nonpayable",
      "type": "function"
    },
    {
      "inputs": [
        {
          "internalType": "address",
          "name": "",
          "type": "address"
        }
      ],
      "name": "firstDepositTime",
      "outputs": [
        {
          "internalType": "uint256",
          "name": "",
          "type": "uint256"
        }
      ],
      "stateMutability": "view",
      "type": "function"
    },
    {
      "inputs": [
        {
          "internalType": "address",
          "name": "member",
          "type": "address"
        }
      ],
      "name": "getContributionTier",
      "outputs": [
        {
          "internalType": "uint8",
          "name": "",
          "type": "uint8"
        }
      ],
      "stateMutability": "view",
      "type": "function"
    },
    {
      "inputs": [
        {
          "internalType": "address",
          "name": "member",
          "type": "address"
        }
      ],
      "name": "getMemberBalance",
      "outputs": [
        {
          "internalType": "uint256",
          "name": "",
          "type": "uint256"
        }
      ],
      "stateMutability": "view",
      "type": "function"
    },
    {
      "inputs": [
        {
          "internalType": "address",
          "name": "member",
          "type": "address"
        }
      ],
      "name": "getMemberSharePercent",
      "outputs": [
        {
          "internalType": "uint256",
          "name": "",
          "type": "uint256"
        }
      ],
      "stateMutability": "view",
      "type": "function"
    },
    {
      "inputs": [
        {
          "internalType": "address",
          "name": "member",
          "type": "address"
        }
      ],
      "name": "getMemberValue",
      "outputs": [
        {
          "internalType": "uint256",
          "name": "",
          "type": "uint256"
        }
      ],
      "stateMutability": "view",
      "type": "function"
    },
    {
      "inputs": [
        {
          "internalType": "address",
          "name": "member",
          "type": "address"
        }
      ],
      "name": "getPendingSHU",
      "outputs": [
        {
          "internalType": "uint256",
          "name": "",
          "type": "uint256"
        }
      ],
      "stateMutability": "view",
      "type": "function"
    },
    {
      "inputs": [
        {
          "internalType": "uint256",
          "name": "withdrawalId",
          "type": "uint256"
        }
      ],
      "name": "getPendingWithdrawal",
      "outputs": [
        {
          "internalType": "address",
          "name": "recipient",
          "type": "address"
        },
        {
          "internalType": "uint256",
          "name": "amount",
          "type": "uint256"
        },
        {
          "internalType": "uint256",
          "name": "timestamp",
          "type": "uint256"
        },
        {
          "internalType": "uint256",
          "name": "executableAt",
          "type": "uint256"
        },
        {
          "internalType": "bool",
          "name": "executed",
          "type": "bool"
        },
        {
          "internalType": "bool",
          "name": "approved",
          "type": "bool"
        }
      ],
      "stateMutability": "view",
      "type": "function"
    },
    {
      "inputs": [
        {
          "internalType": "bytes32",
          "name": "role",
          "type": "bytes32"
        }
      ],
      "name": "getRoleAdmin",
      "outputs": [
        {
          "internalType": "bytes32",
          "name": "",
          "type": "bytes32"
        }
      ],
      "stateMutability": "view",
      "type": "function"
    },
    {
      "inputs": [
        {
          "internalType": "address",
          "name": "member",
          "type": "address"
        }
      ],
      "name": "getSimpananSummary",
      "outputs": [
        {
          "internalType": "uint256",
          "name": "pokok",
          "type": "uint256"
        },
        {
          "internalType": "uint256",
          "name": "wajibTotal",
          "type": "uint256"
        },
        {
          "internalType": "uint256",
          "name": "wajibPeriodsPaid",
          "type": "uint256"
        },
        {
          "internalType": "uint256",
          "name": "wajibPeriodsOwed",
          "type": "uint256"
        },
        {
          "internalType": "uint256",
          "name": "sukarela",
          "type": "uint256"
        },
        {
          "internalType": "uint256",
          "name": "totalContribution",
          "type": "uint256"
        }
      ],
      "stateMutability": "view",
      "type": "function"
    },
    {
      "inputs": [
        {
          "internalType": "address",
          "name": "member",
          "type": "address"
        }
      ],
      "name": "getSimpananWajibPeriodsOwed",
      "outputs": [
        {
          "internalType": "uint256",
          "name": "",
          "type": "uint256"
        }
      ],
      "stateMutability": "view",
      "type": "function"
    },
    {
      "inputs": [],
      "name": "getTotalAssets",
      "outputs": [
        {
          "internalType": "uint256",
          "name": "",
          "type": "uint256"
        }
      ],
      "stateMutability": "view",
      "type": "function"
    },
    {
      "inputs": [
        {
          "internalType": "address",
          "name": "to",
          "type": "address"
        },
        {
          "internalType": "uint256",
          "name": "amount",
          "type": "uint256"
        },
        {
          "internalType": "bytes",
          "name": "reason",
          "type": "bytes"
        }
      ],
      "name": "governanceSpend",
      "outputs": [],
      "stateMutability": "nonpayable",
      "type": "function"
    },
    {
      "inputs": [
        {
          "internalType": "bytes32",
          "name": "role",
          "type": "bytes32"
        },
        {
          "internalType": "address",
          "name": "account",
          "type": "address"
        }
      ],
      "name": "grantRole",
      "outputs": [],
      "stateMutability": "nonpayable",
      "type": "function"
    },
    {
      "inputs": [
        {
          "internalType": "address",
          "name": "member",
          "type": "address"
        }
      ],
      "name": "hasPaidSimpananPokok",
      "outputs": [
        {
          "internalType": "bool",
          "name": "",
          "type": "bool"
        }
      ],
      "stateMutability": "view",
      "type": "function"
    },
    {
      "inputs": [
        {
          "internalType": "bytes32",
          "name": "role",
          "type": "bytes32"
        },
        {
          "internalType": "address",
          "name": "account",
          "type": "address"
        }
      ],
      "name": "hasRole",
      "outputs": [
        {
          "internalType": "bool",
          "name": "",
          "type": "bool"
        }
      ],
      "stateMutability": "view",
      "type": "function"
    },
    {
      "inputs": [
        {
          "internalType": "address",
          "name": "member",
          "type": "address"
        }
      ],
      "name": "isSimpananWajibCurrent",
      "outputs": [
        {
          "internalType": "bool",
          "name": "",
          "type": "bool"
        }
      ],
      "stateMutability": "view",
      "type": "function"
    },
    {
      "inputs": [],
      "name": "lakomiGovern",
      "outputs": [
        {
          "internalType": "address",
          "name": "",
          "type": "address"
        }
      ],
      "stateMutability": "view",
      "type": "function"
    },
    {
      "inputs": [],
      "name": "lakomiToken",
      "outputs": [
        {
          "internalType": "address",
          "name": "",
          "type": "address"
        }
      ],
      "stateMutability": "view",
      "type": "function"
    },
    {
      "inputs": [],
      "name": "lastSHUDistribution",
      "outputs": [
        {
          "internalType": "uint256",
          "name": "",
          "type": "uint256"
        }
      ],
      "stateMutability": "view",
      "type": "function"
    },
    {
      "inputs": [],
      "name": "nextWithdrawalId",
      "outputs": [
        {
          "internalType": "uint256",
          "name": "",
          "type": "uint256"
        }
      ],
      "stateMutability": "view",
      "type": "function"
    },
    {
      "inputs": [],
      "name": "operationalReserveBps",
      "outputs": [
        {
          "internalType": "uint256",
          "name": "",
          "type": "uint256"
        }
      ],
      "stateMutability": "view",
      "type": "function"
    },
    {
      "inputs": [],
      "name": "pause",
      "outputs": [],
      "stateMutability": "nonpayable",
      "type": "function"
    },
    {
      "inputs": [],
      "name": "paused",
      "outputs": [
        {
          "internalType": "bool",
          "name": "",
          "type": "bool"
        }
      ],
      "stateMutability": "view",
      "type": "function"
    },
    {
      "inputs": [
        {
          "internalType": "address",
          "name": "member",
          "type": "address"
        }
      ],
      "name": "paySimpananPokok",
      "outputs": [],
      "stateMutability": "nonpayable",
      "type": "function"
    },
    {
      "inputs": [],
      "name": "paySimpananWajib",
      "outputs": [],
      "stateMutability": "nonpayable",
      "type": "function"
    },
    {
      "inputs": [
        {
          "internalType": "uint256",
          "name": "",
          "type": "uint256"
        }
      ],
      "name": "pendingWithdrawals",
      "outputs": [
        {
          "internalType": "address",
          "name": "recipient",
          "type": "address"
        },
        {
          "internalType": "uint256",
          "name": "amount",
          "type": "uint256"
        },
        {
          "internalType": "uint256",
          "name": "timestamp",
          "type": "uint256"
        },
        {
          "internalType": "uint256",
          "name": "executableAt",
          "type": "uint256"
        },
        {
          "internalType": "bool",
          "name": "executed",
          "type": "bool"
        },
        {
          "internalType": "bool",
          "name": "approved",
          "type": "bool"
        }
      ],
      "stateMutability": "view",
      "type": "function"
    },
    {
      "inputs": [
        {
          "internalType": "uint256",
          "name": "amount",
          "type": "uint256"
        }
      ],
      "name": "receiveRevenue",
      "outputs": [],
      "stateMutability": "nonpayable",
      "type": "function"
    },
    {
      "inputs": [
        {
          "internalType": "bytes32",
          "name": "role",
          "type": "bytes32"
        },
        {
          "internalType": "address",
          "name": "callerConfirmation",
          "type": "address"
        }
      ],
      "name": "renounceRole",
      "outputs": [],
      "stateMutability": "nonpayable",
      "type": "function"
    },
    {
      "inputs": [
        {
          "internalType": "address",
          "name": "recipient",
          "type": "address"
        },
        {
          "internalType": "uint256",
          "name": "amount",
          "type": "uint256"
        }
      ],
      "name": "requestWithdrawal",
      "outputs": [
        {
          "internalType": "uint256",
          "name": "withdrawalId",
          "type": "uint256"
        }
      ],
      "stateMutability": "nonpayable",
      "type": "function"
    },
    {
      "inputs": [
        {
          "internalType": "bytes32",
          "name": "role",
          "type": "bytes32"
        },
        {
          "internalType": "address",
          "name": "account",
          "type": "address"
        }
      ],
      "name": "revokeRole",
      "outputs": [],
      "stateMutability": "nonpayable",
      "type": "function"
    },
    {
      "inputs": [
        {
          "internalType": "address",
          "name": "govern",
          "type": "address"
        }
      ],
      "name": "setLakomiGovern",
      "outputs": [],
      "stateMutability": "nonpayable",
      "type": "function"
    },
    {
      "inputs": [
        {
          "internalType": "address",
          "name": "token",
          "type": "address"
        }
      ],
      "name": "setLakomiToken",
      "outputs": [],
      "stateMutability": "nonpayable",
      "type": "function"
    },
    {
      "inputs": [
        {
          "internalType": "uint256",
          "name": "newBps",
          "type": "uint256"
        }
      ],
      "name": "setOperationalReserveBps",
      "outputs": [],
      "stateMutability": "nonpayable",
      "type": "function"
    },
    {
      "inputs": [
        {
          "internalType": "uint256",
          "name": "newAmount",
          "type": "uint256"
        }
      ],
      "name": "setSimpananPokokAmount",
      "outputs": [],
      "stateMutability": "nonpayable",
      "type": "function"
    },
    {
      "inputs": [
        {
          "internalType": "uint256",
          "name": "newAmount",
          "type": "uint256"
        }
      ],
      "name": "setSimpananWajibAmount",
      "outputs": [],
      "stateMutability": "nonpayable",
      "type": "function"
    },
    {
      "inputs": [
        {
          "internalType": "uint256",
          "name": "newThreshold",
          "type": "uint256"
        }
      ],
      "name": "setWithdrawalThreshold",
      "outputs": [],
      "stateMutability": "nonpayable",
      "type": "function"
    },
    {
      "inputs": [
        {
          "internalType": "uint256",
          "name": "newTimelock",
          "type": "uint256"
        }
      ],
      "name": "setWithdrawalTimelock",
      "outputs": [],
      "stateMutability": "nonpayable",
      "type": "function"
    },
    {
      "inputs": [
        {
          "internalType": "address",
          "name": "",
          "type": "address"
        }
      ],
      "name": "shares",
      "outputs": [
        {
          "internalType": "uint256",
          "name": "",
          "type": "uint256"
        }
      ],
      "stateMutability": "view",
      "type": "function"
    },
    {
      "inputs": [
        {
          "internalType": "address",
          "name": "",
          "type": "address"
        }
      ],
      "name": "shuClaimed",
      "outputs": [
        {
          "internalType": "uint256",
          "name": "",
          "type": "uint256"
        }
      ],
      "stateMutability": "view",
      "type": "function"
    },
    {
      "inputs": [
        {
          "internalType": "uint256",
          "name": "",
          "type": "uint256"
        },
        {
          "internalType": "address",
          "name": "",
          "type": "address"
        }
      ],
      "name": "shuClaimedForDistribution",
      "outputs": [
        {
          "internalType": "bool",
          "name": "",
          "type": "bool"
        }
      ],
      "stateMutability": "view",
      "type": "function"
    },
    {
      "inputs": [],
      "name": "shuDistributionCount",
      "outputs": [
        {
          "internalType": "uint256",
          "name": "",
          "type": "uint256"
        }
      ],
      "stateMutability": "view",
      "type": "function"
    },
    {
      "inputs": [],
      "name": "shuDistributionPeriod",
      "outputs": [
        {
          "internalType": "uint256",
          "name": "",
          "type": "uint256"
        }
      ],
      "stateMutability": "view",
      "type": "function"
    },
    {
      "inputs": [
        {
          "internalType": "uint256",
          "name": "",
          "type": "uint256"
        }
      ],
      "name": "shuDistributions",
      "outputs": [
        {
          "internalType": "uint256",
          "name": "totalAmount",
          "type": "uint256"
        },
        {
          "internalType": "uint256",
          "name": "memberCount",
          "type": "uint256"
        },
        {
          "internalType": "uint256",
          "name": "timestamp",
          "type": "uint256"
        },
        {
          "internalType": "uint256",
          "name": "perShare",
          "type": "uint256"
        }
      ],
      "stateMutability": "view",
      "type": "function"
    },
    {
      "inputs": [
        {
          "internalType": "address",
          "name": "",
          "type": "address"
        }
      ],
      "name": "shuPending",
      "outputs": [
        {
          "internalType": "uint256",
          "name": "",
          "type": "uint256"
        }
      ],
      "stateMutability": "view",
      "type": "function"
    },
    {
      "inputs": [
        {
          "internalType": "address",
          "name": "",
          "type": "address"
        }
      ],
      "name": "simpananPokok",
      "outputs": [
        {
          "internalType": "uint256",
          "name": "",
          "type": "uint256"
        }
      ],
      "stateMutability": "view",
      "type": "function"
    },
    {
      "inputs": [],
      "name": "simpananPokokAmount",
      "outputs": [
        {
          "internalType": "uint256",
          "name": "",
          "type": "uint256"
        }
      ],
      "stateMutability": "view",
      "type": "function"
    },
    {
      "inputs": [],
      "name": "simpananWajibAmount",
      "outputs": [
        {
          "internalType": "uint256",
          "name": "",
          "type": "uint256"
        }
      ],
      "stateMutability": "view",
      "type": "function"
    },
    {
      "inputs": [
        {
          "internalType": "address",
          "name": "",
          "type": "address"
        }
      ],
      "name": "simpananWajibLastPaid",
      "outputs": [
        {
          "internalType": "uint256",
          "name": "",
          "type": "uint256"
        }
      ],
      "stateMutability": "view",
      "type": "function"
    },
    {
      "inputs": [],
      "name": "simpananWajibPeriod",
      "outputs": [
        {
          "internalType": "uint256",
          "name": "",
          "type": "uint256"
        }
      ],
      "stateMutability": "view",
      "type": "function"
    },
    {
      "inputs": [
        {
          "internalType": "address",
          "name": "",
          "type": "address"
        }
      ],
      "name": "simpananWajibPeriodsPaid",
      "outputs": [
        {
          "internalType": "uint256",
          "name": "",
          "type": "uint256"
        }
      ],
      "stateMutability": "view",
      "type": "function"
    },
    {
      "inputs": [
        {
          "internalType": "address",
          "name": "",
          "type": "address"
        }
      ],
      "name": "simpananWajibTotal",
      "outputs": [
        {
          "internalType": "uint256",
          "name": "",
          "type": "uint256"
        }
      ],
      "stateMutability": "view",
      "type": "function"
    },
    {
      "inputs": [],
      "name": "stableToken",
      "outputs": [
        {
          "internalType": "contract IERC20",
          "name": "",
          "type": "address"
        }
      ],
      "stateMutability": "view",
      "type": "function"
    },
    {
      "inputs": [
        {
          "internalType": "bytes4",
          "name": "interfaceId",
          "type": "bytes4"
        }
      ],
      "name": "supportsInterface",
      "outputs": [
        {
          "internalType": "bool",
          "name": "",
          "type": "bool"
        }
      ],
      "stateMutability": "view",
      "type": "function"
    },
    {
      "inputs": [],
      "name": "totalDeposited",
      "outputs": [
        {
          "internalType": "uint256",
          "name": "",
          "type": "uint256"
        }
      ],
      "stateMutability": "view",
      "type": "function"
    },
    {
      "inputs": [],
      "name": "totalSHUDistributed",
      "outputs": [
        {
          "internalType": "uint256",
          "name": "",
          "type": "uint256"
        }
      ],
      "stateMutability": "view",
      "type": "function"
    },
    {
      "inputs": [],
      "name": "totalShares",
      "outputs": [
        {
          "internalType": "uint256",
          "name": "",
          "type": "uint256"
        }
      ],
      "stateMutability": "view",
      "type": "function"
    },
    {
      "inputs": [],
      "name": "totalWithdrawn",
      "outputs": [
        {
          "internalType": "uint256",
          "name": "",
          "type": "uint256"
        }
      ],
      "stateMutability": "view",
      "type": "function"
    },
    {
      "inputs": [],
      "name": "unpause",
      "outputs": [],
      "stateMutability": "nonpayable",
      "type": "function"
    },
    {
      "inputs": [
        {
          "internalType": "uint256",
          "name": "amount",
          "type": "uint256"
        }
      ],
      "name": "withdraw",
      "outputs": [
        {
          "internalType": "uint256",
          "name": "actualAmount",
          "type": "uint256"
        }
      ],
      "stateMutability": "nonpayable",
      "type": "function"
    },
    {
      "inputs": [],
      "name": "withdrawalThreshold",
      "outputs": [
        {
          "internalType": "uint256",
          "name": "",
          "type": "uint256"
        }
      ],
      "stateMutability": "view",
      "type": "function"
    },
    {
      "inputs": [],
      "name": "withdrawalTimelock",
      "outputs": [
        {
          "internalType": "uint256",
          "name": "",
          "type": "uint256"
        }
      ],
      "stateMutability": "view",
      "type": "function"
    }
  ],
  "bytecode": "0x60a0346200014757601f62002c8338819003918201601f19168301916001600160401b038311848410176200014c5780849260c094604052833981010312620001475780516001600160a01b038116919082900362000147576020810151604082015160608301519160a060808501519401519460017f9b779b17422d0df92223018b32b4d1fa46e071723d6817e2486d003becc55f005580156200013557608052600755600855600d55600e55600f556103e86019556301e13380601755620000c93362000162565b50620000d533620001e2565b506040516129de908162000285823960805181818161088201528181610a5b01528181610b5401528181610c7e01528181610f46015281816113e80152818161193d01528181611c4901528181611f790152818161209001526127d70152f35b6040516322fe8fc760e21b8152600490fd5b600080fd5b634e487b7160e01b600052604160045260246000fd5b6001600160a01b031660008181527fad3228b676f7d3cd4284a5443f17f1962b36e491b30a40b2405849e597ba5fb5602052604081205490919060ff16620001de57818052816020526040822081835260205260408220600160ff19825416179055339160008051602062002c638339815191528180a4600190565b5090565b6001600160a01b031660008181527f991c3211066600fc98d95d017c66f2884b1fa3d4cabc2576d000f3cc80931bda60205260408120549091907f3496e2e73c4d42b75d702e60d9e48102720b8691234415963a5a857b86425d079060ff166200027f57808352826020526040832082845260205260408320600160ff1982541617905560008051602062002c63833981519152339380a4600190565b50509056fe608060408181526004918236101561001657600080fd5b600092833560e01c91826301ffc9a71461231457508163075e9c581461229c5781630835c20114612252578163086d2c87146122335781630961f8bc146122035781630b6d22bb146121e457816318aefba4146121c5578163193b9eca146121705781631e27970f14612151578163201785d61461202b578163248a9ca31461200157816324f13a7614611e6757816328f3597e14611dd05781632934ce4714611d7b5781632c4fbd2d14611ce95781632e1a7d4d14611b515781632f2ff15d14611b275781632f59129714611a73578163340bc08b146118b957816336568abe1461187357816338a3c8781461049157816338b7f446146118385781633a98ef39146118195781633b56ad44146117fa5781633efcfda4146117315781633f4ba83a146116c757816342dfac72146116a857816342e94c90146109615781634786b0cb1461165357816349cf6147146116345781634a9122e3146116155781634b319713146115f657816351b07047146115d05781635c975abb146115ac578163697b00471461158d5781636cb7c6f9146115555781636e07302b146115385781636f11ca1514611500578163763163e71461139c5781637698325f1461137d57816377da1f741461135757816378fcb156146112705781637985fd51146112515781637f071c7c14611219578163803d7823146111e15781638144a447146111a95781638456cb591461114f57816384734ebd14610fc7578163907dc9a914610e7a57816391a608aa14610e2557816391d1485414610ddf578163923231ff14610db9578163944470c214610d9a5781639482292514610d715781639c530b2414610d395781639eceddea14610cc8578163a217fddf14610cad578163a9d75b2b14610c69578163b6b55f2514610af5578163bb47859b14610abd578163bd4ebf3714610a0b578163beaa838f146109c4578163c3f5124d14610997578163ca55753a14610961578163ce7c2ac214610929578163cecb394f14610810578163d153c8bd146107f1578163d547741f146107b2578163d82c363f1461074a578163da95ebf714610571578163de08e74314610537578163df817a711461050e578163e61504001461049157508063e63ea40814610432578063ec4bbb4d146103f8578063f0a3a97c146103be578063ff50abdc146103a05763ffacef081461037f57600080fd5b3461039c578160031936011261039c576020906015549051908152f35b5080fd5b503461039c578160031936011261039c576020906002549051908152f35b503461039c578160031936011261039c57602090517f3496e2e73c4d42b75d702e60d9e48102720b8691234415963a5a857b86425d078152f35b503461039c578160031936011261039c57602090517fbb7c4cc08a5621ac614782239b3fb6f7ae6db25496d23ef396b5d5df8b271c0d8152f35b823461048e57606036600319011261048e5761047961044f612367565b610457612382565b61045f612398565b610467612615565b604435916001600160a01b031661275b565b60016000805160206129898339815191525580f35b80fd5b82843461048e57602036600319011261048e578235815260096020908152908290208054600182015460028301546003840154939096015494516001600160a01b039092168252928101929092526040820193909352606081019290925260ff8082161515608084015260089190911c16151560a082015260c090f35b50503461039c578160031936011261039c57600c5490516001600160a01b039091168152602090f35b50503461039c57602036600319011261039c5760209181906001600160a01b0361055f612367565b16815260108452205415159051908152f35b83833461039c578060031936011261039c5761058b612367565b602435610596612654565b61059e612615565b6001600160a01b0391821691821561073a57811561072a57600754821061071a57338552602095808752826105f26105e18789205460108b52888a205490612672565b33895260118a528789205490612672565b1061070c5761060360085442612565565b91600a549661061188612645565b600a5586519160c0830183811067ffffffffffffffff8211176106f95788948a97947fe6d14ce42ad5a4efe0f111f81c1a1123db4ee41f561c3161e0960d54a9221ebe97948d948a9489528b8352858301888152898401914283528a60608601948a86526009608088019a828c5260a089019a838c52835252209451166bffffffffffffffffffffffff60a01b85541617845551600184015551600283015551600382015501915115159060ff61ff0084549251151560081b1692169061ffff191617179055825191825288820152a360016000805160206129898339815191525551908152f35b634e487b7160e01b835260418552602483fd5b84516344dd002f60e11b8152fd5b8351639293b47f60e01b81528690fd5b8351630a76f80b60e21b81528690fd5b83516322fe8fc760e21b81528690fd5b9050346107ae5760203660031901126107ae578035916107686123f0565b611388831161077957505060195580f35b906020606492519162461bcd60e51b8352820152600f60248201526e4d617820353025207265736572766560881b6044820152fd5b8280fd5b919050346107ae57806003193601126107ae576107ed91356107e860016107d7612382565b93838752866020528620015461244c565b6124f0565b5080f35b50503461039c578160031936011261039c576020906018549051908152f35b83833461039c57602090816003193601126107ae5761082d612367565b91610836612615565b6001600160a01b038316808552601082528285205490939061091957946108a67fc7bd097b41b4436e89260d5edefc678ee270eeb55b3ce23b88b2e297ff7122b0949596600d549030907f0000000000000000000000000000000000000000000000000000000000000000612588565b600d549085875260108352818488205582526108c6838720918254612565565b90556108d6600d54600254612565565b60025583855260148152818520805415610910575b50600d549082519182524290820152a260016000805160206129898339815191525580f35b429055856108eb565b8251636dc6bf2b60e11b81528690fd5b50503461039c57602036600319011261039c5760209181906001600160a01b03610951612367565b1681526006845220549051908152f35b9050346107ae5760203660031901126107ae5760209282916001600160a01b03610989612367565b168252845220549051908152f35b50503461039c57602036600319011261039c576020906109bd6109b8612367565b61284d565b9051908152f35b9050346107ae57816003193601126107ae578160209360ff926109e5612382565b90358252601e86528282206001600160a01b039091168252855220549151911615158152f35b9050346107ae5760203660031901126107ae57803590610a29612615565b8115610aaf57509081610a7f7ff213ae9678e29ddf71cfd6bb58204207ac2f5a37f62a198ca6bc86737f0158689330337f0000000000000000000000000000000000000000000000000000000000000000612588565b610a8b81601554612565565b6015558151908152426020820152a160016000805160206129898339815191525580f35b8251630a76f80b60e21b8152fd5b50503461039c57602036600319011261039c5760209181906001600160a01b03610ae5612367565b1681526011845220549051908152f35b919050346107ae576020928360031936011261048e57823590610b16612654565b610b1e612615565b8115610c5a57338152601085528281205415610c4b578290610b3e6127bc565b6005549081610c3357505082945b610b788430337f0000000000000000000000000000000000000000000000000000000000000000612588565b3382528652818120610b8b848254612565565b905533815260068652818120610ba2868254612565565b9055610bb085600554612565565b600555610bbf83600254612565565b6002553381526014865220805415610c2a575b5081519081526020810183905242604082015233907f91ede45f04a37a7c170f5c1207df3b6bc748dc1e04ad5e917a241d0f52feada39080606081015b0390a260016000805160206129898339815191525551908152f35b42905538610bd2565b610c40610c459286612748565b61267f565b94610b4c565b50505163e960ea7d60e01b8152fd5b505051630a76f80b60e21b8152fd5b50503461039c578160031936011261039c57517f00000000000000000000000000000000000000000000000000000000000000006001600160a01b03168152602090f35b50503461039c578160031936011261039c5751908152602090f35b919050346107ae5760203660031901126107ae57610ce46123f0565b81358352600960205280832080546001600160a01b031615610d2b5782019182549160ff8316610d1e57505061ff00191661010017905580f35b5163aa7e8f7560e01b8152fd5b50516339c3855560e21b8152fd5b50503461039c57602036600319011261039c5760209181906001600160a01b03610d61612367565b168152601d845220549051908152f35b50503461039c578160031936011261039c57600b5490516001600160a01b039091168152602090f35b50503461039c578160031936011261039c576020906017549051908152f35b50503461039c57602036600319011261039c576020906109bd610dda612367565b6128c9565b9050346107ae57816003193601126107ae578160209360ff92610e00612382565b903582528186528282206001600160a01b039091168252855220549151911615158152f35b919050346107ae5760203660031901126107ae577f0914a3237563e55580374c779b17c9122ee57be033cd60a0295a7b78fcc827b19135610e646123f0565b600e549080600e5582519182526020820152a180f35b9050346107ae57602080600319360112610fc357813592610e99612615565b838552601e8252808520338652825260ff8186205416610fb457838552601a8252808520805415610fa4573386526006835281862054908115610f945760030154610ee391612748565b928315610f865750907fd7c563d212890f286485c6374bebc365a4dbf84f5de5f1774aae4bef0006b49f91848652601e82528086203387528252808620600160ff19825416179055601c8252808620610f3d858254612565565b9055610f6a84337f000000000000000000000000000000000000000000000000000000000000000061275b565b519283523392a360016000805160206129898339815191525580f35b905163048f9c2760e41b8152fd5b825163048f9c2760e41b81528590fd5b815163048f9c2760e41b81528490fd5b5163048f9c2760e41b81529050fd5b8380fd5b83833461039c578160031936011261039c57610fe16123f0565b610fe9612615565b6015549081156111405761100d61271061100560195485612748565b048093612672565b801561113057600554801561112057611026908261267f565b601b549361103385612645565b601b5583516080810181811067ffffffffffffffff82111761110d5791859493916110f5937f9040685cb8b833e5686b1c8402cce4aa1146ac8048ff1e4dc1cfa17813f3618c97528481526003602082018a815287830142815260608401918683528b8d52601a602052898d2094518555516001850155516002840155519101556110c084601654612565565b60165560155542601855858752601a602052600184882001549351938493846040919493926060820195825260208201520152565b0390a260016000805160206129898339815191525580f35b634e487b7160e01b885260418952602488fd5b8251639cd0224360e01b81528690fd5b8151639cd0224360e01b81528590fd5b51639cd0224360e01b81528390fd5b50503461039c578160031936011261039c5760207f62e78cea01bee320cd4e420270b5ea74000d11b0c9f74754ebdbfc544b05a2589161118d612398565b611195612654565b600160ff198154161760015551338152a180f35b50503461039c57602036600319011261039c5760209181906001600160a01b036111d1612367565b1681526012845220549051908152f35b50503461039c57602036600319011261039c5760209181906001600160a01b03611209612367565b1681526013845220549051908152f35b50503461039c57602036600319011261039c5760209181906001600160a01b03611241612367565b168152601c845220549051908152f35b50503461039c578160031936011261039c576020906007549051908152f35b919050346107ae57602080600319360112610fc3576001600160a01b03611295612367565b16808552601082528285205493601183528386205493601384528087205491815193631df687dd60e21b855280828601528585602481305afa94851561134d57899561131a575b5097829160c099825286522054946112fd816112f88989612672565b612672565b9482519788528701528501526060840152608083015260a0820152f35b9094508581813d8311611346575b6113328183612710565b81010312611342575193826112dc565b8880fd5b503d611328565b83513d8b823e3d90fd5b50503461039c57602036600319011261039c576020906109bd611378612367565b61269f565b50503461039c578160031936011261039c576020906016549051908152f35b919050346107ae57806003193601126107ae576113b7612367565b916024928335926113c6612398565b805163095ea7b360e01b8088526001600160a01b0393841680865286885290957f0000000000000000000000000000000000000000000000000000000000000000939290919060208a60448180895af160018b51148116156114f3575b8185521561142f578980f35b878a5281875289895260208a60448180895af160018b51148116156114d4575b818552156114be57508251968952855286528460208860448180875af1916001895114831615611499575b521561148857808080808980f35b635274afe760e01b84521690820152fd5b91905060018115166114b5578590833b15153d1516169161147a565b853d89823e3d90fd5b9650505050635274afe760e01b84521690820152fd5b60018115166114ea57853b15153d15161661144f565b503d8a823e3d90fd5b853b15153d151616611423565b50503461039c57602036600319011261039c5760209181906001600160a01b03611528612367565b1681526010845220549051908152f35b50503461039c578160031936011261039c576020906109bd6127bc565b50503461039c57602036600319011261039c5760209181906001600160a01b0361157d612367565b1681526014845220549051908152f35b50503461039c578160031936011261039c57602090601b549051908152f35b50503461039c578160031936011261039c5760209060ff6001541690519015158152f35b50503461039c57602036600319011261039c576020906109bd6115f1612367565b612895565b50503461039c578160031936011261039c576020906003549051908152f35b50503461039c578160031936011261039c57602090600a549051908152f35b50503461039c578160031936011261039c57602090600d549051908152f35b919050346107ae5760203660031901126107ae577fb06a54caabe58475c86c2bf9df3f2f06dd1213e9e10659c293117fe4893b274b9135611692612398565b600754908060075582519182526020820152a180f35b50503461039c578160031936011261039c576020905163773594008152f35b9050346107ae57826003193601126107ae576116e1612398565b6001549060ff821615611723575060ff1916600155513381527f5db9ee0a495bf2e6ff9c91a7834c1ba4fdd244a5e8aa4e537bd38aeae4b073aa90602090a180f35b8251638dfc202b60e01b8152fd5b919050346107ae5760203660031901126107ae5781359182845260096020528184209060018060a01b038254169182156117eb5781019283549260ff84166117dd57331415806117bf575b6117b257505060ff191660011790557fa93f6f41ed8bce52035a13f24c08d4175a9f0b44c1f94a6d9b6b64304f64a8658280a280f35b516339c3855560e21b8152fd5b508580528560205280862033875260205260ff81872054161561177c565b505163aa7e8f7560e01b8152fd5b5082516339c3855560e21b8152fd5b50503461039c578160031936011261039c57602090600e549051908152f35b50503461039c578160031936011261039c576020906005549051908152f35b50503461039c578160031936011261039c57602090517f899bd46557473cb80307a9dabc297131ced39608330a2d29b2d52b660c03923e8152f35b83833461039c578060031936011261039c5761188d612382565b90336001600160a01b038316036118aa57506107ed9192356124f0565b5163334bd91960e11b81528390fd5b919050346107ae5760603660031901126107ae576118d5612367565b6024359060443567ffffffffffffffff91828211611a6f5736602383011215611a6f5781860135928311611a6f573660248484010111611a6f576119176123f0565b61191f612615565b6001600160a01b03818116968715611a61578515611a5357602460207f0000000000000000000000000000000000000000000000000000000000000000938951928380926370a0823160e01b8252308783015287165afa908115611a49579087918b91611a11575b5010611a03575092602485936119c37fad5a7ccb9051f94d2d3944962be58f792d6562271bae0ea41677d55c2d5885cd9897849560609861275b565b828751978896875280602088015286015201848401378181018301879052601f01601f19168101030190a260016000805160206129898339815191525580f35b86516344dd002f60e11b8152fd5b9150506020813d8211611a41575b81611a2c60209383612710565b81010312611a3d5786905138611987565b8980fd5b3d9150611a1f565b88513d8c823e3d90fd5b8651630a76f80b60e21b8152fd5b86516322fe8fc760e21b8152fd5b8680fd5b82843461048e576020918260031936011261039c57611a90612367565b601b549083906001600160a01b0316815b838110611ab2575050505051908152f35b808352601e8752848320828452875260ff85842054161580611b17575b611ae2575b611add90612645565b611aa1565b94611b0f611add9160068952611b0987862054898752601a8b526003898820015490612748565b90612565565b959050611ad4565b5060068752848320541515611acf565b919050346107ae57806003193601126107ae576107ed9135611b4c60016107d7612382565b612472565b83833461039c57602092836003193601126107ae57803592611b71612654565b611b79612615565b8315611cda57600754841015611ccb57338152818552838382205410611cbc57338152818552611bc8611bb784832054601088528584205490612672565b338352601187528483205490612672565b8411611cbc57611be5611bd96127bc565b610c4060055487612748565b9133825260068652828483205410611cae579083913382528652818120611c0d868254612672565b90553381526006865220611c22828254612672565b9055611c3081600554612672565b600555611c3f83600354612565565b600355611c6d83337f000000000000000000000000000000000000000000000000000000000000000061275b565b8151838152602081019190915242604082015233907f75e161b3e824b114fc1a33274bd7091918dd4e639cede50b78b15a4eea956a21908060608101610c0f565b835163a1aaeca560e01b8152fd5b5090516344dd002f60e11b8152fd5b509051639293b47f60e01b8152fd5b509051630a76f80b60e21b8152fd5b9050346107ae5760203660031901126107ae57611d04612367565b90611d0d612398565b6001600160a01b03918216928315611d6e57600c54928316611d615750506001600160a01b0319168117600c557f02ede59ede14fc8a452f4d9c602afef004380e4a5bf668b99ca6580878a80a5c8280a280f35b5163d4a7794160e01b8152fd5b516322fe8fc760e21b8152fd5b919050346107ae5760203660031901126107ae577f3e9cac94b7c7db9b86df56321e6f7e3e88a6c87fc15fd825df1492cf69e335519135611dba612398565b600854908060085582519182526020820152a180f35b83833461039c57602092836003193601126107ae57611ded612367565b8251631df687dd60e21b81526001600160a01b03909116918101919091528381602481305afa928315611e5c578093611e2a575b50505190158152f35b909192508382813d8311611e55575b611e438183612710565b8101031261048e575051908380611e21565b503d611e39565b8251903d90823e3d90fd5b83833461039c57602036600319011261039c57823590611e85612654565b611e8d612615565b818352600960205280832080546001600160a01b0390811695918615611ff157828101805460ff8116611fe15760081c60ff1615611fd15760038201544210611fc157611f4f7fd6cddb3d69146e96ebc2c87b1b3dd0b20ee2d3b0eadf134e011afb434a3e56e6969798611eff6127bc565b6001850196611f16885492610c4060055485612748565b928c52602052611f2a888c20918254612672565b9055848454168a526006602052868a20611f45828254612672565b9055600554612672565b600555611f5f8454600354612565565b600355805460ff1916600117905580548354611f9d9184167f000000000000000000000000000000000000000000000000000000000000000061275b565b5416905482519182526020820152a260016000805160206129898339815191525580f35b84516341927eb760e01b81528490fd5b8451637d7982db60e11b81528490fd5b855163aa7e8f7560e01b81528590fd5b83516339c3855560e21b81528390fd5b9050346107ae5760203660031901126107ae57816020936001923581528085522001549051908152f35b9050346107ae57826003193601126107ae57612045612615565b61204d612654565b338352602090601082528284205415612143577f991dee3b52711c23609ec310ae0ddc55c442c1b66a269403aa45e5a59bfd90ec916110f5916120b4600e5430337f0000000000000000000000000000000000000000000000000000000000000000612588565b600e54338752601183526120cc868820918254612565565b9055338652601382528486206120e28154612645565b9055338652601282524285872055600e54908252612104858720918254612565565b90556013600e549161211883600254612565565b6002553387525283852054935191829133954291846040919493926060820195825260208201520152565b825163e960ea7d60e01b8152fd5b50503461039c578160031936011261039c576020906008549051908152f35b919050346107ae5760203660031901126107ae577febf421625e332bd4d46debf00eb86541652eb65f512eb937e06e3ba623db5d0891356121af6123f0565b600d549080600d5582519182526020820152a180f35b50503461039c578160031936011261039c57602090600f549051908152f35b50503461039c578160031936011261039c576020906019549051908152f35b50503461039c57602036600319011261039c5760209060ff61222b612226612367565b612949565b915191168152f35b50503461039c578160031936011261039c5760209051631dcd65008152f35b9050346107ae5760203660031901126107ae576080928291358152601a60205220908154916001810154916003600283015492015492815194855260208501528301526060820152f35b9050346107ae5760203660031901126107ae576122b7612367565b906122c0612398565b6001600160a01b03918216928315611d6e57600b54928316611d615750506001600160a01b0319168117600b557fa07c91c183e42229e705a9795a1c06d76528b673788b849597364528c96eefb78280a280f35b8491346107ae5760203660031901126107ae573563ffffffff60e01b81168091036107ae5760209250637965db0b60e01b8114908115612356575b5015158152f35b6301ffc9a760e01b1490508361234f565b600435906001600160a01b038216820361237d57565b600080fd5b602435906001600160a01b038216820361237d57565b3360009081527fad3228b676f7d3cd4284a5443f17f1962b36e491b30a40b2405849e597ba5fb5602052604081205460ff16156123d25750565b6044906040519063e2517d3f60e01b82523360048301526024820152fd5b3360009081527ffb5b4225f7c0b188efbc1b7193af901f1a98349314de629b98c0655cf230463760205260409020547f899bd46557473cb80307a9dabc297131ced39608330a2d29b2d52b660c03923e9060ff16156123d25750565b80600052600060205260406000203360005260205260ff60406000205416156123d25750565b9060009180835282602052604083209160018060a01b03169182845260205260ff604084205416156000146124eb57808352826020526040832082845260205260408320600160ff198254161790557f2f8788117e7eff1d82e926ec794901d17c78024a50270940304540a733656f0d339380a4600190565b505090565b9060009180835282602052604083209160018060a01b03169182845260205260ff6040842054166000146124eb5780835282602052604083208284526020526040832060ff1981541690557ff6391f5c32d9c69d2a47ea670b442974b53935d1edc7fd64eb21e047a839171b339380a4600190565b9190820180921161257257565b634e487b7160e01b600052601160045260246000fd5b6040516323b872dd60e01b60009081526001600160a01b03938416600452938316602452604494909452909160209060648180855af16001600051148116156125f5575b836040526000606052156125df57505050565b635274afe760e01b835216600482015260249150fd5b600181151661260b57813b15153d1516166125cc565b833d6000823e3d90fd5b60008051602061298983398151915260028154146126335760029055565b604051633ee5aeb560e01b8152600490fd5b60001981146125725760010190565b60ff6001541661266057565b60405163d93c066560e01b8152600490fd5b9190820391821161257257565b8115612689570490565b634e487b7160e01b600052601260045260246000fd5b6001600160a01b03166000818152601060205260408120549091901561270c576014602052604082205480156124eb576126dc6126e59142612672565b600f549061267f565b90825260136020526040822054908181116126ff57505090565b6127099250612672565b90565b5090565b90601f8019910116810190811067ffffffffffffffff82111761273257604052565b634e487b7160e01b600052604160045260246000fd5b8181029291811591840414171561257257565b60405163a9059cbb60e01b60009081526001600160a01b039384166004526024949094529260209060448180855af16001600051148116156127a6575b83604052156125df57505050565b600181151661260b57813b15153d151616612798565b6040516370a0823160e01b81523060048201526020816024817f00000000000000000000000000000000000000000000000000000000000000006001600160a01b03165afa90811561284157600091612813575090565b906020823d8211612839575b8161282c60209383612710565b8101031261048e57505190565b3d915061281f565b6040513d6000823e3d90fd5b60055490811561288e576001600160a01b0316600090815260066020526040902054612710808202929180159084049091141715612572576127099161267f565b5050600090565b600554801561288e576127099160018060a01b03166000526006602052610c406040600020546128c36127bc565b90612748565b6001600160a01b0316600090815260046020526040812054801561270c57816014602052604081205480612930575b50600a830292808404600a149015171561291c575090620f42406127099204612565565b634e487b7160e01b81526011600452602490fd5b62278d009193506129419042612672565b0491386128f8565b6001600160a01b0316600090815260046020526040902054637735940081101561298257631dcd6500111561297d57600190565b600290565b5060039056fe9b779b17422d0df92223018b32b4d1fa46e071723d6817e2486d003becc55f00a26469706673582212202e0b3b94eeae6f987dbc58c890025730fd9960d2e172ddf09b31fcee964b868364736f6c634300081400332f8788117e7eff1d82e926ec794901d17c78024a50270940304540a733656f0d",
  "linkReferences": {},
  "deployedLinkReferences": {}
}