{
  "_format": "hh-sol-artifact-1",
  "contractName": "LakomiVault",
  "sourceName": "contracts/LakomiVault.sol",
  "abi": [
    {
      "inputs": [
        {
          "internalType": "address",
          "name": "_stableToken",
          "type": "address"
        },
        {
          "internalType": "uint256",
          "name": "_withdrawalThreshold",
          "type": "uint256"
        },
        {
          "internalType": "uint256",
          "name": "_withdrawalTimelock",
          "type": "uint256"
        },
        {
          "internalType": "uint256",
          "name": "_simpananPokokAmount",
          "type": "uint256"
        },
        {
          "internalType": "uint256",
          "name": "_simpananWajibAmount",
          "type": "uint256"
        },
        {
          "internalType": "uint256",
          "name": "_simpananWajibPeriod",
          "type": "uint256"
        }
      ],
      "stateMutability": "nonpayable",
      "type": "constructor"
    },
    {
      "inputs": [],
      "name": "AccessControlBadConfirmation",
      "type": "error"
    },
    {
      "inputs": [
        {
          "internalType": "address",
          "name": "account",
          "type": "address"
        },
        {
          "internalType": "bytes32",
          "name": "neededRole",
          "type": "bytes32"
        }
      ],
      "name": "AccessControlUnauthorizedAccount",
      "type": "error"
    },
    {
      "inputs": [],
      "name": "EnforcedPause",
      "type": "error"
    },
    {
      "inputs": [],
      "name": "ExpectedPause",
      "type": "error"
    },
    {
      "inputs": [],
      "name": "LakomiVault__AlreadyExecuted",
      "type": "error"
    },
    {
      "inputs": [],
      "name": "LakomiVault__AlreadySet",
      "type": "error"
    },
    {
      "inputs": [],
      "name": "LakomiVault__ExceedsThreshold",
      "type": "error"
    },
    {
      "inputs": [],
      "name": "LakomiVault__InsufficientBalance",
      "type": "error"
    },
    {
      "inputs": [],
      "name": "LakomiVault__InsufficientShares",
      "type": "error"
    },
    {
      "inputs": [],
      "name": "LakomiVault__InvalidWithdrawal",
      "type": "error"
    },
    {
      "inputs": [],
      "name": "LakomiVault__NoRevenueToDistribute",
      "type": "error"
    },
    {
      "inputs": [],
      "name": "LakomiVault__NoSHUToClaim",
      "type": "error"
    },
    {
      "inputs": [],
      "name": "LakomiVault__NotApproved",
      "type": "error"
    },
    {
      "inputs": [],
      "name": "LakomiVault__NotMember",
      "type": "error"
    },
    {
      "inputs": [],
      "name": "LakomiVault__SimpananPokokAlreadyPaid",
      "type": "error"
    },
    {
      "inputs": [],
      "name": "LakomiVault__SimpananPokokNotPaid",
      "type": "error"
    },
    {
      "inputs": [],
      "name": "LakomiVault__SimpananWajibNotDue",
      "type": "error"
    },
    {
      "inputs": [],
      "name": "LakomiVault__TimelockNotMet",
      "type": "error"
    },
    {
      "inputs": [],
      "name": "LakomiVault__TransferFailed",
      "type": "error"
    },
    {
      "inputs": [],
      "name": "LakomiVault__ZeroAddress",
      "type": "error"
    },
    {
      "inputs": [],
      "name": "LakomiVault__ZeroAmount",
      "type": "error"
    },
    {
      "inputs": [],
      "name": "ReentrancyGuardReentrantCall",
      "type": "error"
    },
    {
      "inputs": [
        {
          "internalType": "address",
          "name": "token",
          "type": "address"
        }
      ],
      "name": "SafeERC20FailedOperation",
      "type": "error"
    },
    {
      "anonymous": false,
      "inputs": [
        {
          "indexed": true,
          "internalType": "address",
          "name": "member",
          "type": "address"
        },
        {
          "indexed": false,
          "internalType": "uint8",
          "name": "tier",
          "type": "uint8"
        }
      ],
      "name": "ContributionTierUpdated",
      "type": "event"
    },
    {
      "anonymous": false,
      "inputs": [
        {
          "indexed": true,
          "internalType": "address",
          "name": "member",
          "type": "address"
        },
        {
          "indexed": false,
          "internalType": "uint256",
          "name": "amount",
          "type": "uint256"
        },
        {
          "indexed": false,
          "internalType": "uint256",
          "name": "shares",
          "type": "uint256"
        },
        {
          "indexed": false,
          "internalType": "uint256",
          "name": "timestamp",
          "type": "uint256"
        }
      ],
      "name": "Deposited",
      "type": "event"
    },
    {
      "anonymous": false,
      "inputs": [
        {
          "indexed": true,
          "internalType": "address",
          "name": "govern",
          "type": "address"
        }
      ],
      "name": "GovernSet",
      "type": "event"
    },
    {
      "anonymous": false,
      "inputs": [
        {
          "indexed": true,
          "internalType": "address",
          "name": "to",
          "type": "address"
        },
        {
          "indexed": false,
          "internalType": "uint256",
          "name": "amount",
          "type": "uint256"
        },
        {
          "indexed": false,
          "internalType": "bytes",
          "name": "reason",
          "type": "bytes"
        }
      ],
      "name": "GovernanceSpend",
      "type": "event"
    },
    {
      "anonymous": false,
      "inputs": [
        {
          "indexed": false,
          "internalType": "address",
          "name": "account",
          "type": "address"
        }
      ],
      "name": "Paused",
      "type": "event"
    },
    {
      "anonymous": false,
      "inputs": [
        {
          "indexed": false,
          "internalType": "uint256",
          "name": "amount",
          "type": "uint256"
        },
        {
          "indexed": false,
          "internalType": "uint256",
          "name": "timestamp",
          "type": "uint256"
        }
      ],
      "name": "RevenueReceived",
      "type": "event"
    },
    {
      "anonymous": false,
      "inputs": [
        {
          "indexed": true,
          "internalType": "bytes32",
          "name": "role",
          "type": "bytes32"
        },
        {
          "indexed": true,
          "internalType": "bytes32",
          "name": "previousAdminRole",
          "type": "bytes32"
        },
        {
          "indexed": true,
          "internalType": "bytes32",
          "name": "newAdminRole",
          "type": "bytes32"
        }
      ],
      "name": "RoleAdminChanged",
      "type": "event"
    },
    {
      "anonymous": false,
      "inputs": [
        {
          "indexed": true,
          "internalType": "bytes32",
          "name": "role",
          "type": "bytes32"
        },
        {
          "indexed": true,
          "internalType": "address",
          "name": "account",
          "type": "address"
        },
        {
          "indexed": true,
          "internalType": "address",
          "name": "sender",
          "type": "address"
        }
      ],
      "name": "RoleGranted",
      "type": "event"
    },
    {
      "anonymous": false,
      "inputs": [
        {
          "indexed": true,
          "internalType": "bytes32",
          "name": "role",
          "type": "bytes32"
        },
        {
          "indexed": true,
          "internalType": "address",
          "name": "account",
          "type": "address"
        },
        {
          "indexed": true,
          "internalType": "address",
          "name": "sender",
          "type": "address"
        }
      ],
      "name": "RoleRevoked",
      "type": "event"
    },
    {
      "anonymous": false,
      "inputs": [
        {
          "indexed": true,
          "internalType": "address",
          "name": "member",
          "type": "address"
        },
        {
          "indexed": true,
          "internalType": "uint256",
          "name": "distributionId",
          "type": "uint256"
        },
        {
          "indexed": false,
          "internalType": "uint256",
          "name": "amount",
          "type": "uint256"
        }
      ],
      "name": "SHUClaimed",
      "type": "event"
    },
    {
      "anonymous": false,
      "inputs": [
        {
          "indexed": true,
          "internalType": "uint256",
          "name": "distributionId",
          "type": "uint256"
        },
        {
          "indexed": false,
          "internalType": "uint256",
          "name": "totalAmount",
          "type": "uint256"
        },
        {
          "indexed": false,
          "internalType": "uint256",
          "name": "memberCount",
          "type": "uint256"
        },
        {
          "indexed": false,
          "internalType": "uint256",
          "name": "perShare",
          "type": "uint256"
        }
      ],
      "name": "SHUDistributed",
      "type": "event"
    },
    {
      "anonymous": false,
      "inputs": [
        {
          "indexed": false,
          "internalType": "uint256",
          "name": "oldAmount",
          "type": "uint256"
        },
        {
          "indexed": false,
          "internalType": "uint256",
          "name": "newAmount",
          "type": "uint256"
        }
      ],
      "name": "SimpananPokokAmountUpdated",
      "type": "event"
    },
    {
      "anonymous": false,
      "inputs": [
        {
          "indexed": true,
          "internalType": "address",
          "name": "member",
          "type": "address"
        },
        {
          "indexed": false,
          "internalType": "uint256",
          "name": "amount",
          "type": "uint256"
        },
        {
          "indexed": false,
          "internalType": "uint256",
          "name": "timestamp",
          "type": "uint256"
        }
      ],
      "name": "SimpananPokokPaid",
      "type": "event"
    },
    {
      "anonymous": false,
      "inputs": [
        {
          "indexed": false,
          "internalType": "uint256",
          "name": "oldAmount",
          "type": "uint256"
        },
        {
          "indexed": false,
          "internalType": "uint256",
          "name": "newAmount",
          "type": "uint256"
        }
      ],
      "name": "SimpananWajibAmountUpdated",
      "type": "event"
    },
    {
      "anonymous": false,
      "inputs": [
        {
          "indexed": true,
          "internalType": "address",
          "name": "member",
          "type": "address"
        },
        {
          "indexed": false,
          "internalType": "uint256",
          "name": "amount",
          "type": "uint256"
        },
        {
          "indexed": false,
          "internalType": "uint256",
          "name": "periods",
          "type": "uint256"
        },
        {
          "indexed": false,
          "internalType": "uint256",
          "name": "timestamp",
          "type": "uint256"
        }
      ],
      "name": "SimpananWajibPaid",
      "type": "event"
    },
    {
      "anonymous": false,
      "inputs": [
        {
          "indexed": false,
          "internalType": "uint256",
          "name": "oldThreshold",
          "type": "uint256"
        },
        {
          "indexed": false,
          "internalType": "uint256",
          "name": "newThreshold",
          "type": "uint256"
        }
      ],
      "name": "ThresholdUpdated",
      "type": "event"
    },
    {
      "anonymous": false,
      "inputs": [
        {
          "indexed": false,
          "internalType": "uint256",
          "name": "oldTimelock",
          "type": "uint256"
        },
        {
          "indexed": false,
          "internalType": "uint256",
          "name": "newTimelock",
          "type": "uint256"
        }
      ],
      "name": "TimelockUpdated",
      "type": "event"
    },
    {
      "anonymous": false,
      "inputs": [
        {
          "indexed": true,
          "internalType": "address",
          "name": "token",
          "type": "address"
        }
      ],
      "name": "TokenSet",
      "type": "event"
    },
    {
      "anonymous": false,
      "inputs": [
        {
          "indexed": false,
          "internalType": "address",
          "name": "account",
          "type": "address"
        }
      ],
      "name": "Unpaused",
      "type": "event"
    },
    {
      "anonymous": false,
      "inputs": [
        {
          "indexed": true,
          "internalType": "uint256",
          "name": "id",
          "type": "uint256"
        }
      ],
      "name": "WithdrawalCanceled",
      "type": "event"
    },
    {
      "anonymous": false,
      "inputs": [
        {
          "indexed": true,
          "internalType": "uint256",
          "name": "id",
          "type": "uint256"
        },
        {
          "indexed": false,
          "internalType": "address",
          "name": "recipient",
          "type": "address"
        },
        {
          "indexed": false,
          "internalType": "uint256",
          "name": "amount",
          "type": "uint256"
        }
      ],
      "name": "WithdrawalExecuted",
      "type": "event"
    },
    {
      "anonymous": false,
      "inputs": [
        {
          "indexed": true,
          "internalType": "uint256",
          "name": "id",
          "type": "uint256"
        },
        {
          "indexed": true,
          "internalType": "address",
          "name": "recipient",
          "type": "address"
        },
        {
          "indexed": false,
          "internalType": "uint256",
          "name": "amount",
          "type": "uint256"
        },
        {
          "indexed": false,
          "internalType": "uint256",
          "name": "executableAt",
          "type": "uint256"
        }
      ],
      "name": "WithdrawalRequested",
      "type": "event"
    },
    {
      "anonymous": false,
      "inputs": [
        {
          "indexed": true,
          "internalType": "address",
          "name": "member",
          "type": "address"
        },
        {
          "indexed": false,
          "internalType": "uint256",
          "name": "amount",
          "type": "uint256"
        },
        {
          "indexed": false,
          "internalType": "uint256",
          "name": "shares",
          "type": "uint256"
        },
        {
          "indexed": false,
          "internalType": "uint256",
          "name": "timestamp",
          "type": "uint256"
        }
      ],
      "name": "Withdrawn",
      "type": "event"
    },
    {
      "inputs": [],
      "name": "DEFAULT_ADMIN_ROLE",
      "outputs": [
        {
          "internalType": "bytes32",
          "name": "",
          "type": "bytes32"
        }
      ],
      "stateMutability": "view",
      "type": "function"
    },
    {
      "inputs": [],
      "name": "GOVERN_ROLE",
      "outputs": [
        {
          "internalType": "bytes32",
          "name": "",
          "type": "bytes32"
        }
      ],
      "stateMutability": "view",
      "type": "function"
    },
    {
      "inputs": [],
      "name": "LOAN_ROLE",
      "outputs": [
        {
          "internalType": "bytes32",
          "name": "",
          "type": "bytes32"
        }
      ],
      "stateMutability": "view",
      "type": "function"
    },
    {
      "inputs": [],
      "name": "TIER2_THRESHOLD",
      "outputs": [
        {
          "internalType": "uint256",
          "name": "",
          "type": "uint256"
        }
      ],
      "stateMutability": "view",
      "type": "function"
    },
    {
      "inputs": [],
      "name": "TIER3_THRESHOLD",
      "outputs": [
        {
          "internalType": "uint256",
          "name": "",
          "type": "uint256"
        }
      ],
      "stateMutability": "view",
      "type": "function"
    },
    {
      "inputs": [],
      "name": "TREASURER_ROLE",
      "outputs": [
        {
          "internalType": "bytes32",
          "name": "",
          "type": "bytes32"
        }
      ],
      "stateMutability": "view",
      "type": "function"
    },
    {
      "inputs": [],
      "name": "accumulatedRevenue",
      "outputs": [
        {
          "internalType": "uint256",
          "name": "",
          "type": "uint256"
        }
      ],
      "stateMutability": "view",
      "type": "function"
    },
    {
      "inputs": [
        {
          "internalType": "address",
          "name": "spender",
          "type": "address"
        },
        {
          "internalType": "uint256",
          "name": "amount",
          "type": "uint256"
        }
      ],
      "name": "approveUSDCSpending",
      "outputs": [],
      "stateMutability": "nonpayable",
      "type": "function"
    },
    {
      "inputs": [
        {
          "internalType": "uint256",
          "name": "withdrawalId",
          "type": "uint256"
        }
      ],
      "name": "approveWithdrawal",
      "outputs": [],
      "stateMutability": "nonpayable",
      "type": "function"
    },
    {
      "inputs": [
        {
          "internalType": "uint256",
          "name": "withdrawalId",
          "type": "uint256"
        }
      ],
      "name": "cancelWithdrawal",
      "outputs": [],
      "stateMutability": "nonpayable",
      "type": "function"
    },
    {
      "inputs": [
        {
          "internalType": "uint256",
          "name": "distributionId",
          "type": "uint256"
        }
      ],
      "name": "claimSHU",
      "outputs": [],
      "stateMutability": "nonpayable",
      "type": "function"
    },
    {
      "inputs": [
        {
          "internalType": "address",
          "name": "member",
          "type": "address"
        }
      ],
      "name": "contributionScore",
      "outputs": [
        {
          "internalType": "uint256",
          "name": "",
          "type": "uint256"
        }
      ],
      "stateMutability": "view",
      "type": "function"
    },
    {
      "inputs": [
        {
          "internalType": "address",
          "name": "",
          "type": "address"
        }
      ],
      "name": "contributions",
      "outputs": [
        {
          "internalType": "uint256",
          "name": "",
          "type": "uint256"
        }
      ],
      "stateMutability": "view",
      "type": "function"
    },
    {
      "inputs": [
        {
          "internalType": "uint256",
          "name": "amount",
          "type": "uint256"
        }
      ],
      "name": "deposit",
      "outputs": [
        {
          "internalType": "uint256",
          "name": "sharesIssued",
          "type": "uint256"
        }
      ],
      "stateMutability": "nonpayable",
      "type": "function"
    },
    {
      "inputs": [],
      "name": "distributeSHU",
      "outputs": [],
      "stateMutability": "nonpayable",
      "type": "function"
    },
    {
      "inputs": [
        {
          "internalType": "address",
          "name": "token",
          "type": "address"
        },
        {
          "internalType": "address",
          "name": "to",
          "type": "address"
        },
        {
          "internalType": "uint256",
          "name": "amount",
          "type": "uint256"
        }
      ],
      "name": "emergencyWithdraw",
      "outputs": [],
      "stateMutability": "nonpayable",
      "type": "function"
    },
    {
      "inputs": [
        {
          "internalType": "uint256",
          "name": "withdrawalId",
          "type": "uint256"
        }
      ],
      "name": "executeWithdrawal",
      "outputs": [],
      "stateMutability": "nonpayable",
      "type": "function"
    },
    {
      "inputs": [
        {
          "internalType": "address",
          "name": "",
          "type": "address"
        }
      ],
      "name": "firstDepositTime",
      "outputs": [
        {
          "internalType": "uint256",
          "name": "",
          "type": "uint256"
        }
      ],
      "stateMutability": "view",
      "type": "function"
    },
    {
      "inputs": [
        {
          "internalType": "address",
          "name": "member",
          "type": "address"
        }
      ],
      "name": "getContributionTier",
      "outputs": [
        {
          "internalType": "uint8",
          "name": "",
          "type": "uint8"
        }
      ],
      "stateMutability": "view",
      "type": "function"
    },
    {
      "inputs": [
        {
          "internalType": "address",
          "name": "member",
          "type": "address"
        }
      ],
      "name": "getMemberBalance",
      "outputs": [
        {
          "internalType": "uint256",
          "name": "",
          "type": "uint256"
        }
      ],
      "stateMutability": "view",
      "type": "function"
    },
    {
      "inputs": [
        {
          "internalType": "address",
          "name": "member",
          "type": "address"
        }
      ],
      "name": "getMemberSharePercent",
      "outputs": [
        {
          "internalType": "uint256",
          "name": "",
          "type": "uint256"
        }
      ],
      "stateMutability": "view",
      "type": "function"
    },
    {
      "inputs": [
        {
          "internalType": "address",
          "name": "member",
          "type": "address"
        }
      ],
      "name": "getMemberValue",
      "outputs": [
        {
          "internalType": "uint256",
          "name": "",
          "type": "uint256"
        }
      ],
      "stateMutability": "view",
      "type": "function"
    },
    {
      "inputs": [
        {
          "internalType": "address",
          "name": "member",
          "type": "address"
        }
      ],
      "name": "getPendingSHU",
      "outputs": [
        {
          "internalType": "uint256",
          "name": "",
          "type": "uint256"
        }
      ],
      "stateMutability": "view",
      "type": "function"
    },
    {
      "inputs": [
        {
          "internalType": "uint256",
          "name": "withdrawalId",
          "type": "uint256"
        }
      ],
      "name": "getPendingWithdrawal",
      "outputs": [
        {
          "internalType": "address",
          "name": "recipient",
          "type": "address"
        },
        {
          "internalType": "uint256",
          "name": "amount",
          "type": "uint256"
        },
        {
          "internalType": "uint256",
          "name": "timestamp",
          "type": "uint256"
        },
        {
          "internalType": "uint256",
          "name": "executableAt",
          "type": "uint256"
        },
        {
          "internalType": "bool",
          "name": "executed",
          "type": "bool"
        },
        {
          "internalType": "bool",
          "name": "approved",
          "type": "bool"
        }
      ],
      "stateMutability": "view",
      "type": "function"
    },
    {
      "inputs": [
        {
          "internalType": "bytes32",
          "name": "role",
          "type": "bytes32"
        }
      ],
      "name": "getRoleAdmin",
      "outputs": [
        {
          "internalType": "bytes32",
          "name": "",
          "type": "bytes32"
        }
      ],
      "stateMutability": "view",
      "type": "function"
    },
    {
      "inputs": [
        {
          "internalType": "address",
          "name": "member",
          "type": "address"
        }
      ],
      "name": "getSimpananSummary",
      "outputs": [
        {
          "internalType": "uint256",
          "name": "pokok",
          "type": "uint256"
        },
        {
          "internalType": "uint256",
          "name": "wajibTotal",
          "type": "uint256"
        },
        {
          "internalType": "uint256",
          "name": "wajibPeriodsPaid",
          "type": "uint256"
        },
        {
          "internalType": "uint256",
          "name": "wajibPeriodsOwed",
          "type": "uint256"
        },
        {
          "internalType": "uint256",
          "name": "sukarela",
          "type": "uint256"
        },
        {
          "internalType": "uint256",
          "name": "totalContribution",
          "type": "uint256"
        }
      ],
      "stateMutability": "view",
      "type": "function"
    },
    {
      "inputs": [
        {
          "internalType": "address",
          "name": "member",
          "type": "address"
        }
      ],
      "name": "getSimpananWajibPeriodsOwed",
      "outputs": [
        {
          "internalType": "uint256",
          "name": "",
          "type": "uint256"
        }
      ],
      "stateMutability": "view",
      "type": "function"
    },
    {
      "inputs": [],
      "name": "getTotalAssets",
      "outputs": [
        {
          "internalType": "uint256",
          "name": "",
          "type": "uint256"
        }
      ],
      "stateMutability": "view",
      "type": "function"
    },
    {
      "inputs": [
        {
          "internalType": "address",
          "name": "to",
          "type": "address"
        },
        {
          "internalType": "uint256",
          "name": "amount",
          "type": "uint256"
        },
        {
          "internalType": "bytes",
          "name": "reason",
          "type": "bytes"
        }
      ],
      "name": "governanceSpend",
      "outputs": [],
      "stateMutability": "nonpayable",
      "type": "function"
    },
    {
      "inputs": [
        {
          "internalType": "bytes32",
          "name": "role",
          "type": "bytes32"
        },
        {
          "internalType": "address",
          "name": "account",
          "type": "address"
        }
      ],
      "name": "grantRole",
      "outputs": [],
      "stateMutability": "nonpayable",
      "type": "function"
    },
    {
      "inputs": [
        {
          "internalType": "address",
          "name": "member",
          "type": "address"
        }
      ],
      "name": "hasPaidSimpananPokok",
      "outputs": [
        {
          "internalType": "bool",
          "name": "",
          "type": "bool"
        }
      ],
      "stateMutability": "view",
      "type": "function"
    },
    {
      "inputs": [
        {
          "internalType": "bytes32",
          "name": "role",
          "type": "bytes32"
        },
        {
          "internalType": "address",
          "name": "account",
          "type": "address"
        }
      ],
      "name": "hasRole",
      "outputs": [
        {
          "internalType": "bool",
          "name": "",
          "type": "bool"
        }
      ],
      "stateMutability": "view",
      "type": "function"
    },
    {
      "inputs": [
        {
          "internalType": "address",
          "name": "member",
          "type": "address"
        }
      ],
      "name": "isSimpananWajibCurrent",
      "outputs": [
        {
          "internalType": "bool",
          "name": "",
          "type": "bool"
        }
      ],
      "stateMutability": "view",
      "type": "function"
    },
    {
      "inputs": [],
      "name": "lakomiGovern",
      "outputs": [
        {
          "internalType": "address",
          "name": "",
          "type": "address"
        }
      ],
      "stateMutability": "view",
      "type": "function"
    },
    {
      "inputs": [],
      "name": "lakomiToken",
      "outputs": [
        {
          "internalType": "address",
          "name": "",
          "type": "address"
        }
      ],
      "stateMutability": "view",
      "type": "function"
    },
    {
      "inputs": [],
      "name": "lastSHUDistribution",
      "outputs": [
        {
          "internalType": "uint256",
          "name": "",
          "type": "uint256"
        }
      ],
      "stateMutability": "view",
      "type": "function"
    },
    {
      "inputs": [],
      "name": "nextWithdrawalId",
      "outputs": [
        {
          "internalType": "uint256",
          "name": "",
          "type": "uint256"
        }
      ],
      "stateMutability": "view",
      "type": "function"
    },
    {
      "inputs": [],
      "name": "operationalReserveBps",
      "outputs": [
        {
          "internalType": "uint256",
          "name": "",
          "type": "uint256"
        }
      ],
      "stateMutability": "view",
      "type": "function"
    },
    {
      "inputs": [],
      "name": "pause",
      "outputs": [],
      "stateMutability": "nonpayable",
      "type": "function"
    },
    {
      "inputs": [],
      "name": "paused",
      "outputs": [
        {
          "internalType": "bool",
          "name": "",
          "type": "bool"
        }
      ],
      "stateMutability": "view",
      "type": "function"
    },
    {
      "inputs": [
        {
          "internalType": "address",
          "name": "member",
          "type": "address"
        }
      ],
      "name": "paySimpananPokok",
      "outputs": [],
      "stateMutability": "nonpayable",
      "type": "function"
    },
    {
      "inputs": [],
      "name": "paySimpananWajib",
      "outputs": [],
      "stateMutability": "nonpayable",
      "type": "function"
    },
    {
      "inputs": [
        {
          "internalType": "uint256",
          "name": "",
          "type": "uint256"
        }
      ],
      "name": "pendingWithdrawals",
      "outputs": [
        {
          "internalType": "address",
          "name": "recipient",
          "type": "address"
        },
        {
          "internalType": "uint256",
          "name": "amount",
          "type": "uint256"
        },
        {
          "internalType": "uint256",
          "name": "timestamp",
          "type": "uint256"
        },
        {
          "internalType": "uint256",
          "name": "executableAt",
          "type": "uint256"
        },
        {
          "internalType": "bool",
          "name": "executed",
          "type": "bool"
        },
        {
          "internalType": "bool",
          "name": "approved",
          "type": "bool"
        }
      ],
      "stateMutability": "view",
      "type": "function"
    },
    {
      "inputs": [
        {
          "internalType": "uint256",
          "name": "amount",
          "type": "uint256"
        }
      ],
      "name": "receiveRevenue",
      "outputs": [],
      "stateMutability": "nonpayable",
      "type": "function"
    },
    {
      "inputs": [
        {
          "internalType": "bytes32",
          "name": "role",
          "type": "bytes32"
        },
        {
          "internalType": "address",
          "name": "callerConfirmation",
          "type": "address"
        }
      ],
      "name": "renounceRole",
      "outputs": [],
      "stateMutability": "nonpayable",
      "type": "function"
    },
    {
      "inputs": [
        {
          "internalType": "address",
          "name": "recipient",
          "type": "address"
        },
        {
          "internalType": "uint256",
          "name": "amount",
          "type": "uint256"
        }
      ],
      "name": "requestWithdrawal",
      "outputs": [
        {
          "internalType": "uint256",
          "name": "withdrawalId",
          "type": "uint256"
        }
      ],
      "stateMutability": "nonpayable",
      "type": "function"
    },
    {
      "inputs": [
        {
          "internalType": "bytes32",
          "name": "role",
          "type": "bytes32"
        },
        {
          "internalType": "address",
          "name": "account",
          "type": "address"
        }
      ],
      "name": "revokeRole",
      "outputs": [],
      "stateMutability": "nonpayable",
      "type": "function"
    },
    {
      "inputs": [
        {
          "internalType": "address",
          "name": "govern",
          "type": "address"
        }
      ],
      "name": "setLakomiGovern",
      "outputs": [],
      "stateMutability": "nonpayable",
      "type": "function"
    },
    {
      "inputs": [
        {
          "internalType": "address",
          "name": "token",
          "type": "address"
        }
      ],
      "name": "setLakomiToken",
      "outputs": [],
      "stateMutability": "nonpayable",
      "type": "function"
    },
    {
      "inputs": [
        {
          "internalType": "uint256",
          "name": "newBps",
          "type": "uint256"
        }
      ],
      "name": "setOperationalReserveBps",
      "outputs": [],
      "stateMutability": "nonpayable",
      "type": "function"
    },
    {
      "inputs": [
        {
          "internalType": "uint256",
          "name": "newAmount",
          "type": "uint256"
        }
      ],
      "name": "setSimpananPokokAmount",
      "outputs": [],
      "stateMutability": "nonpayable",
      "type": "function"
    },
    {
      "inputs": [
        {
          "internalType": "uint256",
          "name": "newAmount",
          "type": "uint256"
        }
      ],
      "name": "setSimpananWajibAmount",
      "outputs": [],
      "stateMutability": "nonpayable",
      "type": "function"
    },
    {
      "inputs": [
        {
          "internalType": "uint256",
          "name": "newThreshold",
          "type": "uint256"
        }
      ],
      "name": "setWithdrawalThreshold",
      "outputs": [],
      "stateMutability": "nonpayable",
      "type": "function"
    },
    {
      "inputs": [
        {
          "internalType": "uint256",
          "name": "newTimelock",
          "type": "uint256"
        }
      ],
      "name": "setWithdrawalTimelock",
      "outputs": [],
      "stateMutability": "nonpayable",
      "type": "function"
    },
    {
      "inputs": [
        {
          "internalType": "address",
          "name": "",
          "type": "address"
        }
      ],
      "name": "shares",
      "outputs": [
        {
          "internalType": "uint256",
          "name": "",
          "type": "uint256"
        }
      ],
      "stateMutability": "view",
      "type": "function"
    },
    {
      "inputs": [
        {
          "internalType": "address",
          "name": "",
          "type": "address"
        }
      ],
      "name": "shuClaimed",
      "outputs": [
        {
          "internalType": "uint256",
          "name": "",
          "type": "uint256"
        }
      ],
      "stateMutability": "view",
      "type": "function"
    },
    {
      "inputs": [
        {
          "internalType": "uint256",
          "name": "",
          "type": "uint256"
        },
        {
          "internalType": "address",
          "name": "",
          "type": "address"
        }
      ],
      "name": "shuClaimedForDistribution",
      "outputs": [
        {
          "internalType": "bool",
          "name": "",
          "type": "bool"
        }
      ],
      "stateMutability": "view",
      "type": "function"
    },
    {
      "inputs": [],
      "name": "shuDistributionCount",
      "outputs": [
        {
          "internalType": "uint256",
          "name": "",
          "type": "uint256"
        }
      ],
      "stateMutability": "view",
      "type": "function"
    },
    {
      "inputs": [],
      "name": "shuDistributionPeriod",
      "outputs": [
        {
          "internalType": "uint256",
          "name": "",
          "type": "uint256"
        }
      ],
      "stateMutability": "view",
      "type": "function"
    },
    {
      "inputs": [
        {
          "internalType": "uint256",
          "name": "",
          "type": "uint256"
        }
      ],
      "name": "shuDistributions",
      "outputs": [
        {
          "internalType": "uint256",
          "name": "totalAmount",
          "type": "uint256"
        },
        {
          "internalType": "uint256",
          "name": "memberCount",
          "type": "uint256"
        },
        {
          "internalType": "uint256",
          "name": "timestamp",
          "type": "uint256"
        },
        {
          "internalType": "uint256",
          "name": "perShare",
          "type": "uint256"
        }
      ],
      "stateMutability": "view",
      "type": "function"
    },
    {
      "inputs": [
        {
          "internalType": "address",
          "name": "",
          "type": "address"
        }
      ],
      "name": "shuPending",
      "outputs": [
        {
          "internalType": "uint256",
          "name": "",
          "type": "uint256"
        }
      ],
      "stateMutability": "view",
      "type": "function"
    },
    {
      "inputs": [
        {
          "internalType": "address",
          "name": "",
          "type": "address"
        }
      ],
      "name": "simpananPokok",
      "outputs": [
        {
          "internalType": "uint256",
          "name": "",
          "type": "uint256"
        }
      ],
      "stateMutability": "view",
      "type": "function"
    },
    {
      "inputs": [],
      "name": "simpananPokokAmount",
      "outputs": [
        {
          "internalType": "uint256",
          "name": "",
          "type": "uint256"
        }
      ],
      "stateMutability": "view",
      "type": "function"
    },
    {
      "inputs": [],
      "name": "simpananWajibAmount",
      "outputs": [
        {
          "internalType": "uint256",
          "name": "",
          "type": "uint256"
        }
      ],
      "stateMutability": "view",
      "type": "function"
    },
    {
      "inputs": [
        {
          "internalType": "address",
          "name": "",
          "type": "address"
        }
      ],
      "name": "simpananWajibLastPaid",
      "outputs": [
        {
          "internalType": "uint256",
          "name": "",
          "type": "uint256"
        }
      ],
      "stateMutability": "view",
      "type": "function"
    },
    {
      "inputs": [],
      "name": "simpananWajibPeriod",
      "outputs": [
        {
          "internalType": "uint256",
          "name": "",
          "type": "uint256"
        }
      ],
      "stateMutability": "view",
      "type": "function"
    },
    {
      "inputs": [
        {
          "internalType": "address",
          "name": "",
          "type": "address"
        }
      ],
      "name": "simpananWajibPeriodsPaid",
      "outputs": [
        {
          "internalType": "uint256",
          "name": "",
          "type": "uint256"
        }
      ],
      "stateMutability": "view",
      "type": "function"
    },
    {
      "inputs": [
        {
          "internalType": "address",
          "name": "",
          "type": "address"
        }
      ],
      "name": "simpananWajibTotal",
      "outputs": [
        {
          "internalType": "uint256",
          "name": "",
          "type": "uint256"
        }
      ],
      "stateMutability": "view",
      "type": "function"
    },
    {
      "inputs": [],
      "name": "stableToken",
      "outputs": [
        {
          "internalType": "contract IERC20",
          "name": "",
          "type": "address"
        }
      ],
      "stateMutability": "view",
      "type": "function"
    },
    {
      "inputs": [
        {
          "internalType": "bytes4",
          "name": "interfaceId",
          "type": "bytes4"
        }
      ],
      "name": "supportsInterface",
      "outputs": [
        {
          "internalType": "bool",
          "name": "",
          "type": "bool"
        }
      ],
      "stateMutability": "view",
      "type": "function"
    },
    {
      "inputs": [],
      "name": "totalDeposited",
      "outputs": [
        {
          "internalType": "uint256",
          "name": "",
          "type": "uint256"
        }
      ],
      "stateMutability": "view",
      "type": "function"
    },
    {
      "inputs": [],
      "name": "totalSHUDistributed",
      "outputs": [
        {
          "internalType": "uint256",
          "name": "",
          "type": "uint256"
        }
      ],
      "stateMutability": "view",
      "type": "function"
    },
    {
      "inputs": [],
      "name": "totalShares",
      "outputs": [
        {
          "internalType": "uint256",
          "name": "",
          "type": "uint256"
        }
      ],
      "stateMutability": "view",
      "type": "function"
    },
    {
      "inputs": [],
      "name": "totalWithdrawn",
      "outputs": [
        {
          "internalType": "uint256",
          "name": "",
          "type": "uint256"
        }
      ],
      "stateMutability": "view",
      "type": "function"
    },
    {
      "inputs": [],
      "name": "unpause",
      "outputs": [],
      "stateMutability": "nonpayable",
      "type": "function"
    },
    {
      "inputs": [
        {
          "internalType": "uint256",
          "name": "amount",
          "type": "uint256"
        }
      ],
      "name": "withdraw",
      "outputs": [
        {
          "internalType": "uint256",
          "name": "actualAmount",
          "type": "uint256"
        }
      ],
      "stateMutability": "nonpayable",
      "type": "function"
    },
    {
      "inputs": [],
      "name": "withdrawalThreshold",
      "outputs": [
        {
          "internalType": "uint256",
          "name": "",
          "type": "uint256"
        }
      ],
      "stateMutability": "view",
      "type": "function"
    },
    {
      "inputs": [],
      "name": "withdrawalTimelock",
      "outputs": [
        {
          "internalType": "uint256",
          "name": "",
          "type": "uint256"
        }
      ],
      "stateMutability": "view",
      "type": "function"
    }
  ],
  "bytecode": "0x60a06040523480156200001157600080fd5b50604051620030c7380380620030c78339810160408190526200003491620001aa565b60017f9b779b17422d0df92223018b32b4d1fa46e071723d6817e2486d003becc55f00556001600160a01b03861662000080576040516322fe8fc760e21b815260040160405180910390fd5b6001600160a01b03861660805260078590556008849055600d839055600e829055600f8190556103e86019556301e13380601755620000c1600033620000fb565b50620000ee7f3496e2e73c4d42b75d702e60d9e48102720b8691234415963a5a857b86425d0733620000fb565b505050505050506200020b565b6000828152602081815260408083206001600160a01b038516845290915281205460ff16620001a0576000838152602081815260408083206001600160a01b03861684529091529020805460ff19166001179055620001573390565b6001600160a01b0316826001600160a01b0316847f2f8788117e7eff1d82e926ec794901d17c78024a50270940304540a733656f0d60405160405180910390a4506001620001a4565b5060005b92915050565b60008060008060008060c08789031215620001c457600080fd5b86516001600160a01b0381168114620001dc57600080fd5b6020880151604089015160608a015160808b015160a0909b0151939c929b509099909850965090945092505050565b608051612e53620002746000396000818161098401528181610da60152818161105f01528181611415015281816115f301528181611692015281816118df0152818161196f01528181611e30015281816120f601528181612242015261234d0152612e536000f3fe608060405234801561001057600080fd5b506004361061046a5760003560e01c80637698325f1161024c578063b6b55f2511610146578063d82c363f116100c3578063e63ea40811610087578063e63ea40814610b5c578063ec4bbb4d14610b6f578063f0a3a97c14610b96578063ff50abdc14610bbd578063ffacef0814610bc657600080fd5b8063d82c363f14610aa5578063da95ebf714610ab8578063de08e74314610acb578063df817a7114610af6578063e615040014610b0957600080fd5b8063ca55753a1161010a578063ca55753a14610a2d578063ce7c2ac214610a56578063cecb394f14610a76578063d153c8bd14610a89578063d547741f14610a9257600080fd5b8063b6b55f25146109a6578063bb47859b146109b9578063bd4ebf37146109d9578063beaa838f146109ec578063c3f5124d14610a1a57600080fd5b8063907dc9a9116101d4578063948229251161019857806394822925146109195780639c530b24146109445780639eceddea14610964578063a217fddf14610977578063a9d75b2b1461097f57600080fd5b8063907dc9a9146108c457806391a608aa146108d757806391d14854146108ea578063923231ff146108fd578063944470c21461091057600080fd5b80637f071c7c1161021b5780637f071c7c14610854578063803d7823146108745780638144a447146108945780638456cb59146108b457806384734ebd146108bc57600080fd5b80637698325f146107ef57806377da1f74146107f857806378fcb1561461080b5780637985fd511461084b57600080fd5b806336568abe1161036857806349cf6147116102e5578063697b0047116102a9578063697b00471461078b5780636cb7c6f9146107945780636e07302b146107b45780636f11ca15146107bc578063763163e7146107dc57600080fd5b806349cf6147146107525780634a9122e31461075b5780634b3197131461076457806351b070471461076d5780635c975abb1461078057600080fd5b80633efcfda41161032c5780633efcfda4146106f95780633f4ba83a1461070c57806342dfac721461071457806342e94c901461071f5780634786b0cb1461073f57600080fd5b806336568abe1461063057806338a3c8781461064357806338b7f446146106d25780633a98ef39146106e75780633b56ad44146106f057600080fd5b8063201785d6116103f65780632c4fbd2d116103ba5780632c4fbd2d146105d15780632e1a7d4d146105e45780632f2ff15d146105f75780632f5912971461060a578063340bc08b1461061d57600080fd5b8063201785d61461056d578063248a9ca31461057557806324f13a761461059857806328f3597e146105ab5780632934ce47146105be57600080fd5b80630961f8bc1161043d5780630961f8bc1461051a5780630b6d22bb1461053f57806318aefba414610548578063193b9eca146105515780631e27970f1461056457600080fd5b806301ffc9a71461046f578063075e9c58146104975780630835c201146104ac578063086d2c8714610501575b600080fd5b61048261047d366004612b8b565b610bcf565b60405190151581526020015b60405180910390f35b6104aa6104a5366004612bd3565b610c06565b005b6104e16104ba366004612bee565b601a6020526000908152604090208054600182015460028301546003909301549192909184565b60408051948552602085019390935291830152606082015260800161048e565b61050c631dcd650081565b60405190815260200161048e565b61052d610528366004612bd3565b610cad565b60405160ff909116815260200161048e565b61050c60195481565b61050c600f5481565b6104aa61055f366004612bee565b610cf7565b61050c60085481565b6104aa610d56565b61050c610583366004612bee565b60009081526020819052604090206001015490565b6104aa6105a6366004612bee565b610ec3565b6104826105b9366004612bd3565b6110ed565b6104aa6105cc366004612bee565b611162565b6104aa6105df366004612bd3565b6111ab565b61050c6105f2366004612bee565b611252565b6104aa610605366004612c07565b611491565b61050c610618366004612bd3565b6114bc565b6104aa61062b366004612c33565b611574565b6104aa61063e366004612c07565b61170d565b610697610651366004612bee565b600090815260096020526040902080546001820154600283015460038401546004909401546001600160a01b039093169491939092909160ff8083169261010090041690565b604080516001600160a01b039097168752602087019590955293850192909252606084015215156080830152151560a082015260c00161048e565b61050c600080516020612dfe83398151915281565b61050c60055481565b61050c600e5481565b6104aa610707366004612bee565b611745565b6104aa61181f565b61050c637735940081565b61050c61072d366004612bd3565b60046020526000908152604090205481565b6104aa61074d366004612bee565b611832565b61050c600d5481565b61050c600a5481565b61050c60035481565b61050c61077b366004612bd3565b61187b565b60015460ff16610482565b61050c601b5481565b61050c6107a2366004612bd3565b60146020526000908152604090205481565b61050c6118c7565b61050c6107ca366004612bd3565b60106020526000908152604090205481565b6104aa6107ea366004612cba565b611957565b61050c60165481565b61050c610806366004612bd3565b611996565b61081e610819366004612bd3565b611a71565b604080519687526020870195909552938501929092526060840152608083015260a082015260c00161048e565b61050c60075481565b61050c610862366004612bd3565b601c6020526000908152604090205481565b61050c610882366004612bd3565b60136020526000908152604090205481565b61050c6108a2366004612bd3565b60126020526000908152604090205481565b6104aa611b45565b6104aa611b58565b6104aa6108d2366004612bee565b611d09565b6104aa6108e5366004612bee565b611e99565b6104826108f8366004612c07565b611eef565b61050c61090b366004612bd3565b611f18565b61050c60175481565b600b5461092c906001600160a01b031681565b6040516001600160a01b03909116815260200161048e565b61050c610952366004612bd3565b601d6020526000908152604090205481565b6104aa610972366004612bee565b611fc5565b61050c600081565b61092c7f000000000000000000000000000000000000000000000000000000000000000081565b61050c6109b4366004612bee565b61204d565b61050c6109c7366004612bd3565b60116020526000908152604090205481565b6104aa6109e7366004612bee565b61220c565b6104826109fa366004612c07565b601e60209081526000928352604080842090915290825290205460ff1681565b61050c610a28366004612bd3565b6122c1565b61050c610a3b366004612bd3565b6001600160a01b031660009081526004602052604090205490565b61050c610a64366004612bd3565b60066020526000908152604090205481565b6104aa610a84366004612bd3565b6122fd565b61050c60185481565b6104aa610aa0366004612c07565b612457565b6104aa610ab3366004612bee565b61247c565b61050c610ac6366004612cba565b6124e3565b610482610ad9366004612bd3565b6001600160a01b0316600090815260106020526040902054151590565b600c5461092c906001600160a01b031681565b610697610b17366004612bee565b600960205260009081526040902080546001820154600283015460038401546004909401546001600160a01b0390931693919290919060ff8082169161010090041686565b6104aa610b6a366004612ce4565b6126ca565b61050c7fbb7c4cc08a5621ac614782239b3fb6f7ae6db25496d23ef396b5d5df8b271c0d81565b61050c7f3496e2e73c4d42b75d702e60d9e48102720b8691234415963a5a857b86425d0781565b61050c60025481565b61050c60155481565b60006001600160e01b03198216637965db0b60e01b1480610c0057506301ffc9a760e01b6001600160e01b03198316145b92915050565b6000610c11816126f9565b6001600160a01b038216610c38576040516322fe8fc760e21b815260040160405180910390fd5b600b546001600160a01b031615610c625760405163d4a7794160e01b815260040160405180910390fd5b600b80546001600160a01b0319166001600160a01b0384169081179091556040517fa07c91c183e42229e705a9795a1c06d76528b673788b849597364528c96eefb790600090a25050565b6001600160a01b03811660009081526004602052604081205463773594008110610cda5750600392915050565b631dcd65008110610cee5750600292915050565b50600192915050565b600080516020612dfe833981519152610d0f816126f9565b600d80549083905560408051828152602081018590527febf421625e332bd4d46debf00eb86541652eb65f512eb937e06e3ba623db5d0891015b60405180910390a1505050565b610d5e612703565b610d66612731565b336000908152601060205260408120549003610d955760405163e960ea7d60e01b815260040160405180910390fd5b600e54610dd0906001600160a01b037f0000000000000000000000000000000000000000000000000000000000000000169033903090612755565b600e543360009081526011602052604081208054909190610df2908490612d36565b9091555050336000908152601360205260408120805491610e1283612d49565b9091555050336000908152601260209081526040808320429055600e5460049092528220805491929091610e47908490612d36565b9091555050600e5460028054600090610e61908490612d36565b9091555050600e5433600081815260136020908152604091829020548251948552908401524290830152907f991dee3b52711c23609ec310ae0ddc55c442c1b66a269403aa45e5a59bfd90ec9060600160405180910390a2610ec161278b565b565b610ecb612731565b610ed3612703565b600081815260096020526040902080546001600160a01b0316610f09576040516339c3855560e21b815260040160405180910390fd5b600481015460ff1615610f2f5760405163aa7e8f7560e01b815260040160405180910390fd5b6004810154610100900460ff16610f5957604051637d7982db60e11b815260040160405180910390fd5b8060030154421015610f7e576040516341927eb760e01b815260040160405180910390fd5b6000610f886118c7565b90506000816005548460010154610f9f9190612d62565b610fa99190612d79565b600184015484546001600160a01b0316600090815260046020526040812080549394509192610fd9908490612d9b565b909155505082546001600160a01b031660009081526006602052604081208054839290611007908490612d9b565b9250508190555080600560008282546110209190612d9b565b909155505060018301546003805460009061103c908490612d36565b909155505060048301805460ff19166001908117909155835490840154611092917f00000000000000000000000000000000000000000000000000000000000000006001600160a01b03908116929116906127b1565b82546001840154604080516001600160a01b039093168352602083019190915285917fd6cddb3d69146e96ebc2c87b1b3dd0b20ee2d3b0eadf134e011afb434a3e56e6910160405180910390a25050506110ea61278b565b50565b604051631df687dd60e21b81526001600160a01b0382166004820152600090819030906377da1f7490602401602060405180830381865afa158015611136573d6000803e3d6000fd5b505050506040513d601f19601f8201168201806040525081019061115a9190612dae565b159392505050565b600061116d816126f9565b600880549083905560408051828152602081018590527f3e9cac94b7c7db9b86df56321e6f7e3e88a6c87fc15fd825df1492cf69e335519101610d49565b60006111b6816126f9565b6001600160a01b0382166111dd576040516322fe8fc760e21b815260040160405180910390fd5b600c546001600160a01b0316156112075760405163d4a7794160e01b815260040160405180910390fd5b600c80546001600160a01b0319166001600160a01b0384169081179091556040517f02ede59ede14fc8a452f4d9c602afef004380e4a5bf668b99ca6580878a80a5c90600090a25050565b600061125c612731565b611264612703565b8160000361128557604051630a76f80b60e21b815260040160405180910390fd5b60075482106112a757604051639293b47f60e01b815260040160405180910390fd5b336000908152600460205260409020548211156112d7576040516344dd002f60e11b815260040160405180910390fd5b336000908152601160209081526040808320546010835281842054600490935290832054909161130691612d9b565b6113109190612d9b565b905080831115611333576040516344dd002f60e11b815260040160405180910390fd5b600061133d6118c7565b9050600081600554866113509190612d62565b61135a9190612d79565b3360009081526006602052604090205490915081111561138d5760405163a1aaeca560e01b815260040160405180910390fd5b33600090815260046020526040812080548792906113ac908490612d9b565b909155505033600090815260066020526040812080548392906113d0908490612d9b565b9250508190555080600560008282546113e99190612d9b565b9250508190555084600360008282546114029190612d36565b9091555061143c90506001600160a01b037f00000000000000000000000000000000000000000000000000000000000000001633876127b1565b60408051868152602081018390524281830152905133917f75e161b3e824b114fc1a33274bd7091918dd4e639cede50b78b15a4eea956a21919081900360600190a284935050505061148c61278b565b919050565b6000828152602081905260409020600101546114ac816126f9565b6114b683836127e6565b50505050565b600080805b601b5481101561156d576000818152601e602090815260408083206001600160a01b038816845290915290205460ff1615801561151557506001600160a01b03841660009081526006602052604090205415155b1561155b576000818152601a60209081526040808320600301546001600160a01b038816845260069092529091205461154e9190612d62565b6115589083612d36565b91505b8061156581612d49565b9150506114c1565b5092915050565b600080516020612dfe83398151915261158c816126f9565b611594612703565b6001600160a01b0385166115bb576040516322fe8fc760e21b815260040160405180910390fd5b836000036115dc57604051630a76f80b60e21b815260040160405180910390fd5b6040516370a0823160e01b815230600482015284907f00000000000000000000000000000000000000000000000000000000000000006001600160a01b0316906370a0823190602401602060405180830381865afa158015611642573d6000803e3d6000fd5b505050506040513d601f19601f820116820180604052508101906116669190612dae565b1015611685576040516344dd002f60e11b815260040160405180910390fd5b6116b96001600160a01b037f00000000000000000000000000000000000000000000000000000000000000001686866127b1565b846001600160a01b03167fad5a7ccb9051f94d2d3944962be58f792d6562271bae0ea41677d55c2d5885cd8585856040516116f693929190612dc7565b60405180910390a261170661278b565b5050505050565b6001600160a01b03811633146117365760405163334bd91960e11b815260040160405180910390fd5b6117408282612878565b505050565b600081815260096020526040902080546001600160a01b031661177b576040516339c3855560e21b815260040160405180910390fd5b600481015460ff16156117a15760405163aa7e8f7560e01b815260040160405180910390fd5b80546001600160a01b031633148015906117c357506117c1600033611eef565b155b156117e1576040516339c3855560e21b815260040160405180910390fd5b60048101805460ff1916600117905560405182907fa93f6f41ed8bce52035a13f24c08d4175a9f0b44c1f94a6d9b6b64304f64a86590600090a25050565b600061182a816126f9565b6110ea6128e3565b600061183d816126f9565b600780549083905560408051828152602081018590527fb06a54caabe58475c86c2bf9df3f2f06dd1213e9e10659c293117fe4893b274b9101610d49565b600060055460000361188f57506000919050565b60055461189a6118c7565b6001600160a01b0384166000908152600660205260409020546118bd9190612d62565b610c009190612d79565b6040516370a0823160e01b81523060048201526000907f00000000000000000000000000000000000000000000000000000000000000006001600160a01b0316906370a0823190602401602060405180830381865afa15801561192e573d6000803e3d6000fd5b505050506040513d601f19601f820116820180604052508101906119529190612dae565b905090565b6000611962816126f9565b6117406001600160a01b037f0000000000000000000000000000000000000000000000000000000000000000168484612935565b6001600160a01b03811660009081526010602052604081205481036119bd57506000919050565b6001600160a01b03821660009081526014602052604081205490036119e457506000919050565b6001600160a01b038216600090815260146020526040812054611a079042612d9b565b90506000600f5482611a199190612d79565b6001600160a01b038516600090815260136020526040902054909150811115611a67576001600160a01b038416600090815260136020526040902054611a5f9082612d9b565b949350505050565b5060009392505050565b6001600160a01b03811660008181526010602090815260408083205460118352818420546013909352818420549151631df687dd60e21b8152600481019590955293919290918190819030906377da1f7490602401602060405180830381865afa158015611ae3573d6000803e3d6000fd5b505050506040513d601f19601f82011682018060405250810190611b079190612dae565b6001600160a01b038816600090815260046020526040902054909350905084611b308783612d9b565b611b3a9190612d9b565b915091939550919395565b6000611b50816126f9565b6110ea612989565b600080516020612dfe833981519152611b70816126f9565b611b78612703565b601554600003611b9b57604051639cd0224360e01b815260040160405180910390fd5b6000612710601954601554611bb09190612d62565b611bba9190612d79565b9050600081601554611bcc9190612d9b565b905080600003611bef57604051639cd0224360e01b815260040160405180910390fd5b600554600003611c1257604051639cd0224360e01b815260040160405180910390fd5b600060055482611c229190612d79565b601b80549192506000919082611c3783612d49565b9091555060408051608081018252858152600060208083018281524284860190815260608501898152878552601a90935294832093518455516001840155925160028301559151600390910155601680549293508592909190611c9b908490612d36565b90915550506015849055426018556000818152601a60209081526040918290206001015482518681529182015290810183905281907f9040685cb8b833e5686b1c8402cce4aa1146ac8048ff1e4dc1cfa17813f3618c9060600160405180910390a2505050506110ea61278b565b611d11612703565b6000818152601e6020908152604080832033845290915290205460ff1615611d4c5760405163048f9c2760e41b815260040160405180910390fd5b6000818152601a602052604081208054909103611d7c5760405163048f9c2760e41b815260040160405180910390fd5b3360009081526006602052604081205490819003611dad5760405163048f9c2760e41b815260040160405180910390fd5b6000826003015482611dbf9190612d62565b905080600003611de25760405163048f9c2760e41b815260040160405180910390fd5b6000848152601e602090815260408083203384528252808320805460ff19166001179055601c90915281208054839290611e1d908490612d36565b90915550611e5790506001600160a01b037f00000000000000000000000000000000000000000000000000000000000000001633836127b1565b604051818152849033907fd7c563d212890f286485c6374bebc365a4dbf84f5de5f1774aae4bef0006b49f9060200160405180910390a35050506110ea61278b565b600080516020612dfe833981519152611eb1816126f9565b600e80549083905560408051828152602081018590527f0914a3237563e55580374c779b17c9122ee57be033cd60a0295a7b78fcc827b19101610d49565b6000918252602082815260408084206001600160a01b0393909316845291905290205460ff1690565b6001600160a01b038116600090815260046020526040812054808203611f415750600092915050565b6000611f50620f424083612d79565b6001600160a01b0385166000908152601460205260408120549192509015611fa7576001600160a01b03851660009081526014602052604090205462278d0090611f9a9042612d9b565b611fa49190612d79565b90505b611fb281600a612d62565b611fbc9083612d36565b95945050505050565b600080516020612dfe833981519152611fdd816126f9565b600082815260096020526040902080546001600160a01b0316612013576040516339c3855560e21b815260040160405180910390fd5b600481015460ff16156120395760405163aa7e8f7560e01b815260040160405180910390fd5b600401805461ff0019166101001790555050565b6000612057612731565b61205f612703565b8160000361208057604051630a76f80b60e21b815260040160405180910390fd5b3360009081526010602052604081205490036120af5760405163e960ea7d60e01b815260040160405180910390fd5b60006120b96118c7565b90506005546000036120cd578291506120e9565b80600554846120dc9190612d62565b6120e69190612d79565b91505b61211e6001600160a01b037f000000000000000000000000000000000000000000000000000000000000000016333086612755565b336000908152600460205260408120805485929061213d908490612d36565b90915550503360009081526006602052604081208054849290612161908490612d36565b92505081905550816005600082825461217a9190612d36565b9250508190555082600260008282546121939190612d36565b90915550503360009081526014602052604081205490036121c1573360009081526014602052604090204290555b60408051848152602081018490524281830152905133917f91ede45f04a37a7c170f5c1207df3b6bc748dc1e04ad5e917a241d0f52feada3919081900360600190a25061148c61278b565b612214612703565b8060000361223557604051630a76f80b60e21b815260040160405180910390fd5b61226a6001600160a01b037f000000000000000000000000000000000000000000000000000000000000000016333084612755565b806015600082825461227c9190612d36565b9091555050604080518281524260208201527ff213ae9678e29ddf71cfd6bb58204207ac2f5a37f62a198ca6bc86737f015868910160405180910390a16110ea61278b565b60006005546000036122d557506000919050565b6005546001600160a01b0383166000908152600660205260409020546118bd90612710612d62565b612305612703565b6001600160a01b0381166000908152601060205260409020541561233c57604051636dc6bf2b60e11b815260040160405180910390fd5b600d54612377906001600160a01b037f0000000000000000000000000000000000000000000000000000000000000000169083903090612755565b600d546001600160a01b03821660009081526010602090815260408083208490556004909152812080549091906123af908490612d36565b9091555050600d54600280546000906123c9908490612d36565b90915550506001600160a01b0381166000908152601460205260408120549003612409576001600160a01b03811660009081526014602052604090204290555b600d54604080519182524260208301526001600160a01b038316917fc7bd097b41b4436e89260d5edefc678ee270eeb55b3ce23b88b2e297ff7122b0910160405180910390a26110ea61278b565b600082815260208190526040902060010154612472816126f9565b6114b68383612878565b600080516020612dfe833981519152612494816126f9565b6113888211156124dd5760405162461bcd60e51b815260206004820152600f60248201526e4d617820353025207265736572766560881b60448201526064015b60405180910390fd5b50601955565b60006124ed612731565b6124f5612703565b6001600160a01b03831661251c576040516322fe8fc760e21b815260040160405180910390fd5b8160000361253d57604051630a76f80b60e21b815260040160405180910390fd5b60075482101561256057604051639293b47f60e01b815260040160405180910390fd5b336000908152601160209081526040808320546010835281842054600490935290832054909161258f91612d9b565b6125999190612d9b565b9050828110156125bc576040516344dd002f60e11b815260040160405180910390fd5b6000600854426125cc9190612d36565b600a805491925060006125de83612d49565b909155506040805160c0810182526001600160a01b0388811680835260208084018a8152428587019081526060860189815260006080880181815260a089018281528b835260098752918a9020985189546001600160a01b03191698169790971788559251600188015590516002870155516003860155925160049094018054935161ffff1990941694151561ff00191694909417610100931515939093029290921790925582518881529081018590529295509185917fe6d14ce42ad5a4efe0f111f81c1a1123db4ee41f561c3161e0960d54a9221ebe910160405180910390a35050610c0061278b565b60006126d5816126f9565b6126dd612703565b6126f16001600160a01b03851684846127b1565b6114b661278b565b6110ea81336129c4565b61270b612a01565b60027f9b779b17422d0df92223018b32b4d1fa46e071723d6817e2486d003becc55f0055565b60015460ff1615610ec15760405163d93c066560e01b815260040160405180910390fd5b612763848484846001612a43565b6114b657604051635274afe760e01b81526001600160a01b03851660048201526024016124d4565b60017f9b779b17422d0df92223018b32b4d1fa46e071723d6817e2486d003becc55f0055565b6127be8383836001612ab5565b61174057604051635274afe760e01b81526001600160a01b03841660048201526024016124d4565b60006127f28383611eef565b612870576000838152602081815260408083206001600160a01b03861684529091529020805460ff191660011790556128283390565b6001600160a01b0316826001600160a01b0316847f2f8788117e7eff1d82e926ec794901d17c78024a50270940304540a733656f0d60405160405180910390a4506001610c00565b506000610c00565b60006128848383611eef565b15612870576000838152602081815260408083206001600160a01b0386168085529252808320805460ff1916905551339286917ff6391f5c32d9c69d2a47ea670b442974b53935d1edc7fd64eb21e047a839171b9190a4506001610c00565b6128eb612b1b565b6001805460ff191690557f5db9ee0a495bf2e6ff9c91a7834c1ba4fdd244a5e8aa4e537bd38aeae4b073aa335b6040516001600160a01b03909116815260200160405180910390a1565b6129428383836000612b3e565b61174057612954838360006001612b3e565b61297c57604051635274afe760e01b81526001600160a01b03841660048201526024016124d4565b6127be8383836001612b3e565b612991612731565b6001805460ff1916811790557f62e78cea01bee320cd4e420270b5ea74000d11b0c9f74754ebdbfc544b05a25833612918565b6129ce8282611eef565b6129fd5760405163e2517d3f60e01b81526001600160a01b0382166004820152602481018390526044016124d4565b5050565b7f9b779b17422d0df92223018b32b4d1fa46e071723d6817e2486d003becc55f0054600203610ec157604051633ee5aeb560e01b815260040160405180910390fd5b6040516323b872dd60e01b60008181526001600160a01b038781166004528616602452604485905291602083606481808c5af192506001600051148316612aa3578383151615612a96573d6000823e3d81fd5b6000883b113d1516831692505b60405250600060605295945050505050565b60405163a9059cbb60e01b60008181526001600160a01b038616600452602485905291602083604481808b5af192506001600051148316612b0f578383151615612b02573d6000823e3d81fd5b6000873b113d1516831692505b60405250949350505050565b60015460ff16610ec157604051638dfc202b60e01b815260040160405180910390fd5b60405163095ea7b360e01b60008181526001600160a01b038616600452602485905291602083604481808b5af192506001600051148316612b0f578383151615612b02573d6000823e3d81fd5b600060208284031215612b9d57600080fd5b81356001600160e01b031981168114612bb557600080fd5b9392505050565b80356001600160a01b038116811461148c57600080fd5b600060208284031215612be557600080fd5b612bb582612bbc565b600060208284031215612c0057600080fd5b5035919050565b60008060408385031215612c1a57600080fd5b82359150612c2a60208401612bbc565b90509250929050565b60008060008060608587031215612c4957600080fd5b612c5285612bbc565b935060208501359250604085013567ffffffffffffffff80821115612c7657600080fd5b818701915087601f830112612c8a57600080fd5b813581811115612c9957600080fd5b886020828501011115612cab57600080fd5b95989497505060200194505050565b60008060408385031215612ccd57600080fd5b612cd683612bbc565b946020939093013593505050565b600080600060608486031215612cf957600080fd5b612d0284612bbc565b9250612d1060208501612bbc565b9150604084013590509250925092565b634e487b7160e01b600052601160045260246000fd5b80820180821115610c0057610c00612d20565b600060018201612d5b57612d5b612d20565b5060010190565b8082028115828204841417610c0057610c00612d20565b600082612d9657634e487b7160e01b600052601260045260246000fd5b500490565b81810381811115610c0057610c00612d20565b600060208284031215612dc057600080fd5b5051919050565b83815260406020820152816040820152818360608301376000818301606090810191909152601f909201601f191601019291505056fe899bd46557473cb80307a9dabc297131ced39608330a2d29b2d52b660c03923ea2646970667358221220593b89ca598b32348375477b8ad520dfe295a9f40cccf68dd1054e127162a01664736f6c63430008140033",
  "linkReferences": {},
  "deployedLinkReferences": {}
}