{
  "_format": "hh-sol-artifact-1",
  "contractName": "LakomiLoans",
  "sourceName": "contracts/LakomiLoans.sol",
  "abi": [
    {
      "inputs": [
        {
          "internalType": "address",
          "name": "_token",
          "type": "address"
        },
        {
          "internalType": "address",
          "name": "_vault",
          "type": "address"
        }
      ],
      "stateMutability": "nonpayable",
      "type": "constructor"
    },
    {
      "inputs": [],
      "name": "AccessControlBadConfirmation",
      "type": "error"
    },
    {
      "inputs": [
        {
          "internalType": "address",
          "name": "account",
          "type": "address"
        },
        {
          "internalType": "bytes32",
          "name": "neededRole",
          "type": "bytes32"
        }
      ],
      "name": "AccessControlUnauthorizedAccount",
      "type": "error"
    },
    {
      "inputs": [],
      "name": "EnforcedPause",
      "type": "error"
    },
    {
      "inputs": [],
      "name": "ExpectedPause",
      "type": "error"
    },
    {
      "inputs": [],
      "name": "LakomiLoans__AlreadyRepaid",
      "type": "error"
    },
    {
      "inputs": [],
      "name": "LakomiLoans__ExceedsMaxLoan",
      "type": "error"
    },
    {
      "inputs": [],
      "name": "LakomiLoans__GracePeriodActive",
      "type": "error"
    },
    {
      "inputs": [],
      "name": "LakomiLoans__InsufficientCollateral",
      "type": "error"
    },
    {
      "inputs": [],
      "name": "LakomiLoans__InsufficientContribution",
      "type": "error"
    },
    {
      "inputs": [],
      "name": "LakomiLoans__InvalidDuration",
      "type": "error"
    },
    {
      "inputs": [],
      "name": "LakomiLoans__LoanNotActive",
      "type": "error"
    },
    {
      "inputs": [],
      "name": "LakomiLoans__LoanNotApproved",
      "type": "error"
    },
    {
      "inputs": [],
      "name": "LakomiLoans__LoanNotFound",
      "type": "error"
    },
    {
      "inputs": [],
      "name": "LakomiLoans__LoanNotPending",
      "type": "error"
    },
    {
      "inputs": [],
      "name": "LakomiLoans__NotDefaulted",
      "type": "error"
    },
    {
      "inputs": [],
      "name": "LakomiLoans__Overpayment",
      "type": "error"
    },
    {
      "inputs": [],
      "name": "LakomiLoans__TransferFailed",
      "type": "error"
    },
    {
      "inputs": [],
      "name": "LakomiLoans__ZeroAddress",
      "type": "error"
    },
    {
      "inputs": [],
      "name": "LakomiLoans__ZeroAmount",
      "type": "error"
    },
    {
      "inputs": [],
      "name": "ReentrancyGuardReentrantCall",
      "type": "error"
    },
    {
      "inputs": [
        {
          "internalType": "address",
          "name": "token",
          "type": "address"
        }
      ],
      "name": "SafeERC20FailedOperation",
      "type": "error"
    },
    {
      "anonymous": false,
      "inputs": [
        {
          "indexed": true,
          "internalType": "uint256",
          "name": "id",
          "type": "uint256"
        },
        {
          "indexed": true,
          "internalType": "address",
          "name": "borrower",
          "type": "address"
        },
        {
          "indexed": false,
          "internalType": "uint256",
          "name": "collateralAmount",
          "type": "uint256"
        }
      ],
      "name": "CollateralClaimed",
      "type": "event"
    },
    {
      "anonymous": false,
      "inputs": [
        {
          "indexed": false,
          "internalType": "uint256",
          "name": "oldRatio",
          "type": "uint256"
        },
        {
          "indexed": false,
          "internalType": "uint256",
          "name": "newRatio",
          "type": "uint256"
        }
      ],
      "name": "CollateralRatioUpdated",
      "type": "event"
    },
    {
      "anonymous": false,
      "inputs": [
        {
          "indexed": false,
          "internalType": "uint256",
          "name": "oldRate",
          "type": "uint256"
        },
        {
          "indexed": false,
          "internalType": "uint256",
          "name": "newRate",
          "type": "uint256"
        }
      ],
      "name": "InterestRateUpdated",
      "type": "event"
    },
    {
      "anonymous": false,
      "inputs": [
        {
          "indexed": true,
          "internalType": "uint256",
          "name": "id",
          "type": "uint256"
        },
        {
          "indexed": false,
          "internalType": "uint256",
          "name": "collateralRequired",
          "type": "uint256"
        }
      ],
      "name": "LoanApproved",
      "type": "event"
    },
    {
      "anonymous": false,
      "inputs": [
        {
          "indexed": true,
          "internalType": "uint256",
          "name": "id",
          "type": "uint256"
        },
        {
          "indexed": true,
          "internalType": "address",
          "name": "borrower",
          "type": "address"
        }
      ],
      "name": "LoanDefaulted",
      "type": "event"
    },
    {
      "anonymous": false,
      "inputs": [
        {
          "indexed": true,
          "internalType": "uint256",
          "name": "id",
          "type": "uint256"
        },
        {
          "indexed": true,
          "internalType": "address",
          "name": "borrower",
          "type": "address"
        },
        {
          "indexed": false,
          "internalType": "uint256",
          "name": "amount",
          "type": "uint256"
        }
      ],
      "name": "LoanDisbursed",
      "type": "event"
    },
    {
      "anonymous": false,
      "inputs": [
        {
          "indexed": true,
          "internalType": "uint256",
          "name": "id",
          "type": "uint256"
        },
        {
          "indexed": true,
          "internalType": "address",
          "name": "borrower",
          "type": "address"
        },
        {
          "indexed": false,
          "internalType": "uint256",
          "name": "amount",
          "type": "uint256"
        },
        {
          "indexed": false,
          "internalType": "uint256",
          "name": "remaining",
          "type": "uint256"
        }
      ],
      "name": "LoanRepaid",
      "type": "event"
    },
    {
      "anonymous": false,
      "inputs": [
        {
          "indexed": true,
          "internalType": "uint256",
          "name": "id",
          "type": "uint256"
        },
        {
          "indexed": true,
          "internalType": "address",
          "name": "borrower",
          "type": "address"
        },
        {
          "indexed": false,
          "internalType": "uint256",
          "name": "amount",
          "type": "uint256"
        },
        {
          "indexed": false,
          "internalType": "uint256",
          "name": "duration",
          "type": "uint256"
        },
        {
          "indexed": false,
          "internalType": "string",
          "name": "reason",
          "type": "string"
        }
      ],
      "name": "LoanRequested",
      "type": "event"
    },
    {
      "anonymous": false,
      "inputs": [
        {
          "indexed": false,
          "internalType": "uint256",
          "name": "oldLTV",
          "type": "uint256"
        },
        {
          "indexed": false,
          "internalType": "uint256",
          "name": "newLTV",
          "type": "uint256"
        }
      ],
      "name": "MaxLTVUpdated",
      "type": "event"
    },
    {
      "anonymous": false,
      "inputs": [
        {
          "indexed": false,
          "internalType": "address",
          "name": "account",
          "type": "address"
        }
      ],
      "name": "Paused",
      "type": "event"
    },
    {
      "anonymous": false,
      "inputs": [
        {
          "indexed": true,
          "internalType": "bytes32",
          "name": "role",
          "type": "bytes32"
        },
        {
          "indexed": true,
          "internalType": "bytes32",
          "name": "previousAdminRole",
          "type": "bytes32"
        },
        {
          "indexed": true,
          "internalType": "bytes32",
          "name": "newAdminRole",
          "type": "bytes32"
        }
      ],
      "name": "RoleAdminChanged",
      "type": "event"
    },
    {
      "anonymous": false,
      "inputs": [
        {
          "indexed": true,
          "internalType": "bytes32",
          "name": "role",
          "type": "bytes32"
        },
        {
          "indexed": true,
          "internalType": "address",
          "name": "account",
          "type": "address"
        },
        {
          "indexed": true,
          "internalType": "address",
          "name": "sender",
          "type": "address"
        }
      ],
      "name": "RoleGranted",
      "type": "event"
    },
    {
      "anonymous": false,
      "inputs": [
        {
          "indexed": true,
          "internalType": "bytes32",
          "name": "role",
          "type": "bytes32"
        },
        {
          "indexed": true,
          "internalType": "address",
          "name": "account",
          "type": "address"
        },
        {
          "indexed": true,
          "internalType": "address",
          "name": "sender",
          "type": "address"
        }
      ],
      "name": "RoleRevoked",
      "type": "event"
    },
    {
      "anonymous": false,
      "inputs": [
        {
          "indexed": false,
          "internalType": "uint256",
          "name": "oldThreshold",
          "type": "uint256"
        },
        {
          "indexed": false,
          "internalType": "uint256",
          "name": "newThreshold",
          "type": "uint256"
        }
      ],
      "name": "ThresholdUpdated",
      "type": "event"
    },
    {
      "anonymous": false,
      "inputs": [
        {
          "indexed": false,
          "internalType": "address",
          "name": "account",
          "type": "address"
        }
      ],
      "name": "Unpaused",
      "type": "event"
    },
    {
      "inputs": [],
      "name": "APPROVER_ROLE",
      "outputs": [
        {
          "internalType": "bytes32",
          "name": "",
          "type": "bytes32"
        }
      ],
      "stateMutability": "view",
      "type": "function"
    },
    {
      "inputs": [],
      "name": "DEFAULT_ADMIN_ROLE",
      "outputs": [
        {
          "internalType": "bytes32",
          "name": "",
          "type": "bytes32"
        }
      ],
      "stateMutability": "view",
      "type": "function"
    },
    {
      "inputs": [],
      "name": "TIER1_LTV",
      "outputs": [
        {
          "internalType": "uint256",
          "name": "",
          "type": "uint256"
        }
      ],
      "stateMutability": "view",
      "type": "function"
    },
    {
      "inputs": [],
      "name": "TIER2_LTV",
      "outputs": [
        {
          "internalType": "uint256",
          "name": "",
          "type": "uint256"
        }
      ],
      "stateMutability": "view",
      "type": "function"
    },
    {
      "inputs": [],
      "name": "TIER3_LTV",
      "outputs": [
        {
          "internalType": "uint256",
          "name": "",
          "type": "uint256"
        }
      ],
      "stateMutability": "view",
      "type": "function"
    },
    {
      "inputs": [],
      "name": "activeLoanCount",
      "outputs": [
        {
          "internalType": "uint256",
          "name": "",
          "type": "uint256"
        }
      ],
      "stateMutability": "view",
      "type": "function"
    },
    {
      "inputs": [
        {
          "internalType": "uint256",
          "name": "loanId",
          "type": "uint256"
        }
      ],
      "name": "approveLoan",
      "outputs": [],
      "stateMutability": "nonpayable",
      "type": "function"
    },
    {
      "inputs": [],
      "name": "autoApproveThreshold",
      "outputs": [
        {
          "internalType": "uint256",
          "name": "",
          "type": "uint256"
        }
      ],
      "stateMutability": "view",
      "type": "function"
    },
    {
      "inputs": [
        {
          "internalType": "address",
          "name": "",
          "type": "address"
        },
        {
          "internalType": "uint256",
          "name": "",
          "type": "uint256"
        }
      ],
      "name": "borrowerLoans",
      "outputs": [
        {
          "internalType": "uint256",
          "name": "",
          "type": "uint256"
        }
      ],
      "stateMutability": "view",
      "type": "function"
    },
    {
      "inputs": [
        {
          "internalType": "uint256",
          "name": "principal",
          "type": "uint256"
        },
        {
          "internalType": "uint256",
          "name": "duration",
          "type": "uint256"
        }
      ],
      "name": "calculateInterest",
      "outputs": [
        {
          "internalType": "uint256",
          "name": "",
          "type": "uint256"
        }
      ],
      "stateMutability": "view",
      "type": "function"
    },
    {
      "inputs": [
        {
          "internalType": "uint256",
          "name": "loanId",
          "type": "uint256"
        }
      ],
      "name": "claimCollateral",
      "outputs": [],
      "stateMutability": "nonpayable",
      "type": "function"
    },
    {
      "inputs": [],
      "name": "collateralRatio",
      "outputs": [
        {
          "internalType": "uint256",
          "name": "",
          "type": "uint256"
        }
      ],
      "stateMutability": "view",
      "type": "function"
    },
    {
      "inputs": [],
      "name": "defaultLoanDuration",
      "outputs": [
        {
          "internalType": "uint256",
          "name": "",
          "type": "uint256"
        }
      ],
      "stateMutability": "view",
      "type": "function"
    },
    {
      "inputs": [
        {
          "internalType": "uint256",
          "name": "loanId",
          "type": "uint256"
        }
      ],
      "name": "disburse",
      "outputs": [],
      "stateMutability": "nonpayable",
      "type": "function"
    },
    {
      "inputs": [
        {
          "internalType": "address",
          "name": "borrower",
          "type": "address"
        }
      ],
      "name": "getBorrowerLoans",
      "outputs": [
        {
          "internalType": "uint256[]",
          "name": "",
          "type": "uint256[]"
        }
      ],
      "stateMutability": "view",
      "type": "function"
    },
    {
      "inputs": [
        {
          "internalType": "uint256",
          "name": "loanId",
          "type": "uint256"
        }
      ],
      "name": "getLoan",
      "outputs": [
        {
          "internalType": "uint256",
          "name": "id",
          "type": "uint256"
        },
        {
          "internalType": "address",
          "name": "borrower",
          "type": "address"
        },
        {
          "internalType": "uint256",
          "name": "principal",
          "type": "uint256"
        },
        {
          "internalType": "uint256",
          "name": "interest",
          "type": "uint256"
        },
        {
          "internalType": "uint256",
          "name": "collateralTokens",
          "type": "uint256"
        },
        {
          "internalType": "uint256",
          "name": "startTime",
          "type": "uint256"
        },
        {
          "internalType": "uint256",
          "name": "dueTime",
          "type": "uint256"
        },
        {
          "internalType": "uint256",
          "name": "repaidAmount",
          "type": "uint256"
        },
        {
          "internalType": "uint256",
          "name": "totalOwed",
          "type": "uint256"
        },
        {
          "internalType": "uint256",
          "name": "remaining",
          "type": "uint256"
        },
        {
          "internalType": "enum LakomiLoans.LoanStatus",
          "name": "status",
          "type": "uint8"
        },
        {
          "internalType": "string",
          "name": "reason",
          "type": "string"
        }
      ],
      "stateMutability": "view",
      "type": "function"
    },
    {
      "inputs": [
        {
          "internalType": "address",
          "name": "borrower",
          "type": "address"
        }
      ],
      "name": "getMaxLoanAmount",
      "outputs": [
        {
          "internalType": "uint256",
          "name": "",
          "type": "uint256"
        }
      ],
      "stateMutability": "view",
      "type": "function"
    },
    {
      "inputs": [
        {
          "internalType": "uint256",
          "name": "amount",
          "type": "uint256"
        }
      ],
      "name": "getRequiredCollateral",
      "outputs": [
        {
          "internalType": "uint256",
          "name": "",
          "type": "uint256"
        }
      ],
      "stateMutability": "view",
      "type": "function"
    },
    {
      "inputs": [
        {
          "internalType": "bytes32",
          "name": "role",
          "type": "bytes32"
        }
      ],
      "name": "getRoleAdmin",
      "outputs": [
        {
          "internalType": "bytes32",
          "name": "",
          "type": "bytes32"
        }
      ],
      "stateMutability": "view",
      "type": "function"
    },
    {
      "inputs": [],
      "name": "gracePeriod",
      "outputs": [
        {
          "internalType": "uint256",
          "name": "",
          "type": "uint256"
        }
      ],
      "stateMutability": "view",
      "type": "function"
    },
    {
      "inputs": [
        {
          "internalType": "bytes32",
          "name": "role",
          "type": "bytes32"
        },
        {
          "internalType": "address",
          "name": "account",
          "type": "address"
        }
      ],
      "name": "grantRole",
      "outputs": [],
      "stateMutability": "nonpayable",
      "type": "function"
    },
    {
      "inputs": [
        {
          "internalType": "bytes32",
          "name": "role",
          "type": "bytes32"
        },
        {
          "internalType": "address",
          "name": "account",
          "type": "address"
        }
      ],
      "name": "hasRole",
      "outputs": [
        {
          "internalType": "bool",
          "name": "",
          "type": "bool"
        }
      ],
      "stateMutability": "view",
      "type": "function"
    },
    {
      "inputs": [],
      "name": "interestRate",
      "outputs": [
        {
          "internalType": "uint256",
          "name": "",
          "type": "uint256"
        }
      ],
      "stateMutability": "view",
      "type": "function"
    },
    {
      "inputs": [],
      "name": "loanCount",
      "outputs": [
        {
          "internalType": "uint256",
          "name": "",
          "type": "uint256"
        }
      ],
      "stateMutability": "view",
      "type": "function"
    },
    {
      "inputs": [
        {
          "internalType": "uint256",
          "name": "",
          "type": "uint256"
        }
      ],
      "name": "loans",
      "outputs": [
        {
          "internalType": "uint256",
          "name": "id",
          "type": "uint256"
        },
        {
          "internalType": "address",
          "name": "borrower",
          "type": "address"
        },
        {
          "internalType": "uint256",
          "name": "principal",
          "type": "uint256"
        },
        {
          "internalType": "uint256",
          "name": "interest",
          "type": "uint256"
        },
        {
          "internalType": "uint256",
          "name": "collateralTokens",
          "type": "uint256"
        },
        {
          "internalType": "uint256",
          "name": "startTime",
          "type": "uint256"
        },
        {
          "internalType": "uint256",
          "name": "dueTime",
          "type": "uint256"
        },
        {
          "internalType": "uint256",
          "name": "repaidAmount",
          "type": "uint256"
        },
        {
          "internalType": "enum LakomiLoans.LoanStatus",
          "name": "status",
          "type": "uint8"
        },
        {
          "internalType": "string",
          "name": "reason",
          "type": "string"
        }
      ],
      "stateMutability": "view",
      "type": "function"
    },
    {
      "inputs": [
        {
          "internalType": "uint256",
          "name": "loanId",
          "type": "uint256"
        }
      ],
      "name": "markDefaulted",
      "outputs": [],
      "stateMutability": "nonpayable",
      "type": "function"
    },
    {
      "inputs": [],
      "name": "maxLTV",
      "outputs": [
        {
          "internalType": "uint256",
          "name": "",
          "type": "uint256"
        }
      ],
      "stateMutability": "view",
      "type": "function"
    },
    {
      "inputs": [],
      "name": "pause",
      "outputs": [],
      "stateMutability": "nonpayable",
      "type": "function"
    },
    {
      "inputs": [],
      "name": "paused",
      "outputs": [
        {
          "internalType": "bool",
          "name": "",
          "type": "bool"
        }
      ],
      "stateMutability": "view",
      "type": "function"
    },
    {
      "inputs": [
        {
          "internalType": "bytes32",
          "name": "role",
          "type": "bytes32"
        },
        {
          "internalType": "address",
          "name": "callerConfirmation",
          "type": "address"
        }
      ],
      "name": "renounceRole",
      "outputs": [],
      "stateMutability": "nonpayable",
      "type": "function"
    },
    {
      "inputs": [
        {
          "internalType": "uint256",
          "name": "loanId",
          "type": "uint256"
        },
        {
          "internalType": "uint256",
          "name": "amount",
          "type": "uint256"
        }
      ],
      "name": "repay",
      "outputs": [],
      "stateMutability": "nonpayable",
      "type": "function"
    },
    {
      "inputs": [
        {
          "internalType": "uint256",
          "name": "loanId",
          "type": "uint256"
        }
      ],
      "name": "repayInFull",
      "outputs": [],
      "stateMutability": "nonpayable",
      "type": "function"
    },
    {
      "inputs": [
        {
          "internalType": "uint256",
          "name": "amount",
          "type": "uint256"
        },
        {
          "internalType": "uint256",
          "name": "duration",
          "type": "uint256"
        },
        {
          "internalType": "string",
          "name": "reason",
          "type": "string"
        }
      ],
      "name": "requestLoan",
      "outputs": [
        {
          "internalType": "uint256",
          "name": "loanId",
          "type": "uint256"
        }
      ],
      "stateMutability": "nonpayable",
      "type": "function"
    },
    {
      "inputs": [
        {
          "internalType": "bytes32",
          "name": "role",
          "type": "bytes32"
        },
        {
          "internalType": "address",
          "name": "account",
          "type": "address"
        }
      ],
      "name": "revokeRole",
      "outputs": [],
      "stateMutability": "nonpayable",
      "type": "function"
    },
    {
      "inputs": [
        {
          "internalType": "uint256",
          "name": "newThreshold",
          "type": "uint256"
        }
      ],
      "name": "setAutoApproveThreshold",
      "outputs": [],
      "stateMutability": "nonpayable",
      "type": "function"
    },
    {
      "inputs": [
        {
          "internalType": "uint256",
          "name": "newRatio",
          "type": "uint256"
        }
      ],
      "name": "setCollateralRatio",
      "outputs": [],
      "stateMutability": "nonpayable",
      "type": "function"
    },
    {
      "inputs": [
        {
          "internalType": "uint256",
          "name": "newRate",
          "type": "uint256"
        }
      ],
      "name": "setInterestRate",
      "outputs": [],
      "stateMutability": "nonpayable",
      "type": "function"
    },
    {
      "inputs": [
        {
          "internalType": "uint256",
          "name": "newLTV",
          "type": "uint256"
        }
      ],
      "name": "setMaxLTV",
      "outputs": [],
      "stateMutability": "nonpayable",
      "type": "function"
    },
    {
      "inputs": [
        {
          "internalType": "bytes4",
          "name": "interfaceId",
          "type": "bytes4"
        }
      ],
      "name": "supportsInterface",
      "outputs": [
        {
          "internalType": "bool",
          "name": "",
          "type": "bool"
        }
      ],
      "stateMutability": "view",
      "type": "function"
    },
    {
      "inputs": [],
      "name": "token",
      "outputs": [
        {
          "internalType": "contract LakomiToken",
          "name": "",
          "type": "address"
        }
      ],
      "stateMutability": "view",
      "type": "function"
    },
    {
      "inputs": [
        {
          "internalType": "address",
          "name": "",
          "type": "address"
        }
      ],
      "name": "totalBorrowed",
      "outputs": [
        {
          "internalType": "uint256",
          "name": "",
          "type": "uint256"
        }
      ],
      "stateMutability": "view",
      "type": "function"
    },
    {
      "inputs": [],
      "name": "unpause",
      "outputs": [],
      "stateMutability": "nonpayable",
      "type": "function"
    },
    {
      "inputs": [],
      "name": "vault",
      "outputs": [
        {
          "internalType": "contract LakomiVault",
          "name": "",
          "type": "address"
        }
      ],
      "stateMutability": "view",
      "type": "function"
    }
  ],
  "bytecode": "0x60c0346200016b57601f6200284c38819003918201601f19168301916001600160401b03831184841017620001705780849260409485528339810103126200016b576200005a6020620000528362000186565b920162000186565b60017f9b779b17422d0df92223018b32b4d1fa46e071723d6817e2486d003becc55f00556001600160a01b039182168015801562000160575b6200014e576080521660a0526101f46002556113886003556109c4600455630bebc20060055562278d0060065562093a80600755620000d2336200019b565b50620000de336200021b565b5060405161256e9081620002be823960805181818161020f0152818161069201528181610a0401528181610f770152818161114501526115b0015260a05181818161025701528181610586015281816109650152818161121001528181611360015281816114a501526124790152f35b60405163372be3a160e01b8152600490fd5b508282161562000093565b600080fd5b634e487b7160e01b600052604160045260246000fd5b51906001600160a01b03821682036200016b57565b6001600160a01b031660008181527fad3228b676f7d3cd4284a5443f17f1962b36e491b30a40b2405849e597ba5fb5602052604081205490919060ff166200021757818052816020526040822081835260205260408220600160ff1982541617905533916000805160206200282c8339815191528180a4600190565b5090565b6001600160a01b031660008181527f388301e6ac71f158ac8b29c21de3d490adc31828b570ec3663983f6bee199fa060205260408120549091907f408a36151f841709116a4e8aca4e0202874f7f54687dcb863b1ea4672dc9d8cf9060ff16620002b857808352826020526040832082845260205260408320600160ff198254161790556000805160206200282c833981519152339380a4600190565b50509056fe608080604052600436101561001357600080fd5b600090813560e01c90816301ffc9a714611e5c5750806308a0c37514611dc957806309cd4e2614611d6e57806314956f4414611d185780631a1b020a14611cfb578063248a9ca314611ccf5780632f2ff15d14611c9257806336568abe14611c4a5780633f4ba83a14611bdf5780634245962b14611ba4578063442c64c614611b86578063504006ca14611aae57806354edb3a014611a905780635c975abb14611a6d5780635f84f30214611a175780636060663e146119c15780636f083519146119a357806373216450146118cb5780637c3a00fd146118ad5780638456cb591461185357806391d148541461180b578063a06db7dc146117ed578063a217fddf146117d1578063aadc1ac114611739578063ad05db51146113e1578063ad73f38e14611320578063b4eae1cb14611302578063bd77ac2c146110da578063bf6a2710146110bd578063c49785b414610f14578063ce63094d14610ef6578063d3602dc6146108ca578063d547741f14610889578063d8aed145146104f0578063e1ec3c6814610438578063e2e1ca2b146103ff578063e3ed1902146103a9578063eee8b7ff146102f7578063efdd7c07146102c1578063f34b035a146102a4578063f384bd0514610286578063fbfa77cf146102415763fc0c546a146101fa57600080fd5b3461023e578060031936011261023e576040517f00000000000000000000000000000000000000000000000000000000000000006001600160a01b03168152602090f35b80fd5b503461023e578060031936011261023e576040517f00000000000000000000000000000000000000000000000000000000000000006001600160a01b03168152602090f35b503461023e578060031936011261023e576020600354604051908152f35b503461023e578060031936011261023e576020604051610bb88152f35b503461023e57602064496cebb8006102ee6102e96102de36611f44565b9190600254906121f1565b6121f1565b04604051908152f35b503461023e576020806003193601126103a5576001600160a01b0361031a611ecb565b168252600b81526040822060405192838383549182815201908193835284832090835b8181106103915750505084610353910385611fa8565b60405193838594850191818652518092526040850193925b82811061037a57505050500390f35b83518552869550938101939281019260010161036b565b82548452928601926001928301920161033d565b5080fd5b503461023e57604036600319011261023e576103c3611ecb565b6001600160a01b03168152600b602052604081208054602435929083101561023e5760206103f18484612070565b90546040519160031b1c8152f35b503461023e57602036600319011261023e576020906040906001600160a01b03610427611ecb565b168152600c83522054604051908152f35b503461023e57602036600319011261023e57604090600435815260086020522080546104ec60018060a01b03600184015416926104da6002820154916003810154600482015460058301546006840154916007850154936104a3600960ff6008890154169701611fca565b976040519b8c9b8c5260208c015260408b015260608a0152608089015260a088015260c087015260e0860152610100850190611ee1565b61014080610120850152830190611f04565b0390f35b503461023e576104ff36611f44565b90610508612249565b610510612267565b8083526008602052604083206001810180549093906001600160a01b039081161561087757600883019460ff865416600681101561086357600203610851576002840154610564600386019182549061231b565b9460078101976105758954886123d4565b801561083f57861161082d578992857f00000000000000000000000000000000000000000000000000000000000000001660405163a9d75b2b60e01b8152602081600481855afa801561082257889187916107f4575b5016916105da89303386612347565b8590548015908115806107eb575b610796575b505080610743575b6105ff90896123d4565b9081610732575b50505086610615878b5461231b565b808b551015610676575b5050507f553c9087bff5b534e499a66dac3fa9db2962cd252ea01165239755836ae5345e93604093926106569254169654906123d4565b82519182526020820152a360016000805160206125198339815191525580f35b600360ff1982541617905561068c600a546123e1565b600a55837f00000000000000000000000000000000000000000000000000000000000000001690600485855416910154823b1561072e57604051634eab26cd60e11b81526001600160a01b0392909216600483015260248201529082908290604490829084905af1801561072357610705575b8061061f565b61071190949394611f94565b61071f5786389392936106ff565b8680fd5b6040513d84823e3d90fd5b8380fd5b61073b926123ee565b388080610606565b61074e8183856123ee565b813b15610792578560405163bd4ebf3760e01b8152826004820152818160248183885af161077e575b50506105f5565b61078790611f94565b610792578538610777565b8580fd5b9150919293949550670de0b6b3a764000091828202918204831417156107d757906107cf6107c98b8f989796959461221a565b8a6121f1565b0438806105ed565b634e487b7160e01b8d52601160045260248dfd5b508b15156105e8565b610815915060203d811161081b575b61080d8183611fa8565b810190612328565b386105cb565b503d610803565b6040513d88823e3d90fd5b6040516314d0675960e11b8152600490fd5b604051634470d52560e11b8152600490fd5b6040516351092dcf60e11b8152600490fd5b634e487b7160e01b88526021600452602488fd5b60405163470f9a3d60e01b8152600490fd5b503461023e57604036600319011261023e576108c66004356108a9611eb5565b90808452836020526108c160016040862001546120d8565b61217c565b5080f35b503461023e57606036600319011261023e5767ffffffffffffffff6044351161023e5736602360443501121561023e5767ffffffffffffffff604435600401351161023e573660246044356004013560443501011161023e5761092b612249565b610933612267565b60043515610ee457602435158015610ed5575b610ec35760405163652aba9d60e11b81523360048201526020816024817f00000000000000000000000000000000000000000000000000000000000000006001600160a01b03165afa908115610723578291610e91575b5061271090816109b56109af3361244f565b836121f1565b0460043511610e7f5715610e6d576109d16004546004356121f1565b0464e8d4a5100090818102918183041490151715610e5957604051636c24a76f60e01b81523360048201526020816024817f00000000000000000000000000000000000000000000000000000000000000006001600160a01b03165afa8015610e4e5782918491610e14575b5010610e035764496cebb800610a5d6024356102e96002546004356121f1565b0460095491610a6b8361223a565b60095560405191610140830183811067ffffffffffffffff821117610ded576040528383523360208401526004356040840152606083015260808201528260a08201528260c08201528260e082015282610100820152604051610ade6020601f19601f6044356004013501160182611fa8565b6044356004810135808352906024016020830137836020604435600401358301015261012082015281835260086020526040832090805182556001820160018060a01b036020830151166bffffffffffffffffffffffff60a01b82541617905560408101516002830155606081015160038301556080810151600483015560a0810151600583015560c0810151600683015560e08101516007830155600882016101008201516006811015610dd95790610120929160ff80198354169116179055015180519067ffffffffffffffff8211610dc557610bc06009840154611f5a565b601f8111610d80575b50602090601f8311600114610d135760099291869183610d08575b50508160011b916000199060031b1c1916179101555b338252600b6020526040822080549068010000000000000000821015610cf45781610c2d91600160209694018155612070565b81549060031b9084821b91600019901b1916179055604051906004358252602435848301526060604083015260443560040135606083015260443560040135602460443501608084013760806044356004013583010152817f7b6ba427d6069eeb2637d7d2bb04f521157dd7df5da9e39b8bf1a2e7100c1b033392608081601f19601f6044356004013501168101030190a36005546004351115610ce6575b600160008051602061251983398151915255604051908152f35b610cef81612297565b610ccc565b634e487b7160e01b84526041600452602484fd5b015190503880610be4565b906009840186526020862091865b601f1985168110610d685750918391600193600995601f19811610610d4f575b505050811b01910155610bfa565b015160001960f88460031b161c19169055388080610d41565b91926020600181928685015181550194019201610d21565b60098401865260208620601f840160051c810160208510610dbe575b601f830160051c82018110610db2575050610bc9565b60008155600101610d9c565b5080610d9c565b634e487b7160e01b85526041600452602485fd5b634e487b7160e01b86526021600452602486fd5b634e487b7160e01b600052604160045260246000fd5b6040516240cc4160e61b8152600490fd5b9150506020813d602011610e46575b81610e3060209383611fa8565b81010312610e415781905138610a3d565b600080fd5b3d9150610e23565b6040513d85823e3d90fd5b634e487b7160e01b82526011600452602482fd5b60405163210045fd60e01b8152600490fd5b6040516305893b3360e11b8152600490fd5b90506020813d602011610ebb575b81610eac60209383611fa8565b81010312610e4157513861099d565b3d9150610e9f565b6040516375d25ed760e11b8152600490fd5b506301e1338060243511610946565b604051630b1f4a5560e31b8152600490fd5b503461023e578060031936011261023e576020600954604051908152f35b503461023e57602036600319011261023e57600435610f31612267565b8082526008602052604082206001810180546001600160a01b039081169392841561087757600881019060ff8254166006811015610863576004036110ab5786906004847f000000000000000000000000000000000000000000000000000000000000000016910196875490823b1561072e57604051634eab26cd60e11b81526001600160a01b039190911660048201526024810191909152828160448183865af1908115610e4e578391611097575b5050838554168754823b1561072e57604051632770a7eb60e21b81526001600160a01b0392909216600483015260248201529082908290604490829084905af180156107235761107f575b5050907fccd631c6a824eeaa91ba67065a44b5c5bc5aa9575248e5fd34144c665470fc3292602092600560ff1982541617905554169354604051908152a360016000805160206125198339815191525580f35b61108b90939293611f94565b6107925790853861102c565b6110a090611f94565b6103a5578138610fe1565b604051630f9f035360e31b8152600490fd5b503461023e578060031936011261023e5760206040516113888152f35b503461023e576020806003193601126103a5576004356110f8612249565b611100612267565b80835260088252604083206001810180546001600160a01b0394919290851690811561087757600881019160ff83541660068110156112ee576001036112dc578790877f000000000000000000000000000000000000000000000000000000000000000016906004840154823b1561072e576040516358e12ac360e11b81526001600160a01b0392909216600483015260248201529082908290604490829084905af18015610723576112c8575b50506002918260ff198254161790554260058201556111cf6006544261231b565b60068201556111df600a5461223a565b600a5501938454818454168752600c83526111ff6040882091825461231b565b905560405163a9d75b2b60e01b81527f0000000000000000000000000000000000000000000000000000000000000000821693908381600481885afa80156112bd577f0ceeb4503a2fe0b51298a0af21358f3d89e7eab3f65ae2a7835859c3e2c516049561127e928a9261129e575b508484541690858a549316612347565b54169354604051908152a360016000805160206125198339815191525580f35b6112b6919250863d881161081b5761080d8183611fa8565b903861126e565b6040513d8a823e3d90fd5b6112d190611f94565b61071f5786386111ae565b60405163102b2f3960e11b8152600490fd5b634e487b7160e01b89526021600452602489fd5b503461023e578060031936011261023e576020600454604051908152f35b503461023e576020908160031936011261023e5761133c611ecb565b9060405163652aba9d60e11b8152838160248160018060a01b0380881660048301527f0000000000000000000000000000000000000000000000000000000000000000165afa9182156113d557916113a6575b506102ee906113a06127109361244f565b906121f1565b90508281813d83116113ce575b6113bd8183611fa8565b81010312610e41575161271061138f565b503d6113b3565b604051903d90823e3d90fd5b503461023e576020806003193601126103a5576004358083526008825261142360408420600761141a600283015460038401549061231b565b910154906123d4565b61142b612249565b611433612267565b818452600883526040842090600182019360018060a01b03808654161561087757600884019560ff87541660068110156112ee57600203610851576002850154611483600387019182549061231b565b9560078101986114948a54896123d4565b801561083f57871161082d578a92857f00000000000000000000000000000000000000000000000000000000000000001660405163a9d75b2b60e01b81528881600481855afa8015610822578891879161171c575b5016916114f88a303386612347565b859054801590811580611713575b6116bd575b505080611654575b61151d908a6123d4565b9081611643575b50505087611533888c5461231b565b808c551015611594575b5050507f553c9087bff5b534e499a66dac3fa9db2962cd252ea01165239755836ae5345e9460409493926115759254169754906123d4565b908351928352820152a360016000805160206125198339815191525580f35b600360ff198254161790556115aa600a546123e1565b600a55837f00000000000000000000000000000000000000000000000000000000000000001690600485855416910154823b1561072e57604051634eab26cd60e11b81526001600160a01b0392909216600483015260248201529082908290604490829084905af1801561072357611623575b8061153d565b6116309095949395611f94565b61163f5787389492939461161d565b8780fd5b61164c926123ee565b388080611524565b9091929394506116658183856123ee565b813b156116b95760405163bd4ebf3760e01b8152600481018290528d8160248183875af161169a575b50908c94939291611513565b9c6116ad61151d9e969594939296611f94565b9c94909192939461168e565b8c80fd5b9150919293949550670de0b6b3a764000091828202918204831417156116ff57906116f76116f18f97969594938d9061221a565b8b6121f1565b04388061150b565b634e487b7160e01b8e52601160045260248efd5b508c1515611506565b61173391508a3d8c1161081b5761080d8183611fa8565b386114e9565b503461023e57602036600319011261023e577f408a36151f841709116a4e8aca4e0202874f7f54687dcb863b1ea4672dc9d8cf808252816020526040822033835260205260ff604083205416156117b35750611793612267565b61179e600435612297565b60016000805160206125198339815191525580f35b6044906040519063e2517d3f60e01b82523360048301526024820152fd5b503461023e578060031936011261023e57602090604051908152f35b503461023e578060031936011261023e576020600754604051908152f35b503461023e57604036600319011261023e5760ff604060209261182c611eb5565b60043582528185528282206001600160a01b03909116825284522054604051911615158152f35b503461023e578060031936011261023e5761186c61209e565b611874612249565b600160ff19815416176001557f62e78cea01bee320cd4e420270b5ea74000d11b0c9f74754ebdbfc544b05a2586020604051338152a180f35b503461023e578060031936011261023e576020600254604051908152f35b503461023e57602036600319011261023e576004356118e8612267565b8082526008602052604082206001810180546001600160a01b03929083161561087757600881019081549060ff821660068110156108635760020361085157600601546007546119379161231b565b42106119915760ff19166004179055600a54611952906123e1565b600a555416907f13b88e6866f0156d706fecfa22b678de5fc2b749c1d2307f6f47eb541385f1ec8380a360016000805160206125198339815191525580f35b604051631c3a175760e01b8152600490fd5b503461023e578060031936011261023e576020600a54604051908152f35b503461023e57602036600319011261023e577fea851fc89ebccda62380b76fc8e8317f0bcd4d75ea908cf501bd2ebc6ac1c8f26040600435611a0161209e565b600454908060045582519182526020820152a180f35b503461023e57602036600319011261023e577f41e376fd99913dea7fda140f5c0bd997515b1a181acc58737320322548ec6e726040600435611a5761209e565b600254908060025582519182526020820152a180f35b503461023e578060031936011261023e57602060ff600154166040519015158152f35b503461023e578060031936011261023e576020600554604051908152f35b503461023e57602036600319011261023e576040602091600435815260088352206104ec600282015491611b74600382015491611aeb838661231b565b9481549560018060a01b036001840154169460048401546005850154600686015491600787015493611b1d85876123d4565b96611b32600960ff60088c0154169a01611fca565b9a6040519e8f9e8f908152015260408d015260608c015260808b015260a08a015260c089015260e0880152610100870152610120860152610140850190611ee1565b61018080610160850152830190611f04565b503461023e578060031936011261023e576020600654604051908152f35b503461023e578060031936011261023e5760206040517f408a36151f841709116a4e8aca4e0202874f7f54687dcb863b1ea4672dc9d8cf8152f35b503461023e578060031936011261023e57611bf861209e565b60015460ff811615611c385760ff19166001557f5db9ee0a495bf2e6ff9c91a7834c1ba4fdd244a5e8aa4e537bd38aeae4b073aa6020604051338152a180f35b604051638dfc202b60e01b8152600490fd5b503461023e57604036600319011261023e57611c64611eb5565b336001600160a01b03821603611c80576108c69060043561217c565b60405163334bd91960e11b8152600490fd5b503461023e57604036600319011261023e576108c6600435611cb2611eb5565b9080845283602052611cca60016040862001546120d8565b6120fe565b503461023e57602036600319011261023e57600160406020926004358152808452200154604051908152f35b503461023e578060031936011261023e576020604051611b588152f35b503461023e57602036600319011261023e577fb06a54caabe58475c86c2bf9df3f2f06dd1213e9e10659c293117fe4893b274b6040600435611d5861209e565b600554908060055582519182526020820152a180f35b503461023e57602036600319011261023e57612710611d916004546004356121f1565b049064e8d4a5100091828102928184041490151715611db557602082604051908152f35b634e487b7160e01b81526011600452602490fd5b503461023e57602036600319011261023e57600435611de661209e565b6127108111611e295760407fefaf0263a58e2b37c18e8494288218521b8fc54c3d807e281d847e95c4b4d52491600354908060035582519182526020820152a180f35b60405162461bcd60e51b815260206004820152600b60248201526a24b73b30b634b210262a2b60a91b6044820152606490fd5b9050346103a55760203660031901126103a55760043563ffffffff60e01b8116809103611eb15760209250637965db0b60e01b8114908115611ea0575b5015158152f35b6301ffc9a760e01b14905038611e99565b8280fd5b602435906001600160a01b0382168203610e4157565b600435906001600160a01b0382168203610e4157565b906006821015611eee5752565b634e487b7160e01b600052602160045260246000fd5b919082519283825260005b848110611f30575050826000602080949584010152601f8019910116010190565b602081830181015184830182015201611f0f565b6040906003190112610e41576004359060243590565b90600182811c92168015611f8a575b6020831014611f7457565b634e487b7160e01b600052602260045260246000fd5b91607f1691611f69565b67ffffffffffffffff8111610ded57604052565b90601f8019910116810190811067ffffffffffffffff821117610ded57604052565b9060405191826000825492611fde84611f5a565b90818452600194858116908160001461204d575060011461200a575b505061200892500383611fa8565b565b9093915060005260209081600020936000915b81831061203557505061200893508201013880611ffa565b8554888401850152948501948794509183019161201d565b91505061200894506020925060ff191682840152151560051b8201013880611ffa565b80548210156120885760005260206000200190600090565b634e487b7160e01b600052603260045260246000fd5b3360009081527fad3228b676f7d3cd4284a5443f17f1962b36e491b30a40b2405849e597ba5fb5602052604081205460ff16156117b35750565b80600052600060205260406000203360005260205260ff60406000205416156117b35750565b9060009180835282602052604083209160018060a01b03169182845260205260ff6040842054161560001461217757808352826020526040832082845260205260408320600160ff198254161790557f2f8788117e7eff1d82e926ec794901d17c78024a50270940304540a733656f0d339380a4600190565b505090565b9060009180835282602052604083209160018060a01b03169182845260205260ff6040842054166000146121775780835282602052604083208284526020526040832060ff1981541690557ff6391f5c32d9c69d2a47ea670b442974b53935d1edc7fd64eb21e047a839171b339380a4600190565b8181029291811591840414171561220457565b634e487b7160e01b600052601160045260246000fd5b8115612224570490565b634e487b7160e01b600052601260045260246000fd5b60001981146122045760010190565b60ff6001541661225557565b60405163d93c066560e01b8152600490fd5b60008051602061251983398151915260028154146122855760029055565b604051633ee5aeb560e01b8152600490fd5b600081815260086020526040902060018101546001600160a01b0316156108775760088101805460ff81166006811015611eee576123095760ff19166001179055600401546040519081527e25a2d6ca1b3da40a46ecc2c7ecbddb416fe7180003a0155b7e7d782d895f2190602090a2565b60405163fb417ab160e01b8152600490fd5b9190820180921161220457565b90816020910312610e4157516001600160a01b0381168103610e415790565b6040516323b872dd60e01b60009081526001600160a01b03938416600452938316602452604494909452909160209060648180855af16001600051148116156123b4575b8360405260006060521561239e57505050565b635274afe760e01b835216600482015260249150fd5b60018115166123ca57813b15153d15161661238b565b833d6000823e3d90fd5b9190820391821161220457565b8015612204576000190190565b60405163a9059cbb60e01b60009081526001600160a01b039384166004526024949094529260209060448180855af1600160005114811615612439575b836040521561239e57505050565b60018115166123ca57813b15153d15161661242b565b6040516302587e2f60e21b81526001600160a01b03918216600482015290602090829060249082907f0000000000000000000000000000000000000000000000000000000000000000165afa90811561250c576000916124d0575b5060ff16600381146124c9576002146124c357610bb890565b61138890565b50611b5890565b6020813d8211612504575b816124e860209383611fa8565b810103126103a557519060ff8216820361023e575060ff6124aa565b3d91506124db565b6040513d6000823e3d90fdfe9b779b17422d0df92223018b32b4d1fa46e071723d6817e2486d003becc55f00a2646970667358221220de2c460a3cc557686bf7642286701ab3ce6376bf051a26caa3afabf9e736ddb164736f6c634300081400332f8788117e7eff1d82e926ec794901d17c78024a50270940304540a733656f0d",
  "linkReferences": {},
  "deployedLinkReferences": {}
}