{"abi":[{"type":"constructor","inputs":[],"stateMutability":"nonpayable"},{"type":"function","name":"BURNER_ROLE","inputs":[],"outputs":[{"name":"","type":"bytes32","internalType":"bytes32"}],"stateMutability":"view"},{"type":"function","name":"DEFAULT_ADMIN_ROLE","inputs":[],"outputs":[{"name":"","type":"bytes32","internalType":"bytes32"}],"stateMutability":"view"},{"type":"function","name":"DEFAULT_MINT_AMOUNT","inputs":[],"outputs":[{"name":"","type":"uint256","internalType":"uint256"}],"stateMutability":"view"},{"type":"function","name":"LOCKER_ROLE","inputs":[],"outputs":[{"name":"","type":"bytes32","internalType":"bytes32"}],"stateMutability":"view"},{"type":"function","name":"MAX_SUPPLY","inputs":[],"outputs":[{"name":"","type":"uint256","internalType":"uint256"}],"stateMutability":"view"},{"type":"function","name":"MINTER_ROLE","inputs":[],"outputs":[{"name":"","type":"bytes32","internalType":"bytes32"}],"stateMutability":"view"},{"type":"function","name":"allowance","inputs":[{"name":"owner","type":"address","internalType":"address"},{"name":"spender","type":"address","internalType":"address"}],"outputs":[{"name":"","type":"uint256","internalType":"uint256"}],"stateMutability":"view"},{"type":"function","name":"approve","inputs":[{"name":"spender","type":"address","internalType":"address"},{"name":"value","type":"uint256","internalType":"uint256"}],"outputs":[{"name":"","type":"bool","internalType":"bool"}],"stateMutability":"nonpayable"},{"type":"function","name":"balanceOf","inputs":[{"name":"account","type":"address","internalType":"address"}],"outputs":[{"name":"","type":"uint256","internalType":"uint256"}],"stateMutability":"view"},{"type":"function","name":"burn","inputs":[{"name":"from","type":"address","internalType":"address"},{"name":"amount","type":"uint256","internalType":"uint256"}],"outputs":[],"stateMutability":"nonpayable"},{"type":"function","name":"decimals","inputs":[],"outputs":[{"name":"","type":"uint8","internalType":"uint8"}],"stateMutability":"view"},{"type":"function","name":"getAvailableBalance","inputs":[{"name":"account","type":"address","internalType":"address"}],"outputs":[{"name":"","type":"uint256","internalType":"uint256"}],"stateMutability":"view"},{"type":"function","name":"getLockedBalance","inputs":[{"name":"account","type":"address","internalType":"address"}],"outputs":[{"name":"","type":"uint256","internalType":"uint256"}],"stateMutability":"view"},{"type":"function","name":"getRoleAdmin","inputs":[{"name":"role","type":"bytes32","internalType":"bytes32"}],"outputs":[{"name":"","type":"bytes32","internalType":"bytes32"}],"stateMutability":"view"},{"type":"function","name":"getVotingPower","inputs":[{"name":"account","type":"address","internalType":"address"}],"outputs":[{"name":"","type":"uint256","internalType":"uint256"}],"stateMutability":"view"},{"type":"function","name":"grantRole","inputs":[{"name":"role","type":"bytes32","internalType":"bytes32"},{"name":"account","type":"address","internalType":"address"}],"outputs":[],"stateMutability":"nonpayable"},{"type":"function","name":"hasRole","inputs":[{"name":"role","type":"bytes32","internalType":"bytes32"},{"name":"account","type":"address","internalType":"address"}],"outputs":[{"name":"","type":"bool","internalType":"bool"}],"stateMutability":"view"},{"type":"function","name":"lakomiGovern","inputs":[],"outputs":[{"name":"","type":"address","internalType":"address"}],"stateMutability":"view"},{"type":"function","name":"lakomiLoans","inputs":[],"outputs":[{"name":"","type":"address","internalType":"address"}],"stateMutability":"view"},{"type":"function","name":"lakomiVault","inputs":[],"outputs":[{"name":"","type":"address","internalType":"address"}],"stateMutability":"view"},{"type":"function","name":"lockTokens","inputs":[{"name":"account","type":"address","internalType":"address"},{"name":"amount","type":"uint256","internalType":"uint256"}],"outputs":[],"stateMutability":"nonpayable"},{"type":"function","name":"mint","inputs":[{"name":"to","type":"address","internalType":"address"},{"name":"amount","type":"uint256","internalType":"uint256"}],"outputs":[],"stateMutability":"nonpayable"},{"type":"function","name":"mintDefault","inputs":[{"name":"to","type":"address","internalType":"address"}],"outputs":[],"stateMutability":"nonpayable"},{"type":"function","name":"name","inputs":[],"outputs":[{"name":"","type":"string","internalType":"string"}],"stateMutability":"view"},{"type":"function","name":"renounceRole","inputs":[{"name":"role","type":"bytes32","internalType":"bytes32"},{"name":"callerConfirmation","type":"address","internalType":"address"}],"outputs":[],"stateMutability":"nonpayable"},{"type":"function","name":"revokeRole","inputs":[{"name":"role","type":"bytes32","internalType":"bytes32"},{"name":"account","type":"address","internalType":"address"}],"outputs":[],"stateMutability":"nonpayable"},{"type":"function","name":"setLakomiGovern","inputs":[{"name":"govern","type":"address","internalType":"address"}],"outputs":[],"stateMutability":"nonpayable"},{"type":"function","name":"setLakomiLoans","inputs":[{"name":"loans","type":"address","internalType":"address"}],"outputs":[],"stateMutability":"nonpayable"},{"type":"function","name":"setLakomiVault","inputs":[{"name":"vault","type":"address","internalType":"address"}],"outputs":[],"stateMutability":"nonpayable"},{"type":"function","name":"setTransfersEnabled","inputs":[{"name":"enabled","type":"bool","internalType":"bool"}],"outputs":[],"stateMutability":"nonpayable"},{"type":"function","name":"supportsInterface","inputs":[{"name":"interfaceId","type":"bytes4","internalType":"bytes4"}],"outputs":[{"name":"","type":"bool","internalType":"bool"}],"stateMutability":"view"},{"type":"function","name":"symbol","inputs":[],"outputs":[{"name":"","type":"string","internalType":"string"}],"stateMutability":"view"},{"type":"function","name":"totalSupply","inputs":[],"outputs":[{"name":"","type":"uint256","internalType":"uint256"}],"stateMutability":"view"},{"type":"function","name":"transfer","inputs":[{"name":"to","type":"address","internalType":"address"},{"name":"value","type":"uint256","internalType":"uint256"}],"outputs":[{"name":"","type":"bool","internalType":"bool"}],"stateMutability":"nonpayable"},{"type":"function","name":"transferFrom","inputs":[{"name":"from","type":"address","internalType":"address"},{"name":"to","type":"address","internalType":"address"},{"name":"value","type":"uint256","internalType":"uint256"}],"outputs":[{"name":"","type":"bool","internalType":"bool"}],"stateMutability":"nonpayable"},{"type":"function","name":"transfersEnabled","inputs":[],"outputs":[{"name":"","type":"bool","internalType":"bool"}],"stateMutability":"view"},{"type":"function","name":"unlockTokens","inputs":[{"name":"account","type":"address","internalType":"address"},{"name":"amount","type":"uint256","internalType":"uint256"}],"outputs":[],"stateMutability":"nonpayable"},{"type":"event","name":"Approval","inputs":[{"name":"owner","type":"address","indexed":true,"internalType":"address"},{"name":"spender","type":"address","indexed":true,"internalType":"address"},{"name":"value","type":"uint256","indexed":false,"internalType":"uint256"}],"anonymous":false},{"type":"event","name":"GovernSet","inputs":[{"name":"govern","type":"address","indexed":true,"internalType":"address"}],"anonymous":false},{"type":"event","name":"LoansSet","inputs":[{"name":"loans","type":"address","indexed":true,"internalType":"address"}],"anonymous":false},{"type":"event","name":"RoleAdminChanged","inputs":[{"name":"role","type":"bytes32","indexed":true,"internalType":"bytes32"},{"name":"previousAdminRole","type":"bytes32","indexed":true,"internalType":"bytes32"},{"name":"newAdminRole","type":"bytes32","indexed":true,"internalType":"bytes32"}],"anonymous":false},{"type":"event","name":"RoleGranted","inputs":[{"name":"role","type":"bytes32","indexed":true,"internalType":"bytes32"},{"name":"account","type":"address","indexed":true,"internalType":"address"},{"name":"sender","type":"address","indexed":true,"internalType":"address"}],"anonymous":false},{"type":"event","name":"RoleRevoked","inputs":[{"name":"role","type":"bytes32","indexed":true,"internalType":"bytes32"},{"name":"account","type":"address","indexed":true,"internalType":"address"},{"name":"sender","type":"address","indexed":true,"internalType":"address"}],"anonymous":false},{"type":"event","name":"TokensBurned","inputs":[{"name":"from","type":"address","indexed":true,"internalType":"address"},{"name":"amount","type":"uint256","indexed":false,"internalType":"uint256"},{"name":"timestamp","type":"uint256","indexed":false,"internalType":"uint256"}],"anonymous":false},{"type":"event","name":"TokensLocked","inputs":[{"name":"account","type":"address","indexed":true,"internalType":"address"},{"name":"amount","type":"uint256","indexed":false,"internalType":"uint256"},{"name":"timestamp","type":"uint256","indexed":false,"internalType":"uint256"}],"anonymous":false},{"type":"event","name":"TokensMinted","inputs":[{"name":"to","type":"address","indexed":true,"internalType":"address"},{"name":"amount","type":"uint256","indexed":false,"internalType":"uint256"},{"name":"timestamp","type":"uint256","indexed":false,"internalType":"uint256"}],"anonymous":false},{"type":"event","name":"TokensUnlocked","inputs":[{"name":"account","type":"address","indexed":true,"internalType":"address"},{"name":"amount","type":"uint256","indexed":false,"internalType":"uint256"},{"name":"timestamp","type":"uint256","indexed":false,"internalType":"uint256"}],"anonymous":false},{"type":"event","name":"Transfer","inputs":[{"name":"from","type":"address","indexed":true,"internalType":"address"},{"name":"to","type":"address","indexed":true,"internalType":"address"},{"name":"value","type":"uint256","indexed":false,"internalType":"uint256"}],"anonymous":false},{"type":"event","name":"TransfersToggled","inputs":[{"name":"enabled","type":"bool","indexed":false,"internalType":"bool"},{"name":"by","type":"address","indexed":true,"internalType":"address"}],"anonymous":false},{"type":"event","name":"VaultSet","inputs":[{"name":"vault","type":"address","indexed":true,"internalType":"address"}],"anonymous":false},{"type":"error","name":"AccessControlBadConfirmation","inputs":[]},{"type":"error","name":"AccessControlUnauthorizedAccount","inputs":[{"name":"account","type":"address","internalType":"address"},{"name":"neededRole","type":"bytes32","internalType":"bytes32"}]},{"type":"error","name":"ERC20InsufficientAllowance","inputs":[{"name":"spender","type":"address","internalType":"address"},{"name":"allowance","type":"uint256","internalType":"uint256"},{"name":"needed","type":"uint256","internalType":"uint256"}]},{"type":"error","name":"ERC20InsufficientBalance","inputs":[{"name":"sender","type":"address","internalType":"address"},{"name":"balance","type":"uint256","internalType":"uint256"},{"name":"needed","type":"uint256","internalType":"uint256"}]},{"type":"error","name":"ERC20InvalidApprover","inputs":[{"name":"approver","type":"address","internalType":"address"}]},{"type":"error","name":"ERC20InvalidReceiver","inputs":[{"name":"receiver","type":"address","internalType":"address"}]},{"type":"error","name":"ERC20InvalidSender","inputs":[{"name":"sender","type":"address","internalType":"address"}]},{"type":"error","name":"ERC20InvalidSpender","inputs":[{"name":"spender","type":"address","internalType":"address"}]},{"type":"error","name":"LakomiToken__AlreadySet","inputs":[]},{"type":"error","name":"LakomiToken__ExceedsMaxSupply","inputs":[]},{"type":"error","name":"LakomiToken__InsufficientBalance","inputs":[]},{"type":"error","name":"LakomiToken__InsufficientUnlockedTokens","inputs":[]},{"type":"error","name":"LakomiToken__NothingToUnlock","inputs":[]},{"type":"error","name":"LakomiToken__TransfersDisabled","inputs":[]},{"type":"error","name":"LakomiToken__ZeroAddress","inputs":[]},{"type":"error","name":"ReentrancyGuardReentrantCall","inputs":[]}],"bytecode":{"object":"0x6080346200035d576001600160401b03906040908082018381118282101762000268578252600c81526020926b2630b5b7b6b4902a37b5b2b760a11b8483015282519083820182811082821117620002685784526003808352624c414b60e81b86840152835182811162000268578154906001958683811c9316801562000352575b898410146200033e578190601f93848111620002eb575b50899084831160011462000288575f926200027c575b50505f1982851b1c191690861b1782555b835192831162000268576004938454978689811c991680156200025d575b818a10146200024a578883869798999a11620001f1575b50809285116001146200018757505f936200017b575b505082851b925f19911b1c19161790555b807f9b779b17422d0df92223018b32b4d1fa46e071723d6817e2486d003becc55f0055620001493362000361565b506200015533620003e0565b50620001613362000481565b5060ff1960075416176007555161156e90816200051e8239f35b015191505f806200010a565b929190879550601f198516875f52845f20945f905b828210620001d75750508511620001bd575b50505050811b0190556200011b565b01519060f8845f19921b161c191690555f808080620001ae565b8484015187558a989096019593840193908101906200019c565b909192939450865f52815f208480880160051c82019284891062000240575b918a91899897969594930160051c01915b82811062000231575050620000f4565b5f81558897508a910162000221565b9250819262000210565b602286634e487b7160e01b5f525260245ffd5b98607f1698620000dd565b634e487b7160e01b5f52604160045260245ffd5b015190505f80620000ae565b90889350601f19831691865f528b5f20925f5b8d828210620002d45750508411620002bc575b505050811b018255620000bf565b01515f1983871b60f8161c191690555f8080620002ae565b8385015186558c979095019493840193016200029b565b909150845f52895f208480850160051c8201928c861062000334575b918a91869594930160051c01915b8281106200032557505062000098565b5f81558594508a910162000315565b9250819262000307565b634e487b7160e01b5f52602260045260245ffd5b92607f169262000081565b5f80fd5b6001600160a01b03165f8181527f05b8ccbb9d4d8fb16ea74ce3c29a41f1b461fbdaff4714a0d9a8eb05499746bc602052604081205490919060ff16620003dc5781805260056020526040822081835260205260408220600160ff1982541617905533915f8051602062001a8c8339815191528180a4600190565b5090565b6001600160a01b03165f8181527f15a28d26fa1bf736cf7edc9922607171ccb09c3c73b808e7772a3013e068a52260205260408120549091907f9f2df0fed2c77648de5860a4cc508cd0818c85b8b8a1ab4ceeef8d981c8956a69060ff166200047c5780835260056020526040832082845260205260408320600160ff198254161790555f8051602062001a8c833981519152339380a4600190565b505090565b6001600160a01b03165f8181527f847f481f687befb06ed3511f1a8dcef57e83007c0147ae5047583d705617093760205260408120549091907f3c11d16cbaffd01df69ce1c404f6340ee057498f5f00246190ea54220576a8489060ff166200047c5780835260056020526040832082845260205260408320600160ff198254161790555f8051602062001a8c833981519152339380a460019056fe6080604081815260049182361015610015575f80fd5b5f92833560e01c91826301ffc9a7146110845750816306fdde0314610faa578163095ea7b314610f0057816318160ddd14610ee15781631ad3303314610ddc5781632144d0b914610daf57816321a5279914610d2057816323b872dd14610bfc578163248a9ca314610bd157816326b9ce1314610b6e578163282c51f314610b335781632c4fbd2d14610abb5781632f2ff15d14610a91578163313ce56714610a7557816332cb6b0c14610a5057816336568abe14610a0a57816340c10f19146109265781636c24a76f146103d357816370a08231146108ef57816391d14854146108a857816395d89b41146107895781639d564d9a146106f05781639dc29fac14610574578163a217fddf14610559578163a9059cbb146104ff578163ab466a8d146104db578163ae20600b146104b2578163b1c25586146103d8578163bb4d4436146103d3578163bef97c87146103af578163c408689314610377578163d53913931461033c578163d547741f146102fc578163dcab10d61461026657508063dd62ed3e1461021e578063df817a71146101f65763f3621367146101b9575f80fd5b346101f257816003193601126101f257602090517faf9a8bb3cbd6b84fbccefa71ff73e26e798553c6914585a84886212a46a902798152f35b5080fd5b50346101f257816003193601126101f25760085490516001600160a01b039091168152602090f35b50346101f257806003193601126101f2578060209261023b61111e565b610243611138565b6001600160a01b0391821683526001865283832091168252845220549051908152f35b9050346102f85760203660031901126102f85761028161111e565b9061028a611210565b6001600160a01b039182169283156102eb576009549283166102de5750506001600160a01b03191681176009557ff54cdf149ced77f64aefa26253e0703062cc3f3be92a9d759576f9741725b2a18280a280f35b51630bcf2c7760e31b8152fd5b5163aacf746b60e01b8152fd5b8280fd5b919050346102f857806003193601126102f85761033891356103336001610321611138565b938387526005602052862001546112a3565b611343565b5080f35b5050346101f257816003193601126101f257602090517f9f2df0fed2c77648de5860a4cc508cd0818c85b8b8a1ab4ceeef8d981c8956a68152f35b5050346101f25760203660031901126101f25760209181906001600160a01b0361039f61111e565b1681526006845220549051908152f35b5050346101f257816003193601126101f25760209060ff6007541690519015158152f35b61114e565b919050346102f857806003193601126102f8576103f361111e565b602435906103ff611249565b6104076113d9565b6001600160a01b03169283156104a45783855284602052816104358487205460066020528588205490611408565b106104965750907fd741e738a23fd18a03a26522320d9fc6cac1fed483e215ea9150fbc2fc43385d9183855260066020528185206104748282546113b8565b90558151908152426020820152a260015f805160206115198339815191525580f35b8251632f992abf60e01b8152fd5b825163aacf746b60e01b8152fd5b5050346101f257816003193601126101f25760095490516001600160a01b039091168152602090f35b5050346101f257816003193601126101f2576020905168056bc75e2d631000008152f35b9050346102f857816003193601126102f8579161053f9261051e61111e565b91602435948591338152806020528580822054916006602052205490611408565b1061049657506020926105529133611415565b5160018152f35b5050346101f257816003193601126101f25751908152602090f35b919050346102f857806003193601126102f85761058f61111e565b91602435907f3c11d16cbaffd01df69ce1c404f6340ee057498f5f00246190ea54220576a8489081865260209160058352848720338852835260ff8588205416156106d357506105dd6113d9565b6001600160a01b0385169485156106c4578587528683528385882054106106b557858752868352848720549184831061068157505090827fccbea4088a3b7ae9ca2d15fab9a9742a4075b4d7247768a1eecea917565aba009493928688528783520383872055816002540360025585855f805160206114f9833981519152838651868152a382519182524290820152a260015f805160206115198339815191525580f35b855163391434e360e21b81526001600160a01b03909216908201908152602081018390526040810185905281906060010390fd5b508351632f100e0360e11b8152fd5b50835163aacf746b60e01b8152fd5b6044925084519163e2517d3f60e01b835233908301526024820152fd5b919050346102f857806003193601126102f85761070b61111e565b60243590610717611249565b61071f6113d9565b6001600160a01b03169283156104a457838552600660205281838620541061077b5750907f89882ad382a3742d4db24e4dabc5000c5852aed762904db28442e4e1630a1d07918385526006602052818520610474828254611408565b825163713ca3c160e11b8152fd5b8383346101f257816003193601126101f257805190828454600181811c9080831692831561089e575b602093848410811461088b5783885290811561086f575060011461081a575b505050829003601f01601f191682019267ffffffffffffffff84118385101761080757508291826108039252826110d7565b0390f35b634e487b7160e01b815260418552602490fd5b8787529192508591837f8a35acfbc15ff81a39ae7d344fd709f28e8600b4aa8c65c6b64bfe7fe36bd19b5b83851061085b57505050508301018580806107d1565b805488860183015293019284908201610845565b60ff1916878501525050151560051b84010190508580806107d1565b634e487b7160e01b895260228a52602489fd5b91607f16916107b2565b9050346102f857816003193601126102f8578160209360ff926108c9611138565b90358252600586528282206001600160a01b039091168252855220549151911615158152f35b5050346101f25760203660031901126101f25760209181906001600160a01b0361091761111e565b16815280845220549051908152f35b919050346102f857806003193601126102f85761094161111e565b6024359061094d611197565b6109556113d9565b6001600160a01b03169283156104a4576002549069d3c21bcecceda100000061097e84846113b8565b116109fc5750906109b1817f2e8ac5177a616f2aec08c3048f5021e4e9743ece034e8d83ba5caf76688bb47594936113b8565b6002558385528460205281852081815401905583855f805160206114f983398151915260208551858152a38151908152426020820152a260015f805160206115198339815191525580f35b8351632e1198f160e11b8152fd5b8383346101f257806003193601126101f257610a24611138565b90336001600160a01b03831603610a415750610338919235611343565b5163334bd91960e11b81528390fd5b5050346101f257816003193601126101f2576020905169d3c21bcecceda10000008152f35b5050346101f257816003193601126101f2576020905160128152f35b919050346102f857806003193601126102f8576103389135610ab66001610321611138565b6112c5565b9050346102f85760203660031901126102f857610ad661111e565b90610adf611210565b6001600160a01b039182169283156102eb576008549283166102de5750506001600160a01b03191681176008557f02ede59ede14fc8a452f4d9c602afef004380e4a5bf668b99ca6580878a80a5c8280a280f35b5050346101f257816003193601126101f257602090517f3c11d16cbaffd01df69ce1c404f6340ee057498f5f00246190ea54220576a8488152f35b9050346102f85760203660031901126102f85735908115158092036102f857610b95611210565b60ff196007541660ff831617600755519081527f60a5428eca561d7fc92d217a2f3ca72fa49ce364b20e5cc90110bae2a414911860203392a280f35b9050346102f85760203660031901126102f85781602093600192358152600585522001549051908152f35b919050346102f85760603660031901126102f857610c1861111e565b610c20611138565b6044359160018060a01b0381169485875260209587875284610c4d878a205460068a52888b205490611408565b10610d115780885260018752858820338952875285882054915f198310610c7d575b505050906105529291611415565b858310610ce5578115610cce573315610cb75750948488926105529783999a5260018a528284203385528a52039120558594935f80610c6f565b8651634a1406b160e11b8152908101899052602490fd5b865163e602df0560e01b8152908101899052602490fd5b8651637dc7a0d960e11b8152339181019182526020820193909352604081018690528291506060010390fd5b508451632f992abf60e01b8152fd5b9050346102f85760203660031901126102f857610d3b61111e565b610d43611210565b6001600160a01b038181169390929084156102eb57600754938460081c166102de575050610100600160a81b031990911660089190911b610100600160a81b0316176007557fe7ae49f883c825b05681b3e00e8be6fdea9ed2a8a45e4c6ecb9390fc44cce6158280a280f35b5050346101f257816003193601126101f257600754905160089190911c6001600160a01b03168152602090f35b8383346101f25760203660031901126101f257610df761111e565b610dff611197565b610e076113d9565b6001600160a01b0316908115610ed25760025468056bc75e2d6310000090818101809111610ebf5769d3c21bcecceda10000008111610eaf57907f2e8ac5177a616f2aec08c3048f5021e4e9743ece034e8d83ba5caf76688bb47592916002558385528460205281852081815401905583855f805160206114f983398151915260208551858152a38151908152426020820152a260015f805160206115198339815191525580f35b8251632e1198f160e11b81528690fd5b634e487b7160e01b855260118652602485fd5b5163aacf746b60e01b81528390fd5b5050346101f257816003193601126101f2576020906002549051908152f35b9050346102f857816003193601126102f857610f1a61111e565b602435903315610f93576001600160a01b0316918215610f7c57508083602095338152600187528181208582528752205582519081527f8c5be1e5ebec7d5bd14f71427d1e84f3dd0314c0f7b2291e5b200ac8c7c3b925843392a35160018152f35b8351634a1406b160e11b8152908101859052602490fd5b835163e602df0560e01b8152808401869052602490fd5b8383346101f257816003193601126101f25780519082600354600181811c9080831692831561107a575b602093848410811461088b5783885290811561086f575060011461102457505050829003601f01601f191682019267ffffffffffffffff84118385101761080757508291826108039252826110d7565b600387529192508591837fc2575a0e9e593c00f959f8c92f12db2869c3395a3b0502d05e2516446f71f85b5b83851061106657505050508301018580806107d1565b805488860183015293019284908201611050565b91607f1691610fd4565b8491346102f85760203660031901126102f8573563ffffffff60e01b81168091036102f85760209250637965db0b60e01b81149081156110c6575b5015158152f35b6301ffc9a760e01b149050836110bf565b602080825282518183018190529093925f5b82811061110a57505060409293505f838284010152601f8019910116010190565b8181018601518482016040015285016110e9565b600435906001600160a01b038216820361113457565b5f80fd5b602435906001600160a01b038216820361113457565b34611134576020366003190112611134576001600160a01b0361116f61111e565b165f525f602052602061118f60405f20546006835260405f205490611408565b604051908152f35b335f9081527f15a28d26fa1bf736cf7edc9922607171ccb09c3c73b808e7772a3013e068a52260205260409020547f9f2df0fed2c77648de5860a4cc508cd0818c85b8b8a1ab4ceeef8d981c8956a69060ff16156111f25750565b6044906040519063e2517d3f60e01b82523360048301526024820152fd5b335f9081527f05b8ccbb9d4d8fb16ea74ce3c29a41f1b461fbdaff4714a0d9a8eb05499746bc602052604081205460ff16156111f25750565b335f9081527ecd24bfc36858366fa9b50eeb52d23b2918df0151c543a0d3f8b17bf202bf2960205260409020547faf9a8bb3cbd6b84fbccefa71ff73e26e798553c6914585a84886212a46a902799060ff16156111f25750565b805f52600560205260405f20335f5260205260ff60405f205416156111f25750565b905f918083526005602052604083209160018060a01b03169182845260205260ff604084205416155f1461133e5780835260056020526040832082845260205260408320600160ff198254161790557f2f8788117e7eff1d82e926ec794901d17c78024a50270940304540a733656f0d339380a4600190565b505090565b905f918083526005602052604083209160018060a01b03169182845260205260ff6040842054165f1461133e578083526005602052604083208284526020526040832060ff1981541690557ff6391f5c32d9c69d2a47ea670b442974b53935d1edc7fd64eb21e047a839171b339380a4600190565b919082018092116113c557565b634e487b7160e01b5f52601160045260245ffd5b5f8051602061151983398151915260028154146113f65760029055565b604051633ee5aeb560e01b8152600490fd5b919082039182116113c557565b91906001600160a01b038084169182156114e057169182156114c8575f8281528060205260409485822054908382106114975750918582825f805160206114f98339815191529587602096528286520382822055868152208181540190558551908152a360ff60075416156114875750565b51630202da8560e11b8152600490fd5b865163391434e360e21b81526001600160a01b03919091166004820152602481019190915260448101839052606490fd5b60405163ec442f0560e01b81525f6004820152602490fd5b604051634b637e8f60e11b81525f6004820152602490fdfeddf252ad1be2c89b69c2b068fc378daa952ba7f163c4a11628f55a4df523b3ef9b779b17422d0df92223018b32b4d1fa46e071723d6817e2486d003becc55f00a264697066735822122088426e4a3af45cc6a5e9350b210f63a98b4598eb68a85cff89c1d7cf010509b764736f6c634300081400332f8788117e7eff1d82e926ec794901d17c78024a50270940304540a733656f0d","linkReferences":{}},"methodIdentifiers":{"BURNER_ROLE()":"282c51f3","DEFAULT_ADMIN_ROLE()":"a217fddf","DEFAULT_MINT_AMOUNT()":"ab466a8d","LOCKER_ROLE()":"f3621367","MAX_SUPPLY()":"32cb6b0c","MINTER_ROLE()":"d5391393","allowance(address,address)":"dd62ed3e","approve(address,uint256)":"095ea7b3","balanceOf(address)":"70a08231","burn(address,uint256)":"9dc29fac","decimals()":"313ce567","getAvailableBalance(address)":"6c24a76f","getLockedBalance(address)":"c4086893","getRoleAdmin(bytes32)":"248a9ca3","getVotingPower(address)":"bb4d4436","grantRole(bytes32,address)":"2f2ff15d","hasRole(bytes32,address)":"91d14854","lakomiGovern()":"df817a71","lakomiLoans()":"ae20600b","lakomiVault()":"2144d0b9","lockTokens(address,uint256)":"b1c25586","mint(address,uint256)":"40c10f19","mintDefault(address)":"1ad33033","name()":"06fdde03","renounceRole(bytes32,address)":"36568abe","revokeRole(bytes32,address)":"d547741f","setLakomiGovern(address)":"2c4fbd2d","setLakomiLoans(address)":"dcab10d6","setLakomiVault(address)":"21a52799","setTransfersEnabled(bool)":"26b9ce13","supportsInterface(bytes4)":"01ffc9a7","symbol()":"95d89b41","totalSupply()":"18160ddd","transfer(address,uint256)":"a9059cbb","transferFrom(address,address,uint256)":"23b872dd","transfersEnabled()":"bef97c87","unlockTokens(address,uint256)":"9d564d9a"},"id":39}