{
  "_format": "hh-sol-artifact-1",
  "contractName": "LakomiToken",
  "sourceName": "contracts/LakomiToken.sol",
  "abi": [
    {
      "inputs": [],
      "stateMutability": "nonpayable",
      "type": "constructor"
    },
    {
      "inputs": [],
      "name": "AccessControlBadConfirmation",
      "type": "error"
    },
    {
      "inputs": [
        {
          "internalType": "address",
          "name": "account",
          "type": "address"
        },
        {
          "internalType": "bytes32",
          "name": "neededRole",
          "type": "bytes32"
        }
      ],
      "name": "AccessControlUnauthorizedAccount",
      "type": "error"
    },
    {
      "inputs": [
        {
          "internalType": "address",
          "name": "spender",
          "type": "address"
        },
        {
          "internalType": "uint256",
          "name": "allowance",
          "type": "uint256"
        },
        {
          "internalType": "uint256",
          "name": "needed",
          "type": "uint256"
        }
      ],
      "name": "ERC20InsufficientAllowance",
      "type": "error"
    },
    {
      "inputs": [
        {
          "internalType": "address",
          "name": "sender",
          "type": "address"
        },
        {
          "internalType": "uint256",
          "name": "balance",
          "type": "uint256"
        },
        {
          "internalType": "uint256",
          "name": "needed",
          "type": "uint256"
        }
      ],
      "name": "ERC20InsufficientBalance",
      "type": "error"
    },
    {
      "inputs": [
        {
          "internalType": "address",
          "name": "approver",
          "type": "address"
        }
      ],
      "name": "ERC20InvalidApprover",
      "type": "error"
    },
    {
      "inputs": [
        {
          "internalType": "address",
          "name": "receiver",
          "type": "address"
        }
      ],
      "name": "ERC20InvalidReceiver",
      "type": "error"
    },
    {
      "inputs": [
        {
          "internalType": "address",
          "name": "sender",
          "type": "address"
        }
      ],
      "name": "ERC20InvalidSender",
      "type": "error"
    },
    {
      "inputs": [
        {
          "internalType": "address",
          "name": "spender",
          "type": "address"
        }
      ],
      "name": "ERC20InvalidSpender",
      "type": "error"
    },
    {
      "inputs": [],
      "name": "LakomiToken__AlreadySet",
      "type": "error"
    },
    {
      "inputs": [],
      "name": "LakomiToken__ExceedsMaxSupply",
      "type": "error"
    },
    {
      "inputs": [],
      "name": "LakomiToken__InsufficientBalance",
      "type": "error"
    },
    {
      "inputs": [],
      "name": "LakomiToken__InsufficientUnlockedTokens",
      "type": "error"
    },
    {
      "inputs": [],
      "name": "LakomiToken__NothingToUnlock",
      "type": "error"
    },
    {
      "inputs": [],
      "name": "LakomiToken__TransfersDisabled",
      "type": "error"
    },
    {
      "inputs": [],
      "name": "LakomiToken__ZeroAddress",
      "type": "error"
    },
    {
      "inputs": [],
      "name": "ReentrancyGuardReentrantCall",
      "type": "error"
    },
    {
      "anonymous": false,
      "inputs": [
        {
          "indexed": true,
          "internalType": "address",
          "name": "owner",
          "type": "address"
        },
        {
          "indexed": true,
          "internalType": "address",
          "name": "spender",
          "type": "address"
        },
        {
          "indexed": false,
          "internalType": "uint256",
          "name": "value",
          "type": "uint256"
        }
      ],
      "name": "Approval",
      "type": "event"
    },
    {
      "anonymous": false,
      "inputs": [
        {
          "indexed": true,
          "internalType": "address",
          "name": "govern",
          "type": "address"
        }
      ],
      "name": "GovernSet",
      "type": "event"
    },
    {
      "anonymous": false,
      "inputs": [
        {
          "indexed": true,
          "internalType": "address",
          "name": "loans",
          "type": "address"
        }
      ],
      "name": "LoansSet",
      "type": "event"
    },
    {
      "anonymous": false,
      "inputs": [
        {
          "indexed": true,
          "internalType": "address",
          "name": "member",
          "type": "address"
        },
        {
          "indexed": false,
          "internalType": "uint256",
          "name": "timestamp",
          "type": "uint256"
        }
      ],
      "name": "MemberRegistered",
      "type": "event"
    },
    {
      "anonymous": false,
      "inputs": [
        {
          "indexed": true,
          "internalType": "address",
          "name": "member",
          "type": "address"
        },
        {
          "indexed": false,
          "internalType": "uint256",
          "name": "timestamp",
          "type": "uint256"
        }
      ],
      "name": "MembershipRevoked",
      "type": "event"
    },
    {
      "anonymous": false,
      "inputs": [
        {
          "indexed": true,
          "internalType": "bytes32",
          "name": "role",
          "type": "bytes32"
        },
        {
          "indexed": true,
          "internalType": "bytes32",
          "name": "previousAdminRole",
          "type": "bytes32"
        },
        {
          "indexed": true,
          "internalType": "bytes32",
          "name": "newAdminRole",
          "type": "bytes32"
        }
      ],
      "name": "RoleAdminChanged",
      "type": "event"
    },
    {
      "anonymous": false,
      "inputs": [
        {
          "indexed": true,
          "internalType": "bytes32",
          "name": "role",
          "type": "bytes32"
        },
        {
          "indexed": true,
          "internalType": "address",
          "name": "account",
          "type": "address"
        },
        {
          "indexed": true,
          "internalType": "address",
          "name": "sender",
          "type": "address"
        }
      ],
      "name": "RoleGranted",
      "type": "event"
    },
    {
      "anonymous": false,
      "inputs": [
        {
          "indexed": true,
          "internalType": "bytes32",
          "name": "role",
          "type": "bytes32"
        },
        {
          "indexed": true,
          "internalType": "address",
          "name": "account",
          "type": "address"
        },
        {
          "indexed": true,
          "internalType": "address",
          "name": "sender",
          "type": "address"
        }
      ],
      "name": "RoleRevoked",
      "type": "event"
    },
    {
      "anonymous": false,
      "inputs": [
        {
          "indexed": true,
          "internalType": "address",
          "name": "from",
          "type": "address"
        },
        {
          "indexed": false,
          "internalType": "uint256",
          "name": "amount",
          "type": "uint256"
        },
        {
          "indexed": false,
          "internalType": "uint256",
          "name": "timestamp",
          "type": "uint256"
        }
      ],
      "name": "TokensBurned",
      "type": "event"
    },
    {
      "anonymous": false,
      "inputs": [
        {
          "indexed": true,
          "internalType": "address",
          "name": "account",
          "type": "address"
        },
        {
          "indexed": false,
          "internalType": "uint256",
          "name": "amount",
          "type": "uint256"
        },
        {
          "indexed": false,
          "internalType": "uint256",
          "name": "timestamp",
          "type": "uint256"
        }
      ],
      "name": "TokensLocked",
      "type": "event"
    },
    {
      "anonymous": false,
      "inputs": [
        {
          "indexed": true,
          "internalType": "address",
          "name": "to",
          "type": "address"
        },
        {
          "indexed": false,
          "internalType": "uint256",
          "name": "amount",
          "type": "uint256"
        },
        {
          "indexed": false,
          "internalType": "uint256",
          "name": "timestamp",
          "type": "uint256"
        }
      ],
      "name": "TokensMinted",
      "type": "event"
    },
    {
      "anonymous": false,
      "inputs": [
        {
          "indexed": true,
          "internalType": "address",
          "name": "account",
          "type": "address"
        },
        {
          "indexed": false,
          "internalType": "uint256",
          "name": "amount",
          "type": "uint256"
        },
        {
          "indexed": false,
          "internalType": "uint256",
          "name": "timestamp",
          "type": "uint256"
        }
      ],
      "name": "TokensUnlocked",
      "type": "event"
    },
    {
      "anonymous": false,
      "inputs": [
        {
          "indexed": true,
          "internalType": "address",
          "name": "from",
          "type": "address"
        },
        {
          "indexed": true,
          "internalType": "address",
          "name": "to",
          "type": "address"
        },
        {
          "indexed": false,
          "internalType": "uint256",
          "name": "value",
          "type": "uint256"
        }
      ],
      "name": "Transfer",
      "type": "event"
    },
    {
      "anonymous": false,
      "inputs": [
        {
          "indexed": false,
          "internalType": "bool",
          "name": "enabled",
          "type": "bool"
        },
        {
          "indexed": true,
          "internalType": "address",
          "name": "by",
          "type": "address"
        }
      ],
      "name": "TransfersToggled",
      "type": "event"
    },
    {
      "anonymous": false,
      "inputs": [
        {
          "indexed": true,
          "internalType": "address",
          "name": "vault",
          "type": "address"
        }
      ],
      "name": "VaultSet",
      "type": "event"
    },
    {
      "inputs": [],
      "name": "BURNER_ROLE",
      "outputs": [
        {
          "internalType": "bytes32",
          "name": "",
          "type": "bytes32"
        }
      ],
      "stateMutability": "view",
      "type": "function"
    },
    {
      "inputs": [],
      "name": "DEFAULT_ADMIN_ROLE",
      "outputs": [
        {
          "internalType": "bytes32",
          "name": "",
          "type": "bytes32"
        }
      ],
      "stateMutability": "view",
      "type": "function"
    },
    {
      "inputs": [],
      "name": "DEFAULT_MINT_AMOUNT",
      "outputs": [
        {
          "internalType": "uint256",
          "name": "",
          "type": "uint256"
        }
      ],
      "stateMutability": "view",
      "type": "function"
    },
    {
      "inputs": [],
      "name": "LOCKER_ROLE",
      "outputs": [
        {
          "internalType": "bytes32",
          "name": "",
          "type": "bytes32"
        }
      ],
      "stateMutability": "view",
      "type": "function"
    },
    {
      "inputs": [],
      "name": "MAX_SUPPLY",
      "outputs": [
        {
          "internalType": "uint256",
          "name": "",
          "type": "uint256"
        }
      ],
      "stateMutability": "view",
      "type": "function"
    },
    {
      "inputs": [],
      "name": "MEMBERSHIP_ROLE",
      "outputs": [
        {
          "internalType": "bytes32",
          "name": "",
          "type": "bytes32"
        }
      ],
      "stateMutability": "view",
      "type": "function"
    },
    {
      "inputs": [],
      "name": "MINTER_ROLE",
      "outputs": [
        {
          "internalType": "bytes32",
          "name": "",
          "type": "bytes32"
        }
      ],
      "stateMutability": "view",
      "type": "function"
    },
    {
      "inputs": [
        {
          "internalType": "address",
          "name": "owner",
          "type": "address"
        },
        {
          "internalType": "address",
          "name": "spender",
          "type": "address"
        }
      ],
      "name": "allowance",
      "outputs": [
        {
          "internalType": "uint256",
          "name": "",
          "type": "uint256"
        }
      ],
      "stateMutability": "view",
      "type": "function"
    },
    {
      "inputs": [
        {
          "internalType": "address",
          "name": "spender",
          "type": "address"
        },
        {
          "internalType": "uint256",
          "name": "value",
          "type": "uint256"
        }
      ],
      "name": "approve",
      "outputs": [
        {
          "internalType": "bool",
          "name": "",
          "type": "bool"
        }
      ],
      "stateMutability": "nonpayable",
      "type": "function"
    },
    {
      "inputs": [
        {
          "internalType": "address",
          "name": "account",
          "type": "address"
        }
      ],
      "name": "balanceOf",
      "outputs": [
        {
          "internalType": "uint256",
          "name": "",
          "type": "uint256"
        }
      ],
      "stateMutability": "view",
      "type": "function"
    },
    {
      "inputs": [
        {
          "internalType": "address",
          "name": "from",
          "type": "address"
        },
        {
          "internalType": "uint256",
          "name": "amount",
          "type": "uint256"
        }
      ],
      "name": "burn",
      "outputs": [],
      "stateMutability": "nonpayable",
      "type": "function"
    },
    {
      "inputs": [],
      "name": "decimals",
      "outputs": [
        {
          "internalType": "uint8",
          "name": "",
          "type": "uint8"
        }
      ],
      "stateMutability": "view",
      "type": "function"
    },
    {
      "inputs": [
        {
          "internalType": "address",
          "name": "account",
          "type": "address"
        }
      ],
      "name": "getAvailableBalance",
      "outputs": [
        {
          "internalType": "uint256",
          "name": "",
          "type": "uint256"
        }
      ],
      "stateMutability": "view",
      "type": "function"
    },
    {
      "inputs": [
        {
          "internalType": "address",
          "name": "account",
          "type": "address"
        }
      ],
      "name": "getLockedBalance",
      "outputs": [
        {
          "internalType": "uint256",
          "name": "",
          "type": "uint256"
        }
      ],
      "stateMutability": "view",
      "type": "function"
    },
    {
      "inputs": [],
      "name": "getMemberCount",
      "outputs": [
        {
          "internalType": "uint256",
          "name": "",
          "type": "uint256"
        }
      ],
      "stateMutability": "view",
      "type": "function"
    },
    {
      "inputs": [
        {
          "internalType": "bytes32",
          "name": "role",
          "type": "bytes32"
        }
      ],
      "name": "getRoleAdmin",
      "outputs": [
        {
          "internalType": "bytes32",
          "name": "",
          "type": "bytes32"
        }
      ],
      "stateMutability": "view",
      "type": "function"
    },
    {
      "inputs": [
        {
          "internalType": "address",
          "name": "account",
          "type": "address"
        }
      ],
      "name": "getVotingPower",
      "outputs": [
        {
          "internalType": "uint256",
          "name": "",
          "type": "uint256"
        }
      ],
      "stateMutability": "view",
      "type": "function"
    },
    {
      "inputs": [
        {
          "internalType": "bytes32",
          "name": "role",
          "type": "bytes32"
        },
        {
          "internalType": "address",
          "name": "account",
          "type": "address"
        }
      ],
      "name": "grantRole",
      "outputs": [],
      "stateMutability": "nonpayable",
      "type": "function"
    },
    {
      "inputs": [
        {
          "internalType": "bytes32",
          "name": "role",
          "type": "bytes32"
        },
        {
          "internalType": "address",
          "name": "account",
          "type": "address"
        }
      ],
      "name": "hasRole",
      "outputs": [
        {
          "internalType": "bool",
          "name": "",
          "type": "bool"
        }
      ],
      "stateMutability": "view",
      "type": "function"
    },
    {
      "inputs": [
        {
          "internalType": "address",
          "name": "",
          "type": "address"
        }
      ],
      "name": "isRegisteredMember",
      "outputs": [
        {
          "internalType": "bool",
          "name": "",
          "type": "bool"
        }
      ],
      "stateMutability": "view",
      "type": "function"
    },
    {
      "inputs": [],
      "name": "lakomiGovern",
      "outputs": [
        {
          "internalType": "address",
          "name": "",
          "type": "address"
        }
      ],
      "stateMutability": "view",
      "type": "function"
    },
    {
      "inputs": [],
      "name": "lakomiLoans",
      "outputs": [
        {
          "internalType": "address",
          "name": "",
          "type": "address"
        }
      ],
      "stateMutability": "view",
      "type": "function"
    },
    {
      "inputs": [],
      "name": "lakomiVault",
      "outputs": [
        {
          "internalType": "address",
          "name": "",
          "type": "address"
        }
      ],
      "stateMutability": "view",
      "type": "function"
    },
    {
      "inputs": [
        {
          "internalType": "address",
          "name": "account",
          "type": "address"
        },
        {
          "internalType": "uint256",
          "name": "amount",
          "type": "uint256"
        }
      ],
      "name": "lockTokens",
      "outputs": [],
      "stateMutability": "nonpayable",
      "type": "function"
    },
    {
      "inputs": [],
      "name": "memberCount",
      "outputs": [
        {
          "internalType": "uint256",
          "name": "",
          "type": "uint256"
        }
      ],
      "stateMutability": "view",
      "type": "function"
    },
    {
      "inputs": [
        {
          "internalType": "address",
          "name": "to",
          "type": "address"
        },
        {
          "internalType": "uint256",
          "name": "amount",
          "type": "uint256"
        }
      ],
      "name": "mint",
      "outputs": [],
      "stateMutability": "nonpayable",
      "type": "function"
    },
    {
      "inputs": [
        {
          "internalType": "address",
          "name": "to",
          "type": "address"
        }
      ],
      "name": "mintDefault",
      "outputs": [],
      "stateMutability": "nonpayable",
      "type": "function"
    },
    {
      "inputs": [],
      "name": "name",
      "outputs": [
        {
          "internalType": "string",
          "name": "",
          "type": "string"
        }
      ],
      "stateMutability": "view",
      "type": "function"
    },
    {
      "inputs": [],
      "name": "registerMember",
      "outputs": [],
      "stateMutability": "nonpayable",
      "type": "function"
    },
    {
      "inputs": [
        {
          "internalType": "address",
          "name": "member",
          "type": "address"
        }
      ],
      "name": "registerMemberAdmin",
      "outputs": [],
      "stateMutability": "nonpayable",
      "type": "function"
    },
    {
      "inputs": [
        {
          "internalType": "bytes32",
          "name": "role",
          "type": "bytes32"
        },
        {
          "internalType": "address",
          "name": "callerConfirmation",
          "type": "address"
        }
      ],
      "name": "renounceRole",
      "outputs": [],
      "stateMutability": "nonpayable",
      "type": "function"
    },
    {
      "inputs": [
        {
          "internalType": "address",
          "name": "member",
          "type": "address"
        }
      ],
      "name": "revokeMembership",
      "outputs": [],
      "stateMutability": "nonpayable",
      "type": "function"
    },
    {
      "inputs": [
        {
          "internalType": "bytes32",
          "name": "role",
          "type": "bytes32"
        },
        {
          "internalType": "address",
          "name": "account",
          "type": "address"
        }
      ],
      "name": "revokeRole",
      "outputs": [],
      "stateMutability": "nonpayable",
      "type": "function"
    },
    {
      "inputs": [
        {
          "internalType": "address",
          "name": "govern",
          "type": "address"
        }
      ],
      "name": "setLakomiGovern",
      "outputs": [],
      "stateMutability": "nonpayable",
      "type": "function"
    },
    {
      "inputs": [
        {
          "internalType": "address",
          "name": "loans",
          "type": "address"
        }
      ],
      "name": "setLakomiLoans",
      "outputs": [],
      "stateMutability": "nonpayable",
      "type": "function"
    },
    {
      "inputs": [
        {
          "internalType": "address",
          "name": "vault",
          "type": "address"
        }
      ],
      "name": "setLakomiVault",
      "outputs": [],
      "stateMutability": "nonpayable",
      "type": "function"
    },
    {
      "inputs": [
        {
          "internalType": "bool",
          "name": "enabled",
          "type": "bool"
        }
      ],
      "name": "setTransfersEnabled",
      "outputs": [],
      "stateMutability": "nonpayable",
      "type": "function"
    },
    {
      "inputs": [
        {
          "internalType": "bytes4",
          "name": "interfaceId",
          "type": "bytes4"
        }
      ],
      "name": "supportsInterface",
      "outputs": [
        {
          "internalType": "bool",
          "name": "",
          "type": "bool"
        }
      ],
      "stateMutability": "view",
      "type": "function"
    },
    {
      "inputs": [],
      "name": "symbol",
      "outputs": [
        {
          "internalType": "string",
          "name": "",
          "type": "string"
        }
      ],
      "stateMutability": "view",
      "type": "function"
    },
    {
      "inputs": [],
      "name": "totalSupply",
      "outputs": [
        {
          "internalType": "uint256",
          "name": "",
          "type": "uint256"
        }
      ],
      "stateMutability": "view",
      "type": "function"
    },
    {
      "inputs": [
        {
          "internalType": "address",
          "name": "to",
          "type": "address"
        },
        {
          "internalType": "uint256",
          "name": "value",
          "type": "uint256"
        }
      ],
      "name": "transfer",
      "outputs": [
        {
          "internalType": "bool",
          "name": "",
          "type": "bool"
        }
      ],
      "stateMutability": "nonpayable",
      "type": "function"
    },
    {
      "inputs": [
        {
          "internalType": "address",
          "name": "from",
          "type": "address"
        },
        {
          "internalType": "address",
          "name": "to",
          "type": "address"
        },
        {
          "internalType": "uint256",
          "name": "value",
          "type": "uint256"
        }
      ],
      "name": "transferFrom",
      "outputs": [
        {
          "internalType": "bool",
          "name": "",
          "type": "bool"
        }
      ],
      "stateMutability": "nonpayable",
      "type": "function"
    },
    {
      "inputs": [],
      "name": "transfersEnabled",
      "outputs": [
        {
          "internalType": "bool",
          "name": "",
          "type": "bool"
        }
      ],
      "stateMutability": "view",
      "type": "function"
    },
    {
      "inputs": [
        {
          "internalType": "address",
          "name": "account",
          "type": "address"
        },
        {
          "internalType": "uint256",
          "name": "amount",
          "type": "uint256"
        }
      ],
      "name": "unlockTokens",
      "outputs": [],
      "stateMutability": "nonpayable",
      "type": "function"
    }
  ],
  "bytecode": "0x60806040523480156200001157600080fd5b506040518060400160405280600c81526020016b2630b5b7b6b4902a37b5b2b760a11b815250604051806040016040528060038152602001624c414b60e81b815250816003908162000064919062000287565b50600462000073828262000287565b50505060016200008f6200008c6200010b60201b60201c565b90565b556200009d6000336200012f565b50620000ca7f9f2df0fed2c77648de5860a4cc508cd0818c85b8b8a1ab4ceeef8d981c8956a6336200012f565b50620000f77f3c11d16cbaffd01df69ce1c404f6340ee057498f5f00246190ea54220576a848336200012f565b506007805460ff1916600117905562000353565b7f9b779b17422d0df92223018b32b4d1fa46e071723d6817e2486d003becc55f0090565b60008281526005602090815260408083206001600160a01b038516845290915281205460ff16620001d85760008381526005602090815260408083206001600160a01b03861684529091529020805460ff191660011790556200018f3390565b6001600160a01b0316826001600160a01b0316847f2f8788117e7eff1d82e926ec794901d17c78024a50270940304540a733656f0d60405160405180910390a4506001620001dc565b5060005b92915050565b634e487b7160e01b600052604160045260246000fd5b600181811c908216806200020d57607f821691505b6020821081036200022e57634e487b7160e01b600052602260045260246000fd5b50919050565b601f8211156200028257600081815260208120601f850160051c810160208610156200025d5750805b601f850160051c820191505b818110156200027e5782815560010162000269565b5050505b505050565b81516001600160401b03811115620002a357620002a3620001e2565b620002bb81620002b48454620001f8565b8462000234565b602080601f831160018114620002f35760008415620002da5750858301515b600019600386901b1c1916600185901b1785556200027e565b600085815260208120601f198616915b82811015620003245788860151825594840194600190910190840162000303565b5085821015620003435787850151600019600388901b60f8161c191681555b5050505050600190811b01905550565b611d8180620003636000396000f3fe608060405234801561001057600080fd5b50600436106102745760003560e01c8063901786c911610151578063bb4d4436116100c3578063d547741f11610087578063d547741f1461059d578063dcab10d6146105b0578063dd62ed3e146105c3578063df37bb19146105fc578063df817a7114610623578063f36213671461063657600080fd5b8063bb4d44361461051a578063bef97c871461052d578063c40868931461053a578063c5ae086a14610563578063d53913931461057657600080fd5b80639dc29fac116101155780639dc29fac146104b6578063a217fddf146104c9578063a9059cbb146104d1578063ab466a8d146104e4578063ae20600b146104f4578063b1c255861461050757600080fd5b8063901786c91461046d57806391d148541461048057806395d89b4114610493578063997072f71461049b5780639d564d9a146104a357600080fd5b8063282c51f3116101ea57806336568abe116101ae57806336568abe146103f657806340c10f191461040957806360f8dd7e1461041c5780636a6b9a61146104245780636c24a76f1461044757806370a082311461045a57600080fd5b8063282c51f3146103895780632c4fbd2d146103b05780632f2ff15d146103c3578063313ce567146103d657806332cb6b0c146103e557600080fd5b80631ad330331161023c5780631ad33033146102e85780632144d0b9146102fd57806321a527991461032d57806323b872dd14610340578063248a9ca31461035357806326b9ce131461037657600080fd5b806301ffc9a71461027957806306fdde03146102a1578063095ea7b3146102b657806311aee380146102c957806318160ddd146102e0575b600080fd5b61028c610287366004611abf565b61065d565b60405190151581526020015b60405180910390f35b6102a9610694565b6040516102989190611ae9565b61028c6102c4366004611b53565b610726565b6102d2600b5481565b604051908152602001610298565b6002546102d2565b6102fb6102f6366004611b7d565b61073e565b005b6007546103159061010090046001600160a01b031681565b6040516001600160a01b039091168152602001610298565b6102fb61033b366004611b7d565b610847565b61028c61034e366004611b98565b6108fb565b6102d2610361366004611bd4565b60009081526005602052604090206001015490565b6102fb610384366004611bed565b61095b565b6102d27f3c11d16cbaffd01df69ce1c404f6340ee057498f5f00246190ea54220576a84881565b6102fb6103be366004611b7d565b6109b0565b6102fb6103d1366004611c0f565b610a57565b60405160128152602001610298565b6102d269d3c21bcecceda100000081565b6102fb610404366004611c0f565b610a82565b6102fb610417366004611b53565b610aba565b6102fb610ba4565b61028c610432366004611b7d565b600a6020526000908152604090205460ff1681565b6102d2610455366004611b7d565b610d11565b6102d2610468366004611b7d565b610d3d565b6102fb61047b366004611b7d565b610d58565b61028c61048e366004611c0f565b610efb565b6102a9610f26565b600b546102d2565b6102fb6104b1366004611b53565b610f35565b6102fb6104c4366004611b53565b611034565b6102d2600081565b61028c6104df366004611b53565b611100565b6102d268056bc75e2d6310000081565b600954610315906001600160a01b031681565b6102fb610515366004611b53565b611158565b6102d2610528366004611b7d565b61126b565b60075461028c9060ff1681565b6102d2610548366004611b7d565b6001600160a01b031660009081526006602052604090205490565b6102fb610571366004611b7d565b61129e565b6102d27f9f2df0fed2c77648de5860a4cc508cd0818c85b8b8a1ab4ceeef8d981c8956a681565b6102fb6105ab366004611c0f565b61148e565b6102fb6105be366004611b7d565b6114b3565b6102d26105d1366004611c3b565b6001600160a01b03918216600090815260016020908152604080832093909416825291909152205490565b6102d27f41a3fffbda0f1c9e28bd52ae72187b3406590146b6ca8f19961d2250566efd1681565b600854610315906001600160a01b031681565b6102d27faf9a8bb3cbd6b84fbccefa71ff73e26e798553c6914585a84886212a46a9027981565b60006001600160e01b03198216637965db0b60e01b148061068e57506301ffc9a760e01b6001600160e01b03198316145b92915050565b6060600380546106a390611c65565b80601f01602080910402602001604051908101604052809291908181526020018280546106cf90611c65565b801561071c5780601f106106f15761010080835404028352916020019161071c565b820191906000526020600020905b8154815290600101906020018083116106ff57829003601f168201915b5050505050905090565b60003361073481858561155a565b5060019392505050565b7f9f2df0fed2c77648de5860a4cc508cd0818c85b8b8a1ab4ceeef8d981c8956a661076881611567565b610770611571565b6001600160a01b0382166107975760405163aacf746b60e01b815260040160405180910390fd5b69d3c21bcecceda100000068056bc75e2d631000006107b560025490565b6107bf9190611cb5565b11156107de57604051632e1198f160e11b815260040160405180910390fd5b6107f18268056bc75e2d6310000061158d565b6040805168056bc75e2d6310000081524260208201526001600160a01b03841691600080516020611d0c83398151915291015b60405180910390a26108436001600080516020611d2c83398151915255565b5050565b600061085281611567565b6001600160a01b0382166108795760405163aacf746b60e01b815260040160405180910390fd5b60075461010090046001600160a01b0316156108a857604051630bcf2c7760e31b815260040160405180910390fd5b60078054610100600160a81b0319166101006001600160a01b038516908102919091179091556040517fe7ae49f883c825b05681b3e00e8be6fdea9ed2a8a45e4c6ecb9390fc44cce61590600090a25050565b6001600160a01b038316600090815260066020526040812054829061091f86610d3d565b6109299190611cc8565b101561094857604051632f992abf60e01b815260040160405180910390fd5b6109538484846115c3565b949350505050565b600061096681611567565b6007805460ff191683151590811790915560405190815233907f60a5428eca561d7fc92d217a2f3ca72fa49ce364b20e5cc90110bae2a41491189060200160405180910390a25050565b60006109bb81611567565b6001600160a01b0382166109e25760405163aacf746b60e01b815260040160405180910390fd5b6008546001600160a01b031615610a0c57604051630bcf2c7760e31b815260040160405180910390fd5b600880546001600160a01b0319166001600160a01b0384169081179091556040517f02ede59ede14fc8a452f4d9c602afef004380e4a5bf668b99ca6580878a80a5c90600090a25050565b600082815260056020526040902060010154610a7281611567565b610a7c83836115e7565b50505050565b6001600160a01b0381163314610aab5760405163334bd91960e11b815260040160405180910390fd5b610ab5828261167b565b505050565b7f9f2df0fed2c77648de5860a4cc508cd0818c85b8b8a1ab4ceeef8d981c8956a6610ae481611567565b610aec611571565b6001600160a01b038316610b135760405163aacf746b60e01b815260040160405180910390fd5b69d3c21bcecceda100000082610b2860025490565b610b329190611cb5565b1115610b5157604051632e1198f160e11b815260040160405180910390fd5b610b5b838361158d565b604080518381524260208201526001600160a01b03851691600080516020611d0c83398151915291015b60405180910390a2610ab56001600080516020611d2c83398151915255565b610bac611571565b33610bca5760405163aacf746b60e01b815260040160405180910390fd5b336000908152600a602052604090205460ff1615610c245760405162461bcd60e51b8152602060048201526012602482015271105b1c9958591e481c9959da5cdd195c995960721b60448201526064015b60405180910390fd5b336000908152600a60205260408120805460ff19166001179055600b805491610c4c83611cdb565b919050555069d3c21bcecceda100000068056bc75e2d63100000610c6f60025490565b610c799190611cb5565b11610cc357610c913368056bc75e2d6310000061158d565b6040805168056bc75e2d6310000081524260208201523391600080516020611d0c833981519152910160405180910390a25b60405142815233907f67e0244e28040fec15240cd4b6c04c776a2a0278caef23b59e8ada1df31f76899060200160405180910390a2610d0f6001600080516020611d2c83398151915255565b565b6001600160a01b038116600090815260066020526040812054610d3383610d3d565b61068e9190611cc8565b6001600160a01b031660009081526020819052604090205490565b7f41a3fffbda0f1c9e28bd52ae72187b3406590146b6ca8f19961d2250566efd16610d8281611567565b610d8a611571565b6001600160a01b038216610db15760405163aacf746b60e01b815260040160405180910390fd5b6001600160a01b0382166000908152600a602052604090205460ff1615610e0f5760405162461bcd60e51b8152602060048201526012602482015271105b1c9958591e481c9959da5cdd195c995960721b6044820152606401610c1b565b6001600160a01b0382166000908152600a60205260408120805460ff19166001179055600b805491610e4083611cdb565b919050555069d3c21bcecceda100000068056bc75e2d63100000610e6360025490565b610e6d9190611cb5565b11610ec057610e858268056bc75e2d6310000061158d565b6040805168056bc75e2d6310000081524260208201526001600160a01b03841691600080516020611d0c833981519152910160405180910390a25b816001600160a01b03167f67e0244e28040fec15240cd4b6c04c776a2a0278caef23b59e8ada1df31f76894260405161082491815260200190565b60009182526005602090815260408084206001600160a01b0393909316845291905290205460ff1690565b6060600480546106a390611c65565b7faf9a8bb3cbd6b84fbccefa71ff73e26e798553c6914585a84886212a46a90279610f5f81611567565b610f67611571565b6001600160a01b038316610f8e5760405163aacf746b60e01b815260040160405180910390fd5b6001600160a01b038316600090815260066020526040902054821115610fc75760405163713ca3c160e11b815260040160405180910390fd5b6001600160a01b03831660009081526006602052604081208054849290610fef908490611cc8565b9091555050604080518381524260208201526001600160a01b038516917f89882ad382a3742d4db24e4dabc5000c5852aed762904db28442e4e1630a1d079101610b85565b7f3c11d16cbaffd01df69ce1c404f6340ee057498f5f00246190ea54220576a84861105e81611567565b611066611571565b6001600160a01b03831661108d5760405163aacf746b60e01b815260040160405180910390fd5b8161109784610d3d565b10156110b657604051632f100e0360e11b815260040160405180910390fd5b6110c083836116e8565b604080518381524260208201526001600160a01b038516917fccbea4088a3b7ae9ca2d15fab9a9742a4075b4d7247768a1eecea917565aba009101610b85565b33600081815260066020526040812054909183919061111e90610d3d565b6111289190611cc8565b101561114757604051632f992abf60e01b815260040160405180910390fd5b611151838361171e565b9392505050565b7faf9a8bb3cbd6b84fbccefa71ff73e26e798553c6914585a84886212a46a9027961118281611567565b61118a611571565b6001600160a01b0383166111b15760405163aacf746b60e01b815260040160405180910390fd5b6001600160a01b03831660009081526006602052604090205482906111d585610d3d565b6111df9190611cc8565b10156111fe57604051632f992abf60e01b815260040160405180910390fd5b6001600160a01b03831660009081526006602052604081208054849290611226908490611cb5565b9091555050604080518381524260208201526001600160a01b038516917fd741e738a23fd18a03a26522320d9fc6cac1fed483e215ea9150fbc2fc43385d9101610b85565b6001600160a01b0381166000908152600a602052604081205460ff16611292576000611295565b60015b60ff1692915050565b6112a6611571565b6001600160a01b0381166112cd5760405163aacf746b60e01b815260040160405180910390fd5b6001600160a01b0381166000908152600a602052604090205460ff166113245760405162461bcd60e51b815260206004820152600c60248201526b2737ba10309036b2b6b132b960a11b6044820152606401610c1b565b61134e7f41a3fffbda0f1c9e28bd52ae72187b3406590146b6ca8f19961d2250566efd1633610efb565b8061135f575061135f600033610efb565b61139c5760405162461bcd60e51b815260206004820152600e60248201526d139bdd08185d5d1a1bdc9a5e995960921b6044820152606401610c1b565b6001600160a01b0381166000908152600a60205260408120805460ff19169055600b8054916113ca83611cf4565b919050555060006113da82610d3d565b90508015611430576113ec82826116e8565b604080518281524260208201526001600160a01b038416917fccbea4088a3b7ae9ca2d15fab9a9742a4075b4d7247768a1eecea917565aba00910160405180910390a25b816001600160a01b03167fbf62ed977dbe8fac296246c481da9d7398f13c289ed4f178507b32d16a25f3af4260405161146b91815260200190565b60405180910390a25061148b6001600080516020611d2c83398151915255565b50565b6000828152600560205260409020600101546114a981611567565b610a7c838361167b565b60006114be81611567565b6001600160a01b0382166114e55760405163aacf746b60e01b815260040160405180910390fd5b6009546001600160a01b03161561150f57604051630bcf2c7760e31b815260040160405180910390fd5b600980546001600160a01b0319166001600160a01b0384169081179091556040517ff54cdf149ced77f64aefa26253e0703062cc3f3be92a9d759576f9741725b2a190600090a25050565b610ab5838383600161172c565b61148b8133611801565b61157961183a565b6002600080516020611d2c83398151915255565b6001600160a01b0382166115b75760405163ec442f0560e01b815260006004820152602401610c1b565b6108436000838361186a565b6000336115d18582856118bd565b6115dc858585611936565b506001949350505050565b60006115f38383610efb565b6116735760008381526005602090815260408083206001600160a01b03861684529091529020805460ff1916600117905561162b3390565b6001600160a01b0316826001600160a01b0316847f2f8788117e7eff1d82e926ec794901d17c78024a50270940304540a733656f0d60405160405180910390a450600161068e565b50600061068e565b60006116878383610efb565b156116735760008381526005602090815260408083206001600160a01b0386168085529252808320805460ff1916905551339286917ff6391f5c32d9c69d2a47ea670b442974b53935d1edc7fd64eb21e047a839171b9190a450600161068e565b6001600160a01b03821661171257604051634b637e8f60e11b815260006004820152602401610c1b565b6108438260008361186a565b600033610734818585611936565b6001600160a01b0384166117565760405163e602df0560e01b815260006004820152602401610c1b565b6001600160a01b03831661178057604051634a1406b160e11b815260006004820152602401610c1b565b6001600160a01b0380851660009081526001602090815260408083209387168352929052208290558015610a7c57826001600160a01b0316846001600160a01b03167f8c5be1e5ebec7d5bd14f71427d1e84f3dd0314c0f7b2291e5b200ac8c7c3b925846040516117f391815260200190565b60405180910390a350505050565b61180b8282610efb565b6108435760405163e2517d3f60e01b81526001600160a01b038216600482015260248101839052604401610c1b565b600080516020611d2c83398151915254600203610d0f57604051633ee5aeb560e01b815260040160405180910390fd5b611875838383611995565b6001600160a01b0383161580159061189557506001600160a01b03821615155b15610ab55760075460ff16610ab557604051630202da8560e11b815260040160405180910390fd5b6001600160a01b03838116600090815260016020908152604080832093861683529290522054600019811015610a7c578181101561192757604051637dc7a0d960e11b81526001600160a01b03841660048201526024810182905260448101839052606401610c1b565b610a7c8484848403600061172c565b6001600160a01b03831661196057604051634b637e8f60e11b815260006004820152602401610c1b565b6001600160a01b03821661198a5760405163ec442f0560e01b815260006004820152602401610c1b565b610ab583838361186a565b6001600160a01b0383166119c05780600260008282546119b59190611cb5565b90915550611a329050565b6001600160a01b03831660009081526020819052604090205481811015611a135760405163391434e360e21b81526001600160a01b03851660048201526024810182905260448101839052606401610c1b565b6001600160a01b03841660009081526020819052604090209082900390555b6001600160a01b038216611a4e57600280548290039055611a6d565b6001600160a01b03821660009081526020819052604090208054820190555b816001600160a01b0316836001600160a01b03167fddf252ad1be2c89b69c2b068fc378daa952ba7f163c4a11628f55a4df523b3ef83604051611ab291815260200190565b60405180910390a3505050565b600060208284031215611ad157600080fd5b81356001600160e01b03198116811461115157600080fd5b600060208083528351808285015260005b81811015611b1657858101830151858201604001528201611afa565b506000604082860101526040601f19601f8301168501019250505092915050565b80356001600160a01b0381168114611b4e57600080fd5b919050565b60008060408385031215611b6657600080fd5b611b6f83611b37565b946020939093013593505050565b600060208284031215611b8f57600080fd5b61115182611b37565b600080600060608486031215611bad57600080fd5b611bb684611b37565b9250611bc460208501611b37565b9150604084013590509250925092565b600060208284031215611be657600080fd5b5035919050565b600060208284031215611bff57600080fd5b8135801515811461115157600080fd5b60008060408385031215611c2257600080fd5b82359150611c3260208401611b37565b90509250929050565b60008060408385031215611c4e57600080fd5b611c5783611b37565b9150611c3260208401611b37565b600181811c90821680611c7957607f821691505b602082108103611c9957634e487b7160e01b600052602260045260246000fd5b50919050565b634e487b7160e01b600052601160045260246000fd5b8082018082111561068e5761068e611c9f565b8181038181111561068e5761068e611c9f565b600060018201611ced57611ced611c9f565b5060010190565b600081611d0357611d03611c9f565b50600019019056fe2e8ac5177a616f2aec08c3048f5021e4e9743ece034e8d83ba5caf76688bb4759b779b17422d0df92223018b32b4d1fa46e071723d6817e2486d003becc55f00a26469706673582212207127d58a56d2d7ed0acf863aa19f66112e8097aff7b728d5322ab430bdd822e864736f6c63430008140033",
  "linkReferences": {},
  "deployedLinkReferences": {}
}