{
  "_format": "hh-sol-artifact-1",
  "contractName": "LakomiToken",
  "sourceName": "contracts/LakomiToken.sol",
  "abi": [
    {
      "inputs": [],
      "stateMutability": "nonpayable",
      "type": "constructor"
    },
    {
      "inputs": [],
      "name": "AccessControlBadConfirmation",
      "type": "error"
    },
    {
      "inputs": [
        {
          "internalType": "address",
          "name": "account",
          "type": "address"
        },
        {
          "internalType": "bytes32",
          "name": "neededRole",
          "type": "bytes32"
        }
      ],
      "name": "AccessControlUnauthorizedAccount",
      "type": "error"
    },
    {
      "inputs": [
        {
          "internalType": "address",
          "name": "spender",
          "type": "address"
        },
        {
          "internalType": "uint256",
          "name": "allowance",
          "type": "uint256"
        },
        {
          "internalType": "uint256",
          "name": "needed",
          "type": "uint256"
        }
      ],
      "name": "ERC20InsufficientAllowance",
      "type": "error"
    },
    {
      "inputs": [
        {
          "internalType": "address",
          "name": "sender",
          "type": "address"
        },
        {
          "internalType": "uint256",
          "name": "balance",
          "type": "uint256"
        },
        {
          "internalType": "uint256",
          "name": "needed",
          "type": "uint256"
        }
      ],
      "name": "ERC20InsufficientBalance",
      "type": "error"
    },
    {
      "inputs": [
        {
          "internalType": "address",
          "name": "approver",
          "type": "address"
        }
      ],
      "name": "ERC20InvalidApprover",
      "type": "error"
    },
    {
      "inputs": [
        {
          "internalType": "address",
          "name": "receiver",
          "type": "address"
        }
      ],
      "name": "ERC20InvalidReceiver",
      "type": "error"
    },
    {
      "inputs": [
        {
          "internalType": "address",
          "name": "sender",
          "type": "address"
        }
      ],
      "name": "ERC20InvalidSender",
      "type": "error"
    },
    {
      "inputs": [
        {
          "internalType": "address",
          "name": "spender",
          "type": "address"
        }
      ],
      "name": "ERC20InvalidSpender",
      "type": "error"
    },
    {
      "inputs": [],
      "name": "LakomiToken__AlreadySet",
      "type": "error"
    },
    {
      "inputs": [],
      "name": "LakomiToken__ExceedsMaxSupply",
      "type": "error"
    },
    {
      "inputs": [],
      "name": "LakomiToken__InsufficientBalance",
      "type": "error"
    },
    {
      "inputs": [],
      "name": "LakomiToken__InsufficientUnlockedTokens",
      "type": "error"
    },
    {
      "inputs": [],
      "name": "LakomiToken__NothingToUnlock",
      "type": "error"
    },
    {
      "inputs": [],
      "name": "LakomiToken__TransfersDisabled",
      "type": "error"
    },
    {
      "inputs": [],
      "name": "LakomiToken__ZeroAddress",
      "type": "error"
    },
    {
      "inputs": [],
      "name": "ReentrancyGuardReentrantCall",
      "type": "error"
    },
    {
      "anonymous": false,
      "inputs": [
        {
          "indexed": true,
          "internalType": "address",
          "name": "owner",
          "type": "address"
        },
        {
          "indexed": true,
          "internalType": "address",
          "name": "spender",
          "type": "address"
        },
        {
          "indexed": false,
          "internalType": "uint256",
          "name": "value",
          "type": "uint256"
        }
      ],
      "name": "Approval",
      "type": "event"
    },
    {
      "anonymous": false,
      "inputs": [
        {
          "indexed": true,
          "internalType": "address",
          "name": "govern",
          "type": "address"
        }
      ],
      "name": "GovernSet",
      "type": "event"
    },
    {
      "anonymous": false,
      "inputs": [
        {
          "indexed": true,
          "internalType": "address",
          "name": "loans",
          "type": "address"
        }
      ],
      "name": "LoansSet",
      "type": "event"
    },
    {
      "anonymous": false,
      "inputs": [
        {
          "indexed": true,
          "internalType": "address",
          "name": "member",
          "type": "address"
        },
        {
          "indexed": false,
          "internalType": "uint256",
          "name": "timestamp",
          "type": "uint256"
        }
      ],
      "name": "MemberRegistered",
      "type": "event"
    },
    {
      "anonymous": false,
      "inputs": [
        {
          "indexed": true,
          "internalType": "address",
          "name": "member",
          "type": "address"
        },
        {
          "indexed": false,
          "internalType": "uint256",
          "name": "timestamp",
          "type": "uint256"
        }
      ],
      "name": "MembershipRevoked",
      "type": "event"
    },
    {
      "anonymous": false,
      "inputs": [
        {
          "indexed": true,
          "internalType": "bytes32",
          "name": "role",
          "type": "bytes32"
        },
        {
          "indexed": true,
          "internalType": "bytes32",
          "name": "previousAdminRole",
          "type": "bytes32"
        },
        {
          "indexed": true,
          "internalType": "bytes32",
          "name": "newAdminRole",
          "type": "bytes32"
        }
      ],
      "name": "RoleAdminChanged",
      "type": "event"
    },
    {
      "anonymous": false,
      "inputs": [
        {
          "indexed": true,
          "internalType": "bytes32",
          "name": "role",
          "type": "bytes32"
        },
        {
          "indexed": true,
          "internalType": "address",
          "name": "account",
          "type": "address"
        },
        {
          "indexed": true,
          "internalType": "address",
          "name": "sender",
          "type": "address"
        }
      ],
      "name": "RoleGranted",
      "type": "event"
    },
    {
      "anonymous": false,
      "inputs": [
        {
          "indexed": true,
          "internalType": "bytes32",
          "name": "role",
          "type": "bytes32"
        },
        {
          "indexed": true,
          "internalType": "address",
          "name": "account",
          "type": "address"
        },
        {
          "indexed": true,
          "internalType": "address",
          "name": "sender",
          "type": "address"
        }
      ],
      "name": "RoleRevoked",
      "type": "event"
    },
    {
      "anonymous": false,
      "inputs": [
        {
          "indexed": true,
          "internalType": "address",
          "name": "from",
          "type": "address"
        },
        {
          "indexed": false,
          "internalType": "uint256",
          "name": "amount",
          "type": "uint256"
        },
        {
          "indexed": false,
          "internalType": "uint256",
          "name": "timestamp",
          "type": "uint256"
        }
      ],
      "name": "TokensBurned",
      "type": "event"
    },
    {
      "anonymous": false,
      "inputs": [
        {
          "indexed": true,
          "internalType": "address",
          "name": "account",
          "type": "address"
        },
        {
          "indexed": false,
          "internalType": "uint256",
          "name": "amount",
          "type": "uint256"
        },
        {
          "indexed": false,
          "internalType": "uint256",
          "name": "timestamp",
          "type": "uint256"
        }
      ],
      "name": "TokensLocked",
      "type": "event"
    },
    {
      "anonymous": false,
      "inputs": [
        {
          "indexed": true,
          "internalType": "address",
          "name": "to",
          "type": "address"
        },
        {
          "indexed": false,
          "internalType": "uint256",
          "name": "amount",
          "type": "uint256"
        },
        {
          "indexed": false,
          "internalType": "uint256",
          "name": "timestamp",
          "type": "uint256"
        }
      ],
      "name": "TokensMinted",
      "type": "event"
    },
    {
      "anonymous": false,
      "inputs": [
        {
          "indexed": true,
          "internalType": "address",
          "name": "account",
          "type": "address"
        },
        {
          "indexed": false,
          "internalType": "uint256",
          "name": "amount",
          "type": "uint256"
        },
        {
          "indexed": false,
          "internalType": "uint256",
          "name": "timestamp",
          "type": "uint256"
        }
      ],
      "name": "TokensUnlocked",
      "type": "event"
    },
    {
      "anonymous": false,
      "inputs": [
        {
          "indexed": true,
          "internalType": "address",
          "name": "from",
          "type": "address"
        },
        {
          "indexed": true,
          "internalType": "address",
          "name": "to",
          "type": "address"
        },
        {
          "indexed": false,
          "internalType": "uint256",
          "name": "value",
          "type": "uint256"
        }
      ],
      "name": "Transfer",
      "type": "event"
    },
    {
      "anonymous": false,
      "inputs": [
        {
          "indexed": false,
          "internalType": "bool",
          "name": "enabled",
          "type": "bool"
        },
        {
          "indexed": true,
          "internalType": "address",
          "name": "by",
          "type": "address"
        }
      ],
      "name": "TransfersToggled",
      "type": "event"
    },
    {
      "anonymous": false,
      "inputs": [
        {
          "indexed": true,
          "internalType": "address",
          "name": "vault",
          "type": "address"
        }
      ],
      "name": "VaultSet",
      "type": "event"
    },
    {
      "inputs": [],
      "name": "BURNER_ROLE",
      "outputs": [
        {
          "internalType": "bytes32",
          "name": "",
          "type": "bytes32"
        }
      ],
      "stateMutability": "view",
      "type": "function"
    },
    {
      "inputs": [],
      "name": "DEFAULT_ADMIN_ROLE",
      "outputs": [
        {
          "internalType": "bytes32",
          "name": "",
          "type": "bytes32"
        }
      ],
      "stateMutability": "view",
      "type": "function"
    },
    {
      "inputs": [],
      "name": "DEFAULT_MINT_AMOUNT",
      "outputs": [
        {
          "internalType": "uint256",
          "name": "",
          "type": "uint256"
        }
      ],
      "stateMutability": "view",
      "type": "function"
    },
    {
      "inputs": [],
      "name": "LOCKER_ROLE",
      "outputs": [
        {
          "internalType": "bytes32",
          "name": "",
          "type": "bytes32"
        }
      ],
      "stateMutability": "view",
      "type": "function"
    },
    {
      "inputs": [],
      "name": "MAX_SUPPLY",
      "outputs": [
        {
          "internalType": "uint256",
          "name": "",
          "type": "uint256"
        }
      ],
      "stateMutability": "view",
      "type": "function"
    },
    {
      "inputs": [],
      "name": "MEMBERSHIP_ROLE",
      "outputs": [
        {
          "internalType": "bytes32",
          "name": "",
          "type": "bytes32"
        }
      ],
      "stateMutability": "view",
      "type": "function"
    },
    {
      "inputs": [],
      "name": "MINTER_ROLE",
      "outputs": [
        {
          "internalType": "bytes32",
          "name": "",
          "type": "bytes32"
        }
      ],
      "stateMutability": "view",
      "type": "function"
    },
    {
      "inputs": [
        {
          "internalType": "address",
          "name": "owner",
          "type": "address"
        },
        {
          "internalType": "address",
          "name": "spender",
          "type": "address"
        }
      ],
      "name": "allowance",
      "outputs": [
        {
          "internalType": "uint256",
          "name": "",
          "type": "uint256"
        }
      ],
      "stateMutability": "view",
      "type": "function"
    },
    {
      "inputs": [
        {
          "internalType": "address",
          "name": "spender",
          "type": "address"
        },
        {
          "internalType": "uint256",
          "name": "value",
          "type": "uint256"
        }
      ],
      "name": "approve",
      "outputs": [
        {
          "internalType": "bool",
          "name": "",
          "type": "bool"
        }
      ],
      "stateMutability": "nonpayable",
      "type": "function"
    },
    {
      "inputs": [
        {
          "internalType": "address",
          "name": "account",
          "type": "address"
        }
      ],
      "name": "balanceOf",
      "outputs": [
        {
          "internalType": "uint256",
          "name": "",
          "type": "uint256"
        }
      ],
      "stateMutability": "view",
      "type": "function"
    },
    {
      "inputs": [
        {
          "internalType": "address",
          "name": "from",
          "type": "address"
        },
        {
          "internalType": "uint256",
          "name": "amount",
          "type": "uint256"
        }
      ],
      "name": "burn",
      "outputs": [],
      "stateMutability": "nonpayable",
      "type": "function"
    },
    {
      "inputs": [],
      "name": "decimals",
      "outputs": [
        {
          "internalType": "uint8",
          "name": "",
          "type": "uint8"
        }
      ],
      "stateMutability": "view",
      "type": "function"
    },
    {
      "inputs": [
        {
          "internalType": "address",
          "name": "account",
          "type": "address"
        }
      ],
      "name": "getAvailableBalance",
      "outputs": [
        {
          "internalType": "uint256",
          "name": "",
          "type": "uint256"
        }
      ],
      "stateMutability": "view",
      "type": "function"
    },
    {
      "inputs": [
        {
          "internalType": "address",
          "name": "account",
          "type": "address"
        }
      ],
      "name": "getLockedBalance",
      "outputs": [
        {
          "internalType": "uint256",
          "name": "",
          "type": "uint256"
        }
      ],
      "stateMutability": "view",
      "type": "function"
    },
    {
      "inputs": [],
      "name": "getMemberCount",
      "outputs": [
        {
          "internalType": "uint256",
          "name": "",
          "type": "uint256"
        }
      ],
      "stateMutability": "view",
      "type": "function"
    },
    {
      "inputs": [
        {
          "internalType": "bytes32",
          "name": "role",
          "type": "bytes32"
        }
      ],
      "name": "getRoleAdmin",
      "outputs": [
        {
          "internalType": "bytes32",
          "name": "",
          "type": "bytes32"
        }
      ],
      "stateMutability": "view",
      "type": "function"
    },
    {
      "inputs": [
        {
          "internalType": "address",
          "name": "account",
          "type": "address"
        }
      ],
      "name": "getVotingPower",
      "outputs": [
        {
          "internalType": "uint256",
          "name": "",
          "type": "uint256"
        }
      ],
      "stateMutability": "view",
      "type": "function"
    },
    {
      "inputs": [
        {
          "internalType": "bytes32",
          "name": "role",
          "type": "bytes32"
        },
        {
          "internalType": "address",
          "name": "account",
          "type": "address"
        }
      ],
      "name": "grantRole",
      "outputs": [],
      "stateMutability": "nonpayable",
      "type": "function"
    },
    {
      "inputs": [
        {
          "internalType": "bytes32",
          "name": "role",
          "type": "bytes32"
        },
        {
          "internalType": "address",
          "name": "account",
          "type": "address"
        }
      ],
      "name": "hasRole",
      "outputs": [
        {
          "internalType": "bool",
          "name": "",
          "type": "bool"
        }
      ],
      "stateMutability": "view",
      "type": "function"
    },
    {
      "inputs": [
        {
          "internalType": "address",
          "name": "",
          "type": "address"
        }
      ],
      "name": "isRegisteredMember",
      "outputs": [
        {
          "internalType": "bool",
          "name": "",
          "type": "bool"
        }
      ],
      "stateMutability": "view",
      "type": "function"
    },
    {
      "inputs": [],
      "name": "lakomiGovern",
      "outputs": [
        {
          "internalType": "address",
          "name": "",
          "type": "address"
        }
      ],
      "stateMutability": "view",
      "type": "function"
    },
    {
      "inputs": [],
      "name": "lakomiLoans",
      "outputs": [
        {
          "internalType": "address",
          "name": "",
          "type": "address"
        }
      ],
      "stateMutability": "view",
      "type": "function"
    },
    {
      "inputs": [],
      "name": "lakomiVault",
      "outputs": [
        {
          "internalType": "address",
          "name": "",
          "type": "address"
        }
      ],
      "stateMutability": "view",
      "type": "function"
    },
    {
      "inputs": [
        {
          "internalType": "address",
          "name": "account",
          "type": "address"
        },
        {
          "internalType": "uint256",
          "name": "amount",
          "type": "uint256"
        }
      ],
      "name": "lockTokens",
      "outputs": [],
      "stateMutability": "nonpayable",
      "type": "function"
    },
    {
      "inputs": [],
      "name": "memberCount",
      "outputs": [
        {
          "internalType": "uint256",
          "name": "",
          "type": "uint256"
        }
      ],
      "stateMutability": "view",
      "type": "function"
    },
    {
      "inputs": [
        {
          "internalType": "address",
          "name": "to",
          "type": "address"
        },
        {
          "internalType": "uint256",
          "name": "amount",
          "type": "uint256"
        }
      ],
      "name": "mint",
      "outputs": [],
      "stateMutability": "nonpayable",
      "type": "function"
    },
    {
      "inputs": [
        {
          "internalType": "address",
          "name": "to",
          "type": "address"
        }
      ],
      "name": "mintDefault",
      "outputs": [],
      "stateMutability": "nonpayable",
      "type": "function"
    },
    {
      "inputs": [],
      "name": "name",
      "outputs": [
        {
          "internalType": "string",
          "name": "",
          "type": "string"
        }
      ],
      "stateMutability": "view",
      "type": "function"
    },
    {
      "inputs": [],
      "name": "registerMember",
      "outputs": [],
      "stateMutability": "nonpayable",
      "type": "function"
    },
    {
      "inputs": [
        {
          "internalType": "address",
          "name": "member",
          "type": "address"
        }
      ],
      "name": "registerMemberAdmin",
      "outputs": [],
      "stateMutability": "nonpayable",
      "type": "function"
    },
    {
      "inputs": [
        {
          "internalType": "bytes32",
          "name": "role",
          "type": "bytes32"
        },
        {
          "internalType": "address",
          "name": "callerConfirmation",
          "type": "address"
        }
      ],
      "name": "renounceRole",
      "outputs": [],
      "stateMutability": "nonpayable",
      "type": "function"
    },
    {
      "inputs": [
        {
          "internalType": "address",
          "name": "member",
          "type": "address"
        }
      ],
      "name": "revokeMembership",
      "outputs": [],
      "stateMutability": "nonpayable",
      "type": "function"
    },
    {
      "inputs": [
        {
          "internalType": "bytes32",
          "name": "role",
          "type": "bytes32"
        },
        {
          "internalType": "address",
          "name": "account",
          "type": "address"
        }
      ],
      "name": "revokeRole",
      "outputs": [],
      "stateMutability": "nonpayable",
      "type": "function"
    },
    {
      "inputs": [
        {
          "internalType": "address",
          "name": "govern",
          "type": "address"
        }
      ],
      "name": "setLakomiGovern",
      "outputs": [],
      "stateMutability": "nonpayable",
      "type": "function"
    },
    {
      "inputs": [
        {
          "internalType": "address",
          "name": "loans",
          "type": "address"
        }
      ],
      "name": "setLakomiLoans",
      "outputs": [],
      "stateMutability": "nonpayable",
      "type": "function"
    },
    {
      "inputs": [
        {
          "internalType": "address",
          "name": "vault",
          "type": "address"
        }
      ],
      "name": "setLakomiVault",
      "outputs": [],
      "stateMutability": "nonpayable",
      "type": "function"
    },
    {
      "inputs": [
        {
          "internalType": "bool",
          "name": "enabled",
          "type": "bool"
        }
      ],
      "name": "setTransfersEnabled",
      "outputs": [],
      "stateMutability": "nonpayable",
      "type": "function"
    },
    {
      "inputs": [
        {
          "internalType": "bytes4",
          "name": "interfaceId",
          "type": "bytes4"
        }
      ],
      "name": "supportsInterface",
      "outputs": [
        {
          "internalType": "bool",
          "name": "",
          "type": "bool"
        }
      ],
      "stateMutability": "view",
      "type": "function"
    },
    {
      "inputs": [],
      "name": "symbol",
      "outputs": [
        {
          "internalType": "string",
          "name": "",
          "type": "string"
        }
      ],
      "stateMutability": "view",
      "type": "function"
    },
    {
      "inputs": [],
      "name": "totalSupply",
      "outputs": [
        {
          "internalType": "uint256",
          "name": "",
          "type": "uint256"
        }
      ],
      "stateMutability": "view",
      "type": "function"
    },
    {
      "inputs": [
        {
          "internalType": "address",
          "name": "to",
          "type": "address"
        },
        {
          "internalType": "uint256",
          "name": "value",
          "type": "uint256"
        }
      ],
      "name": "transfer",
      "outputs": [
        {
          "internalType": "bool",
          "name": "",
          "type": "bool"
        }
      ],
      "stateMutability": "nonpayable",
      "type": "function"
    },
    {
      "inputs": [
        {
          "internalType": "address",
          "name": "from",
          "type": "address"
        },
        {
          "internalType": "address",
          "name": "to",
          "type": "address"
        },
        {
          "internalType": "uint256",
          "name": "value",
          "type": "uint256"
        }
      ],
      "name": "transferFrom",
      "outputs": [
        {
          "internalType": "bool",
          "name": "",
          "type": "bool"
        }
      ],
      "stateMutability": "nonpayable",
      "type": "function"
    },
    {
      "inputs": [],
      "name": "transfersEnabled",
      "outputs": [
        {
          "internalType": "bool",
          "name": "",
          "type": "bool"
        }
      ],
      "stateMutability": "view",
      "type": "function"
    },
    {
      "inputs": [
        {
          "internalType": "address",
          "name": "account",
          "type": "address"
        },
        {
          "internalType": "uint256",
          "name": "amount",
          "type": "uint256"
        }
      ],
      "name": "unlockTokens",
      "outputs": [],
      "stateMutability": "nonpayable",
      "type": "function"
    }
  ],
  "bytecode": "0x60803462000375576001600160401b03906040908082018381118282101762000275578252600c81526020926b2630b5b7b6b4902a37b5b2b760a11b8483015282519083820182811082821117620002755784526003808352624c414b60e81b86840152835182811162000275578154906001958683811c931680156200036a575b8984101462000354578190601f93848111620002fe575b50899084831160011462000297576000926200028b575b505060001982851b1c191690861b1782555b835192831162000275576004938454978689811c991680156200026a575b818a101462000255578883869798999a11620001f9575b50809285116001146200018b57506000936200017f575b505082851b92600019911b1c19161790555b807f9b779b17422d0df92223018b32b4d1fa46e071723d6817e2486d003becc55f00556200014d336200037a565b506200015933620003fb565b5062000165336200049e565b5060ff19600754161760075551611b8f90816200053d8239f35b0151915038806200010d565b929190879550601f1985168760005284600020946000905b828210620001df5750508511620001c4575b50505050811b0190556200011f565b01519060f884600019921b161c1916905538808080620001b5565b8484015187558a98909601959384019390810190620001a3565b90919293945086600052816000208480880160051c8201928489106200024b575b918a91899897969594930160051c01915b8281106200023b575050620000f6565b600081558897508a91016200022b565b925081926200021a565b602286634e487b7160e01b6000525260246000fd5b98607f1698620000df565b634e487b7160e01b600052604160045260246000fd5b015190503880620000af565b90889350601f19831691866000528b6000209260005b8d828210620002e75750508411620002ce575b505050811b018255620000c1565b015160001983871b60f8161c19169055388080620002c0565b8385015186558c97909501949384019301620002ad565b90915084600052896000208480850160051c8201928c86106200034a575b918a91869594930160051c01915b8281106200033a57505062000098565b600081558594508a91016200032a565b925081926200031c565b634e487b7160e01b600052602260045260246000fd5b92607f169262000081565b600080fd5b6001600160a01b031660008181527f05b8ccbb9d4d8fb16ea74ce3c29a41f1b461fbdaff4714a0d9a8eb05499746bc602052604081205490919060ff16620003f75781805260056020526040822081835260205260408220600160ff198254161790553391600080516020620020cc8339815191528180a4600190565b5090565b6001600160a01b031660008181527f15a28d26fa1bf736cf7edc9922607171ccb09c3c73b808e7772a3013e068a52260205260408120549091907f9f2df0fed2c77648de5860a4cc508cd0818c85b8b8a1ab4ceeef8d981c8956a69060ff16620004995780835260056020526040832082845260205260408320600160ff19825416179055600080516020620020cc833981519152339380a4600190565b505090565b6001600160a01b031660008181527f847f481f687befb06ed3511f1a8dcef57e83007c0147ae5047583d705617093760205260408120549091907f3c11d16cbaffd01df69ce1c404f6340ee057498f5f00246190ea54220576a8489060ff16620004995780835260056020526040832082845260205260408320600160ff19825416179055600080516020620020cc833981519152339380a460019056fe608060408181526004918236101561001657600080fd5b600092833560e01c91826301ffc9a7146115855750816306fdde03146114ab578163095ea7b31461140157816311aee380146109da57816318160ddd146113e25781631ad330331461133e5781632144d0b91461131157816321a527991461128257816323b872dd1461115d578163248a9ca31461113257816326b9ce13146110cf578163282c51f3146110945781632c4fbd2d1461101c5781632f2ff15d14610ff2578163313ce56714610fd657816332cb6b0c14610fb157816336568abe14610f6b57816340c10f1914610e9757816360f8dd7e14610d825781636a6b9a6114610d445781636c24a76f14610cfb57816370a0823114610cc4578163901786c914610b5f57816391d1485414610b1857816395d89b41146109f9578163997072f7146109da5781639d564d9a146109415781639dc29fac14610830578163a217fddf14610815578163a9059cbb146107bb578163ab466a8d14610797578163ae20600b1461076e578163b1c2558614610693578163bb4d443614610643578163bef97c871461061f578163c4086893146105e7578163c5ae086a14610401578163d5391393146103c6578163d547741f14610386578163dcab10d6146102f057508063dd62ed3e146102a8578063df37bb191461026e578063df817a71146102465763f36213671461020957600080fd5b34610242578160031936011261024257602090517faf9a8bb3cbd6b84fbccefa71ff73e26e798553c6914585a84886212a46a902798152f35b5080fd5b503461024257816003193601126102425760085490516001600160a01b039091168152602090f35b5034610242578160031936011261024257602090517f41a3fffbda0f1c9e28bd52ae72187b3406590146b6ca8f19961d2250566efd168152f35b5034610242578060031936011261024257806020926102c5611621565b6102cd61163c565b6001600160a01b0391821683526001865283832091168252845220549051908152f35b9050346103825760203660031901126103825761030b611621565b906103146116cc565b6001600160a01b03918216928315610375576009549283166103685750506001600160a01b03191681176009557ff54cdf149ced77f64aefa26253e0703062cc3f3be92a9d759576f9741725b2a18280a280f35b51630bcf2c7760e31b8152fd5b5163aacf746b60e01b8152fd5b8280fd5b919050346103825780600319360112610382576103c291356103bd60016103ab61163c565b93838752600560205286200154611761565b611807565b5080f35b505034610242578160031936011261024257602090517f9f2df0fed2c77648de5860a4cc508cd0818c85b8b8a1ab4ceeef8d981c8956a68152f35b838334610242576020806003193601126103825761041d611621565b91610426611911565b6001600160a01b0383169283156105d757838552600a835260ff8286205416156105a5577f41a3fffbda0f1c9e28bd52ae72187b3406590146b6ca8f19961d2250566efd16855260058352818520338652835260ff82862054168015610589575b1561055557838552600a8352818520805460ff19169055600b548015610542577fbf62ed977dbe8fac296246c481da9d7398f13c289ed4f178507b32d16a25f3af939291859160001901600b55818752868452828088205480610503575b5050505051428152a26001600080516020611b3a8339815191525580f35b61052e817fccbea4088a3b7ae9ca2d15fab9a9742a4075b4d7247768a1eecea917565aba0094611941565b81519081524286820152a2838682816104e5565b634e487b7160e01b865260118752602486fd5b815162461bcd60e51b8152808701849052600e60248201526d139bdd08185d5d1a1bdc9a5e995960921b6044820152606490fd5b5084805260058352818520338652835260ff8286205416610487565b815162461bcd60e51b8152808701849052600c60248201526b2737ba10309036b2b6b132b960a11b6044820152606490fd5b815163aacf746b60e01b81528690fd5b5050346102425760203660031901126102425760209181906001600160a01b0361060f611621565b1681526006845220549051908152f35b50503461024257816003193601126102425760209060ff6007541690519015158152f35b505034610242576020366003190112610242576020916001600160a01b03610669611621565b168152600a83528181205460ff161561068a575060ff6001915b5191168152f35b60ff9091610683565b919050346103825780600319360112610382576106ae611621565b602435906106ba611706565b6106c2611911565b6001600160a01b03169283156107605783855284602052816106f084872054600660205285882054906119e7565b106107525750907fd741e738a23fd18a03a26522320d9fc6cac1fed483e215ea9150fbc2fc43385d91838552600660205281852061072f82825461187e565b90558151908152426020820152a26001600080516020611b3a8339815191525580f35b8251632f992abf60e01b8152fd5b825163aacf746b60e01b8152fd5b50503461024257816003193601126102425760095490516001600160a01b039091168152602090f35b5050346102425781600319360112610242576020905168056bc75e2d631000008152f35b905034610382578160031936011261038257916107fb926107da611621565b916024359485913381528060205285808220549160066020522054906119e7565b10610752575060209261080e9133611a44565b5160018152f35b50503461024257816003193601126102425751908152602090f35b9190503461038257806003193601126103825761084b611621565b602435907f3c11d16cbaffd01df69ce1c404f6340ee057498f5f00246190ea54220576a848808652600560205283862033875260205260ff8487205416156109235750610896611911565b6001600160a01b03811693841561091557848652856020528284872054106109075750906108e6817fccbea4088a3b7ae9ca2d15fab9a9742a4075b4d7247768a1eecea917565aba009493611941565b8151908152426020820152a26001600080516020611b3a8339815191525580f35b8351632f100e0360e11b8152fd5b835163aacf746b60e01b8152fd5b835163e2517d3f60e01b815233818701526024810191909152604490fd5b9190503461038257806003193601126103825761095c611621565b60243590610968611706565b610970611911565b6001600160a01b03169283156107605783855260066020528183862054106109cc5750907f89882ad382a3742d4db24e4dabc5000c5852aed762904db28442e4e1630a1d0791838552600660205281852061072f8282546119e7565b825163713ca3c160e11b8152fd5b505034610242578160031936011261024257602090600b549051908152f35b838334610242578160031936011261024257805190828454600181811c90808316928315610b0e575b6020938484108114610afb57838852908115610adf5750600114610a8a575b505050829003601f01601f191682019267ffffffffffffffff841183851017610a775750829182610a739252826115d8565b0390f35b634e487b7160e01b815260418552602490fd5b8787529192508591837f8a35acfbc15ff81a39ae7d344fd709f28e8600b4aa8c65c6b64bfe7fe36bd19b5b838510610acb5750505050830101858080610a41565b805488860183015293019284908201610ab5565b60ff1916878501525050151560051b8401019050858080610a41565b634e487b7160e01b895260228a52602489fd5b91607f1691610a22565b9050346103825781600319360112610382578160209360ff92610b3961163c565b90358252600586528282206001600160a01b039091168252855220549151911615158152f35b8383346102425760208060031936011261038257610b7b611621565b917f41a3fffbda0f1c9e28bd52ae72187b3406590146b6ca8f19961d2250566efd1680855260058352818520338652835260ff828620541615610ca65750610bc1611911565b6001600160a01b0383169283156105d757838552600a8352610be960ff8387205416156119f4565b838552600a8352818520600160ff19825416179055610c09600b54611a35565b600b5560025468056bc75e2d6310000090818101809111610c93579183869269d3c21bcecceda10000007f67e0244e28040fec15240cd4b6c04c776a2a0278caef23b59e8ada1df31f76899796951115610c7b575050505051428152a26001600080516020611b3a8339815191525580f35b61052e600080516020611afa833981519152936118a1565b634e487b7160e01b875260118852602487fd5b905163e2517d3f60e01b815233818701526024810191909152604490fd5b5050346102425760203660031901126102425760209181906001600160a01b03610cec611621565b16815280845220549051908152f35b50503461024257602036600319011261024257602091610d3d906001600160a01b03610d25611621565b168152808452828082205491600686522054906119e7565b9051908152f35b5050346102425760203660031901126102425760209160ff9082906001600160a01b03610d6f611621565b168152600a855220541690519015158152f35b905034610382578260031936011261038257610d9c611911565b3315610e8957338352600a602052610dba60ff8385205416156119f4565b338352600a602052818320600160ff19825416179055610ddb600b54611a35565b600b5560025468056bc75e2d6310000091828201809211610e76575069d3c21bcecceda10000001015610e49575b50514281527f67e0244e28040fec15240cd4b6c04c776a2a0278caef23b59e8ada1df31f768960203392a26001600080516020611b3a8339815191525580f35b610e52336118a1565b8151908152426020820152600080516020611afa833981519152823392a238610e09565b634e487b7160e01b855260119052602484fd5b905163aacf746b60e01b8152fd5b91905034610382578060031936011261038257610eb2611621565b60243590610ebe611652565b610ec6611911565b6001600160a01b0316928315610760576002549069d3c21bcecceda1000000610eef848461187e565b11610f5d575090610f1081600080516020611afa833981519152949361187e565b600255838552846020528185208181540190558385600080516020611b1a83398151915260208551858152a38151908152426020820152a26001600080516020611b3a8339815191525580f35b8351632e1198f160e11b8152fd5b838334610242578060031936011261024257610f8561163c565b90336001600160a01b03831603610fa257506103c2919235611807565b5163334bd91960e11b81528390fd5b5050346102425781600319360112610242576020905169d3c21bcecceda10000008152f35b5050346102425781600319360112610242576020905160128152f35b919050346103825780600319360112610382576103c2913561101760016103ab61163c565b611787565b90503461038257602036600319011261038257611037611621565b906110406116cc565b6001600160a01b03918216928315610375576008549283166103685750506001600160a01b03191681176008557f02ede59ede14fc8a452f4d9c602afef004380e4a5bf668b99ca6580878a80a5c8280a280f35b505034610242578160031936011261024257602090517f3c11d16cbaffd01df69ce1c404f6340ee057498f5f00246190ea54220576a8488152f35b905034610382576020366003190112610382573590811515809203610382576110f66116cc565b60ff196007541660ff831617600755519081527f60a5428eca561d7fc92d217a2f3ca72fa49ce364b20e5cc90110bae2a414911860203392a280f35b9050346103825760203660031901126103825781602093600192358152600585522001549051908152f35b9190503461038257606036600319011261038257611179611621565b61118161163c565b6044359160018060a01b03811694858752602095878752846111ae878a205460068a52888b2054906119e7565b1061127357808852600187528588203389528752858820549160001983106111df575b5050509061080e9291611a44565b85831061124757811561123057331561121957509484889261080e9783999a5260018a528284203385528a520391205585949338806111d1565b8651634a1406b160e11b8152908101899052602490fd5b865163e602df0560e01b8152908101899052602490fd5b8651637dc7a0d960e11b8152339181019182526020820193909352604081018690528291506060010390fd5b508451632f992abf60e01b8152fd5b9050346103825760203660031901126103825761129d611621565b6112a56116cc565b6001600160a01b0381811693909290841561037557600754938460081c16610368575050610100600160a81b031990911660089190911b610100600160a81b0316176007557fe7ae49f883c825b05681b3e00e8be6fdea9ed2a8a45e4c6ecb9390fc44cce6158280a280f35b505034610242578160031936011261024257600754905160089190911c6001600160a01b03168152602090f35b919050346103825760203660031901126103825761135a611621565b91611363611652565b61136b611911565b6001600160a01b0383169283156113d3576002549168056bc75e2d63100000928381018091116113c05769d3c21bcecceda100000010610f5d5750906108e6600080516020611afa83398151915293926118a1565b634e487b7160e01b875260118252602487fd5b50905163aacf746b60e01b8152fd5b5050346102425781600319360112610242576020906002549051908152f35b90503461038257816003193601126103825761141b611621565b602435903315611494576001600160a01b031691821561147d57508083602095338152600187528181208582528752205582519081527f8c5be1e5ebec7d5bd14f71427d1e84f3dd0314c0f7b2291e5b200ac8c7c3b925843392a35160018152f35b8351634a1406b160e11b8152908101859052602490fd5b835163e602df0560e01b8152808401869052602490fd5b83833461024257816003193601126102425780519082600354600181811c9080831692831561157b575b6020938484108114610afb57838852908115610adf575060011461152557505050829003601f01601f191682019267ffffffffffffffff841183851017610a775750829182610a739252826115d8565b600387529192508591837fc2575a0e9e593c00f959f8c92f12db2869c3395a3b0502d05e2516446f71f85b5b8385106115675750505050830101858080610a41565b805488860183015293019284908201611551565b91607f16916114d5565b849134610382576020366003190112610382573563ffffffff60e01b81168091036103825760209250637965db0b60e01b81149081156115c7575b5015158152f35b6301ffc9a760e01b149050836115c0565b6020808252825181830181905290939260005b82811061160d57505060409293506000838284010152601f8019910116010190565b8181018601518482016040015285016115eb565b600435906001600160a01b038216820361163757565b600080fd5b602435906001600160a01b038216820361163757565b3360009081527f15a28d26fa1bf736cf7edc9922607171ccb09c3c73b808e7772a3013e068a52260205260409020547f9f2df0fed2c77648de5860a4cc508cd0818c85b8b8a1ab4ceeef8d981c8956a69060ff16156116ae5750565b6044906040519063e2517d3f60e01b82523360048301526024820152fd5b3360009081527f05b8ccbb9d4d8fb16ea74ce3c29a41f1b461fbdaff4714a0d9a8eb05499746bc602052604081205460ff16156116ae5750565b3360009081527ecd24bfc36858366fa9b50eeb52d23b2918df0151c543a0d3f8b17bf202bf2960205260409020547faf9a8bb3cbd6b84fbccefa71ff73e26e798553c6914585a84886212a46a902799060ff16156116ae5750565b80600052600560205260406000203360005260205260ff60406000205416156116ae5750565b906000918083526005602052604083209160018060a01b03169182845260205260ff604084205416156000146118025780835260056020526040832082845260205260408320600160ff198254161790557f2f8788117e7eff1d82e926ec794901d17c78024a50270940304540a733656f0d339380a4600190565b505090565b906000918083526005602052604083209160018060a01b03169182845260205260ff604084205416600014611802578083526005602052604083208284526020526040832060ff1981541690557ff6391f5c32d9c69d2a47ea670b442974b53935d1edc7fd64eb21e047a839171b339380a4600190565b9190820180921161188b57565b634e487b7160e01b600052601160045260246000fd5b6001600160a01b031680156118f85760025468056bc75e2d6310000080820180921161188b576020600080516020611b1a8339815191529160009360025584845283825260408420818154019055604051908152a3565b60405163ec442f0560e01b815260006004820152602490fd5b600080516020611b3a833981519152600281541461192f5760029055565b604051633ee5aeb560e01b8152600490fd5b906001600160a01b0382169081156119ce576000928284528360205260408420549082821061199c575081600080516020611b1a833981519152926020928587528684520360408620558060025403600255604051908152a3565b60405163391434e360e21b81526001600160a01b03919091166004820152602481019190915260448101829052606490fd5b604051634b637e8f60e11b815260006004820152602490fd5b9190820391821161188b57565b156119fb57565b60405162461bcd60e51b8152602060048201526012602482015271105b1c9958591e481c9959da5cdd195c995960721b6044820152606490fd5b600019811461188b5760010190565b91906001600160a01b038084169182156119ce57169182156118f8576000828152806020526040948582205490838210611ac8575091858282600080516020611b1a8339815191529587602096528286520382822055868152208181540190558551908152a360ff6007541615611ab85750565b51630202da8560e11b8152600490fd5b865163391434e360e21b81526001600160a01b03919091166004820152602481019190915260448101839052606490fdfe2e8ac5177a616f2aec08c3048f5021e4e9743ece034e8d83ba5caf76688bb475ddf252ad1be2c89b69c2b068fc378daa952ba7f163c4a11628f55a4df523b3ef9b779b17422d0df92223018b32b4d1fa46e071723d6817e2486d003becc55f00a2646970667358221220510b0e40171579e0037b04c6b28e7c2e5a6286d20f51fac6802712be5b3cbd3c64736f6c634300081400332f8788117e7eff1d82e926ec794901d17c78024a50270940304540a733656f0d",
  "linkReferences": {},
  "deployedLinkReferences": {}
}