{"abi":[{"type":"constructor","inputs":[{"name":"_stableToken","type":"address","internalType":"address"},{"name":"_withdrawalThreshold","type":"uint256","internalType":"uint256"},{"name":"_withdrawalTimelock","type":"uint256","internalType":"uint256"}],"stateMutability":"nonpayable"},{"type":"function","name":"DEFAULT_ADMIN_ROLE","inputs":[],"outputs":[{"name":"","type":"bytes32","internalType":"bytes32"}],"stateMutability":"view"},{"type":"function","name":"GOVERN_ROLE","inputs":[],"outputs":[{"name":"","type":"bytes32","internalType":"bytes32"}],"stateMutability":"view"},{"type":"function","name":"TREASURER_ROLE","inputs":[],"outputs":[{"name":"","type":"bytes32","internalType":"bytes32"}],"stateMutability":"view"},{"type":"function","name":"approveWithdrawal","inputs":[{"name":"withdrawalId","type":"uint256","internalType":"uint256"}],"outputs":[],"stateMutability":"nonpayable"},{"type":"function","name":"cancelWithdrawal","inputs":[{"name":"withdrawalId","type":"uint256","internalType":"uint256"}],"outputs":[],"stateMutability":"nonpayable"},{"type":"function","name":"contributions","inputs":[{"name":"","type":"address","internalType":"address"}],"outputs":[{"name":"","type":"uint256","internalType":"uint256"}],"stateMutability":"view"},{"type":"function","name":"deposit","inputs":[{"name":"amount","type":"uint256","internalType":"uint256"}],"outputs":[{"name":"sharesIssued","type":"uint256","internalType":"uint256"}],"stateMutability":"nonpayable"},{"type":"function","name":"emergencyWithdraw","inputs":[{"name":"token","type":"address","internalType":"address"},{"name":"to","type":"address","internalType":"address"},{"name":"amount","type":"uint256","internalType":"uint256"}],"outputs":[],"stateMutability":"nonpayable"},{"type":"function","name":"executeWithdrawal","inputs":[{"name":"withdrawalId","type":"uint256","internalType":"uint256"}],"outputs":[],"stateMutability":"nonpayable"},{"type":"function","name":"getMemberBalance","inputs":[{"name":"member","type":"address","internalType":"address"}],"outputs":[{"name":"","type":"uint256","internalType":"uint256"}],"stateMutability":"view"},{"type":"function","name":"getMemberSharePercent","inputs":[{"name":"member","type":"address","internalType":"address"}],"outputs":[{"name":"","type":"uint256","internalType":"uint256"}],"stateMutability":"view"},{"type":"function","name":"getMemberValue","inputs":[{"name":"member","type":"address","internalType":"address"}],"outputs":[{"name":"","type":"uint256","internalType":"uint256"}],"stateMutability":"view"},{"type":"function","name":"getPendingWithdrawal","inputs":[{"name":"withdrawalId","type":"uint256","internalType":"uint256"}],"outputs":[{"name":"recipient","type":"address","internalType":"address"},{"name":"amount","type":"uint256","internalType":"uint256"},{"name":"timestamp","type":"uint256","internalType":"uint256"},{"name":"executableAt","type":"uint256","internalType":"uint256"},{"name":"executed","type":"bool","internalType":"bool"},{"name":"approved","type":"bool","internalType":"bool"}],"stateMutability":"view"},{"type":"function","name":"getRoleAdmin","inputs":[{"name":"role","type":"bytes32","internalType":"bytes32"}],"outputs":[{"name":"","type":"bytes32","internalType":"bytes32"}],"stateMutability":"view"},{"type":"function","name":"getTotalAssets","inputs":[],"outputs":[{"name":"","type":"uint256","internalType":"uint256"}],"stateMutability":"view"},{"type":"function","name":"governanceSpend","inputs":[{"name":"to","type":"address","internalType":"address"},{"name":"amount","type":"uint256","internalType":"uint256"},{"name":"reason","type":"bytes","internalType":"bytes"}],"outputs":[],"stateMutability":"nonpayable"},{"type":"function","name":"grantRole","inputs":[{"name":"role","type":"bytes32","internalType":"bytes32"},{"name":"account","type":"address","internalType":"address"}],"outputs":[],"stateMutability":"nonpayable"},{"type":"function","name":"hasRole","inputs":[{"name":"role","type":"bytes32","internalType":"bytes32"},{"name":"account","type":"address","internalType":"address"}],"outputs":[{"name":"","type":"bool","internalType":"bool"}],"stateMutability":"view"},{"type":"function","name":"lakomiGovern","inputs":[],"outputs":[{"name":"","type":"address","internalType":"address"}],"stateMutability":"view"},{"type":"function","name":"lakomiToken","inputs":[],"outputs":[{"name":"","type":"address","internalType":"address"}],"stateMutability":"view"},{"type":"function","name":"nextWithdrawalId","inputs":[],"outputs":[{"name":"","type":"uint256","internalType":"uint256"}],"stateMutability":"view"},{"type":"function","name":"pause","inputs":[],"outputs":[],"stateMutability":"nonpayable"},{"type":"function","name":"paused","inputs":[],"outputs":[{"name":"","type":"bool","internalType":"bool"}],"stateMutability":"view"},{"type":"function","name":"pendingWithdrawals","inputs":[{"name":"","type":"uint256","internalType":"uint256"}],"outputs":[{"name":"recipient","type":"address","internalType":"address"},{"name":"amount","type":"uint256","internalType":"uint256"},{"name":"timestamp","type":"uint256","internalType":"uint256"},{"name":"executableAt","type":"uint256","internalType":"uint256"},{"name":"executed","type":"bool","internalType":"bool"},{"name":"approved","type":"bool","internalType":"bool"}],"stateMutability":"view"},{"type":"function","name":"renounceRole","inputs":[{"name":"role","type":"bytes32","internalType":"bytes32"},{"name":"callerConfirmation","type":"address","internalType":"address"}],"outputs":[],"stateMutability":"nonpayable"},{"type":"function","name":"requestWithdrawal","inputs":[{"name":"recipient","type":"address","internalType":"address"},{"name":"amount","type":"uint256","internalType":"uint256"}],"outputs":[{"name":"withdrawalId","type":"uint256","internalType":"uint256"}],"stateMutability":"nonpayable"},{"type":"function","name":"revokeRole","inputs":[{"name":"role","type":"bytes32","internalType":"bytes32"},{"name":"account","type":"address","internalType":"address"}],"outputs":[],"stateMutability":"nonpayable"},{"type":"function","name":"setLakomiGovern","inputs":[{"name":"govern","type":"address","internalType":"address"}],"outputs":[],"stateMutability":"nonpayable"},{"type":"function","name":"setLakomiToken","inputs":[{"name":"token","type":"address","internalType":"address"}],"outputs":[],"stateMutability":"nonpayable"},{"type":"function","name":"setWithdrawalThreshold","inputs":[{"name":"newThreshold","type":"uint256","internalType":"uint256"}],"outputs":[],"stateMutability":"nonpayable"},{"type":"function","name":"setWithdrawalTimelock","inputs":[{"name":"newTimelock","type":"uint256","internalType":"uint256"}],"outputs":[],"stateMutability":"nonpayable"},{"type":"function","name":"shares","inputs":[{"name":"","type":"address","internalType":"address"}],"outputs":[{"name":"","type":"uint256","internalType":"uint256"}],"stateMutability":"view"},{"type":"function","name":"stableToken","inputs":[],"outputs":[{"name":"","type":"address","internalType":"contract IERC20"}],"stateMutability":"view"},{"type":"function","name":"supportsInterface","inputs":[{"name":"interfaceId","type":"bytes4","internalType":"bytes4"}],"outputs":[{"name":"","type":"bool","internalType":"bool"}],"stateMutability":"view"},{"type":"function","name":"totalDeposited","inputs":[],"outputs":[{"name":"","type":"uint256","internalType":"uint256"}],"stateMutability":"view"},{"type":"function","name":"totalShares","inputs":[],"outputs":[{"name":"","type":"uint256","internalType":"uint256"}],"stateMutability":"view"},{"type":"function","name":"totalWithdrawn","inputs":[],"outputs":[{"name":"","type":"uint256","internalType":"uint256"}],"stateMutability":"view"},{"type":"function","name":"unpause","inputs":[],"outputs":[],"stateMutability":"nonpayable"},{"type":"function","name":"withdraw","inputs":[{"name":"amount","type":"uint256","internalType":"uint256"}],"outputs":[{"name":"actualAmount","type":"uint256","internalType":"uint256"}],"stateMutability":"nonpayable"},{"type":"function","name":"withdrawalThreshold","inputs":[],"outputs":[{"name":"","type":"uint256","internalType":"uint256"}],"stateMutability":"view"},{"type":"function","name":"withdrawalTimelock","inputs":[],"outputs":[{"name":"","type":"uint256","internalType":"uint256"}],"stateMutability":"view"},{"type":"event","name":"Deposited","inputs":[{"name":"member","type":"address","indexed":true,"internalType":"address"},{"name":"amount","type":"uint256","indexed":false,"internalType":"uint256"},{"name":"shares","type":"uint256","indexed":false,"internalType":"uint256"},{"name":"timestamp","type":"uint256","indexed":false,"internalType":"uint256"}],"anonymous":false},{"type":"event","name":"GovernSet","inputs":[{"name":"govern","type":"address","indexed":true,"internalType":"address"}],"anonymous":false},{"type":"event","name":"GovernanceSpend","inputs":[{"name":"to","type":"address","indexed":true,"internalType":"address"},{"name":"amount","type":"uint256","indexed":false,"internalType":"uint256"},{"name":"reason","type":"bytes","indexed":false,"internalType":"bytes"}],"anonymous":false},{"type":"event","name":"Paused","inputs":[{"name":"account","type":"address","indexed":false,"internalType":"address"}],"anonymous":false},{"type":"event","name":"RoleAdminChanged","inputs":[{"name":"role","type":"bytes32","indexed":true,"internalType":"bytes32"},{"name":"previousAdminRole","type":"bytes32","indexed":true,"internalType":"bytes32"},{"name":"newAdminRole","type":"bytes32","indexed":true,"internalType":"bytes32"}],"anonymous":false},{"type":"event","name":"RoleGranted","inputs":[{"name":"role","type":"bytes32","indexed":true,"internalType":"bytes32"},{"name":"account","type":"address","indexed":true,"internalType":"address"},{"name":"sender","type":"address","indexed":true,"internalType":"address"}],"anonymous":false},{"type":"event","name":"RoleRevoked","inputs":[{"name":"role","type":"bytes32","indexed":true,"internalType":"bytes32"},{"name":"account","type":"address","indexed":true,"internalType":"address"},{"name":"sender","type":"address","indexed":true,"internalType":"address"}],"anonymous":false},{"type":"event","name":"ThresholdUpdated","inputs":[{"name":"oldThreshold","type":"uint256","indexed":false,"internalType":"uint256"},{"name":"newThreshold","type":"uint256","indexed":false,"internalType":"uint256"}],"anonymous":false},{"type":"event","name":"TimelockUpdated","inputs":[{"name":"oldTimelock","type":"uint256","indexed":false,"internalType":"uint256"},{"name":"newTimelock","type":"uint256","indexed":false,"internalType":"uint256"}],"anonymous":false},{"type":"event","name":"TokenSet","inputs":[{"name":"token","type":"address","indexed":true,"internalType":"address"}],"anonymous":false},{"type":"event","name":"Unpaused","inputs":[{"name":"account","type":"address","indexed":false,"internalType":"address"}],"anonymous":false},{"type":"event","name":"WithdrawalCanceled","inputs":[{"name":"id","type":"uint256","indexed":true,"internalType":"uint256"}],"anonymous":false},{"type":"event","name":"WithdrawalExecuted","inputs":[{"name":"id","type":"uint256","indexed":true,"internalType":"uint256"},{"name":"recipient","type":"address","indexed":false,"internalType":"address"},{"name":"amount","type":"uint256","indexed":false,"internalType":"uint256"}],"anonymous":false},{"type":"event","name":"WithdrawalRequested","inputs":[{"name":"id","type":"uint256","indexed":true,"internalType":"uint256"},{"name":"recipient","type":"address","indexed":true,"internalType":"address"},{"name":"amount","type":"uint256","indexed":false,"internalType":"uint256"},{"name":"executableAt","type":"uint256","indexed":false,"internalType":"uint256"}],"anonymous":false},{"type":"event","name":"Withdrawn","inputs":[{"name":"member","type":"address","indexed":true,"internalType":"address"},{"name":"amount","type":"uint256","indexed":false,"internalType":"uint256"},{"name":"shares","type":"uint256","indexed":false,"internalType":"uint256"},{"name":"timestamp","type":"uint256","indexed":false,"internalType":"uint256"}],"anonymous":false},{"type":"error","name":"AccessControlBadConfirmation","inputs":[]},{"type":"error","name":"AccessControlUnauthorizedAccount","inputs":[{"name":"account","type":"address","internalType":"address"},{"name":"neededRole","type":"bytes32","internalType":"bytes32"}]},{"type":"error","name":"EnforcedPause","inputs":[]},{"type":"error","name":"ExpectedPause","inputs":[]},{"type":"error","name":"LakomiVault__AlreadyExecuted","inputs":[]},{"type":"error","name":"LakomiVault__AlreadySet","inputs":[]},{"type":"error","name":"LakomiVault__ExceedsThreshold","inputs":[]},{"type":"error","name":"LakomiVault__InsufficientBalance","inputs":[]},{"type":"error","name":"LakomiVault__InsufficientShares","inputs":[]},{"type":"error","name":"LakomiVault__InvalidWithdrawal","inputs":[]},{"type":"error","name":"LakomiVault__NotApproved","inputs":[]},{"type":"error","name":"LakomiVault__TimelockNotMet","inputs":[]},{"type":"error","name":"LakomiVault__TransferFailed","inputs":[]},{"type":"error","name":"LakomiVault__ZeroAddress","inputs":[]},{"type":"error","name":"LakomiVault__ZeroAmount","inputs":[]},{"type":"error","name":"ReentrancyGuardReentrantCall","inputs":[]},{"type":"error","name":"SafeERC20FailedOperation","inputs":[{"name":"token","type":"address","internalType":"address"}]}],"bytecode":{"object":"0x60a034620000fd57601f620019fc38819003918201601f19168301916001600160401b038311848410176200010157808492606094604052833981010312620000fd5780516001600160a01b0381169190829003620000fd57604060208201519101519160017f9b779b17422d0df92223018b32b4d1fa46e071723d6817e2486d003becc55f00558015620000eb57608052600755600855620000a23362000115565b50620000ae3362000193565b506040516117a8908162000234823960805181818161064c015281816107ac01528181610ca001528181610ec20152818161115b01526116630152f35b6040516322fe8fc760e21b8152600490fd5b5f80fd5b634e487b7160e01b5f52604160045260245ffd5b6001600160a01b03165f8181527fad3228b676f7d3cd4284a5443f17f1962b36e491b30a40b2405849e597ba5fb5602052604081205490919060ff166200018f57818052816020526040822081835260205260408220600160ff1982541617905533915f80516020620019dc8339815191528180a4600190565b5090565b6001600160a01b03165f8181527f991c3211066600fc98d95d017c66f2884b1fa3d4cabc2576d000f3cc80931bda60205260408120549091907f3496e2e73c4d42b75d702e60d9e48102720b8691234415963a5a857b86425d079060ff166200022e57808352826020526040832082845260205260408320600160ff198254161790555f80516020620019dc833981519152339380a4600190565b50509056fe6080604081815260049182361015610015575f80fd5b5f92833560e01c91826301ffc9a7146112a357508163075e9c581461122b5781631e27970f1461120c578163248a9ca3146111e257816324f13a76146110495781632934ce4714610ff45781632c4fbd2d14610f625781632e1a7d4d14610dff5781632f2ff15d14610dd5578163340bc08b14610c1c57816336568abe14610bd657816338a3c8781461029e57816338b7f44614610b9b5781633a98ef3914610b7c5781633efcfda414610ab35781633f4ba83a14610a4957816342e94c901461058d5781634786b0cb146109f45781634a9122e3146109d55781634b319713146109b657816351b07047146109905781635c975abb1461096c5781636e07302b1461094f5781637985fd51146109305781638456cb59146108d657816391d148541461089057816394822925146108675781639eceddea146107f6578163a217fddf146107db578163a9d75b2b14610797578163b6b55f25146105f0578163c3f5124d146105c3578163ca55753a1461058d578163ce7c2ac214610555578163d547741f14610512578163da95ebf714610344578163df817a711461031b578163e61504001461029e57508063e63ea40814610240578063f0a3a97c146102065763ff50abdc146101e5575f80fd5b346102025781600319360112610202576020906002549051908152f35b5080fd5b5034610202578160031936011261020257602090517f3496e2e73c4d42b75d702e60d9e48102720b8691234415963a5a857b86425d078152f35b823461029b57606036600319011261029b5761028761025d6112f6565b610265611310565b61026d611326565b610275611558565b604435916001600160a01b0316611594565b60015f805160206117538339815191525580f35b80fd5b82843461029b57602036600319011261029b578235815260096020908152908290208054600182015460028301546003840154939096015494516001600160a01b039092168252928101929092526040820193909352606081019290925260ff8082161515608084015260089190911c16151560a082015260c090f35b505034610202578160031936011261020257600c5490516001600160a01b039091168152602090f35b83833461020257806003193601126102025761035e6112f6565b9160243561036a61153a565b610372611558565b6001600160a01b039384169182156105025781156104f25760075482106104e257338152856020528184822054106104d2576103b06008544261152d565b90600a54955f1987146104bf5760018701600a5585519060c0820182811067ffffffffffffffff8211176104ac57928860209a8197947fe6d14ce42ad5a4efe0f111f81c1a1123db4ee41f561c3161e0960d54a9221ebe97948b9788528a82528d82018781528883019042825260608401928884528a6080860198808a5260a0870198818a528152602060099052209451166bffffffffffffffffffffffff60a01b85541617845551600184015551600283015551600382015501915115159060ff61ff0084549251151560081b1692169061ffff191617179055825191825288820152a360015f805160206117538339815191525551908152f35b634e487b7160e01b845260418a52602484fd5b634e487b7160e01b825260118852602482fd5b83516344dd002f60e11b81528690fd5b8351639293b47f60e01b81528690fd5b8351630a76f80b60e21b81528690fd5b83516322fe8fc760e21b81528690fd5b9190503461055157806003193601126105515761054d91356105486001610537611310565b9383875286602052862001546113d8565b611475565b5080f35b8280fd5b5050346102025760203660031901126102025760209181906001600160a01b0361057d6112f6565b1681526006845220549051908152f35b9050346105515760203660031901126105515760209282916001600160a01b036105b56112f6565b168252845220549051908152f35b505034610202576020366003190112610202576020906105e96105e46112f6565b6116d7565b9051908152f35b9190503461055157602036600319011261055157813561060e61153a565b610616611558565b801561078957610624611648565b600554908161077157505080925b82516323b872dd60e01b86523382523060245260448390527f000000000000000000000000000000000000000000000000000000000000000060208760648180855af16001885114811615610752575b8286528760605215610733575050602094839133825286528181206106a884825461152d565b905533815260068652206106bd84825461152d565b90556106cb8360055461152d565b6005556106da8160025461152d565b60025581519081526020810183905242604082015233907f91ede45f04a37a7c170f5c1207df3b6bc748dc1e04ad5e917a241d0f52feada39080606081015b0390a260015f805160206117538339815191525551908152f35b635274afe760e01b82526001600160a01b031691810191909152602490fd5b600181151661076857813b15153d151616610682565b823d89823e3d90fd5b61077e61078392846114e8565b61150f565b92610632565b5051630a76f80b60e21b8152fd5b505034610202578160031936011261020257517f00000000000000000000000000000000000000000000000000000000000000006001600160a01b03168152602090f35b50503461020257816003193601126102025751908152602090f35b919050346105515760203660031901126105515761081261137d565b81358352600960205280832080546001600160a01b0316156108595782019182549160ff831661084c57505061ff00191661010017905580f35b5163aa7e8f7560e01b8152fd5b50516339c3855560e21b8152fd5b505034610202578160031936011261020257600b5490516001600160a01b039091168152602090f35b9050346105515781600319360112610551578160209360ff926108b1611310565b903582528186528282206001600160a01b039091168252855220549151911615158152f35b50503461020257816003193601126102025760207f62e78cea01bee320cd4e420270b5ea74000d11b0c9f74754ebdbfc544b05a25891610914611326565b61091c61153a565b600160ff198154161760015551338152a180f35b5050346102025781600319360112610202576020906007549051908152f35b5050346102025781600319360112610202576020906105e9611648565b50503461020257816003193601126102025760209060ff6001541690519015158152f35b505034610202576020366003190112610202576020906105e96109b16112f6565b611720565b5050346102025781600319360112610202576020906003549051908152f35b505034610202578160031936011261020257602090600a549051908152f35b91905034610551576020366003190112610551577fb06a54caabe58475c86c2bf9df3f2f06dd1213e9e10659c293117fe4893b274b9135610a33611326565b600754908060075582519182526020820152a180f35b905034610551578260031936011261055157610a63611326565b6001549060ff821615610aa5575060ff1916600155513381527f5db9ee0a495bf2e6ff9c91a7834c1ba4fdd244a5e8aa4e537bd38aeae4b073aa90602090a180f35b8251638dfc202b60e01b8152fd5b919050346105515760203660031901126105515781359182845260096020528184209060018060a01b03825416918215610b6d5781019283549260ff8416610b5f5733141580610b41575b610b3457505060ff191660011790557fa93f6f41ed8bce52035a13f24c08d4175a9f0b44c1f94a6d9b6b64304f64a8658280a280f35b516339c3855560e21b8152fd5b508580528560205280862033875260205260ff818720541615610afe565b505163aa7e8f7560e01b8152fd5b5082516339c3855560e21b8152fd5b5050346102025781600319360112610202576020906005549051908152f35b505034610202578160031936011261020257602090517f899bd46557473cb80307a9dabc297131ced39608330a2d29b2d52b660c03923e8152f35b838334610202578060031936011261020257610bf0611310565b90336001600160a01b03831603610c0d575061054d919235611475565b5163334bd91960e11b81528390fd5b9190503461055157606036600319011261055157610c386112f6565b6024359060443567ffffffffffffffff91828211610dd15736602383011215610dd15781860135928311610dd1573660248484010111610dd157610c7a61137d565b610c82611558565b6001600160a01b03818116968715610dc3578515610db557602460207f0000000000000000000000000000000000000000000000000000000000000000938951928380926370a0823160e01b8252308783015287165afa908115610dab579087918b91610d73575b5010610d6557509260248593610d267fad5a7ccb9051f94d2d3944962be58f792d6562271bae0ea41677d55c2d5885cd98978495606098611594565b828751978896875280602088015286015201848401378181018301879052601f01601f19168101030190a260015f805160206117538339815191525580f35b86516344dd002f60e11b8152fd5b9150506020813d8211610da3575b81610d8e60209383611612565b81010312610d9f578690515f610cea565b8980fd5b3d9150610d81565b88513d8c823e3d90fd5b8651630a76f80b60e21b8152fd5b86516322fe8fc760e21b8152fd5b8680fd5b9190503461055157806003193601126105515761054d9135610dfa6001610537611310565b6113f9565b838334610202576020928360031936011261055157803592610e1f61153a565b610e27611558565b8315610f5357600754841015610f4457338152818552838382205410610f3557610e5e610e52611648565b61077e600554876114e8565b9133825260068652828483205410610f27579083913382528652818120610e86868254611587565b90553381526006865220610e9b828254611587565b9055610ea981600554611587565b600555610eb88360035461152d565b600355610ee683337f0000000000000000000000000000000000000000000000000000000000000000611594565b8151838152602081019190915242604082015233907f75e161b3e824b114fc1a33274bd7091918dd4e639cede50b78b15a4eea956a21908060608101610719565b835163a1aaeca560e01b8152fd5b5090516344dd002f60e11b8152fd5b509051639293b47f60e01b8152fd5b509051630a76f80b60e21b8152fd5b90503461055157602036600319011261055157610f7d6112f6565b90610f86611326565b6001600160a01b03918216928315610fe757600c54928316610fda5750506001600160a01b0319168117600c557f02ede59ede14fc8a452f4d9c602afef004380e4a5bf668b99ca6580878a80a5c8280a280f35b5163d4a7794160e01b8152fd5b516322fe8fc760e21b8152fd5b91905034610551576020366003190112610551577f3e9cac94b7c7db9b86df56321e6f7e3e88a6c87fc15fd825df1492cf69e335519135611033611326565b600854908060085582519182526020820152a180f35b8383346102025760203660031901126102025782359061106761153a565b61106f611558565b818352600960205280832080546001600160a01b03908116959186156111d257828101805460ff81166111c25760081c60ff16156111b257600382015442106111a2576111317fd6cddb3d69146e96ebc2c87b1b3dd0b20ee2d3b0eadf134e011afb434a3e56e69697986110e1611648565b60018501966110f888549261077e600554856114e8565b928c5260205261110c888c20918254611587565b9055848454168a526006602052868a20611127828254611587565b9055600554611587565b600555611141845460035461152d565b600355805460ff191660011790558054835461117f9184167f0000000000000000000000000000000000000000000000000000000000000000611594565b5416905482519182526020820152a260015f805160206117538339815191525580f35b84516341927eb760e01b81528490fd5b8451637d7982db60e11b81528490fd5b855163aa7e8f7560e01b81528590fd5b83516339c3855560e21b81528390fd5b90503461055157602036600319011261055157816020936001923581528085522001549051908152f35b5050346102025781600319360112610202576020906008549051908152f35b905034610551576020366003190112610551576112466112f6565b9061124f611326565b6001600160a01b03918216928315610fe757600b54928316610fda5750506001600160a01b0319168117600b557fa07c91c183e42229e705a9795a1c06d76528b673788b849597364528c96eefb78280a280f35b849134610551576020366003190112610551573563ffffffff60e01b81168091036105515760209250637965db0b60e01b81149081156112e5575b5015158152f35b6301ffc9a760e01b149050836112de565b600435906001600160a01b038216820361130c57565b5f80fd5b602435906001600160a01b038216820361130c57565b335f9081527fad3228b676f7d3cd4284a5443f17f1962b36e491b30a40b2405849e597ba5fb5602052604081205460ff161561135f5750565b6044906040519063e2517d3f60e01b82523360048301526024820152fd5b335f9081527ffb5b4225f7c0b188efbc1b7193af901f1a98349314de629b98c0655cf230463760205260409020547f899bd46557473cb80307a9dabc297131ced39608330a2d29b2d52b660c03923e9060ff161561135f5750565b805f525f60205260405f20335f5260205260ff60405f2054161561135f5750565b905f9180835282602052604083209160018060a01b03169182845260205260ff604084205416155f1461147057808352826020526040832082845260205260408320600160ff198254161790557f2f8788117e7eff1d82e926ec794901d17c78024a50270940304540a733656f0d339380a4600190565b505090565b905f9180835282602052604083209160018060a01b03169182845260205260ff6040842054165f146114705780835282602052604083208284526020526040832060ff1981541690557ff6391f5c32d9c69d2a47ea670b442974b53935d1edc7fd64eb21e047a839171b339380a4600190565b818102929181159184041417156114fb57565b634e487b7160e01b5f52601160045260245ffd5b8115611519570490565b634e487b7160e01b5f52601260045260245ffd5b919082018092116114fb57565b60ff6001541661154657565b60405163d93c066560e01b8152600490fd5b5f8051602061175383398151915260028154146115755760029055565b604051633ee5aeb560e01b8152600490fd5b919082039182116114fb57565b60405163a9059cbb60e01b5f9081526001600160a01b039384166004526024949094529260209060448180855af160015f51148116156115f3575b83604052156115dd57505050565b635274afe760e01b835216600482015260249150fd5b600181151661160957813b15153d1516166115cf565b833d5f823e3d90fd5b90601f8019910116810190811067ffffffffffffffff82111761163457604052565b634e487b7160e01b5f52604160045260245ffd5b6040516370a0823160e01b81523060048201526020816024817f00000000000000000000000000000000000000000000000000000000000000006001600160a01b03165afa9081156116cc575f9161169e575090565b906020823d82116116c4575b816116b760209383611612565b8101031261029b57505190565b3d91506116aa565b6040513d5f823e3d90fd5b60055490811561171a576001600160a01b03165f908152600660205260409020546127108082029291801590840490911417156114fb576117179161150f565b90565b50505f90565b600554801561171a576117179160018060a01b03165f52600660205261077e60405f205461174c611648565b906114e856fe9b779b17422d0df92223018b32b4d1fa46e071723d6817e2486d003becc55f00a26469706673582212209bd8c7208f9457c07e0cd5e4fb25643f68533fb0d70bbb2411667434e2cb87d564736f6c634300081400332f8788117e7eff1d82e926ec794901d17c78024a50270940304540a733656f0d","linkReferences":{}},"methodIdentifiers":{"DEFAULT_ADMIN_ROLE()":"a217fddf","GOVERN_ROLE()":"38b7f446","TREASURER_ROLE()":"f0a3a97c","approveWithdrawal(uint256)":"9eceddea","cancelWithdrawal(uint256)":"3efcfda4","contributions(address)":"42e94c90","deposit(uint256)":"b6b55f25","emergencyWithdraw(address,address,uint256)":"e63ea408","executeWithdrawal(uint256)":"24f13a76","getMemberBalance(address)":"ca55753a","getMemberSharePercent(address)":"c3f5124d","getMemberValue(address)":"51b07047","getPendingWithdrawal(uint256)":"38a3c878","getRoleAdmin(bytes32)":"248a9ca3","getTotalAssets()":"6e07302b","governanceSpend(address,uint256,bytes)":"340bc08b","grantRole(bytes32,address)":"2f2ff15d","hasRole(bytes32,address)":"91d14854","lakomiGovern()":"df817a71","lakomiToken()":"94822925","nextWithdrawalId()":"4a9122e3","pause()":"8456cb59","paused()":"5c975abb","pendingWithdrawals(uint256)":"e6150400","renounceRole(bytes32,address)":"36568abe","requestWithdrawal(address,uint256)":"da95ebf7","revokeRole(bytes32,address)":"d547741f","setLakomiGovern(address)":"2c4fbd2d","setLakomiToken(address)":"075e9c58","setWithdrawalThreshold(uint256)":"4786b0cb","setWithdrawalTimelock(uint256)":"2934ce47","shares(address)":"ce7c2ac2","stableToken()":"a9d75b2b","supportsInterface(bytes4)":"01ffc9a7","totalDeposited()":"ff50abdc","totalShares()":"3a98ef39","totalWithdrawn()":"4b319713","unpause()":"3f4ba83a","withdraw(uint256)":"2e1a7d4d","withdrawalThreshold()":"7985fd51","withdrawalTimelock()":"1e27970f"},"id":39}