{
  "_format": "hh-sol-artifact-1",
  "contractName": "LakomiGovern",
  "sourceName": "contracts/LakomiGovern.sol",
  "abi": [
    {
      "inputs": [
        {
          "internalType": "address",
          "name": "_token",
          "type": "address"
        },
        {
          "internalType": "uint256",
          "name": "_votingPeriod",
          "type": "uint256"
        },
        {
          "internalType": "uint256",
          "name": "_quorumNumerator",
          "type": "uint256"
        },
        {
          "internalType": "uint256",
          "name": "_executionTimelock",
          "type": "uint256"
        }
      ],
      "stateMutability": "nonpayable",
      "type": "constructor"
    },
    {
      "inputs": [],
      "name": "AccessControlBadConfirmation",
      "type": "error"
    },
    {
      "inputs": [
        {
          "internalType": "address",
          "name": "account",
          "type": "address"
        },
        {
          "internalType": "bytes32",
          "name": "neededRole",
          "type": "bytes32"
        }
      ],
      "name": "AccessControlUnauthorizedAccount",
      "type": "error"
    },
    {
      "inputs": [],
      "name": "EnforcedPause",
      "type": "error"
    },
    {
      "inputs": [],
      "name": "ExpectedPause",
      "type": "error"
    },
    {
      "inputs": [],
      "name": "LakomiGovern__AlreadyExecuted",
      "type": "error"
    },
    {
      "inputs": [],
      "name": "LakomiGovern__AlreadyVoted",
      "type": "error"
    },
    {
      "inputs": [],
      "name": "LakomiGovern__EmptyDescription",
      "type": "error"
    },
    {
      "inputs": [],
      "name": "LakomiGovern__ExecutionFailed",
      "type": "error"
    },
    {
      "inputs": [],
      "name": "LakomiGovern__NotPengawas",
      "type": "error"
    },
    {
      "inputs": [],
      "name": "LakomiGovern__NotProposer",
      "type": "error"
    },
    {
      "inputs": [],
      "name": "LakomiGovern__NotRegisteredMember",
      "type": "error"
    },
    {
      "inputs": [],
      "name": "LakomiGovern__ProposalNotActive",
      "type": "error"
    },
    {
      "inputs": [],
      "name": "LakomiGovern__ProposalNotSucceeded",
      "type": "error"
    },
    {
      "inputs": [],
      "name": "LakomiGovern__ProposalVetoed",
      "type": "error"
    },
    {
      "inputs": [],
      "name": "LakomiGovern__RATNotDue",
      "type": "error"
    },
    {
      "inputs": [],
      "name": "LakomiGovern__TimelockNotMet",
      "type": "error"
    },
    {
      "inputs": [],
      "name": "LakomiGovern__ZeroAddress",
      "type": "error"
    },
    {
      "inputs": [],
      "name": "ReentrancyGuardReentrantCall",
      "type": "error"
    },
    {
      "anonymous": false,
      "inputs": [
        {
          "indexed": false,
          "internalType": "address",
          "name": "account",
          "type": "address"
        }
      ],
      "name": "Paused",
      "type": "event"
    },
    {
      "anonymous": false,
      "inputs": [
        {
          "indexed": true,
          "internalType": "uint256",
          "name": "id",
          "type": "uint256"
        }
      ],
      "name": "ProposalCanceled",
      "type": "event"
    },
    {
      "anonymous": false,
      "inputs": [
        {
          "indexed": true,
          "internalType": "uint256",
          "name": "id",
          "type": "uint256"
        },
        {
          "indexed": true,
          "internalType": "address",
          "name": "proposer",
          "type": "address"
        },
        {
          "indexed": false,
          "internalType": "string",
          "name": "description",
          "type": "string"
        },
        {
          "indexed": false,
          "internalType": "uint256",
          "name": "startTime",
          "type": "uint256"
        },
        {
          "indexed": false,
          "internalType": "uint256",
          "name": "endTime",
          "type": "uint256"
        }
      ],
      "name": "ProposalCreated",
      "type": "event"
    },
    {
      "anonymous": false,
      "inputs": [
        {
          "indexed": true,
          "internalType": "uint256",
          "name": "id",
          "type": "uint256"
        }
      ],
      "name": "ProposalExecuted",
      "type": "event"
    },
    {
      "anonymous": false,
      "inputs": [
        {
          "indexed": true,
          "internalType": "uint256",
          "name": "id",
          "type": "uint256"
        },
        {
          "indexed": false,
          "internalType": "uint256",
          "name": "eta",
          "type": "uint256"
        }
      ],
      "name": "ProposalQueued",
      "type": "event"
    },
    {
      "anonymous": false,
      "inputs": [
        {
          "indexed": true,
          "internalType": "uint256",
          "name": "id",
          "type": "uint256"
        },
        {
          "indexed": true,
          "internalType": "address",
          "name": "pengawas",
          "type": "address"
        }
      ],
      "name": "ProposalVetoed",
      "type": "event"
    },
    {
      "anonymous": false,
      "inputs": [
        {
          "indexed": true,
          "internalType": "uint256",
          "name": "proposalId",
          "type": "uint256"
        },
        {
          "indexed": false,
          "internalType": "uint256",
          "name": "scheduledTime",
          "type": "uint256"
        }
      ],
      "name": "RATScheduled",
      "type": "event"
    },
    {
      "anonymous": false,
      "inputs": [
        {
          "indexed": true,
          "internalType": "bytes32",
          "name": "role",
          "type": "bytes32"
        },
        {
          "indexed": true,
          "internalType": "bytes32",
          "name": "previousAdminRole",
          "type": "bytes32"
        },
        {
          "indexed": true,
          "internalType": "bytes32",
          "name": "newAdminRole",
          "type": "bytes32"
        }
      ],
      "name": "RoleAdminChanged",
      "type": "event"
    },
    {
      "anonymous": false,
      "inputs": [
        {
          "indexed": true,
          "internalType": "bytes32",
          "name": "role",
          "type": "bytes32"
        },
        {
          "indexed": true,
          "internalType": "address",
          "name": "account",
          "type": "address"
        },
        {
          "indexed": true,
          "internalType": "address",
          "name": "sender",
          "type": "address"
        }
      ],
      "name": "RoleGranted",
      "type": "event"
    },
    {
      "anonymous": false,
      "inputs": [
        {
          "indexed": true,
          "internalType": "bytes32",
          "name": "role",
          "type": "bytes32"
        },
        {
          "indexed": true,
          "internalType": "address",
          "name": "account",
          "type": "address"
        },
        {
          "indexed": true,
          "internalType": "address",
          "name": "sender",
          "type": "address"
        }
      ],
      "name": "RoleRevoked",
      "type": "event"
    },
    {
      "anonymous": false,
      "inputs": [
        {
          "indexed": false,
          "internalType": "address",
          "name": "account",
          "type": "address"
        }
      ],
      "name": "Unpaused",
      "type": "event"
    },
    {
      "anonymous": false,
      "inputs": [
        {
          "indexed": true,
          "internalType": "uint256",
          "name": "proposalId",
          "type": "uint256"
        },
        {
          "indexed": true,
          "internalType": "address",
          "name": "voter",
          "type": "address"
        },
        {
          "indexed": false,
          "internalType": "enum LakomiGovern.Vote",
          "name": "support",
          "type": "uint8"
        }
      ],
      "name": "VoteCast",
      "type": "event"
    },
    {
      "inputs": [],
      "name": "DEFAULT_ADMIN_ROLE",
      "outputs": [
        {
          "internalType": "bytes32",
          "name": "",
          "type": "bytes32"
        }
      ],
      "stateMutability": "view",
      "type": "function"
    },
    {
      "inputs": [],
      "name": "PENGAWAS_ROLE",
      "outputs": [
        {
          "internalType": "bytes32",
          "name": "",
          "type": "bytes32"
        }
      ],
      "stateMutability": "view",
      "type": "function"
    },
    {
      "inputs": [],
      "name": "QUORUM_DENOMINATOR",
      "outputs": [
        {
          "internalType": "uint256",
          "name": "",
          "type": "uint256"
        }
      ],
      "stateMutability": "view",
      "type": "function"
    },
    {
      "inputs": [
        {
          "internalType": "uint256",
          "name": "proposalId",
          "type": "uint256"
        }
      ],
      "name": "cancel",
      "outputs": [],
      "stateMutability": "nonpayable",
      "type": "function"
    },
    {
      "inputs": [
        {
          "internalType": "uint256",
          "name": "proposalId",
          "type": "uint256"
        },
        {
          "internalType": "enum LakomiGovern.Vote",
          "name": "support",
          "type": "uint8"
        }
      ],
      "name": "castVote",
      "outputs": [],
      "stateMutability": "nonpayable",
      "type": "function"
    },
    {
      "inputs": [
        {
          "internalType": "uint256",
          "name": "proposalId",
          "type": "uint256"
        },
        {
          "internalType": "enum LakomiGovern.Vote",
          "name": "support",
          "type": "uint8"
        },
        {
          "internalType": "string",
          "name": "",
          "type": "string"
        }
      ],
      "name": "castVoteWithReason",
      "outputs": [],
      "stateMutability": "nonpayable",
      "type": "function"
    },
    {
      "inputs": [
        {
          "internalType": "string",
          "name": "description",
          "type": "string"
        },
        {
          "internalType": "enum LakomiGovern.ProposalType",
          "name": "_proposalType",
          "type": "uint8"
        },
        {
          "internalType": "address",
          "name": "target",
          "type": "address"
        },
        {
          "internalType": "uint256",
          "name": "value",
          "type": "uint256"
        },
        {
          "internalType": "bytes",
          "name": "callData",
          "type": "bytes"
        }
      ],
      "name": "createProposal",
      "outputs": [
        {
          "internalType": "uint256",
          "name": "",
          "type": "uint256"
        }
      ],
      "stateMutability": "nonpayable",
      "type": "function"
    },
    {
      "inputs": [
        {
          "internalType": "uint256",
          "name": "proposalId",
          "type": "uint256"
        }
      ],
      "name": "execute",
      "outputs": [],
      "stateMutability": "nonpayable",
      "type": "function"
    },
    {
      "inputs": [],
      "name": "executionTimelock",
      "outputs": [
        {
          "internalType": "uint256",
          "name": "",
          "type": "uint256"
        }
      ],
      "stateMutability": "view",
      "type": "function"
    },
    {
      "inputs": [
        {
          "internalType": "uint256",
          "name": "proposalId",
          "type": "uint256"
        }
      ],
      "name": "getProposal",
      "outputs": [
        {
          "internalType": "address",
          "name": "proposer",
          "type": "address"
        },
        {
          "internalType": "string",
          "name": "description",
          "type": "string"
        },
        {
          "internalType": "enum LakomiGovern.ProposalType",
          "name": "pType",
          "type": "uint8"
        },
        {
          "internalType": "uint256",
          "name": "startTime",
          "type": "uint256"
        },
        {
          "internalType": "uint256",
          "name": "endTime",
          "type": "uint256"
        },
        {
          "internalType": "uint256",
          "name": "forVotes",
          "type": "uint256"
        },
        {
          "internalType": "uint256",
          "name": "againstVotes",
          "type": "uint256"
        },
        {
          "internalType": "uint256",
          "name": "abstainVotes",
          "type": "uint256"
        },
        {
          "internalType": "bool",
          "name": "executed",
          "type": "bool"
        },
        {
          "internalType": "bool",
          "name": "canceled",
          "type": "bool"
        },
        {
          "internalType": "bool",
          "name": "vetoed",
          "type": "bool"
        }
      ],
      "stateMutability": "view",
      "type": "function"
    },
    {
      "inputs": [
        {
          "internalType": "bytes32",
          "name": "role",
          "type": "bytes32"
        }
      ],
      "name": "getRoleAdmin",
      "outputs": [
        {
          "internalType": "bytes32",
          "name": "",
          "type": "bytes32"
        }
      ],
      "stateMutability": "view",
      "type": "function"
    },
    {
      "inputs": [
        {
          "internalType": "bytes32",
          "name": "role",
          "type": "bytes32"
        },
        {
          "internalType": "address",
          "name": "account",
          "type": "address"
        }
      ],
      "name": "grantRole",
      "outputs": [],
      "stateMutability": "nonpayable",
      "type": "function"
    },
    {
      "inputs": [
        {
          "internalType": "bytes32",
          "name": "role",
          "type": "bytes32"
        },
        {
          "internalType": "address",
          "name": "account",
          "type": "address"
        }
      ],
      "name": "hasRole",
      "outputs": [
        {
          "internalType": "bool",
          "name": "",
          "type": "bool"
        }
      ],
      "stateMutability": "view",
      "type": "function"
    },
    {
      "inputs": [
        {
          "internalType": "uint256",
          "name": "",
          "type": "uint256"
        },
        {
          "internalType": "address",
          "name": "",
          "type": "address"
        }
      ],
      "name": "hasVoted",
      "outputs": [
        {
          "internalType": "bool",
          "name": "",
          "type": "bool"
        }
      ],
      "stateMutability": "view",
      "type": "function"
    },
    {
      "inputs": [],
      "name": "isRATDue",
      "outputs": [
        {
          "internalType": "bool",
          "name": "",
          "type": "bool"
        }
      ],
      "stateMutability": "view",
      "type": "function"
    },
    {
      "inputs": [],
      "name": "lastRATTime",
      "outputs": [
        {
          "internalType": "uint256",
          "name": "",
          "type": "uint256"
        }
      ],
      "stateMutability": "view",
      "type": "function"
    },
    {
      "inputs": [],
      "name": "pause",
      "outputs": [],
      "stateMutability": "nonpayable",
      "type": "function"
    },
    {
      "inputs": [],
      "name": "paused",
      "outputs": [
        {
          "internalType": "bool",
          "name": "",
          "type": "bool"
        }
      ],
      "stateMutability": "view",
      "type": "function"
    },
    {
      "inputs": [],
      "name": "pengawasPause",
      "outputs": [],
      "stateMutability": "nonpayable",
      "type": "function"
    },
    {
      "inputs": [
        {
          "internalType": "uint256",
          "name": "",
          "type": "uint256"
        }
      ],
      "name": "proposalAbstainVotes",
      "outputs": [
        {
          "internalType": "uint256",
          "name": "",
          "type": "uint256"
        }
      ],
      "stateMutability": "view",
      "type": "function"
    },
    {
      "inputs": [
        {
          "internalType": "uint256",
          "name": "",
          "type": "uint256"
        }
      ],
      "name": "proposalAgainstVotes",
      "outputs": [
        {
          "internalType": "uint256",
          "name": "",
          "type": "uint256"
        }
      ],
      "stateMutability": "view",
      "type": "function"
    },
    {
      "inputs": [
        {
          "internalType": "uint256",
          "name": "",
          "type": "uint256"
        }
      ],
      "name": "proposalCallData",
      "outputs": [
        {
          "internalType": "bytes",
          "name": "",
          "type": "bytes"
        }
      ],
      "stateMutability": "view",
      "type": "function"
    },
    {
      "inputs": [
        {
          "internalType": "uint256",
          "name": "",
          "type": "uint256"
        }
      ],
      "name": "proposalCanceled",
      "outputs": [
        {
          "internalType": "bool",
          "name": "",
          "type": "bool"
        }
      ],
      "stateMutability": "view",
      "type": "function"
    },
    {
      "inputs": [],
      "name": "proposalCount",
      "outputs": [
        {
          "internalType": "uint256",
          "name": "",
          "type": "uint256"
        }
      ],
      "stateMutability": "view",
      "type": "function"
    },
    {
      "inputs": [
        {
          "internalType": "uint256",
          "name": "",
          "type": "uint256"
        }
      ],
      "name": "proposalDescription",
      "outputs": [
        {
          "internalType": "string",
          "name": "",
          "type": "string"
        }
      ],
      "stateMutability": "view",
      "type": "function"
    },
    {
      "inputs": [
        {
          "internalType": "uint256",
          "name": "",
          "type": "uint256"
        }
      ],
      "name": "proposalEndTime",
      "outputs": [
        {
          "internalType": "uint256",
          "name": "",
          "type": "uint256"
        }
      ],
      "stateMutability": "view",
      "type": "function"
    },
    {
      "inputs": [
        {
          "internalType": "uint256",
          "name": "",
          "type": "uint256"
        }
      ],
      "name": "proposalExecuted",
      "outputs": [
        {
          "internalType": "bool",
          "name": "",
          "type": "bool"
        }
      ],
      "stateMutability": "view",
      "type": "function"
    },
    {
      "inputs": [
        {
          "internalType": "uint256",
          "name": "",
          "type": "uint256"
        }
      ],
      "name": "proposalForVotes",
      "outputs": [
        {
          "internalType": "uint256",
          "name": "",
          "type": "uint256"
        }
      ],
      "stateMutability": "view",
      "type": "function"
    },
    {
      "inputs": [
        {
          "internalType": "uint256",
          "name": "",
          "type": "uint256"
        }
      ],
      "name": "proposalProposer",
      "outputs": [
        {
          "internalType": "address",
          "name": "",
          "type": "address"
        }
      ],
      "stateMutability": "view",
      "type": "function"
    },
    {
      "inputs": [
        {
          "internalType": "uint256",
          "name": "",
          "type": "uint256"
        }
      ],
      "name": "proposalQueuedTime",
      "outputs": [
        {
          "internalType": "uint256",
          "name": "",
          "type": "uint256"
        }
      ],
      "stateMutability": "view",
      "type": "function"
    },
    {
      "inputs": [
        {
          "internalType": "uint256",
          "name": "",
          "type": "uint256"
        }
      ],
      "name": "proposalStartTime",
      "outputs": [
        {
          "internalType": "uint256",
          "name": "",
          "type": "uint256"
        }
      ],
      "stateMutability": "view",
      "type": "function"
    },
    {
      "inputs": [
        {
          "internalType": "uint256",
          "name": "",
          "type": "uint256"
        }
      ],
      "name": "proposalTarget",
      "outputs": [
        {
          "internalType": "address",
          "name": "",
          "type": "address"
        }
      ],
      "stateMutability": "view",
      "type": "function"
    },
    {
      "inputs": [
        {
          "internalType": "uint256",
          "name": "",
          "type": "uint256"
        }
      ],
      "name": "proposalType",
      "outputs": [
        {
          "internalType": "enum LakomiGovern.ProposalType",
          "name": "",
          "type": "uint8"
        }
      ],
      "stateMutability": "view",
      "type": "function"
    },
    {
      "inputs": [
        {
          "internalType": "uint256",
          "name": "",
          "type": "uint256"
        }
      ],
      "name": "proposalValue",
      "outputs": [
        {
          "internalType": "uint256",
          "name": "",
          "type": "uint256"
        }
      ],
      "stateMutability": "view",
      "type": "function"
    },
    {
      "inputs": [
        {
          "internalType": "uint256",
          "name": "",
          "type": "uint256"
        }
      ],
      "name": "proposalVetoed",
      "outputs": [
        {
          "internalType": "bool",
          "name": "",
          "type": "bool"
        }
      ],
      "stateMutability": "view",
      "type": "function"
    },
    {
      "inputs": [
        {
          "internalType": "uint256",
          "name": "proposalId",
          "type": "uint256"
        }
      ],
      "name": "queue",
      "outputs": [],
      "stateMutability": "nonpayable",
      "type": "function"
    },
    {
      "inputs": [],
      "name": "quorum",
      "outputs": [
        {
          "internalType": "uint256",
          "name": "",
          "type": "uint256"
        }
      ],
      "stateMutability": "view",
      "type": "function"
    },
    {
      "inputs": [],
      "name": "quorumNumerator",
      "outputs": [
        {
          "internalType": "uint256",
          "name": "",
          "type": "uint256"
        }
      ],
      "stateMutability": "view",
      "type": "function"
    },
    {
      "inputs": [],
      "name": "ratPeriod",
      "outputs": [
        {
          "internalType": "uint256",
          "name": "",
          "type": "uint256"
        }
      ],
      "stateMutability": "view",
      "type": "function"
    },
    {
      "inputs": [
        {
          "internalType": "bytes32",
          "name": "role",
          "type": "bytes32"
        },
        {
          "internalType": "address",
          "name": "callerConfirmation",
          "type": "address"
        }
      ],
      "name": "renounceRole",
      "outputs": [],
      "stateMutability": "nonpayable",
      "type": "function"
    },
    {
      "inputs": [
        {
          "internalType": "bytes32",
          "name": "role",
          "type": "bytes32"
        },
        {
          "internalType": "address",
          "name": "account",
          "type": "address"
        }
      ],
      "name": "revokeRole",
      "outputs": [],
      "stateMutability": "nonpayable",
      "type": "function"
    },
    {
      "inputs": [
        {
          "internalType": "string",
          "name": "description",
          "type": "string"
        }
      ],
      "name": "scheduleAnnualRAT",
      "outputs": [
        {
          "internalType": "uint256",
          "name": "",
          "type": "uint256"
        }
      ],
      "stateMutability": "nonpayable",
      "type": "function"
    },
    {
      "inputs": [
        {
          "internalType": "uint256",
          "name": "newTimelock",
          "type": "uint256"
        }
      ],
      "name": "setExecutionTimelock",
      "outputs": [],
      "stateMutability": "nonpayable",
      "type": "function"
    },
    {
      "inputs": [
        {
          "internalType": "uint256",
          "name": "newQuorum",
          "type": "uint256"
        }
      ],
      "name": "setQuorumNumerator",
      "outputs": [],
      "stateMutability": "nonpayable",
      "type": "function"
    },
    {
      "inputs": [
        {
          "internalType": "uint256",
          "name": "newPeriod",
          "type": "uint256"
        }
      ],
      "name": "setVotingPeriod",
      "outputs": [],
      "stateMutability": "nonpayable",
      "type": "function"
    },
    {
      "inputs": [
        {
          "internalType": "uint256",
          "name": "proposalId",
          "type": "uint256"
        }
      ],
      "name": "state",
      "outputs": [
        {
          "internalType": "enum LakomiGovern.ProposalState",
          "name": "",
          "type": "uint8"
        }
      ],
      "stateMutability": "view",
      "type": "function"
    },
    {
      "inputs": [
        {
          "internalType": "bytes4",
          "name": "interfaceId",
          "type": "bytes4"
        }
      ],
      "name": "supportsInterface",
      "outputs": [
        {
          "internalType": "bool",
          "name": "",
          "type": "bool"
        }
      ],
      "stateMutability": "view",
      "type": "function"
    },
    {
      "inputs": [],
      "name": "timeUntilNextRAT",
      "outputs": [
        {
          "internalType": "uint256",
          "name": "",
          "type": "uint256"
        }
      ],
      "stateMutability": "view",
      "type": "function"
    },
    {
      "inputs": [],
      "name": "token",
      "outputs": [
        {
          "internalType": "contract LakomiToken",
          "name": "",
          "type": "address"
        }
      ],
      "stateMutability": "view",
      "type": "function"
    },
    {
      "inputs": [],
      "name": "unpause",
      "outputs": [],
      "stateMutability": "nonpayable",
      "type": "function"
    },
    {
      "inputs": [],
      "name": "vaultAddress",
      "outputs": [
        {
          "internalType": "address",
          "name": "",
          "type": "address"
        }
      ],
      "stateMutability": "view",
      "type": "function"
    },
    {
      "inputs": [
        {
          "internalType": "uint256",
          "name": "proposalId",
          "type": "uint256"
        }
      ],
      "name": "vetoProposal",
      "outputs": [],
      "stateMutability": "nonpayable",
      "type": "function"
    },
    {
      "inputs": [
        {
          "internalType": "uint256",
          "name": "",
          "type": "uint256"
        },
        {
          "internalType": "address",
          "name": "",
          "type": "address"
        }
      ],
      "name": "voteChoice",
      "outputs": [
        {
          "internalType": "enum LakomiGovern.Vote",
          "name": "",
          "type": "uint8"
        }
      ],
      "stateMutability": "view",
      "type": "function"
    },
    {
      "inputs": [],
      "name": "votingPeriod",
      "outputs": [
        {
          "internalType": "uint256",
          "name": "",
          "type": "uint256"
        }
      ],
      "stateMutability": "view",
      "type": "function"
    }
  ],
  "bytecode": "0x60a0346200010657601f620023cd38819003918201601f19168301916001600160401b038311848410176200010b57808492608094604052833981010312620001065780516001600160a01b038116919082900362000106576020810151606060408301519201519260017f9b779b17422d0df92223018b32b4d1fa46e071723d6817e2486d003becc55f00558015620000f4576080526002556003556004556301e13380601755620000b23362000121565b50620000be33620001a1565b50604051612169908162000244823960805181818161046901528181610f550152818161145201528181611cd9015261205e0152f35b6040516396a8520b60e01b8152600490fd5b600080fd5b634e487b7160e01b600052604160045260246000fd5b6001600160a01b031660008181527fad3228b676f7d3cd4284a5443f17f1962b36e491b30a40b2405849e597ba5fb5602052604081205490919060ff166200019d57818052816020526040822081835260205260408220600160ff198254161790553391600080516020620023ad8339815191528180a4600190565b5090565b6001600160a01b031660008181527ff044b3c47881e3ae9e51c59c873357a894cd00624795b43e885f3238116afa3160205260408120549091907fb02c64f0c28be59776465b163fa919b01da504b3a5dda0ee188fa6d028017ec39060ff166200023e57808352826020526040832082845260205260408320600160ff19825416179055600080516020620023ad833981519152339380a4600190565b50509056fe608060408181526004908136101561001657600080fd5b600092833560e01c90816301ffc9a7146117765750806302a251a314611757578063103616e81461172a57806313e11292146113fb578063143489d0146113c85780631703a018146113ab578063248a9ca3146113815780632a09c7721461134f5780632ce809151461132d5780632f2ff15d1461130557806336568abe146112be5780633830fdea146112815780633a29f85914610ec05780633e4f49e614610e7b5780633f4ba83a14610e1157806340e58ee514610d55578063430bf08a14610d2c5780634385963214610ce55780634cd2fc4014610cbf5780635678138814610c975780635c975abb14610c735780635dc4d8a614610c405780636e18113c14610c135780636f65108c14610b835780636fef541a14610b67578063737594ce14610b455780637780611814610b2757806378223af314610b035780637b3c71d314610a9c5780638456cb5914610a8257806391d1485414610a3c5780639461645114610a145780639c92fbc3146109ec578063a217fddf146109d1578063a7713a70146109b2578063a7e228601461098a578063a8f6bc2d1461096b578063abddc32714610894578063bb0fd75714610875578063bd468fe61461084d578063bd6af84814610820578063c7f758a814610733578063c8bb4dd51461070b578063ca2525f6146106e3578063d00a9f06146106bb578063d3bc2b8d14610680578063d547741f14610643578063da35c66414610624578063ddf0b00914610578578063ea0217cf14610556578063eb580dfe146104ea578063fb4688551461049c578063fc0c546a146104545763fe0d94c11461027657600080fd5b34610450576020918260031936011261044c57803591610294611c4a565b82855260118452808520541561043f57828552601184526102ba81862054835490611bab565b4210610433578285526012845260ff818620541661042657828552601284528085209360019460ff19908682825416179055600982528660018060a01b038482205416600a84528482205492600b8552858320938651918495805461031e81611836565b92818e169182156104125750506001146103d7575b505081849503925af1903d156103d1573d9067ffffffffffffffff82116103be57879084519261036c82601f19601f8401160185611870565b83523d92013e5b156103b15750507f712ae1383f79ac853f8d882153778e0260ef8f03b504e2866e0593e04d2b291f8380a26000805160206120f48339815191525580f35b5163816a6f3160e01b8152fd5b634e487b7160e01b885260418552602488fd5b50610373565b9095508452858420868b86925b8884106103fa5750505050818495810195610333565b8054868501528e9750929091019188918d91016103e4565b168552505080151502820194508184610333565b516338dbd33b60e11b8152fd5b51625c929960e81b8152fd5b516309ea93c360e41b8152fd5b8380fd5b8280fd5b838234610498578160031936011261049857517f00000000000000000000000000000000000000000000000000000000000000006001600160a01b03168152602090f35b5080fd5b509034610450578160031936011261045057816104e69360ff926104be611820565b9035825260166020528282209060018060a01b0316825260205220541690519182918261198e565b0390f35b5090346104505782600319360112610450576105046119f9565b6001549060ff821661054857507f62e78cea01bee320cd4e420270b5ea74000d11b0c9f74754ebdbfc544b05a25891600160209260ff19161760015551338152a180f35b825163d93c066560e01b8152fd5b505034610498576020366003190112610498576105716119a1565b3560025580f35b503461045057602036600319011261045057813591610595611c4a565b61059e83611f15565b6009811015610611578103610603577f9a2e42fd6722813d69113e7d0079d3d940171428df7373df9c7f7617cfda2892916105e86020928587526011845242838820555442611bab565b9051908152a260016000805160206120f48339815191525580f35b90516309ea93c360e41b8152fd5b634e487b7160e01b855260218252602485fd5b8382346104985781600319360112610498576020906005549051908152f35b503461045057806003193601126104505761067c91356106776001610666611820565b938387528660205286200154611a55565b611af9565b5080f35b838234610498578160031936011261049857602090517fb02c64f0c28be59776465b163fa919b01da504b3a5dda0ee188fa6d028017ec38152f35b5090346104505760203660031901126104505760209282913581526010845220549051908152f35b509034610450576020366003190112610450576020928291358152600a845220549051908152f35b509034610450576020366003190112610450576020928291358152600c845220549051908152f35b508290346104985760209283600319360112610450573582526006835260018060a01b03818320541691600784528380838320926008825260ff8582205416600f8352858220546010845286832054600c85528784205491600d86526107eb8986205494600e88526107e26107ca60ff8d808b20549a60128d5260138383832054169d5260148383832054169e522054169b6118a8565b8c519e8f9e8f9081526101608092820152019061194e565b9a8c01906117fd565b60608a0152608089015260a088015260c087015260e08601521515610100850152151561012084015215156101408301520390f35b509034610450576020366003190112610450578160209360ff923581526014855220541690519015158152f35b509034610450576020366003190112610450576020928291358152600e845220549051908152f35b8382346104985781600319360112610498576020906018549051908152f35b5034610450576020918260031936011261044c57358352600b82528083208151938491818154906108c482611836565b92838652600192888482169182600014610941575050600114610903575b85886104e6896108f4848a0385611870565b5192828493845283019061194e565b87945081939291528383205b82841061092957505050820101816108f46104e6386108e2565b8054848a01860152889550879490930192810161090f565b60ff19168882015294151560051b870190940194508593506108f492506104e691503890506108e2565b8382346104985781600319360112610498576020906017549051908152f35b509034610450576020366003190112610450576020928291358152600d845220549051908152f35b8382346104985781600319360112610498576020906003549051908152f35b83823461049857816003193601126104985751908152602090f35b5090346104505760203660031901126104505760209282913581526011845220549051908152f35b509034610450576020366003190112610450576020928291358152600f845220549051908152f35b5090346104505781600319360112610450578160209360ff92610a5d611820565b903582528186528282206001600160a01b039091168252855220549151911615158152f35b5090346104505782600319360112610450576105046119a1565b505034610498576060366003190112610498576024356003811015610450576044359167ffffffffffffffff831161044c57610ade610aee93369083016117ca565b5050610ae8611c4a565b35611c7a565b60016000805160206120f48339815191525580f35b838234610498578160031936011261049857602090610b20611ee5565b9051908152f35b50903461045057826003193601126104505760209250549051908152f35b50503461049857602036600319011261049857610b606119a1565b3560035580f35b8382346104985781600319360112610498576020905160648152f35b503461045057602036600319011261045057813591610ba06119f9565b828452601260205260ff8285205416610c0557828452601360205260ff8285205416610c05575081835260146020528220805460ff1916600117905533907fc2131db10d833d6b93ae553fa450ea0f6c0c2dfb0160cb3309468bf72718f3eb8380a380f35b90516338dbd33b60e11b8152fd5b509034610450576020366003190112610450578160209360ff923581526013855220541690519015158152f35b5090346104505760203660031901126104505735825260096020908152918190205490516001600160a01b039091168152f35b83823461049857816003193601126104985760209060ff6001541690519015158152f35b50346104505736600319011261049857602435600381101561045057610aee91610ae8611c4a565b838234610498578160031936011261049857602090610cdc611ec4565b90519015158152f35b5090346104505781600319360112610450578160209360ff92610d06611820565b90358252601586528282206001600160a01b039091168252855220549151911615158152f35b83823461049857816003193601126104985760195490516001600160a01b039091168152602090f35b50346104505760208060031936011261044c578235928385526006825260018060a01b03838620541633141580610df5575b610de7578385526012825260ff8386205416610dd95750828452601390528220805460ff191660011790557f789cf55be980739dad1d0699b93b58e806b51c9d96619bfa8fe0a28abaa7b30c8280a280f35b82516338dbd33b60e11b8152fd5b82516324dbeac960e11b8152fd5b50848052848252828520338652825260ff838620541615610d87565b509034610450578260031936011261045057610e2b6119a1565b6001549060ff821615610e6d575060ff1916600155513381527f5db9ee0a495bf2e6ff9c91a7834c1ba4fdd244a5e8aa4e537bd38aeae4b073aa90602090a180f35b8251638dfc202b60e01b8152fd5b5082903461049857602036600319011261049857610e998335611f15565b9051916009821015610ead57602083838152f35b634e487b7160e01b815260218452602490fd5b508290346104985760a03660031901126104985767ffffffffffffffff833581811161044c57610ef390369086016117ca565b91906005602435101561127d57604435946001600160a01b039283871687036104985760843581811161045057610f2d9036908a016117ca565b90610f36611c4a565b861561126d578751636a6b9a6160e01b8152338b8201526020816024817f00000000000000000000000000000000000000000000000000000000000000008b165afa908115611263578591611234575b50156112245760055498610f998a611b86565b600555610fa860025442611bab565b968a86526006602052898620906bffffffffffffffffffffffff60a01b91338382541617905560076020528a8720868b1161121057610ff18b610feb8354611836565b83611bcf565b8a88601f82116001146111a857899161119d575b508b60011b906000198d60031b1c19161790555b8b875260086020528a872060ff1981541660ff6024351617905560096020528a8720921690825416179055600a60205260643588852055600b60205287842092821161118a5760209950918189959361107f8a9896946110798554611836565b85611bcf565b8390601f831160011461110a5791806000805160206121148339815191529899949286948997926110ff575b50508160011b916000199060031b1c19161790555b868152600f8b52428282205560108b5220556110e486519283923397429185611c14565b0390a360016000805160206120f48339815191525551908152f35b013590508e806110ab565b8385528c85209894939291601f198316855b81811061116d57509960019284928a989796956000805160206121148339815191529c9d10611153575b505050811b0190556110c0565b0135600019600384901b60f8161c191690558e8080611146565b828401358c556001909b019a8e9a508d9750918f01918f0161111c565b634e487b7160e01b845260418a52602484fd5b90508901358f611005565b828a5260208a209150898b8e5b601f191682106111f65750508c601f198116106111dc575b505060018b811b019055611019565b8a013560001960038e901b60f8161c191690558e806111cd565b600183946020939484930135815501930191018b8e6111b5565b50634e487b7160e01b875260418d52602487fd5b8751639450a1d360e01b81528a90fd5b611256915060203d60201161125c575b61124e8183611870565b810190611b6e565b8b610f86565b503d611244565b89513d87823e3d90fd5b875163018e0a1560e51b81528a90fd5b8480fd5b50903461045057602036600319011261045057816104e6936112ab923581526007602052206118a8565b905191829160208352602083019061194e565b508290346104985780600319360112610498576112d9611820565b90336001600160a01b038316036112f6575061067c919235611af9565b5163334bd91960e11b81528390fd5b503461045057806003193601126104505761067c91356113286001610666611820565b611a7b565b505034610498576020366003190112610498576113486119a1565b8035905580f35b5090346104505760203660031901126104505760ff8260209461137f9335815260088652205416915180926117fd565bf35b50903461045057602036600319011261045057816020936001923581528085522001549051908152f35b838234610498578160031936011261049857602090610b20612049565b5090346104505760203660031901126104505735825260066020908152918190205490516001600160a01b039091168152f35b5082903461049857602092836003193601126104505767ffffffffffffffff813581811161127d5761143090369084016117ca565b929061143a611c4a565b8451636a6b9a6160e01b8152338382015287816024817f00000000000000000000000000000000000000000000000000000000000000006001600160a01b03165afa908115611720578791611703575b50156116f45760185480151590816116de575b506116cf57600554956114af87611b86565b6005556114be60025442611bab565b9287825260068952868220906bffffffffffffffffffffffff60a01b91338382541617905560078a528783209587116116bc575087939291879161150c886115068954611836565b89611bcf565b819688601f811160011461162d5790839291600080516020612114833981519152989988969591611622575b508a60011b906000198c60031b1c19161790555b87825260088c52828220600360ff1982541617905560098c52828220908154169055600a8b528082812055600b8b5260008282208c61158b8254611836565b601f8111611603575b505055868152600f8b52428282205560108b522055426018556115bf86519283923397429185611c14565b0390a3817fe07e33b3979d2ee923e3a1494b77f27c97acf236ae98804de7e3846b899639b6848351428152a260016000805160206120f48339815191525551908152f35b601f61161b928487528620910160051c810190611bb8565b8c8e611594565b90508601358e611538565b508083528b83208c988a601f198116865b81811061169057506000805160206121148339815191529a9b5090899796959493929110611676575b505060018a811b01905561154c565b87013560001960038d901b60f8161c191690558d80611667565b95989a509396505093969860018192868b013581550194019201928b9795928a8c96938f9b999661163e565b634e487b7160e01b835260419052602482fd5b5083516316bbed0f60e31b8152fd5b6116ec915060175490611bab565b42108861149d565b508351639450a1d360e01b8152fd5b61171a9150883d8a1161125c5761124e8183611870565b8861148a565b86513d89823e3d90fd5b509034610450576020366003190112610450578160209360ff923581526012855220541690519015158152f35b8382346104985781600319360112610498576020906002549051908152f35b84908434610450576020366003190112610450573563ffffffff60e01b81168091036104505760209250637965db0b60e01b81149081156117b9575b5015158152f35b6301ffc9a760e01b149050836117b2565b9181601f840112156117f85782359167ffffffffffffffff83116117f857602083818601950101116117f857565b600080fd5b90600582101561180a5752565b634e487b7160e01b600052602160045260246000fd5b602435906001600160a01b03821682036117f857565b90600182811c92168015611866575b602083101461185057565b634e487b7160e01b600052602260045260246000fd5b91607f1691611845565b90601f8019910116810190811067ffffffffffffffff82111761189257604052565b634e487b7160e01b600052604160045260246000fd5b90604051918260008254926118bc84611836565b90818452600194858116908160001461192b57506001146118e8575b50506118e692500383611870565b565b9093915060005260209081600020936000915b8183106119135750506118e6935082010138806118d8565b855488840185015294850194879450918301916118fb565b9150506118e694506020925060ff191682840152151560051b82010138806118d8565b919082519283825260005b84811061197a575050826000602080949584010152601f8019910116010190565b602081830181015184830182015201611959565b91906020830192600382101561180a5752565b3360009081527fad3228b676f7d3cd4284a5443f17f1962b36e491b30a40b2405849e597ba5fb5602052604081205460ff16156119db5750565b6044906040519063e2517d3f60e01b82523360048301526024820152fd5b3360009081527ff044b3c47881e3ae9e51c59c873357a894cd00624795b43e885f3238116afa3160205260409020547fb02c64f0c28be59776465b163fa919b01da504b3a5dda0ee188fa6d028017ec39060ff16156119db5750565b80600052600060205260406000203360005260205260ff60406000205416156119db5750565b9060009180835282602052604083209160018060a01b03169182845260205260ff60408420541615600014611af457808352826020526040832082845260205260408320600160ff198254161790557f2f8788117e7eff1d82e926ec794901d17c78024a50270940304540a733656f0d339380a4600190565b505090565b9060009180835282602052604083209160018060a01b03169182845260205260ff604084205416600014611af45780835282602052604083208284526020526040832060ff1981541690557ff6391f5c32d9c69d2a47ea670b442974b53935d1edc7fd64eb21e047a839171b339380a4600190565b908160209103126117f8575180151581036117f85790565b6000198114611b955760010190565b634e487b7160e01b600052601160045260246000fd5b91908201809211611b9557565b818110611bc3575050565b60008155600101611bb8565b9190601f8111611bde57505050565b6118e6926000526020600020906020601f840160051c83019310611c0a575b601f0160051c0190611bb8565b9091508190611bfd565b90826040936080929796959760608552816060860152838501376000828285010152601f80199101168201019460208201520152565b6000805160206120f48339815191526002815414611c685760029055565b604051633ee5aeb560e01b8152600490fd5b9190611c8583611f15565b92600984101561180a576001809403611eb257600081815260209460158652604091828120338252875260ff8382205416611ea1578251636a6b9a6160e01b815233600480830191909152979081816024817f00000000000000000000000000000000000000000000000000000000000000006001600160a01b03165afa908115611e97578391611e7a575b5015611e6a5784825260158152838220338352815283822060ff19908482825416179055858352601682528483203384528252848320906003881015611e575781541660ff8816179055828614600014611dca57600c9085835252828120908154928301809311611db757507feba4866100b822f0f391e610e7edfab790b9e8766c0012733c26b2f1858e8dd79394959650555b5180611db233958261198e565b0390a3565b634e487b7160e01b815260118852602490fd5b85611e1357600d9085835252828120908154928301809311611db757507feba4866100b822f0f391e610e7edfab790b9e8766c0012733c26b2f1858e8dd7939495965055611da5565b600e9085835252828120908154928301809311611db757507feba4866100b822f0f391e610e7edfab790b9e8766c0012733c26b2f1858e8dd7939495965055611da5565b634e487b7160e01b845260218a52602484fd5b8351639450a1d360e01b81528890fd5b611e919150823d841161125c5761124e8183611870565b38611d11565b85513d85823e3d90fd5b8251631b19daf560e21b8152600490fd5b60405163b6436b9560e01b8152600490fd5b6018548015611edf57601754611ed991611bab565b42101590565b50600190565b6018548015611f0f57601754611efa91611bab565b80421015611f0f57428103908111611b955790565b50600090565b60009080825260206013815260409160ff8385205416612040576014825260ff8385205416612037576012825260ff838520541661202e57600f8252828420544210612028576010825282842054421061201f57600c8252611f96611f8584862054600d85528587205490611bab565b828652600e84528486205490611bab565b611f9e612049565b11612016578352600c815281832054600d825282842054101561200e5760119052812054801561200757600454611fd491611bab565b90621275008201809211611ff357504211611fee57600590565b600690565b634e487b7160e01b81526011600452602490fd5b5050600490565b505050600390565b50505050600390565b50505050600190565b50505090565b50505050600790565b50505050600890565b50505050600290565b60405163997072f760e01b81526020816004817f00000000000000000000000000000000000000000000000000000000000000006001600160a01b03165afa9081156120e7576000916120b3575b5060035490818102918183041490151715611b95576064900490565b906020823d82116120df575b816120cc60209383611870565b810103126120dc57505138612097565b80fd5b3d91506120bf565b6040513d6000823e3d90fdfe9b779b17422d0df92223018b32b4d1fa46e071723d6817e2486d003becc55f006c98a8c940418b35614f0cd02412d5c9606faff474cbb6cdd6640ba5d1a9f06ba2646970667358221220996c190cc547f0bcb2f065ff6c702bb2dec68ba4574572aed0a8fe5f0ef2648d64736f6c634300081400332f8788117e7eff1d82e926ec794901d17c78024a50270940304540a733656f0d",
  "linkReferences": {},
  "deployedLinkReferences": {}
}