{
  "_format": "hh-sol-artifact-1",
  "contractName": "LakomiGovern",
  "sourceName": "contracts/LakomiGovern.sol",
  "abi": [
    {
      "inputs": [
        {
          "internalType": "address",
          "name": "_token",
          "type": "address"
        },
        {
          "internalType": "uint256",
          "name": "_votingPeriod",
          "type": "uint256"
        },
        {
          "internalType": "uint256",
          "name": "_quorumNumerator",
          "type": "uint256"
        },
        {
          "internalType": "uint256",
          "name": "_executionTimelock",
          "type": "uint256"
        }
      ],
      "stateMutability": "nonpayable",
      "type": "constructor"
    },
    {
      "inputs": [],
      "name": "AccessControlBadConfirmation",
      "type": "error"
    },
    {
      "inputs": [
        {
          "internalType": "address",
          "name": "account",
          "type": "address"
        },
        {
          "internalType": "bytes32",
          "name": "neededRole",
          "type": "bytes32"
        }
      ],
      "name": "AccessControlUnauthorizedAccount",
      "type": "error"
    },
    {
      "inputs": [],
      "name": "EnforcedPause",
      "type": "error"
    },
    {
      "inputs": [],
      "name": "ExpectedPause",
      "type": "error"
    },
    {
      "inputs": [],
      "name": "LakomiGovern__AlreadyExecuted",
      "type": "error"
    },
    {
      "inputs": [],
      "name": "LakomiGovern__AlreadyVoted",
      "type": "error"
    },
    {
      "inputs": [],
      "name": "LakomiGovern__EmptyDescription",
      "type": "error"
    },
    {
      "inputs": [],
      "name": "LakomiGovern__ExecutionFailed",
      "type": "error"
    },
    {
      "inputs": [],
      "name": "LakomiGovern__NotPengawas",
      "type": "error"
    },
    {
      "inputs": [],
      "name": "LakomiGovern__NotProposer",
      "type": "error"
    },
    {
      "inputs": [],
      "name": "LakomiGovern__NotRegisteredMember",
      "type": "error"
    },
    {
      "inputs": [],
      "name": "LakomiGovern__ProposalNotActive",
      "type": "error"
    },
    {
      "inputs": [],
      "name": "LakomiGovern__ProposalNotSucceeded",
      "type": "error"
    },
    {
      "inputs": [],
      "name": "LakomiGovern__ProposalVetoed",
      "type": "error"
    },
    {
      "inputs": [],
      "name": "LakomiGovern__RATNotDue",
      "type": "error"
    },
    {
      "inputs": [],
      "name": "LakomiGovern__TimelockNotMet",
      "type": "error"
    },
    {
      "inputs": [],
      "name": "LakomiGovern__ZeroAddress",
      "type": "error"
    },
    {
      "inputs": [],
      "name": "ReentrancyGuardReentrantCall",
      "type": "error"
    },
    {
      "anonymous": false,
      "inputs": [
        {
          "indexed": false,
          "internalType": "address",
          "name": "account",
          "type": "address"
        }
      ],
      "name": "Paused",
      "type": "event"
    },
    {
      "anonymous": false,
      "inputs": [
        {
          "indexed": true,
          "internalType": "uint256",
          "name": "id",
          "type": "uint256"
        }
      ],
      "name": "ProposalCanceled",
      "type": "event"
    },
    {
      "anonymous": false,
      "inputs": [
        {
          "indexed": true,
          "internalType": "uint256",
          "name": "id",
          "type": "uint256"
        },
        {
          "indexed": true,
          "internalType": "address",
          "name": "proposer",
          "type": "address"
        },
        {
          "indexed": false,
          "internalType": "string",
          "name": "description",
          "type": "string"
        },
        {
          "indexed": false,
          "internalType": "uint256",
          "name": "startTime",
          "type": "uint256"
        },
        {
          "indexed": false,
          "internalType": "uint256",
          "name": "endTime",
          "type": "uint256"
        }
      ],
      "name": "ProposalCreated",
      "type": "event"
    },
    {
      "anonymous": false,
      "inputs": [
        {
          "indexed": true,
          "internalType": "uint256",
          "name": "id",
          "type": "uint256"
        }
      ],
      "name": "ProposalExecuted",
      "type": "event"
    },
    {
      "anonymous": false,
      "inputs": [
        {
          "indexed": true,
          "internalType": "uint256",
          "name": "id",
          "type": "uint256"
        },
        {
          "indexed": false,
          "internalType": "uint256",
          "name": "eta",
          "type": "uint256"
        }
      ],
      "name": "ProposalQueued",
      "type": "event"
    },
    {
      "anonymous": false,
      "inputs": [
        {
          "indexed": true,
          "internalType": "uint256",
          "name": "id",
          "type": "uint256"
        },
        {
          "indexed": true,
          "internalType": "address",
          "name": "pengawas",
          "type": "address"
        }
      ],
      "name": "ProposalVetoed",
      "type": "event"
    },
    {
      "anonymous": false,
      "inputs": [
        {
          "indexed": true,
          "internalType": "uint256",
          "name": "proposalId",
          "type": "uint256"
        },
        {
          "indexed": false,
          "internalType": "uint256",
          "name": "scheduledTime",
          "type": "uint256"
        }
      ],
      "name": "RATScheduled",
      "type": "event"
    },
    {
      "anonymous": false,
      "inputs": [
        {
          "indexed": true,
          "internalType": "bytes32",
          "name": "role",
          "type": "bytes32"
        },
        {
          "indexed": true,
          "internalType": "bytes32",
          "name": "previousAdminRole",
          "type": "bytes32"
        },
        {
          "indexed": true,
          "internalType": "bytes32",
          "name": "newAdminRole",
          "type": "bytes32"
        }
      ],
      "name": "RoleAdminChanged",
      "type": "event"
    },
    {
      "anonymous": false,
      "inputs": [
        {
          "indexed": true,
          "internalType": "bytes32",
          "name": "role",
          "type": "bytes32"
        },
        {
          "indexed": true,
          "internalType": "address",
          "name": "account",
          "type": "address"
        },
        {
          "indexed": true,
          "internalType": "address",
          "name": "sender",
          "type": "address"
        }
      ],
      "name": "RoleGranted",
      "type": "event"
    },
    {
      "anonymous": false,
      "inputs": [
        {
          "indexed": true,
          "internalType": "bytes32",
          "name": "role",
          "type": "bytes32"
        },
        {
          "indexed": true,
          "internalType": "address",
          "name": "account",
          "type": "address"
        },
        {
          "indexed": true,
          "internalType": "address",
          "name": "sender",
          "type": "address"
        }
      ],
      "name": "RoleRevoked",
      "type": "event"
    },
    {
      "anonymous": false,
      "inputs": [
        {
          "indexed": false,
          "internalType": "address",
          "name": "account",
          "type": "address"
        }
      ],
      "name": "Unpaused",
      "type": "event"
    },
    {
      "anonymous": false,
      "inputs": [
        {
          "indexed": true,
          "internalType": "uint256",
          "name": "proposalId",
          "type": "uint256"
        },
        {
          "indexed": true,
          "internalType": "address",
          "name": "voter",
          "type": "address"
        },
        {
          "indexed": false,
          "internalType": "enum LakomiGovern.Vote",
          "name": "support",
          "type": "uint8"
        }
      ],
      "name": "VoteCast",
      "type": "event"
    },
    {
      "inputs": [],
      "name": "DEFAULT_ADMIN_ROLE",
      "outputs": [
        {
          "internalType": "bytes32",
          "name": "",
          "type": "bytes32"
        }
      ],
      "stateMutability": "view",
      "type": "function"
    },
    {
      "inputs": [],
      "name": "PENGAWAS_ROLE",
      "outputs": [
        {
          "internalType": "bytes32",
          "name": "",
          "type": "bytes32"
        }
      ],
      "stateMutability": "view",
      "type": "function"
    },
    {
      "inputs": [],
      "name": "QUORUM_DENOMINATOR",
      "outputs": [
        {
          "internalType": "uint256",
          "name": "",
          "type": "uint256"
        }
      ],
      "stateMutability": "view",
      "type": "function"
    },
    {
      "inputs": [
        {
          "internalType": "uint256",
          "name": "proposalId",
          "type": "uint256"
        }
      ],
      "name": "cancel",
      "outputs": [],
      "stateMutability": "nonpayable",
      "type": "function"
    },
    {
      "inputs": [
        {
          "internalType": "uint256",
          "name": "proposalId",
          "type": "uint256"
        },
        {
          "internalType": "enum LakomiGovern.Vote",
          "name": "support",
          "type": "uint8"
        }
      ],
      "name": "castVote",
      "outputs": [],
      "stateMutability": "nonpayable",
      "type": "function"
    },
    {
      "inputs": [
        {
          "internalType": "uint256",
          "name": "proposalId",
          "type": "uint256"
        },
        {
          "internalType": "enum LakomiGovern.Vote",
          "name": "support",
          "type": "uint8"
        },
        {
          "internalType": "string",
          "name": "",
          "type": "string"
        }
      ],
      "name": "castVoteWithReason",
      "outputs": [],
      "stateMutability": "nonpayable",
      "type": "function"
    },
    {
      "inputs": [
        {
          "internalType": "string",
          "name": "description",
          "type": "string"
        },
        {
          "internalType": "enum LakomiGovern.ProposalType",
          "name": "_proposalType",
          "type": "uint8"
        },
        {
          "internalType": "address",
          "name": "target",
          "type": "address"
        },
        {
          "internalType": "uint256",
          "name": "value",
          "type": "uint256"
        },
        {
          "internalType": "bytes",
          "name": "callData",
          "type": "bytes"
        }
      ],
      "name": "createProposal",
      "outputs": [
        {
          "internalType": "uint256",
          "name": "",
          "type": "uint256"
        }
      ],
      "stateMutability": "nonpayable",
      "type": "function"
    },
    {
      "inputs": [
        {
          "internalType": "uint256",
          "name": "proposalId",
          "type": "uint256"
        }
      ],
      "name": "execute",
      "outputs": [],
      "stateMutability": "nonpayable",
      "type": "function"
    },
    {
      "inputs": [],
      "name": "executionTimelock",
      "outputs": [
        {
          "internalType": "uint256",
          "name": "",
          "type": "uint256"
        }
      ],
      "stateMutability": "view",
      "type": "function"
    },
    {
      "inputs": [
        {
          "internalType": "bytes32",
          "name": "role",
          "type": "bytes32"
        }
      ],
      "name": "getRoleAdmin",
      "outputs": [
        {
          "internalType": "bytes32",
          "name": "",
          "type": "bytes32"
        }
      ],
      "stateMutability": "view",
      "type": "function"
    },
    {
      "inputs": [
        {
          "internalType": "bytes32",
          "name": "role",
          "type": "bytes32"
        },
        {
          "internalType": "address",
          "name": "account",
          "type": "address"
        }
      ],
      "name": "grantRole",
      "outputs": [],
      "stateMutability": "nonpayable",
      "type": "function"
    },
    {
      "inputs": [
        {
          "internalType": "bytes32",
          "name": "role",
          "type": "bytes32"
        },
        {
          "internalType": "address",
          "name": "account",
          "type": "address"
        }
      ],
      "name": "hasRole",
      "outputs": [
        {
          "internalType": "bool",
          "name": "",
          "type": "bool"
        }
      ],
      "stateMutability": "view",
      "type": "function"
    },
    {
      "inputs": [
        {
          "internalType": "uint256",
          "name": "",
          "type": "uint256"
        },
        {
          "internalType": "address",
          "name": "",
          "type": "address"
        }
      ],
      "name": "hasVoted",
      "outputs": [
        {
          "internalType": "bool",
          "name": "",
          "type": "bool"
        }
      ],
      "stateMutability": "view",
      "type": "function"
    },
    {
      "inputs": [],
      "name": "isRATDue",
      "outputs": [
        {
          "internalType": "bool",
          "name": "",
          "type": "bool"
        }
      ],
      "stateMutability": "view",
      "type": "function"
    },
    {
      "inputs": [],
      "name": "lastRATTime",
      "outputs": [
        {
          "internalType": "uint256",
          "name": "",
          "type": "uint256"
        }
      ],
      "stateMutability": "view",
      "type": "function"
    },
    {
      "inputs": [],
      "name": "pause",
      "outputs": [],
      "stateMutability": "nonpayable",
      "type": "function"
    },
    {
      "inputs": [],
      "name": "paused",
      "outputs": [
        {
          "internalType": "bool",
          "name": "",
          "type": "bool"
        }
      ],
      "stateMutability": "view",
      "type": "function"
    },
    {
      "inputs": [],
      "name": "pengawasPause",
      "outputs": [],
      "stateMutability": "nonpayable",
      "type": "function"
    },
    {
      "inputs": [
        {
          "internalType": "uint256",
          "name": "",
          "type": "uint256"
        }
      ],
      "name": "proposalAbstainVotes",
      "outputs": [
        {
          "internalType": "uint256",
          "name": "",
          "type": "uint256"
        }
      ],
      "stateMutability": "view",
      "type": "function"
    },
    {
      "inputs": [
        {
          "internalType": "uint256",
          "name": "",
          "type": "uint256"
        }
      ],
      "name": "proposalAgainstVotes",
      "outputs": [
        {
          "internalType": "uint256",
          "name": "",
          "type": "uint256"
        }
      ],
      "stateMutability": "view",
      "type": "function"
    },
    {
      "inputs": [
        {
          "internalType": "uint256",
          "name": "",
          "type": "uint256"
        }
      ],
      "name": "proposalCallData",
      "outputs": [
        {
          "internalType": "bytes",
          "name": "",
          "type": "bytes"
        }
      ],
      "stateMutability": "view",
      "type": "function"
    },
    {
      "inputs": [
        {
          "internalType": "uint256",
          "name": "",
          "type": "uint256"
        }
      ],
      "name": "proposalCanceled",
      "outputs": [
        {
          "internalType": "bool",
          "name": "",
          "type": "bool"
        }
      ],
      "stateMutability": "view",
      "type": "function"
    },
    {
      "inputs": [],
      "name": "proposalCount",
      "outputs": [
        {
          "internalType": "uint256",
          "name": "",
          "type": "uint256"
        }
      ],
      "stateMutability": "view",
      "type": "function"
    },
    {
      "inputs": [
        {
          "internalType": "uint256",
          "name": "",
          "type": "uint256"
        }
      ],
      "name": "proposalDescription",
      "outputs": [
        {
          "internalType": "string",
          "name": "",
          "type": "string"
        }
      ],
      "stateMutability": "view",
      "type": "function"
    },
    {
      "inputs": [
        {
          "internalType": "uint256",
          "name": "",
          "type": "uint256"
        }
      ],
      "name": "proposalEndTime",
      "outputs": [
        {
          "internalType": "uint256",
          "name": "",
          "type": "uint256"
        }
      ],
      "stateMutability": "view",
      "type": "function"
    },
    {
      "inputs": [
        {
          "internalType": "uint256",
          "name": "",
          "type": "uint256"
        }
      ],
      "name": "proposalExecuted",
      "outputs": [
        {
          "internalType": "bool",
          "name": "",
          "type": "bool"
        }
      ],
      "stateMutability": "view",
      "type": "function"
    },
    {
      "inputs": [
        {
          "internalType": "uint256",
          "name": "",
          "type": "uint256"
        }
      ],
      "name": "proposalForVotes",
      "outputs": [
        {
          "internalType": "uint256",
          "name": "",
          "type": "uint256"
        }
      ],
      "stateMutability": "view",
      "type": "function"
    },
    {
      "inputs": [
        {
          "internalType": "uint256",
          "name": "",
          "type": "uint256"
        }
      ],
      "name": "proposalProposer",
      "outputs": [
        {
          "internalType": "address",
          "name": "",
          "type": "address"
        }
      ],
      "stateMutability": "view",
      "type": "function"
    },
    {
      "inputs": [
        {
          "internalType": "uint256",
          "name": "",
          "type": "uint256"
        }
      ],
      "name": "proposalQueuedTime",
      "outputs": [
        {
          "internalType": "uint256",
          "name": "",
          "type": "uint256"
        }
      ],
      "stateMutability": "view",
      "type": "function"
    },
    {
      "inputs": [
        {
          "internalType": "uint256",
          "name": "",
          "type": "uint256"
        }
      ],
      "name": "proposalStartTime",
      "outputs": [
        {
          "internalType": "uint256",
          "name": "",
          "type": "uint256"
        }
      ],
      "stateMutability": "view",
      "type": "function"
    },
    {
      "inputs": [
        {
          "internalType": "uint256",
          "name": "",
          "type": "uint256"
        }
      ],
      "name": "proposalTarget",
      "outputs": [
        {
          "internalType": "address",
          "name": "",
          "type": "address"
        }
      ],
      "stateMutability": "view",
      "type": "function"
    },
    {
      "inputs": [
        {
          "internalType": "uint256",
          "name": "",
          "type": "uint256"
        }
      ],
      "name": "proposalType",
      "outputs": [
        {
          "internalType": "enum LakomiGovern.ProposalType",
          "name": "",
          "type": "uint8"
        }
      ],
      "stateMutability": "view",
      "type": "function"
    },
    {
      "inputs": [
        {
          "internalType": "uint256",
          "name": "",
          "type": "uint256"
        }
      ],
      "name": "proposalValue",
      "outputs": [
        {
          "internalType": "uint256",
          "name": "",
          "type": "uint256"
        }
      ],
      "stateMutability": "view",
      "type": "function"
    },
    {
      "inputs": [
        {
          "internalType": "uint256",
          "name": "",
          "type": "uint256"
        }
      ],
      "name": "proposalVetoed",
      "outputs": [
        {
          "internalType": "bool",
          "name": "",
          "type": "bool"
        }
      ],
      "stateMutability": "view",
      "type": "function"
    },
    {
      "inputs": [
        {
          "internalType": "uint256",
          "name": "proposalId",
          "type": "uint256"
        }
      ],
      "name": "queue",
      "outputs": [],
      "stateMutability": "nonpayable",
      "type": "function"
    },
    {
      "inputs": [],
      "name": "quorum",
      "outputs": [
        {
          "internalType": "uint256",
          "name": "",
          "type": "uint256"
        }
      ],
      "stateMutability": "view",
      "type": "function"
    },
    {
      "inputs": [],
      "name": "quorumNumerator",
      "outputs": [
        {
          "internalType": "uint256",
          "name": "",
          "type": "uint256"
        }
      ],
      "stateMutability": "view",
      "type": "function"
    },
    {
      "inputs": [],
      "name": "ratPeriod",
      "outputs": [
        {
          "internalType": "uint256",
          "name": "",
          "type": "uint256"
        }
      ],
      "stateMutability": "view",
      "type": "function"
    },
    {
      "inputs": [
        {
          "internalType": "bytes32",
          "name": "role",
          "type": "bytes32"
        },
        {
          "internalType": "address",
          "name": "callerConfirmation",
          "type": "address"
        }
      ],
      "name": "renounceRole",
      "outputs": [],
      "stateMutability": "nonpayable",
      "type": "function"
    },
    {
      "inputs": [
        {
          "internalType": "bytes32",
          "name": "role",
          "type": "bytes32"
        },
        {
          "internalType": "address",
          "name": "account",
          "type": "address"
        }
      ],
      "name": "revokeRole",
      "outputs": [],
      "stateMutability": "nonpayable",
      "type": "function"
    },
    {
      "inputs": [
        {
          "internalType": "string",
          "name": "description",
          "type": "string"
        }
      ],
      "name": "scheduleAnnualRAT",
      "outputs": [
        {
          "internalType": "uint256",
          "name": "",
          "type": "uint256"
        }
      ],
      "stateMutability": "nonpayable",
      "type": "function"
    },
    {
      "inputs": [
        {
          "internalType": "uint256",
          "name": "newTimelock",
          "type": "uint256"
        }
      ],
      "name": "setExecutionTimelock",
      "outputs": [],
      "stateMutability": "nonpayable",
      "type": "function"
    },
    {
      "inputs": [
        {
          "internalType": "uint256",
          "name": "newQuorum",
          "type": "uint256"
        }
      ],
      "name": "setQuorumNumerator",
      "outputs": [],
      "stateMutability": "nonpayable",
      "type": "function"
    },
    {
      "inputs": [
        {
          "internalType": "uint256",
          "name": "newPeriod",
          "type": "uint256"
        }
      ],
      "name": "setVotingPeriod",
      "outputs": [],
      "stateMutability": "nonpayable",
      "type": "function"
    },
    {
      "inputs": [
        {
          "internalType": "uint256",
          "name": "proposalId",
          "type": "uint256"
        }
      ],
      "name": "state",
      "outputs": [
        {
          "internalType": "enum LakomiGovern.ProposalState",
          "name": "",
          "type": "uint8"
        }
      ],
      "stateMutability": "view",
      "type": "function"
    },
    {
      "inputs": [
        {
          "internalType": "bytes4",
          "name": "interfaceId",
          "type": "bytes4"
        }
      ],
      "name": "supportsInterface",
      "outputs": [
        {
          "internalType": "bool",
          "name": "",
          "type": "bool"
        }
      ],
      "stateMutability": "view",
      "type": "function"
    },
    {
      "inputs": [],
      "name": "timeUntilNextRAT",
      "outputs": [
        {
          "internalType": "uint256",
          "name": "",
          "type": "uint256"
        }
      ],
      "stateMutability": "view",
      "type": "function"
    },
    {
      "inputs": [],
      "name": "token",
      "outputs": [
        {
          "internalType": "contract LakomiToken",
          "name": "",
          "type": "address"
        }
      ],
      "stateMutability": "view",
      "type": "function"
    },
    {
      "inputs": [],
      "name": "unpause",
      "outputs": [],
      "stateMutability": "nonpayable",
      "type": "function"
    },
    {
      "inputs": [],
      "name": "vaultAddress",
      "outputs": [
        {
          "internalType": "address",
          "name": "",
          "type": "address"
        }
      ],
      "stateMutability": "view",
      "type": "function"
    },
    {
      "inputs": [
        {
          "internalType": "uint256",
          "name": "proposalId",
          "type": "uint256"
        }
      ],
      "name": "vetoProposal",
      "outputs": [],
      "stateMutability": "nonpayable",
      "type": "function"
    },
    {
      "inputs": [
        {
          "internalType": "uint256",
          "name": "",
          "type": "uint256"
        },
        {
          "internalType": "address",
          "name": "",
          "type": "address"
        }
      ],
      "name": "voteChoice",
      "outputs": [
        {
          "internalType": "enum LakomiGovern.Vote",
          "name": "",
          "type": "uint8"
        }
      ],
      "stateMutability": "view",
      "type": "function"
    },
    {
      "inputs": [],
      "name": "votingPeriod",
      "outputs": [
        {
          "internalType": "uint256",
          "name": "",
          "type": "uint256"
        }
      ],
      "stateMutability": "view",
      "type": "function"
    }
  ],
  "bytecode": "0x60a06040523480156200001157600080fd5b506040516200235a3803806200235a833981016040819052620000349162000198565b60017f9b779b17422d0df92223018b32b4d1fa46e071723d6817e2486d003becc55f00556001600160a01b03841662000080576040516396a8520b60e01b815260040160405180910390fd5b6001600160a01b0384166080526002839055600382905560048190556301e13380601755620000b1600033620000e9565b50620000de7fb02c64f0c28be59776465b163fa919b01da504b3a5dda0ee188fa6d028017ec333620000e9565b5050505050620001e5565b6000828152602081815260408083206001600160a01b038516845290915281205460ff166200018e576000838152602081815260408083206001600160a01b03861684529091529020805460ff19166001179055620001453390565b6001600160a01b0316826001600160a01b0316847f2f8788117e7eff1d82e926ec794901d17c78024a50270940304540a733656f0d60405160405180910390a450600162000192565b5060005b92915050565b60008060008060808587031215620001af57600080fd5b84516001600160a01b0381168114620001c757600080fd5b60208601516040870151606090970151919890975090945092505050565b60805161213d6200021d600039600081816107f00152818161087b01528181610ac401528181610cb50152611787015261213d6000f3fe608060405234801561001057600080fd5b50600436106103275760003560e01c806377806118116101b8578063bd468fe611610104578063da35c664116100a2578063eb580dfe1161007c578063eb580dfe146107a8578063fb468855146107b0578063fc0c546a146107eb578063fe0d94c11461081257600080fd5b8063da35c66414610779578063ddf0b00914610782578063ea0217cf1461079557600080fd5b8063ca2525f6116100de578063ca2525f6146106ff578063d00a9f061461071f578063d3bc2b8d1461073f578063d547741f1461076657600080fd5b8063bd468fe61461069c578063bd6af848146106bc578063c8bb4dd5146106df57600080fd5b80639c92fbc311610171578063a7e228601161014b578063a7e2286014610657578063a8f6bc2d14610677578063abddc32714610680578063bb0fd7571461069357600080fd5b80639c92fbc314610626578063a217fddf14610646578063a7713a701461064e57600080fd5b806377806118146105c757806378223af3146105d05780637b3c71d3146105d85780638456cb59146105eb57806391d14854146105f3578063946164511461060657600080fd5b80633e4f49e61161027757806356781388116102305780636e18113c1161020a5780636e18113c146105765780636f65108c146105995780636fef541a146105ac578063737594ce146105b457600080fd5b8063567813881461052f5780635c975abb146105425780635dc4d8a61461054d57600080fd5b80633e4f49e6146104ab5780633f4ba83a146104cb57806340e58ee5146104d3578063430bf08a146104e657806343859632146104f95780634cd2fc401461052757600080fd5b8063248a9ca3116102e45780632f2ff15d116102be5780632f2ff15d1461045257806336568abe146104655780633830fdea146104785780633a29f8591461049857600080fd5b8063248a9ca3146103ea5780632a09c7721461040d5780632ce809151461043d57600080fd5b806301ffc9a71461032c57806302a251a314610354578063103616e81461036b57806313e112921461038e578063143489d0146103a15780631703a018146103e2575b600080fd5b61033f61033a366004611a4b565b610825565b60405190151581526020015b60405180910390f35b61035d60025481565b60405190815260200161034b565b61033f610379366004611a7c565b60126020526000908152604090205460ff1681565b61035d61039c366004611ade565b61085c565b6103ca6103af366004611a7c565b6006602052600090815260409020546001600160a01b031681565b6040516001600160a01b03909116815260200161034b565b61035d610abf565b61035d6103f8366004611a7c565b60009081526020819052604090206001015490565b61043061041b366004611a7c565b60086020526000908152604090205460ff1681565b60405161034b9190611b36565b61045061044b366004611a7c565b610b66565b005b610450610460366004611b6c565b610b77565b610450610473366004611b6c565b610ba2565b61048b610486366004611a7c565b610bda565b60405161034b9190611bde565b61035d6104a6366004611bf1565b610c74565b6104be6104b9366004611a7c565b610e9d565b60405161034b9190611c95565b61045061101b565b6104506104e1366004611a7c565b611031565b6019546103ca906001600160a01b031681565b61033f610507366004611b6c565b601560209081526000928352604080842090915290825290205460ff1681565b61033f6110f1565b61045061053d366004611cb8565b61111b565b60015460ff1661033f565b6103ca61055b366004611a7c565b6009602052600090815260409020546001600160a01b031681565b61033f610584366004611a7c565b60136020526000908152604090205460ff1681565b6104506105a7366004611a7c565b611148565b61035d606481565b6104506105c2366004611a7c565b611219565b61035d60045481565b61035d61122a565b6104506105e6366004611cdb565b611269565b610450611292565b61033f610601366004611b6c565b6112a5565b61035d610614366004611a7c565b600f6020526000908152604090205481565b61035d610634366004611a7c565b60116020526000908152604090205481565b61035d600081565b61035d60035481565b61035d610665366004611a7c565b600d6020526000908152604090205481565b61035d60175481565b61048b61068e366004611a7c565b6112ce565b61035d60185481565b61035d6106aa366004611a7c565b600e6020526000908152604090205481565b61033f6106ca366004611a7c565b60146020526000908152604090205460ff1681565b61035d6106ed366004611a7c565b600c6020526000908152604090205481565b61035d61070d366004611a7c565b600a6020526000908152604090205481565b61035d61072d366004611a7c565b60106020526000908152604090205481565b61035d7fb02c64f0c28be59776465b163fa919b01da504b3a5dda0ee188fa6d028017ec381565b610450610774366004611b6c565b6112e7565b61035d60055481565b610450610790366004611a7c565b61130c565b6104506107a3366004611a7c565b6113b9565b6104506113ca565b6107de6107be366004611b6c565b601660209081526000928352604080842090915290825290205460ff1681565b60405161034b9190611d35565b6103ca7f000000000000000000000000000000000000000000000000000000000000000081565b610450610820366004611a7c565b6113f4565b60006001600160e01b03198216637965db0b60e01b148061085657506301ffc9a760e01b6001600160e01b03198316145b92915050565b6000610866611588565b604051636a6b9a6160e01b81523360048201527f00000000000000000000000000000000000000000000000000000000000000006001600160a01b031690636a6b9a6190602401602060405180830381865afa1580156108ca573d6000803e3d6000fd5b505050506040513d601f19601f820116820180604052508101906108ee9190611d49565b61090b57604051639450a1d360e01b815260040160405180910390fd5b600060185411801561092b57506017546018546109289190611d81565b42105b15610949576040516316bbed0f60e31b815260040160405180910390fd5b600580546000918261095a83611d94565b9091555060025490915042906000906109739083611d81565b600084815260066020908152604080832080546001600160a01b03191633179055600790915290209091506109a9868883611e4b565b506000838152600860209081526040808320805460ff191660031790556009825280832080546001600160a01b0319169055600a825280832083905580518083018252838152868452600b90925290912090610a059082611f0c565b506000838152600f602090815260408083208590556010909152908190208290554260185551339084907f6c98a8c940418b35614f0cd02412d5c9606faff474cbb6cdd6640ba5d1a9f06b90610a62908a908a9088908890611fcc565b60405180910390a3827fe07e33b3979d2ee923e3a1494b77f27c97acf236ae98804de7e3846b899639b642604051610a9c91815260200190565b60405180910390a2505060016000805160206120e8833981519152559050610856565b6000807f00000000000000000000000000000000000000000000000000000000000000006001600160a01b031663997072f76040518163ffffffff1660e01b8152600401602060405180830381865afa158015610b20573d6000803e3d6000fd5b505050506040513d601f19601f82011682018060405250810190610b44919061200c565b9050606460035482610b569190612025565b610b60919061203c565b91505090565b6000610b71816115a4565b50600455565b600082815260208190526040902060010154610b92816115a4565b610b9c83836115ae565b50505050565b6001600160a01b0381163314610bcb5760405163334bd91960e11b815260040160405180910390fd5b610bd58282611640565b505050565b60076020526000908152604090208054610bf390611dc3565b80601f0160208091040260200160405190810160405280929190818152602001828054610c1f90611dc3565b8015610c6c5780601f10610c4157610100808354040283529160200191610c6c565b820191906000526020600020905b815481529060010190602001808311610c4f57829003601f168201915b505050505081565b6000610c7e611588565b6000879003610ca05760405163018e0a1560e51b815260040160405180910390fd5b604051636a6b9a6160e01b81523360048201527f00000000000000000000000000000000000000000000000000000000000000006001600160a01b031690636a6b9a6190602401602060405180830381865afa158015610d04573d6000803e3d6000fd5b505050506040513d601f19601f82011682018060405250810190610d289190611d49565b610d4557604051639450a1d360e01b815260040160405180910390fd5b6005805460009182610d5683611d94565b909155506002549091504290600090610d6f9083611d81565b600084815260066020908152604080832080546001600160a01b0319163317905560079091529020909150610da58b8d83611e4b565b50600083815260086020526040902080548a919060ff19166001836004811115610dd157610dd1611b20565b0217905550600083815260096020908152604080832080546001600160a01b0319166001600160a01b038d16179055600a82528083208a9055600b9091529020610e1c868883611e4b565b506000838152600f6020908152604080832085905560109091529081902082905551339084907f6c98a8c940418b35614f0cd02412d5c9606faff474cbb6cdd6640ba5d1a9f06b90610e75908f908f9088908890611fcc565b60405180910390a3505060016000805160206120e88339815191525598975050505050505050565b60008181526013602052604081205460ff1615610ebc57506002919050565b60008281526014602052604090205460ff1615610edb57506008919050565b60008281526012602052604090205460ff1615610efa57506007919050565b6000828152600f6020526040902054421015610f1857506000919050565b600082815260106020526040902054421015610f3657506001919050565b6000828152600e6020908152604080832054600d835281842054600c909352908320549091610f6491611d81565b610f6e9190611d81565b90506000610f7a610abf565b905080821015610f8e575060039392505050565b6000848152600d6020908152604080832054600c9092529091205411610fb8575060039392505050565b6000848152601160205260408120549003610fd7575060049392505050565b600454600085815260116020526040902054610ff39190611d81565b6110009062127500611d81565b421115611011575060069392505050565b5060059392505050565b6000611026816115a4565b61102e6116ab565b50565b6000818152600660205260409020546001600160a01b03163314801590611060575061105e6000336112a5565b155b1561107e576040516324dbeac960e11b815260040160405180910390fd5b60008181526012602052604090205460ff16156110ae576040516338dbd33b60e11b815260040160405180910390fd5b600081815260136020526040808220805460ff191660011790555182917f789cf55be980739dad1d0699b93b58e806b51c9d96619bfa8fe0a28abaa7b30c91a250565b60006018546000036111035750600190565b6017546018546111139190611d81565b421015905090565b611123611588565b61112d82826116fd565b61114460016000805160206120e883398151915255565b5050565b7fb02c64f0c28be59776465b163fa919b01da504b3a5dda0ee188fa6d028017ec3611172816115a4565b60008281526012602052604090205460ff16156111a2576040516338dbd33b60e11b815260040160405180910390fd5b60008281526013602052604090205460ff16156111d2576040516338dbd33b60e11b815260040160405180910390fd5b600082815260146020526040808220805460ff1916600117905551339184917fc2131db10d833d6b93ae553fa450ea0f6c0c2dfb0160cb3309468bf72718f3eb9190a35050565b6000611224816115a4565b50600355565b600060185460000361123c5750600090565b600060175460185461124e9190611d81565b905080421061125f57600091505090565b610b60428261205e565b611271611588565b61127b84846116fd565b610b9c60016000805160206120e883398151915255565b600061129d816115a4565b61102e61195a565b6000918252602082815260408084206001600160a01b0393909316845291905290205460ff1690565b600b6020526000908152604090208054610bf390611dc3565b600082815260208190526040902060010154611302816115a4565b610b9c8383611640565b611314611588565b600461131f82610e9d565b600881111561133057611330611b20565b1461134e576040516309ea93c360e41b815260040160405180910390fd5b6000818152601160205260409020429081905560045482917f9a2e42fd6722813d69113e7d0079d3d940171428df7373df9c7f7617cfda28929161139191611d81565b60405190815260200160405180910390a261102e60016000805160206120e883398151915255565b60006113c4816115a4565b50600255565b7fb02c64f0c28be59776465b163fa919b01da504b3a5dda0ee188fa6d028017ec361129d816115a4565b6113fc611588565b600081815260116020526040812054900361142a576040516309ea93c360e41b815260040160405180910390fd5b6004546000828152601160205260409020546114469190611d81565b42101561146557604051625c929960e81b815260040160405180910390fd5b60008181526012602052604090205460ff1615611495576040516338dbd33b60e11b815260040160405180910390fd5b6000818152601260209081526040808320805460ff191660011790556009825280832054600a835281842054600b90935281842091516001600160a01b0390911692916114e191612071565b60006040518083038185875af1925050503d806000811461151e576040519150601f19603f3d011682016040523d82523d6000602084013e611523565b606091505b50509050806115455760405163816a6f3160e01b815260040160405180910390fd5b60405182907f712ae1383f79ac853f8d882153778e0260ef8f03b504e2866e0593e04d2b291f90600090a25061102e60016000805160206120e883398151915255565b611590611995565b60026000805160206120e883398151915255565b61102e81336119c7565b60006115ba83836112a5565b611638576000838152602081815260408083206001600160a01b03861684529091529020805460ff191660011790556115f03390565b6001600160a01b0316826001600160a01b0316847f2f8788117e7eff1d82e926ec794901d17c78024a50270940304540a733656f0d60405160405180910390a4506001610856565b506000610856565b600061164c83836112a5565b15611638576000838152602081815260408083206001600160a01b0386168085529252808320805460ff1916905551339286917ff6391f5c32d9c69d2a47ea670b442974b53935d1edc7fd64eb21e047a839171b9190a4506001610856565b6116b3611a04565b6001805460ff191690557f5db9ee0a495bf2e6ff9c91a7834c1ba4fdd244a5e8aa4e537bd38aeae4b073aa335b6040516001600160a01b03909116815260200160405180910390a1565b600161170883610e9d565b600881111561171957611719611b20565b146117375760405163b6436b9560e01b815260040160405180910390fd5b600082815260156020908152604080832033845290915290205460ff161561177257604051631b19daf560e21b815260040160405180910390fd5b604051636a6b9a6160e01b81523360048201527f00000000000000000000000000000000000000000000000000000000000000006001600160a01b031690636a6b9a6190602401602060405180830381865afa1580156117d6573d6000803e3d6000fd5b505050506040513d601f19601f820116820180604052508101906117fa9190611d49565b61181757604051639450a1d360e01b815260040160405180910390fd5b6000828152601560209081526040808320338085529083528184208054600160ff1991821681179092558786526016855283862092865291909352922080548493919291169083600281111561186f5761186f611b20565b0217905550600181600281111561188857611888611b20565b036118b7576000828152600c602052604081208054600192906118ac908490611d81565b909155506119149050565b60008160028111156118cb576118cb611b20565b036118ef576000828152600d602052604081208054600192906118ac908490611d81565b6000828152600e6020526040812080546001929061190e908490611d81565b90915550505b336001600160a01b0316827feba4866100b822f0f391e610e7edfab790b9e8766c0012733c26b2f1858e8dd78360405161194e9190611d35565b60405180910390a35050565b611962611a27565b6001805460ff1916811790557f62e78cea01bee320cd4e420270b5ea74000d11b0c9f74754ebdbfc544b05a258336116e0565b6000805160206120e8833981519152546002036119c557604051633ee5aeb560e01b815260040160405180910390fd5b565b6119d182826112a5565b6111445760405163e2517d3f60e01b81526001600160a01b03821660048201526024810183905260440160405180910390fd5b60015460ff166119c557604051638dfc202b60e01b815260040160405180910390fd5b60015460ff16156119c55760405163d93c066560e01b815260040160405180910390fd5b600060208284031215611a5d57600080fd5b81356001600160e01b031981168114611a7557600080fd5b9392505050565b600060208284031215611a8e57600080fd5b5035919050565b60008083601f840112611aa757600080fd5b50813567ffffffffffffffff811115611abf57600080fd5b602083019150836020828501011115611ad757600080fd5b9250929050565b60008060208385031215611af157600080fd5b823567ffffffffffffffff811115611b0857600080fd5b611b1485828601611a95565b90969095509350505050565b634e487b7160e01b600052602160045260246000fd5b6020810160058310611b4a57611b4a611b20565b91905290565b80356001600160a01b0381168114611b6757600080fd5b919050565b60008060408385031215611b7f57600080fd5b82359150611b8f60208401611b50565b90509250929050565b6000815180845260005b81811015611bbe57602081850181015186830182015201611ba2565b506000602082860101526020601f19601f83011685010191505092915050565b602081526000611a756020830184611b98565b600080600080600080600060a0888a031215611c0c57600080fd5b873567ffffffffffffffff80821115611c2457600080fd5b611c308b838c01611a95565b909950975060208a0135915060058210611c4957600080fd5b819650611c5860408b01611b50565b955060608a0135945060808a0135915080821115611c7557600080fd5b50611c828a828b01611a95565b989b979a50959850939692959293505050565b6020810160098310611b4a57611b4a611b20565b803560038110611b6757600080fd5b60008060408385031215611ccb57600080fd5b82359150611b8f60208401611ca9565b60008060008060608587031215611cf157600080fd5b84359350611d0160208601611ca9565b9250604085013567ffffffffffffffff811115611d1d57600080fd5b611d2987828801611a95565b95989497509550505050565b6020810160038310611b4a57611b4a611b20565b600060208284031215611d5b57600080fd5b81518015158114611a7557600080fd5b634e487b7160e01b600052601160045260246000fd5b8082018082111561085657610856611d6b565b600060018201611da657611da6611d6b565b5060010190565b634e487b7160e01b600052604160045260246000fd5b600181811c90821680611dd757607f821691505b602082108103611df757634e487b7160e01b600052602260045260246000fd5b50919050565b601f821115610bd557600081815260208120601f850160051c81016020861015611e245750805b601f850160051c820191505b81811015611e4357828155600101611e30565b505050505050565b67ffffffffffffffff831115611e6357611e63611dad565b611e7783611e718354611dc3565b83611dfd565b6000601f841160018114611eab5760008515611e935750838201355b600019600387901b1c1916600186901b178355611f05565b600083815260209020601f19861690835b82811015611edc5786850135825560209485019460019092019101611ebc565b5086821015611ef95760001960f88860031b161c19848701351681555b505060018560011b0183555b5050505050565b815167ffffffffffffffff811115611f2657611f26611dad565b611f3a81611f348454611dc3565b84611dfd565b602080601f831160018114611f6f5760008415611f575750858301515b600019600386901b1c1916600185901b178555611e43565b600085815260208120601f198616915b82811015611f9e57888601518255948401946001909101908401611f7f565b5085821015611fbc5787850151600019600388901b60f8161c191681555b5050505050600190811b01905550565b606081528360608201528385608083013760006080858301015260006080601f19601f870116830101905083602083015282604083015295945050505050565b60006020828403121561201e57600080fd5b5051919050565b808202811582820484141761085657610856611d6b565b60008261205957634e487b7160e01b600052601260045260246000fd5b500490565b8181038181111561085657610856611d6b565b600080835461207f81611dc3565b6001828116801561209757600181146120ac576120db565b60ff19841687528215158302870194506120db565b8760005260208060002060005b858110156120d25781548a8201529084019082016120b9565b50505082870194505b5092969550505050505056fe9b779b17422d0df92223018b32b4d1fa46e071723d6817e2486d003becc55f00a2646970667358221220e8d1065e5e8250ff9c238c78ef969715f3bc86b8ff973484b3c5244c8bbbe5eb64736f6c63430008140033",
  "linkReferences": {},
  "deployedLinkReferences": {}
}