{"abi":[{"type":"constructor","inputs":[{"name":"_token","type":"address","internalType":"address"},{"name":"_vault","type":"address","internalType":"address"}],"stateMutability":"nonpayable"},{"type":"function","name":"APPROVER_ROLE","inputs":[],"outputs":[{"name":"","type":"bytes32","internalType":"bytes32"}],"stateMutability":"view"},{"type":"function","name":"DEFAULT_ADMIN_ROLE","inputs":[],"outputs":[{"name":"","type":"bytes32","internalType":"bytes32"}],"stateMutability":"view"},{"type":"function","name":"activeLoanCount","inputs":[],"outputs":[{"name":"","type":"uint256","internalType":"uint256"}],"stateMutability":"view"},{"type":"function","name":"approveLoan","inputs":[{"name":"loanId","type":"uint256","internalType":"uint256"}],"outputs":[],"stateMutability":"nonpayable"},{"type":"function","name":"autoApproveThreshold","inputs":[],"outputs":[{"name":"","type":"uint256","internalType":"uint256"}],"stateMutability":"view"},{"type":"function","name":"borrowerLoans","inputs":[{"name":"","type":"address","internalType":"address"},{"name":"","type":"uint256","internalType":"uint256"}],"outputs":[{"name":"","type":"uint256","internalType":"uint256"}],"stateMutability":"view"},{"type":"function","name":"calculateInterest","inputs":[{"name":"principal","type":"uint256","internalType":"uint256"},{"name":"duration","type":"uint256","internalType":"uint256"}],"outputs":[{"name":"","type":"uint256","internalType":"uint256"}],"stateMutability":"view"},{"type":"function","name":"claimCollateral","inputs":[{"name":"loanId","type":"uint256","internalType":"uint256"}],"outputs":[],"stateMutability":"nonpayable"},{"type":"function","name":"collateralRatio","inputs":[],"outputs":[{"name":"","type":"uint256","internalType":"uint256"}],"stateMutability":"view"},{"type":"function","name":"defaultLoanDuration","inputs":[],"outputs":[{"name":"","type":"uint256","internalType":"uint256"}],"stateMutability":"view"},{"type":"function","name":"disburse","inputs":[{"name":"loanId","type":"uint256","internalType":"uint256"}],"outputs":[],"stateMutability":"nonpayable"},{"type":"function","name":"getBorrowerLoans","inputs":[{"name":"borrower","type":"address","internalType":"address"}],"outputs":[{"name":"","type":"uint256[]","internalType":"uint256[]"}],"stateMutability":"view"},{"type":"function","name":"getLoan","inputs":[{"name":"loanId","type":"uint256","internalType":"uint256"}],"outputs":[{"name":"id","type":"uint256","internalType":"uint256"},{"name":"borrower","type":"address","internalType":"address"},{"name":"principal","type":"uint256","internalType":"uint256"},{"name":"interest","type":"uint256","internalType":"uint256"},{"name":"collateralTokens","type":"uint256","internalType":"uint256"},{"name":"startTime","type":"uint256","internalType":"uint256"},{"name":"dueTime","type":"uint256","internalType":"uint256"},{"name":"repaidAmount","type":"uint256","internalType":"uint256"},{"name":"totalOwed","type":"uint256","internalType":"uint256"},{"name":"remaining","type":"uint256","internalType":"uint256"},{"name":"status","type":"uint8","internalType":"enum LakomiLoans.LoanStatus"},{"name":"reason","type":"string","internalType":"string"}],"stateMutability":"view"},{"type":"function","name":"getMaxLoanAmount","inputs":[{"name":"borrower","type":"address","internalType":"address"}],"outputs":[{"name":"","type":"uint256","internalType":"uint256"}],"stateMutability":"view"},{"type":"function","name":"getRequiredCollateral","inputs":[{"name":"amount","type":"uint256","internalType":"uint256"}],"outputs":[{"name":"","type":"uint256","internalType":"uint256"}],"stateMutability":"view"},{"type":"function","name":"getRoleAdmin","inputs":[{"name":"role","type":"bytes32","internalType":"bytes32"}],"outputs":[{"name":"","type":"bytes32","internalType":"bytes32"}],"stateMutability":"view"},{"type":"function","name":"gracePeriod","inputs":[],"outputs":[{"name":"","type":"uint256","internalType":"uint256"}],"stateMutability":"view"},{"type":"function","name":"grantRole","inputs":[{"name":"role","type":"bytes32","internalType":"bytes32"},{"name":"account","type":"address","internalType":"address"}],"outputs":[],"stateMutability":"nonpayable"},{"type":"function","name":"hasRole","inputs":[{"name":"role","type":"bytes32","internalType":"bytes32"},{"name":"account","type":"address","internalType":"address"}],"outputs":[{"name":"","type":"bool","internalType":"bool"}],"stateMutability":"view"},{"type":"function","name":"interestRate","inputs":[],"outputs":[{"name":"","type":"uint256","internalType":"uint256"}],"stateMutability":"view"},{"type":"function","name":"loanCount","inputs":[],"outputs":[{"name":"","type":"uint256","internalType":"uint256"}],"stateMutability":"view"},{"type":"function","name":"loans","inputs":[{"name":"","type":"uint256","internalType":"uint256"}],"outputs":[{"name":"id","type":"uint256","internalType":"uint256"},{"name":"borrower","type":"address","internalType":"address"},{"name":"principal","type":"uint256","internalType":"uint256"},{"name":"interest","type":"uint256","internalType":"uint256"},{"name":"collateralTokens","type":"uint256","internalType":"uint256"},{"name":"startTime","type":"uint256","internalType":"uint256"},{"name":"dueTime","type":"uint256","internalType":"uint256"},{"name":"repaidAmount","type":"uint256","internalType":"uint256"},{"name":"status","type":"uint8","internalType":"enum LakomiLoans.LoanStatus"},{"name":"reason","type":"string","internalType":"string"}],"stateMutability":"view"},{"type":"function","name":"markDefaulted","inputs":[{"name":"loanId","type":"uint256","internalType":"uint256"}],"outputs":[],"stateMutability":"nonpayable"},{"type":"function","name":"maxLTV","inputs":[],"outputs":[{"name":"","type":"uint256","internalType":"uint256"}],"stateMutability":"view"},{"type":"function","name":"pause","inputs":[],"outputs":[],"stateMutability":"nonpayable"},{"type":"function","name":"paused","inputs":[],"outputs":[{"name":"","type":"bool","internalType":"bool"}],"stateMutability":"view"},{"type":"function","name":"renounceRole","inputs":[{"name":"role","type":"bytes32","internalType":"bytes32"},{"name":"callerConfirmation","type":"address","internalType":"address"}],"outputs":[],"stateMutability":"nonpayable"},{"type":"function","name":"repay","inputs":[{"name":"loanId","type":"uint256","internalType":"uint256"},{"name":"amount","type":"uint256","internalType":"uint256"}],"outputs":[],"stateMutability":"nonpayable"},{"type":"function","name":"repayInFull","inputs":[{"name":"loanId","type":"uint256","internalType":"uint256"}],"outputs":[],"stateMutability":"nonpayable"},{"type":"function","name":"requestLoan","inputs":[{"name":"amount","type":"uint256","internalType":"uint256"},{"name":"duration","type":"uint256","internalType":"uint256"},{"name":"reason","type":"string","internalType":"string"}],"outputs":[{"name":"loanId","type":"uint256","internalType":"uint256"}],"stateMutability":"nonpayable"},{"type":"function","name":"revokeRole","inputs":[{"name":"role","type":"bytes32","internalType":"bytes32"},{"name":"account","type":"address","internalType":"address"}],"outputs":[],"stateMutability":"nonpayable"},{"type":"function","name":"setAutoApproveThreshold","inputs":[{"name":"newThreshold","type":"uint256","internalType":"uint256"}],"outputs":[],"stateMutability":"nonpayable"},{"type":"function","name":"setCollateralRatio","inputs":[{"name":"newRatio","type":"uint256","internalType":"uint256"}],"outputs":[],"stateMutability":"nonpayable"},{"type":"function","name":"setInterestRate","inputs":[{"name":"newRate","type":"uint256","internalType":"uint256"}],"outputs":[],"stateMutability":"nonpayable"},{"type":"function","name":"setMaxLTV","inputs":[{"name":"newLTV","type":"uint256","internalType":"uint256"}],"outputs":[],"stateMutability":"nonpayable"},{"type":"function","name":"supportsInterface","inputs":[{"name":"interfaceId","type":"bytes4","internalType":"bytes4"}],"outputs":[{"name":"","type":"bool","internalType":"bool"}],"stateMutability":"view"},{"type":"function","name":"token","inputs":[],"outputs":[{"name":"","type":"address","internalType":"contract LakomiToken"}],"stateMutability":"view"},{"type":"function","name":"totalBorrowed","inputs":[{"name":"","type":"address","internalType":"address"}],"outputs":[{"name":"","type":"uint256","internalType":"uint256"}],"stateMutability":"view"},{"type":"function","name":"unpause","inputs":[],"outputs":[],"stateMutability":"nonpayable"},{"type":"function","name":"vault","inputs":[],"outputs":[{"name":"","type":"address","internalType":"contract LakomiVault"}],"stateMutability":"view"},{"type":"event","name":"CollateralClaimed","inputs":[{"name":"id","type":"uint256","indexed":true,"internalType":"uint256"},{"name":"borrower","type":"address","indexed":true,"internalType":"address"},{"name":"collateralAmount","type":"uint256","indexed":false,"internalType":"uint256"}],"anonymous":false},{"type":"event","name":"CollateralRatioUpdated","inputs":[{"name":"oldRatio","type":"uint256","indexed":false,"internalType":"uint256"},{"name":"newRatio","type":"uint256","indexed":false,"internalType":"uint256"}],"anonymous":false},{"type":"event","name":"InterestRateUpdated","inputs":[{"name":"oldRate","type":"uint256","indexed":false,"internalType":"uint256"},{"name":"newRate","type":"uint256","indexed":false,"internalType":"uint256"}],"anonymous":false},{"type":"event","name":"LoanApproved","inputs":[{"name":"id","type":"uint256","indexed":true,"internalType":"uint256"},{"name":"collateralRequired","type":"uint256","indexed":false,"internalType":"uint256"}],"anonymous":false},{"type":"event","name":"LoanDefaulted","inputs":[{"name":"id","type":"uint256","indexed":true,"internalType":"uint256"},{"name":"borrower","type":"address","indexed":true,"internalType":"address"}],"anonymous":false},{"type":"event","name":"LoanDisbursed","inputs":[{"name":"id","type":"uint256","indexed":true,"internalType":"uint256"},{"name":"borrower","type":"address","indexed":true,"internalType":"address"},{"name":"amount","type":"uint256","indexed":false,"internalType":"uint256"}],"anonymous":false},{"type":"event","name":"LoanRepaid","inputs":[{"name":"id","type":"uint256","indexed":true,"internalType":"uint256"},{"name":"borrower","type":"address","indexed":true,"internalType":"address"},{"name":"amount","type":"uint256","indexed":false,"internalType":"uint256"},{"name":"remaining","type":"uint256","indexed":false,"internalType":"uint256"}],"anonymous":false},{"type":"event","name":"LoanRequested","inputs":[{"name":"id","type":"uint256","indexed":true,"internalType":"uint256"},{"name":"borrower","type":"address","indexed":true,"internalType":"address"},{"name":"amount","type":"uint256","indexed":false,"internalType":"uint256"},{"name":"duration","type":"uint256","indexed":false,"internalType":"uint256"},{"name":"reason","type":"string","indexed":false,"internalType":"string"}],"anonymous":false},{"type":"event","name":"MaxLTVUpdated","inputs":[{"name":"oldLTV","type":"uint256","indexed":false,"internalType":"uint256"},{"name":"newLTV","type":"uint256","indexed":false,"internalType":"uint256"}],"anonymous":false},{"type":"event","name":"Paused","inputs":[{"name":"account","type":"address","indexed":false,"internalType":"address"}],"anonymous":false},{"type":"event","name":"RoleAdminChanged","inputs":[{"name":"role","type":"bytes32","indexed":true,"internalType":"bytes32"},{"name":"previousAdminRole","type":"bytes32","indexed":true,"internalType":"bytes32"},{"name":"newAdminRole","type":"bytes32","indexed":true,"internalType":"bytes32"}],"anonymous":false},{"type":"event","name":"RoleGranted","inputs":[{"name":"role","type":"bytes32","indexed":true,"internalType":"bytes32"},{"name":"account","type":"address","indexed":true,"internalType":"address"},{"name":"sender","type":"address","indexed":true,"internalType":"address"}],"anonymous":false},{"type":"event","name":"RoleRevoked","inputs":[{"name":"role","type":"bytes32","indexed":true,"internalType":"bytes32"},{"name":"account","type":"address","indexed":true,"internalType":"address"},{"name":"sender","type":"address","indexed":true,"internalType":"address"}],"anonymous":false},{"type":"event","name":"ThresholdUpdated","inputs":[{"name":"oldThreshold","type":"uint256","indexed":false,"internalType":"uint256"},{"name":"newThreshold","type":"uint256","indexed":false,"internalType":"uint256"}],"anonymous":false},{"type":"event","name":"Unpaused","inputs":[{"name":"account","type":"address","indexed":false,"internalType":"address"}],"anonymous":false},{"type":"error","name":"AccessControlBadConfirmation","inputs":[]},{"type":"error","name":"AccessControlUnauthorizedAccount","inputs":[{"name":"account","type":"address","internalType":"address"},{"name":"neededRole","type":"bytes32","internalType":"bytes32"}]},{"type":"error","name":"EnforcedPause","inputs":[]},{"type":"error","name":"ExpectedPause","inputs":[]},{"type":"error","name":"LakomiLoans__AlreadyRepaid","inputs":[]},{"type":"error","name":"LakomiLoans__ExceedsMaxLoan","inputs":[]},{"type":"error","name":"LakomiLoans__GracePeriodActive","inputs":[]},{"type":"error","name":"LakomiLoans__InsufficientCollateral","inputs":[]},{"type":"error","name":"LakomiLoans__InsufficientContribution","inputs":[]},{"type":"error","name":"LakomiLoans__InvalidDuration","inputs":[]},{"type":"error","name":"LakomiLoans__LoanNotActive","inputs":[]},{"type":"error","name":"LakomiLoans__LoanNotApproved","inputs":[]},{"type":"error","name":"LakomiLoans__LoanNotFound","inputs":[]},{"type":"error","name":"LakomiLoans__LoanNotPending","inputs":[]},{"type":"error","name":"LakomiLoans__NotDefaulted","inputs":[]},{"type":"error","name":"LakomiLoans__Overpayment","inputs":[]},{"type":"error","name":"LakomiLoans__TransferFailed","inputs":[]},{"type":"error","name":"LakomiLoans__ZeroAddress","inputs":[]},{"type":"error","name":"LakomiLoans__ZeroAmount","inputs":[]},{"type":"error","name":"ReentrancyGuardReentrantCall","inputs":[]},{"type":"error","name":"SafeERC20FailedOperation","inputs":[{"name":"token","type":"address","internalType":"address"}]}],"bytecode":{"object":"0x60c0346200016457601f620024c738819003918201601f19168301916001600160401b038311848410176200016857808492604094855283398101031262000164576200005a602062000052836200017c565b92016200017c565b60017f9b779b17422d0df92223018b32b4d1fa46e071723d6817e2486d003becc55f00556001600160a01b039182168015801562000159575b62000147576080521660a0526101f46002556113886003556109c4600455630bebc20060055562278d0060065562093a80600755620000d23362000191565b50620000de336200020f565b506040516121f79081620002b082396080518181816101eb015281816106500152818161092f01528181610e9a0152818161106201526114e5015260a0518181816102330152818161054c0152818161089601528181611132015281816112b701526114020152f35b60405163372be3a160e01b8152600490fd5b508282161562000093565b5f80fd5b634e487b7160e01b5f52604160045260245ffd5b51906001600160a01b03821682036200016457565b6001600160a01b03165f8181527fad3228b676f7d3cd4284a5443f17f1962b36e491b30a40b2405849e597ba5fb5602052604081205490919060ff166200020b57818052816020526040822081835260205260408220600160ff1982541617905533915f80516020620024a78339815191528180a4600190565b5090565b6001600160a01b03165f8181527f388301e6ac71f158ac8b29c21de3d490adc31828b570ec3663983f6bee199fa060205260408120549091907f408a36151f841709116a4e8aca4e0202874f7f54687dcb863b1ea4672dc9d8cf9060ff16620002aa57808352826020526040832082845260205260408320600160ff198254161790555f80516020620024a7833981519152339380a4600190565b50509056fe6080806040526004361015610012575f80fd5b5f90813560e01c90816301ffc9a714611ce05750806308a0c37514611c4d57806309cd4e2614611bf257806314956f4414611b9c578063248a9ca314611b705780632f2ff15d14611b3357806336568abe14611aeb5780633f4ba83a14611a805780634245962b14611a45578063442c64c614611a27578063504006ca1461194f57806354edb3a0146119315780635c975abb1461190e5780635f84f302146118b85780636060663e146118625780636f08351914611844578063732164501461176d5780637c3a00fd1461174f5780638456cb59146116f557806391d14854146116ad578063a06db7dc1461168f578063a217fddf14611673578063aadc1ac1146115dc578063ad05db5114611332578063ad73f38e14611274578063b4eae1cb14611256578063bd77ac2c14610ff7578063c49785b414610e37578063ce63094d14610e19578063d3602dc6146107fb578063d547741f146107ba578063d8aed145146104af578063e1ec3c68146103f7578063e2e1ca2b146103be578063e3ed190214610368578063eee8b7ff146102b6578063efdd7c0714610280578063f384bd0514610262578063fbfa77cf1461021d5763fc0c546a146101d6575f80fd5b3461021a578060031936011261021a576040517f00000000000000000000000000000000000000000000000000000000000000006001600160a01b03168152602090f35b80fd5b503461021a578060031936011261021a576040517f00000000000000000000000000000000000000000000000000000000000000006001600160a01b03168152602090f35b503461021a578060031936011261021a576020600354604051908152f35b503461021a57602064496cebb8006102ad6102a861029d36611dc0565b919060025490612057565b612057565b04604051908152f35b503461021a57602080600319360112610364576001600160a01b036102d9611d4b565b168252600b81526040822060405192838383549182815201908193835284832090835b8181106103505750505084610312910385611e22565b60405193838594850191818652518092526040850193925b82811061033957505050500390f35b83518552869550938101939281019260010161032a565b8254845292860192600192830192016102fc565b5080fd5b503461021a57604036600319011261021a57610382611d4b565b6001600160a01b03168152600b602052604081208054602435929083101561021a5760206103b08484611ee5565b90546040519160031b1c8152f35b503461021a57602036600319011261021a576020906040906001600160a01b036103e6611d4b565b168152600c83522054604051908152f35b503461021a57602036600319011261021a57604090600435815260086020522080546104ab60018060a01b0360018401541692610499600282015491600381015460048201546005830154600684015491600785015493610462600960ff6008890154169701611e44565b976040519b8c9b8c5260208c015260408b015260608a0152608089015260a088015260c087015260e0860152610100850190611d61565b61014080610120850152830190611d82565b0390f35b503461021a576104be36611dc0565b906104c761208c565b6104cf6120aa565b808352602091600883526040842090600182019360018060a01b0380865416156107a857600884019560ff87541660068110156107945760020361078257610520600286015460038701549061215c565b946007810197610531895488612188565b801561077057861161075e5760405163a9d75b2b60e01b81527f00000000000000000000000000000000000000000000000000000000000000008516908681600481855afa80156107535786918d91610726575b5016604051916323b872dd60e01b8d523360045260245287604452868c60648180855af160018d5114811615610707575b826040528c606052156106f2575050908991876105d4888c5461215c565b808c551015610634575b5050507f553c9087bff5b534e499a66dac3fa9db2962cd252ea01165239755836ae5345e946040949392610616925416975490612188565b908351928352820152a360015f805160206121a28339815191525580f35b600360ff1982541617905561064a600a54612195565b600a55837f00000000000000000000000000000000000000000000000000000000000000001690600485855416910154823b156106ee57604051634eab26cd60e11b81526001600160a01b0392909216600483015260248201529082908290604490829084905af180156106e3576106c3575b806105de565b6106d09095949395611e0e565b6106df57875f949293946106bd565b8780fd5b6040513d84823e3d90fd5b8380fd5b635274afe760e01b8252600482015260249150fd5b600181151661071d57813b15153d1516166105b6565b823d8e823e3d90fd5b6107469150883d8a1161074c575b61073e8183611e22565b810190612169565b5f610585565b503d610734565b6040513d8e823e3d90fd5b6040516314d0675960e11b8152600490fd5b604051634470d52560e11b8152600490fd5b6040516351092dcf60e11b8152600490fd5b634e487b7160e01b89526021600452602489fd5b60405163470f9a3d60e01b8152600490fd5b503461021a57604036600319011261021a576107f76004356107da611d35565b90808452836020526107f26001604086200154611f47565b611fe4565b5080f35b503461021a57606036600319011261021a5767ffffffffffffffff6044351161021a5736602360443501121561021a5767ffffffffffffffff604435600401351161021a573660246044356004013560443501011161021a5761085c61208c565b6108646120aa565b60043515610e0757602435158015610df8575b610de65760405163652aba9d60e11b81523360048201526020816024817f00000000000000000000000000000000000000000000000000000000000000006001600160a01b03165afa9081156106e3578291610db4575b5061271090816108e060035483612057565b0460043511610da25715610d90576108fc600454600435612057565b0464e8d4a5100090818102918183041490151715610d7c57604051636c24a76f60e01b81523360048201526020816024817f00000000000000000000000000000000000000000000000000000000000000006001600160a01b03165afa8015610d715782918491610d38575b5010610d275764496cebb8006109886024356102a8600254600435612057565b04600954916109968361207e565b60095560405191610140830183811067ffffffffffffffff821117610d13576040528383523360208401526004356040840152606083015260808201528260a08201528260c08201528260e082015282610100820152604051610a096020601f19601f6044356004013501160182611e22565b6044356004810135808352906024016020830137836020604435600401358301015261012082015281835260086020526040832090805182556001820160018060a01b036020830151166bffffffffffffffffffffffff60a01b82541617905560408101516002830155606081015160038301556080810151600483015560a0810151600583015560c0810151600683015560e08101516007830155600882016101008201516006811015610cff5790610120929160ff80198354169116179055015180519067ffffffffffffffff8211610ceb57610aeb6009840154611dd6565b601f8111610ca7575b50602090601f8311600114610c3b5760099291869183610c30575b50508160011b915f199060031b1c1916179101555b338252600b6020526040822080549068010000000000000000821015610c1c5781610b5791600160209694018155611ee5565b81549060031b9084821b915f19901b1916179055604051906004358252602435848301526060604083015260443560040135606083015260443560040135602460443501608084013760806044356004013583010152817f7b6ba427d6069eeb2637d7d2bb04f521157dd7df5da9e39b8bf1a2e7100c1b033392608081601f19601f6044356004013501168101030190a36005546004351115610c0e575b60015f805160206121a283398151915255604051908152f35b610c17816120d9565b610bf5565b634e487b7160e01b84526041600452602484fd5b015190505f80610b0f565b906009840186526020862091865b601f1985168110610c8f5750918391600193600995601f19811610610c77575b505050811b01910155610b24565b01515f1960f88460031b161c191690555f8080610c69565b91926020600181928685015181550194019201610c49565b60098401865260208620601f840160051c810160208510610ce4575b601f830160051c82018110610cd9575050610af4565b5f8155600101610cc3565b5080610cc3565b634e487b7160e01b85526041600452602485fd5b634e487b7160e01b86526021600452602486fd5b634e487b7160e01b5f52604160045260245ffd5b6040516240cc4160e61b8152600490fd5b9150506020813d602011610d69575b81610d5460209383611e22565b81010312610d65578190515f610968565b5f80fd5b3d9150610d47565b6040513d85823e3d90fd5b634e487b7160e01b82526011600452602482fd5b60405163210045fd60e01b8152600490fd5b6040516305893b3360e11b8152600490fd5b90506020813d602011610dde575b81610dcf60209383611e22565b81010312610d6557515f6108ce565b3d9150610dc2565b6040516375d25ed760e11b8152600490fd5b506301e1338060243511610877565b604051630b1f4a5560e31b8152600490fd5b503461021a578060031936011261021a576020600954604051908152f35b503461021a57602036600319011261021a57600435610e546120aa565b8082526008602052604082206001810180546001600160a01b03908116939284156107a857600881019060ff8254166006811015610fe357600403610fd15786906004847f000000000000000000000000000000000000000000000000000000000000000016910196875490823b156106ee57604051634eab26cd60e11b81526001600160a01b039190911660048201526024810191909152828160448183865af1908115610d71578391610fbd575b5050838554168754823b156106ee57604051632770a7eb60e21b81526001600160a01b0392909216600483015260248201529082908290604490829084905af180156106e357610fa1575b5050907fccd631c6a824eeaa91ba67065a44b5c5bc5aa9575248e5fd34144c665470fc3292602092600560ff1982541617905554169354604051908152a360015f805160206121a28339815191525580f35b610fad90939293611e0e565b610fb95790855f610f4f565b8580fd5b610fc690611e0e565b61036457815f610f04565b604051630f9f035360e31b8152600490fd5b634e487b7160e01b88526021600452602488fd5b503461021a576020806003193601126103645760043561101561208c565b61101d6120aa565b80835260088252604083206001810180549093916001600160a01b039182169081156107a857600881019160ff835416600681101561079457600103611244578790847f000000000000000000000000000000000000000000000000000000000000000016906004840154823b156106ee576040516358e12ac360e11b81526001600160a01b0392909216600483015260248201529082908290604490829084905af180156106e35761122c575b50506002918260ff198254161790554260058201556110ec6006544261215c565b60068201556110fc600a5461207e565b600a5501938454828254168752600c845261111c6040882091825461215c565b905560405163a9d75b2b60e01b815283816004817f000000000000000000000000000000000000000000000000000000000000000087165afa80156112215783918891611204575b508254875460405163a9059cbb60e01b8b529186166004526024529116848860448180855af160018951148116156111e5575b82604052156106f2575050907f0ceeb4503a2fe0b51298a0af21358f3d89e7eab3f65ae2a7835859c3e2c51604929154169354604051908152a360015f805160206121a28339815191525580f35b60018115166111fb57813b15153d151616611197565b823d8a823e3d90fd5b61121b9150853d871161074c5761073e8183611e22565b5f611164565b6040513d89823e3d90fd5b61123590611e0e565b61124057865f6110cb565b8680fd5b60405163102b2f3960e11b8152600490fd5b503461021a578060031936011261021a576020600454604051908152f35b503461021a576020908160031936011261021a57602482611293611d4b565b60405163652aba9d60e11b81526001600160a01b03918216600482015292839182907f0000000000000000000000000000000000000000000000000000000000000000165afa91821561132657916112f7575b506102ad6127109160035490612057565b90508181813d831161131f575b61130e8183611e22565b81010312610d6557516102ad6112e6565b503d611304565b604051903d90823e3d90fd5b503461021a57602080600319360112610364576004358083526008825261137460408420600761136b600283015460038401549061215c565b91015490612188565b61137c61208c565b6113846120aa565b8184526008835260408420600181018054909491906001600160a01b03908116156107a857600882019560ff875416600681101561079457600203610782576113d6600284015460038501549061215c565b9260078101976113e7895486612188565b801561077057871161075e5760405163a9d75b2b60e01b81527f00000000000000000000000000000000000000000000000000000000000000008516908781600481855afa80156107535786918d916115bf575b5016604051916323b872dd60e01b8d523360045260245288604452878c60648180855af160018d51148116156115a9575b826040528c606052156106f257505084611487888b5461215c565b808b5510156114c8575b50507f553c9087bff5b534e499a66dac3fa9db2962cd252ea01165239755836ae5345e949260409492610616925416975490612188565b600360ff198254161790556114de600a54612195565b600a5588837f00000000000000000000000000000000000000000000000000000000000000001660048585541693015490803b156115a557604051634eab26cd60e11b81526001600160a01b0394909416600485015260248401919091528290604490829084905af1801561159a57611558575b80611491565b9260409492610616929961158d7f553c9087bff5b534e499a66dac3fa9db2962cd252ea01165239755836ae5345e9896611e0e565b9992509294509294611552565b6040513d8b823e3d90fd5b8280fd5b600181151661071d57813b15153d15161661146c565b6115d69150893d8b1161074c5761073e8183611e22565b5f61143b565b503461021a57602036600319011261021a577f408a36151f841709116a4e8aca4e0202874f7f54687dcb863b1ea4672dc9d8cf808252816020526040822033835260205260ff6040832054161561165557506116366120aa565b6116416004356120d9565b60015f805160206121a28339815191525580f35b6044906040519063e2517d3f60e01b82523360048301526024820152fd5b503461021a578060031936011261021a57602090604051908152f35b503461021a578060031936011261021a576020600754604051908152f35b503461021a57604036600319011261021a5760ff60406020926116ce611d35565b60043582528185528282206001600160a01b03909116825284522054604051911615158152f35b503461021a578060031936011261021a5761170e611f0e565b61171661208c565b600160ff19815416176001557f62e78cea01bee320cd4e420270b5ea74000d11b0c9f74754ebdbfc544b05a2586020604051338152a180f35b503461021a578060031936011261021a576020600254604051908152f35b503461021a57602036600319011261021a5760043561178a6120aa565b8082526008602052604082206001810180546001600160a01b0392908316156107a857600881019081549060ff82166006811015610fe35760020361078257600601546007546117d99161215c565b42106118325760ff19166004179055600a546117f490612195565b600a555416907f13b88e6866f0156d706fecfa22b678de5fc2b749c1d2307f6f47eb541385f1ec8380a360015f805160206121a28339815191525580f35b604051631c3a175760e01b8152600490fd5b503461021a578060031936011261021a576020600a54604051908152f35b503461021a57602036600319011261021a577fea851fc89ebccda62380b76fc8e8317f0bcd4d75ea908cf501bd2ebc6ac1c8f260406004356118a2611f0e565b600454908060045582519182526020820152a180f35b503461021a57602036600319011261021a577f41e376fd99913dea7fda140f5c0bd997515b1a181acc58737320322548ec6e7260406004356118f8611f0e565b600254908060025582519182526020820152a180f35b503461021a578060031936011261021a57602060ff600154166040519015158152f35b503461021a578060031936011261021a576020600554604051908152f35b503461021a57602036600319011261021a576040602091600435815260088352206104ab600282015491611a1560038201549161198c838661215c565b9481549560018060a01b0360018401541694600484015460058501546006860154916007870154936119be8587612188565b966119d3600960ff60088c0154169a01611e44565b9a6040519e8f9e8f908152015260408d015260608c015260808b015260a08a015260c089015260e0880152610100870152610120860152610140850190611d61565b61018080610160850152830190611d82565b503461021a578060031936011261021a576020600654604051908152f35b503461021a578060031936011261021a5760206040517f408a36151f841709116a4e8aca4e0202874f7f54687dcb863b1ea4672dc9d8cf8152f35b503461021a578060031936011261021a57611a99611f0e565b60015460ff811615611ad95760ff19166001557f5db9ee0a495bf2e6ff9c91a7834c1ba4fdd244a5e8aa4e537bd38aeae4b073aa6020604051338152a180f35b604051638dfc202b60e01b8152600490fd5b503461021a57604036600319011261021a57611b05611d35565b336001600160a01b03821603611b21576107f790600435611fe4565b60405163334bd91960e11b8152600490fd5b503461021a57604036600319011261021a576107f7600435611b53611d35565b9080845283602052611b6b6001604086200154611f47565b611f68565b503461021a57602036600319011261021a57600160406020926004358152808452200154604051908152f35b503461021a57602036600319011261021a577fb06a54caabe58475c86c2bf9df3f2f06dd1213e9e10659c293117fe4893b274b6040600435611bdc611f0e565b600554908060055582519182526020820152a180f35b503461021a57602036600319011261021a57612710611c15600454600435612057565b049064e8d4a5100091828102928184041490151715611c3957602082604051908152f35b634e487b7160e01b81526011600452602490fd5b503461021a57602036600319011261021a57600435611c6a611f0e565b6127108111611cad5760407fefaf0263a58e2b37c18e8494288218521b8fc54c3d807e281d847e95c4b4d52491600354908060035582519182526020820152a180f35b60405162461bcd60e51b815260206004820152600b60248201526a24b73b30b634b210262a2b60a91b6044820152606490fd5b9050346103645760203660031901126103645760043563ffffffff60e01b81168091036115a55760209250637965db0b60e01b8114908115611d24575b5015158152f35b6301ffc9a760e01b1490505f611d1d565b602435906001600160a01b0382168203610d6557565b600435906001600160a01b0382168203610d6557565b906006821015611d6e5752565b634e487b7160e01b5f52602160045260245ffd5b91908251928382525f5b848110611dac575050825f602080949584010152601f8019910116010190565b602081830181015184830182015201611d8c565b6040906003190112610d65576004359060243590565b90600182811c92168015611e04575b6020831014611df057565b634e487b7160e01b5f52602260045260245ffd5b91607f1691611de5565b67ffffffffffffffff8111610d1357604052565b90601f8019910116810190811067ffffffffffffffff821117610d1357604052565b9060405191825f825492611e5784611dd6565b9081845260019485811690815f14611ec25750600114611e82575b5050611e8092500383611e22565b565b909391505f52602090815f20935f915b818310611eaa575050611e8093508201015f80611e72565b85548884018501529485019487945091830191611e92565b915050611e8094506020925060ff191682840152151560051b8201015f80611e72565b8054821015611efa575f5260205f2001905f90565b634e487b7160e01b5f52603260045260245ffd5b335f9081527fad3228b676f7d3cd4284a5443f17f1962b36e491b30a40b2405849e597ba5fb5602052604081205460ff16156116555750565b805f525f60205260405f20335f5260205260ff60405f205416156116555750565b905f9180835282602052604083209160018060a01b03169182845260205260ff604084205416155f14611fdf57808352826020526040832082845260205260408320600160ff198254161790557f2f8788117e7eff1d82e926ec794901d17c78024a50270940304540a733656f0d339380a4600190565b505090565b905f9180835282602052604083209160018060a01b03169182845260205260ff6040842054165f14611fdf5780835282602052604083208284526020526040832060ff1981541690557ff6391f5c32d9c69d2a47ea670b442974b53935d1edc7fd64eb21e047a839171b339380a4600190565b8181029291811591840414171561206a57565b634e487b7160e01b5f52601160045260245ffd5b5f19811461206a5760010190565b60ff6001541661209857565b60405163d93c066560e01b8152600490fd5b5f805160206121a283398151915260028154146120c75760029055565b604051633ee5aeb560e01b8152600490fd5b5f81815260086020526040902060018101546001600160a01b0316156107a85760088101805460ff81166006811015611d6e5761214a5760ff19166001179055600401546040519081527e25a2d6ca1b3da40a46ecc2c7ecbddb416fe7180003a0155b7e7d782d895f2190602090a2565b60405163fb417ab160e01b8152600490fd5b9190820180921161206a57565b90816020910312610d6557516001600160a01b0381168103610d655790565b9190820391821161206a57565b801561206a575f19019056fe9b779b17422d0df92223018b32b4d1fa46e071723d6817e2486d003becc55f00a26469706673582212200ef7ded708e6e5750e2cfcee08cff63ed11bed6b9c876d175d10ffb6411b399c64736f6c634300081400332f8788117e7eff1d82e926ec794901d17c78024a50270940304540a733656f0d","linkReferences":{}},"methodIdentifiers":{"APPROVER_ROLE()":"4245962b","DEFAULT_ADMIN_ROLE()":"a217fddf","activeLoanCount()":"6f083519","approveLoan(uint256)":"aadc1ac1","autoApproveThreshold()":"54edb3a0","borrowerLoans(address,uint256)":"e3ed1902","calculateInterest(uint256,uint256)":"efdd7c07","claimCollateral(uint256)":"c49785b4","collateralRatio()":"b4eae1cb","defaultLoanDuration()":"442c64c6","disburse(uint256)":"bd77ac2c","getBorrowerLoans(address)":"eee8b7ff","getLoan(uint256)":"504006ca","getMaxLoanAmount(address)":"ad73f38e","getRequiredCollateral(uint256)":"09cd4e26","getRoleAdmin(bytes32)":"248a9ca3","gracePeriod()":"a06db7dc","grantRole(bytes32,address)":"2f2ff15d","hasRole(bytes32,address)":"91d14854","interestRate()":"7c3a00fd","loanCount()":"ce63094d","loans(uint256)":"e1ec3c68","markDefaulted(uint256)":"73216450","maxLTV()":"f384bd05","pause()":"8456cb59","paused()":"5c975abb","renounceRole(bytes32,address)":"36568abe","repay(uint256,uint256)":"d8aed145","repayInFull(uint256)":"ad05db51","requestLoan(uint256,uint256,string)":"d3602dc6","revokeRole(bytes32,address)":"d547741f","setAutoApproveThreshold(uint256)":"14956f44","setCollateralRatio(uint256)":"6060663e","setInterestRate(uint256)":"5f84f302","setMaxLTV(uint256)":"08a0c375","supportsInterface(bytes4)":"01ffc9a7","token()":"fc0c546a","totalBorrowed(address)":"e2e1ca2b","unpause()":"3f4ba83a","vault()":"fbfa77cf"},"id":35}