{"abi":[{"type":"constructor","inputs":[{"name":"_vault","type":"address","internalType":"address"}],"stateMutability":"nonpayable"},{"type":"function","name":"APPROVER_ROLE","inputs":[],"outputs":[{"name":"","type":"bytes32","internalType":"bytes32"}],"stateMutability":"view"},{"type":"function","name":"DEFAULT_ADMIN_ROLE","inputs":[],"outputs":[{"name":"","type":"bytes32","internalType":"bytes32"}],"stateMutability":"view"},{"type":"function","name":"approveClaim","inputs":[{"name":"claimId","type":"uint256","internalType":"uint256"}],"outputs":[],"stateMutability":"nonpayable"},{"type":"function","name":"benefitTypes","inputs":[{"name":"","type":"uint8","internalType":"enum LakomiCare.BenefitCategory"}],"outputs":[{"name":"name","type":"string","internalType":"string"},{"name":"enabled","type":"bool","internalType":"bool"},{"name":"maxAmount","type":"uint256","internalType":"uint256"},{"name":"annualLimit","type":"uint256","internalType":"uint256"},{"name":"coolingOffPeriod","type":"uint256","internalType":"uint256"},{"name":"verificationRequired","type":"bool","internalType":"bool"}],"stateMutability":"view"},{"type":"function","name":"checkEligibility","inputs":[{"name":"member","type":"address","internalType":"address"},{"name":"category","type":"uint8","internalType":"enum LakomiCare.BenefitCategory"}],"outputs":[{"name":"eligible","type":"bool","internalType":"bool"},{"name":"remaining","type":"uint256","internalType":"uint256"},{"name":"cooldownRemaining","type":"uint256","internalType":"uint256"}],"stateMutability":"view"},{"type":"function","name":"claimCount","inputs":[],"outputs":[{"name":"","type":"uint256","internalType":"uint256"}],"stateMutability":"view"},{"type":"function","name":"claims","inputs":[{"name":"","type":"uint256","internalType":"uint256"}],"outputs":[{"name":"id","type":"uint256","internalType":"uint256"},{"name":"claimant","type":"address","internalType":"address"},{"name":"category","type":"uint8","internalType":"enum LakomiCare.BenefitCategory"},{"name":"amount","type":"uint256","internalType":"uint256"},{"name":"proofHash","type":"string","internalType":"string"},{"name":"description","type":"string","internalType":"string"},{"name":"timestamp","type":"uint256","internalType":"uint256"},{"name":"status","type":"uint8","internalType":"enum LakomiCare.ClaimStatus"},{"name":"rejectionReason","type":"string","internalType":"string"}],"stateMutability":"view"},{"type":"function","name":"getBenefitType","inputs":[{"name":"category","type":"uint8","internalType":"enum LakomiCare.BenefitCategory"}],"outputs":[{"name":"name","type":"string","internalType":"string"},{"name":"enabled","type":"bool","internalType":"bool"},{"name":"maxAmount","type":"uint256","internalType":"uint256"},{"name":"annualLimit","type":"uint256","internalType":"uint256"},{"name":"coolingOffPeriod","type":"uint256","internalType":"uint256"},{"name":"verificationRequired","type":"bool","internalType":"bool"}],"stateMutability":"view"},{"type":"function","name":"getClaim","inputs":[{"name":"claimId","type":"uint256","internalType":"uint256"}],"outputs":[{"name":"id","type":"uint256","internalType":"uint256"},{"name":"claimant","type":"address","internalType":"address"},{"name":"category","type":"uint8","internalType":"enum LakomiCare.BenefitCategory"},{"name":"amount","type":"uint256","internalType":"uint256"},{"name":"proofHash","type":"string","internalType":"string"},{"name":"description","type":"string","internalType":"string"},{"name":"timestamp","type":"uint256","internalType":"uint256"},{"name":"status","type":"uint8","internalType":"enum LakomiCare.ClaimStatus"},{"name":"rejectionReason","type":"string","internalType":"string"}],"stateMutability":"view"},{"type":"function","name":"getMemberClaims","inputs":[{"name":"member","type":"address","internalType":"address"}],"outputs":[{"name":"","type":"uint256[]","internalType":"uint256[]"}],"stateMutability":"view"},{"type":"function","name":"getRoleAdmin","inputs":[{"name":"role","type":"bytes32","internalType":"bytes32"}],"outputs":[{"name":"","type":"bytes32","internalType":"bytes32"}],"stateMutability":"view"},{"type":"function","name":"grantRole","inputs":[{"name":"role","type":"bytes32","internalType":"bytes32"},{"name":"account","type":"address","internalType":"address"}],"outputs":[],"stateMutability":"nonpayable"},{"type":"function","name":"hasRole","inputs":[{"name":"role","type":"bytes32","internalType":"bytes32"},{"name":"account","type":"address","internalType":"address"}],"outputs":[{"name":"","type":"bool","internalType":"bool"}],"stateMutability":"view"},{"type":"function","name":"maxTotalPayout","inputs":[],"outputs":[{"name":"","type":"uint256","internalType":"uint256"}],"stateMutability":"view"},{"type":"function","name":"memberUsage","inputs":[{"name":"","type":"address","internalType":"address"}],"outputs":[{"name":"medicalUsed","type":"uint256","internalType":"uint256"},{"name":"medicalLastClaim","type":"uint256","internalType":"uint256"},{"name":"unemploymentUsed","type":"uint256","internalType":"uint256"},{"name":"unemploymentLastClaim","type":"uint256","internalType":"uint256"},{"name":"educationUsed","type":"uint256","internalType":"uint256"},{"name":"educationLastClaim","type":"uint256","internalType":"uint256"},{"name":"housingUsed","type":"uint256","internalType":"uint256"},{"name":"housingLastClaim","type":"uint256","internalType":"uint256"},{"name":"lastYearReset","type":"uint256","internalType":"uint256"}],"stateMutability":"view"},{"type":"function","name":"pause","inputs":[],"outputs":[],"stateMutability":"nonpayable"},{"type":"function","name":"paused","inputs":[],"outputs":[{"name":"","type":"bool","internalType":"bool"}],"stateMutability":"view"},{"type":"function","name":"processClaim","inputs":[{"name":"claimId","type":"uint256","internalType":"uint256"}],"outputs":[],"stateMutability":"nonpayable"},{"type":"function","name":"processingTime","inputs":[],"outputs":[{"name":"","type":"uint256","internalType":"uint256"}],"stateMutability":"view"},{"type":"function","name":"rejectClaim","inputs":[{"name":"claimId","type":"uint256","internalType":"uint256"},{"name":"reason","type":"string","internalType":"string"}],"outputs":[],"stateMutability":"nonpayable"},{"type":"function","name":"renounceRole","inputs":[{"name":"role","type":"bytes32","internalType":"bytes32"},{"name":"callerConfirmation","type":"address","internalType":"address"}],"outputs":[],"stateMutability":"nonpayable"},{"type":"function","name":"revokeRole","inputs":[{"name":"role","type":"bytes32","internalType":"bytes32"},{"name":"account","type":"address","internalType":"address"}],"outputs":[],"stateMutability":"nonpayable"},{"type":"function","name":"setMaxTotalPayout","inputs":[{"name":"newMax","type":"uint256","internalType":"uint256"}],"outputs":[],"stateMutability":"nonpayable"},{"type":"function","name":"setProcessingTime","inputs":[{"name":"newTime","type":"uint256","internalType":"uint256"}],"outputs":[],"stateMutability":"nonpayable"},{"type":"function","name":"submitClaim","inputs":[{"name":"category","type":"uint8","internalType":"enum LakomiCare.BenefitCategory"},{"name":"amount","type":"uint256","internalType":"uint256"},{"name":"proofHash","type":"string","internalType":"string"},{"name":"description","type":"string","internalType":"string"}],"outputs":[{"name":"claimId","type":"uint256","internalType":"uint256"}],"stateMutability":"nonpayable"},{"type":"function","name":"supportsInterface","inputs":[{"name":"interfaceId","type":"bytes4","internalType":"bytes4"}],"outputs":[{"name":"","type":"bool","internalType":"bool"}],"stateMutability":"view"},{"type":"function","name":"unpause","inputs":[],"outputs":[],"stateMutability":"nonpayable"},{"type":"function","name":"updateBenefitType","inputs":[{"name":"category","type":"uint8","internalType":"enum LakomiCare.BenefitCategory"},{"name":"enabled","type":"bool","internalType":"bool"},{"name":"maxAmount","type":"uint256","internalType":"uint256"},{"name":"annualLimit","type":"uint256","internalType":"uint256"},{"name":"coolingOffPeriod","type":"uint256","internalType":"uint256"},{"name":"verificationRequired","type":"bool","internalType":"bool"}],"outputs":[],"stateMutability":"nonpayable"},{"type":"function","name":"vault","inputs":[],"outputs":[{"name":"","type":"address","internalType":"contract LakomiVault"}],"stateMutability":"view"},{"type":"event","name":"BenefitLimitsUpdated","inputs":[{"name":"category","type":"uint8","indexed":false,"internalType":"enum LakomiCare.BenefitCategory"},{"name":"maxAmount","type":"uint256","indexed":false,"internalType":"uint256"},{"name":"annualLimit","type":"uint256","indexed":false,"internalType":"uint256"}],"anonymous":false},{"type":"event","name":"BenefitTypeUpdated","inputs":[{"name":"category","type":"uint8","indexed":false,"internalType":"enum LakomiCare.BenefitCategory"},{"name":"enabled","type":"bool","indexed":false,"internalType":"bool"}],"anonymous":false},{"type":"event","name":"ClaimApproved","inputs":[{"name":"id","type":"uint256","indexed":true,"internalType":"uint256"},{"name":"approver","type":"address","indexed":true,"internalType":"address"}],"anonymous":false},{"type":"event","name":"ClaimPaid","inputs":[{"name":"id","type":"uint256","indexed":true,"internalType":"uint256"},{"name":"claimant","type":"address","indexed":true,"internalType":"address"},{"name":"amount","type":"uint256","indexed":false,"internalType":"uint256"}],"anonymous":false},{"type":"event","name":"ClaimRejected","inputs":[{"name":"id","type":"uint256","indexed":true,"internalType":"uint256"},{"name":"reason","type":"string","indexed":false,"internalType":"string"}],"anonymous":false},{"type":"event","name":"ClaimSubmitted","inputs":[{"name":"id","type":"uint256","indexed":true,"internalType":"uint256"},{"name":"claimant","type":"address","indexed":true,"internalType":"address"},{"name":"category","type":"uint8","indexed":false,"internalType":"enum LakomiCare.BenefitCategory"},{"name":"amount","type":"uint256","indexed":false,"internalType":"uint256"},{"name":"proofHash","type":"string","indexed":false,"internalType":"string"}],"anonymous":false},{"type":"event","name":"Paused","inputs":[{"name":"account","type":"address","indexed":false,"internalType":"address"}],"anonymous":false},{"type":"event","name":"RoleAdminChanged","inputs":[{"name":"role","type":"bytes32","indexed":true,"internalType":"bytes32"},{"name":"previousAdminRole","type":"bytes32","indexed":true,"internalType":"bytes32"},{"name":"newAdminRole","type":"bytes32","indexed":true,"internalType":"bytes32"}],"anonymous":false},{"type":"event","name":"RoleGranted","inputs":[{"name":"role","type":"bytes32","indexed":true,"internalType":"bytes32"},{"name":"account","type":"address","indexed":true,"internalType":"address"},{"name":"sender","type":"address","indexed":true,"internalType":"address"}],"anonymous":false},{"type":"event","name":"RoleRevoked","inputs":[{"name":"role","type":"bytes32","indexed":true,"internalType":"bytes32"},{"name":"account","type":"address","indexed":true,"internalType":"address"},{"name":"sender","type":"address","indexed":true,"internalType":"address"}],"anonymous":false},{"type":"event","name":"Unpaused","inputs":[{"name":"account","type":"address","indexed":false,"internalType":"address"}],"anonymous":false},{"type":"error","name":"AccessControlBadConfirmation","inputs":[]},{"type":"error","name":"AccessControlUnauthorizedAccount","inputs":[{"name":"account","type":"address","internalType":"address"},{"name":"neededRole","type":"bytes32","internalType":"bytes32"}]},{"type":"error","name":"EnforcedPause","inputs":[]},{"type":"error","name":"ExpectedPause","inputs":[]},{"type":"error","name":"LakomiCare__AlreadyProcessed","inputs":[]},{"type":"error","name":"LakomiCare__BenefitDisabled","inputs":[]},{"type":"error","name":"LakomiCare__ClaimNotFound","inputs":[]},{"type":"error","name":"LakomiCare__ClaimNotPending","inputs":[]},{"type":"error","name":"LakomiCare__CoolingOffNotMet","inputs":[]},{"type":"error","name":"LakomiCare__ExceedsAnnualLimit","inputs":[]},{"type":"error","name":"LakomiCare__ExceedsMaxAmount","inputs":[]},{"type":"error","name":"LakomiCare__InsufficientFunds","inputs":[]},{"type":"error","name":"LakomiCare__NotMember","inputs":[]},{"type":"error","name":"LakomiCare__ZeroAddress","inputs":[]},{"type":"error","name":"LakomiCare__ZeroAmount","inputs":[]},{"type":"error","name":"ReentrancyGuardReentrantCall","inputs":[]},{"type":"error","name":"SafeERC20FailedOperation","inputs":[{"name":"token","type":"address","internalType":"address"}]}],"bytecode":{"object":"0x60a0346200082057601f6200292738819003918201601f19168301916001600160401b03831184841017620005f9578084926020946040528339810103126200082057516001600160a01b03811690819003620008205760017f9b779b17422d0df92223018b32b4d1fa46e071723d6817e2486d003becc55f005580156200080e576080526201518060065564012a05f200806007556200009f62000824565b90620000aa62000844565b60118152704d65646963616c20456d657267656e637960781b602082015282526001602083015263b2d05e00604083015260608201526276a70060808201525f60a08201525f8052600260205260405f20815180519060018060401b038211620005f9578254600181811c9116801562000803575b6020821014620005da57601f8111620007bd575b50602090601f83116001146200076357938260059360a093620001c1975f9262000512575b50508160011b915f199060031b1c19161784555b6200018c60208201511515600186019060ff801983541691151516179055565b6040810151600285015560608101516003850155608081015160048501550151151591019060ff801983541691151516179055565b620001cb62000824565b620001d562000844565b601481527f556e656d706c6f796d656e7420537570706f72740000000000000000000000006020820152815260016020820152633b9aca00604082015263b2d05e00606082015262ed4e006080820152600160a082015260015f52600260205260405f20815180519060018060401b038211620005f9578254600181811c9116801562000758575b6020821014620005da57601f811162000712575b50602090601f8311600114620006b857938260059360a093620002c8975f92620005125750508160011b915f199060031b1c19161784556200018c60208201511515600186019060ff801983541691151516179055565b620002d262000824565b620002dc62000844565b601481527f456475636174696f6e20417373697374616e6365000000000000000000000000602082015281526001602082015263773594006040820152637735940060608201526301e133806080820152600160a082015260025f52600260205260405f20815180519060018060401b038211620005f9578254600181811c91168015620006ad575b6020821014620005da57601f811162000667575b50602090601f83116001146200060d57938260059360a093620003d0975f92620005125750508160011b915f199060031b1c19161784556200018c60208201511515600186019060ff801983541691151516179055565b620003da62000824565b620003e462000844565b6012815271486f7573696e6720417373697374616e636560701b60208201528152600160208201526377359400604082015263ee6b2800606082015262ed4e006080820152600160a082015260035f52600260205260405f20815180519060018060401b038211620005f9578254600181811c91168015620005ee575b6020821014620005da57601f811162000590575b50602090601f83116001146200051e57938260059360a093620004cc975f92620005125750508160011b915f199060031b1c19161784556200018c60208201511515600186019060ff801983541691151516179055565b620004d73362000864565b50620004e333620008e2565b50604051611f8490816200098382396080518181816101700152818161096b015281816110120152611ca50152f35b015190505f8062000158565b90601f19831691845f5260205f20925f5b8181106200057757509360a093620004cc979360019383600598106200055e575b505050811b0184556200016c565b01515f1960f88460031b161c191690555f808062000550565b929360206001819287860151815501950193016200052f565b835f5260205f20601f840160051c81019160208510620005cf575b601f0160051c01905b818110620005c3575062000475565b5f8155600101620005b4565b9091508190620005ab565b634e487b7160e01b5f52602260045260245ffd5b90607f169062000461565b634e487b7160e01b5f52604160045260245ffd5b90835f5260205f20915f5b601f19851681106200064e57508360a093620003d09793600193600597601f198116106200055e57505050811b0184556200016c565b9192602060018192868501518155019401920162000618565b835f5260205f20601f840160051c810160208510620006a5575b601f830160051c820181106200069957505062000379565b5f815560010162000681565b508062000681565b90607f169062000365565b90835f5260205f20915f5b601f1985168110620006f957508360a093620002c89793600193600597601f198116106200055e57505050811b0184556200016c565b91926020600181928685015181550194019201620006c3565b835f5260205f20601f840160051c81016020851062000750575b601f830160051c820181106200074457505062000271565b5f81556001016200072c565b50806200072c565b90607f16906200025d565b90835f5260205f20915f5b601f1985168110620007a457508360a093620001c19793600193600597601f198116106200055e57505050811b0184556200016c565b919260206001819286850151815501940192016200076e565b835f5260205f20601f840160051c810160208510620007fb575b601f830160051c82018110620007ef57505062000133565b5f8155600101620007d7565b5080620007d7565b90607f16906200011f565b60405163731b94fb60e01b8152600490fd5b5f80fd5b6040519060c082016001600160401b03811183821017620005f957604052565b60408051919082016001600160401b03811183821017620005f957604052565b6001600160a01b03165f8181527fad3228b676f7d3cd4284a5443f17f1962b36e491b30a40b2405849e597ba5fb5602052604081205490919060ff16620008de57818052816020526040822081835260205260408220600160ff1982541617905533915f80516020620029078339815191528180a4600190565b5090565b6001600160a01b03165f8181527f388301e6ac71f158ac8b29c21de3d490adc31828b570ec3663983f6bee199fa060205260408120549091907f408a36151f841709116a4e8aca4e0202874f7f54687dcb863b1ea4672dc9d8cf9060ff166200097d57808352826020526040832082845260205260408320600160ff198254161790555f8051602062002907833981519152339380a4600190565b50509056fe6080806040526004361015610012575f80fd5b5f3560e01c90816301ffc9a714611636575080631d04886c146115ef578063248a9ca3146115c35780632f2ff15d146115875780633577a5ad146113c657806336568abe1461137f5780633f4ba83a146113165780634245962b146112dc57806346e301351461129d5780635aef24471461123b5780635c975abb1461121957806367e37e9c146111fc5780636c53955c146111df5780637257dfc914610f4c578063762b97651461089c5780637c1a101d1461087b5780637e57b83b146107eb5780638456cb59146107935780638da4d3c914610776578063901382e0146104d557806391d148541461048d578063a217fddf14610473578063a238481714610452578063a888c2cd146103ce578063d547741f14610390578063d73d25a714610325578063dca557b114610213578063fac7936e146101a35763fbfa77cf1461015b575f80fd5b3461019f575f36600319011261019f576040517f00000000000000000000000000000000000000000000000000000000000000006001600160a01b03168152602090f35b5f80fd5b3461019f57602036600319011261019f57600435600481101561019f576101c9816116e2565b5f52600260205260405f2060ff6001820154169061020f600282015491600381015460048201549061020260ff60058501541693611810565b94604051968796876118b1565b0390f35b3461019f5760208060031936011261019f5761022d611689565b906005549161023b83611dbc565b5f9390916001600160a01b0391908216855b8281106102d8575050505061026183611dbc565b925f5b8181106102af57505050604051918183928301818452825180915281604085019301915f5b82811061029857505050500390f35b835185528695509381019392810192600101610289565b806102bf6102d092859795611dee565b516102ca8286611dee565b52611acc565b939193610264565b805f97949796959652600485528187600160405f200154161461030a575b6102ff90611acc565b95929594939461024d565b9261031d81856102ca6102ff948a611dee565b9390506102f6565b3461019f57602036600319011261019f57600435600481101561019f5761034b816116e2565b5f52600260205260405f2061035f81611810565b61020f60ff60018401541692600281015490600381015460ff600560048401549301541692604051968796876118b1565b3461019f57604036600319011261019f576103cc6004356103af61169f565b90805f525f6020526103c7600160405f20015461199b565b611a38565b005b3461019f57602036600319011261019f576004355f52600460205260405f20805461020f60018301549260028101549061040a60038201611810565b61041660048301611810565b600583015491610430600760ff6006870154169501611810565b60405198899891969160a082901c60ff16916001600160a01b0316908a61173e565b3461019f57602036600319011261019f5761046b611962565b600435600755005b3461019f575f36600319011261019f5760206040515f8152f35b3461019f57604036600319011261019f576104a661169f565b6004355f525f60205260405f209060018060a01b03165f52602052602060ff60405f2054166040519015158152f35b3461019f5760c036600319011261019f5760048035101561019f57602435801515810361019f5760a4359081151580920361019f57610512611962565b61051d6004356116e2565b6004355f52600260205260405f20916040519060c082016001600160401b0394838210868311176107625761055491604052611810565b8252821515602083015260443560408301526064356060830152608435608083015260a08201526105866004356116e2565b6004355f52600260205260405f20908051938451908111610762576105b5816105af85546117b7565b85611b1f565b6020601f82116001146106d05760a0610661938360409796946005947fa5c509cdcb25d01c311c636a154051732730772e6837367e605f76602e481b3d9a5f926106c5575b50508160011b915f199060031b1c19161784555b61062d60208201511515600186019060ff801983541691151516179055565b86810151600285015560608101516003850155608081015160048501550151151591019060ff801983541691151516179055565b81519061066f6004356116e2565b600435825215156020820152a17f2f44c759efcde7739427fb0ce9debca19f6a6669ccdc210ec7fb0e310b796ed960606040516106ad6004356116e2565b600435815260443560208201526064356040820152a1005b015190508a806105fa565b835f5260205f20955f5b601f198416811061074a5750610661936001847fa5c509cdcb25d01c311c636a154051732730772e6837367e605f76602e481b3d9960059560a09560409b9a98601f19811610610732575b505050811b01845561060e565b01515f1960f88460031b161c191690558a8080610725565b828201518855600190970196602092830192016106da565b634e487b7160e01b5f52604160045260245ffd5b3461019f575f36600319011261019f576020600554604051908152f35b3461019f575f36600319011261019f576107ab611962565b6107b3611b92565b600160ff19815416176001557f62e78cea01bee320cd4e420270b5ea74000d11b0c9f74754ebdbfc544b05a2586020604051338152a1005b3461019f57602036600319011261019f576001600160a01b0361080c611689565b165f52600360205261012060405f208054906001810154906002810154600382015460048301546005840154916006850154936008600787015496015496604051988952602089015260408801526060870152608086015260a085015260c084015260e0830152610100820152f35b3461019f57602036600319011261019f57610894611962565b600435600655005b3461019f57608036600319011261019f5760048035101561019f576044356001600160401b03811161019f576108d69036906004016116b5565b906064356001600160401b03811161019f576108f69036906004016116b5565b919092610901611b92565b610909611bb0565b60243515610f3a5761091c6004356116e2565b6004355f52600260205260405f209160ff60018401541615610f2857600283015460243511610f165760075460243511610f165760405163652aba9d60e11b81523360048201526020816024817f00000000000000000000000000000000000000000000000000000000000000006001600160a01b03165afa908115610f0b575f91610ed9575b5015610ec757335f52600360205260405f206109be81611e16565b6109d56024356109d060043584611e63565b611aab565b600385015410610eb5576109ec9060043590611ec7565b8015159081610e9d575b50610e8b5760055493610a0885611acc565b60055560405195866101208101106001600160401b036101208901111761076257610a70916101208801604052868852336020890152610a496004356116e2565b60043560408901526024356060890152610a64368686611ada565b60808901523691611ada565b60a08601524260c08601525f60e08601526040518060208101106001600160401b0360208301111761076257602081016040525f8152610100860152835f52600460205260405f2094805186556001860160018060a01b036020830151168154906040840151610adf816116e2565b610ae8816116e2565b6001600160a81b03199092161760a09190911b60ff60a01b161790556060810151600287015560808101518051906001600160401b038211610762578190610b4082610b3760038c01546117b7565b60038c01611b1f565b602090601f8311600114610e1d575f92610e12575b50508160011b915f199060031b1c19161760038701555b60a08101518051906001600160401b03821161076257610b9c82610b9360048b01546117b7565b60048b01611b1f565b602090601f8311600114610da2576101009392915f9183610d97575b50508160011b915f199060031b1c19161760048801555b60c081015160058801556006870160e0820151610beb816116e2565b610bf4816116e2565b60ff801983541691161790550151908151956001600160401b03871161076257868693610c33602099610c2a60078601546117b7565b60078601611b1f565b8890601f8311600114610cfd579360ff9795936007847f79001df4510ff7ec38d36e46b1a73cbd35491d3e99dab4190aac87702c06034a95610cbf9560059b995f92610cf2575b50508160011b915f199060031b1c1916179101555b604051918291610ca06004356116e2565b60043583526024358c8401526060604084015233966060840191611b72565b0390a301541615610ce4575b60015f80516020611f2f83398151915255604051908152f35b610ced81611bdf565b610ccb565b015190508e80610c7a565b90600784015f52895f20915f5b601f1985168110610d7d5750936007600185610cbf9560059b999560ff9d9b997f79001df4510ff7ec38d36e46b1a73cbd35491d3e99dab4190aac87702c06034a99601f19811610610d65575b505050811b01910155610c8f565b01515f1960f88460031b161c191690558e8080610d57565b8183015184558a9750600190930192918b01918b01610d0a565b015190508980610bb8565b90600489015f5260205f20915f5b601f1985168110610dfa57509183916001936101009695601f19811610610de2575b505050811b016004880155610bcf565b01515f1960f88460031b161c19169055898080610dd2565b91926020600181928685015181550194019201610db0565b015190508880610b55565b9250600389015f5260205f20905f935b601f1984168510610e70576001945083601f19811610610e58575b505050811b016003870155610b6c565b01515f1960f88460031b161c19169055888080610e48565b81810151835560209485019460019093019290910190610e2d565b604051635607fbcb60e01b8152600490fd5b610ead9150600485015490611aab565b4210866109f6565b604051637b4b9e0f60e11b8152600490fd5b604051631280198b60e31b8152600490fd5b90506020813d602011610f03575b81610ef4602093836117ef565b8101031261019f5751866109a3565b3d9150610ee7565b6040513d5f823e3d90fd5b6040516363caff9160e01b8152600490fd5b6040516376e974bd60e11b8152600490fd5b60405163a71a11f160e01b8152600490fd5b3461019f5760208060031936011261019f57600435610f69611b92565b610f71611bb0565b805f526004825260405f209060019283830160018060a01b03908181541680156111cd5760068601908760ff835416610fa9816116e2565b036111bb575f526003845260405f20610fc181611e16565b600260ff845460a01c16970196875490610fda816116e2565b806111295750610feb908254611aab565b815587429101555b805460ff1916600317905560405163a9d75b2b60e01b815283816004817f000000000000000000000000000000000000000000000000000000000000000087165afa908115610f0b575f916110f3575b50828254169086546040519263a9059cbb60e01b5f52600452602452845f60448180855af1885f51148116156110d5575b82604052156110bf575050907faf3c8fdd75d667f71d36d7840b8ef9086c516c9b047ad6a83a5a66151342123a929154169354604051908152a35f80516020611f2f83398151915255005b635274afe760e01b825283166004820152602490fd5b888115166110ea57813b15153d151616611074565b823d5f823e3d90fd5b90508381813d8311611122575b61110a81836117ef565b8101031261019f5751828116810361019f5787611043565b503d611100565b611132816116e2565b808a03611156575061114960028301918254611aab565b9055600342910155610ff3565b61115f816116e2565b60028103611184575061117760048301918254611aab565b9055600542910155610ff3565b806111906003926116e2565b1461119d575b5050610ff3565b6111ac60068301918254611aab565b90556007429101558780611196565b6040516331f415eb60e21b8152600490fd5b604051636f6de25560e11b8152600490fd5b3461019f575f36600319011261019f576020600754604051908152f35b3461019f575f36600319011261019f576020600654604051908152f35b3461019f575f36600319011261019f57602060ff600154166040519015158152f35b3461019f57602036600319011261019f576004355f52600460205260405f20805461020f600183015492600281015490600581015460ff6006830154169161128560038201611810565b610430600761129660048501611810565b9301611810565b3461019f57602036600319011261019f576112b66118e9565b6112be611bb0565b6112c9600435611bdf565b60015f80516020611f2f83398151915255005b3461019f575f36600319011261019f5760206040517f408a36151f841709116a4e8aca4e0202874f7f54687dcb863b1ea4672dc9d8cf8152f35b3461019f575f36600319011261019f5761132e611962565b60015460ff81161561136d5760ff19166001557f5db9ee0a495bf2e6ff9c91a7834c1ba4fdd244a5e8aa4e537bd38aeae4b073aa6020604051338152a1005b604051638dfc202b60e01b8152600490fd5b3461019f57604036600319011261019f5761139861169f565b336001600160a01b038216036113b4576103cc90600435611a38565b60405163334bd91960e11b8152600490fd5b3461019f57604036600319011261019f576001600160401b0360043560243582811161019f576113fa9036906004016116b5565b906114036118e9565b61140b611bb0565b825f526020906004825260405f209460019560018060a01b038782015416156111cd57600681019081549160ff8316611443816116e2565b61157557600260079360ff1916179055019084116107625761146f8461146983546117b7565b83611b1f565b5f601f85116001146114ee57916114cf91857f43cc3d080e025c67c26d62b18bd442511dc9c76c8aa3f48cc0e8f456173e61f19695945f916114e3575b505f19600387901b1c191685891b1790555b604051938385948552840191611b72565b0390a25f80516020611f2f83398151915255005b9050820135896114ac565b601f19851690825f52845f20915f5b89828210611560575050916114cf9391877f43cc3d080e025c67c26d62b18bd442511dc9c76c8aa3f48cc0e8f456173e61f19897969410611547575b50508785811b0190556114be565b8301355f19600388901b60f8161c191690558880611539565b868401358555909301929186019186016114fd565b60405163febf534360e01b8152600490fd5b3461019f57604036600319011261019f576103cc6004356115a661169f565b90805f525f6020526115be600160405f20015461199b565b6119bc565b3461019f57602036600319011261019f576004355f525f6020526020600160405f200154604051908152f35b3461019f57604036600319011261019f57611608611689565b60243590600482101561019f5760609161162191611c53565b90604051921515835260208301526040820152f35b3461019f57602036600319011261019f576004359063ffffffff60e01b821680920361019f57602091637965db0b60e01b8114908115611678575b5015158152f35b6301ffc9a760e01b14905083611671565b600435906001600160a01b038216820361019f57565b602435906001600160a01b038216820361019f57565b9181601f8401121561019f578235916001600160401b03831161019f576020838186019501011161019f57565b600411156116ec57565b634e487b7160e01b5f52602160045260245ffd5b91908251928382525f5b84811061172a575050825f602080949584010152601f8019910116010190565b60208183018101518483018201520161170a565b95929361179294611784936117b49b999a9793895260018060a01b03166020890152611769816116e2565b60408801526060870152610120806080880152860190611700565b9084820360a0860152611700565b9360c08301526117a1816116e2565b60e0820152610100818403910152611700565b90565b90600182811c921680156117e5575b60208310146117d157565b634e487b7160e01b5f52602260045260245ffd5b91607f16916117c6565b90601f801991011681019081106001600160401b0382111761076257604052565b9060405191825f825492611823846117b7565b9081845260019485811690815f1461188e575060011461184e575b505061184c925003836117ef565b565b909391505f52602090815f20935f915b81831061187657505061184c93508201015f8061183e565b8554888401850152948501948794509183019161185e565b91505061184c94506020925060ff191682840152151560051b8201015f8061183e565b94919695926118cb60a0959260c0885260c0880190611700565b97151560208701526040860152606085015260808401521515910152565b335f9081527f388301e6ac71f158ac8b29c21de3d490adc31828b570ec3663983f6bee199fa060205260409020547f408a36151f841709116a4e8aca4e0202874f7f54687dcb863b1ea4672dc9d8cf9060ff16156119445750565b6044906040519063e2517d3f60e01b82523360048301526024820152fd5b335f9081527fad3228b676f7d3cd4284a5443f17f1962b36e491b30a40b2405849e597ba5fb5602052604081205460ff16156119445750565b805f525f60205260405f20335f5260205260ff60405f205416156119445750565b905f9180835282602052604083209160018060a01b03169182845260205260ff604084205416155f14611a3357808352826020526040832082845260205260408320600160ff198254161790557f2f8788117e7eff1d82e926ec794901d17c78024a50270940304540a733656f0d339380a4600190565b505090565b905f9180835282602052604083209160018060a01b03169182845260205260ff6040842054165f14611a335780835282602052604083208284526020526040832060ff1981541690557ff6391f5c32d9c69d2a47ea670b442974b53935d1edc7fd64eb21e047a839171b339380a4600190565b91908201809211611ab857565b634e487b7160e01b5f52601160045260245ffd5b5f198114611ab85760010190565b9291926001600160401b0382116107625760405191611b03601f8201601f1916602001846117ef565b82948184528183011161019f578281602093845f960137010152565b90601f8111611b2d57505050565b5f91825260208220906020601f850160051c83019410611b68575b601f0160051c01915b828110611b5d57505050565b818155600101611b51565b9092508290611b48565b908060209392818452848401375f828201840152601f01601f1916010190565b60ff60015416611b9e57565b60405163d93c066560e01b8152600490fd5b5f80516020611f2f8339815191526002815414611bcd5760029055565b604051633ee5aeb560e01b8152600490fd5b5f81815260046020526040902060018101546001600160a01b0316156111cd57600601805460ff8116611c11816116e2565b6115755760ff1916600117905533907f968c07757c229f315190fbce1a55070276e8f962073e641fc61140bece87cc975f80a3565b91908203918211611ab857565b90611c5d816116e2565b5f90808252602060028152604083209360ff60018601541615611d5e5760405163652aba9d60e11b81526001600160a01b0391821660048201819052918390829060249082907f0000000000000000000000000000000000000000000000000000000000000000165afa908115611d9a578591611d69575b5015611d5e578352600390526040822092611cf08285611e63565b600382015481811115611d5257611d1391611d0a91611c46565b925b8395611ec7565b80611d22575b50505081151592565b6004611d3092015490611aab565b804210611d3d5780611d19565b611d4c91949293504290611c46565b91929190565b5050611d138392611d0c565b505050809150918190565b90508281813d8311611d93575b611d8081836117ef565b81010312611d8f57515f611cd5565b8480fd5b503d611d76565b6040513d87823e3d90fd5b6001600160401b0381116107625760051b60200190565b90611dc682611da5565b611dd360405191826117ef565b8281528092611de4601f1991611da5565b0190602036910137565b8051821015611e025760209160051b010190565b634e487b7160e01b5f52603260045260245ffd5b600881019081548015908115611e4a575b50611e30575050565b6006815f8093558260028201558260048201550155429055565b90506301e133808101809111611ab8574210155f611e27565b90611e6d816116e2565b8015611ec257611e7c816116e2565b60018114611eba57611e8d816116e2565b60028114611eb25780611ea16003926116e2565b14611eab57505f90565b6006015490565b506004015490565b506002015490565b505490565b90611ed1816116e2565b8015611f2657611ee0816116e2565b60018114611f1e57611ef1816116e2565b60028114611f165780611f056003926116e2565b14611f0f57505f90565b6007015490565b506005015490565b506003015490565b50600101549056fe9b779b17422d0df92223018b32b4d1fa46e071723d6817e2486d003becc55f00a2646970667358221220346669f56ed1ec8368ab9fb353ceb1c574aad65d42c6d334ad610eb7d1095aec64736f6c634300081400332f8788117e7eff1d82e926ec794901d17c78024a50270940304540a733656f0d","linkReferences":{}},"methodIdentifiers":{"APPROVER_ROLE()":"4245962b","DEFAULT_ADMIN_ROLE()":"a217fddf","approveClaim(uint256)":"46e30135","benefitTypes(uint8)":"d73d25a7","checkEligibility(address,uint8)":"1d04886c","claimCount()":"8da4d3c9","claims(uint256)":"a888c2cd","getBenefitType(uint8)":"fac7936e","getClaim(uint256)":"5aef2447","getMemberClaims(address)":"dca557b1","getRoleAdmin(bytes32)":"248a9ca3","grantRole(bytes32,address)":"2f2ff15d","hasRole(bytes32,address)":"91d14854","maxTotalPayout()":"6c53955c","memberUsage(address)":"7e57b83b","pause()":"8456cb59","paused()":"5c975abb","processClaim(uint256)":"7257dfc9","processingTime()":"67e37e9c","rejectClaim(uint256,string)":"3577a5ad","renounceRole(bytes32,address)":"36568abe","revokeRole(bytes32,address)":"d547741f","setMaxTotalPayout(uint256)":"a2384817","setProcessingTime(uint256)":"7c1a101d","submitClaim(uint8,uint256,string,string)":"762b9765","supportsInterface(bytes4)":"01ffc9a7","unpause()":"3f4ba83a","updateBenefitType(uint8,bool,uint256,uint256,uint256,bool)":"901382e0","vault()":"fbfa77cf"},"id":13}