{"abi":[{"type":"constructor","inputs":[{"name":"_token","type":"address","internalType":"address"},{"name":"_votingPeriod","type":"uint256","internalType":"uint256"},{"name":"_quorumNumerator","type":"uint256","internalType":"uint256"},{"name":"_executionTimelock","type":"uint256","internalType":"uint256"}],"stateMutability":"nonpayable"},{"type":"receive","stateMutability":"payable"},{"type":"function","name":"DEFAULT_ADMIN_ROLE","inputs":[],"outputs":[{"name":"","type":"bytes32","internalType":"bytes32"}],"stateMutability":"view"},{"type":"function","name":"QUORUM_DENOMINATOR","inputs":[],"outputs":[{"name":"","type":"uint256","internalType":"uint256"}],"stateMutability":"view"},{"type":"function","name":"cancel","inputs":[{"name":"proposalId","type":"uint256","internalType":"uint256"}],"outputs":[],"stateMutability":"nonpayable"},{"type":"function","name":"castVote","inputs":[{"name":"proposalId","type":"uint256","internalType":"uint256"},{"name":"support","type":"uint8","internalType":"enum LakomiGovern.Vote"}],"outputs":[],"stateMutability":"nonpayable"},{"type":"function","name":"castVoteWithReason","inputs":[{"name":"proposalId","type":"uint256","internalType":"uint256"},{"name":"support","type":"uint8","internalType":"enum LakomiGovern.Vote"},{"name":"reason","type":"string","internalType":"string"}],"outputs":[],"stateMutability":"nonpayable"},{"type":"function","name":"createProposal","inputs":[{"name":"description","type":"string","internalType":"string"},{"name":"proposalType","type":"uint8","internalType":"enum LakomiGovern.ProposalType"},{"name":"target","type":"address","internalType":"address"},{"name":"value","type":"uint256","internalType":"uint256"},{"name":"callData","type":"bytes","internalType":"bytes"}],"outputs":[{"name":"proposalId","type":"uint256","internalType":"uint256"}],"stateMutability":"nonpayable"},{"type":"function","name":"execute","inputs":[{"name":"proposalId","type":"uint256","internalType":"uint256"}],"outputs":[],"stateMutability":"nonpayable"},{"type":"function","name":"executionDeadline","inputs":[],"outputs":[{"name":"","type":"uint256","internalType":"uint256"}],"stateMutability":"view"},{"type":"function","name":"executionTimelock","inputs":[],"outputs":[{"name":"","type":"uint256","internalType":"uint256"}],"stateMutability":"view"},{"type":"function","name":"getProposal","inputs":[{"name":"proposalId","type":"uint256","internalType":"uint256"}],"outputs":[{"name":"id","type":"uint256","internalType":"uint256"},{"name":"proposer","type":"address","internalType":"address"},{"name":"description","type":"string","internalType":"string"},{"name":"proposalType","type":"uint8","internalType":"enum LakomiGovern.ProposalType"},{"name":"target","type":"address","internalType":"address"},{"name":"value","type":"uint256","internalType":"uint256"},{"name":"forVotes","type":"uint256","internalType":"uint256"},{"name":"againstVotes","type":"uint256","internalType":"uint256"},{"name":"abstainVotes","type":"uint256","internalType":"uint256"},{"name":"startTime","type":"uint256","internalType":"uint256"},{"name":"endTime","type":"uint256","internalType":"uint256"},{"name":"executed","type":"bool","internalType":"bool"},{"name":"canceled","type":"bool","internalType":"bool"}],"stateMutability":"view"},{"type":"function","name":"getRoleAdmin","inputs":[{"name":"role","type":"bytes32","internalType":"bytes32"}],"outputs":[{"name":"","type":"bytes32","internalType":"bytes32"}],"stateMutability":"view"},{"type":"function","name":"grantRole","inputs":[{"name":"role","type":"bytes32","internalType":"bytes32"},{"name":"account","type":"address","internalType":"address"}],"outputs":[],"stateMutability":"nonpayable"},{"type":"function","name":"hasRole","inputs":[{"name":"role","type":"bytes32","internalType":"bytes32"},{"name":"account","type":"address","internalType":"address"}],"outputs":[{"name":"","type":"bool","internalType":"bool"}],"stateMutability":"view"},{"type":"function","name":"hasVoted","inputs":[{"name":"","type":"uint256","internalType":"uint256"},{"name":"","type":"address","internalType":"address"}],"outputs":[{"name":"","type":"bool","internalType":"bool"}],"stateMutability":"view"},{"type":"function","name":"pause","inputs":[],"outputs":[],"stateMutability":"nonpayable"},{"type":"function","name":"paused","inputs":[],"outputs":[{"name":"","type":"bool","internalType":"bool"}],"stateMutability":"view"},{"type":"function","name":"proposalCount","inputs":[],"outputs":[{"name":"","type":"uint256","internalType":"uint256"}],"stateMutability":"view"},{"type":"function","name":"proposalThreshold","inputs":[],"outputs":[{"name":"","type":"uint256","internalType":"uint256"}],"stateMutability":"view"},{"type":"function","name":"proposals","inputs":[{"name":"","type":"uint256","internalType":"uint256"}],"outputs":[{"name":"id","type":"uint256","internalType":"uint256"},{"name":"proposer","type":"address","internalType":"address"},{"name":"description","type":"string","internalType":"string"},{"name":"proposalType","type":"uint8","internalType":"enum LakomiGovern.ProposalType"},{"name":"target","type":"address","internalType":"address"},{"name":"value","type":"uint256","internalType":"uint256"},{"name":"callData","type":"bytes","internalType":"bytes"},{"name":"forVotes","type":"uint256","internalType":"uint256"},{"name":"againstVotes","type":"uint256","internalType":"uint256"},{"name":"abstainVotes","type":"uint256","internalType":"uint256"},{"name":"startTime","type":"uint256","internalType":"uint256"},{"name":"endTime","type":"uint256","internalType":"uint256"},{"name":"queuedTime","type":"uint256","internalType":"uint256"},{"name":"executionDeadline","type":"uint256","internalType":"uint256"},{"name":"executed","type":"bool","internalType":"bool"},{"name":"canceled","type":"bool","internalType":"bool"}],"stateMutability":"view"},{"type":"function","name":"queue","inputs":[{"name":"proposalId","type":"uint256","internalType":"uint256"}],"outputs":[],"stateMutability":"nonpayable"},{"type":"function","name":"quorum","inputs":[{"name":"timestamp","type":"uint256","internalType":"uint256"}],"outputs":[{"name":"","type":"uint256","internalType":"uint256"}],"stateMutability":"view"},{"type":"function","name":"quorumNumerator","inputs":[],"outputs":[{"name":"","type":"uint256","internalType":"uint256"}],"stateMutability":"view"},{"type":"function","name":"renounceRole","inputs":[{"name":"role","type":"bytes32","internalType":"bytes32"},{"name":"callerConfirmation","type":"address","internalType":"address"}],"outputs":[],"stateMutability":"nonpayable"},{"type":"function","name":"revokeRole","inputs":[{"name":"role","type":"bytes32","internalType":"bytes32"},{"name":"account","type":"address","internalType":"address"}],"outputs":[],"stateMutability":"nonpayable"},{"type":"function","name":"setExecutionTimelock","inputs":[{"name":"newTimelock","type":"uint256","internalType":"uint256"}],"outputs":[],"stateMutability":"nonpayable"},{"type":"function","name":"setQuorumNumerator","inputs":[{"name":"newQuorumNumerator","type":"uint256","internalType":"uint256"}],"outputs":[],"stateMutability":"nonpayable"},{"type":"function","name":"setVotingPeriod","inputs":[{"name":"newVotingPeriod","type":"uint256","internalType":"uint256"}],"outputs":[],"stateMutability":"nonpayable"},{"type":"function","name":"state","inputs":[{"name":"proposalId","type":"uint256","internalType":"uint256"}],"outputs":[{"name":"","type":"uint8","internalType":"enum LakomiGovern.ProposalState"}],"stateMutability":"view"},{"type":"function","name":"supportsInterface","inputs":[{"name":"interfaceId","type":"bytes4","internalType":"bytes4"}],"outputs":[{"name":"","type":"bool","internalType":"bool"}],"stateMutability":"view"},{"type":"function","name":"token","inputs":[],"outputs":[{"name":"","type":"address","internalType":"contract LakomiToken"}],"stateMutability":"view"},{"type":"function","name":"unpause","inputs":[],"outputs":[],"stateMutability":"nonpayable"},{"type":"function","name":"voteChoice","inputs":[{"name":"","type":"uint256","internalType":"uint256"},{"name":"","type":"address","internalType":"address"}],"outputs":[{"name":"","type":"uint8","internalType":"enum LakomiGovern.Vote"}],"stateMutability":"view"},{"type":"function","name":"voteWeight","inputs":[{"name":"","type":"uint256","internalType":"uint256"},{"name":"","type":"address","internalType":"address"}],"outputs":[{"name":"","type":"uint256","internalType":"uint256"}],"stateMutability":"view"},{"type":"function","name":"votingPeriod","inputs":[],"outputs":[{"name":"","type":"uint256","internalType":"uint256"}],"stateMutability":"view"},{"type":"event","name":"Paused","inputs":[{"name":"account","type":"address","indexed":false,"internalType":"address"}],"anonymous":false},{"type":"event","name":"ProposalCanceled","inputs":[{"name":"id","type":"uint256","indexed":true,"internalType":"uint256"},{"name":"by","type":"address","indexed":true,"internalType":"address"}],"anonymous":false},{"type":"event","name":"ProposalCreated","inputs":[{"name":"id","type":"uint256","indexed":true,"internalType":"uint256"},{"name":"proposer","type":"address","indexed":true,"internalType":"address"},{"name":"description","type":"string","indexed":false,"internalType":"string"},{"name":"proposalType","type":"uint8","indexed":false,"internalType":"enum LakomiGovern.ProposalType"},{"name":"startTime","type":"uint256","indexed":false,"internalType":"uint256"},{"name":"endTime","type":"uint256","indexed":false,"internalType":"uint256"}],"anonymous":false},{"type":"event","name":"ProposalExecuted","inputs":[{"name":"id","type":"uint256","indexed":true,"internalType":"uint256"},{"name":"timestamp","type":"uint256","indexed":false,"internalType":"uint256"}],"anonymous":false},{"type":"event","name":"ProposalQueued","inputs":[{"name":"id","type":"uint256","indexed":true,"internalType":"uint256"},{"name":"eta","type":"uint256","indexed":false,"internalType":"uint256"}],"anonymous":false},{"type":"event","name":"QuorumUpdated","inputs":[{"name":"oldNumerator","type":"uint256","indexed":false,"internalType":"uint256"},{"name":"newNumerator","type":"uint256","indexed":false,"internalType":"uint256"}],"anonymous":false},{"type":"event","name":"RoleAdminChanged","inputs":[{"name":"role","type":"bytes32","indexed":true,"internalType":"bytes32"},{"name":"previousAdminRole","type":"bytes32","indexed":true,"internalType":"bytes32"},{"name":"newAdminRole","type":"bytes32","indexed":true,"internalType":"bytes32"}],"anonymous":false},{"type":"event","name":"RoleGranted","inputs":[{"name":"role","type":"bytes32","indexed":true,"internalType":"bytes32"},{"name":"account","type":"address","indexed":true,"internalType":"address"},{"name":"sender","type":"address","indexed":true,"internalType":"address"}],"anonymous":false},{"type":"event","name":"RoleRevoked","inputs":[{"name":"role","type":"bytes32","indexed":true,"internalType":"bytes32"},{"name":"account","type":"address","indexed":true,"internalType":"address"},{"name":"sender","type":"address","indexed":true,"internalType":"address"}],"anonymous":false},{"type":"event","name":"TimelockUpdated","inputs":[{"name":"oldTimelock","type":"uint256","indexed":false,"internalType":"uint256"},{"name":"newTimelock","type":"uint256","indexed":false,"internalType":"uint256"}],"anonymous":false},{"type":"event","name":"Unpaused","inputs":[{"name":"account","type":"address","indexed":false,"internalType":"address"}],"anonymous":false},{"type":"event","name":"VoteCast","inputs":[{"name":"proposalId","type":"uint256","indexed":true,"internalType":"uint256"},{"name":"voter","type":"address","indexed":true,"internalType":"address"},{"name":"support","type":"uint8","indexed":false,"internalType":"enum LakomiGovern.Vote"},{"name":"weight","type":"uint256","indexed":false,"internalType":"uint256"},{"name":"reason","type":"string","indexed":false,"internalType":"string"}],"anonymous":false},{"type":"event","name":"VotingPeriodUpdated","inputs":[{"name":"oldPeriod","type":"uint256","indexed":false,"internalType":"uint256"},{"name":"newPeriod","type":"uint256","indexed":false,"internalType":"uint256"}],"anonymous":false},{"type":"error","name":"AccessControlBadConfirmation","inputs":[]},{"type":"error","name":"AccessControlUnauthorizedAccount","inputs":[{"name":"account","type":"address","internalType":"address"},{"name":"neededRole","type":"bytes32","internalType":"bytes32"}]},{"type":"error","name":"EnforcedPause","inputs":[]},{"type":"error","name":"ExpectedPause","inputs":[]},{"type":"error","name":"LakomiGovern__AlreadyExecuted","inputs":[]},{"type":"error","name":"LakomiGovern__AlreadyVoted","inputs":[]},{"type":"error","name":"LakomiGovern__EmptyDescription","inputs":[]},{"type":"error","name":"LakomiGovern__ExecutionFailed","inputs":[]},{"type":"error","name":"LakomiGovern__InsufficientTokens","inputs":[]},{"type":"error","name":"LakomiGovern__NotQueued","inputs":[]},{"type":"error","name":"LakomiGovern__OnlyProposer","inputs":[]},{"type":"error","name":"LakomiGovern__ProposalExpired","inputs":[]},{"type":"error","name":"LakomiGovern__ProposalNotActive","inputs":[]},{"type":"error","name":"LakomiGovern__ProposalNotSucceeded","inputs":[]},{"type":"error","name":"LakomiGovern__TimelockNotMet","inputs":[]},{"type":"error","name":"LakomiGovern__ZeroAddress","inputs":[]},{"type":"error","name":"ReentrancyGuardReentrantCall","inputs":[]}],"bytecode":{"object":"0x60a0346100fe57601f62001d6f38819003918201601f19168301916001600160401b03831184841017610102578084926080946040528339810103126100fe5780516001600160a01b03811691908290036100fe576020810151606060408301519201519260017f9b779b17422d0df92223018b32b4d1fa46e071723d6817e2486d003becc55f005580156100ec5760805260025560035560045562127500600555678ac7230489e800006006556100b633610116565b50604051611bc99081620001a682396080518181816103640152818161040701528181610c29015281816118360152611a710152f35b6040516396a8520b60e01b8152600490fd5b5f80fd5b634e487b7160e01b5f52604160045260245ffd5b6001600160a01b03165f8181527fad3228b676f7d3cd4284a5443f17f1962b36e491b30a40b2405849e597ba5fb5602052604081205490919060ff166101a157818052816020526040822081835260205260408220600160ff1982541617905533917f2f8788117e7eff1d82e926ec794901d17c78024a50270940304540a733656f0d8180a4600190565b509056fe6080604052600436101561001a575b3615610018575f80fd5b005b5f3560e01c8063013cf08b146112bf57806301ffc9a71461126957806302a251a31461124c578063248a9ca3146112205780632b0a999d146111dc5780632ce80915146111885780632f2ff15d1461114c57806333ee5f351461112f57806336568abe146110e85780633a29f85914610b8e5780633e4f49e614610b5f5780633f4ba83a14610af657806340e58ee514610a0e57806343859632146109c5578063567813881461095f5780635c975abb1461093d5780636fef541a14610922578063737594ce1461088f57806377806118146108725780637b3c71d3146108035780638456cb591461079757806391d148541461074f578063a217fddf14610735578063a7713a7014610718578063b58131b0146106fb578063c7f758a814610605578063d547741f146105c9578063da35c664146105ac578063ddf0b009146104ff578063ea0217cf146104ab578063f8ce560a146103e1578063fb46885514610393578063fc0c546a1461034f5763fe0d94c10361000e573461034b5760208060031936011261034b576004356101b16117a8565b6101ba816119fc565b60088110156103375760050361032557805f526007825260405f20916101e7600b840154600454906116f6565b421061031457600d83019260019360ff1990858282541617905560018060a01b03600383015460081c1691600560048201549101604051925f91805461022c81611408565b92818b169182156103005750506001146102cb575b5050915f939181859403925af13d156102c6573d61025e81611703565b9061026c60405192836114d1565b81525f833d92013e5b156102b4577ff758fc91e01b00ea6b4a6138756f7f28e021f9bf21db6dbf8c36c88eb737257a90604051428152a25f80516020611b7483398151915255005b60405163816a6f3160e01b8152600490fd5b610275565b9091505f52845f2085885f925b8484106102ee5750505090830190508183610241565b805484880152019101908887916102d8565b168652505080151502830190508183610241565b604051625c929960e81b8152600490fd5b6040516309ea93c360e41b8152600490fd5b634e487b7160e01b5f52602160045260245ffd5b5f80fd5b3461034b575f36600319011261034b576040517f00000000000000000000000000000000000000000000000000000000000000006001600160a01b03168152602090f35b3461034b57604036600319011261034b576103ac61153e565b6004355f52600960205260405f209060018060a01b03165f52602052602060ff60405f2054166103df6040518092611582565bf35b3461034b5760208060031936011261034b576040516318160ddd60e01b815281816004817f00000000000000000000000000000000000000000000000000000000000000006001600160a01b03165afa9081156104a0575f91610473575b506003549081810291818304149015171561045f57606460405191048152f35b634e487b7160e01b5f52601160045260245ffd5b90508181813d8311610499575b61048a81836114d1565b8101031261034b57518261043f565b503d610480565b6040513d5f823e3d90fd5b3461034b57602036600319011261034b577fffc708f072ca56e3d45ef0cb288b96cb9378f5f63e1646868bfbc9c38f4263a160406004356104ea61158f565b600254908060025582519182526020820152a1005b3461034b57602036600319011261034b5760043561051b6117a8565b610524816119fc565b60088110156103375760040361032557805f52600760205260405f2042600b820155600c610560610557600454426116f6565b600554906116f6565b9101557f9a2e42fd6722813d69113e7d0079d3d940171428df7373df9c7f7617cfda28926020610592600454426116f6565b604051908152a260015f80516020611b7483398151915255005b3461034b575f36600319011261034b576020600b54604051908152f35b3461034b57604036600319011261034b576100186004356105e861153e565b90805f525f602052610600600160405f2001546115e6565b611683565b3461034b57602036600319011261034b576004355f526007602052602060405f2080549060ff60018060a01b039182600182015416600382015493600483015460068401546007850154906008860154926009870154946106a66002600a8a015498610687600d8c01549b6106806040518095819301611440565b03836114d1565b6040519e8f9e8f908152015260408d6101a091829101528d01906114f3565b996106b660608d018b8316611531565b60081c1660808b015260a08a015260c089015260e0880152610100870152610120860152610140850152818116151561016085015260081c1615156101808301520390f35b3461034b575f36600319011261034b576020600654604051908152f35b3461034b575f36600319011261034b576020600354604051908152f35b3461034b575f36600319011261034b5760206040515f8152f35b3461034b57604036600319011261034b5761076861153e565b6004355f525f60205260405f209060018060a01b03165f52602052602060ff60405f2054166040519015158152f35b3461034b575f36600319011261034b576107af61158f565b60015460ff81166107f15760019060ff1916176001557f62e78cea01bee320cd4e420270b5ea74000d11b0c9f74754ebdbfc544b05a2586020604051338152a1005b60405163d93c066560e01b8152600490fd5b3461034b57606036600319011261034b57602435600381101561034b576044359067ffffffffffffffff821161034b5761085661084761085f933690600401611554565b61084f6117a8565b369161171f565b906004356117d7565b60015f80516020611b7483398151915255005b3461034b575f36600319011261034b576020600454604051908152f35b3461034b57602036600319011261034b576004356108ab61158f565b606481116108ec5760407f6784e9bcb845caaa98267d7b0918f97d3d17f7cb35a05b52010f7eb587a0acb091600354908060035582519182526020820152a1005b60405162461bcd60e51b815260206004820152600e60248201526d496e76616c69642071756f72756d60901b6044820152606490fd5b3461034b575f36600319011261034b57602060405160648152f35b3461034b575f36600319011261034b57602060ff600154166040519015158152f35b3461034b57604036600319011261034b57602435600381101561034b576109846117a8565b604051602081019181831067ffffffffffffffff8411176109b15761085f926040525f82526004356117d7565b634e487b7160e01b5f52604160045260245ffd5b3461034b57604036600319011261034b576109de61153e565b6004355f52600860205260405f209060018060a01b03165f52602052602060ff60405f2054166040519015158152f35b3461034b57602036600319011261034b57600435805f52600760205260405f20610a37826119fc565b600881101561033757600714610ae45760018101546001600160a01b031633141580610aac575b610a9a57600d01805461ff00191661010017905533907f253042c67143aeb6d431bb762d75e5905f18fa7850b7b9edb31fedb7c362d7e85f80a3005b60405163123a06ef60e21b8152600490fd5b50335f9081527fad3228b676f7d3cd4284a5443f17f1962b36e491b30a40b2405849e597ba5fb5602052604090205460ff1615610a5e565b6040516338dbd33b60e11b8152600490fd5b3461034b575f36600319011261034b57610b0e61158f565b60015460ff811615610b4d5760ff19166001557f5db9ee0a495bf2e6ff9c91a7834c1ba4fdd244a5e8aa4e537bd38aeae4b073aa6020604051338152a1005b604051638dfc202b60e01b8152600490fd5b3461034b57602036600319011261034b57610b7b6004356119fc565b6040516008821015610337576020918152f35b3461034b5760a036600319011261034b5760043567ffffffffffffffff811161034b57610bbf903690600401611554565b6004602435101561034b57604435906001600160a01b038216820361034b5760843567ffffffffffffffff811161034b57610bfe903690600401611554565b9390610c086117a8565b82156110d657604051635da6a21b60e11b81523360048201526020816024817f00000000000000000000000000000000000000000000000000000000000000006001600160a01b03165afa9081156104a0575f916110a4575b506006541161109257600b54935f19851461045f5760018501600b55610c89600254426116f6565b91604051968761020081011067ffffffffffffffff6102008a0111176109b157610cf39261020089016040528789523360208a0152610cc936888861171f565b60408a015260243560608a01526001600160a01b0316608089015260643560a0890152369161171f565b60c08601525f60e08601525f6101008601525f61012086015242610140860152806101608601525f6101808601525f6101a08601525f6101c08601525f6101e0860152835f52600760205260405f2091855183556001830160018060a01b036020880151166bffffffffffffffffffffffff60a01b825416179055604086015180519067ffffffffffffffff82116109b1578190610da182610d986002890154611408565b60028901611755565b602090601f8311600114611024575f92611019575b50508160011b915f199060031b1c19161760028401555b6060860151600481101561033757600384015460ff610100600160a81b0360808a015160081b169216906affffffffffffffffffffff60a81b161717600384015560a0860151600484015560c08601519182519667ffffffffffffffff88116109b157878794610e4f60209a610e4660058a0154611408565b60058a01611755565b8990601f8311600114610f855791807ffd3a4372829eebfa1fcdd5a6e4bbbeb5b140261c36928520367a19665a17a996979892600d945f92610f7a575b50508160011b915f199060031b1c19161760058201555b60e08301516006820155610100830151600782015561012083015160088201556101408301516009820155610160830151600a820155610180830151600b8201556101a0830151600c82015501906101c081015115159060ff61ff006101e08554930151151560081b1692169061ffff19161717905584604051926080845281608085015260a08401375f60a08684010152610f43878301602435611531565b42604083015260608201523393601f01601f1916810181900360a00190a360015f80516020611b7483398151915255604051908152f35b015190508c80610e8c565b600588939298015f528a5f20905f5b601f1984168110610fff5750916001917ffd3a4372829eebfa1fcdd5a6e4bbbeb5b140261c36928520367a19665a17a9969899600d959483601f19811610610fe7575b505050811b016005820155610ea3565b01515f1960f88460031b161c191690558c8080610fd7565b818a01518355988c01988b98506001909201918c01610f94565b015190508880610db6565b9250600286015f5260205f20905f935b601f1984168510611077576001945083601f1981161061105f575b505050811b016002840155610dcd565b01515f1960f88460031b161c1916905588808061104f565b81810151835560209485019460019093019290910190611034565b60405163309e66ed60e01b8152600490fd5b90506020813d6020116110ce575b816110bf602093836114d1565b8101031261034b575186610c61565b3d91506110b2565b60405163018e0a1560e51b8152600490fd5b3461034b57604036600319011261034b5761110161153e565b336001600160a01b0382160361111d5761001890600435611683565b60405163334bd91960e11b8152600490fd5b3461034b575f36600319011261034b576020600554604051908152f35b3461034b57604036600319011261034b5761001860043561116b61153e565b90805f525f602052611183600160405f2001546115e6565b611607565b3461034b57602036600319011261034b577f3e9cac94b7c7db9b86df56321e6f7e3e88a6c87fc15fd825df1492cf69e3355160406004356111c761158f565b600454908060045582519182526020820152a1005b3461034b57604036600319011261034b576111f561153e565b6004355f52600a60205260405f209060018060a01b03165f52602052602060405f2054604051908152f35b3461034b57602036600319011261034b576004355f525f6020526020600160405f200154604051908152f35b3461034b575f36600319011261034b576020600254604051908152f35b3461034b57602036600319011261034b5760043563ffffffff60e01b811680910361034b57602090637965db0b60e01b81149081156112ae575b506040519015158152f35b6301ffc9a760e01b149050826112a3565b3461034b57602036600319011261034b576004355f908152600760205260409020805460018201546001600160a01b03169160806113008160028401611440565b0360809061130d916114d1565b600381015460048201546040519290918361132b8160058501611440565b0361133690856114d1565b60068201549360078301546008840154600985015491600a86015493600b87015495600c88015497600d0154986040519c8d9c8d5260208d01528b6102006040819201528c01608090611388916114f3565b9161139960608e0160ff8316611531565b60081c6001600160a01b031660808d015260a08c01528a810360c08c01526113c0916114f3565b9760e08a01526101008901526101208801526101408701526101608601526101808501526101a084015260ff811615156101c084015260081c60ff1615156101e08301520390f35b90600182811c92168015611436575b602083101461142257565b634e487b7160e01b5f52602260045260245ffd5b91607f1691611417565b905f929180549161145083611408565b9182825260019384811690815f146114ae5750600114611471575b50505050565b90919394505f52602092835f2092845f945b83861061149a57505050500101905f80808061146b565b805485870183015294019385908201611483565b9294505050602093945060ff191683830152151560051b0101905f80808061146b565b90601f8019910116810190811067ffffffffffffffff8211176109b157604052565b91908251928382525f5b84811061151d575050825f602080949584010152601f8019910116010190565b6020818301810151848301820152016114fd565b9060048210156103375752565b602435906001600160a01b038216820361034b57565b9181601f8401121561034b5782359167ffffffffffffffff831161034b576020838186019501011161034b57565b9060038210156103375752565b335f9081527fad3228b676f7d3cd4284a5443f17f1962b36e491b30a40b2405849e597ba5fb5602052604081205460ff16156115c85750565b6044906040519063e2517d3f60e01b82523360048301526024820152fd5b805f525f60205260405f20335f5260205260ff60405f205416156115c85750565b905f9180835282602052604083209160018060a01b03169182845260205260ff604084205416155f1461167e57808352826020526040832082845260205260408320600160ff198254161790557f2f8788117e7eff1d82e926ec794901d17c78024a50270940304540a733656f0d339380a4600190565b505090565b905f9180835282602052604083209160018060a01b03169182845260205260ff6040842054165f1461167e5780835282602052604083208284526020526040832060ff1981541690557ff6391f5c32d9c69d2a47ea670b442974b53935d1edc7fd64eb21e047a839171b339380a4600190565b9190820180921161045f57565b67ffffffffffffffff81116109b157601f01601f191660200190565b92919261172b82611703565b9161173960405193846114d1565b82948184528183011161034b578281602093845f960137010152565b90601f811161176357505050565b5f91825260208220906020601f850160051c8301941061179e575b601f0160051c01915b82811061179357505050565b818155600101611787565b909250829061177e565b5f80516020611b7483398151915260028154146117c55760029055565b604051633ee5aeb560e01b8152600490fd5b905f828152602090600782526040918282206117f2866119fc565b60088110156119e8576001036119d75785835260088252838320338452825260ff84842054166119c6578351635da6a21b60e11b81523360048201529282846024817f00000000000000000000000000000000000000000000000000000000000000006001600160a01b03165afa9384156119ba578194611987575b5083156119765786815260088352848120338252835284812060ff19906001828254161790558782526009845285822033835284528582209060038810156119625794867f761cce3a1af5d9cfc0d57222f605ce4bd2be345f0ad9ebb7b83a84a91a0c20149897959383606098849795541660ff8b161790558a8152600a855281812033825285522055600186145f1461193a576006016119108382546116f6565b90555b61191f83518096611582565b84015282015280611935339560608301906114f3565b0390a3565b856119545760070161194d8382546116f6565b9055611913565b60080161194d8382546116f6565b634e487b7160e01b83526021600452602483fd5b845163309e66ed60e01b8152600490fd5b9093508281813d83116119b3575b61199f81836114d1565b810103126119af5751925f61186e565b8380fd5b503d611995565b508451903d90823e3d90fd5b8351631b19daf560e21b8152600490fd5b835163b6436b9560e01b8152600490fd5b634e487b7160e01b84526021600452602484fd5b5f90815260076020526040812090600d82015460ff8160081c16611b6b5760ff16611b645760098201544210611b5f57600a8201544210611b58576006820154600783015491611a5a611a4f84846116f6565b6008860154906116f6565b6040516318160ddd60e01b815290916020826004817f00000000000000000000000000000000000000000000000000000000000000006001600160a01b03165afa918215611b4b578192611b14575b5060035491828102928184041490151715611b0057506064900411611af8571115611af257600b81015415611aec57600c01544211611ae757600590565b600690565b50600490565b50600390565b505050600390565b634e487b7160e01b81526011600452602490fd5b9091506020813d8211611b43575b81611b2f602093836114d1565b81010312611b3f5751905f611aa9565b5080fd5b3d9150611b22565b50604051903d90823e3d90fd5b5050600190565b905090565b5050600790565b50505060029056fe9b779b17422d0df92223018b32b4d1fa46e071723d6817e2486d003becc55f00a2646970667358221220ac77fae84e698950be6ab2a3341473decf3f6d1ec3b4908d28b0949a838cce6864736f6c63430008140033","linkReferences":{}},"methodIdentifiers":{"DEFAULT_ADMIN_ROLE()":"a217fddf","QUORUM_DENOMINATOR()":"6fef541a","cancel(uint256)":"40e58ee5","castVote(uint256,uint8)":"56781388","castVoteWithReason(uint256,uint8,string)":"7b3c71d3","createProposal(string,uint8,address,uint256,bytes)":"3a29f859","execute(uint256)":"fe0d94c1","executionDeadline()":"33ee5f35","executionTimelock()":"77806118","getProposal(uint256)":"c7f758a8","getRoleAdmin(bytes32)":"248a9ca3","grantRole(bytes32,address)":"2f2ff15d","hasRole(bytes32,address)":"91d14854","hasVoted(uint256,address)":"43859632","pause()":"8456cb59","paused()":"5c975abb","proposalCount()":"da35c664","proposalThreshold()":"b58131b0","proposals(uint256)":"013cf08b","queue(uint256)":"ddf0b009","quorum(uint256)":"f8ce560a","quorumNumerator()":"a7713a70","renounceRole(bytes32,address)":"36568abe","revokeRole(bytes32,address)":"d547741f","setExecutionTimelock(uint256)":"2ce80915","setQuorumNumerator(uint256)":"737594ce","setVotingPeriod(uint256)":"ea0217cf","state(uint256)":"3e4f49e6","supportsInterface(bytes4)":"01ffc9a7","token()":"fc0c546a","unpause()":"3f4ba83a","voteChoice(uint256,address)":"fb468855","voteWeight(uint256,address)":"2b0a999d","votingPeriod()":"02a251a3"},"id":37}