{"contracts/LakomiVault.sol":{"LakomiVault":{"abi":[{"inputs":[{"internalType":"address","name":"_stableToken","type":"address"},{"internalType":"uint256","name":"_withdrawalThreshold","type":"uint256"},{"internalType":"uint256","name":"_withdrawalTimelock","type":"uint256"},{"internalType":"uint256","name":"_simpananPokokAmount","type":"uint256"},{"internalType":"uint256","name":"_simpananWajibAmount","type":"uint256"},{"internalType":"uint256","name":"_simpananWajibPeriod","type":"uint256"}],"stateMutability":"nonpayable","type":"constructor"},{"inputs":[],"name":"AccessControlBadConfirmation","type":"error"},{"inputs":[{"internalType":"address","name":"account","type":"address"},{"internalType":"bytes32","name":"neededRole","type":"bytes32"}],"name":"AccessControlUnauthorizedAccount","type":"error"},{"inputs":[],"name":"EnforcedPause","type":"error"},{"inputs":[],"name":"ExpectedPause","type":"error"},{"inputs":[],"name":"LakomiVault__AlreadyExecuted","type":"error"},{"inputs":[],"name":"LakomiVault__AlreadySet","type":"error"},{"inputs":[],"name":"LakomiVault__ExceedsThreshold","type":"error"},{"inputs":[],"name":"LakomiVault__InsufficientBalance","type":"error"},{"inputs":[],"name":"LakomiVault__InsufficientShares","type":"error"},{"inputs":[],"name":"LakomiVault__InvalidWithdrawal","type":"error"},{"inputs":[],"name":"LakomiVault__NoRevenueToDistribute","type":"error"},{"inputs":[],"name":"LakomiVault__NoSHUToClaim","type":"error"},{"inputs":[],"name":"LakomiVault__NotApproved","type":"error"},{"inputs":[],"name":"LakomiVault__NotMember","type":"error"},{"inputs":[],"name":"LakomiVault__SimpananPokokAlreadyPaid","type":"error"},{"inputs":[],"name":"LakomiVault__SimpananPokokNotPaid","type":"error"},{"inputs":[],"name":"LakomiVault__SimpananWajibNotDue","type":"error"},{"inputs":[],"name":"LakomiVault__TimelockNotMet","type":"error"},{"inputs":[],"name":"LakomiVault__TransferFailed","type":"error"},{"inputs":[],"name":"LakomiVault__ZeroAddress","type":"error"},{"inputs":[],"name":"LakomiVault__ZeroAmount","type":"error"},{"inputs":[],"name":"ReentrancyGuardReentrantCall","type":"error"},{"inputs":[{"internalType":"address","name":"token","type":"address"}],"name":"SafeERC20FailedOperation","type":"error"},{"anonymous":false,"inputs":[{"indexed":true,"internalType":"address","name":"member","type":"address"},{"indexed":false,"internalType":"uint8","name":"tier","type":"uint8"}],"name":"ContributionTierUpdated","type":"event"},{"anonymous":false,"inputs":[{"indexed":true,"internalType":"address","name":"member","type":"address"},{"indexed":false,"internalType":"uint256","name":"amount","type":"uint256"},{"indexed":false,"internalType":"uint256","name":"shares","type":"uint256"},{"indexed":false,"internalType":"uint256","name":"timestamp","type":"uint256"}],"name":"Deposited","type":"event"},{"anonymous":false,"inputs":[{"indexed":true,"internalType":"address","name":"govern","type":"address"}],"name":"GovernSet","type":"event"},{"anonymous":false,"inputs":[{"indexed":true,"internalType":"address","name":"to","type":"address"},{"indexed":false,"internalType":"uint256","name":"amount","type":"uint256"},{"indexed":false,"internalType":"bytes","name":"reason","type":"bytes"}],"name":"GovernanceSpend","type":"event"},{"anonymous":false,"inputs":[{"indexed":false,"internalType":"address","name":"account","type":"address"}],"name":"Paused","type":"event"},{"anonymous":false,"inputs":[{"indexed":false,"internalType":"uint256","name":"amount","type":"uint256"},{"indexed":false,"internalType":"uint256","name":"timestamp","type":"uint256"}],"name":"RevenueReceived","type":"event"},{"anonymous":false,"inputs":[{"indexed":true,"internalType":"bytes32","name":"role","type":"bytes32"},{"indexed":true,"internalType":"bytes32","name":"previousAdminRole","type":"bytes32"},{"indexed":true,"internalType":"bytes32","name":"newAdminRole","type":"bytes32"}],"name":"RoleAdminChanged","type":"event"},{"anonymous":false,"inputs":[{"indexed":true,"internalType":"bytes32","name":"role","type":"bytes32"},{"indexed":true,"internalType":"address","name":"account","type":"address"},{"indexed":true,"internalType":"address","name":"sender","type":"address"}],"name":"RoleGranted","type":"event"},{"anonymous":false,"inputs":[{"indexed":true,"internalType":"bytes32","name":"role","type":"bytes32"},{"indexed":true,"internalType":"address","name":"account","type":"address"},{"indexed":true,"internalType":"address","name":"sender","type":"address"}],"name":"RoleRevoked","type":"event"},{"anonymous":false,"inputs":[{"indexed":true,"internalType":"address","name":"member","type":"address"},{"indexed":true,"internalType":"uint256","name":"distributionId","type":"uint256"},{"indexed":false,"internalType":"uint256","name":"amount","type":"uint256"}],"name":"SHUClaimed","type":"event"},{"anonymous":false,"inputs":[{"indexed":true,"internalType":"uint256","name":"distributionId","type":"uint256"},{"indexed":false,"internalType":"uint256","name":"totalAmount","type":"uint256"},{"indexed":false,"internalType":"uint256","name":"memberCount","type":"uint256"},{"indexed":false,"internalType":"uint256","name":"perShare","type":"uint256"}],"name":"SHUDistributed","type":"event"},{"anonymous":false,"inputs":[{"indexed":false,"internalType":"uint256","name":"oldAmount","type":"uint256"},{"indexed":false,"internalType":"uint256","name":"newAmount","type":"uint256"}],"name":"SimpananPokokAmountUpdated","type":"event"},{"anonymous":false,"inputs":[{"indexed":true,"internalType":"address","name":"member","type":"address"},{"indexed":false,"internalType":"uint256","name":"amount","type":"uint256"},{"indexed":false,"internalType":"uint256","name":"timestamp","type":"uint256"}],"name":"SimpananPokokPaid","type":"event"},{"anonymous":false,"inputs":[{"indexed":false,"internalType":"uint256","name":"oldAmount","type":"uint256"},{"indexed":false,"internalType":"uint256","name":"newAmount","type":"uint256"}],"name":"SimpananWajibAmountUpdated","type":"event"},{"anonymous":false,"inputs":[{"indexed":true,"internalType":"address","name":"member","type":"address"},{"indexed":false,"internalType":"uint256","name":"amount","type":"uint256"},{"indexed":false,"internalType":"uint256","name":"periods","type":"uint256"},{"indexed":false,"internalType":"uint256","name":"timestamp","type":"uint256"}],"name":"SimpananWajibPaid","type":"event"},{"anonymous":false,"inputs":[{"indexed":false,"internalType":"uint256","name":"oldThreshold","type":"uint256"},{"indexed":false,"internalType":"uint256","name":"newThreshold","type":"uint256"}],"name":"ThresholdUpdated","type":"event"},{"anonymous":false,"inputs":[{"indexed":false,"internalType":"uint256","name":"oldTimelock","type":"uint256"},{"indexed":false,"internalType":"uint256","name":"newTimelock","type":"uint256"}],"name":"TimelockUpdated","type":"event"},{"anonymous":false,"inputs":[{"indexed":true,"internalType":"address","name":"token","type":"address"}],"name":"TokenSet","type":"event"},{"anonymous":false,"inputs":[{"indexed":false,"internalType":"address","name":"account","type":"address"}],"name":"Unpaused","type":"event"},{"anonymous":false,"inputs":[{"indexed":true,"internalType":"uint256","name":"id","type":"uint256"}],"name":"WithdrawalCanceled","type":"event"},{"anonymous":false,"inputs":[{"indexed":true,"internalType":"uint256","name":"id","type":"uint256"},{"indexed":false,"internalType":"address","name":"recipient","type":"address"},{"indexed":false,"internalType":"uint256","name":"amount","type":"uint256"}],"name":"WithdrawalExecuted","type":"event"},{"anonymous":false,"inputs":[{"indexed":true,"internalType":"uint256","name":"id","type":"uint256"},{"indexed":true,"internalType":"address","name":"recipient","type":"address"},{"indexed":false,"internalType":"uint256","name":"amount","type":"uint256"},{"indexed":false,"internalType":"uint256","name":"executableAt","type":"uint256"}],"name":"WithdrawalRequested","type":"event"},{"anonymous":false,"inputs":[{"indexed":true,"internalType":"address","name":"member","type":"address"},{"indexed":false,"internalType":"uint256","name":"amount","type":"uint256"},{"indexed":false,"internalType":"uint256","name":"shares","type":"uint256"},{"indexed":false,"internalType":"uint256","name":"timestamp","type":"uint256"}],"name":"Withdrawn","type":"event"},{"inputs":[],"name":"DEFAULT_ADMIN_ROLE","outputs":[{"internalType":"bytes32","name":"","type":"bytes32"}],"stateMutability":"view","type":"function"},{"inputs":[],"name":"GOVERN_ROLE","outputs":[{"internalType":"bytes32","name":"","type":"bytes32"}],"stateMutability":"view","type":"function"},{"inputs":[],"name":"LOAN_ROLE","outputs":[{"internalType":"bytes32","name":"","type":"bytes32"}],"stateMutability":"view","type":"function"},{"inputs":[],"name":"TIER2_THRESHOLD","outputs":[{"internalType":"uint256","name":"","type":"uint256"}],"stateMutability":"view","type":"function"},{"inputs":[],"name":"TIER3_THRESHOLD","outputs":[{"internalType":"uint256","name":"","type":"uint256"}],"stateMutability":"view","type":"function"},{"inputs":[],"name":"TREASURER_ROLE","outputs":[{"internalType":"bytes32","name":"","type":"bytes32"}],"stateMutability":"view","type":"function"},{"inputs":[],"name":"accumulatedRevenue","outputs":[{"internalType":"uint256","name":"","type":"uint256"}],"stateMutability":"view","type":"function"},{"inputs":[{"internalType":"address","name":"spender","type":"address"},{"internalType":"uint256","name":"amount","type":"uint256"}],"name":"approveUSDCSpending","outputs":[],"stateMutability":"nonpayable","type":"function"},{"inputs":[{"internalType":"uint256","name":"withdrawalId","type":"uint256"}],"name":"approveWithdrawal","outputs":[],"stateMutability":"nonpayable","type":"function"},{"inputs":[{"internalType":"uint256","name":"withdrawalId","type":"uint256"}],"name":"cancelWithdrawal","outputs":[],"stateMutability":"nonpayable","type":"function"},{"inputs":[{"internalType":"uint256","name":"distributionId","type":"uint256"}],"name":"claimSHU","outputs":[],"stateMutability":"nonpayable","type":"function"},{"inputs":[{"internalType":"address","name":"member","type":"address"}],"name":"contributionScore","outputs":[{"internalType":"uint256","name":"","type":"uint256"}],"stateMutability":"view","type":"function"},{"inputs":[{"internalType":"address","name":"","type":"address"}],"name":"contributions","outputs":[{"internalType":"uint256","name":"","type":"uint256"}],"stateMutability":"view","type":"function"},{"inputs":[{"internalType":"uint256","name":"amount","type":"uint256"}],"name":"deposit","outputs":[{"internalType":"uint256","name":"sharesIssued","type":"uint256"}],"stateMutability":"nonpayable","type":"function"},{"inputs":[],"name":"distributeSHU","outputs":[],"stateMutability":"nonpayable","type":"function"},{"inputs":[{"internalType":"address","name":"token","type":"address"},{"internalType":"address","name":"to","type":"address"},{"internalType":"uint256","name":"amount","type":"uint256"}],"name":"emergencyWithdraw","outputs":[],"stateMutability":"nonpayable","type":"function"},{"inputs":[{"internalType":"uint256","name":"withdrawalId","type":"uint256"}],"name":"executeWithdrawal","outputs":[],"stateMutability":"nonpayable","type":"function"},{"inputs":[{"internalType":"address","name":"","type":"address"}],"name":"firstDepositTime","outputs":[{"internalType":"uint256","name":"","type":"uint256"}],"stateMutability":"view","type":"function"},{"inputs":[{"internalType":"address","name":"member","type":"address"}],"name":"getContributionTier","outputs":[{"internalType":"uint8","name":"","type":"uint8"}],"stateMutability":"view","type":"function"},{"inputs":[{"internalType":"address","name":"member","type":"address"}],"name":"getMemberBalance","outputs":[{"internalType":"uint256","name":"","type":"uint256"}],"stateMutability":"view","type":"function"},{"inputs":[{"internalType":"address","name":"member","type":"address"}],"name":"getMemberSharePercent","outputs":[{"internalType":"uint256","name":"","type":"uint256"}],"stateMutability":"view","type":"function"},{"inputs":[{"internalType":"address","name":"member","type":"address"}],"name":"getMemberValue","outputs":[{"internalType":"uint256","name":"","type":"uint256"}],"stateMutability":"view","type":"function"},{"inputs":[{"internalType":"address","name":"member","type":"address"}],"name":"getPendingSHU","outputs":[{"internalType":"uint256","name":"","type":"uint256"}],"stateMutability":"view","type":"function"},{"inputs":[{"internalType":"uint256","name":"withdrawalId","type":"uint256"}],"name":"getPendingWithdrawal","outputs":[{"internalType":"address","name":"recipient","type":"address"},{"internalType":"uint256","name":"amount","type":"uint256"},{"internalType":"uint256","name":"timestamp","type":"uint256"},{"internalType":"uint256","name":"executableAt","type":"uint256"},{"internalType":"bool","name":"executed","type":"bool"},{"internalType":"bool","name":"approved","type":"bool"}],"stateMutability":"view","type":"function"},{"inputs":[{"internalType":"bytes32","name":"role","type":"bytes32"}],"name":"getRoleAdmin","outputs":[{"internalType":"bytes32","name":"","type":"bytes32"}],"stateMutability":"view","type":"function"},{"inputs":[{"internalType":"address","name":"member","type":"address"}],"name":"getSimpananSummary","outputs":[{"internalType":"uint256","name":"pokok","type":"uint256"},{"internalType":"uint256","name":"wajibTotal","type":"uint256"},{"internalType":"uint256","name":"wajibPeriodsPaid","type":"uint256"},{"internalType":"uint256","name":"wajibPeriodsOwed","type":"uint256"},{"internalType":"uint256","name":"sukarela","type":"uint256"},{"internalType":"uint256","name":"totalContribution","type":"uint256"}],"stateMutability":"view","type":"function"},{"inputs":[{"internalType":"address","name":"member","type":"address"}],"name":"getSimpananWajibPeriodsOwed","outputs":[{"internalType":"uint256","name":"","type":"uint256"}],"stateMutability":"view","type":"function"},{"inputs":[],"name":"getTotalAssets","outputs":[{"internalType":"uint256","name":"","type":"uint256"}],"stateMutability":"view","type":"function"},{"inputs":[{"internalType":"address","name":"to","type":"address"},{"internalType":"uint256","name":"amount","type":"uint256"},{"internalType":"bytes","name":"reason","type":"bytes"}],"name":"governanceSpend","outputs":[],"stateMutability":"nonpayable","type":"function"},{"inputs":[{"internalType":"bytes32","name":"role","type":"bytes32"},{"internalType":"address","name":"account","type":"address"}],"name":"grantRole","outputs":[],"stateMutability":"nonpayable","type":"function"},{"inputs":[{"internalType":"address","name":"member","type":"address"}],"name":"hasPaidSimpananPokok","outputs":[{"internalType":"bool","name":"","type":"bool"}],"stateMutability":"view","type":"function"},{"inputs":[{"internalType":"bytes32","name":"role","type":"bytes32"},{"internalType":"address","name":"account","type":"address"}],"name":"hasRole","outputs":[{"internalType":"bool","name":"","type":"bool"}],"stateMutability":"view","type":"function"},{"inputs":[{"internalType":"address","name":"member","type":"address"}],"name":"isSimpananWajibCurrent","outputs":[{"internalType":"bool","name":"","type":"bool"}],"stateMutability":"view","type":"function"},{"inputs":[],"name":"lakomiGovern","outputs":[{"internalType":"address","name":"","type":"address"}],"stateMutability":"view","type":"function"},{"inputs":[],"name":"lakomiToken","outputs":[{"internalType":"address","name":"","type":"address"}],"stateMutability":"view","type":"function"},{"inputs":[],"name":"lastSHUDistribution","outputs":[{"internalType":"uint256","name":"","type":"uint256"}],"stateMutability":"view","type":"function"},{"inputs":[],"name":"nextWithdrawalId","outputs":[{"internalType":"uint256","name":"","type":"uint256"}],"stateMutability":"view","type":"function"},{"inputs":[],"name":"operationalReserveBps","outputs":[{"internalType":"uint256","name":"","type":"uint256"}],"stateMutability":"view","type":"function"},{"inputs":[],"name":"pause","outputs":[],"stateMutability":"nonpayable","type":"function"},{"inputs":[],"name":"paused","outputs":[{"internalType":"bool","name":"","type":"bool"}],"stateMutability":"view","type":"function"},{"inputs":[{"internalType":"address","name":"member","type":"address"}],"name":"paySimpananPokok","outputs":[],"stateMutability":"nonpayable","type":"function"},{"inputs":[],"name":"paySimpananWajib","outputs":[],"stateMutability":"nonpayable","type":"function"},{"inputs":[{"internalType":"uint256","name":"","type":"uint256"}],"name":"pendingWithdrawals","outputs":[{"internalType":"address","name":"recipient","type":"address"},{"internalType":"uint256","name":"amount","type":"uint256"},{"internalType":"uint256","name":"timestamp","type":"uint256"},{"internalType":"uint256","name":"executableAt","type":"uint256"},{"internalType":"bool","name":"executed","type":"bool"},{"internalType":"bool","name":"approved","type":"bool"}],"stateMutability":"view","type":"function"},{"inputs":[{"internalType":"uint256","name":"amount","type":"uint256"}],"name":"receiveRevenue","outputs":[],"stateMutability":"nonpayable","type":"function"},{"inputs":[{"internalType":"bytes32","name":"role","type":"bytes32"},{"internalType":"address","name":"callerConfirmation","type":"address"}],"name":"renounceRole","outputs":[],"stateMutability":"nonpayable","type":"function"},{"inputs":[{"internalType":"address","name":"recipient","type":"address"},{"internalType":"uint256","name":"amount","type":"uint256"}],"name":"requestWithdrawal","outputs":[{"internalType":"uint256","name":"withdrawalId","type":"uint256"}],"stateMutability":"nonpayable","type":"function"},{"inputs":[{"internalType":"bytes32","name":"role","type":"bytes32"},{"internalType":"address","name":"account","type":"address"}],"name":"revokeRole","outputs":[],"stateMutability":"nonpayable","type":"function"},{"inputs":[{"internalType":"address","name":"govern","type":"address"}],"name":"setLakomiGovern","outputs":[],"stateMutability":"nonpayable","type":"function"},{"inputs":[{"internalType":"address","name":"token","type":"address"}],"name":"setLakomiToken","outputs":[],"stateMutability":"nonpayable","type":"function"},{"inputs":[{"internalType":"uint256","name":"newBps","type":"uint256"}],"name":"setOperationalReserveBps","outputs":[],"stateMutability":"nonpayable","type":"function"},{"inputs":[{"internalType":"uint256","name":"newAmount","type":"uint256"}],"name":"setSimpananPokokAmount","outputs":[],"stateMutability":"nonpayable","type":"function"},{"inputs":[{"internalType":"uint256","name":"newAmount","type":"uint256"}],"name":"setSimpananWajibAmount","outputs":[],"stateMutability":"nonpayable","type":"function"},{"inputs":[{"internalType":"uint256","name":"newThreshold","type":"uint256"}],"name":"setWithdrawalThreshold","outputs":[],"stateMutability":"nonpayable","type":"function"},{"inputs":[{"internalType":"uint256","name":"newTimelock","type":"uint256"}],"name":"setWithdrawalTimelock","outputs":[],"stateMutability":"nonpayable","type":"function"},{"inputs":[{"internalType":"address","name":"","type":"address"}],"name":"shares","outputs":[{"internalType":"uint256","name":"","type":"uint256"}],"stateMutability":"view","type":"function"},{"inputs":[{"internalType":"address","name":"","type":"address"}],"name":"shuClaimed","outputs":[{"internalType":"uint256","name":"","type":"uint256"}],"stateMutability":"view","type":"function"},{"inputs":[{"internalType":"uint256","name":"","type":"uint256"},{"internalType":"address","name":"","type":"address"}],"name":"shuClaimedForDistribution","outputs":[{"internalType":"bool","name":"","type":"bool"}],"stateMutability":"view","type":"function"},{"inputs":[],"name":"shuDistributionCount","outputs":[{"internalType":"uint256","name":"","type":"uint256"}],"stateMutability":"view","type":"function"},{"inputs":[],"name":"shuDistributionPeriod","outputs":[{"internalType":"uint256","name":"","type":"uint256"}],"stateMutability":"view","type":"function"},{"inputs":[{"internalType":"uint256","name":"","type":"uint256"}],"name":"shuDistributions","outputs":[{"internalType":"uint256","name":"totalAmount","type":"uint256"},{"internalType":"uint256","name":"memberCount","type":"uint256"},{"internalType":"uint256","name":"timestamp","type":"uint256"},{"internalType":"uint256","name":"perShare","type":"uint256"}],"stateMutability":"view","type":"function"},{"inputs":[{"internalType":"address","name":"","type":"address"}],"name":"shuPending","outputs":[{"internalType":"uint256","name":"","type":"uint256"}],"stateMutability":"view","type":"function"},{"inputs":[{"internalType":"address","name":"","type":"address"}],"name":"simpananPokok","outputs":[{"internalType":"uint256","name":"","type":"uint256"}],"stateMutability":"view","type":"function"},{"inputs":[],"name":"simpananPokokAmount","outputs":[{"internalType":"uint256","name":"","type":"uint256"}],"stateMutability":"view","type":"function"},{"inputs":[],"name":"simpananWajibAmount","outputs":[{"internalType":"uint256","name":"","type":"uint256"}],"stateMutability":"view","type":"function"},{"inputs":[{"internalType":"address","name":"","type":"address"}],"name":"simpananWajibLastPaid","outputs":[{"internalType":"uint256","name":"","type":"uint256"}],"stateMutability":"view","type":"function"},{"inputs":[],"name":"simpananWajibPeriod","outputs":[{"internalType":"uint256","name":"","type":"uint256"}],"stateMutability":"view","type":"function"},{"inputs":[{"internalType":"address","name":"","type":"address"}],"name":"simpananWajibPeriodsPaid","outputs":[{"internalType":"uint256","name":"","type":"uint256"}],"stateMutability":"view","type":"function"},{"inputs":[{"internalType":"address","name":"","type":"address"}],"name":"simpananWajibTotal","outputs":[{"internalType":"uint256","name":"","type":"uint256"}],"stateMutability":"view","type":"function"},{"inputs":[],"name":"stableToken","outputs":[{"internalType":"contract IERC20","name":"","type":"address"}],"stateMutability":"view","type":"function"},{"inputs":[{"internalType":"bytes4","name":"interfaceId","type":"bytes4"}],"name":"supportsInterface","outputs":[{"internalType":"bool","name":"","type":"bool"}],"stateMutability":"view","type":"function"},{"inputs":[],"name":"totalDeposited","outputs":[{"internalType":"uint256","name":"","type":"uint256"}],"stateMutability":"view","type":"function"},{"inputs":[],"name":"totalSHUDistributed","outputs":[{"internalType":"uint256","name":"","type":"uint256"}],"stateMutability":"view","type":"function"},{"inputs":[],"name":"totalShares","outputs":[{"internalType":"uint256","name":"","type":"uint256"}],"stateMutability":"view","type":"function"},{"inputs":[],"name":"totalWithdrawn","outputs":[{"internalType":"uint256","name":"","type":"uint256"}],"stateMutability":"view","type":"function"},{"inputs":[],"name":"unpause","outputs":[],"stateMutability":"nonpayable","type":"function"},{"inputs":[{"internalType":"uint256","name":"amount","type":"uint256"}],"name":"withdraw","outputs":[{"internalType":"uint256","name":"actualAmount","type":"uint256"}],"stateMutability":"nonpayable","type":"function"},{"inputs":[],"name":"withdrawalThreshold","outputs":[{"internalType":"uint256","name":"","type":"uint256"}],"stateMutability":"view","type":"function"},{"inputs":[],"name":"withdrawalTimelock","outputs":[{"internalType":"uint256","name":"","type":"uint256"}],"stateMutability":"view","type":"function"}],"evm":{"bytecode":{"linkReferences":{},"object":"60a0346200014757601f62002c8338819003918201601f19168301916001600160401b038311848410176200014c5780849260c094604052833981010312620001475780516001600160a01b038116919082900362000147576020810151604082015160608301519160a060808501519401519460017f9b779b17422d0df92223018b32b4d1fa46e071723d6817e2486d003becc55f005580156200013557608052600755600855600d55600e55600f556103e86019556301e13380601755620000c93362000162565b50620000d533620001e2565b506040516129de908162000285823960805181818161088201528181610a5b01528181610b5401528181610c7e01528181610f46015281816113e80152818161193d01528181611c4901528181611f790152818161209001526127d70152f35b6040516322fe8fc760e21b8152600490fd5b600080fd5b634e487b7160e01b600052604160045260246000fd5b6001600160a01b031660008181527fad3228b676f7d3cd4284a5443f17f1962b36e491b30a40b2405849e597ba5fb5602052604081205490919060ff16620001de57818052816020526040822081835260205260408220600160ff19825416179055339160008051602062002c638339815191528180a4600190565b5090565b6001600160a01b031660008181527f991c3211066600fc98d95d017c66f2884b1fa3d4cabc2576d000f3cc80931bda60205260408120549091907f3496e2e73c4d42b75d702e60d9e48102720b8691234415963a5a857b86425d079060ff166200027f57808352826020526040832082845260205260408320600160ff1982541617905560008051602062002c63833981519152339380a4600190565b50509056fe608060408181526004918236101561001657600080fd5b600092833560e01c91826301ffc9a71461231457508163075e9c581461229c5781630835c20114612252578163086d2c87146122335781630961f8bc146122035781630b6d22bb146121e457816318aefba4146121c5578163193b9eca146121705781631e27970f14612151578163201785d61461202b578163248a9ca31461200157816324f13a7614611e6757816328f3597e14611dd05781632934ce4714611d7b5781632c4fbd2d14611ce95781632e1a7d4d14611b515781632f2ff15d14611b275781632f59129714611a73578163340bc08b146118b957816336568abe1461187357816338a3c8781461049157816338b7f446146118385781633a98ef39146118195781633b56ad44146117fa5781633efcfda4146117315781633f4ba83a146116c757816342dfac72146116a857816342e94c90146109615781634786b0cb1461165357816349cf6147146116345781634a9122e3146116155781634b319713146115f657816351b07047146115d05781635c975abb146115ac578163697b00471461158d5781636cb7c6f9146115555781636e07302b146115385781636f11ca1514611500578163763163e71461139c5781637698325f1461137d57816377da1f741461135757816378fcb156146112705781637985fd51146112515781637f071c7c14611219578163803d7823146111e15781638144a447146111a95781638456cb591461114f57816384734ebd14610fc7578163907dc9a914610e7a57816391a608aa14610e2557816391d1485414610ddf578163923231ff14610db9578163944470c214610d9a5781639482292514610d715781639c530b2414610d395781639eceddea14610cc8578163a217fddf14610cad578163a9d75b2b14610c69578163b6b55f2514610af5578163bb47859b14610abd578163bd4ebf3714610a0b578163beaa838f146109c4578163c3f5124d14610997578163ca55753a14610961578163ce7c2ac214610929578163cecb394f14610810578163d153c8bd146107f1578163d547741f146107b2578163d82c363f1461074a578163da95ebf714610571578163de08e74314610537578163df817a711461050e578163e61504001461049157508063e63ea40814610432578063ec4bbb4d146103f8578063f0a3a97c146103be578063ff50abdc146103a05763ffacef081461037f57600080fd5b3461039c578160031936011261039c576020906015549051908152f35b5080fd5b503461039c578160031936011261039c576020906002549051908152f35b503461039c578160031936011261039c57602090517f3496e2e73c4d42b75d702e60d9e48102720b8691234415963a5a857b86425d078152f35b503461039c578160031936011261039c57602090517fbb7c4cc08a5621ac614782239b3fb6f7ae6db25496d23ef396b5d5df8b271c0d8152f35b823461048e57606036600319011261048e5761047961044f612367565b610457612382565b61045f612398565b610467612615565b604435916001600160a01b031661275b565b60016000805160206129898339815191525580f35b80fd5b82843461048e57602036600319011261048e578235815260096020908152908290208054600182015460028301546003840154939096015494516001600160a01b039092168252928101929092526040820193909352606081019290925260ff8082161515608084015260089190911c16151560a082015260c090f35b50503461039c578160031936011261039c57600c5490516001600160a01b039091168152602090f35b50503461039c57602036600319011261039c5760209181906001600160a01b0361055f612367565b16815260108452205415159051908152f35b83833461039c578060031936011261039c5761058b612367565b602435610596612654565b61059e612615565b6001600160a01b0391821691821561073a57811561072a57600754821061071a57338552602095808752826105f26105e18789205460108b52888a205490612672565b33895260118a528789205490612672565b1061070c5761060360085442612565565b91600a549661061188612645565b600a5586519160c0830183811067ffffffffffffffff8211176106f95788948a97947fe6d14ce42ad5a4efe0f111f81c1a1123db4ee41f561c3161e0960d54a9221ebe97948d948a9489528b8352858301888152898401914283528a60608601948a86526009608088019a828c5260a089019a838c52835252209451166bffffffffffffffffffffffff60a01b85541617845551600184015551600283015551600382015501915115159060ff61ff0084549251151560081b1692169061ffff191617179055825191825288820152a360016000805160206129898339815191525551908152f35b634e487b7160e01b835260418552602483fd5b84516344dd002f60e11b8152fd5b8351639293b47f60e01b81528690fd5b8351630a76f80b60e21b81528690fd5b83516322fe8fc760e21b81528690fd5b9050346107ae5760203660031901126107ae578035916107686123f0565b611388831161077957505060195580f35b906020606492519162461bcd60e51b8352820152600f60248201526e4d617820353025207265736572766560881b6044820152fd5b8280fd5b919050346107ae57806003193601126107ae576107ed91356107e860016107d7612382565b93838752866020528620015461244c565b6124f0565b5080f35b50503461039c578160031936011261039c576020906018549051908152f35b83833461039c57602090816003193601126107ae5761082d612367565b91610836612615565b6001600160a01b038316808552601082528285205490939061091957946108a67fc7bd097b41b4436e89260d5edefc678ee270eeb55b3ce23b88b2e297ff7122b0949596600d549030907f0000000000000000000000000000000000000000000000000000000000000000612588565b600d549085875260108352818488205582526108c6838720918254612565565b90556108d6600d54600254612565565b60025583855260148152818520805415610910575b50600d549082519182524290820152a260016000805160206129898339815191525580f35b429055856108eb565b8251636dc6bf2b60e11b81528690fd5b50503461039c57602036600319011261039c5760209181906001600160a01b03610951612367565b1681526006845220549051908152f35b9050346107ae5760203660031901126107ae5760209282916001600160a01b03610989612367565b168252845220549051908152f35b50503461039c57602036600319011261039c576020906109bd6109b8612367565b61284d565b9051908152f35b9050346107ae57816003193601126107ae578160209360ff926109e5612382565b90358252601e86528282206001600160a01b039091168252855220549151911615158152f35b9050346107ae5760203660031901126107ae57803590610a29612615565b8115610aaf57509081610a7f7ff213ae9678e29ddf71cfd6bb58204207ac2f5a37f62a198ca6bc86737f0158689330337f0000000000000000000000000000000000000000000000000000000000000000612588565b610a8b81601554612565565b6015558151908152426020820152a160016000805160206129898339815191525580f35b8251630a76f80b60e21b8152fd5b50503461039c57602036600319011261039c5760209181906001600160a01b03610ae5612367565b1681526011845220549051908152f35b919050346107ae576020928360031936011261048e57823590610b16612654565b610b1e612615565b8115610c5a57338152601085528281205415610c4b578290610b3e6127bc565b6005549081610c3357505082945b610b788430337f0000000000000000000000000000000000000000000000000000000000000000612588565b3382528652818120610b8b848254612565565b905533815260068652818120610ba2868254612565565b9055610bb085600554612565565b600555610bbf83600254612565565b6002553381526014865220805415610c2a575b5081519081526020810183905242604082015233907f91ede45f04a37a7c170f5c1207df3b6bc748dc1e04ad5e917a241d0f52feada39080606081015b0390a260016000805160206129898339815191525551908152f35b42905538610bd2565b610c40610c459286612748565b61267f565b94610b4c565b50505163e960ea7d60e01b8152fd5b505051630a76f80b60e21b8152fd5b50503461039c578160031936011261039c57517f00000000000000000000000000000000000000000000000000000000000000006001600160a01b03168152602090f35b50503461039c578160031936011261039c5751908152602090f35b919050346107ae5760203660031901126107ae57610ce46123f0565b81358352600960205280832080546001600160a01b031615610d2b5782019182549160ff8316610d1e57505061ff00191661010017905580f35b5163aa7e8f7560e01b8152fd5b50516339c3855560e21b8152fd5b50503461039c57602036600319011261039c5760209181906001600160a01b03610d61612367565b168152601d845220549051908152f35b50503461039c578160031936011261039c57600b5490516001600160a01b039091168152602090f35b50503461039c578160031936011261039c576020906017549051908152f35b50503461039c57602036600319011261039c576020906109bd610dda612367565b6128c9565b9050346107ae57816003193601126107ae578160209360ff92610e00612382565b903582528186528282206001600160a01b039091168252855220549151911615158152f35b919050346107ae5760203660031901126107ae577f0914a3237563e55580374c779b17c9122ee57be033cd60a0295a7b78fcc827b19135610e646123f0565b600e549080600e5582519182526020820152a180f35b9050346107ae57602080600319360112610fc357813592610e99612615565b838552601e8252808520338652825260ff8186205416610fb457838552601a8252808520805415610fa4573386526006835281862054908115610f945760030154610ee391612748565b928315610f865750907fd7c563d212890f286485c6374bebc365a4dbf84f5de5f1774aae4bef0006b49f91848652601e82528086203387528252808620600160ff19825416179055601c8252808620610f3d858254612565565b9055610f6a84337f000000000000000000000000000000000000000000000000000000000000000061275b565b519283523392a360016000805160206129898339815191525580f35b905163048f9c2760e41b8152fd5b825163048f9c2760e41b81528590fd5b815163048f9c2760e41b81528490fd5b5163048f9c2760e41b81529050fd5b8380fd5b83833461039c578160031936011261039c57610fe16123f0565b610fe9612615565b6015549081156111405761100d61271061100560195485612748565b048093612672565b801561113057600554801561112057611026908261267f565b601b549361103385612645565b601b5583516080810181811067ffffffffffffffff82111761110d5791859493916110f5937f9040685cb8b833e5686b1c8402cce4aa1146ac8048ff1e4dc1cfa17813f3618c97528481526003602082018a815287830142815260608401918683528b8d52601a602052898d2094518555516001850155516002840155519101556110c084601654612565565b60165560155542601855858752601a602052600184882001549351938493846040919493926060820195825260208201520152565b0390a260016000805160206129898339815191525580f35b634e487b7160e01b885260418952602488fd5b8251639cd0224360e01b81528690fd5b8151639cd0224360e01b81528590fd5b51639cd0224360e01b81528390fd5b50503461039c578160031936011261039c5760207f62e78cea01bee320cd4e420270b5ea74000d11b0c9f74754ebdbfc544b05a2589161118d612398565b611195612654565b600160ff198154161760015551338152a180f35b50503461039c57602036600319011261039c5760209181906001600160a01b036111d1612367565b1681526012845220549051908152f35b50503461039c57602036600319011261039c5760209181906001600160a01b03611209612367565b1681526013845220549051908152f35b50503461039c57602036600319011261039c5760209181906001600160a01b03611241612367565b168152601c845220549051908152f35b50503461039c578160031936011261039c576020906007549051908152f35b919050346107ae57602080600319360112610fc3576001600160a01b03611295612367565b16808552601082528285205493601183528386205493601384528087205491815193631df687dd60e21b855280828601528585602481305afa94851561134d57899561131a575b5097829160c099825286522054946112fd816112f88989612672565b612672565b9482519788528701528501526060840152608083015260a0820152f35b9094508581813d8311611346575b6113328183612710565b81010312611342575193826112dc565b8880fd5b503d611328565b83513d8b823e3d90fd5b50503461039c57602036600319011261039c576020906109bd611378612367565b61269f565b50503461039c578160031936011261039c576020906016549051908152f35b919050346107ae57806003193601126107ae576113b7612367565b916024928335926113c6612398565b805163095ea7b360e01b8088526001600160a01b0393841680865286885290957f0000000000000000000000000000000000000000000000000000000000000000939290919060208a60448180895af160018b51148116156114f3575b8185521561142f578980f35b878a5281875289895260208a60448180895af160018b51148116156114d4575b818552156114be57508251968952855286528460208860448180875af1916001895114831615611499575b521561148857808080808980f35b635274afe760e01b84521690820152fd5b91905060018115166114b5578590833b15153d1516169161147a565b853d89823e3d90fd5b9650505050635274afe760e01b84521690820152fd5b60018115166114ea57853b15153d15161661144f565b503d8a823e3d90fd5b853b15153d151616611423565b50503461039c57602036600319011261039c5760209181906001600160a01b03611528612367565b1681526010845220549051908152f35b50503461039c578160031936011261039c576020906109bd6127bc565b50503461039c57602036600319011261039c5760209181906001600160a01b0361157d612367565b1681526014845220549051908152f35b50503461039c578160031936011261039c57602090601b549051908152f35b50503461039c578160031936011261039c5760209060ff6001541690519015158152f35b50503461039c57602036600319011261039c576020906109bd6115f1612367565b612895565b50503461039c578160031936011261039c576020906003549051908152f35b50503461039c578160031936011261039c57602090600a549051908152f35b50503461039c578160031936011261039c57602090600d549051908152f35b919050346107ae5760203660031901126107ae577fb06a54caabe58475c86c2bf9df3f2f06dd1213e9e10659c293117fe4893b274b9135611692612398565b600754908060075582519182526020820152a180f35b50503461039c578160031936011261039c576020905163773594008152f35b9050346107ae57826003193601126107ae576116e1612398565b6001549060ff821615611723575060ff1916600155513381527f5db9ee0a495bf2e6ff9c91a7834c1ba4fdd244a5e8aa4e537bd38aeae4b073aa90602090a180f35b8251638dfc202b60e01b8152fd5b919050346107ae5760203660031901126107ae5781359182845260096020528184209060018060a01b038254169182156117eb5781019283549260ff84166117dd57331415806117bf575b6117b257505060ff191660011790557fa93f6f41ed8bce52035a13f24c08d4175a9f0b44c1f94a6d9b6b64304f64a8658280a280f35b516339c3855560e21b8152fd5b508580528560205280862033875260205260ff81872054161561177c565b505163aa7e8f7560e01b8152fd5b5082516339c3855560e21b8152fd5b50503461039c578160031936011261039c57602090600e549051908152f35b50503461039c578160031936011261039c576020906005549051908152f35b50503461039c578160031936011261039c57602090517f899bd46557473cb80307a9dabc297131ced39608330a2d29b2d52b660c03923e8152f35b83833461039c578060031936011261039c5761188d612382565b90336001600160a01b038316036118aa57506107ed9192356124f0565b5163334bd91960e11b81528390fd5b919050346107ae5760603660031901126107ae576118d5612367565b6024359060443567ffffffffffffffff91828211611a6f5736602383011215611a6f5781860135928311611a6f573660248484010111611a6f576119176123f0565b61191f612615565b6001600160a01b03818116968715611a61578515611a5357602460207f0000000000000000000000000000000000000000000000000000000000000000938951928380926370a0823160e01b8252308783015287165afa908115611a49579087918b91611a11575b5010611a03575092602485936119c37fad5a7ccb9051f94d2d3944962be58f792d6562271bae0ea41677d55c2d5885cd9897849560609861275b565b828751978896875280602088015286015201848401378181018301879052601f01601f19168101030190a260016000805160206129898339815191525580f35b86516344dd002f60e11b8152fd5b9150506020813d8211611a41575b81611a2c60209383612710565b81010312611a3d5786905138611987565b8980fd5b3d9150611a1f565b88513d8c823e3d90fd5b8651630a76f80b60e21b8152fd5b86516322fe8fc760e21b8152fd5b8680fd5b82843461048e576020918260031936011261039c57611a90612367565b601b549083906001600160a01b0316815b838110611ab2575050505051908152f35b808352601e8752848320828452875260ff85842054161580611b17575b611ae2575b611add90612645565b611aa1565b94611b0f611add9160068952611b0987862054898752601a8b526003898820015490612748565b90612565565b959050611ad4565b5060068752848320541515611acf565b919050346107ae57806003193601126107ae576107ed9135611b4c60016107d7612382565b612472565b83833461039c57602092836003193601126107ae57803592611b71612654565b611b79612615565b8315611cda57600754841015611ccb57338152818552838382205410611cbc57338152818552611bc8611bb784832054601088528584205490612672565b338352601187528483205490612672565b8411611cbc57611be5611bd96127bc565b610c4060055487612748565b9133825260068652828483205410611cae579083913382528652818120611c0d868254612672565b90553381526006865220611c22828254612672565b9055611c3081600554612672565b600555611c3f83600354612565565b600355611c6d83337f000000000000000000000000000000000000000000000000000000000000000061275b565b8151838152602081019190915242604082015233907f75e161b3e824b114fc1a33274bd7091918dd4e639cede50b78b15a4eea956a21908060608101610c0f565b835163a1aaeca560e01b8152fd5b5090516344dd002f60e11b8152fd5b509051639293b47f60e01b8152fd5b509051630a76f80b60e21b8152fd5b9050346107ae5760203660031901126107ae57611d04612367565b90611d0d612398565b6001600160a01b03918216928315611d6e57600c54928316611d615750506001600160a01b0319168117600c557f02ede59ede14fc8a452f4d9c602afef004380e4a5bf668b99ca6580878a80a5c8280a280f35b5163d4a7794160e01b8152fd5b516322fe8fc760e21b8152fd5b919050346107ae5760203660031901126107ae577f3e9cac94b7c7db9b86df56321e6f7e3e88a6c87fc15fd825df1492cf69e335519135611dba612398565b600854908060085582519182526020820152a180f35b83833461039c57602092836003193601126107ae57611ded612367565b8251631df687dd60e21b81526001600160a01b03909116918101919091528381602481305afa928315611e5c578093611e2a575b50505190158152f35b909192508382813d8311611e55575b611e438183612710565b8101031261048e575051908380611e21565b503d611e39565b8251903d90823e3d90fd5b83833461039c57602036600319011261039c57823590611e85612654565b611e8d612615565b818352600960205280832080546001600160a01b0390811695918615611ff157828101805460ff8116611fe15760081c60ff1615611fd15760038201544210611fc157611f4f7fd6cddb3d69146e96ebc2c87b1b3dd0b20ee2d3b0eadf134e011afb434a3e56e6969798611eff6127bc565b6001850196611f16885492610c4060055485612748565b928c52602052611f2a888c20918254612672565b9055848454168a526006602052868a20611f45828254612672565b9055600554612672565b600555611f5f8454600354612565565b600355805460ff1916600117905580548354611f9d9184167f000000000000000000000000000000000000000000000000000000000000000061275b565b5416905482519182526020820152a260016000805160206129898339815191525580f35b84516341927eb760e01b81528490fd5b8451637d7982db60e11b81528490fd5b855163aa7e8f7560e01b81528590fd5b83516339c3855560e21b81528390fd5b9050346107ae5760203660031901126107ae57816020936001923581528085522001549051908152f35b9050346107ae57826003193601126107ae57612045612615565b61204d612654565b338352602090601082528284205415612143577f991dee3b52711c23609ec310ae0ddc55c442c1b66a269403aa45e5a59bfd90ec916110f5916120b4600e5430337f0000000000000000000000000000000000000000000000000000000000000000612588565b600e54338752601183526120cc868820918254612565565b9055338652601382528486206120e28154612645565b9055338652601282524285872055600e54908252612104858720918254612565565b90556013600e549161211883600254612565565b6002553387525283852054935191829133954291846040919493926060820195825260208201520152565b825163e960ea7d60e01b8152fd5b50503461039c578160031936011261039c576020906008549051908152f35b919050346107ae5760203660031901126107ae577febf421625e332bd4d46debf00eb86541652eb65f512eb937e06e3ba623db5d0891356121af6123f0565b600d549080600d5582519182526020820152a180f35b50503461039c578160031936011261039c57602090600f549051908152f35b50503461039c578160031936011261039c576020906019549051908152f35b50503461039c57602036600319011261039c5760209060ff61222b612226612367565b612949565b915191168152f35b50503461039c578160031936011261039c5760209051631dcd65008152f35b9050346107ae5760203660031901126107ae576080928291358152601a60205220908154916001810154916003600283015492015492815194855260208501528301526060820152f35b9050346107ae5760203660031901126107ae576122b7612367565b906122c0612398565b6001600160a01b03918216928315611d6e57600b54928316611d615750506001600160a01b0319168117600b557fa07c91c183e42229e705a9795a1c06d76528b673788b849597364528c96eefb78280a280f35b8491346107ae5760203660031901126107ae573563ffffffff60e01b81168091036107ae5760209250637965db0b60e01b8114908115612356575b5015158152f35b6301ffc9a760e01b1490508361234f565b600435906001600160a01b038216820361237d57565b600080fd5b602435906001600160a01b038216820361237d57565b3360009081527fad3228b676f7d3cd4284a5443f17f1962b36e491b30a40b2405849e597ba5fb5602052604081205460ff16156123d25750565b6044906040519063e2517d3f60e01b82523360048301526024820152fd5b3360009081527ffb5b4225f7c0b188efbc1b7193af901f1a98349314de629b98c0655cf230463760205260409020547f899bd46557473cb80307a9dabc297131ced39608330a2d29b2d52b660c03923e9060ff16156123d25750565b80600052600060205260406000203360005260205260ff60406000205416156123d25750565b9060009180835282602052604083209160018060a01b03169182845260205260ff604084205416156000146124eb57808352826020526040832082845260205260408320600160ff198254161790557f2f8788117e7eff1d82e926ec794901d17c78024a50270940304540a733656f0d339380a4600190565b505090565b9060009180835282602052604083209160018060a01b03169182845260205260ff6040842054166000146124eb5780835282602052604083208284526020526040832060ff1981541690557ff6391f5c32d9c69d2a47ea670b442974b53935d1edc7fd64eb21e047a839171b339380a4600190565b9190820180921161257257565b634e487b7160e01b600052601160045260246000fd5b6040516323b872dd60e01b60009081526001600160a01b03938416600452938316602452604494909452909160209060648180855af16001600051148116156125f5575b836040526000606052156125df57505050565b635274afe760e01b835216600482015260249150fd5b600181151661260b57813b15153d1516166125cc565b833d6000823e3d90fd5b60008051602061298983398151915260028154146126335760029055565b604051633ee5aeb560e01b8152600490fd5b60001981146125725760010190565b60ff6001541661266057565b60405163d93c066560e01b8152600490fd5b9190820391821161257257565b8115612689570490565b634e487b7160e01b600052601260045260246000fd5b6001600160a01b03166000818152601060205260408120549091901561270c576014602052604082205480156124eb576126dc6126e59142612672565b600f549061267f565b90825260136020526040822054908181116126ff57505090565b6127099250612672565b90565b5090565b90601f8019910116810190811067ffffffffffffffff82111761273257604052565b634e487b7160e01b600052604160045260246000fd5b8181029291811591840414171561257257565b60405163a9059cbb60e01b60009081526001600160a01b039384166004526024949094529260209060448180855af16001600051148116156127a6575b83604052156125df57505050565b600181151661260b57813b15153d151616612798565b6040516370a0823160e01b81523060048201526020816024817f00000000000000000000000000000000000000000000000000000000000000006001600160a01b03165afa90811561284157600091612813575090565b906020823d8211612839575b8161282c60209383612710565b8101031261048e57505190565b3d915061281f565b6040513d6000823e3d90fd5b60055490811561288e576001600160a01b0316600090815260066020526040902054612710808202929180159084049091141715612572576127099161267f565b5050600090565b600554801561288e576127099160018060a01b03166000526006602052610c406040600020546128c36127bc565b90612748565b6001600160a01b0316600090815260046020526040812054801561270c57816014602052604081205480612930575b50600a830292808404600a149015171561291c575090620f42406127099204612565565b634e487b7160e01b81526011600452602490fd5b62278d009193506129419042612672565b0491386128f8565b6001600160a01b0316600090815260046020526040902054637735940081101561298257631dcd6500111561297d57600190565b600290565b5060039056fe9b779b17422d0df92223018b32b4d1fa46e071723d6817e2486d003becc55f00a26469706673582212202e0b3b94eeae6f987dbc58c890025730fd9960d2e172ddf09b31fcee964b868364736f6c634300081400332f8788117e7eff1d82e926ec794901d17c78024a50270940304540a733656f0d","opcodes":"PUSH1 0xA0 CALLVALUE PUSH3 0x147 JUMPI PUSH1 0x1F PUSH3 0x2C83 CODESIZE DUP2 SWAP1 SUB SWAP2 DUP3 ADD PUSH1 0x1F NOT AND DUP4 ADD SWAP2 PUSH1 0x1 PUSH1 0x1 PUSH1 0x40 SHL SUB DUP4 GT DUP5 DUP5 LT OR PUSH3 0x14C JUMPI DUP1 DUP5 SWAP3 PUSH1 0xC0 SWAP5 PUSH1 0x40 MSTORE DUP4 CODECOPY DUP2 ADD SUB SLT PUSH3 0x147 JUMPI DUP1 MLOAD PUSH1 0x1 PUSH1 0x1 PUSH1 0xA0 SHL SUB DUP2 AND SWAP2 SWAP1 DUP3 SWAP1 SUB PUSH3 0x147 JUMPI PUSH1 0x20 DUP2 ADD MLOAD PUSH1 0x40 DUP3 ADD MLOAD PUSH1 0x60 DUP4 ADD MLOAD SWAP2 PUSH1 0xA0 PUSH1 0x80 DUP6 ADD MLOAD SWAP5 ADD MLOAD SWAP5 PUSH1 0x1 PUSH32 0x9B779B17422D0DF92223018B32B4D1FA46E071723D6817E2486D003BECC55F00 SSTORE DUP1 ISZERO PUSH3 0x135 JUMPI PUSH1 0x80 MSTORE PUSH1 0x7 SSTORE PUSH1 0x8 SSTORE PUSH1 0xD SSTORE PUSH1 0xE SSTORE PUSH1 0xF SSTORE PUSH2 0x3E8 PUSH1 0x19 SSTORE PUSH4 0x1E13380 PUSH1 0x17 SSTORE PUSH3 0xC9 CALLER PUSH3 0x162 JUMP JUMPDEST POP PUSH3 0xD5 CALLER PUSH3 0x1E2 JUMP JUMPDEST POP PUSH1 0x40 MLOAD PUSH2 0x29DE SWAP1 DUP2 PUSH3 0x285 DUP3 CODECOPY PUSH1 0x80 MLOAD DUP2 DUP2 DUP2 PUSH2 0x882 ADD MSTORE DUP2 DUP2 PUSH2 0xA5B ADD MSTORE DUP2 DUP2 PUSH2 0xB54 ADD MSTORE DUP2 DUP2 PUSH2 0xC7E ADD MSTORE DUP2 DUP2 PUSH2 0xF46 ADD MSTORE DUP2 DUP2 PUSH2 0x13E8 ADD MSTORE DUP2 DUP2 PUSH2 0x193D ADD MSTORE DUP2 DUP2 PUSH2 0x1C49 ADD MSTORE DUP2 DUP2 PUSH2 0x1F79 ADD MSTORE DUP2 DUP2 PUSH2 0x2090 ADD MSTORE PUSH2 0x27D7 ADD MSTORE RETURN JUMPDEST PUSH1 0x40 MLOAD PUSH4 0x22FE8FC7 PUSH1 0xE2 SHL DUP2 MSTORE PUSH1 0x4 SWAP1 REVERT JUMPDEST PUSH1 0x0 DUP1 REVERT JUMPDEST PUSH4 0x4E487B71 PUSH1 0xE0 SHL PUSH1 0x0 MSTORE PUSH1 0x41 PUSH1 0x4 MSTORE PUSH1 0x24 PUSH1 0x0 REVERT JUMPDEST PUSH1 0x1 PUSH1 0x1 PUSH1 0xA0 SHL SUB AND PUSH1 0x0 DUP2 DUP2 MSTORE PUSH32 0xAD3228B676F7D3CD4284A5443F17F1962B36E491B30A40B2405849E597BA5FB5 PUSH1 0x20 MSTORE PUSH1 0x40 DUP2 KECCAK256 SLOAD SWAP1 SWAP2 SWAP1 PUSH1 0xFF AND PUSH3 0x1DE JUMPI DUP2 DUP1 MSTORE DUP2 PUSH1 0x20 MSTORE PUSH1 0x40 DUP3 KECCAK256 DUP2 DUP4 MSTORE PUSH1 0x20 MSTORE PUSH1 0x40 DUP3 KECCAK256 PUSH1 0x1 PUSH1 0xFF NOT DUP3 SLOAD AND OR SWAP1 SSTORE CALLER SWAP2 PUSH1 0x0 DUP1 MLOAD PUSH1 0x20 PUSH3 0x2C63 DUP4 CODECOPY DUP2 MLOAD SWAP2 MSTORE DUP2 DUP1 LOG4 PUSH1 0x1 SWAP1 JUMP JUMPDEST POP SWAP1 JUMP JUMPDEST PUSH1 0x1 PUSH1 0x1 PUSH1 0xA0 SHL SUB AND PUSH1 0x0 DUP2 DUP2 MSTORE PUSH32 0x991C3211066600FC98D95D017C66F2884B1FA3D4CABC2576D000F3CC80931BDA PUSH1 0x20 MSTORE PUSH1 0x40 DUP2 KECCAK256 SLOAD SWAP1 SWAP2 SWAP1 PUSH32 0x3496E2E73C4D42B75D702E60D9E48102720B8691234415963A5A857B86425D07 SWAP1 PUSH1 0xFF AND PUSH3 0x27F JUMPI DUP1 DUP4 MSTORE DUP3 PUSH1 0x20 MSTORE PUSH1 0x40 DUP4 KECCAK256 DUP3 DUP5 MSTORE PUSH1 0x20 MSTORE PUSH1 0x40 DUP4 KECCAK256 PUSH1 0x1 PUSH1 0xFF NOT DUP3 SLOAD AND OR SWAP1 SSTORE PUSH1 0x0 DUP1 MLOAD PUSH1 0x20 PUSH3 0x2C63 DUP4 CODECOPY DUP2 MLOAD SWAP2 MSTORE CALLER SWAP4 DUP1 LOG4 PUSH1 0x1 SWAP1 JUMP JUMPDEST POP POP SWAP1 JUMP INVALID PUSH1 0x80 PUSH1 0x40 DUP2 DUP2 MSTORE PUSH1 0x4 SWAP2 DUP3 CALLDATASIZE LT ISZERO PUSH2 0x16 JUMPI PUSH1 0x0 DUP1 REVERT JUMPDEST PUSH1 0x0 SWAP3 DUP4 CALLDATALOAD PUSH1 0xE0 SHR SWAP2 DUP3 PUSH4 0x1FFC9A7 EQ PUSH2 0x2314 JUMPI POP DUP2 PUSH4 0x75E9C58 EQ PUSH2 0x229C JUMPI DUP2 PUSH4 0x835C201 EQ PUSH2 0x2252 JUMPI DUP2 PUSH4 0x86D2C87 EQ PUSH2 0x2233 JUMPI DUP2 PUSH4 0x961F8BC EQ PUSH2 0x2203 JUMPI DUP2 PUSH4 0xB6D22BB EQ PUSH2 0x21E4 JUMPI DUP2 PUSH4 0x18AEFBA4 EQ PUSH2 0x21C5 JUMPI DUP2 PUSH4 0x193B9ECA EQ PUSH2 0x2170 JUMPI DUP2 PUSH4 0x1E27970F EQ PUSH2 0x2151 JUMPI DUP2 PUSH4 0x201785D6 EQ PUSH2 0x202B JUMPI DUP2 PUSH4 0x248A9CA3 EQ PUSH2 0x2001 JUMPI DUP2 PUSH4 0x24F13A76 EQ PUSH2 0x1E67 JUMPI DUP2 PUSH4 0x28F3597E EQ PUSH2 0x1DD0 JUMPI DUP2 PUSH4 0x2934CE47 EQ PUSH2 0x1D7B JUMPI DUP2 PUSH4 0x2C4FBD2D EQ PUSH2 0x1CE9 JUMPI DUP2 PUSH4 0x2E1A7D4D EQ PUSH2 0x1B51 JUMPI DUP2 PUSH4 0x2F2FF15D EQ PUSH2 0x1B27 JUMPI DUP2 PUSH4 0x2F591297 EQ PUSH2 0x1A73 JUMPI DUP2 PUSH4 0x340BC08B EQ PUSH2 0x18B9 JUMPI DUP2 PUSH4 0x36568ABE EQ PUSH2 0x1873 JUMPI DUP2 PUSH4 0x38A3C878 EQ PUSH2 0x491 JUMPI DUP2 PUSH4 0x38B7F446 EQ PUSH2 0x1838 JUMPI DUP2 PUSH4 0x3A98EF39 EQ PUSH2 0x1819 JUMPI DUP2 PUSH4 0x3B56AD44 EQ PUSH2 0x17FA JUMPI DUP2 PUSH4 0x3EFCFDA4 EQ PUSH2 0x1731 JUMPI DUP2 PUSH4 0x3F4BA83A EQ PUSH2 0x16C7 JUMPI DUP2 PUSH4 0x42DFAC72 EQ PUSH2 0x16A8 JUMPI DUP2 PUSH4 0x42E94C90 EQ PUSH2 0x961 JUMPI DUP2 PUSH4 0x4786B0CB EQ PUSH2 0x1653 JUMPI DUP2 PUSH4 0x49CF6147 EQ PUSH2 0x1634 JUMPI DUP2 PUSH4 0x4A9122E3 EQ PUSH2 0x1615 JUMPI DUP2 PUSH4 0x4B319713 EQ PUSH2 0x15F6 JUMPI DUP2 PUSH4 0x51B07047 EQ PUSH2 0x15D0 JUMPI DUP2 PUSH4 0x5C975ABB EQ PUSH2 0x15AC JUMPI DUP2 PUSH4 0x697B0047 EQ PUSH2 0x158D JUMPI DUP2 PUSH4 0x6CB7C6F9 EQ PUSH2 0x1555 JUMPI DUP2 PUSH4 0x6E07302B EQ PUSH2 0x1538 JUMPI DUP2 PUSH4 0x6F11CA15 EQ PUSH2 0x1500 JUMPI DUP2 PUSH4 0x763163E7 EQ PUSH2 0x139C JUMPI DUP2 PUSH4 0x7698325F EQ PUSH2 0x137D JUMPI DUP2 PUSH4 0x77DA1F74 EQ PUSH2 0x1357 JUMPI DUP2 PUSH4 0x78FCB156 EQ PUSH2 0x1270 JUMPI DUP2 PUSH4 0x7985FD51 EQ PUSH2 0x1251 JUMPI DUP2 PUSH4 0x7F071C7C EQ PUSH2 0x1219 JUMPI DUP2 PUSH4 0x803D7823 EQ PUSH2 0x11E1 JUMPI DUP2 PUSH4 0x8144A447 EQ PUSH2 0x11A9 JUMPI DUP2 PUSH4 0x8456CB59 EQ PUSH2 0x114F JUMPI DUP2 PUSH4 0x84734EBD EQ PUSH2 0xFC7 JUMPI DUP2 PUSH4 0x907DC9A9 EQ PUSH2 0xE7A JUMPI DUP2 PUSH4 0x91A608AA EQ PUSH2 0xE25 JUMPI DUP2 PUSH4 0x91D14854 EQ PUSH2 0xDDF JUMPI DUP2 PUSH4 0x923231FF EQ PUSH2 0xDB9 JUMPI DUP2 PUSH4 0x944470C2 EQ PUSH2 0xD9A JUMPI DUP2 PUSH4 0x94822925 EQ PUSH2 0xD71 JUMPI DUP2 PUSH4 0x9C530B24 EQ PUSH2 0xD39 JUMPI DUP2 PUSH4 0x9ECEDDEA EQ PUSH2 0xCC8 JUMPI DUP2 PUSH4 0xA217FDDF EQ PUSH2 0xCAD JUMPI DUP2 PUSH4 0xA9D75B2B EQ PUSH2 0xC69 JUMPI DUP2 PUSH4 0xB6B55F25 EQ PUSH2 0xAF5 JUMPI DUP2 PUSH4 0xBB47859B EQ PUSH2 0xABD JUMPI DUP2 PUSH4 0xBD4EBF37 EQ PUSH2 0xA0B JUMPI DUP2 PUSH4 0xBEAA838F EQ PUSH2 0x9C4 JUMPI DUP2 PUSH4 0xC3F5124D EQ PUSH2 0x997 JUMPI DUP2 PUSH4 0xCA55753A EQ PUSH2 0x961 JUMPI DUP2 PUSH4 0xCE7C2AC2 EQ PUSH2 0x929 JUMPI DUP2 PUSH4 0xCECB394F EQ PUSH2 0x810 JUMPI DUP2 PUSH4 0xD153C8BD EQ PUSH2 0x7F1 JUMPI DUP2 PUSH4 0xD547741F EQ PUSH2 0x7B2 JUMPI DUP2 PUSH4 0xD82C363F EQ PUSH2 0x74A JUMPI DUP2 PUSH4 0xDA95EBF7 EQ PUSH2 0x571 JUMPI DUP2 PUSH4 0xDE08E743 EQ PUSH2 0x537 JUMPI DUP2 PUSH4 0xDF817A71 EQ PUSH2 0x50E JUMPI DUP2 PUSH4 0xE6150400 EQ PUSH2 0x491 JUMPI POP DUP1 PUSH4 0xE63EA408 EQ PUSH2 0x432 JUMPI DUP1 PUSH4 0xEC4BBB4D EQ PUSH2 0x3F8 JUMPI DUP1 PUSH4 0xF0A3A97C EQ PUSH2 0x3BE JUMPI DUP1 PUSH4 0xFF50ABDC EQ PUSH2 0x3A0 JUMPI PUSH4 0xFFACEF08 EQ PUSH2 0x37F JUMPI PUSH1 0x0 DUP1 REVERT JUMPDEST CALLVALUE PUSH2 0x39C JUMPI DUP2 PUSH1 0x3 NOT CALLDATASIZE ADD SLT PUSH2 0x39C JUMPI PUSH1 0x20 SWAP1 PUSH1 0x15 SLOAD SWAP1 MLOAD SWAP1 DUP2 MSTORE RETURN JUMPDEST POP DUP1 REVERT JUMPDEST POP CALLVALUE PUSH2 0x39C JUMPI DUP2 PUSH1 0x3 NOT CALLDATASIZE ADD SLT PUSH2 0x39C JUMPI PUSH1 0x20 SWAP1 PUSH1 0x2 SLOAD SWAP1 MLOAD SWAP1 DUP2 MSTORE RETURN JUMPDEST POP CALLVALUE PUSH2 0x39C JUMPI DUP2 PUSH1 0x3 NOT CALLDATASIZE ADD SLT PUSH2 0x39C JUMPI PUSH1 0x20 SWAP1 MLOAD PUSH32 0x3496E2E73C4D42B75D702E60D9E48102720B8691234415963A5A857B86425D07 DUP2 MSTORE RETURN JUMPDEST POP CALLVALUE PUSH2 0x39C JUMPI DUP2 PUSH1 0x3 NOT CALLDATASIZE ADD SLT PUSH2 0x39C JUMPI PUSH1 0x20 SWAP1 MLOAD PUSH32 0xBB7C4CC08A5621AC614782239B3FB6F7AE6DB25496D23EF396B5D5DF8B271C0D DUP2 MSTORE RETURN JUMPDEST DUP3 CALLVALUE PUSH2 0x48E JUMPI PUSH1 0x60 CALLDATASIZE PUSH1 0x3 NOT ADD SLT PUSH2 0x48E JUMPI PUSH2 0x479 PUSH2 0x44F PUSH2 0x2367 JUMP JUMPDEST PUSH2 0x457 PUSH2 0x2382 JUMP JUMPDEST PUSH2 0x45F PUSH2 0x2398 JUMP JUMPDEST PUSH2 0x467 PUSH2 0x2615 JUMP JUMPDEST PUSH1 0x44 CALLDATALOAD SWAP2 PUSH1 0x1 PUSH1 0x1 PUSH1 0xA0 SHL SUB AND PUSH2 0x275B JUMP JUMPDEST PUSH1 0x1 PUSH1 0x0 DUP1 MLOAD PUSH1 0x20 PUSH2 0x2989 DUP4 CODECOPY DUP2 MLOAD SWAP2 MSTORE SSTORE DUP1 RETURN JUMPDEST DUP1 REVERT JUMPDEST DUP3 DUP5 CALLVALUE PUSH2 0x48E JUMPI PUSH1 0x20 CALLDATASIZE PUSH1 0x3 NOT ADD SLT PUSH2 0x48E JUMPI DUP3 CALLDATALOAD DUP2 MSTORE PUSH1 0x9 PUSH1 0x20 SWAP1 DUP2 MSTORE SWAP1 DUP3 SWAP1 KECCAK256 DUP1 SLOAD PUSH1 0x1 DUP3 ADD SLOAD PUSH1 0x2 DUP4 ADD SLOAD PUSH1 0x3 DUP5 ADD SLOAD SWAP4 SWAP1 SWAP7 ADD SLOAD SWAP5 MLOAD PUSH1 0x1 PUSH1 0x1 PUSH1 0xA0 SHL SUB SWAP1 SWAP3 AND DUP3 MSTORE SWAP3 DUP2 ADD SWAP3 SWAP1 SWAP3 MSTORE PUSH1 0x40 DUP3 ADD SWAP4 SWAP1 SWAP4 MSTORE PUSH1 0x60 DUP2 ADD SWAP3 SWAP1 SWAP3 MSTORE PUSH1 0xFF DUP1 DUP3 AND ISZERO ISZERO PUSH1 0x80 DUP5 ADD MSTORE PUSH1 0x8 SWAP2 SWAP1 SWAP2 SHR AND ISZERO ISZERO PUSH1 0xA0 DUP3 ADD MSTORE PUSH1 0xC0 SWAP1 RETURN JUMPDEST POP POP CALLVALUE PUSH2 0x39C JUMPI DUP2 PUSH1 0x3 NOT CALLDATASIZE ADD SLT PUSH2 0x39C JUMPI PUSH1 0xC SLOAD SWAP1 MLOAD PUSH1 0x1 PUSH1 0x1 PUSH1 0xA0 SHL SUB SWAP1 SWAP2 AND DUP2 MSTORE PUSH1 0x20 SWAP1 RETURN JUMPDEST POP POP CALLVALUE PUSH2 0x39C JUMPI PUSH1 0x20 CALLDATASIZE PUSH1 0x3 NOT ADD SLT PUSH2 0x39C JUMPI PUSH1 0x20 SWAP2 DUP2 SWAP1 PUSH1 0x1 PUSH1 0x1 PUSH1 0xA0 SHL SUB PUSH2 0x55F PUSH2 0x2367 JUMP JUMPDEST AND DUP2 MSTORE PUSH1 0x10 DUP5 MSTORE KECCAK256 SLOAD ISZERO ISZERO SWAP1 MLOAD SWAP1 DUP2 MSTORE RETURN JUMPDEST DUP4 DUP4 CALLVALUE PUSH2 0x39C JUMPI DUP1 PUSH1 0x3 NOT CALLDATASIZE ADD SLT PUSH2 0x39C JUMPI PUSH2 0x58B PUSH2 0x2367 JUMP JUMPDEST PUSH1 0x24 CALLDATALOAD PUSH2 0x596 PUSH2 0x2654 JUMP JUMPDEST PUSH2 0x59E PUSH2 0x2615 JUMP JUMPDEST PUSH1 0x1 PUSH1 0x1 PUSH1 0xA0 SHL SUB SWAP2 DUP3 AND SWAP2 DUP3 ISZERO PUSH2 0x73A JUMPI DUP2 ISZERO PUSH2 0x72A JUMPI PUSH1 0x7 SLOAD DUP3 LT PUSH2 0x71A JUMPI CALLER DUP6 MSTORE PUSH1 0x20 SWAP6 DUP1 DUP8 MSTORE DUP3 PUSH2 0x5F2 PUSH2 0x5E1 DUP8 DUP10 KECCAK256 SLOAD PUSH1 0x10 DUP12 MSTORE DUP9 DUP11 KECCAK256 SLOAD SWAP1 PUSH2 0x2672 JUMP JUMPDEST CALLER DUP10 MSTORE PUSH1 0x11 DUP11 MSTORE DUP8 DUP10 KECCAK256 SLOAD SWAP1 PUSH2 0x2672 JUMP JUMPDEST LT PUSH2 0x70C JUMPI PUSH2 0x603 PUSH1 0x8 SLOAD TIMESTAMP PUSH2 0x2565 JUMP JUMPDEST SWAP2 PUSH1 0xA SLOAD SWAP7 PUSH2 0x611 DUP9 PUSH2 0x2645 JUMP JUMPDEST PUSH1 0xA SSTORE DUP7 MLOAD SWAP2 PUSH1 0xC0 DUP4 ADD DUP4 DUP2 LT PUSH8 0xFFFFFFFFFFFFFFFF DUP3 GT OR PUSH2 0x6F9 JUMPI DUP9 SWAP5 DUP11 SWAP8 SWAP5 PUSH32 0xE6D14CE42AD5A4EFE0F111F81C1A1123DB4EE41F561C3161E0960D54A9221EBE SWAP8 SWAP5 DUP14 SWAP5 DUP11 SWAP5 DUP10 MSTORE DUP12 DUP4 MSTORE DUP6 DUP4 ADD DUP9 DUP2 MSTORE DUP10 DUP5 ADD SWAP2 TIMESTAMP DUP4 MSTORE DUP11 PUSH1 0x60 DUP7 ADD SWAP5 DUP11 DUP7 MSTORE PUSH1 0x9 PUSH1 0x80 DUP9 ADD SWAP11 DUP3 DUP13 MSTORE PUSH1 0xA0 DUP10 ADD SWAP11 DUP4 DUP13 MSTORE DUP4 MSTORE MSTORE KECCAK256 SWAP5 MLOAD AND PUSH12 0xFFFFFFFFFFFFFFFFFFFFFFFF PUSH1 0xA0 SHL DUP6 SLOAD AND OR DUP5 SSTORE MLOAD PUSH1 0x1 DUP5 ADD SSTORE MLOAD PUSH1 0x2 DUP4 ADD SSTORE MLOAD PUSH1 0x3 DUP3 ADD SSTORE ADD SWAP2 MLOAD ISZERO ISZERO SWAP1 PUSH1 0xFF PUSH2 0xFF00 DUP5 SLOAD SWAP3 MLOAD ISZERO ISZERO PUSH1 0x8 SHL AND SWAP3 AND SWAP1 PUSH2 0xFFFF NOT AND OR OR SWAP1 SSTORE DUP3 MLOAD SWAP2 DUP3 MSTORE DUP9 DUP3 ADD MSTORE LOG3 PUSH1 0x1 PUSH1 0x0 DUP1 MLOAD PUSH1 0x20 PUSH2 0x2989 DUP4 CODECOPY DUP2 MLOAD SWAP2 MSTORE SSTORE MLOAD SWAP1 DUP2 MSTORE RETURN JUMPDEST PUSH4 0x4E487B71 PUSH1 0xE0 SHL DUP4 MSTORE PUSH1 0x41 DUP6 MSTORE PUSH1 0x24 DUP4 REVERT JUMPDEST DUP5 MLOAD PUSH4 0x44DD002F PUSH1 0xE1 SHL DUP2 MSTORE REVERT JUMPDEST DUP4 MLOAD PUSH4 0x9293B47F PUSH1 0xE0 SHL DUP2 MSTORE DUP7 SWAP1 REVERT JUMPDEST DUP4 MLOAD PUSH4 0xA76F80B PUSH1 0xE2 SHL DUP2 MSTORE DUP7 SWAP1 REVERT JUMPDEST DUP4 MLOAD PUSH4 0x22FE8FC7 PUSH1 0xE2 SHL DUP2 MSTORE DUP7 SWAP1 REVERT JUMPDEST SWAP1 POP CALLVALUE PUSH2 0x7AE JUMPI PUSH1 0x20 CALLDATASIZE PUSH1 0x3 NOT ADD SLT PUSH2 0x7AE JUMPI DUP1 CALLDATALOAD SWAP2 PUSH2 0x768 PUSH2 0x23F0 JUMP JUMPDEST PUSH2 0x1388 DUP4 GT PUSH2 0x779 JUMPI POP POP PUSH1 0x19 SSTORE DUP1 RETURN JUMPDEST SWAP1 PUSH1 0x20 PUSH1 0x64 SWAP3 MLOAD SWAP2 PUSH3 0x461BCD PUSH1 0xE5 SHL DUP4 MSTORE DUP3 ADD MSTORE PUSH1 0xF PUSH1 0x24 DUP3 ADD MSTORE PUSH15 0x4D6178203530252072657365727665 PUSH1 0x88 SHL PUSH1 0x44 DUP3 ADD MSTORE REVERT JUMPDEST DUP3 DUP1 REVERT JUMPDEST SWAP2 SWAP1 POP CALLVALUE PUSH2 0x7AE JUMPI DUP1 PUSH1 0x3 NOT CALLDATASIZE ADD SLT PUSH2 0x7AE JUMPI PUSH2 0x7ED SWAP2 CALLDATALOAD PUSH2 0x7E8 PUSH1 0x1 PUSH2 0x7D7 PUSH2 0x2382 JUMP JUMPDEST SWAP4 DUP4 DUP8 MSTORE DUP7 PUSH1 0x20 MSTORE DUP7 KECCAK256 ADD SLOAD PUSH2 0x244C JUMP JUMPDEST PUSH2 0x24F0 JUMP JUMPDEST POP DUP1 RETURN JUMPDEST POP POP CALLVALUE PUSH2 0x39C JUMPI DUP2 PUSH1 0x3 NOT CALLDATASIZE ADD SLT PUSH2 0x39C JUMPI PUSH1 0x20 SWAP1 PUSH1 0x18 SLOAD SWAP1 MLOAD SWAP1 DUP2 MSTORE RETURN JUMPDEST DUP4 DUP4 CALLVALUE PUSH2 0x39C JUMPI PUSH1 0x20 SWAP1 DUP2 PUSH1 0x3 NOT CALLDATASIZE ADD SLT PUSH2 0x7AE JUMPI PUSH2 0x82D PUSH2 0x2367 JUMP JUMPDEST SWAP2 PUSH2 0x836 PUSH2 0x2615 JUMP JUMPDEST PUSH1 0x1 PUSH1 0x1 PUSH1 0xA0 SHL SUB DUP4 AND DUP1 DUP6 MSTORE PUSH1 0x10 DUP3 MSTORE DUP3 DUP6 KECCAK256 SLOAD SWAP1 SWAP4 SWAP1 PUSH2 0x919 JUMPI SWAP5 PUSH2 0x8A6 PUSH32 0xC7BD097B41B4436E89260D5EDEFC678EE270EEB55B3CE23B88B2E297FF7122B0 SWAP5 SWAP6 SWAP7 PUSH1 0xD SLOAD SWAP1 ADDRESS SWAP1 PUSH32 0x0 PUSH2 0x2588 JUMP JUMPDEST PUSH1 0xD SLOAD SWAP1 DUP6 DUP8 MSTORE PUSH1 0x10 DUP4 MSTORE DUP2 DUP5 DUP9 KECCAK256 SSTORE DUP3 MSTORE PUSH2 0x8C6 DUP4 DUP8 KECCAK256 SWAP2 DUP3 SLOAD PUSH2 0x2565 JUMP JUMPDEST SWAP1 SSTORE PUSH2 0x8D6 PUSH1 0xD SLOAD PUSH1 0x2 SLOAD PUSH2 0x2565 JUMP JUMPDEST PUSH1 0x2 SSTORE DUP4 DUP6 MSTORE PUSH1 0x14 DUP2 MSTORE DUP2 DUP6 KECCAK256 DUP1 SLOAD ISZERO PUSH2 0x910 JUMPI JUMPDEST POP PUSH1 0xD SLOAD SWAP1 DUP3 MLOAD SWAP2 DUP3 MSTORE TIMESTAMP SWAP1 DUP3 ADD MSTORE LOG2 PUSH1 0x1 PUSH1 0x0 DUP1 MLOAD PUSH1 0x20 PUSH2 0x2989 DUP4 CODECOPY DUP2 MLOAD SWAP2 MSTORE SSTORE DUP1 RETURN JUMPDEST TIMESTAMP SWAP1 SSTORE DUP6 PUSH2 0x8EB JUMP JUMPDEST DUP3 MLOAD PUSH4 0x6DC6BF2B PUSH1 0xE1 SHL DUP2 MSTORE DUP7 SWAP1 REVERT JUMPDEST POP POP CALLVALUE PUSH2 0x39C JUMPI PUSH1 0x20 CALLDATASIZE PUSH1 0x3 NOT ADD SLT PUSH2 0x39C JUMPI PUSH1 0x20 SWAP2 DUP2 SWAP1 PUSH1 0x1 PUSH1 0x1 PUSH1 0xA0 SHL SUB PUSH2 0x951 PUSH2 0x2367 JUMP JUMPDEST AND DUP2 MSTORE PUSH1 0x6 DUP5 MSTORE KECCAK256 SLOAD SWAP1 MLOAD SWAP1 DUP2 MSTORE RETURN JUMPDEST SWAP1 POP CALLVALUE PUSH2 0x7AE JUMPI PUSH1 0x20 CALLDATASIZE PUSH1 0x3 NOT ADD SLT PUSH2 0x7AE JUMPI PUSH1 0x20 SWAP3 DUP3 SWAP2 PUSH1 0x1 PUSH1 0x1 PUSH1 0xA0 SHL SUB PUSH2 0x989 PUSH2 0x2367 JUMP JUMPDEST AND DUP3 MSTORE DUP5 MSTORE KECCAK256 SLOAD SWAP1 MLOAD SWAP1 DUP2 MSTORE RETURN JUMPDEST POP POP CALLVALUE PUSH2 0x39C JUMPI PUSH1 0x20 CALLDATASIZE PUSH1 0x3 NOT ADD SLT PUSH2 0x39C JUMPI PUSH1 0x20 SWAP1 PUSH2 0x9BD PUSH2 0x9B8 PUSH2 0x2367 JUMP JUMPDEST PUSH2 0x284D JUMP JUMPDEST SWAP1 MLOAD SWAP1 DUP2 MSTORE RETURN JUMPDEST SWAP1 POP CALLVALUE PUSH2 0x7AE JUMPI DUP2 PUSH1 0x3 NOT CALLDATASIZE ADD SLT PUSH2 0x7AE JUMPI DUP2 PUSH1 0x20 SWAP4 PUSH1 0xFF SWAP3 PUSH2 0x9E5 PUSH2 0x2382 JUMP JUMPDEST SWAP1 CALLDATALOAD DUP3 MSTORE PUSH1 0x1E DUP7 MSTORE DUP3 DUP3 KECCAK256 PUSH1 0x1 PUSH1 0x1 PUSH1 0xA0 SHL SUB SWAP1 SWAP2 AND DUP3 MSTORE DUP6 MSTORE KECCAK256 SLOAD SWAP2 MLOAD SWAP2 AND ISZERO ISZERO DUP2 MSTORE RETURN JUMPDEST SWAP1 POP CALLVALUE PUSH2 0x7AE JUMPI PUSH1 0x20 CALLDATASIZE PUSH1 0x3 NOT ADD SLT PUSH2 0x7AE JUMPI DUP1 CALLDATALOAD SWAP1 PUSH2 0xA29 PUSH2 0x2615 JUMP JUMPDEST DUP2 ISZERO PUSH2 0xAAF JUMPI POP SWAP1 DUP2 PUSH2 0xA7F PUSH32 0xF213AE9678E29DDF71CFD6BB58204207AC2F5A37F62A198CA6BC86737F015868 SWAP4 ADDRESS CALLER PUSH32 0x0 PUSH2 0x2588 JUMP JUMPDEST PUSH2 0xA8B DUP2 PUSH1 0x15 SLOAD PUSH2 0x2565 JUMP JUMPDEST PUSH1 0x15 SSTORE DUP2 MLOAD SWAP1 DUP2 MSTORE TIMESTAMP PUSH1 0x20 DUP3 ADD MSTORE LOG1 PUSH1 0x1 PUSH1 0x0 DUP1 MLOAD PUSH1 0x20 PUSH2 0x2989 DUP4 CODECOPY DUP2 MLOAD SWAP2 MSTORE SSTORE DUP1 RETURN JUMPDEST DUP3 MLOAD PUSH4 0xA76F80B PUSH1 0xE2 SHL DUP2 MSTORE REVERT JUMPDEST POP POP CALLVALUE PUSH2 0x39C JUMPI PUSH1 0x20 CALLDATASIZE PUSH1 0x3 NOT ADD SLT PUSH2 0x39C JUMPI PUSH1 0x20 SWAP2 DUP2 SWAP1 PUSH1 0x1 PUSH1 0x1 PUSH1 0xA0 SHL SUB PUSH2 0xAE5 PUSH2 0x2367 JUMP JUMPDEST AND DUP2 MSTORE PUSH1 0x11 DUP5 MSTORE KECCAK256 SLOAD SWAP1 MLOAD SWAP1 DUP2 MSTORE RETURN JUMPDEST SWAP2 SWAP1 POP CALLVALUE PUSH2 0x7AE JUMPI PUSH1 0x20 SWAP3 DUP4 PUSH1 0x3 NOT CALLDATASIZE ADD SLT PUSH2 0x48E JUMPI DUP3 CALLDATALOAD SWAP1 PUSH2 0xB16 PUSH2 0x2654 JUMP JUMPDEST PUSH2 0xB1E PUSH2 0x2615 JUMP JUMPDEST DUP2 ISZERO PUSH2 0xC5A JUMPI CALLER DUP2 MSTORE PUSH1 0x10 DUP6 MSTORE DUP3 DUP2 KECCAK256 SLOAD ISZERO PUSH2 0xC4B JUMPI DUP3 SWAP1 PUSH2 0xB3E PUSH2 0x27BC JUMP JUMPDEST PUSH1 0x5 SLOAD SWAP1 DUP2 PUSH2 0xC33 JUMPI POP POP DUP3 SWAP5 JUMPDEST PUSH2 0xB78 DUP5 ADDRESS CALLER PUSH32 0x0 PUSH2 0x2588 JUMP JUMPDEST CALLER DUP3 MSTORE DUP7 MSTORE DUP2 DUP2 KECCAK256 PUSH2 0xB8B DUP5 DUP3 SLOAD PUSH2 0x2565 JUMP JUMPDEST SWAP1 SSTORE CALLER DUP2 MSTORE PUSH1 0x6 DUP7 MSTORE DUP2 DUP2 KECCAK256 PUSH2 0xBA2 DUP7 DUP3 SLOAD PUSH2 0x2565 JUMP JUMPDEST SWAP1 SSTORE PUSH2 0xBB0 DUP6 PUSH1 0x5 SLOAD PUSH2 0x2565 JUMP JUMPDEST PUSH1 0x5 SSTORE PUSH2 0xBBF DUP4 PUSH1 0x2 SLOAD PUSH2 0x2565 JUMP JUMPDEST PUSH1 0x2 SSTORE CALLER DUP2 MSTORE PUSH1 0x14 DUP7 MSTORE KECCAK256 DUP1 SLOAD ISZERO PUSH2 0xC2A JUMPI JUMPDEST POP DUP2 MLOAD SWAP1 DUP2 MSTORE PUSH1 0x20 DUP2 ADD DUP4 SWAP1 MSTORE TIMESTAMP PUSH1 0x40 DUP3 ADD MSTORE CALLER SWAP1 PUSH32 0x91EDE45F04A37A7C170F5C1207DF3B6BC748DC1E04AD5E917A241D0F52FEADA3 SWAP1 DUP1 PUSH1 0x60 DUP2 ADD JUMPDEST SUB SWAP1 LOG2 PUSH1 0x1 PUSH1 0x0 DUP1 MLOAD PUSH1 0x20 PUSH2 0x2989 DUP4 CODECOPY DUP2 MLOAD SWAP2 MSTORE SSTORE MLOAD SWAP1 DUP2 MSTORE RETURN JUMPDEST TIMESTAMP SWAP1 SSTORE CODESIZE PUSH2 0xBD2 JUMP JUMPDEST PUSH2 0xC40 PUSH2 0xC45 SWAP3 DUP7 PUSH2 0x2748 JUMP JUMPDEST PUSH2 0x267F JUMP JUMPDEST SWAP5 PUSH2 0xB4C JUMP JUMPDEST POP POP MLOAD PUSH4 0xE960EA7D PUSH1 0xE0 SHL DUP2 MSTORE REVERT JUMPDEST POP POP MLOAD PUSH4 0xA76F80B PUSH1 0xE2 SHL DUP2 MSTORE REVERT JUMPDEST POP POP CALLVALUE PUSH2 0x39C JUMPI DUP2 PUSH1 0x3 NOT CALLDATASIZE ADD SLT PUSH2 0x39C JUMPI MLOAD PUSH32 0x0 PUSH1 0x1 PUSH1 0x1 PUSH1 0xA0 SHL SUB AND DUP2 MSTORE PUSH1 0x20 SWAP1 RETURN JUMPDEST POP POP CALLVALUE PUSH2 0x39C JUMPI DUP2 PUSH1 0x3 NOT CALLDATASIZE ADD SLT PUSH2 0x39C JUMPI MLOAD SWAP1 DUP2 MSTORE PUSH1 0x20 SWAP1 RETURN JUMPDEST SWAP2 SWAP1 POP CALLVALUE PUSH2 0x7AE JUMPI PUSH1 0x20 CALLDATASIZE PUSH1 0x3 NOT ADD SLT PUSH2 0x7AE JUMPI PUSH2 0xCE4 PUSH2 0x23F0 JUMP JUMPDEST DUP2 CALLDATALOAD DUP4 MSTORE PUSH1 0x9 PUSH1 0x20 MSTORE DUP1 DUP4 KECCAK256 DUP1 SLOAD PUSH1 0x1 PUSH1 0x1 PUSH1 0xA0 SHL SUB AND ISZERO PUSH2 0xD2B JUMPI DUP3 ADD SWAP2 DUP3 SLOAD SWAP2 PUSH1 0xFF DUP4 AND PUSH2 0xD1E JUMPI POP POP PUSH2 0xFF00 NOT AND PUSH2 0x100 OR SWAP1 SSTORE DUP1 RETURN JUMPDEST MLOAD PUSH4 0xAA7E8F75 PUSH1 0xE0 SHL DUP2 MSTORE REVERT JUMPDEST POP MLOAD PUSH4 0x39C38555 PUSH1 0xE2 SHL DUP2 MSTORE REVERT JUMPDEST POP POP CALLVALUE PUSH2 0x39C JUMPI PUSH1 0x20 CALLDATASIZE PUSH1 0x3 NOT ADD SLT PUSH2 0x39C JUMPI PUSH1 0x20 SWAP2 DUP2 SWAP1 PUSH1 0x1 PUSH1 0x1 PUSH1 0xA0 SHL SUB PUSH2 0xD61 PUSH2 0x2367 JUMP JUMPDEST AND DUP2 MSTORE PUSH1 0x1D DUP5 MSTORE KECCAK256 SLOAD SWAP1 MLOAD SWAP1 DUP2 MSTORE RETURN JUMPDEST POP POP CALLVALUE PUSH2 0x39C JUMPI DUP2 PUSH1 0x3 NOT CALLDATASIZE ADD SLT PUSH2 0x39C JUMPI PUSH1 0xB SLOAD SWAP1 MLOAD PUSH1 0x1 PUSH1 0x1 PUSH1 0xA0 SHL SUB SWAP1 SWAP2 AND DUP2 MSTORE PUSH1 0x20 SWAP1 RETURN JUMPDEST POP POP CALLVALUE PUSH2 0x39C JUMPI DUP2 PUSH1 0x3 NOT CALLDATASIZE ADD SLT PUSH2 0x39C JUMPI PUSH1 0x20 SWAP1 PUSH1 0x17 SLOAD SWAP1 MLOAD SWAP1 DUP2 MSTORE RETURN JUMPDEST POP POP CALLVALUE PUSH2 0x39C JUMPI PUSH1 0x20 CALLDATASIZE PUSH1 0x3 NOT ADD SLT PUSH2 0x39C JUMPI PUSH1 0x20 SWAP1 PUSH2 0x9BD PUSH2 0xDDA PUSH2 0x2367 JUMP JUMPDEST PUSH2 0x28C9 JUMP JUMPDEST SWAP1 POP CALLVALUE PUSH2 0x7AE JUMPI DUP2 PUSH1 0x3 NOT CALLDATASIZE ADD SLT PUSH2 0x7AE JUMPI DUP2 PUSH1 0x20 SWAP4 PUSH1 0xFF SWAP3 PUSH2 0xE00 PUSH2 0x2382 JUMP JUMPDEST SWAP1 CALLDATALOAD DUP3 MSTORE DUP2 DUP7 MSTORE DUP3 DUP3 KECCAK256 PUSH1 0x1 PUSH1 0x1 PUSH1 0xA0 SHL SUB SWAP1 SWAP2 AND DUP3 MSTORE DUP6 MSTORE KECCAK256 SLOAD SWAP2 MLOAD SWAP2 AND ISZERO ISZERO DUP2 MSTORE RETURN JUMPDEST SWAP2 SWAP1 POP CALLVALUE PUSH2 0x7AE JUMPI PUSH1 0x20 CALLDATASIZE PUSH1 0x3 NOT ADD SLT PUSH2 0x7AE JUMPI PUSH32 0x914A3237563E55580374C779B17C9122EE57BE033CD60A0295A7B78FCC827B1 SWAP2 CALLDATALOAD PUSH2 0xE64 PUSH2 0x23F0 JUMP JUMPDEST PUSH1 0xE SLOAD SWAP1 DUP1 PUSH1 0xE SSTORE DUP3 MLOAD SWAP2 DUP3 MSTORE PUSH1 0x20 DUP3 ADD MSTORE LOG1 DUP1 RETURN JUMPDEST SWAP1 POP CALLVALUE PUSH2 0x7AE JUMPI PUSH1 0x20 DUP1 PUSH1 0x3 NOT CALLDATASIZE ADD SLT PUSH2 0xFC3 JUMPI DUP2 CALLDATALOAD SWAP3 PUSH2 0xE99 PUSH2 0x2615 JUMP JUMPDEST DUP4 DUP6 MSTORE PUSH1 0x1E DUP3 MSTORE DUP1 DUP6 KECCAK256 CALLER DUP7 MSTORE DUP3 MSTORE PUSH1 0xFF DUP2 DUP7 KECCAK256 SLOAD AND PUSH2 0xFB4 JUMPI DUP4 DUP6 MSTORE PUSH1 0x1A DUP3 MSTORE DUP1 DUP6 KECCAK256 DUP1 SLOAD ISZERO PUSH2 0xFA4 JUMPI CALLER DUP7 MSTORE PUSH1 0x6 DUP4 MSTORE DUP2 DUP7 KECCAK256 SLOAD SWAP1 DUP2 ISZERO PUSH2 0xF94 JUMPI PUSH1 0x3 ADD SLOAD PUSH2 0xEE3 SWAP2 PUSH2 0x2748 JUMP JUMPDEST SWAP3 DUP4 ISZERO PUSH2 0xF86 JUMPI POP SWAP1 PUSH32 0xD7C563D212890F286485C6374BEBC365A4DBF84F5DE5F1774AAE4BEF0006B49F SWAP2 DUP5 DUP7 MSTORE PUSH1 0x1E DUP3 MSTORE DUP1 DUP7 KECCAK256 CALLER DUP8 MSTORE DUP3 MSTORE DUP1 DUP7 KECCAK256 PUSH1 0x1 PUSH1 0xFF NOT DUP3 SLOAD AND OR SWAP1 SSTORE PUSH1 0x1C DUP3 MSTORE DUP1 DUP7 KECCAK256 PUSH2 0xF3D DUP6 DUP3 SLOAD PUSH2 0x2565 JUMP JUMPDEST SWAP1 SSTORE PUSH2 0xF6A DUP5 CALLER PUSH32 0x0 PUSH2 0x275B JUMP JUMPDEST MLOAD SWAP3 DUP4 MSTORE CALLER SWAP3 LOG3 PUSH1 0x1 PUSH1 0x0 DUP1 MLOAD PUSH1 0x20 PUSH2 0x2989 DUP4 CODECOPY DUP2 MLOAD SWAP2 MSTORE SSTORE DUP1 RETURN JUMPDEST SWAP1 MLOAD PUSH4 0x48F9C27 PUSH1 0xE4 SHL DUP2 MSTORE REVERT JUMPDEST DUP3 MLOAD PUSH4 0x48F9C27 PUSH1 0xE4 SHL DUP2 MSTORE DUP6 SWAP1 REVERT JUMPDEST DUP2 MLOAD PUSH4 0x48F9C27 PUSH1 0xE4 SHL DUP2 MSTORE DUP5 SWAP1 REVERT JUMPDEST MLOAD PUSH4 0x48F9C27 PUSH1 0xE4 SHL DUP2 MSTORE SWAP1 POP REVERT JUMPDEST DUP4 DUP1 REVERT JUMPDEST DUP4 DUP4 CALLVALUE PUSH2 0x39C JUMPI DUP2 PUSH1 0x3 NOT CALLDATASIZE ADD SLT PUSH2 0x39C JUMPI PUSH2 0xFE1 PUSH2 0x23F0 JUMP JUMPDEST PUSH2 0xFE9 PUSH2 0x2615 JUMP JUMPDEST PUSH1 0x15 SLOAD SWAP1 DUP2 ISZERO PUSH2 0x1140 JUMPI PUSH2 0x100D PUSH2 0x2710 PUSH2 0x1005 PUSH1 0x19 SLOAD DUP6 PUSH2 0x2748 JUMP JUMPDEST DIV DUP1 SWAP4 PUSH2 0x2672 JUMP JUMPDEST DUP1 ISZERO PUSH2 0x1130 JUMPI PUSH1 0x5 SLOAD DUP1 ISZERO PUSH2 0x1120 JUMPI PUSH2 0x1026 SWAP1 DUP3 PUSH2 0x267F JUMP JUMPDEST PUSH1 0x1B SLOAD SWAP4 PUSH2 0x1033 DUP6 PUSH2 0x2645 JUMP JUMPDEST PUSH1 0x1B SSTORE DUP4 MLOAD PUSH1 0x80 DUP2 ADD DUP2 DUP2 LT PUSH8 0xFFFFFFFFFFFFFFFF DUP3 GT OR PUSH2 0x110D JUMPI SWAP2 DUP6 SWAP5 SWAP4 SWAP2 PUSH2 0x10F5 SWAP4 PUSH32 0x9040685CB8B833E5686B1C8402CCE4AA1146AC8048FF1E4DC1CFA17813F3618C SWAP8 MSTORE DUP5 DUP2 MSTORE PUSH1 0x3 PUSH1 0x20 DUP3 ADD DUP11 DUP2 MSTORE DUP8 DUP4 ADD TIMESTAMP DUP2 MSTORE PUSH1 0x60 DUP5 ADD SWAP2 DUP7 DUP4 MSTORE DUP12 DUP14 MSTORE PUSH1 0x1A PUSH1 0x20 MSTORE DUP10 DUP14 KECCAK256 SWAP5 MLOAD DUP6 SSTORE MLOAD PUSH1 0x1 DUP6 ADD SSTORE MLOAD PUSH1 0x2 DUP5 ADD SSTORE MLOAD SWAP2 ADD SSTORE PUSH2 0x10C0 DUP5 PUSH1 0x16 SLOAD PUSH2 0x2565 JUMP JUMPDEST PUSH1 0x16 SSTORE PUSH1 0x15 SSTORE TIMESTAMP PUSH1 0x18 SSTORE DUP6 DUP8 MSTORE PUSH1 0x1A PUSH1 0x20 MSTORE PUSH1 0x1 DUP5 DUP9 KECCAK256 ADD SLOAD SWAP4 MLOAD SWAP4 DUP5 SWAP4 DUP5 PUSH1 0x40 SWAP2 SWAP5 SWAP4 SWAP3 PUSH1 0x60 DUP3 ADD SWAP6 DUP3 MSTORE PUSH1 0x20 DUP3 ADD MSTORE ADD MSTORE JUMP JUMPDEST SUB SWAP1 LOG2 PUSH1 0x1 PUSH1 0x0 DUP1 MLOAD PUSH1 0x20 PUSH2 0x2989 DUP4 CODECOPY DUP2 MLOAD SWAP2 MSTORE SSTORE DUP1 RETURN JUMPDEST PUSH4 0x4E487B71 PUSH1 0xE0 SHL DUP9 MSTORE PUSH1 0x41 DUP10 MSTORE PUSH1 0x24 DUP9 REVERT JUMPDEST DUP3 MLOAD PUSH4 0x9CD02243 PUSH1 0xE0 SHL DUP2 MSTORE DUP7 SWAP1 REVERT JUMPDEST DUP2 MLOAD PUSH4 0x9CD02243 PUSH1 0xE0 SHL DUP2 MSTORE DUP6 SWAP1 REVERT JUMPDEST MLOAD PUSH4 0x9CD02243 PUSH1 0xE0 SHL DUP2 MSTORE DUP4 SWAP1 REVERT JUMPDEST POP POP CALLVALUE PUSH2 0x39C JUMPI DUP2 PUSH1 0x3 NOT CALLDATASIZE ADD SLT PUSH2 0x39C JUMPI PUSH1 0x20 PUSH32 0x62E78CEA01BEE320CD4E420270B5EA74000D11B0C9F74754EBDBFC544B05A258 SWAP2 PUSH2 0x118D PUSH2 0x2398 JUMP JUMPDEST PUSH2 0x1195 PUSH2 0x2654 JUMP JUMPDEST PUSH1 0x1 PUSH1 0xFF NOT DUP2 SLOAD AND OR PUSH1 0x1 SSTORE MLOAD CALLER DUP2 MSTORE LOG1 DUP1 RETURN JUMPDEST POP POP CALLVALUE PUSH2 0x39C JUMPI PUSH1 0x20 CALLDATASIZE PUSH1 0x3 NOT ADD SLT PUSH2 0x39C JUMPI PUSH1 0x20 SWAP2 DUP2 SWAP1 PUSH1 0x1 PUSH1 0x1 PUSH1 0xA0 SHL SUB PUSH2 0x11D1 PUSH2 0x2367 JUMP JUMPDEST AND DUP2 MSTORE PUSH1 0x12 DUP5 MSTORE KECCAK256 SLOAD SWAP1 MLOAD SWAP1 DUP2 MSTORE RETURN JUMPDEST POP POP CALLVALUE PUSH2 0x39C JUMPI PUSH1 0x20 CALLDATASIZE PUSH1 0x3 NOT ADD SLT PUSH2 0x39C JUMPI PUSH1 0x20 SWAP2 DUP2 SWAP1 PUSH1 0x1 PUSH1 0x1 PUSH1 0xA0 SHL SUB PUSH2 0x1209 PUSH2 0x2367 JUMP JUMPDEST AND DUP2 MSTORE PUSH1 0x13 DUP5 MSTORE KECCAK256 SLOAD SWAP1 MLOAD SWAP1 DUP2 MSTORE RETURN JUMPDEST POP POP CALLVALUE PUSH2 0x39C JUMPI PUSH1 0x20 CALLDATASIZE PUSH1 0x3 NOT ADD SLT PUSH2 0x39C JUMPI PUSH1 0x20 SWAP2 DUP2 SWAP1 PUSH1 0x1 PUSH1 0x1 PUSH1 0xA0 SHL SUB PUSH2 0x1241 PUSH2 0x2367 JUMP JUMPDEST AND DUP2 MSTORE PUSH1 0x1C DUP5 MSTORE KECCAK256 SLOAD SWAP1 MLOAD SWAP1 DUP2 MSTORE RETURN JUMPDEST POP POP CALLVALUE PUSH2 0x39C JUMPI DUP2 PUSH1 0x3 NOT CALLDATASIZE ADD SLT PUSH2 0x39C JUMPI PUSH1 0x20 SWAP1 PUSH1 0x7 SLOAD SWAP1 MLOAD SWAP1 DUP2 MSTORE RETURN JUMPDEST SWAP2 SWAP1 POP CALLVALUE PUSH2 0x7AE JUMPI PUSH1 0x20 DUP1 PUSH1 0x3 NOT CALLDATASIZE ADD SLT PUSH2 0xFC3 JUMPI PUSH1 0x1 PUSH1 0x1 PUSH1 0xA0 SHL SUB PUSH2 0x1295 PUSH2 0x2367 JUMP JUMPDEST AND DUP1 DUP6 MSTORE PUSH1 0x10 DUP3 MSTORE DUP3 DUP6 KECCAK256 SLOAD SWAP4 PUSH1 0x11 DUP4 MSTORE DUP4 DUP7 KECCAK256 SLOAD SWAP4 PUSH1 0x13 DUP5 MSTORE DUP1 DUP8 KECCAK256 SLOAD SWAP2 DUP2 MLOAD SWAP4 PUSH4 0x1DF687DD PUSH1 0xE2 SHL DUP6 MSTORE DUP1 DUP3 DUP7 ADD MSTORE DUP6 DUP6 PUSH1 0x24 DUP2 ADDRESS GAS STATICCALL SWAP5 DUP6 ISZERO PUSH2 0x134D JUMPI DUP10 SWAP6 PUSH2 0x131A JUMPI JUMPDEST POP SWAP8 DUP3 SWAP2 PUSH1 0xC0 SWAP10 DUP3 MSTORE DUP7 MSTORE KECCAK256 SLOAD SWAP5 PUSH2 0x12FD DUP2 PUSH2 0x12F8 DUP10 DUP10 PUSH2 0x2672 JUMP JUMPDEST PUSH2 0x2672 JUMP JUMPDEST SWAP5 DUP3 MLOAD SWAP8 DUP9 MSTORE DUP8 ADD MSTORE DUP6 ADD MSTORE PUSH1 0x60 DUP5 ADD MSTORE PUSH1 0x80 DUP4 ADD MSTORE PUSH1 0xA0 DUP3 ADD MSTORE RETURN JUMPDEST SWAP1 SWAP5 POP DUP6 DUP2 DUP2 RETURNDATASIZE DUP4 GT PUSH2 0x1346 JUMPI JUMPDEST PUSH2 0x1332 DUP2 DUP4 PUSH2 0x2710 JUMP JUMPDEST DUP2 ADD SUB SLT PUSH2 0x1342 JUMPI MLOAD SWAP4 DUP3 PUSH2 0x12DC JUMP JUMPDEST DUP9 DUP1 REVERT JUMPDEST POP RETURNDATASIZE PUSH2 0x1328 JUMP JUMPDEST DUP4 MLOAD RETURNDATASIZE DUP12 DUP3 RETURNDATACOPY RETURNDATASIZE SWAP1 REVERT JUMPDEST POP POP CALLVALUE PUSH2 0x39C JUMPI PUSH1 0x20 CALLDATASIZE PUSH1 0x3 NOT ADD SLT PUSH2 0x39C JUMPI PUSH1 0x20 SWAP1 PUSH2 0x9BD PUSH2 0x1378 PUSH2 0x2367 JUMP JUMPDEST PUSH2 0x269F JUMP JUMPDEST POP POP CALLVALUE PUSH2 0x39C JUMPI DUP2 PUSH1 0x3 NOT CALLDATASIZE ADD SLT PUSH2 0x39C JUMPI PUSH1 0x20 SWAP1 PUSH1 0x16 SLOAD SWAP1 MLOAD SWAP1 DUP2 MSTORE RETURN JUMPDEST SWAP2 SWAP1 POP CALLVALUE PUSH2 0x7AE JUMPI DUP1 PUSH1 0x3 NOT CALLDATASIZE ADD SLT PUSH2 0x7AE JUMPI PUSH2 0x13B7 PUSH2 0x2367 JUMP JUMPDEST SWAP2 PUSH1 0x24 SWAP3 DUP4 CALLDATALOAD SWAP3 PUSH2 0x13C6 PUSH2 0x2398 JUMP JUMPDEST DUP1 MLOAD PUSH4 0x95EA7B3 PUSH1 0xE0 SHL DUP1 DUP9 MSTORE PUSH1 0x1 PUSH1 0x1 PUSH1 0xA0 SHL SUB SWAP4 DUP5 AND DUP1 DUP7 MSTORE DUP7 DUP9 MSTORE SWAP1 SWAP6 PUSH32 0x0 SWAP4 SWAP3 SWAP1 SWAP2 SWAP1 PUSH1 0x20 DUP11 PUSH1 0x44 DUP2 DUP1 DUP10 GAS CALL PUSH1 0x1 DUP12 MLOAD EQ DUP2 AND ISZERO PUSH2 0x14F3 JUMPI JUMPDEST DUP2 DUP6 MSTORE ISZERO PUSH2 0x142F JUMPI DUP10 DUP1 RETURN JUMPDEST DUP8 DUP11 MSTORE DUP2 DUP8 MSTORE DUP10 DUP10 MSTORE PUSH1 0x20 DUP11 PUSH1 0x44 DUP2 DUP1 DUP10 GAS CALL PUSH1 0x1 DUP12 MLOAD EQ DUP2 AND ISZERO PUSH2 0x14D4 JUMPI JUMPDEST DUP2 DUP6 MSTORE ISZERO PUSH2 0x14BE JUMPI POP DUP3 MLOAD SWAP7 DUP10 MSTORE DUP6 MSTORE DUP7 MSTORE DUP5 PUSH1 0x20 DUP9 PUSH1 0x44 DUP2 DUP1 DUP8 GAS CALL SWAP2 PUSH1 0x1 DUP10 MLOAD EQ DUP4 AND ISZERO PUSH2 0x1499 JUMPI JUMPDEST MSTORE ISZERO PUSH2 0x1488 JUMPI DUP1 DUP1 DUP1 DUP1 DUP10 DUP1 RETURN JUMPDEST PUSH4 0x5274AFE7 PUSH1 0xE0 SHL DUP5 MSTORE AND SWAP1 DUP3 ADD MSTORE REVERT JUMPDEST SWAP2 SWAP1 POP PUSH1 0x1 DUP2 ISZERO AND PUSH2 0x14B5 JUMPI DUP6 SWAP1 DUP4 EXTCODESIZE ISZERO ISZERO RETURNDATASIZE ISZERO AND AND SWAP2 PUSH2 0x147A JUMP JUMPDEST DUP6 RETURNDATASIZE DUP10 DUP3 RETURNDATACOPY RETURNDATASIZE SWAP1 REVERT JUMPDEST SWAP7 POP POP POP POP PUSH4 0x5274AFE7 PUSH1 0xE0 SHL DUP5 MSTORE AND SWAP1 DUP3 ADD MSTORE REVERT JUMPDEST PUSH1 0x1 DUP2 ISZERO AND PUSH2 0x14EA JUMPI DUP6 EXTCODESIZE ISZERO ISZERO RETURNDATASIZE ISZERO AND AND PUSH2 0x144F JUMP JUMPDEST POP RETURNDATASIZE DUP11 DUP3 RETURNDATACOPY RETURNDATASIZE SWAP1 REVERT JUMPDEST DUP6 EXTCODESIZE ISZERO ISZERO RETURNDATASIZE ISZERO AND AND PUSH2 0x1423 JUMP JUMPDEST POP POP CALLVALUE PUSH2 0x39C JUMPI PUSH1 0x20 CALLDATASIZE PUSH1 0x3 NOT ADD SLT PUSH2 0x39C JUMPI PUSH1 0x20 SWAP2 DUP2 SWAP1 PUSH1 0x1 PUSH1 0x1 PUSH1 0xA0 SHL SUB PUSH2 0x1528 PUSH2 0x2367 JUMP JUMPDEST AND DUP2 MSTORE PUSH1 0x10 DUP5 MSTORE KECCAK256 SLOAD SWAP1 MLOAD SWAP1 DUP2 MSTORE RETURN JUMPDEST POP POP CALLVALUE PUSH2 0x39C JUMPI DUP2 PUSH1 0x3 NOT CALLDATASIZE ADD SLT PUSH2 0x39C JUMPI PUSH1 0x20 SWAP1 PUSH2 0x9BD PUSH2 0x27BC JUMP JUMPDEST POP POP CALLVALUE PUSH2 0x39C JUMPI PUSH1 0x20 CALLDATASIZE PUSH1 0x3 NOT ADD SLT PUSH2 0x39C JUMPI PUSH1 0x20 SWAP2 DUP2 SWAP1 PUSH1 0x1 PUSH1 0x1 PUSH1 0xA0 SHL SUB PUSH2 0x157D PUSH2 0x2367 JUMP JUMPDEST AND DUP2 MSTORE PUSH1 0x14 DUP5 MSTORE KECCAK256 SLOAD SWAP1 MLOAD SWAP1 DUP2 MSTORE RETURN JUMPDEST POP POP CALLVALUE PUSH2 0x39C JUMPI DUP2 PUSH1 0x3 NOT CALLDATASIZE ADD SLT PUSH2 0x39C JUMPI PUSH1 0x20 SWAP1 PUSH1 0x1B SLOAD SWAP1 MLOAD SWAP1 DUP2 MSTORE RETURN JUMPDEST POP POP CALLVALUE PUSH2 0x39C JUMPI DUP2 PUSH1 0x3 NOT CALLDATASIZE ADD SLT PUSH2 0x39C JUMPI PUSH1 0x20 SWAP1 PUSH1 0xFF PUSH1 0x1 SLOAD AND SWAP1 MLOAD SWAP1 ISZERO ISZERO DUP2 MSTORE RETURN JUMPDEST POP POP CALLVALUE PUSH2 0x39C JUMPI PUSH1 0x20 CALLDATASIZE PUSH1 0x3 NOT ADD SLT PUSH2 0x39C JUMPI PUSH1 0x20 SWAP1 PUSH2 0x9BD PUSH2 0x15F1 PUSH2 0x2367 JUMP JUMPDEST PUSH2 0x2895 JUMP JUMPDEST POP POP CALLVALUE PUSH2 0x39C JUMPI DUP2 PUSH1 0x3 NOT CALLDATASIZE ADD SLT PUSH2 0x39C JUMPI PUSH1 0x20 SWAP1 PUSH1 0x3 SLOAD SWAP1 MLOAD SWAP1 DUP2 MSTORE RETURN JUMPDEST POP POP CALLVALUE PUSH2 0x39C JUMPI DUP2 PUSH1 0x3 NOT CALLDATASIZE ADD SLT PUSH2 0x39C JUMPI PUSH1 0x20 SWAP1 PUSH1 0xA SLOAD SWAP1 MLOAD SWAP1 DUP2 MSTORE RETURN JUMPDEST POP POP CALLVALUE PUSH2 0x39C JUMPI DUP2 PUSH1 0x3 NOT CALLDATASIZE ADD SLT PUSH2 0x39C JUMPI PUSH1 0x20 SWAP1 PUSH1 0xD SLOAD SWAP1 MLOAD SWAP1 DUP2 MSTORE RETURN JUMPDEST SWAP2 SWAP1 POP CALLVALUE PUSH2 0x7AE JUMPI PUSH1 0x20 CALLDATASIZE PUSH1 0x3 NOT ADD SLT PUSH2 0x7AE JUMPI PUSH32 0xB06A54CAABE58475C86C2BF9DF3F2F06DD1213E9E10659C293117FE4893B274B SWAP2 CALLDATALOAD PUSH2 0x1692 PUSH2 0x2398 JUMP JUMPDEST PUSH1 0x7 SLOAD SWAP1 DUP1 PUSH1 0x7 SSTORE DUP3 MLOAD SWAP2 DUP3 MSTORE PUSH1 0x20 DUP3 ADD MSTORE LOG1 DUP1 RETURN JUMPDEST POP POP CALLVALUE PUSH2 0x39C JUMPI DUP2 PUSH1 0x3 NOT CALLDATASIZE ADD SLT PUSH2 0x39C JUMPI PUSH1 0x20 SWAP1 MLOAD PUSH4 0x77359400 DUP2 MSTORE RETURN JUMPDEST SWAP1 POP CALLVALUE PUSH2 0x7AE JUMPI DUP3 PUSH1 0x3 NOT CALLDATASIZE ADD SLT PUSH2 0x7AE JUMPI PUSH2 0x16E1 PUSH2 0x2398 JUMP JUMPDEST PUSH1 0x1 SLOAD SWAP1 PUSH1 0xFF DUP3 AND ISZERO PUSH2 0x1723 JUMPI POP PUSH1 0xFF NOT AND PUSH1 0x1 SSTORE MLOAD CALLER DUP2 MSTORE PUSH32 0x5DB9EE0A495BF2E6FF9C91A7834C1BA4FDD244A5E8AA4E537BD38AEAE4B073AA SWAP1 PUSH1 0x20 SWAP1 LOG1 DUP1 RETURN JUMPDEST DUP3 MLOAD PUSH4 0x8DFC202B PUSH1 0xE0 SHL DUP2 MSTORE REVERT JUMPDEST SWAP2 SWAP1 POP CALLVALUE PUSH2 0x7AE JUMPI PUSH1 0x20 CALLDATASIZE PUSH1 0x3 NOT ADD SLT PUSH2 0x7AE JUMPI DUP2 CALLDATALOAD SWAP2 DUP3 DUP5 MSTORE PUSH1 0x9 PUSH1 0x20 MSTORE DUP2 DUP5 KECCAK256 SWAP1 PUSH1 0x1 DUP1 PUSH1 0xA0 SHL SUB DUP3 SLOAD AND SWAP2 DUP3 ISZERO PUSH2 0x17EB JUMPI DUP2 ADD SWAP3 DUP4 SLOAD SWAP3 PUSH1 0xFF DUP5 AND PUSH2 0x17DD JUMPI CALLER EQ ISZERO DUP1 PUSH2 0x17BF JUMPI JUMPDEST PUSH2 0x17B2 JUMPI POP POP PUSH1 0xFF NOT AND PUSH1 0x1 OR SWAP1 SSTORE PUSH32 0xA93F6F41ED8BCE52035A13F24C08D4175A9F0B44C1F94A6D9B6B64304F64A865 DUP3 DUP1 LOG2 DUP1 RETURN JUMPDEST MLOAD PUSH4 0x39C38555 PUSH1 0xE2 SHL DUP2 MSTORE REVERT JUMPDEST POP DUP6 DUP1 MSTORE DUP6 PUSH1 0x20 MSTORE DUP1 DUP7 KECCAK256 CALLER DUP8 MSTORE PUSH1 0x20 MSTORE PUSH1 0xFF DUP2 DUP8 KECCAK256 SLOAD AND ISZERO PUSH2 0x177C JUMP JUMPDEST POP MLOAD PUSH4 0xAA7E8F75 PUSH1 0xE0 SHL DUP2 MSTORE REVERT JUMPDEST POP DUP3 MLOAD PUSH4 0x39C38555 PUSH1 0xE2 SHL DUP2 MSTORE REVERT JUMPDEST POP POP CALLVALUE PUSH2 0x39C JUMPI DUP2 PUSH1 0x3 NOT CALLDATASIZE ADD SLT PUSH2 0x39C JUMPI PUSH1 0x20 SWAP1 PUSH1 0xE SLOAD SWAP1 MLOAD SWAP1 DUP2 MSTORE RETURN JUMPDEST POP POP CALLVALUE PUSH2 0x39C JUMPI DUP2 PUSH1 0x3 NOT CALLDATASIZE ADD SLT PUSH2 0x39C JUMPI PUSH1 0x20 SWAP1 PUSH1 0x5 SLOAD SWAP1 MLOAD SWAP1 DUP2 MSTORE RETURN JUMPDEST POP POP CALLVALUE PUSH2 0x39C JUMPI DUP2 PUSH1 0x3 NOT CALLDATASIZE ADD SLT PUSH2 0x39C JUMPI PUSH1 0x20 SWAP1 MLOAD PUSH32 0x899BD46557473CB80307A9DABC297131CED39608330A2D29B2D52B660C03923E DUP2 MSTORE RETURN JUMPDEST DUP4 DUP4 CALLVALUE PUSH2 0x39C JUMPI DUP1 PUSH1 0x3 NOT CALLDATASIZE ADD SLT PUSH2 0x39C JUMPI PUSH2 0x188D PUSH2 0x2382 JUMP JUMPDEST SWAP1 CALLER PUSH1 0x1 PUSH1 0x1 PUSH1 0xA0 SHL SUB DUP4 AND SUB PUSH2 0x18AA JUMPI POP PUSH2 0x7ED SWAP2 SWAP3 CALLDATALOAD PUSH2 0x24F0 JUMP JUMPDEST MLOAD PUSH4 0x334BD919 PUSH1 0xE1 SHL DUP2 MSTORE DUP4 SWAP1 REVERT JUMPDEST SWAP2 SWAP1 POP CALLVALUE PUSH2 0x7AE JUMPI PUSH1 0x60 CALLDATASIZE PUSH1 0x3 NOT ADD SLT PUSH2 0x7AE JUMPI PUSH2 0x18D5 PUSH2 0x2367 JUMP JUMPDEST PUSH1 0x24 CALLDATALOAD SWAP1 PUSH1 0x44 CALLDATALOAD PUSH8 0xFFFFFFFFFFFFFFFF SWAP2 DUP3 DUP3 GT PUSH2 0x1A6F JUMPI CALLDATASIZE PUSH1 0x23 DUP4 ADD SLT ISZERO PUSH2 0x1A6F JUMPI DUP2 DUP7 ADD CALLDATALOAD SWAP3 DUP4 GT PUSH2 0x1A6F JUMPI CALLDATASIZE PUSH1 0x24 DUP5 DUP5 ADD ADD GT PUSH2 0x1A6F JUMPI PUSH2 0x1917 PUSH2 0x23F0 JUMP JUMPDEST PUSH2 0x191F PUSH2 0x2615 JUMP JUMPDEST PUSH1 0x1 PUSH1 0x1 PUSH1 0xA0 SHL SUB DUP2 DUP2 AND SWAP7 DUP8 ISZERO PUSH2 0x1A61 JUMPI DUP6 ISZERO PUSH2 0x1A53 JUMPI PUSH1 0x24 PUSH1 0x20 PUSH32 0x0 SWAP4 DUP10 MLOAD SWAP3 DUP4 DUP1 SWAP3 PUSH4 0x70A08231 PUSH1 0xE0 SHL DUP3 MSTORE ADDRESS DUP8 DUP4 ADD MSTORE DUP8 AND GAS STATICCALL SWAP1 DUP2 ISZERO PUSH2 0x1A49 JUMPI SWAP1 DUP8 SWAP2 DUP12 SWAP2 PUSH2 0x1A11 JUMPI JUMPDEST POP LT PUSH2 0x1A03 JUMPI POP SWAP3 PUSH1 0x24 DUP6 SWAP4 PUSH2 0x19C3 PUSH32 0xAD5A7CCB9051F94D2D3944962BE58F792D6562271BAE0EA41677D55C2D5885CD SWAP9 SWAP8 DUP5 SWAP6 PUSH1 0x60 SWAP9 PUSH2 0x275B JUMP JUMPDEST DUP3 DUP8 MLOAD SWAP8 DUP9 SWAP7 DUP8 MSTORE DUP1 PUSH1 0x20 DUP9 ADD MSTORE DUP7 ADD MSTORE ADD DUP5 DUP5 ADD CALLDATACOPY DUP2 DUP2 ADD DUP4 ADD DUP8 SWAP1 MSTORE PUSH1 0x1F ADD PUSH1 0x1F NOT AND DUP2 ADD SUB ADD SWAP1 LOG2 PUSH1 0x1 PUSH1 0x0 DUP1 MLOAD PUSH1 0x20 PUSH2 0x2989 DUP4 CODECOPY DUP2 MLOAD SWAP2 MSTORE SSTORE DUP1 RETURN JUMPDEST DUP7 MLOAD PUSH4 0x44DD002F PUSH1 0xE1 SHL DUP2 MSTORE REVERT JUMPDEST SWAP2 POP POP PUSH1 0x20 DUP2 RETURNDATASIZE DUP3 GT PUSH2 0x1A41 JUMPI JUMPDEST DUP2 PUSH2 0x1A2C PUSH1 0x20 SWAP4 DUP4 PUSH2 0x2710 JUMP JUMPDEST DUP2 ADD SUB SLT PUSH2 0x1A3D JUMPI DUP7 SWAP1 MLOAD CODESIZE PUSH2 0x1987 JUMP JUMPDEST DUP10 DUP1 REVERT JUMPDEST RETURNDATASIZE SWAP2 POP PUSH2 0x1A1F JUMP JUMPDEST DUP9 MLOAD RETURNDATASIZE DUP13 DUP3 RETURNDATACOPY RETURNDATASIZE SWAP1 REVERT JUMPDEST DUP7 MLOAD PUSH4 0xA76F80B PUSH1 0xE2 SHL DUP2 MSTORE REVERT JUMPDEST DUP7 MLOAD PUSH4 0x22FE8FC7 PUSH1 0xE2 SHL DUP2 MSTORE REVERT JUMPDEST DUP7 DUP1 REVERT JUMPDEST DUP3 DUP5 CALLVALUE PUSH2 0x48E JUMPI PUSH1 0x20 SWAP2 DUP3 PUSH1 0x3 NOT CALLDATASIZE ADD SLT PUSH2 0x39C JUMPI PUSH2 0x1A90 PUSH2 0x2367 JUMP JUMPDEST PUSH1 0x1B SLOAD SWAP1 DUP4 SWAP1 PUSH1 0x1 PUSH1 0x1 PUSH1 0xA0 SHL SUB AND DUP2 JUMPDEST DUP4 DUP2 LT PUSH2 0x1AB2 JUMPI POP POP POP POP MLOAD SWAP1 DUP2 MSTORE RETURN JUMPDEST DUP1 DUP4 MSTORE PUSH1 0x1E DUP8 MSTORE DUP5 DUP4 KECCAK256 DUP3 DUP5 MSTORE DUP8 MSTORE PUSH1 0xFF DUP6 DUP5 KECCAK256 SLOAD AND ISZERO DUP1 PUSH2 0x1B17 JUMPI JUMPDEST PUSH2 0x1AE2 JUMPI JUMPDEST PUSH2 0x1ADD SWAP1 PUSH2 0x2645 JUMP JUMPDEST PUSH2 0x1AA1 JUMP JUMPDEST SWAP5 PUSH2 0x1B0F PUSH2 0x1ADD SWAP2 PUSH1 0x6 DUP10 MSTORE PUSH2 0x1B09 DUP8 DUP7 KECCAK256 SLOAD DUP10 DUP8 MSTORE PUSH1 0x1A DUP12 MSTORE PUSH1 0x3 DUP10 DUP9 KECCAK256 ADD SLOAD SWAP1 PUSH2 0x2748 JUMP JUMPDEST SWAP1 PUSH2 0x2565 JUMP JUMPDEST SWAP6 SWAP1 POP PUSH2 0x1AD4 JUMP JUMPDEST POP PUSH1 0x6 DUP8 MSTORE DUP5 DUP4 KECCAK256 SLOAD ISZERO ISZERO PUSH2 0x1ACF JUMP JUMPDEST SWAP2 SWAP1 POP CALLVALUE PUSH2 0x7AE JUMPI DUP1 PUSH1 0x3 NOT CALLDATASIZE ADD SLT PUSH2 0x7AE JUMPI PUSH2 0x7ED SWAP2 CALLDATALOAD PUSH2 0x1B4C PUSH1 0x1 PUSH2 0x7D7 PUSH2 0x2382 JUMP JUMPDEST PUSH2 0x2472 JUMP JUMPDEST DUP4 DUP4 CALLVALUE PUSH2 0x39C JUMPI PUSH1 0x20 SWAP3 DUP4 PUSH1 0x3 NOT CALLDATASIZE ADD SLT PUSH2 0x7AE JUMPI DUP1 CALLDATALOAD SWAP3 PUSH2 0x1B71 PUSH2 0x2654 JUMP JUMPDEST PUSH2 0x1B79 PUSH2 0x2615 JUMP JUMPDEST DUP4 ISZERO PUSH2 0x1CDA JUMPI PUSH1 0x7 SLOAD DUP5 LT ISZERO PUSH2 0x1CCB JUMPI CALLER DUP2 MSTORE DUP2 DUP6 MSTORE DUP4 DUP4 DUP3 KECCAK256 SLOAD LT PUSH2 0x1CBC JUMPI CALLER DUP2 MSTORE DUP2 DUP6 MSTORE PUSH2 0x1BC8 PUSH2 0x1BB7 DUP5 DUP4 KECCAK256 SLOAD PUSH1 0x10 DUP9 MSTORE DUP6 DUP5 KECCAK256 SLOAD SWAP1 PUSH2 0x2672 JUMP JUMPDEST CALLER DUP4 MSTORE PUSH1 0x11 DUP8 MSTORE DUP5 DUP4 KECCAK256 SLOAD SWAP1 PUSH2 0x2672 JUMP JUMPDEST DUP5 GT PUSH2 0x1CBC JUMPI PUSH2 0x1BE5 PUSH2 0x1BD9 PUSH2 0x27BC JUMP JUMPDEST PUSH2 0xC40 PUSH1 0x5 SLOAD DUP8 PUSH2 0x2748 JUMP JUMPDEST SWAP2 CALLER DUP3 MSTORE PUSH1 0x6 DUP7 MSTORE DUP3 DUP5 DUP4 KECCAK256 SLOAD LT PUSH2 0x1CAE JUMPI SWAP1 DUP4 SWAP2 CALLER DUP3 MSTORE DUP7 MSTORE DUP2 DUP2 KECCAK256 PUSH2 0x1C0D DUP7 DUP3 SLOAD PUSH2 0x2672 JUMP JUMPDEST SWAP1 SSTORE CALLER DUP2 MSTORE PUSH1 0x6 DUP7 MSTORE KECCAK256 PUSH2 0x1C22 DUP3 DUP3 SLOAD PUSH2 0x2672 JUMP JUMPDEST SWAP1 SSTORE PUSH2 0x1C30 DUP2 PUSH1 0x5 SLOAD PUSH2 0x2672 JUMP JUMPDEST PUSH1 0x5 SSTORE PUSH2 0x1C3F DUP4 PUSH1 0x3 SLOAD PUSH2 0x2565 JUMP JUMPDEST PUSH1 0x3 SSTORE PUSH2 0x1C6D DUP4 CALLER PUSH32 0x0 PUSH2 0x275B JUMP JUMPDEST DUP2 MLOAD DUP4 DUP2 MSTORE PUSH1 0x20 DUP2 ADD SWAP2 SWAP1 SWAP2 MSTORE TIMESTAMP PUSH1 0x40 DUP3 ADD MSTORE CALLER SWAP1 PUSH32 0x75E161B3E824B114FC1A33274BD7091918DD4E639CEDE50B78B15A4EEA956A21 SWAP1 DUP1 PUSH1 0x60 DUP2 ADD PUSH2 0xC0F JUMP JUMPDEST DUP4 MLOAD PUSH4 0xA1AAECA5 PUSH1 0xE0 SHL DUP2 MSTORE REVERT JUMPDEST POP SWAP1 MLOAD PUSH4 0x44DD002F PUSH1 0xE1 SHL DUP2 MSTORE REVERT JUMPDEST POP SWAP1 MLOAD PUSH4 0x9293B47F PUSH1 0xE0 SHL DUP2 MSTORE REVERT JUMPDEST POP SWAP1 MLOAD PUSH4 0xA76F80B PUSH1 0xE2 SHL DUP2 MSTORE REVERT JUMPDEST SWAP1 POP CALLVALUE PUSH2 0x7AE JUMPI PUSH1 0x20 CALLDATASIZE PUSH1 0x3 NOT ADD SLT PUSH2 0x7AE JUMPI PUSH2 0x1D04 PUSH2 0x2367 JUMP JUMPDEST SWAP1 PUSH2 0x1D0D PUSH2 0x2398 JUMP JUMPDEST PUSH1 0x1 PUSH1 0x1 PUSH1 0xA0 SHL SUB SWAP2 DUP3 AND SWAP3 DUP4 ISZERO PUSH2 0x1D6E JUMPI PUSH1 0xC SLOAD SWAP3 DUP4 AND PUSH2 0x1D61 JUMPI POP POP PUSH1 0x1 PUSH1 0x1 PUSH1 0xA0 SHL SUB NOT AND DUP2 OR PUSH1 0xC SSTORE PUSH32 0x2EDE59EDE14FC8A452F4D9C602AFEF004380E4A5BF668B99CA6580878A80A5C DUP3 DUP1 LOG2 DUP1 RETURN JUMPDEST MLOAD PUSH4 0xD4A77941 PUSH1 0xE0 SHL DUP2 MSTORE REVERT JUMPDEST MLOAD PUSH4 0x22FE8FC7 PUSH1 0xE2 SHL DUP2 MSTORE REVERT JUMPDEST SWAP2 SWAP1 POP CALLVALUE PUSH2 0x7AE JUMPI PUSH1 0x20 CALLDATASIZE PUSH1 0x3 NOT ADD SLT PUSH2 0x7AE JUMPI PUSH32 0x3E9CAC94B7C7DB9B86DF56321E6F7E3E88A6C87FC15FD825DF1492CF69E33551 SWAP2 CALLDATALOAD PUSH2 0x1DBA PUSH2 0x2398 JUMP JUMPDEST PUSH1 0x8 SLOAD SWAP1 DUP1 PUSH1 0x8 SSTORE DUP3 MLOAD SWAP2 DUP3 MSTORE PUSH1 0x20 DUP3 ADD MSTORE LOG1 DUP1 RETURN JUMPDEST DUP4 DUP4 CALLVALUE PUSH2 0x39C JUMPI PUSH1 0x20 SWAP3 DUP4 PUSH1 0x3 NOT CALLDATASIZE ADD SLT PUSH2 0x7AE JUMPI PUSH2 0x1DED PUSH2 0x2367 JUMP JUMPDEST DUP3 MLOAD PUSH4 0x1DF687DD PUSH1 0xE2 SHL DUP2 MSTORE PUSH1 0x1 PUSH1 0x1 PUSH1 0xA0 SHL SUB SWAP1 SWAP2 AND SWAP2 DUP2 ADD SWAP2 SWAP1 SWAP2 MSTORE DUP4 DUP2 PUSH1 0x24 DUP2 ADDRESS GAS STATICCALL SWAP3 DUP4 ISZERO PUSH2 0x1E5C JUMPI DUP1 SWAP4 PUSH2 0x1E2A JUMPI JUMPDEST POP POP MLOAD SWAP1 ISZERO DUP2 MSTORE RETURN JUMPDEST SWAP1 SWAP2 SWAP3 POP DUP4 DUP3 DUP2 RETURNDATASIZE DUP4 GT PUSH2 0x1E55 JUMPI JUMPDEST PUSH2 0x1E43 DUP2 DUP4 PUSH2 0x2710 JUMP JUMPDEST DUP2 ADD SUB SLT PUSH2 0x48E JUMPI POP MLOAD SWAP1 DUP4 DUP1 PUSH2 0x1E21 JUMP JUMPDEST POP RETURNDATASIZE PUSH2 0x1E39 JUMP JUMPDEST DUP3 MLOAD SWAP1 RETURNDATASIZE SWAP1 DUP3 RETURNDATACOPY RETURNDATASIZE SWAP1 REVERT JUMPDEST DUP4 DUP4 CALLVALUE PUSH2 0x39C JUMPI PUSH1 0x20 CALLDATASIZE PUSH1 0x3 NOT ADD SLT PUSH2 0x39C JUMPI DUP3 CALLDATALOAD SWAP1 PUSH2 0x1E85 PUSH2 0x2654 JUMP JUMPDEST PUSH2 0x1E8D PUSH2 0x2615 JUMP JUMPDEST DUP2 DUP4 MSTORE PUSH1 0x9 PUSH1 0x20 MSTORE DUP1 DUP4 KECCAK256 DUP1 SLOAD PUSH1 0x1 PUSH1 0x1 PUSH1 0xA0 SHL SUB SWAP1 DUP2 AND SWAP6 SWAP2 DUP7 ISZERO PUSH2 0x1FF1 JUMPI DUP3 DUP2 ADD DUP1 SLOAD PUSH1 0xFF DUP2 AND PUSH2 0x1FE1 JUMPI PUSH1 0x8 SHR PUSH1 0xFF AND ISZERO PUSH2 0x1FD1 JUMPI PUSH1 0x3 DUP3 ADD SLOAD TIMESTAMP LT PUSH2 0x1FC1 JUMPI PUSH2 0x1F4F PUSH32 0xD6CDDB3D69146E96EBC2C87B1B3DD0B20EE2D3B0EADF134E011AFB434A3E56E6 SWAP7 SWAP8 SWAP9 PUSH2 0x1EFF PUSH2 0x27BC JUMP JUMPDEST PUSH1 0x1 DUP6 ADD SWAP7 PUSH2 0x1F16 DUP9 SLOAD SWAP3 PUSH2 0xC40 PUSH1 0x5 SLOAD DUP6 PUSH2 0x2748 JUMP JUMPDEST SWAP3 DUP13 MSTORE PUSH1 0x20 MSTORE PUSH2 0x1F2A DUP9 DUP13 KECCAK256 SWAP2 DUP3 SLOAD PUSH2 0x2672 JUMP JUMPDEST SWAP1 SSTORE DUP5 DUP5 SLOAD AND DUP11 MSTORE PUSH1 0x6 PUSH1 0x20 MSTORE DUP7 DUP11 KECCAK256 PUSH2 0x1F45 DUP3 DUP3 SLOAD PUSH2 0x2672 JUMP JUMPDEST SWAP1 SSTORE PUSH1 0x5 SLOAD PUSH2 0x2672 JUMP JUMPDEST PUSH1 0x5 SSTORE PUSH2 0x1F5F DUP5 SLOAD PUSH1 0x3 SLOAD PUSH2 0x2565 JUMP JUMPDEST PUSH1 0x3 SSTORE DUP1 SLOAD PUSH1 0xFF NOT AND PUSH1 0x1 OR SWAP1 SSTORE DUP1 SLOAD DUP4 SLOAD PUSH2 0x1F9D SWAP2 DUP5 AND PUSH32 0x0 PUSH2 0x275B JUMP JUMPDEST SLOAD AND SWAP1 SLOAD DUP3 MLOAD SWAP2 DUP3 MSTORE PUSH1 0x20 DUP3 ADD MSTORE LOG2 PUSH1 0x1 PUSH1 0x0 DUP1 MLOAD PUSH1 0x20 PUSH2 0x2989 DUP4 CODECOPY DUP2 MLOAD SWAP2 MSTORE SSTORE DUP1 RETURN JUMPDEST DUP5 MLOAD PUSH4 0x41927EB7 PUSH1 0xE0 SHL DUP2 MSTORE DUP5 SWAP1 REVERT JUMPDEST DUP5 MLOAD PUSH4 0x7D7982DB PUSH1 0xE1 SHL DUP2 MSTORE DUP5 SWAP1 REVERT JUMPDEST DUP6 MLOAD PUSH4 0xAA7E8F75 PUSH1 0xE0 SHL DUP2 MSTORE DUP6 SWAP1 REVERT JUMPDEST DUP4 MLOAD PUSH4 0x39C38555 PUSH1 0xE2 SHL DUP2 MSTORE DUP4 SWAP1 REVERT JUMPDEST SWAP1 POP CALLVALUE PUSH2 0x7AE JUMPI PUSH1 0x20 CALLDATASIZE PUSH1 0x3 NOT ADD SLT PUSH2 0x7AE JUMPI DUP2 PUSH1 0x20 SWAP4 PUSH1 0x1 SWAP3 CALLDATALOAD DUP2 MSTORE DUP1 DUP6 MSTORE KECCAK256 ADD SLOAD SWAP1 MLOAD SWAP1 DUP2 MSTORE RETURN JUMPDEST SWAP1 POP CALLVALUE PUSH2 0x7AE JUMPI DUP3 PUSH1 0x3 NOT CALLDATASIZE ADD SLT PUSH2 0x7AE JUMPI PUSH2 0x2045 PUSH2 0x2615 JUMP JUMPDEST PUSH2 0x204D PUSH2 0x2654 JUMP JUMPDEST CALLER DUP4 MSTORE PUSH1 0x20 SWAP1 PUSH1 0x10 DUP3 MSTORE DUP3 DUP5 KECCAK256 SLOAD ISZERO PUSH2 0x2143 JUMPI PUSH32 0x991DEE3B52711C23609EC310AE0DDC55C442C1B66A269403AA45E5A59BFD90EC SWAP2 PUSH2 0x10F5 SWAP2 PUSH2 0x20B4 PUSH1 0xE SLOAD ADDRESS CALLER PUSH32 0x0 PUSH2 0x2588 JUMP JUMPDEST PUSH1 0xE SLOAD CALLER DUP8 MSTORE PUSH1 0x11 DUP4 MSTORE PUSH2 0x20CC DUP7 DUP9 KECCAK256 SWAP2 DUP3 SLOAD PUSH2 0x2565 JUMP JUMPDEST SWAP1 SSTORE CALLER DUP7 MSTORE PUSH1 0x13 DUP3 MSTORE DUP5 DUP7 KECCAK256 PUSH2 0x20E2 DUP2 SLOAD PUSH2 0x2645 JUMP JUMPDEST SWAP1 SSTORE CALLER DUP7 MSTORE PUSH1 0x12 DUP3 MSTORE TIMESTAMP DUP6 DUP8 KECCAK256 SSTORE PUSH1 0xE SLOAD SWAP1 DUP3 MSTORE PUSH2 0x2104 DUP6 DUP8 KECCAK256 SWAP2 DUP3 SLOAD PUSH2 0x2565 JUMP JUMPDEST SWAP1 SSTORE PUSH1 0x13 PUSH1 0xE SLOAD SWAP2 PUSH2 0x2118 DUP4 PUSH1 0x2 SLOAD PUSH2 0x2565 JUMP JUMPDEST PUSH1 0x2 SSTORE CALLER DUP8 MSTORE MSTORE DUP4 DUP6 KECCAK256 SLOAD SWAP4 MLOAD SWAP2 DUP3 SWAP2 CALLER SWAP6 TIMESTAMP SWAP2 DUP5 PUSH1 0x40 SWAP2 SWAP5 SWAP4 SWAP3 PUSH1 0x60 DUP3 ADD SWAP6 DUP3 MSTORE PUSH1 0x20 DUP3 ADD MSTORE ADD MSTORE JUMP JUMPDEST DUP3 MLOAD PUSH4 0xE960EA7D PUSH1 0xE0 SHL DUP2 MSTORE REVERT JUMPDEST POP POP CALLVALUE PUSH2 0x39C JUMPI DUP2 PUSH1 0x3 NOT CALLDATASIZE ADD SLT PUSH2 0x39C JUMPI PUSH1 0x20 SWAP1 PUSH1 0x8 SLOAD SWAP1 MLOAD SWAP1 DUP2 MSTORE RETURN JUMPDEST SWAP2 SWAP1 POP CALLVALUE PUSH2 0x7AE JUMPI PUSH1 0x20 CALLDATASIZE PUSH1 0x3 NOT ADD SLT PUSH2 0x7AE JUMPI PUSH32 0xEBF421625E332BD4D46DEBF00EB86541652EB65F512EB937E06E3BA623DB5D08 SWAP2 CALLDATALOAD PUSH2 0x21AF PUSH2 0x23F0 JUMP JUMPDEST PUSH1 0xD SLOAD SWAP1 DUP1 PUSH1 0xD SSTORE DUP3 MLOAD SWAP2 DUP3 MSTORE PUSH1 0x20 DUP3 ADD MSTORE LOG1 DUP1 RETURN JUMPDEST POP POP CALLVALUE PUSH2 0x39C JUMPI DUP2 PUSH1 0x3 NOT CALLDATASIZE ADD SLT PUSH2 0x39C JUMPI PUSH1 0x20 SWAP1 PUSH1 0xF SLOAD SWAP1 MLOAD SWAP1 DUP2 MSTORE RETURN JUMPDEST POP POP CALLVALUE PUSH2 0x39C JUMPI DUP2 PUSH1 0x3 NOT CALLDATASIZE ADD SLT PUSH2 0x39C JUMPI PUSH1 0x20 SWAP1 PUSH1 0x19 SLOAD SWAP1 MLOAD SWAP1 DUP2 MSTORE RETURN JUMPDEST POP POP CALLVALUE PUSH2 0x39C JUMPI PUSH1 0x20 CALLDATASIZE PUSH1 0x3 NOT ADD SLT PUSH2 0x39C JUMPI PUSH1 0x20 SWAP1 PUSH1 0xFF PUSH2 0x222B PUSH2 0x2226 PUSH2 0x2367 JUMP JUMPDEST PUSH2 0x2949 JUMP JUMPDEST SWAP2 MLOAD SWAP2 AND DUP2 MSTORE RETURN JUMPDEST POP POP CALLVALUE PUSH2 0x39C JUMPI DUP2 PUSH1 0x3 NOT CALLDATASIZE ADD SLT PUSH2 0x39C JUMPI PUSH1 0x20 SWAP1 MLOAD PUSH4 0x1DCD6500 DUP2 MSTORE RETURN JUMPDEST SWAP1 POP CALLVALUE PUSH2 0x7AE JUMPI PUSH1 0x20 CALLDATASIZE PUSH1 0x3 NOT ADD SLT PUSH2 0x7AE JUMPI PUSH1 0x80 SWAP3 DUP3 SWAP2 CALLDATALOAD DUP2 MSTORE PUSH1 0x1A PUSH1 0x20 MSTORE KECCAK256 SWAP1 DUP2 SLOAD SWAP2 PUSH1 0x1 DUP2 ADD SLOAD SWAP2 PUSH1 0x3 PUSH1 0x2 DUP4 ADD SLOAD SWAP3 ADD SLOAD SWAP3 DUP2 MLOAD SWAP5 DUP6 MSTORE PUSH1 0x20 DUP6 ADD MSTORE DUP4 ADD MSTORE PUSH1 0x60 DUP3 ADD MSTORE RETURN JUMPDEST SWAP1 POP CALLVALUE PUSH2 0x7AE JUMPI PUSH1 0x20 CALLDATASIZE PUSH1 0x3 NOT ADD SLT PUSH2 0x7AE JUMPI PUSH2 0x22B7 PUSH2 0x2367 JUMP JUMPDEST SWAP1 PUSH2 0x22C0 PUSH2 0x2398 JUMP JUMPDEST PUSH1 0x1 PUSH1 0x1 PUSH1 0xA0 SHL SUB SWAP2 DUP3 AND SWAP3 DUP4 ISZERO PUSH2 0x1D6E JUMPI PUSH1 0xB SLOAD SWAP3 DUP4 AND PUSH2 0x1D61 JUMPI POP POP PUSH1 0x1 PUSH1 0x1 PUSH1 0xA0 SHL SUB NOT AND DUP2 OR PUSH1 0xB SSTORE PUSH32 0xA07C91C183E42229E705A9795A1C06D76528B673788B849597364528C96EEFB7 DUP3 DUP1 LOG2 DUP1 RETURN JUMPDEST DUP5 SWAP2 CALLVALUE PUSH2 0x7AE JUMPI PUSH1 0x20 CALLDATASIZE PUSH1 0x3 NOT ADD SLT PUSH2 0x7AE JUMPI CALLDATALOAD PUSH4 0xFFFFFFFF PUSH1 0xE0 SHL DUP2 AND DUP1 SWAP2 SUB PUSH2 0x7AE JUMPI PUSH1 0x20 SWAP3 POP PUSH4 0x7965DB0B PUSH1 0xE0 SHL DUP2 EQ SWAP1 DUP2 ISZERO PUSH2 0x2356 JUMPI JUMPDEST POP ISZERO ISZERO DUP2 MSTORE RETURN JUMPDEST PUSH4 0x1FFC9A7 PUSH1 0xE0 SHL EQ SWAP1 POP DUP4 PUSH2 0x234F JUMP JUMPDEST PUSH1 0x4 CALLDATALOAD SWAP1 PUSH1 0x1 PUSH1 0x1 PUSH1 0xA0 SHL SUB DUP3 AND DUP3 SUB PUSH2 0x237D JUMPI JUMP JUMPDEST PUSH1 0x0 DUP1 REVERT JUMPDEST PUSH1 0x24 CALLDATALOAD SWAP1 PUSH1 0x1 PUSH1 0x1 PUSH1 0xA0 SHL SUB DUP3 AND DUP3 SUB PUSH2 0x237D JUMPI JUMP JUMPDEST CALLER PUSH1 0x0 SWAP1 DUP2 MSTORE PUSH32 0xAD3228B676F7D3CD4284A5443F17F1962B36E491B30A40B2405849E597BA5FB5 PUSH1 0x20 MSTORE PUSH1 0x40 DUP2 KECCAK256 SLOAD PUSH1 0xFF AND ISZERO PUSH2 0x23D2 JUMPI POP JUMP JUMPDEST PUSH1 0x44 SWAP1 PUSH1 0x40 MLOAD SWAP1 PUSH4 0xE2517D3F PUSH1 0xE0 SHL DUP3 MSTORE CALLER PUSH1 0x4 DUP4 ADD MSTORE PUSH1 0x24 DUP3 ADD MSTORE REVERT JUMPDEST CALLER PUSH1 0x0 SWAP1 DUP2 MSTORE PUSH32 0xFB5B4225F7C0B188EFBC1B7193AF901F1A98349314DE629B98C0655CF2304637 PUSH1 0x20 MSTORE PUSH1 0x40 SWAP1 KECCAK256 SLOAD PUSH32 0x899BD46557473CB80307A9DABC297131CED39608330A2D29B2D52B660C03923E SWAP1 PUSH1 0xFF AND ISZERO PUSH2 0x23D2 JUMPI POP JUMP JUMPDEST DUP1 PUSH1 0x0 MSTORE PUSH1 0x0 PUSH1 0x20 MSTORE PUSH1 0x40 PUSH1 0x0 KECCAK256 CALLER PUSH1 0x0 MSTORE PUSH1 0x20 MSTORE PUSH1 0xFF PUSH1 0x40 PUSH1 0x0 KECCAK256 SLOAD AND ISZERO PUSH2 0x23D2 JUMPI POP JUMP JUMPDEST SWAP1 PUSH1 0x0 SWAP2 DUP1 DUP4 MSTORE DUP3 PUSH1 0x20 MSTORE PUSH1 0x40 DUP4 KECCAK256 SWAP2 PUSH1 0x1 DUP1 PUSH1 0xA0 SHL SUB AND SWAP2 DUP3 DUP5 MSTORE PUSH1 0x20 MSTORE PUSH1 0xFF PUSH1 0x40 DUP5 KECCAK256 SLOAD AND ISZERO PUSH1 0x0 EQ PUSH2 0x24EB JUMPI DUP1 DUP4 MSTORE DUP3 PUSH1 0x20 MSTORE PUSH1 0x40 DUP4 KECCAK256 DUP3 DUP5 MSTORE PUSH1 0x20 MSTORE PUSH1 0x40 DUP4 KECCAK256 PUSH1 0x1 PUSH1 0xFF NOT DUP3 SLOAD AND OR SWAP1 SSTORE PUSH32 0x2F8788117E7EFF1D82E926EC794901D17C78024A50270940304540A733656F0D CALLER SWAP4 DUP1 LOG4 PUSH1 0x1 SWAP1 JUMP JUMPDEST POP POP SWAP1 JUMP JUMPDEST SWAP1 PUSH1 0x0 SWAP2 DUP1 DUP4 MSTORE DUP3 PUSH1 0x20 MSTORE PUSH1 0x40 DUP4 KECCAK256 SWAP2 PUSH1 0x1 DUP1 PUSH1 0xA0 SHL SUB AND SWAP2 DUP3 DUP5 MSTORE PUSH1 0x20 MSTORE PUSH1 0xFF PUSH1 0x40 DUP5 KECCAK256 SLOAD AND PUSH1 0x0 EQ PUSH2 0x24EB JUMPI DUP1 DUP4 MSTORE DUP3 PUSH1 0x20 MSTORE PUSH1 0x40 DUP4 KECCAK256 DUP3 DUP5 MSTORE PUSH1 0x20 MSTORE PUSH1 0x40 DUP4 KECCAK256 PUSH1 0xFF NOT DUP2 SLOAD AND SWAP1 SSTORE PUSH32 0xF6391F5C32D9C69D2A47EA670B442974B53935D1EDC7FD64EB21E047A839171B CALLER SWAP4 DUP1 LOG4 PUSH1 0x1 SWAP1 JUMP JUMPDEST SWAP2 SWAP1 DUP3 ADD DUP1 SWAP3 GT PUSH2 0x2572 JUMPI JUMP JUMPDEST PUSH4 0x4E487B71 PUSH1 0xE0 SHL PUSH1 0x0 MSTORE PUSH1 0x11 PUSH1 0x4 MSTORE PUSH1 0x24 PUSH1 0x0 REVERT JUMPDEST PUSH1 0x40 MLOAD PUSH4 0x23B872DD PUSH1 0xE0 SHL PUSH1 0x0 SWAP1 DUP2 MSTORE PUSH1 0x1 PUSH1 0x1 PUSH1 0xA0 SHL SUB SWAP4 DUP5 AND PUSH1 0x4 MSTORE SWAP4 DUP4 AND PUSH1 0x24 MSTORE PUSH1 0x44 SWAP5 SWAP1 SWAP5 MSTORE SWAP1 SWAP2 PUSH1 0x20 SWAP1 PUSH1 0x64 DUP2 DUP1 DUP6 GAS CALL PUSH1 0x1 PUSH1 0x0 MLOAD EQ DUP2 AND ISZERO PUSH2 0x25F5 JUMPI JUMPDEST DUP4 PUSH1 0x40 MSTORE PUSH1 0x0 PUSH1 0x60 MSTORE ISZERO PUSH2 0x25DF JUMPI POP POP POP JUMP JUMPDEST PUSH4 0x5274AFE7 PUSH1 0xE0 SHL DUP4 MSTORE AND PUSH1 0x4 DUP3 ADD MSTORE PUSH1 0x24 SWAP2 POP REVERT JUMPDEST PUSH1 0x1 DUP2 ISZERO AND PUSH2 0x260B JUMPI DUP2 EXTCODESIZE ISZERO ISZERO RETURNDATASIZE ISZERO AND AND PUSH2 0x25CC JUMP JUMPDEST DUP4 RETURNDATASIZE PUSH1 0x0 DUP3 RETURNDATACOPY RETURNDATASIZE SWAP1 REVERT JUMPDEST PUSH1 0x0 DUP1 MLOAD PUSH1 0x20 PUSH2 0x2989 DUP4 CODECOPY DUP2 MLOAD SWAP2 MSTORE PUSH1 0x2 DUP2 SLOAD EQ PUSH2 0x2633 JUMPI PUSH1 0x2 SWAP1 SSTORE JUMP JUMPDEST PUSH1 0x40 MLOAD PUSH4 0x3EE5AEB5 PUSH1 0xE0 SHL DUP2 MSTORE PUSH1 0x4 SWAP1 REVERT JUMPDEST PUSH1 0x0 NOT DUP2 EQ PUSH2 0x2572 JUMPI PUSH1 0x1 ADD SWAP1 JUMP JUMPDEST PUSH1 0xFF PUSH1 0x1 SLOAD AND PUSH2 0x2660 JUMPI JUMP JUMPDEST PUSH1 0x40 MLOAD PUSH4 0xD93C0665 PUSH1 0xE0 SHL DUP2 MSTORE PUSH1 0x4 SWAP1 REVERT JUMPDEST SWAP2 SWAP1 DUP3 SUB SWAP2 DUP3 GT PUSH2 0x2572 JUMPI JUMP JUMPDEST DUP2 ISZERO PUSH2 0x2689 JUMPI DIV SWAP1 JUMP JUMPDEST PUSH4 0x4E487B71 PUSH1 0xE0 SHL PUSH1 0x0 MSTORE PUSH1 0x12 PUSH1 0x4 MSTORE PUSH1 0x24 PUSH1 0x0 REVERT JUMPDEST PUSH1 0x1 PUSH1 0x1 PUSH1 0xA0 SHL SUB AND PUSH1 0x0 DUP2 DUP2 MSTORE PUSH1 0x10 PUSH1 0x20 MSTORE PUSH1 0x40 DUP2 KECCAK256 SLOAD SWAP1 SWAP2 SWAP1 ISZERO PUSH2 0x270C JUMPI PUSH1 0x14 PUSH1 0x20 MSTORE PUSH1 0x40 DUP3 KECCAK256 SLOAD DUP1 ISZERO PUSH2 0x24EB JUMPI PUSH2 0x26DC PUSH2 0x26E5 SWAP2 TIMESTAMP PUSH2 0x2672 JUMP JUMPDEST PUSH1 0xF SLOAD SWAP1 PUSH2 0x267F JUMP JUMPDEST SWAP1 DUP3 MSTORE PUSH1 0x13 PUSH1 0x20 MSTORE PUSH1 0x40 DUP3 KECCAK256 SLOAD SWAP1 DUP2 DUP2 GT PUSH2 0x26FF JUMPI POP POP SWAP1 JUMP JUMPDEST PUSH2 0x2709 SWAP3 POP PUSH2 0x2672 JUMP JUMPDEST SWAP1 JUMP JUMPDEST POP SWAP1 JUMP JUMPDEST SWAP1 PUSH1 0x1F DUP1 NOT SWAP2 ADD AND DUP2 ADD SWAP1 DUP2 LT PUSH8 0xFFFFFFFFFFFFFFFF DUP3 GT OR PUSH2 0x2732 JUMPI PUSH1 0x40 MSTORE JUMP JUMPDEST PUSH4 0x4E487B71 PUSH1 0xE0 SHL PUSH1 0x0 MSTORE PUSH1 0x41 PUSH1 0x4 MSTORE PUSH1 0x24 PUSH1 0x0 REVERT JUMPDEST DUP2 DUP2 MUL SWAP3 SWAP2 DUP2 ISZERO SWAP2 DUP5 DIV EQ OR ISZERO PUSH2 0x2572 JUMPI JUMP JUMPDEST PUSH1 0x40 MLOAD PUSH4 0xA9059CBB PUSH1 0xE0 SHL PUSH1 0x0 SWAP1 DUP2 MSTORE PUSH1 0x1 PUSH1 0x1 PUSH1 0xA0 SHL SUB SWAP4 DUP5 AND PUSH1 0x4 MSTORE PUSH1 0x24 SWAP5 SWAP1 SWAP5 MSTORE SWAP3 PUSH1 0x20 SWAP1 PUSH1 0x44 DUP2 DUP1 DUP6 GAS CALL PUSH1 0x1 PUSH1 0x0 MLOAD EQ DUP2 AND ISZERO PUSH2 0x27A6 JUMPI JUMPDEST DUP4 PUSH1 0x40 MSTORE ISZERO PUSH2 0x25DF JUMPI POP POP POP JUMP JUMPDEST PUSH1 0x1 DUP2 ISZERO AND PUSH2 0x260B JUMPI DUP2 EXTCODESIZE ISZERO ISZERO RETURNDATASIZE ISZERO AND AND PUSH2 0x2798 JUMP JUMPDEST PUSH1 0x40 MLOAD PUSH4 0x70A08231 PUSH1 0xE0 SHL DUP2 MSTORE ADDRESS PUSH1 0x4 DUP3 ADD MSTORE PUSH1 0x20 DUP2 PUSH1 0x24 DUP2 PUSH32 0x0 PUSH1 0x1 PUSH1 0x1 PUSH1 0xA0 SHL SUB AND GAS STATICCALL SWAP1 DUP2 ISZERO PUSH2 0x2841 JUMPI PUSH1 0x0 SWAP2 PUSH2 0x2813 JUMPI POP SWAP1 JUMP JUMPDEST SWAP1 PUSH1 0x20 DUP3 RETURNDATASIZE DUP3 GT PUSH2 0x2839 JUMPI JUMPDEST DUP2 PUSH2 0x282C PUSH1 0x20 SWAP4 DUP4 PUSH2 0x2710 JUMP JUMPDEST DUP2 ADD SUB SLT PUSH2 0x48E JUMPI POP MLOAD SWAP1 JUMP JUMPDEST RETURNDATASIZE SWAP2 POP PUSH2 0x281F JUMP JUMPDEST PUSH1 0x40 MLOAD RETURNDATASIZE PUSH1 0x0 DUP3 RETURNDATACOPY RETURNDATASIZE SWAP1 REVERT JUMPDEST PUSH1 0x5 SLOAD SWAP1 DUP2 ISZERO PUSH2 0x288E JUMPI PUSH1 0x1 PUSH1 0x1 PUSH1 0xA0 SHL SUB AND PUSH1 0x0 SWAP1 DUP2 MSTORE PUSH1 0x6 PUSH1 0x20 MSTORE PUSH1 0x40 SWAP1 KECCAK256 SLOAD PUSH2 0x2710 DUP1 DUP3 MUL SWAP3 SWAP2 DUP1 ISZERO SWAP1 DUP5 DIV SWAP1 SWAP2 EQ OR ISZERO PUSH2 0x2572 JUMPI PUSH2 0x2709 SWAP2 PUSH2 0x267F JUMP JUMPDEST POP POP PUSH1 0x0 SWAP1 JUMP JUMPDEST PUSH1 0x5 SLOAD DUP1 ISZERO PUSH2 0x288E JUMPI PUSH2 0x2709 SWAP2 PUSH1 0x1 DUP1 PUSH1 0xA0 SHL SUB AND PUSH1 0x0 MSTORE PUSH1 0x6 PUSH1 0x20 MSTORE PUSH2 0xC40 PUSH1 0x40 PUSH1 0x0 KECCAK256 SLOAD PUSH2 0x28C3 PUSH2 0x27BC JUMP JUMPDEST SWAP1 PUSH2 0x2748 JUMP JUMPDEST PUSH1 0x1 PUSH1 0x1 PUSH1 0xA0 SHL SUB AND PUSH1 0x0 SWAP1 DUP2 MSTORE PUSH1 0x4 PUSH1 0x20 MSTORE PUSH1 0x40 DUP2 KECCAK256 SLOAD DUP1 ISZERO PUSH2 0x270C JUMPI DUP2 PUSH1 0x14 PUSH1 0x20 MSTORE PUSH1 0x40 DUP2 KECCAK256 SLOAD DUP1 PUSH2 0x2930 JUMPI JUMPDEST POP PUSH1 0xA DUP4 MUL SWAP3 DUP1 DUP5 DIV PUSH1 0xA EQ SWAP1 ISZERO OR ISZERO PUSH2 0x291C JUMPI POP SWAP1 PUSH3 0xF4240 PUSH2 0x2709 SWAP3 DIV PUSH2 0x2565 JUMP JUMPDEST PUSH4 0x4E487B71 PUSH1 0xE0 SHL DUP2 MSTORE PUSH1 0x11 PUSH1 0x4 MSTORE PUSH1 0x24 SWAP1 REVERT JUMPDEST PUSH3 0x278D00 SWAP2 SWAP4 POP PUSH2 0x2941 SWAP1 TIMESTAMP PUSH2 0x2672 JUMP JUMPDEST DIV SWAP2 CODESIZE PUSH2 0x28F8 JUMP JUMPDEST PUSH1 0x1 PUSH1 0x1 PUSH1 0xA0 SHL SUB AND PUSH1 0x0 SWAP1 DUP2 MSTORE PUSH1 0x4 PUSH1 0x20 MSTORE PUSH1 0x40 SWAP1 KECCAK256 SLOAD PUSH4 0x77359400 DUP2 LT ISZERO PUSH2 0x2982 JUMPI PUSH4 0x1DCD6500 GT ISZERO PUSH2 0x297D JUMPI PUSH1 0x1 SWAP1 JUMP JUMPDEST PUSH1 0x2 SWAP1 JUMP JUMPDEST POP PUSH1 0x3 SWAP1 JUMP INVALID SWAP12 PUSH24 0x9B17422D0DF92223018B32B4D1FA46E071723D6817E2486D STOP EXTCODESIZE 0xEC 0xC5 PUSH0 STOP LOG2 PUSH5 0x6970667358 0x22 SLT KECCAK256 0x2E SIGNEXTEND EXTCODESIZE SWAP5 0xEE 0xAE PUSH16 0x987DBC58C890025730FD9960D2E172DD CREATE SWAP12 BALANCE 0xFC 0xEE SWAP7 0x4B DUP7 DUP4 PUSH5 0x736F6C6343 STOP ADDMOD EQ STOP CALLER 0x2F DUP8 DUP9 GT PUSH31 0x7EFF1D82E926EC794901D17C78024A50270940304540A733656F0D00000000 "},"methodIdentifiers":{"DEFAULT_ADMIN_ROLE()":"a217fddf","GOVERN_ROLE()":"38b7f446","LOAN_ROLE()":"ec4bbb4d","TIER2_THRESHOLD()":"086d2c87","TIER3_THRESHOLD()":"42dfac72","TREASURER_ROLE()":"f0a3a97c","accumulatedRevenue()":"ffacef08","approveUSDCSpending(address,uint256)":"763163e7","approveWithdrawal(uint256)":"9eceddea","cancelWithdrawal(uint256)":"3efcfda4","claimSHU(uint256)":"907dc9a9","contributionScore(address)":"923231ff","contributions(address)":"42e94c90","deposit(uint256)":"b6b55f25","distributeSHU()":"84734ebd","emergencyWithdraw(address,address,uint256)":"e63ea408","executeWithdrawal(uint256)":"24f13a76","firstDepositTime(address)":"6cb7c6f9","getContributionTier(address)":"0961f8bc","getMemberBalance(address)":"ca55753a","getMemberSharePercent(address)":"c3f5124d","getMemberValue(address)":"51b07047","getPendingSHU(address)":"2f591297","getPendingWithdrawal(uint256)":"38a3c878","getRoleAdmin(bytes32)":"248a9ca3","getSimpananSummary(address)":"78fcb156","getSimpananWajibPeriodsOwed(address)":"77da1f74","getTotalAssets()":"6e07302b","governanceSpend(address,uint256,bytes)":"340bc08b","grantRole(bytes32,address)":"2f2ff15d","hasPaidSimpananPokok(address)":"de08e743","hasRole(bytes32,address)":"91d14854","isSimpananWajibCurrent(address)":"28f3597e","lakomiGovern()":"df817a71","lakomiToken()":"94822925","lastSHUDistribution()":"d153c8bd","nextWithdrawalId()":"4a9122e3","operationalReserveBps()":"0b6d22bb","pause()":"8456cb59","paused()":"5c975abb","paySimpananPokok(address)":"cecb394f","paySimpananWajib()":"201785d6","pendingWithdrawals(uint256)":"e6150400","receiveRevenue(uint256)":"bd4ebf37","renounceRole(bytes32,address)":"36568abe","requestWithdrawal(address,uint256)":"da95ebf7","revokeRole(bytes32,address)":"d547741f","setLakomiGovern(address)":"2c4fbd2d","setLakomiToken(address)":"075e9c58","setOperationalReserveBps(uint256)":"d82c363f","setSimpananPokokAmount(uint256)":"193b9eca","setSimpananWajibAmount(uint256)":"91a608aa","setWithdrawalThreshold(uint256)":"4786b0cb","setWithdrawalTimelock(uint256)":"2934ce47","shares(address)":"ce7c2ac2","shuClaimed(address)":"7f071c7c","shuClaimedForDistribution(uint256,address)":"beaa838f","shuDistributionCount()":"697b0047","shuDistributionPeriod()":"944470c2","shuDistributions(uint256)":"0835c201","shuPending(address)":"9c530b24","simpananPokok(address)":"6f11ca15","simpananPokokAmount()":"49cf6147","simpananWajibAmount()":"3b56ad44","simpananWajibLastPaid(address)":"8144a447","simpananWajibPeriod()":"18aefba4","simpananWajibPeriodsPaid(address)":"803d7823","simpananWajibTotal(address)":"bb47859b","stableToken()":"a9d75b2b","supportsInterface(bytes4)":"01ffc9a7","totalDeposited()":"ff50abdc","totalSHUDistributed()":"7698325f","totalShares()":"3a98ef39","totalWithdrawn()":"4b319713","unpause()":"3f4ba83a","withdraw(uint256)":"2e1a7d4d","withdrawalThreshold()":"7985fd51","withdrawalTimelock()":"1e27970f"}}}}}