{"contracts/LakomiToken.sol":{"LakomiToken":{"abi":[{"inputs":[],"stateMutability":"nonpayable","type":"constructor"},{"inputs":[],"name":"AccessControlBadConfirmation","type":"error"},{"inputs":[{"internalType":"address","name":"account","type":"address"},{"internalType":"bytes32","name":"neededRole","type":"bytes32"}],"name":"AccessControlUnauthorizedAccount","type":"error"},{"inputs":[{"internalType":"address","name":"spender","type":"address"},{"internalType":"uint256","name":"allowance","type":"uint256"},{"internalType":"uint256","name":"needed","type":"uint256"}],"name":"ERC20InsufficientAllowance","type":"error"},{"inputs":[{"internalType":"address","name":"sender","type":"address"},{"internalType":"uint256","name":"balance","type":"uint256"},{"internalType":"uint256","name":"needed","type":"uint256"}],"name":"ERC20InsufficientBalance","type":"error"},{"inputs":[{"internalType":"address","name":"approver","type":"address"}],"name":"ERC20InvalidApprover","type":"error"},{"inputs":[{"internalType":"address","name":"receiver","type":"address"}],"name":"ERC20InvalidReceiver","type":"error"},{"inputs":[{"internalType":"address","name":"sender","type":"address"}],"name":"ERC20InvalidSender","type":"error"},{"inputs":[{"internalType":"address","name":"spender","type":"address"}],"name":"ERC20InvalidSpender","type":"error"},{"inputs":[],"name":"LakomiToken__AlreadySet","type":"error"},{"inputs":[],"name":"LakomiToken__ExceedsMaxSupply","type":"error"},{"inputs":[],"name":"LakomiToken__InsufficientBalance","type":"error"},{"inputs":[],"name":"LakomiToken__InsufficientUnlockedTokens","type":"error"},{"inputs":[],"name":"LakomiToken__NothingToUnlock","type":"error"},{"inputs":[],"name":"LakomiToken__TransfersDisabled","type":"error"},{"inputs":[],"name":"LakomiToken__ZeroAddress","type":"error"},{"inputs":[],"name":"ReentrancyGuardReentrantCall","type":"error"},{"anonymous":false,"inputs":[{"indexed":true,"internalType":"address","name":"owner","type":"address"},{"indexed":true,"internalType":"address","name":"spender","type":"address"},{"indexed":false,"internalType":"uint256","name":"value","type":"uint256"}],"name":"Approval","type":"event"},{"anonymous":false,"inputs":[{"indexed":true,"internalType":"address","name":"govern","type":"address"}],"name":"GovernSet","type":"event"},{"anonymous":false,"inputs":[{"indexed":true,"internalType":"address","name":"loans","type":"address"}],"name":"LoansSet","type":"event"},{"anonymous":false,"inputs":[{"indexed":true,"internalType":"address","name":"member","type":"address"},{"indexed":false,"internalType":"uint256","name":"timestamp","type":"uint256"}],"name":"MemberRegistered","type":"event"},{"anonymous":false,"inputs":[{"indexed":true,"internalType":"address","name":"member","type":"address"},{"indexed":false,"internalType":"uint256","name":"timestamp","type":"uint256"}],"name":"MembershipRevoked","type":"event"},{"anonymous":false,"inputs":[{"indexed":true,"internalType":"bytes32","name":"role","type":"bytes32"},{"indexed":true,"internalType":"bytes32","name":"previousAdminRole","type":"bytes32"},{"indexed":true,"internalType":"bytes32","name":"newAdminRole","type":"bytes32"}],"name":"RoleAdminChanged","type":"event"},{"anonymous":false,"inputs":[{"indexed":true,"internalType":"bytes32","name":"role","type":"bytes32"},{"indexed":true,"internalType":"address","name":"account","type":"address"},{"indexed":true,"internalType":"address","name":"sender","type":"address"}],"name":"RoleGranted","type":"event"},{"anonymous":false,"inputs":[{"indexed":true,"internalType":"bytes32","name":"role","type":"bytes32"},{"indexed":true,"internalType":"address","name":"account","type":"address"},{"indexed":true,"internalType":"address","name":"sender","type":"address"}],"name":"RoleRevoked","type":"event"},{"anonymous":false,"inputs":[{"indexed":true,"internalType":"address","name":"from","type":"address"},{"indexed":false,"internalType":"uint256","name":"amount","type":"uint256"},{"indexed":false,"internalType":"uint256","name":"timestamp","type":"uint256"}],"name":"TokensBurned","type":"event"},{"anonymous":false,"inputs":[{"indexed":true,"internalType":"address","name":"account","type":"address"},{"indexed":false,"internalType":"uint256","name":"amount","type":"uint256"},{"indexed":false,"internalType":"uint256","name":"timestamp","type":"uint256"}],"name":"TokensLocked","type":"event"},{"anonymous":false,"inputs":[{"indexed":true,"internalType":"address","name":"to","type":"address"},{"indexed":false,"internalType":"uint256","name":"amount","type":"uint256"},{"indexed":false,"internalType":"uint256","name":"timestamp","type":"uint256"}],"name":"TokensMinted","type":"event"},{"anonymous":false,"inputs":[{"indexed":true,"internalType":"address","name":"account","type":"address"},{"indexed":false,"internalType":"uint256","name":"amount","type":"uint256"},{"indexed":false,"internalType":"uint256","name":"timestamp","type":"uint256"}],"name":"TokensUnlocked","type":"event"},{"anonymous":false,"inputs":[{"indexed":true,"internalType":"address","name":"from","type":"address"},{"indexed":true,"internalType":"address","name":"to","type":"address"},{"indexed":false,"internalType":"uint256","name":"value","type":"uint256"}],"name":"Transfer","type":"event"},{"anonymous":false,"inputs":[{"indexed":false,"internalType":"bool","name":"enabled","type":"bool"},{"indexed":true,"internalType":"address","name":"by","type":"address"}],"name":"TransfersToggled","type":"event"},{"anonymous":false,"inputs":[{"indexed":true,"internalType":"address","name":"vault","type":"address"}],"name":"VaultSet","type":"event"},{"inputs":[],"name":"BURNER_ROLE","outputs":[{"internalType":"bytes32","name":"","type":"bytes32"}],"stateMutability":"view","type":"function"},{"inputs":[],"name":"DEFAULT_ADMIN_ROLE","outputs":[{"internalType":"bytes32","name":"","type":"bytes32"}],"stateMutability":"view","type":"function"},{"inputs":[],"name":"DEFAULT_MINT_AMOUNT","outputs":[{"internalType":"uint256","name":"","type":"uint256"}],"stateMutability":"view","type":"function"},{"inputs":[],"name":"LOCKER_ROLE","outputs":[{"internalType":"bytes32","name":"","type":"bytes32"}],"stateMutability":"view","type":"function"},{"inputs":[],"name":"MAX_SUPPLY","outputs":[{"internalType":"uint256","name":"","type":"uint256"}],"stateMutability":"view","type":"function"},{"inputs":[],"name":"MEMBERSHIP_ROLE","outputs":[{"internalType":"bytes32","name":"","type":"bytes32"}],"stateMutability":"view","type":"function"},{"inputs":[],"name":"MINTER_ROLE","outputs":[{"internalType":"bytes32","name":"","type":"bytes32"}],"stateMutability":"view","type":"function"},{"inputs":[{"internalType":"address","name":"owner","type":"address"},{"internalType":"address","name":"spender","type":"address"}],"name":"allowance","outputs":[{"internalType":"uint256","name":"","type":"uint256"}],"stateMutability":"view","type":"function"},{"inputs":[{"internalType":"address","name":"spender","type":"address"},{"internalType":"uint256","name":"value","type":"uint256"}],"name":"approve","outputs":[{"internalType":"bool","name":"","type":"bool"}],"stateMutability":"nonpayable","type":"function"},{"inputs":[{"internalType":"address","name":"account","type":"address"}],"name":"balanceOf","outputs":[{"internalType":"uint256","name":"","type":"uint256"}],"stateMutability":"view","type":"function"},{"inputs":[{"internalType":"address","name":"from","type":"address"},{"internalType":"uint256","name":"amount","type":"uint256"}],"name":"burn","outputs":[],"stateMutability":"nonpayable","type":"function"},{"inputs":[],"name":"decimals","outputs":[{"internalType":"uint8","name":"","type":"uint8"}],"stateMutability":"view","type":"function"},{"inputs":[{"internalType":"address","name":"account","type":"address"}],"name":"getAvailableBalance","outputs":[{"internalType":"uint256","name":"","type":"uint256"}],"stateMutability":"view","type":"function"},{"inputs":[{"internalType":"address","name":"account","type":"address"}],"name":"getLockedBalance","outputs":[{"internalType":"uint256","name":"","type":"uint256"}],"stateMutability":"view","type":"function"},{"inputs":[],"name":"getMemberCount","outputs":[{"internalType":"uint256","name":"","type":"uint256"}],"stateMutability":"view","type":"function"},{"inputs":[{"internalType":"bytes32","name":"role","type":"bytes32"}],"name":"getRoleAdmin","outputs":[{"internalType":"bytes32","name":"","type":"bytes32"}],"stateMutability":"view","type":"function"},{"inputs":[{"internalType":"address","name":"account","type":"address"}],"name":"getVotingPower","outputs":[{"internalType":"uint256","name":"","type":"uint256"}],"stateMutability":"view","type":"function"},{"inputs":[{"internalType":"bytes32","name":"role","type":"bytes32"},{"internalType":"address","name":"account","type":"address"}],"name":"grantRole","outputs":[],"stateMutability":"nonpayable","type":"function"},{"inputs":[{"internalType":"bytes32","name":"role","type":"bytes32"},{"internalType":"address","name":"account","type":"address"}],"name":"hasRole","outputs":[{"internalType":"bool","name":"","type":"bool"}],"stateMutability":"view","type":"function"},{"inputs":[{"internalType":"address","name":"","type":"address"}],"name":"isRegisteredMember","outputs":[{"internalType":"bool","name":"","type":"bool"}],"stateMutability":"view","type":"function"},{"inputs":[],"name":"lakomiGovern","outputs":[{"internalType":"address","name":"","type":"address"}],"stateMutability":"view","type":"function"},{"inputs":[],"name":"lakomiLoans","outputs":[{"internalType":"address","name":"","type":"address"}],"stateMutability":"view","type":"function"},{"inputs":[],"name":"lakomiVault","outputs":[{"internalType":"address","name":"","type":"address"}],"stateMutability":"view","type":"function"},{"inputs":[{"internalType":"address","name":"account","type":"address"},{"internalType":"uint256","name":"amount","type":"uint256"}],"name":"lockTokens","outputs":[],"stateMutability":"nonpayable","type":"function"},{"inputs":[],"name":"memberCount","outputs":[{"internalType":"uint256","name":"","type":"uint256"}],"stateMutability":"view","type":"function"},{"inputs":[{"internalType":"address","name":"to","type":"address"},{"internalType":"uint256","name":"amount","type":"uint256"}],"name":"mint","outputs":[],"stateMutability":"nonpayable","type":"function"},{"inputs":[{"internalType":"address","name":"to","type":"address"}],"name":"mintDefault","outputs":[],"stateMutability":"nonpayable","type":"function"},{"inputs":[],"name":"name","outputs":[{"internalType":"string","name":"","type":"string"}],"stateMutability":"view","type":"function"},{"inputs":[],"name":"registerMember","outputs":[],"stateMutability":"nonpayable","type":"function"},{"inputs":[{"internalType":"address","name":"member","type":"address"}],"name":"registerMemberAdmin","outputs":[],"stateMutability":"nonpayable","type":"function"},{"inputs":[{"internalType":"bytes32","name":"role","type":"bytes32"},{"internalType":"address","name":"callerConfirmation","type":"address"}],"name":"renounceRole","outputs":[],"stateMutability":"nonpayable","type":"function"},{"inputs":[{"internalType":"address","name":"member","type":"address"}],"name":"revokeMembership","outputs":[],"stateMutability":"nonpayable","type":"function"},{"inputs":[{"internalType":"bytes32","name":"role","type":"bytes32"},{"internalType":"address","name":"account","type":"address"}],"name":"revokeRole","outputs":[],"stateMutability":"nonpayable","type":"function"},{"inputs":[{"internalType":"address","name":"govern","type":"address"}],"name":"setLakomiGovern","outputs":[],"stateMutability":"nonpayable","type":"function"},{"inputs":[{"internalType":"address","name":"loans","type":"address"}],"name":"setLakomiLoans","outputs":[],"stateMutability":"nonpayable","type":"function"},{"inputs":[{"internalType":"address","name":"vault","type":"address"}],"name":"setLakomiVault","outputs":[],"stateMutability":"nonpayable","type":"function"},{"inputs":[{"internalType":"bool","name":"enabled","type":"bool"}],"name":"setTransfersEnabled","outputs":[],"stateMutability":"nonpayable","type":"function"},{"inputs":[{"internalType":"bytes4","name":"interfaceId","type":"bytes4"}],"name":"supportsInterface","outputs":[{"internalType":"bool","name":"","type":"bool"}],"stateMutability":"view","type":"function"},{"inputs":[],"name":"symbol","outputs":[{"internalType":"string","name":"","type":"string"}],"stateMutability":"view","type":"function"},{"inputs":[],"name":"totalSupply","outputs":[{"internalType":"uint256","name":"","type":"uint256"}],"stateMutability":"view","type":"function"},{"inputs":[{"internalType":"address","name":"to","type":"address"},{"internalType":"uint256","name":"value","type":"uint256"}],"name":"transfer","outputs":[{"internalType":"bool","name":"","type":"bool"}],"stateMutability":"nonpayable","type":"function"},{"inputs":[{"internalType":"address","name":"from","type":"address"},{"internalType":"address","name":"to","type":"address"},{"internalType":"uint256","name":"value","type":"uint256"}],"name":"transferFrom","outputs":[{"internalType":"bool","name":"","type":"bool"}],"stateMutability":"nonpayable","type":"function"},{"inputs":[],"name":"transfersEnabled","outputs":[{"internalType":"bool","name":"","type":"bool"}],"stateMutability":"view","type":"function"},{"inputs":[{"internalType":"address","name":"account","type":"address"},{"internalType":"uint256","name":"amount","type":"uint256"}],"name":"unlockTokens","outputs":[],"stateMutability":"nonpayable","type":"function"}],"evm":{"bytecode":{"linkReferences":{},"object":"60803462000375576001600160401b03906040908082018381118282101762000275578252600c81526020926b2630b5b7b6b4902a37b5b2b760a11b8483015282519083820182811082821117620002755784526003808352624c414b60e81b86840152835182811162000275578154906001958683811c931680156200036a575b8984101462000354578190601f93848111620002fe575b50899084831160011462000297576000926200028b575b505060001982851b1c191690861b1782555b835192831162000275576004938454978689811c991680156200026a575b818a101462000255578883869798999a11620001f9575b50809285116001146200018b57506000936200017f575b505082851b92600019911b1c19161790555b807f9b779b17422d0df92223018b32b4d1fa46e071723d6817e2486d003becc55f00556200014d336200037a565b506200015933620003fb565b5062000165336200049e565b5060ff19600754161760075551611b8f90816200053d8239f35b0151915038806200010d565b929190879550601f1985168760005284600020946000905b828210620001df5750508511620001c4575b50505050811b0190556200011f565b01519060f884600019921b161c1916905538808080620001b5565b8484015187558a98909601959384019390810190620001a3565b90919293945086600052816000208480880160051c8201928489106200024b575b918a91899897969594930160051c01915b8281106200023b575050620000f6565b600081558897508a91016200022b565b925081926200021a565b602286634e487b7160e01b6000525260246000fd5b98607f1698620000df565b634e487b7160e01b600052604160045260246000fd5b015190503880620000af565b90889350601f19831691866000528b6000209260005b8d828210620002e75750508411620002ce575b505050811b018255620000c1565b015160001983871b60f8161c19169055388080620002c0565b8385015186558c97909501949384019301620002ad565b90915084600052896000208480850160051c8201928c86106200034a575b918a91869594930160051c01915b8281106200033a57505062000098565b600081558594508a91016200032a565b925081926200031c565b634e487b7160e01b600052602260045260246000fd5b92607f169262000081565b600080fd5b6001600160a01b031660008181527f05b8ccbb9d4d8fb16ea74ce3c29a41f1b461fbdaff4714a0d9a8eb05499746bc602052604081205490919060ff16620003f75781805260056020526040822081835260205260408220600160ff198254161790553391600080516020620020cc8339815191528180a4600190565b5090565b6001600160a01b031660008181527f15a28d26fa1bf736cf7edc9922607171ccb09c3c73b808e7772a3013e068a52260205260408120549091907f9f2df0fed2c77648de5860a4cc508cd0818c85b8b8a1ab4ceeef8d981c8956a69060ff16620004995780835260056020526040832082845260205260408320600160ff19825416179055600080516020620020cc833981519152339380a4600190565b505090565b6001600160a01b031660008181527f847f481f687befb06ed3511f1a8dcef57e83007c0147ae5047583d705617093760205260408120549091907f3c11d16cbaffd01df69ce1c404f6340ee057498f5f00246190ea54220576a8489060ff16620004995780835260056020526040832082845260205260408320600160ff19825416179055600080516020620020cc833981519152339380a460019056fe608060408181526004918236101561001657600080fd5b600092833560e01c91826301ffc9a7146115855750816306fdde03146114ab578163095ea7b31461140157816311aee380146109da57816318160ddd146113e25781631ad330331461133e5781632144d0b91461131157816321a527991461128257816323b872dd1461115d578163248a9ca31461113257816326b9ce13146110cf578163282c51f3146110945781632c4fbd2d1461101c5781632f2ff15d14610ff2578163313ce56714610fd657816332cb6b0c14610fb157816336568abe14610f6b57816340c10f1914610e9757816360f8dd7e14610d825781636a6b9a6114610d445781636c24a76f14610cfb57816370a0823114610cc4578163901786c914610b5f57816391d1485414610b1857816395d89b41146109f9578163997072f7146109da5781639d564d9a146109415781639dc29fac14610830578163a217fddf14610815578163a9059cbb146107bb578163ab466a8d14610797578163ae20600b1461076e578163b1c2558614610693578163bb4d443614610643578163bef97c871461061f578163c4086893146105e7578163c5ae086a14610401578163d5391393146103c6578163d547741f14610386578163dcab10d6146102f057508063dd62ed3e146102a8578063df37bb191461026e578063df817a71146102465763f36213671461020957600080fd5b34610242578160031936011261024257602090517faf9a8bb3cbd6b84fbccefa71ff73e26e798553c6914585a84886212a46a902798152f35b5080fd5b503461024257816003193601126102425760085490516001600160a01b039091168152602090f35b5034610242578160031936011261024257602090517f41a3fffbda0f1c9e28bd52ae72187b3406590146b6ca8f19961d2250566efd168152f35b5034610242578060031936011261024257806020926102c5611621565b6102cd61163c565b6001600160a01b0391821683526001865283832091168252845220549051908152f35b9050346103825760203660031901126103825761030b611621565b906103146116cc565b6001600160a01b03918216928315610375576009549283166103685750506001600160a01b03191681176009557ff54cdf149ced77f64aefa26253e0703062cc3f3be92a9d759576f9741725b2a18280a280f35b51630bcf2c7760e31b8152fd5b5163aacf746b60e01b8152fd5b8280fd5b919050346103825780600319360112610382576103c291356103bd60016103ab61163c565b93838752600560205286200154611761565b611807565b5080f35b505034610242578160031936011261024257602090517f9f2df0fed2c77648de5860a4cc508cd0818c85b8b8a1ab4ceeef8d981c8956a68152f35b838334610242576020806003193601126103825761041d611621565b91610426611911565b6001600160a01b0383169283156105d757838552600a835260ff8286205416156105a5577f41a3fffbda0f1c9e28bd52ae72187b3406590146b6ca8f19961d2250566efd16855260058352818520338652835260ff82862054168015610589575b1561055557838552600a8352818520805460ff19169055600b548015610542577fbf62ed977dbe8fac296246c481da9d7398f13c289ed4f178507b32d16a25f3af939291859160001901600b55818752868452828088205480610503575b5050505051428152a26001600080516020611b3a8339815191525580f35b61052e817fccbea4088a3b7ae9ca2d15fab9a9742a4075b4d7247768a1eecea917565aba0094611941565b81519081524286820152a2838682816104e5565b634e487b7160e01b865260118752602486fd5b815162461bcd60e51b8152808701849052600e60248201526d139bdd08185d5d1a1bdc9a5e995960921b6044820152606490fd5b5084805260058352818520338652835260ff8286205416610487565b815162461bcd60e51b8152808701849052600c60248201526b2737ba10309036b2b6b132b960a11b6044820152606490fd5b815163aacf746b60e01b81528690fd5b5050346102425760203660031901126102425760209181906001600160a01b0361060f611621565b1681526006845220549051908152f35b50503461024257816003193601126102425760209060ff6007541690519015158152f35b505034610242576020366003190112610242576020916001600160a01b03610669611621565b168152600a83528181205460ff161561068a575060ff6001915b5191168152f35b60ff9091610683565b919050346103825780600319360112610382576106ae611621565b602435906106ba611706565b6106c2611911565b6001600160a01b03169283156107605783855284602052816106f084872054600660205285882054906119e7565b106107525750907fd741e738a23fd18a03a26522320d9fc6cac1fed483e215ea9150fbc2fc43385d91838552600660205281852061072f82825461187e565b90558151908152426020820152a26001600080516020611b3a8339815191525580f35b8251632f992abf60e01b8152fd5b825163aacf746b60e01b8152fd5b50503461024257816003193601126102425760095490516001600160a01b039091168152602090f35b5050346102425781600319360112610242576020905168056bc75e2d631000008152f35b905034610382578160031936011261038257916107fb926107da611621565b916024359485913381528060205285808220549160066020522054906119e7565b10610752575060209261080e9133611a44565b5160018152f35b50503461024257816003193601126102425751908152602090f35b9190503461038257806003193601126103825761084b611621565b602435907f3c11d16cbaffd01df69ce1c404f6340ee057498f5f00246190ea54220576a848808652600560205283862033875260205260ff8487205416156109235750610896611911565b6001600160a01b03811693841561091557848652856020528284872054106109075750906108e6817fccbea4088a3b7ae9ca2d15fab9a9742a4075b4d7247768a1eecea917565aba009493611941565b8151908152426020820152a26001600080516020611b3a8339815191525580f35b8351632f100e0360e11b8152fd5b835163aacf746b60e01b8152fd5b835163e2517d3f60e01b815233818701526024810191909152604490fd5b9190503461038257806003193601126103825761095c611621565b60243590610968611706565b610970611911565b6001600160a01b03169283156107605783855260066020528183862054106109cc5750907f89882ad382a3742d4db24e4dabc5000c5852aed762904db28442e4e1630a1d0791838552600660205281852061072f8282546119e7565b825163713ca3c160e11b8152fd5b505034610242578160031936011261024257602090600b549051908152f35b838334610242578160031936011261024257805190828454600181811c90808316928315610b0e575b6020938484108114610afb57838852908115610adf5750600114610a8a575b505050829003601f01601f191682019267ffffffffffffffff841183851017610a775750829182610a739252826115d8565b0390f35b634e487b7160e01b815260418552602490fd5b8787529192508591837f8a35acfbc15ff81a39ae7d344fd709f28e8600b4aa8c65c6b64bfe7fe36bd19b5b838510610acb5750505050830101858080610a41565b805488860183015293019284908201610ab5565b60ff1916878501525050151560051b8401019050858080610a41565b634e487b7160e01b895260228a52602489fd5b91607f1691610a22565b9050346103825781600319360112610382578160209360ff92610b3961163c565b90358252600586528282206001600160a01b039091168252855220549151911615158152f35b8383346102425760208060031936011261038257610b7b611621565b917f41a3fffbda0f1c9e28bd52ae72187b3406590146b6ca8f19961d2250566efd1680855260058352818520338652835260ff828620541615610ca65750610bc1611911565b6001600160a01b0383169283156105d757838552600a8352610be960ff8387205416156119f4565b838552600a8352818520600160ff19825416179055610c09600b54611a35565b600b5560025468056bc75e2d6310000090818101809111610c93579183869269d3c21bcecceda10000007f67e0244e28040fec15240cd4b6c04c776a2a0278caef23b59e8ada1df31f76899796951115610c7b575050505051428152a26001600080516020611b3a8339815191525580f35b61052e600080516020611afa833981519152936118a1565b634e487b7160e01b875260118852602487fd5b905163e2517d3f60e01b815233818701526024810191909152604490fd5b5050346102425760203660031901126102425760209181906001600160a01b03610cec611621565b16815280845220549051908152f35b50503461024257602036600319011261024257602091610d3d906001600160a01b03610d25611621565b168152808452828082205491600686522054906119e7565b9051908152f35b5050346102425760203660031901126102425760209160ff9082906001600160a01b03610d6f611621565b168152600a855220541690519015158152f35b905034610382578260031936011261038257610d9c611911565b3315610e8957338352600a602052610dba60ff8385205416156119f4565b338352600a602052818320600160ff19825416179055610ddb600b54611a35565b600b5560025468056bc75e2d6310000091828201809211610e76575069d3c21bcecceda10000001015610e49575b50514281527f67e0244e28040fec15240cd4b6c04c776a2a0278caef23b59e8ada1df31f768960203392a26001600080516020611b3a8339815191525580f35b610e52336118a1565b8151908152426020820152600080516020611afa833981519152823392a238610e09565b634e487b7160e01b855260119052602484fd5b905163aacf746b60e01b8152fd5b91905034610382578060031936011261038257610eb2611621565b60243590610ebe611652565b610ec6611911565b6001600160a01b0316928315610760576002549069d3c21bcecceda1000000610eef848461187e565b11610f5d575090610f1081600080516020611afa833981519152949361187e565b600255838552846020528185208181540190558385600080516020611b1a83398151915260208551858152a38151908152426020820152a26001600080516020611b3a8339815191525580f35b8351632e1198f160e11b8152fd5b838334610242578060031936011261024257610f8561163c565b90336001600160a01b03831603610fa257506103c2919235611807565b5163334bd91960e11b81528390fd5b5050346102425781600319360112610242576020905169d3c21bcecceda10000008152f35b5050346102425781600319360112610242576020905160128152f35b919050346103825780600319360112610382576103c2913561101760016103ab61163c565b611787565b90503461038257602036600319011261038257611037611621565b906110406116cc565b6001600160a01b03918216928315610375576008549283166103685750506001600160a01b03191681176008557f02ede59ede14fc8a452f4d9c602afef004380e4a5bf668b99ca6580878a80a5c8280a280f35b505034610242578160031936011261024257602090517f3c11d16cbaffd01df69ce1c404f6340ee057498f5f00246190ea54220576a8488152f35b905034610382576020366003190112610382573590811515809203610382576110f66116cc565b60ff196007541660ff831617600755519081527f60a5428eca561d7fc92d217a2f3ca72fa49ce364b20e5cc90110bae2a414911860203392a280f35b9050346103825760203660031901126103825781602093600192358152600585522001549051908152f35b9190503461038257606036600319011261038257611179611621565b61118161163c565b6044359160018060a01b03811694858752602095878752846111ae878a205460068a52888b2054906119e7565b1061127357808852600187528588203389528752858820549160001983106111df575b5050509061080e9291611a44565b85831061124757811561123057331561121957509484889261080e9783999a5260018a528284203385528a520391205585949338806111d1565b8651634a1406b160e11b8152908101899052602490fd5b865163e602df0560e01b8152908101899052602490fd5b8651637dc7a0d960e11b8152339181019182526020820193909352604081018690528291506060010390fd5b508451632f992abf60e01b8152fd5b9050346103825760203660031901126103825761129d611621565b6112a56116cc565b6001600160a01b0381811693909290841561037557600754938460081c16610368575050610100600160a81b031990911660089190911b610100600160a81b0316176007557fe7ae49f883c825b05681b3e00e8be6fdea9ed2a8a45e4c6ecb9390fc44cce6158280a280f35b505034610242578160031936011261024257600754905160089190911c6001600160a01b03168152602090f35b919050346103825760203660031901126103825761135a611621565b91611363611652565b61136b611911565b6001600160a01b0383169283156113d3576002549168056bc75e2d63100000928381018091116113c05769d3c21bcecceda100000010610f5d5750906108e6600080516020611afa83398151915293926118a1565b634e487b7160e01b875260118252602487fd5b50905163aacf746b60e01b8152fd5b5050346102425781600319360112610242576020906002549051908152f35b90503461038257816003193601126103825761141b611621565b602435903315611494576001600160a01b031691821561147d57508083602095338152600187528181208582528752205582519081527f8c5be1e5ebec7d5bd14f71427d1e84f3dd0314c0f7b2291e5b200ac8c7c3b925843392a35160018152f35b8351634a1406b160e11b8152908101859052602490fd5b835163e602df0560e01b8152808401869052602490fd5b83833461024257816003193601126102425780519082600354600181811c9080831692831561157b575b6020938484108114610afb57838852908115610adf575060011461152557505050829003601f01601f191682019267ffffffffffffffff841183851017610a775750829182610a739252826115d8565b600387529192508591837fc2575a0e9e593c00f959f8c92f12db2869c3395a3b0502d05e2516446f71f85b5b8385106115675750505050830101858080610a41565b805488860183015293019284908201611551565b91607f16916114d5565b849134610382576020366003190112610382573563ffffffff60e01b81168091036103825760209250637965db0b60e01b81149081156115c7575b5015158152f35b6301ffc9a760e01b149050836115c0565b6020808252825181830181905290939260005b82811061160d57505060409293506000838284010152601f8019910116010190565b8181018601518482016040015285016115eb565b600435906001600160a01b038216820361163757565b600080fd5b602435906001600160a01b038216820361163757565b3360009081527f15a28d26fa1bf736cf7edc9922607171ccb09c3c73b808e7772a3013e068a52260205260409020547f9f2df0fed2c77648de5860a4cc508cd0818c85b8b8a1ab4ceeef8d981c8956a69060ff16156116ae5750565b6044906040519063e2517d3f60e01b82523360048301526024820152fd5b3360009081527f05b8ccbb9d4d8fb16ea74ce3c29a41f1b461fbdaff4714a0d9a8eb05499746bc602052604081205460ff16156116ae5750565b3360009081527ecd24bfc36858366fa9b50eeb52d23b2918df0151c543a0d3f8b17bf202bf2960205260409020547faf9a8bb3cbd6b84fbccefa71ff73e26e798553c6914585a84886212a46a902799060ff16156116ae5750565b80600052600560205260406000203360005260205260ff60406000205416156116ae5750565b906000918083526005602052604083209160018060a01b03169182845260205260ff604084205416156000146118025780835260056020526040832082845260205260408320600160ff198254161790557f2f8788117e7eff1d82e926ec794901d17c78024a50270940304540a733656f0d339380a4600190565b505090565b906000918083526005602052604083209160018060a01b03169182845260205260ff604084205416600014611802578083526005602052604083208284526020526040832060ff1981541690557ff6391f5c32d9c69d2a47ea670b442974b53935d1edc7fd64eb21e047a839171b339380a4600190565b9190820180921161188b57565b634e487b7160e01b600052601160045260246000fd5b6001600160a01b031680156118f85760025468056bc75e2d6310000080820180921161188b576020600080516020611b1a8339815191529160009360025584845283825260408420818154019055604051908152a3565b60405163ec442f0560e01b815260006004820152602490fd5b600080516020611b3a833981519152600281541461192f5760029055565b604051633ee5aeb560e01b8152600490fd5b906001600160a01b0382169081156119ce576000928284528360205260408420549082821061199c575081600080516020611b1a833981519152926020928587528684520360408620558060025403600255604051908152a3565b60405163391434e360e21b81526001600160a01b03919091166004820152602481019190915260448101829052606490fd5b604051634b637e8f60e11b815260006004820152602490fd5b9190820391821161188b57565b156119fb57565b60405162461bcd60e51b8152602060048201526012602482015271105b1c9958591e481c9959da5cdd195c995960721b6044820152606490fd5b600019811461188b5760010190565b91906001600160a01b038084169182156119ce57169182156118f8576000828152806020526040948582205490838210611ac8575091858282600080516020611b1a8339815191529587602096528286520382822055868152208181540190558551908152a360ff6007541615611ab85750565b51630202da8560e11b8152600490fd5b865163391434e360e21b81526001600160a01b03919091166004820152602481019190915260448101839052606490fdfe2e8ac5177a616f2aec08c3048f5021e4e9743ece034e8d83ba5caf76688bb475ddf252ad1be2c89b69c2b068fc378daa952ba7f163c4a11628f55a4df523b3ef9b779b17422d0df92223018b32b4d1fa46e071723d6817e2486d003becc55f00a2646970667358221220510b0e40171579e0037b04c6b28e7c2e5a6286d20f51fac6802712be5b3cbd3c64736f6c634300081400332f8788117e7eff1d82e926ec794901d17c78024a50270940304540a733656f0d","opcodes":"PUSH1 0x80 CALLVALUE PUSH3 0x375 JUMPI PUSH1 0x1 PUSH1 0x1 PUSH1 0x40 SHL SUB SWAP1 PUSH1 0x40 SWAP1 DUP1 DUP3 ADD DUP4 DUP2 GT DUP3 DUP3 LT OR PUSH3 0x275 JUMPI DUP3 MSTORE PUSH1 0xC DUP2 MSTORE PUSH1 0x20 SWAP3 PUSH12 0x2630B5B7B6B4902A37B5B2B7 PUSH1 0xA1 SHL DUP5 DUP4 ADD MSTORE DUP3 MLOAD SWAP1 DUP4 DUP3 ADD DUP3 DUP2 LT DUP3 DUP3 GT OR PUSH3 0x275 JUMPI DUP5 MSTORE PUSH1 0x3 DUP1 DUP4 MSTORE PUSH3 0x4C414B PUSH1 0xE8 SHL DUP7 DUP5 ADD MSTORE DUP4 MLOAD DUP3 DUP2 GT PUSH3 0x275 JUMPI DUP2 SLOAD SWAP1 PUSH1 0x1 SWAP6 DUP7 DUP4 DUP2 SHR SWAP4 AND DUP1 ISZERO PUSH3 0x36A JUMPI JUMPDEST DUP10 DUP5 LT EQ PUSH3 0x354 JUMPI DUP2 SWAP1 PUSH1 0x1F SWAP4 DUP5 DUP2 GT PUSH3 0x2FE JUMPI JUMPDEST POP DUP10 SWAP1 DUP5 DUP4 GT PUSH1 0x1 EQ PUSH3 0x297 JUMPI PUSH1 0x0 SWAP3 PUSH3 0x28B JUMPI JUMPDEST POP POP PUSH1 0x0 NOT DUP3 DUP6 SHL SHR NOT AND SWAP1 DUP7 SHL OR DUP3 SSTORE JUMPDEST DUP4 MLOAD SWAP3 DUP4 GT PUSH3 0x275 JUMPI PUSH1 0x4 SWAP4 DUP5 SLOAD SWAP8 DUP7 DUP10 DUP2 SHR SWAP10 AND DUP1 ISZERO PUSH3 0x26A JUMPI JUMPDEST DUP2 DUP11 LT EQ PUSH3 0x255 JUMPI DUP9 DUP4 DUP7 SWAP8 SWAP9 SWAP10 SWAP11 GT PUSH3 0x1F9 JUMPI JUMPDEST POP DUP1 SWAP3 DUP6 GT PUSH1 0x1 EQ PUSH3 0x18B JUMPI POP PUSH1 0x0 SWAP4 PUSH3 0x17F JUMPI JUMPDEST POP POP DUP3 DUP6 SHL SWAP3 PUSH1 0x0 NOT SWAP2 SHL SHR NOT AND OR SWAP1 SSTORE JUMPDEST DUP1 PUSH32 0x9B779B17422D0DF92223018B32B4D1FA46E071723D6817E2486D003BECC55F00 SSTORE PUSH3 0x14D CALLER PUSH3 0x37A JUMP JUMPDEST POP PUSH3 0x159 CALLER PUSH3 0x3FB JUMP JUMPDEST POP PUSH3 0x165 CALLER PUSH3 0x49E JUMP JUMPDEST POP PUSH1 0xFF NOT PUSH1 0x7 SLOAD AND OR PUSH1 0x7 SSTORE MLOAD PUSH2 0x1B8F SWAP1 DUP2 PUSH3 0x53D DUP3 CODECOPY RETURN JUMPDEST ADD MLOAD SWAP2 POP CODESIZE DUP1 PUSH3 0x10D JUMP JUMPDEST SWAP3 SWAP2 SWAP1 DUP8 SWAP6 POP PUSH1 0x1F NOT DUP6 AND DUP8 PUSH1 0x0 MSTORE DUP5 PUSH1 0x0 KECCAK256 SWAP5 PUSH1 0x0 SWAP1 JUMPDEST DUP3 DUP3 LT PUSH3 0x1DF JUMPI POP POP DUP6 GT PUSH3 0x1C4 JUMPI JUMPDEST POP POP POP POP DUP2 SHL ADD SWAP1 SSTORE PUSH3 0x11F JUMP JUMPDEST ADD MLOAD SWAP1 PUSH1 0xF8 DUP5 PUSH1 0x0 NOT SWAP3 SHL AND SHR NOT AND SWAP1 SSTORE CODESIZE DUP1 DUP1 DUP1 PUSH3 0x1B5 JUMP JUMPDEST DUP5 DUP5 ADD MLOAD DUP8 SSTORE DUP11 SWAP9 SWAP1 SWAP7 ADD SWAP6 SWAP4 DUP5 ADD SWAP4 SWAP1 DUP2 ADD SWAP1 PUSH3 0x1A3 JUMP JUMPDEST SWAP1 SWAP2 SWAP3 SWAP4 SWAP5 POP DUP7 PUSH1 0x0 MSTORE DUP2 PUSH1 0x0 KECCAK256 DUP5 DUP1 DUP9 ADD PUSH1 0x5 SHR DUP3 ADD SWAP3 DUP5 DUP10 LT PUSH3 0x24B JUMPI JUMPDEST SWAP2 DUP11 SWAP2 DUP10 SWAP9 SWAP8 SWAP7 SWAP6 SWAP5 SWAP4 ADD PUSH1 0x5 SHR ADD SWAP2 JUMPDEST DUP3 DUP2 LT PUSH3 0x23B JUMPI POP POP PUSH3 0xF6 JUMP JUMPDEST PUSH1 0x0 DUP2 SSTORE DUP9 SWAP8 POP DUP11 SWAP2 ADD PUSH3 0x22B JUMP JUMPDEST SWAP3 POP DUP2 SWAP3 PUSH3 0x21A JUMP JUMPDEST PUSH1 0x22 DUP7 PUSH4 0x4E487B71 PUSH1 0xE0 SHL PUSH1 0x0 MSTORE MSTORE PUSH1 0x24 PUSH1 0x0 REVERT JUMPDEST SWAP9 PUSH1 0x7F AND SWAP9 PUSH3 0xDF JUMP JUMPDEST PUSH4 0x4E487B71 PUSH1 0xE0 SHL PUSH1 0x0 MSTORE PUSH1 0x41 PUSH1 0x4 MSTORE PUSH1 0x24 PUSH1 0x0 REVERT JUMPDEST ADD MLOAD SWAP1 POP CODESIZE DUP1 PUSH3 0xAF JUMP JUMPDEST SWAP1 DUP9 SWAP4 POP PUSH1 0x1F NOT DUP4 AND SWAP2 DUP7 PUSH1 0x0 MSTORE DUP12 PUSH1 0x0 KECCAK256 SWAP3 PUSH1 0x0 JUMPDEST DUP14 DUP3 DUP3 LT PUSH3 0x2E7 JUMPI POP POP DUP5 GT PUSH3 0x2CE JUMPI JUMPDEST POP POP POP DUP2 SHL ADD DUP3 SSTORE PUSH3 0xC1 JUMP JUMPDEST ADD MLOAD PUSH1 0x0 NOT DUP4 DUP8 SHL PUSH1 0xF8 AND SHR NOT AND SWAP1 SSTORE CODESIZE DUP1 DUP1 PUSH3 0x2C0 JUMP JUMPDEST DUP4 DUP6 ADD MLOAD DUP7 SSTORE DUP13 SWAP8 SWAP1 SWAP6 ADD SWAP5 SWAP4 DUP5 ADD SWAP4 ADD PUSH3 0x2AD JUMP JUMPDEST SWAP1 SWAP2 POP DUP5 PUSH1 0x0 MSTORE DUP10 PUSH1 0x0 KECCAK256 DUP5 DUP1 DUP6 ADD PUSH1 0x5 SHR DUP3 ADD SWAP3 DUP13 DUP7 LT PUSH3 0x34A JUMPI JUMPDEST SWAP2 DUP11 SWAP2 DUP7 SWAP6 SWAP5 SWAP4 ADD PUSH1 0x5 SHR ADD SWAP2 JUMPDEST DUP3 DUP2 LT PUSH3 0x33A JUMPI POP POP PUSH3 0x98 JUMP JUMPDEST PUSH1 0x0 DUP2 SSTORE DUP6 SWAP5 POP DUP11 SWAP2 ADD PUSH3 0x32A JUMP JUMPDEST SWAP3 POP DUP2 SWAP3 PUSH3 0x31C JUMP JUMPDEST PUSH4 0x4E487B71 PUSH1 0xE0 SHL PUSH1 0x0 MSTORE PUSH1 0x22 PUSH1 0x4 MSTORE PUSH1 0x24 PUSH1 0x0 REVERT JUMPDEST SWAP3 PUSH1 0x7F AND SWAP3 PUSH3 0x81 JUMP JUMPDEST PUSH1 0x0 DUP1 REVERT JUMPDEST PUSH1 0x1 PUSH1 0x1 PUSH1 0xA0 SHL SUB AND PUSH1 0x0 DUP2 DUP2 MSTORE PUSH32 0x5B8CCBB9D4D8FB16EA74CE3C29A41F1B461FBDAFF4714A0D9A8EB05499746BC PUSH1 0x20 MSTORE PUSH1 0x40 DUP2 KECCAK256 SLOAD SWAP1 SWAP2 SWAP1 PUSH1 0xFF AND PUSH3 0x3F7 JUMPI DUP2 DUP1 MSTORE PUSH1 0x5 PUSH1 0x20 MSTORE PUSH1 0x40 DUP3 KECCAK256 DUP2 DUP4 MSTORE PUSH1 0x20 MSTORE PUSH1 0x40 DUP3 KECCAK256 PUSH1 0x1 PUSH1 0xFF NOT DUP3 SLOAD AND OR SWAP1 SSTORE CALLER SWAP2 PUSH1 0x0 DUP1 MLOAD PUSH1 0x20 PUSH3 0x20CC DUP4 CODECOPY DUP2 MLOAD SWAP2 MSTORE DUP2 DUP1 LOG4 PUSH1 0x1 SWAP1 JUMP JUMPDEST POP SWAP1 JUMP JUMPDEST PUSH1 0x1 PUSH1 0x1 PUSH1 0xA0 SHL SUB AND PUSH1 0x0 DUP2 DUP2 MSTORE PUSH32 0x15A28D26FA1BF736CF7EDC9922607171CCB09C3C73B808E7772A3013E068A522 PUSH1 0x20 MSTORE PUSH1 0x40 DUP2 KECCAK256 SLOAD SWAP1 SWAP2 SWAP1 PUSH32 0x9F2DF0FED2C77648DE5860A4CC508CD0818C85B8B8A1AB4CEEEF8D981C8956A6 SWAP1 PUSH1 0xFF AND PUSH3 0x499 JUMPI DUP1 DUP4 MSTORE PUSH1 0x5 PUSH1 0x20 MSTORE PUSH1 0x40 DUP4 KECCAK256 DUP3 DUP5 MSTORE PUSH1 0x20 MSTORE PUSH1 0x40 DUP4 KECCAK256 PUSH1 0x1 PUSH1 0xFF NOT DUP3 SLOAD AND OR SWAP1 SSTORE PUSH1 0x0 DUP1 MLOAD PUSH1 0x20 PUSH3 0x20CC DUP4 CODECOPY DUP2 MLOAD SWAP2 MSTORE CALLER SWAP4 DUP1 LOG4 PUSH1 0x1 SWAP1 JUMP JUMPDEST POP POP SWAP1 JUMP JUMPDEST PUSH1 0x1 PUSH1 0x1 PUSH1 0xA0 SHL SUB AND PUSH1 0x0 DUP2 DUP2 MSTORE PUSH32 0x847F481F687BEFB06ED3511F1A8DCEF57E83007C0147AE5047583D7056170937 PUSH1 0x20 MSTORE PUSH1 0x40 DUP2 KECCAK256 SLOAD SWAP1 SWAP2 SWAP1 PUSH32 0x3C11D16CBAFFD01DF69CE1C404F6340EE057498F5F00246190EA54220576A848 SWAP1 PUSH1 0xFF AND PUSH3 0x499 JUMPI DUP1 DUP4 MSTORE PUSH1 0x5 PUSH1 0x20 MSTORE PUSH1 0x40 DUP4 KECCAK256 DUP3 DUP5 MSTORE PUSH1 0x20 MSTORE PUSH1 0x40 DUP4 KECCAK256 PUSH1 0x1 PUSH1 0xFF NOT DUP3 SLOAD AND OR SWAP1 SSTORE PUSH1 0x0 DUP1 MLOAD PUSH1 0x20 PUSH3 0x20CC DUP4 CODECOPY DUP2 MLOAD SWAP2 MSTORE CALLER SWAP4 DUP1 LOG4 PUSH1 0x1 SWAP1 JUMP INVALID PUSH1 0x80 PUSH1 0x40 DUP2 DUP2 MSTORE PUSH1 0x4 SWAP2 DUP3 CALLDATASIZE LT ISZERO PUSH2 0x16 JUMPI PUSH1 0x0 DUP1 REVERT JUMPDEST PUSH1 0x0 SWAP3 DUP4 CALLDATALOAD PUSH1 0xE0 SHR SWAP2 DUP3 PUSH4 0x1FFC9A7 EQ PUSH2 0x1585 JUMPI POP DUP2 PUSH4 0x6FDDE03 EQ PUSH2 0x14AB JUMPI DUP2 PUSH4 0x95EA7B3 EQ PUSH2 0x1401 JUMPI DUP2 PUSH4 0x11AEE380 EQ PUSH2 0x9DA JUMPI DUP2 PUSH4 0x18160DDD EQ PUSH2 0x13E2 JUMPI DUP2 PUSH4 0x1AD33033 EQ PUSH2 0x133E JUMPI DUP2 PUSH4 0x2144D0B9 EQ PUSH2 0x1311 JUMPI DUP2 PUSH4 0x21A52799 EQ PUSH2 0x1282 JUMPI DUP2 PUSH4 0x23B872DD EQ PUSH2 0x115D JUMPI DUP2 PUSH4 0x248A9CA3 EQ PUSH2 0x1132 JUMPI DUP2 PUSH4 0x26B9CE13 EQ PUSH2 0x10CF JUMPI DUP2 PUSH4 0x282C51F3 EQ PUSH2 0x1094 JUMPI DUP2 PUSH4 0x2C4FBD2D EQ PUSH2 0x101C JUMPI DUP2 PUSH4 0x2F2FF15D EQ PUSH2 0xFF2 JUMPI DUP2 PUSH4 0x313CE567 EQ PUSH2 0xFD6 JUMPI DUP2 PUSH4 0x32CB6B0C EQ PUSH2 0xFB1 JUMPI DUP2 PUSH4 0x36568ABE EQ PUSH2 0xF6B JUMPI DUP2 PUSH4 0x40C10F19 EQ PUSH2 0xE97 JUMPI DUP2 PUSH4 0x60F8DD7E EQ PUSH2 0xD82 JUMPI DUP2 PUSH4 0x6A6B9A61 EQ PUSH2 0xD44 JUMPI DUP2 PUSH4 0x6C24A76F EQ PUSH2 0xCFB JUMPI DUP2 PUSH4 0x70A08231 EQ PUSH2 0xCC4 JUMPI DUP2 PUSH4 0x901786C9 EQ PUSH2 0xB5F JUMPI DUP2 PUSH4 0x91D14854 EQ PUSH2 0xB18 JUMPI DUP2 PUSH4 0x95D89B41 EQ PUSH2 0x9F9 JUMPI DUP2 PUSH4 0x997072F7 EQ PUSH2 0x9DA JUMPI DUP2 PUSH4 0x9D564D9A EQ PUSH2 0x941 JUMPI DUP2 PUSH4 0x9DC29FAC EQ PUSH2 0x830 JUMPI DUP2 PUSH4 0xA217FDDF EQ PUSH2 0x815 JUMPI DUP2 PUSH4 0xA9059CBB EQ PUSH2 0x7BB JUMPI DUP2 PUSH4 0xAB466A8D EQ PUSH2 0x797 JUMPI DUP2 PUSH4 0xAE20600B EQ PUSH2 0x76E JUMPI DUP2 PUSH4 0xB1C25586 EQ PUSH2 0x693 JUMPI DUP2 PUSH4 0xBB4D4436 EQ PUSH2 0x643 JUMPI DUP2 PUSH4 0xBEF97C87 EQ PUSH2 0x61F JUMPI DUP2 PUSH4 0xC4086893 EQ PUSH2 0x5E7 JUMPI DUP2 PUSH4 0xC5AE086A EQ PUSH2 0x401 JUMPI DUP2 PUSH4 0xD5391393 EQ PUSH2 0x3C6 JUMPI DUP2 PUSH4 0xD547741F EQ PUSH2 0x386 JUMPI DUP2 PUSH4 0xDCAB10D6 EQ PUSH2 0x2F0 JUMPI POP DUP1 PUSH4 0xDD62ED3E EQ PUSH2 0x2A8 JUMPI DUP1 PUSH4 0xDF37BB19 EQ PUSH2 0x26E JUMPI DUP1 PUSH4 0xDF817A71 EQ PUSH2 0x246 JUMPI PUSH4 0xF3621367 EQ PUSH2 0x209 JUMPI PUSH1 0x0 DUP1 REVERT JUMPDEST CALLVALUE PUSH2 0x242 JUMPI DUP2 PUSH1 0x3 NOT CALLDATASIZE ADD SLT PUSH2 0x242 JUMPI PUSH1 0x20 SWAP1 MLOAD PUSH32 0xAF9A8BB3CBD6B84FBCCEFA71FF73E26E798553C6914585A84886212A46A90279 DUP2 MSTORE RETURN JUMPDEST POP DUP1 REVERT JUMPDEST POP CALLVALUE PUSH2 0x242 JUMPI DUP2 PUSH1 0x3 NOT CALLDATASIZE ADD SLT PUSH2 0x242 JUMPI PUSH1 0x8 SLOAD SWAP1 MLOAD PUSH1 0x1 PUSH1 0x1 PUSH1 0xA0 SHL SUB SWAP1 SWAP2 AND DUP2 MSTORE PUSH1 0x20 SWAP1 RETURN JUMPDEST POP CALLVALUE PUSH2 0x242 JUMPI DUP2 PUSH1 0x3 NOT CALLDATASIZE ADD SLT PUSH2 0x242 JUMPI PUSH1 0x20 SWAP1 MLOAD PUSH32 0x41A3FFFBDA0F1C9E28BD52AE72187B3406590146B6CA8F19961D2250566EFD16 DUP2 MSTORE RETURN JUMPDEST POP CALLVALUE PUSH2 0x242 JUMPI DUP1 PUSH1 0x3 NOT CALLDATASIZE ADD SLT PUSH2 0x242 JUMPI DUP1 PUSH1 0x20 SWAP3 PUSH2 0x2C5 PUSH2 0x1621 JUMP JUMPDEST PUSH2 0x2CD PUSH2 0x163C JUMP JUMPDEST PUSH1 0x1 PUSH1 0x1 PUSH1 0xA0 SHL SUB SWAP2 DUP3 AND DUP4 MSTORE PUSH1 0x1 DUP7 MSTORE DUP4 DUP4 KECCAK256 SWAP2 AND DUP3 MSTORE DUP5 MSTORE KECCAK256 SLOAD SWAP1 MLOAD SWAP1 DUP2 MSTORE RETURN JUMPDEST SWAP1 POP CALLVALUE PUSH2 0x382 JUMPI PUSH1 0x20 CALLDATASIZE PUSH1 0x3 NOT ADD SLT PUSH2 0x382 JUMPI PUSH2 0x30B PUSH2 0x1621 JUMP JUMPDEST SWAP1 PUSH2 0x314 PUSH2 0x16CC JUMP JUMPDEST PUSH1 0x1 PUSH1 0x1 PUSH1 0xA0 SHL SUB SWAP2 DUP3 AND SWAP3 DUP4 ISZERO PUSH2 0x375 JUMPI PUSH1 0x9 SLOAD SWAP3 DUP4 AND PUSH2 0x368 JUMPI POP POP PUSH1 0x1 PUSH1 0x1 PUSH1 0xA0 SHL SUB NOT AND DUP2 OR PUSH1 0x9 SSTORE PUSH32 0xF54CDF149CED77F64AEFA26253E0703062CC3F3BE92A9D759576F9741725B2A1 DUP3 DUP1 LOG2 DUP1 RETURN JUMPDEST MLOAD PUSH4 0xBCF2C77 PUSH1 0xE3 SHL DUP2 MSTORE REVERT JUMPDEST MLOAD PUSH4 0xAACF746B PUSH1 0xE0 SHL DUP2 MSTORE REVERT JUMPDEST DUP3 DUP1 REVERT JUMPDEST SWAP2 SWAP1 POP CALLVALUE PUSH2 0x382 JUMPI DUP1 PUSH1 0x3 NOT CALLDATASIZE ADD SLT PUSH2 0x382 JUMPI PUSH2 0x3C2 SWAP2 CALLDATALOAD PUSH2 0x3BD PUSH1 0x1 PUSH2 0x3AB PUSH2 0x163C JUMP JUMPDEST SWAP4 DUP4 DUP8 MSTORE PUSH1 0x5 PUSH1 0x20 MSTORE DUP7 KECCAK256 ADD SLOAD PUSH2 0x1761 JUMP JUMPDEST PUSH2 0x1807 JUMP JUMPDEST POP DUP1 RETURN JUMPDEST POP POP CALLVALUE PUSH2 0x242 JUMPI DUP2 PUSH1 0x3 NOT CALLDATASIZE ADD SLT PUSH2 0x242 JUMPI PUSH1 0x20 SWAP1 MLOAD PUSH32 0x9F2DF0FED2C77648DE5860A4CC508CD0818C85B8B8A1AB4CEEEF8D981C8956A6 DUP2 MSTORE RETURN JUMPDEST DUP4 DUP4 CALLVALUE PUSH2 0x242 JUMPI PUSH1 0x20 DUP1 PUSH1 0x3 NOT CALLDATASIZE ADD SLT PUSH2 0x382 JUMPI PUSH2 0x41D PUSH2 0x1621 JUMP JUMPDEST SWAP2 PUSH2 0x426 PUSH2 0x1911 JUMP JUMPDEST PUSH1 0x1 PUSH1 0x1 PUSH1 0xA0 SHL SUB DUP4 AND SWAP3 DUP4 ISZERO PUSH2 0x5D7 JUMPI DUP4 DUP6 MSTORE PUSH1 0xA DUP4 MSTORE PUSH1 0xFF DUP3 DUP7 KECCAK256 SLOAD AND ISZERO PUSH2 0x5A5 JUMPI PUSH32 0x41A3FFFBDA0F1C9E28BD52AE72187B3406590146B6CA8F19961D2250566EFD16 DUP6 MSTORE PUSH1 0x5 DUP4 MSTORE DUP2 DUP6 KECCAK256 CALLER DUP7 MSTORE DUP4 MSTORE PUSH1 0xFF DUP3 DUP7 KECCAK256 SLOAD AND DUP1 ISZERO PUSH2 0x589 JUMPI JUMPDEST ISZERO PUSH2 0x555 JUMPI DUP4 DUP6 MSTORE PUSH1 0xA DUP4 MSTORE DUP2 DUP6 KECCAK256 DUP1 SLOAD PUSH1 0xFF NOT AND SWAP1 SSTORE PUSH1 0xB SLOAD DUP1 ISZERO PUSH2 0x542 JUMPI PUSH32 0xBF62ED977DBE8FAC296246C481DA9D7398F13C289ED4F178507B32D16A25F3AF SWAP4 SWAP3 SWAP2 DUP6 SWAP2 PUSH1 0x0 NOT ADD PUSH1 0xB SSTORE DUP2 DUP8 MSTORE DUP7 DUP5 MSTORE DUP3 DUP1 DUP9 KECCAK256 SLOAD DUP1 PUSH2 0x503 JUMPI JUMPDEST POP POP POP POP MLOAD TIMESTAMP DUP2 MSTORE LOG2 PUSH1 0x1 PUSH1 0x0 DUP1 MLOAD PUSH1 0x20 PUSH2 0x1B3A DUP4 CODECOPY DUP2 MLOAD SWAP2 MSTORE SSTORE DUP1 RETURN JUMPDEST PUSH2 0x52E DUP2 PUSH32 0xCCBEA4088A3B7AE9CA2D15FAB9A9742A4075B4D7247768A1EECEA917565ABA00 SWAP5 PUSH2 0x1941 JUMP JUMPDEST DUP2 MLOAD SWAP1 DUP2 MSTORE TIMESTAMP DUP7 DUP3 ADD MSTORE LOG2 DUP4 DUP7 DUP3 DUP2 PUSH2 0x4E5 JUMP JUMPDEST PUSH4 0x4E487B71 PUSH1 0xE0 SHL DUP7 MSTORE PUSH1 0x11 DUP8 MSTORE PUSH1 0x24 DUP7 REVERT JUMPDEST DUP2 MLOAD PUSH3 0x461BCD PUSH1 0xE5 SHL DUP2 MSTORE DUP1 DUP8 ADD DUP5 SWAP1 MSTORE PUSH1 0xE PUSH1 0x24 DUP3 ADD MSTORE PUSH14 0x139BDD08185D5D1A1BDC9A5E9959 PUSH1 0x92 SHL PUSH1 0x44 DUP3 ADD MSTORE PUSH1 0x64 SWAP1 REVERT JUMPDEST POP DUP5 DUP1 MSTORE PUSH1 0x5 DUP4 MSTORE DUP2 DUP6 KECCAK256 CALLER DUP7 MSTORE DUP4 MSTORE PUSH1 0xFF DUP3 DUP7 KECCAK256 SLOAD AND PUSH2 0x487 JUMP JUMPDEST DUP2 MLOAD PUSH3 0x461BCD PUSH1 0xE5 SHL DUP2 MSTORE DUP1 DUP8 ADD DUP5 SWAP1 MSTORE PUSH1 0xC PUSH1 0x24 DUP3 ADD MSTORE PUSH12 0x2737BA10309036B2B6B132B9 PUSH1 0xA1 SHL PUSH1 0x44 DUP3 ADD MSTORE PUSH1 0x64 SWAP1 REVERT JUMPDEST DUP2 MLOAD PUSH4 0xAACF746B PUSH1 0xE0 SHL DUP2 MSTORE DUP7 SWAP1 REVERT JUMPDEST POP POP CALLVALUE PUSH2 0x242 JUMPI PUSH1 0x20 CALLDATASIZE PUSH1 0x3 NOT ADD SLT PUSH2 0x242 JUMPI PUSH1 0x20 SWAP2 DUP2 SWAP1 PUSH1 0x1 PUSH1 0x1 PUSH1 0xA0 SHL SUB PUSH2 0x60F PUSH2 0x1621 JUMP JUMPDEST AND DUP2 MSTORE PUSH1 0x6 DUP5 MSTORE KECCAK256 SLOAD SWAP1 MLOAD SWAP1 DUP2 MSTORE RETURN JUMPDEST POP POP CALLVALUE PUSH2 0x242 JUMPI DUP2 PUSH1 0x3 NOT CALLDATASIZE ADD SLT PUSH2 0x242 JUMPI PUSH1 0x20 SWAP1 PUSH1 0xFF PUSH1 0x7 SLOAD AND SWAP1 MLOAD SWAP1 ISZERO ISZERO DUP2 MSTORE RETURN JUMPDEST POP POP CALLVALUE PUSH2 0x242 JUMPI PUSH1 0x20 CALLDATASIZE PUSH1 0x3 NOT ADD SLT PUSH2 0x242 JUMPI PUSH1 0x20 SWAP2 PUSH1 0x1 PUSH1 0x1 PUSH1 0xA0 SHL SUB PUSH2 0x669 PUSH2 0x1621 JUMP JUMPDEST AND DUP2 MSTORE PUSH1 0xA DUP4 MSTORE DUP2 DUP2 KECCAK256 SLOAD PUSH1 0xFF AND ISZERO PUSH2 0x68A JUMPI POP PUSH1 0xFF PUSH1 0x1 SWAP2 JUMPDEST MLOAD SWAP2 AND DUP2 MSTORE RETURN JUMPDEST PUSH1 0xFF SWAP1 SWAP2 PUSH2 0x683 JUMP JUMPDEST SWAP2 SWAP1 POP CALLVALUE PUSH2 0x382 JUMPI DUP1 PUSH1 0x3 NOT CALLDATASIZE ADD SLT PUSH2 0x382 JUMPI PUSH2 0x6AE PUSH2 0x1621 JUMP JUMPDEST PUSH1 0x24 CALLDATALOAD SWAP1 PUSH2 0x6BA PUSH2 0x1706 JUMP JUMPDEST PUSH2 0x6C2 PUSH2 0x1911 JUMP JUMPDEST PUSH1 0x1 PUSH1 0x1 PUSH1 0xA0 SHL SUB AND SWAP3 DUP4 ISZERO PUSH2 0x760 JUMPI DUP4 DUP6 MSTORE DUP5 PUSH1 0x20 MSTORE DUP2 PUSH2 0x6F0 DUP5 DUP8 KECCAK256 SLOAD PUSH1 0x6 PUSH1 0x20 MSTORE DUP6 DUP9 KECCAK256 SLOAD SWAP1 PUSH2 0x19E7 JUMP JUMPDEST LT PUSH2 0x752 JUMPI POP SWAP1 PUSH32 0xD741E738A23FD18A03A26522320D9FC6CAC1FED483E215EA9150FBC2FC43385D SWAP2 DUP4 DUP6 MSTORE PUSH1 0x6 PUSH1 0x20 MSTORE DUP2 DUP6 KECCAK256 PUSH2 0x72F DUP3 DUP3 SLOAD PUSH2 0x187E JUMP JUMPDEST SWAP1 SSTORE DUP2 MLOAD SWAP1 DUP2 MSTORE TIMESTAMP PUSH1 0x20 DUP3 ADD MSTORE LOG2 PUSH1 0x1 PUSH1 0x0 DUP1 MLOAD PUSH1 0x20 PUSH2 0x1B3A DUP4 CODECOPY DUP2 MLOAD SWAP2 MSTORE SSTORE DUP1 RETURN JUMPDEST DUP3 MLOAD PUSH4 0x2F992ABF PUSH1 0xE0 SHL DUP2 MSTORE REVERT JUMPDEST DUP3 MLOAD PUSH4 0xAACF746B PUSH1 0xE0 SHL DUP2 MSTORE REVERT JUMPDEST POP POP CALLVALUE PUSH2 0x242 JUMPI DUP2 PUSH1 0x3 NOT CALLDATASIZE ADD SLT PUSH2 0x242 JUMPI PUSH1 0x9 SLOAD SWAP1 MLOAD PUSH1 0x1 PUSH1 0x1 PUSH1 0xA0 SHL SUB SWAP1 SWAP2 AND DUP2 MSTORE PUSH1 0x20 SWAP1 RETURN JUMPDEST POP POP CALLVALUE PUSH2 0x242 JUMPI DUP2 PUSH1 0x3 NOT CALLDATASIZE ADD SLT PUSH2 0x242 JUMPI PUSH1 0x20 SWAP1 MLOAD PUSH9 0x56BC75E2D63100000 DUP2 MSTORE RETURN JUMPDEST SWAP1 POP CALLVALUE PUSH2 0x382 JUMPI DUP2 PUSH1 0x3 NOT CALLDATASIZE ADD SLT PUSH2 0x382 JUMPI SWAP2 PUSH2 0x7FB SWAP3 PUSH2 0x7DA PUSH2 0x1621 JUMP JUMPDEST SWAP2 PUSH1 0x24 CALLDATALOAD SWAP5 DUP6 SWAP2 CALLER DUP2 MSTORE DUP1 PUSH1 0x20 MSTORE DUP6 DUP1 DUP3 KECCAK256 SLOAD SWAP2 PUSH1 0x6 PUSH1 0x20 MSTORE KECCAK256 SLOAD SWAP1 PUSH2 0x19E7 JUMP JUMPDEST LT PUSH2 0x752 JUMPI POP PUSH1 0x20 SWAP3 PUSH2 0x80E SWAP2 CALLER PUSH2 0x1A44 JUMP JUMPDEST MLOAD PUSH1 0x1 DUP2 MSTORE RETURN JUMPDEST POP POP CALLVALUE PUSH2 0x242 JUMPI DUP2 PUSH1 0x3 NOT CALLDATASIZE ADD SLT PUSH2 0x242 JUMPI MLOAD SWAP1 DUP2 MSTORE PUSH1 0x20 SWAP1 RETURN JUMPDEST SWAP2 SWAP1 POP CALLVALUE PUSH2 0x382 JUMPI DUP1 PUSH1 0x3 NOT CALLDATASIZE ADD SLT PUSH2 0x382 JUMPI PUSH2 0x84B PUSH2 0x1621 JUMP JUMPDEST PUSH1 0x24 CALLDATALOAD SWAP1 PUSH32 0x3C11D16CBAFFD01DF69CE1C404F6340EE057498F5F00246190EA54220576A848 DUP1 DUP7 MSTORE PUSH1 0x5 PUSH1 0x20 MSTORE DUP4 DUP7 KECCAK256 CALLER DUP8 MSTORE PUSH1 0x20 MSTORE PUSH1 0xFF DUP5 DUP8 KECCAK256 SLOAD AND ISZERO PUSH2 0x923 JUMPI POP PUSH2 0x896 PUSH2 0x1911 JUMP JUMPDEST PUSH1 0x1 PUSH1 0x1 PUSH1 0xA0 SHL SUB DUP2 AND SWAP4 DUP5 ISZERO PUSH2 0x915 JUMPI DUP5 DUP7 MSTORE DUP6 PUSH1 0x20 MSTORE DUP3 DUP5 DUP8 KECCAK256 SLOAD LT PUSH2 0x907 JUMPI POP SWAP1 PUSH2 0x8E6 DUP2 PUSH32 0xCCBEA4088A3B7AE9CA2D15FAB9A9742A4075B4D7247768A1EECEA917565ABA00 SWAP5 SWAP4 PUSH2 0x1941 JUMP JUMPDEST DUP2 MLOAD SWAP1 DUP2 MSTORE TIMESTAMP PUSH1 0x20 DUP3 ADD MSTORE LOG2 PUSH1 0x1 PUSH1 0x0 DUP1 MLOAD PUSH1 0x20 PUSH2 0x1B3A DUP4 CODECOPY DUP2 MLOAD SWAP2 MSTORE SSTORE DUP1 RETURN JUMPDEST DUP4 MLOAD PUSH4 0x2F100E03 PUSH1 0xE1 SHL DUP2 MSTORE REVERT JUMPDEST DUP4 MLOAD PUSH4 0xAACF746B PUSH1 0xE0 SHL DUP2 MSTORE REVERT JUMPDEST DUP4 MLOAD PUSH4 0xE2517D3F PUSH1 0xE0 SHL DUP2 MSTORE CALLER DUP2 DUP8 ADD MSTORE PUSH1 0x24 DUP2 ADD SWAP2 SWAP1 SWAP2 MSTORE PUSH1 0x44 SWAP1 REVERT JUMPDEST SWAP2 SWAP1 POP CALLVALUE PUSH2 0x382 JUMPI DUP1 PUSH1 0x3 NOT CALLDATASIZE ADD SLT PUSH2 0x382 JUMPI PUSH2 0x95C PUSH2 0x1621 JUMP JUMPDEST PUSH1 0x24 CALLDATALOAD SWAP1 PUSH2 0x968 PUSH2 0x1706 JUMP JUMPDEST PUSH2 0x970 PUSH2 0x1911 JUMP JUMPDEST PUSH1 0x1 PUSH1 0x1 PUSH1 0xA0 SHL SUB AND SWAP3 DUP4 ISZERO PUSH2 0x760 JUMPI DUP4 DUP6 MSTORE PUSH1 0x6 PUSH1 0x20 MSTORE DUP2 DUP4 DUP7 KECCAK256 SLOAD LT PUSH2 0x9CC JUMPI POP SWAP1 PUSH32 0x89882AD382A3742D4DB24E4DABC5000C5852AED762904DB28442E4E1630A1D07 SWAP2 DUP4 DUP6 MSTORE PUSH1 0x6 PUSH1 0x20 MSTORE DUP2 DUP6 KECCAK256 PUSH2 0x72F DUP3 DUP3 SLOAD PUSH2 0x19E7 JUMP JUMPDEST DUP3 MLOAD PUSH4 0x713CA3C1 PUSH1 0xE1 SHL DUP2 MSTORE REVERT JUMPDEST POP POP CALLVALUE PUSH2 0x242 JUMPI DUP2 PUSH1 0x3 NOT CALLDATASIZE ADD SLT PUSH2 0x242 JUMPI PUSH1 0x20 SWAP1 PUSH1 0xB SLOAD SWAP1 MLOAD SWAP1 DUP2 MSTORE RETURN JUMPDEST DUP4 DUP4 CALLVALUE PUSH2 0x242 JUMPI DUP2 PUSH1 0x3 NOT CALLDATASIZE ADD SLT PUSH2 0x242 JUMPI DUP1 MLOAD SWAP1 DUP3 DUP5 SLOAD PUSH1 0x1 DUP2 DUP2 SHR SWAP1 DUP1 DUP4 AND SWAP3 DUP4 ISZERO PUSH2 0xB0E JUMPI JUMPDEST PUSH1 0x20 SWAP4 DUP5 DUP5 LT DUP2 EQ PUSH2 0xAFB JUMPI DUP4 DUP9 MSTORE SWAP1 DUP2 ISZERO PUSH2 0xADF JUMPI POP PUSH1 0x1 EQ PUSH2 0xA8A JUMPI JUMPDEST POP POP POP DUP3 SWAP1 SUB PUSH1 0x1F ADD PUSH1 0x1F NOT AND DUP3 ADD SWAP3 PUSH8 0xFFFFFFFFFFFFFFFF DUP5 GT DUP4 DUP6 LT OR PUSH2 0xA77 JUMPI POP DUP3 SWAP2 DUP3 PUSH2 0xA73 SWAP3 MSTORE DUP3 PUSH2 0x15D8 JUMP JUMPDEST SUB SWAP1 RETURN JUMPDEST PUSH4 0x4E487B71 PUSH1 0xE0 SHL DUP2 MSTORE PUSH1 0x41 DUP6 MSTORE PUSH1 0x24 SWAP1 REVERT JUMPDEST DUP8 DUP8 MSTORE SWAP2 SWAP3 POP DUP6 SWAP2 DUP4 PUSH32 0x8A35ACFBC15FF81A39AE7D344FD709F28E8600B4AA8C65C6B64BFE7FE36BD19B JUMPDEST DUP4 DUP6 LT PUSH2 0xACB JUMPI POP POP POP POP DUP4 ADD ADD DUP6 DUP1 DUP1 PUSH2 0xA41 JUMP JUMPDEST DUP1 SLOAD DUP9 DUP7 ADD DUP4 ADD MSTORE SWAP4 ADD SWAP3 DUP5 SWAP1 DUP3 ADD PUSH2 0xAB5 JUMP JUMPDEST PUSH1 0xFF NOT AND DUP8 DUP6 ADD MSTORE POP POP ISZERO ISZERO PUSH1 0x5 SHL DUP5 ADD ADD SWAP1 POP DUP6 DUP1 DUP1 PUSH2 0xA41 JUMP JUMPDEST PUSH4 0x4E487B71 PUSH1 0xE0 SHL DUP10 MSTORE PUSH1 0x22 DUP11 MSTORE PUSH1 0x24 DUP10 REVERT JUMPDEST SWAP2 PUSH1 0x7F AND SWAP2 PUSH2 0xA22 JUMP JUMPDEST SWAP1 POP CALLVALUE PUSH2 0x382 JUMPI DUP2 PUSH1 0x3 NOT CALLDATASIZE ADD SLT PUSH2 0x382 JUMPI DUP2 PUSH1 0x20 SWAP4 PUSH1 0xFF SWAP3 PUSH2 0xB39 PUSH2 0x163C JUMP JUMPDEST SWAP1 CALLDATALOAD DUP3 MSTORE PUSH1 0x5 DUP7 MSTORE DUP3 DUP3 KECCAK256 PUSH1 0x1 PUSH1 0x1 PUSH1 0xA0 SHL SUB SWAP1 SWAP2 AND DUP3 MSTORE DUP6 MSTORE KECCAK256 SLOAD SWAP2 MLOAD SWAP2 AND ISZERO ISZERO DUP2 MSTORE RETURN JUMPDEST DUP4 DUP4 CALLVALUE PUSH2 0x242 JUMPI PUSH1 0x20 DUP1 PUSH1 0x3 NOT CALLDATASIZE ADD SLT PUSH2 0x382 JUMPI PUSH2 0xB7B PUSH2 0x1621 JUMP JUMPDEST SWAP2 PUSH32 0x41A3FFFBDA0F1C9E28BD52AE72187B3406590146B6CA8F19961D2250566EFD16 DUP1 DUP6 MSTORE PUSH1 0x5 DUP4 MSTORE DUP2 DUP6 KECCAK256 CALLER DUP7 MSTORE DUP4 MSTORE PUSH1 0xFF DUP3 DUP7 KECCAK256 SLOAD AND ISZERO PUSH2 0xCA6 JUMPI POP PUSH2 0xBC1 PUSH2 0x1911 JUMP JUMPDEST PUSH1 0x1 PUSH1 0x1 PUSH1 0xA0 SHL SUB DUP4 AND SWAP3 DUP4 ISZERO PUSH2 0x5D7 JUMPI DUP4 DUP6 MSTORE PUSH1 0xA DUP4 MSTORE PUSH2 0xBE9 PUSH1 0xFF DUP4 DUP8 KECCAK256 SLOAD AND ISZERO PUSH2 0x19F4 JUMP JUMPDEST DUP4 DUP6 MSTORE PUSH1 0xA DUP4 MSTORE DUP2 DUP6 KECCAK256 PUSH1 0x1 PUSH1 0xFF NOT DUP3 SLOAD AND OR SWAP1 SSTORE PUSH2 0xC09 PUSH1 0xB SLOAD PUSH2 0x1A35 JUMP JUMPDEST PUSH1 0xB SSTORE PUSH1 0x2 SLOAD PUSH9 0x56BC75E2D63100000 SWAP1 DUP2 DUP2 ADD DUP1 SWAP2 GT PUSH2 0xC93 JUMPI SWAP2 DUP4 DUP7 SWAP3 PUSH10 0xD3C21BCECCEDA1000000 PUSH32 0x67E0244E28040FEC15240CD4B6C04C776A2A0278CAEF23B59E8ADA1DF31F7689 SWAP8 SWAP7 SWAP6 GT ISZERO PUSH2 0xC7B JUMPI POP POP POP POP MLOAD TIMESTAMP DUP2 MSTORE LOG2 PUSH1 0x1 PUSH1 0x0 DUP1 MLOAD PUSH1 0x20 PUSH2 0x1B3A DUP4 CODECOPY DUP2 MLOAD SWAP2 MSTORE SSTORE DUP1 RETURN JUMPDEST PUSH2 0x52E PUSH1 0x0 DUP1 MLOAD PUSH1 0x20 PUSH2 0x1AFA DUP4 CODECOPY DUP2 MLOAD SWAP2 MSTORE SWAP4 PUSH2 0x18A1 JUMP JUMPDEST PUSH4 0x4E487B71 PUSH1 0xE0 SHL DUP8 MSTORE PUSH1 0x11 DUP9 MSTORE PUSH1 0x24 DUP8 REVERT JUMPDEST SWAP1 MLOAD PUSH4 0xE2517D3F PUSH1 0xE0 SHL DUP2 MSTORE CALLER DUP2 DUP8 ADD MSTORE PUSH1 0x24 DUP2 ADD SWAP2 SWAP1 SWAP2 MSTORE PUSH1 0x44 SWAP1 REVERT JUMPDEST POP POP CALLVALUE PUSH2 0x242 JUMPI PUSH1 0x20 CALLDATASIZE PUSH1 0x3 NOT ADD SLT PUSH2 0x242 JUMPI PUSH1 0x20 SWAP2 DUP2 SWAP1 PUSH1 0x1 PUSH1 0x1 PUSH1 0xA0 SHL SUB PUSH2 0xCEC PUSH2 0x1621 JUMP JUMPDEST AND DUP2 MSTORE DUP1 DUP5 MSTORE KECCAK256 SLOAD SWAP1 MLOAD SWAP1 DUP2 MSTORE RETURN JUMPDEST POP POP CALLVALUE PUSH2 0x242 JUMPI PUSH1 0x20 CALLDATASIZE PUSH1 0x3 NOT ADD SLT PUSH2 0x242 JUMPI PUSH1 0x20 SWAP2 PUSH2 0xD3D SWAP1 PUSH1 0x1 PUSH1 0x1 PUSH1 0xA0 SHL SUB PUSH2 0xD25 PUSH2 0x1621 JUMP JUMPDEST AND DUP2 MSTORE DUP1 DUP5 MSTORE DUP3 DUP1 DUP3 KECCAK256 SLOAD SWAP2 PUSH1 0x6 DUP7 MSTORE KECCAK256 SLOAD SWAP1 PUSH2 0x19E7 JUMP JUMPDEST SWAP1 MLOAD SWAP1 DUP2 MSTORE RETURN JUMPDEST POP POP CALLVALUE PUSH2 0x242 JUMPI PUSH1 0x20 CALLDATASIZE PUSH1 0x3 NOT ADD SLT PUSH2 0x242 JUMPI PUSH1 0x20 SWAP2 PUSH1 0xFF SWAP1 DUP3 SWAP1 PUSH1 0x1 PUSH1 0x1 PUSH1 0xA0 SHL SUB PUSH2 0xD6F PUSH2 0x1621 JUMP JUMPDEST AND DUP2 MSTORE PUSH1 0xA DUP6 MSTORE KECCAK256 SLOAD AND SWAP1 MLOAD SWAP1 ISZERO ISZERO DUP2 MSTORE RETURN JUMPDEST SWAP1 POP CALLVALUE PUSH2 0x382 JUMPI DUP3 PUSH1 0x3 NOT CALLDATASIZE ADD SLT PUSH2 0x382 JUMPI PUSH2 0xD9C PUSH2 0x1911 JUMP JUMPDEST CALLER ISZERO PUSH2 0xE89 JUMPI CALLER DUP4 MSTORE PUSH1 0xA PUSH1 0x20 MSTORE PUSH2 0xDBA PUSH1 0xFF DUP4 DUP6 KECCAK256 SLOAD AND ISZERO PUSH2 0x19F4 JUMP JUMPDEST CALLER DUP4 MSTORE PUSH1 0xA PUSH1 0x20 MSTORE DUP2 DUP4 KECCAK256 PUSH1 0x1 PUSH1 0xFF NOT DUP3 SLOAD AND OR SWAP1 SSTORE PUSH2 0xDDB PUSH1 0xB SLOAD PUSH2 0x1A35 JUMP JUMPDEST PUSH1 0xB SSTORE PUSH1 0x2 SLOAD PUSH9 0x56BC75E2D63100000 SWAP2 DUP3 DUP3 ADD DUP1 SWAP3 GT PUSH2 0xE76 JUMPI POP PUSH10 0xD3C21BCECCEDA1000000 LT ISZERO PUSH2 0xE49 JUMPI JUMPDEST POP MLOAD TIMESTAMP DUP2 MSTORE PUSH32 0x67E0244E28040FEC15240CD4B6C04C776A2A0278CAEF23B59E8ADA1DF31F7689 PUSH1 0x20 CALLER SWAP3 LOG2 PUSH1 0x1 PUSH1 0x0 DUP1 MLOAD PUSH1 0x20 PUSH2 0x1B3A DUP4 CODECOPY DUP2 MLOAD SWAP2 MSTORE SSTORE DUP1 RETURN JUMPDEST PUSH2 0xE52 CALLER PUSH2 0x18A1 JUMP JUMPDEST DUP2 MLOAD SWAP1 DUP2 MSTORE TIMESTAMP PUSH1 0x20 DUP3 ADD MSTORE PUSH1 0x0 DUP1 MLOAD PUSH1 0x20 PUSH2 0x1AFA DUP4 CODECOPY DUP2 MLOAD SWAP2 MSTORE DUP3 CALLER SWAP3 LOG2 CODESIZE PUSH2 0xE09 JUMP JUMPDEST PUSH4 0x4E487B71 PUSH1 0xE0 SHL DUP6 MSTORE PUSH1 0x11 SWAP1 MSTORE PUSH1 0x24 DUP5 REVERT JUMPDEST SWAP1 MLOAD PUSH4 0xAACF746B PUSH1 0xE0 SHL DUP2 MSTORE REVERT JUMPDEST SWAP2 SWAP1 POP CALLVALUE PUSH2 0x382 JUMPI DUP1 PUSH1 0x3 NOT CALLDATASIZE ADD SLT PUSH2 0x382 JUMPI PUSH2 0xEB2 PUSH2 0x1621 JUMP JUMPDEST PUSH1 0x24 CALLDATALOAD SWAP1 PUSH2 0xEBE PUSH2 0x1652 JUMP JUMPDEST PUSH2 0xEC6 PUSH2 0x1911 JUMP JUMPDEST PUSH1 0x1 PUSH1 0x1 PUSH1 0xA0 SHL SUB AND SWAP3 DUP4 ISZERO PUSH2 0x760 JUMPI PUSH1 0x2 SLOAD SWAP1 PUSH10 0xD3C21BCECCEDA1000000 PUSH2 0xEEF DUP5 DUP5 PUSH2 0x187E JUMP JUMPDEST GT PUSH2 0xF5D JUMPI POP SWAP1 PUSH2 0xF10 DUP2 PUSH1 0x0 DUP1 MLOAD PUSH1 0x20 PUSH2 0x1AFA DUP4 CODECOPY DUP2 MLOAD SWAP2 MSTORE SWAP5 SWAP4 PUSH2 0x187E JUMP JUMPDEST PUSH1 0x2 SSTORE DUP4 DUP6 MSTORE DUP5 PUSH1 0x20 MSTORE DUP2 DUP6 KECCAK256 DUP2 DUP2 SLOAD ADD SWAP1 SSTORE DUP4 DUP6 PUSH1 0x0 DUP1 MLOAD PUSH1 0x20 PUSH2 0x1B1A DUP4 CODECOPY DUP2 MLOAD SWAP2 MSTORE PUSH1 0x20 DUP6 MLOAD DUP6 DUP2 MSTORE LOG3 DUP2 MLOAD SWAP1 DUP2 MSTORE TIMESTAMP PUSH1 0x20 DUP3 ADD MSTORE LOG2 PUSH1 0x1 PUSH1 0x0 DUP1 MLOAD PUSH1 0x20 PUSH2 0x1B3A DUP4 CODECOPY DUP2 MLOAD SWAP2 MSTORE SSTORE DUP1 RETURN JUMPDEST DUP4 MLOAD PUSH4 0x2E1198F1 PUSH1 0xE1 SHL DUP2 MSTORE REVERT JUMPDEST DUP4 DUP4 CALLVALUE PUSH2 0x242 JUMPI DUP1 PUSH1 0x3 NOT CALLDATASIZE ADD SLT PUSH2 0x242 JUMPI PUSH2 0xF85 PUSH2 0x163C JUMP JUMPDEST SWAP1 CALLER PUSH1 0x1 PUSH1 0x1 PUSH1 0xA0 SHL SUB DUP4 AND SUB PUSH2 0xFA2 JUMPI POP PUSH2 0x3C2 SWAP2 SWAP3 CALLDATALOAD PUSH2 0x1807 JUMP JUMPDEST MLOAD PUSH4 0x334BD919 PUSH1 0xE1 SHL DUP2 MSTORE DUP4 SWAP1 REVERT JUMPDEST POP POP CALLVALUE PUSH2 0x242 JUMPI DUP2 PUSH1 0x3 NOT CALLDATASIZE ADD SLT PUSH2 0x242 JUMPI PUSH1 0x20 SWAP1 MLOAD PUSH10 0xD3C21BCECCEDA1000000 DUP2 MSTORE RETURN JUMPDEST POP POP CALLVALUE PUSH2 0x242 JUMPI DUP2 PUSH1 0x3 NOT CALLDATASIZE ADD SLT PUSH2 0x242 JUMPI PUSH1 0x20 SWAP1 MLOAD PUSH1 0x12 DUP2 MSTORE RETURN JUMPDEST SWAP2 SWAP1 POP CALLVALUE PUSH2 0x382 JUMPI DUP1 PUSH1 0x3 NOT CALLDATASIZE ADD SLT PUSH2 0x382 JUMPI PUSH2 0x3C2 SWAP2 CALLDATALOAD PUSH2 0x1017 PUSH1 0x1 PUSH2 0x3AB PUSH2 0x163C JUMP JUMPDEST PUSH2 0x1787 JUMP JUMPDEST SWAP1 POP CALLVALUE PUSH2 0x382 JUMPI PUSH1 0x20 CALLDATASIZE PUSH1 0x3 NOT ADD SLT PUSH2 0x382 JUMPI PUSH2 0x1037 PUSH2 0x1621 JUMP JUMPDEST SWAP1 PUSH2 0x1040 PUSH2 0x16CC JUMP JUMPDEST PUSH1 0x1 PUSH1 0x1 PUSH1 0xA0 SHL SUB SWAP2 DUP3 AND SWAP3 DUP4 ISZERO PUSH2 0x375 JUMPI PUSH1 0x8 SLOAD SWAP3 DUP4 AND PUSH2 0x368 JUMPI POP POP PUSH1 0x1 PUSH1 0x1 PUSH1 0xA0 SHL SUB NOT AND DUP2 OR PUSH1 0x8 SSTORE PUSH32 0x2EDE59EDE14FC8A452F4D9C602AFEF004380E4A5BF668B99CA6580878A80A5C DUP3 DUP1 LOG2 DUP1 RETURN JUMPDEST POP POP CALLVALUE PUSH2 0x242 JUMPI DUP2 PUSH1 0x3 NOT CALLDATASIZE ADD SLT PUSH2 0x242 JUMPI PUSH1 0x20 SWAP1 MLOAD PUSH32 0x3C11D16CBAFFD01DF69CE1C404F6340EE057498F5F00246190EA54220576A848 DUP2 MSTORE RETURN JUMPDEST SWAP1 POP CALLVALUE PUSH2 0x382 JUMPI PUSH1 0x20 CALLDATASIZE PUSH1 0x3 NOT ADD SLT PUSH2 0x382 JUMPI CALLDATALOAD SWAP1 DUP2 ISZERO ISZERO DUP1 SWAP3 SUB PUSH2 0x382 JUMPI PUSH2 0x10F6 PUSH2 0x16CC JUMP JUMPDEST PUSH1 0xFF NOT PUSH1 0x7 SLOAD AND PUSH1 0xFF DUP4 AND OR PUSH1 0x7 SSTORE MLOAD SWAP1 DUP2 MSTORE PUSH32 0x60A5428ECA561D7FC92D217A2F3CA72FA49CE364B20E5CC90110BAE2A4149118 PUSH1 0x20 CALLER SWAP3 LOG2 DUP1 RETURN JUMPDEST SWAP1 POP CALLVALUE PUSH2 0x382 JUMPI PUSH1 0x20 CALLDATASIZE PUSH1 0x3 NOT ADD SLT PUSH2 0x382 JUMPI DUP2 PUSH1 0x20 SWAP4 PUSH1 0x1 SWAP3 CALLDATALOAD DUP2 MSTORE PUSH1 0x5 DUP6 MSTORE KECCAK256 ADD SLOAD SWAP1 MLOAD SWAP1 DUP2 MSTORE RETURN JUMPDEST SWAP2 SWAP1 POP CALLVALUE PUSH2 0x382 JUMPI PUSH1 0x60 CALLDATASIZE PUSH1 0x3 NOT ADD SLT PUSH2 0x382 JUMPI PUSH2 0x1179 PUSH2 0x1621 JUMP JUMPDEST PUSH2 0x1181 PUSH2 0x163C JUMP JUMPDEST PUSH1 0x44 CALLDATALOAD SWAP2 PUSH1 0x1 DUP1 PUSH1 0xA0 SHL SUB DUP2 AND SWAP5 DUP6 DUP8 MSTORE PUSH1 0x20 SWAP6 DUP8 DUP8 MSTORE DUP5 PUSH2 0x11AE DUP8 DUP11 KECCAK256 SLOAD PUSH1 0x6 DUP11 MSTORE DUP9 DUP12 KECCAK256 SLOAD SWAP1 PUSH2 0x19E7 JUMP JUMPDEST LT PUSH2 0x1273 JUMPI DUP1 DUP9 MSTORE PUSH1 0x1 DUP8 MSTORE DUP6 DUP9 KECCAK256 CALLER DUP10 MSTORE DUP8 MSTORE DUP6 DUP9 KECCAK256 SLOAD SWAP2 PUSH1 0x0 NOT DUP4 LT PUSH2 0x11DF JUMPI JUMPDEST POP POP POP SWAP1 PUSH2 0x80E SWAP3 SWAP2 PUSH2 0x1A44 JUMP JUMPDEST DUP6 DUP4 LT PUSH2 0x1247 JUMPI DUP2 ISZERO PUSH2 0x1230 JUMPI CALLER ISZERO PUSH2 0x1219 JUMPI POP SWAP5 DUP5 DUP9 SWAP3 PUSH2 0x80E SWAP8 DUP4 SWAP10 SWAP11 MSTORE PUSH1 0x1 DUP11 MSTORE DUP3 DUP5 KECCAK256 CALLER DUP6 MSTORE DUP11 MSTORE SUB SWAP2 KECCAK256 SSTORE DUP6 SWAP5 SWAP4 CODESIZE DUP1 PUSH2 0x11D1 JUMP JUMPDEST DUP7 MLOAD PUSH4 0x4A1406B1 PUSH1 0xE1 SHL DUP2 MSTORE SWAP1 DUP2 ADD DUP10 SWAP1 MSTORE PUSH1 0x24 SWAP1 REVERT JUMPDEST DUP7 MLOAD PUSH4 0xE602DF05 PUSH1 0xE0 SHL DUP2 MSTORE SWAP1 DUP2 ADD DUP10 SWAP1 MSTORE PUSH1 0x24 SWAP1 REVERT JUMPDEST DUP7 MLOAD PUSH4 0x7DC7A0D9 PUSH1 0xE1 SHL DUP2 MSTORE CALLER SWAP2 DUP2 ADD SWAP2 DUP3 MSTORE PUSH1 0x20 DUP3 ADD SWAP4 SWAP1 SWAP4 MSTORE PUSH1 0x40 DUP2 ADD DUP7 SWAP1 MSTORE DUP3 SWAP2 POP PUSH1 0x60 ADD SUB SWAP1 REVERT JUMPDEST POP DUP5 MLOAD PUSH4 0x2F992ABF PUSH1 0xE0 SHL DUP2 MSTORE REVERT JUMPDEST SWAP1 POP CALLVALUE PUSH2 0x382 JUMPI PUSH1 0x20 CALLDATASIZE PUSH1 0x3 NOT ADD SLT PUSH2 0x382 JUMPI PUSH2 0x129D PUSH2 0x1621 JUMP JUMPDEST PUSH2 0x12A5 PUSH2 0x16CC JUMP JUMPDEST PUSH1 0x1 PUSH1 0x1 PUSH1 0xA0 SHL SUB DUP2 DUP2 AND SWAP4 SWAP1 SWAP3 SWAP1 DUP5 ISZERO PUSH2 0x375 JUMPI PUSH1 0x7 SLOAD SWAP4 DUP5 PUSH1 0x8 SHR AND PUSH2 0x368 JUMPI POP POP PUSH2 0x100 PUSH1 0x1 PUSH1 0xA8 SHL SUB NOT SWAP1 SWAP2 AND PUSH1 0x8 SWAP2 SWAP1 SWAP2 SHL PUSH2 0x100 PUSH1 0x1 PUSH1 0xA8 SHL SUB AND OR PUSH1 0x7 SSTORE PUSH32 0xE7AE49F883C825B05681B3E00E8BE6FDEA9ED2A8A45E4C6ECB9390FC44CCE615 DUP3 DUP1 LOG2 DUP1 RETURN JUMPDEST POP POP CALLVALUE PUSH2 0x242 JUMPI DUP2 PUSH1 0x3 NOT CALLDATASIZE ADD SLT PUSH2 0x242 JUMPI PUSH1 0x7 SLOAD SWAP1 MLOAD PUSH1 0x8 SWAP2 SWAP1 SWAP2 SHR PUSH1 0x1 PUSH1 0x1 PUSH1 0xA0 SHL SUB AND DUP2 MSTORE PUSH1 0x20 SWAP1 RETURN JUMPDEST SWAP2 SWAP1 POP CALLVALUE PUSH2 0x382 JUMPI PUSH1 0x20 CALLDATASIZE PUSH1 0x3 NOT ADD SLT PUSH2 0x382 JUMPI PUSH2 0x135A PUSH2 0x1621 JUMP JUMPDEST SWAP2 PUSH2 0x1363 PUSH2 0x1652 JUMP JUMPDEST PUSH2 0x136B PUSH2 0x1911 JUMP JUMPDEST PUSH1 0x1 PUSH1 0x1 PUSH1 0xA0 SHL SUB DUP4 AND SWAP3 DUP4 ISZERO PUSH2 0x13D3 JUMPI PUSH1 0x2 SLOAD SWAP2 PUSH9 0x56BC75E2D63100000 SWAP3 DUP4 DUP2 ADD DUP1 SWAP2 GT PUSH2 0x13C0 JUMPI PUSH10 0xD3C21BCECCEDA1000000 LT PUSH2 0xF5D JUMPI POP SWAP1 PUSH2 0x8E6 PUSH1 0x0 DUP1 MLOAD PUSH1 0x20 PUSH2 0x1AFA DUP4 CODECOPY DUP2 MLOAD SWAP2 MSTORE SWAP4 SWAP3 PUSH2 0x18A1 JUMP JUMPDEST PUSH4 0x4E487B71 PUSH1 0xE0 SHL DUP8 MSTORE PUSH1 0x11 DUP3 MSTORE PUSH1 0x24 DUP8 REVERT JUMPDEST POP SWAP1 MLOAD PUSH4 0xAACF746B PUSH1 0xE0 SHL DUP2 MSTORE REVERT JUMPDEST POP POP CALLVALUE PUSH2 0x242 JUMPI DUP2 PUSH1 0x3 NOT CALLDATASIZE ADD SLT PUSH2 0x242 JUMPI PUSH1 0x20 SWAP1 PUSH1 0x2 SLOAD SWAP1 MLOAD SWAP1 DUP2 MSTORE RETURN JUMPDEST SWAP1 POP CALLVALUE PUSH2 0x382 JUMPI DUP2 PUSH1 0x3 NOT CALLDATASIZE ADD SLT PUSH2 0x382 JUMPI PUSH2 0x141B PUSH2 0x1621 JUMP JUMPDEST PUSH1 0x24 CALLDATALOAD SWAP1 CALLER ISZERO PUSH2 0x1494 JUMPI PUSH1 0x1 PUSH1 0x1 PUSH1 0xA0 SHL SUB AND SWAP2 DUP3 ISZERO PUSH2 0x147D JUMPI POP DUP1 DUP4 PUSH1 0x20 SWAP6 CALLER DUP2 MSTORE PUSH1 0x1 DUP8 MSTORE DUP2 DUP2 KECCAK256 DUP6 DUP3 MSTORE DUP8 MSTORE KECCAK256 SSTORE DUP3 MLOAD SWAP1 DUP2 MSTORE PUSH32 0x8C5BE1E5EBEC7D5BD14F71427D1E84F3DD0314C0F7B2291E5B200AC8C7C3B925 DUP5 CALLER SWAP3 LOG3 MLOAD PUSH1 0x1 DUP2 MSTORE RETURN JUMPDEST DUP4 MLOAD PUSH4 0x4A1406B1 PUSH1 0xE1 SHL DUP2 MSTORE SWAP1 DUP2 ADD DUP6 SWAP1 MSTORE PUSH1 0x24 SWAP1 REVERT JUMPDEST DUP4 MLOAD PUSH4 0xE602DF05 PUSH1 0xE0 SHL DUP2 MSTORE DUP1 DUP5 ADD DUP7 SWAP1 MSTORE PUSH1 0x24 SWAP1 REVERT JUMPDEST DUP4 DUP4 CALLVALUE PUSH2 0x242 JUMPI DUP2 PUSH1 0x3 NOT CALLDATASIZE ADD SLT PUSH2 0x242 JUMPI DUP1 MLOAD SWAP1 DUP3 PUSH1 0x3 SLOAD PUSH1 0x1 DUP2 DUP2 SHR SWAP1 DUP1 DUP4 AND SWAP3 DUP4 ISZERO PUSH2 0x157B JUMPI JUMPDEST PUSH1 0x20 SWAP4 DUP5 DUP5 LT DUP2 EQ PUSH2 0xAFB JUMPI DUP4 DUP9 MSTORE SWAP1 DUP2 ISZERO PUSH2 0xADF JUMPI POP PUSH1 0x1 EQ PUSH2 0x1525 JUMPI POP POP POP DUP3 SWAP1 SUB PUSH1 0x1F ADD PUSH1 0x1F NOT AND DUP3 ADD SWAP3 PUSH8 0xFFFFFFFFFFFFFFFF DUP5 GT DUP4 DUP6 LT OR PUSH2 0xA77 JUMPI POP DUP3 SWAP2 DUP3 PUSH2 0xA73 SWAP3 MSTORE DUP3 PUSH2 0x15D8 JUMP JUMPDEST PUSH1 0x3 DUP8 MSTORE SWAP2 SWAP3 POP DUP6 SWAP2 DUP4 PUSH32 0xC2575A0E9E593C00F959F8C92F12DB2869C3395A3B0502D05E2516446F71F85B JUMPDEST DUP4 DUP6 LT PUSH2 0x1567 JUMPI POP POP POP POP DUP4 ADD ADD DUP6 DUP1 DUP1 PUSH2 0xA41 JUMP JUMPDEST DUP1 SLOAD DUP9 DUP7 ADD DUP4 ADD MSTORE SWAP4 ADD SWAP3 DUP5 SWAP1 DUP3 ADD PUSH2 0x1551 JUMP JUMPDEST SWAP2 PUSH1 0x7F AND SWAP2 PUSH2 0x14D5 JUMP JUMPDEST DUP5 SWAP2 CALLVALUE PUSH2 0x382 JUMPI PUSH1 0x20 CALLDATASIZE PUSH1 0x3 NOT ADD SLT PUSH2 0x382 JUMPI CALLDATALOAD PUSH4 0xFFFFFFFF PUSH1 0xE0 SHL DUP2 AND DUP1 SWAP2 SUB PUSH2 0x382 JUMPI PUSH1 0x20 SWAP3 POP PUSH4 0x7965DB0B PUSH1 0xE0 SHL DUP2 EQ SWAP1 DUP2 ISZERO PUSH2 0x15C7 JUMPI JUMPDEST POP ISZERO ISZERO DUP2 MSTORE RETURN JUMPDEST PUSH4 0x1FFC9A7 PUSH1 0xE0 SHL EQ SWAP1 POP DUP4 PUSH2 0x15C0 JUMP JUMPDEST PUSH1 0x20 DUP1 DUP3 MSTORE DUP3 MLOAD DUP2 DUP4 ADD DUP2 SWAP1 MSTORE SWAP1 SWAP4 SWAP3 PUSH1 0x0 JUMPDEST DUP3 DUP2 LT PUSH2 0x160D JUMPI POP POP PUSH1 0x40 SWAP3 SWAP4 POP PUSH1 0x0 DUP4 DUP3 DUP5 ADD ADD MSTORE PUSH1 0x1F DUP1 NOT SWAP2 ADD AND ADD ADD SWAP1 JUMP JUMPDEST DUP2 DUP2 ADD DUP7 ADD MLOAD DUP5 DUP3 ADD PUSH1 0x40 ADD MSTORE DUP6 ADD PUSH2 0x15EB JUMP JUMPDEST PUSH1 0x4 CALLDATALOAD SWAP1 PUSH1 0x1 PUSH1 0x1 PUSH1 0xA0 SHL SUB DUP3 AND DUP3 SUB PUSH2 0x1637 JUMPI JUMP JUMPDEST PUSH1 0x0 DUP1 REVERT JUMPDEST PUSH1 0x24 CALLDATALOAD SWAP1 PUSH1 0x1 PUSH1 0x1 PUSH1 0xA0 SHL SUB DUP3 AND DUP3 SUB PUSH2 0x1637 JUMPI JUMP JUMPDEST CALLER PUSH1 0x0 SWAP1 DUP2 MSTORE PUSH32 0x15A28D26FA1BF736CF7EDC9922607171CCB09C3C73B808E7772A3013E068A522 PUSH1 0x20 MSTORE PUSH1 0x40 SWAP1 KECCAK256 SLOAD PUSH32 0x9F2DF0FED2C77648DE5860A4CC508CD0818C85B8B8A1AB4CEEEF8D981C8956A6 SWAP1 PUSH1 0xFF AND ISZERO PUSH2 0x16AE JUMPI POP JUMP JUMPDEST PUSH1 0x44 SWAP1 PUSH1 0x40 MLOAD SWAP1 PUSH4 0xE2517D3F PUSH1 0xE0 SHL DUP3 MSTORE CALLER PUSH1 0x4 DUP4 ADD MSTORE PUSH1 0x24 DUP3 ADD MSTORE REVERT JUMPDEST CALLER PUSH1 0x0 SWAP1 DUP2 MSTORE PUSH32 0x5B8CCBB9D4D8FB16EA74CE3C29A41F1B461FBDAFF4714A0D9A8EB05499746BC PUSH1 0x20 MSTORE PUSH1 0x40 DUP2 KECCAK256 SLOAD PUSH1 0xFF AND ISZERO PUSH2 0x16AE JUMPI POP JUMP JUMPDEST CALLER PUSH1 0x0 SWAP1 DUP2 MSTORE PUSH31 0xCD24BFC36858366FA9B50EEB52D23B2918DF0151C543A0D3F8B17BF202BF29 PUSH1 0x20 MSTORE PUSH1 0x40 SWAP1 KECCAK256 SLOAD PUSH32 0xAF9A8BB3CBD6B84FBCCEFA71FF73E26E798553C6914585A84886212A46A90279 SWAP1 PUSH1 0xFF AND ISZERO PUSH2 0x16AE JUMPI POP JUMP JUMPDEST DUP1 PUSH1 0x0 MSTORE PUSH1 0x5 PUSH1 0x20 MSTORE PUSH1 0x40 PUSH1 0x0 KECCAK256 CALLER PUSH1 0x0 MSTORE PUSH1 0x20 MSTORE PUSH1 0xFF PUSH1 0x40 PUSH1 0x0 KECCAK256 SLOAD AND ISZERO PUSH2 0x16AE JUMPI POP JUMP JUMPDEST SWAP1 PUSH1 0x0 SWAP2 DUP1 DUP4 MSTORE PUSH1 0x5 PUSH1 0x20 MSTORE PUSH1 0x40 DUP4 KECCAK256 SWAP2 PUSH1 0x1 DUP1 PUSH1 0xA0 SHL SUB AND SWAP2 DUP3 DUP5 MSTORE PUSH1 0x20 MSTORE PUSH1 0xFF PUSH1 0x40 DUP5 KECCAK256 SLOAD AND ISZERO PUSH1 0x0 EQ PUSH2 0x1802 JUMPI DUP1 DUP4 MSTORE PUSH1 0x5 PUSH1 0x20 MSTORE PUSH1 0x40 DUP4 KECCAK256 DUP3 DUP5 MSTORE PUSH1 0x20 MSTORE PUSH1 0x40 DUP4 KECCAK256 PUSH1 0x1 PUSH1 0xFF NOT DUP3 SLOAD AND OR SWAP1 SSTORE PUSH32 0x2F8788117E7EFF1D82E926EC794901D17C78024A50270940304540A733656F0D CALLER SWAP4 DUP1 LOG4 PUSH1 0x1 SWAP1 JUMP JUMPDEST POP POP SWAP1 JUMP JUMPDEST SWAP1 PUSH1 0x0 SWAP2 DUP1 DUP4 MSTORE PUSH1 0x5 PUSH1 0x20 MSTORE PUSH1 0x40 DUP4 KECCAK256 SWAP2 PUSH1 0x1 DUP1 PUSH1 0xA0 SHL SUB AND SWAP2 DUP3 DUP5 MSTORE PUSH1 0x20 MSTORE PUSH1 0xFF PUSH1 0x40 DUP5 KECCAK256 SLOAD AND PUSH1 0x0 EQ PUSH2 0x1802 JUMPI DUP1 DUP4 MSTORE PUSH1 0x5 PUSH1 0x20 MSTORE PUSH1 0x40 DUP4 KECCAK256 DUP3 DUP5 MSTORE PUSH1 0x20 MSTORE PUSH1 0x40 DUP4 KECCAK256 PUSH1 0xFF NOT DUP2 SLOAD AND SWAP1 SSTORE PUSH32 0xF6391F5C32D9C69D2A47EA670B442974B53935D1EDC7FD64EB21E047A839171B CALLER SWAP4 DUP1 LOG4 PUSH1 0x1 SWAP1 JUMP JUMPDEST SWAP2 SWAP1 DUP3 ADD DUP1 SWAP3 GT PUSH2 0x188B JUMPI JUMP JUMPDEST PUSH4 0x4E487B71 PUSH1 0xE0 SHL PUSH1 0x0 MSTORE PUSH1 0x11 PUSH1 0x4 MSTORE PUSH1 0x24 PUSH1 0x0 REVERT JUMPDEST PUSH1 0x1 PUSH1 0x1 PUSH1 0xA0 SHL SUB AND DUP1 ISZERO PUSH2 0x18F8 JUMPI PUSH1 0x2 SLOAD PUSH9 0x56BC75E2D63100000 DUP1 DUP3 ADD DUP1 SWAP3 GT PUSH2 0x188B JUMPI PUSH1 0x20 PUSH1 0x0 DUP1 MLOAD PUSH1 0x20 PUSH2 0x1B1A DUP4 CODECOPY DUP2 MLOAD SWAP2 MSTORE SWAP2 PUSH1 0x0 SWAP4 PUSH1 0x2 SSTORE DUP5 DUP5 MSTORE DUP4 DUP3 MSTORE PUSH1 0x40 DUP5 KECCAK256 DUP2 DUP2 SLOAD ADD SWAP1 SSTORE PUSH1 0x40 MLOAD SWAP1 DUP2 MSTORE LOG3 JUMP JUMPDEST PUSH1 0x40 MLOAD PUSH4 0xEC442F05 PUSH1 0xE0 SHL DUP2 MSTORE PUSH1 0x0 PUSH1 0x4 DUP3 ADD MSTORE PUSH1 0x24 SWAP1 REVERT JUMPDEST PUSH1 0x0 DUP1 MLOAD PUSH1 0x20 PUSH2 0x1B3A DUP4 CODECOPY DUP2 MLOAD SWAP2 MSTORE PUSH1 0x2 DUP2 SLOAD EQ PUSH2 0x192F JUMPI PUSH1 0x2 SWAP1 SSTORE JUMP JUMPDEST PUSH1 0x40 MLOAD PUSH4 0x3EE5AEB5 PUSH1 0xE0 SHL DUP2 MSTORE PUSH1 0x4 SWAP1 REVERT JUMPDEST SWAP1 PUSH1 0x1 PUSH1 0x1 PUSH1 0xA0 SHL SUB DUP3 AND SWAP1 DUP2 ISZERO PUSH2 0x19CE JUMPI PUSH1 0x0 SWAP3 DUP3 DUP5 MSTORE DUP4 PUSH1 0x20 MSTORE PUSH1 0x40 DUP5 KECCAK256 SLOAD SWAP1 DUP3 DUP3 LT PUSH2 0x199C JUMPI POP DUP2 PUSH1 0x0 DUP1 MLOAD PUSH1 0x20 PUSH2 0x1B1A DUP4 CODECOPY DUP2 MLOAD SWAP2 MSTORE SWAP3 PUSH1 0x20 SWAP3 DUP6 DUP8 MSTORE DUP7 DUP5 MSTORE SUB PUSH1 0x40 DUP7 KECCAK256 SSTORE DUP1 PUSH1 0x2 SLOAD SUB PUSH1 0x2 SSTORE PUSH1 0x40 MLOAD SWAP1 DUP2 MSTORE LOG3 JUMP JUMPDEST PUSH1 0x40 MLOAD PUSH4 0x391434E3 PUSH1 0xE2 SHL DUP2 MSTORE PUSH1 0x1 PUSH1 0x1 PUSH1 0xA0 SHL SUB SWAP2 SWAP1 SWAP2 AND PUSH1 0x4 DUP3 ADD MSTORE PUSH1 0x24 DUP2 ADD SWAP2 SWAP1 SWAP2 MSTORE PUSH1 0x44 DUP2 ADD DUP3 SWAP1 MSTORE PUSH1 0x64 SWAP1 REVERT JUMPDEST PUSH1 0x40 MLOAD PUSH4 0x4B637E8F PUSH1 0xE1 SHL DUP2 MSTORE PUSH1 0x0 PUSH1 0x4 DUP3 ADD MSTORE PUSH1 0x24 SWAP1 REVERT JUMPDEST SWAP2 SWAP1 DUP3 SUB SWAP2 DUP3 GT PUSH2 0x188B JUMPI JUMP JUMPDEST ISZERO PUSH2 0x19FB JUMPI JUMP JUMPDEST PUSH1 0x40 MLOAD PUSH3 0x461BCD PUSH1 0xE5 SHL DUP2 MSTORE PUSH1 0x20 PUSH1 0x4 DUP3 ADD MSTORE PUSH1 0x12 PUSH1 0x24 DUP3 ADD MSTORE PUSH18 0x105B1C9958591E481C9959DA5CDD195C9959 PUSH1 0x72 SHL PUSH1 0x44 DUP3 ADD MSTORE PUSH1 0x64 SWAP1 REVERT JUMPDEST PUSH1 0x0 NOT DUP2 EQ PUSH2 0x188B JUMPI PUSH1 0x1 ADD SWAP1 JUMP JUMPDEST SWAP2 SWAP1 PUSH1 0x1 PUSH1 0x1 PUSH1 0xA0 SHL SUB DUP1 DUP5 AND SWAP2 DUP3 ISZERO PUSH2 0x19CE JUMPI AND SWAP2 DUP3 ISZERO PUSH2 0x18F8 JUMPI PUSH1 0x0 DUP3 DUP2 MSTORE DUP1 PUSH1 0x20 MSTORE PUSH1 0x40 SWAP5 DUP6 DUP3 KECCAK256 SLOAD SWAP1 DUP4 DUP3 LT PUSH2 0x1AC8 JUMPI POP SWAP2 DUP6 DUP3 DUP3 PUSH1 0x0 DUP1 MLOAD PUSH1 0x20 PUSH2 0x1B1A DUP4 CODECOPY DUP2 MLOAD SWAP2 MSTORE SWAP6 DUP8 PUSH1 0x20 SWAP7 MSTORE DUP3 DUP7 MSTORE SUB DUP3 DUP3 KECCAK256 SSTORE DUP7 DUP2 MSTORE KECCAK256 DUP2 DUP2 SLOAD ADD SWAP1 SSTORE DUP6 MLOAD SWAP1 DUP2 MSTORE LOG3 PUSH1 0xFF PUSH1 0x7 SLOAD AND ISZERO PUSH2 0x1AB8 JUMPI POP JUMP JUMPDEST MLOAD PUSH4 0x202DA85 PUSH1 0xE1 SHL DUP2 MSTORE PUSH1 0x4 SWAP1 REVERT JUMPDEST DUP7 MLOAD PUSH4 0x391434E3 PUSH1 0xE2 SHL DUP2 MSTORE PUSH1 0x1 PUSH1 0x1 PUSH1 0xA0 SHL SUB SWAP2 SWAP1 SWAP2 AND PUSH1 0x4 DUP3 ADD MSTORE PUSH1 0x24 DUP2 ADD SWAP2 SWAP1 SWAP2 MSTORE PUSH1 0x44 DUP2 ADD DUP4 SWAP1 MSTORE PUSH1 0x64 SWAP1 REVERT INVALID 0x2E DUP11 0xC5 OR PUSH27 0x616F2AEC08C3048F5021E4E9743ECE034E8D83BA5CAF76688BB475 0xDD CALLCODE MSTORE 0xAD SHL 0xE2 0xC8 SWAP12 PUSH10 0xC2B068FC378DAA952BA7 CALL PUSH4 0xC4A11628 CREATE2 GAS 0x4D CREATE2 0x23 0xB3 0xEF SWAP12 PUSH24 0x9B17422D0DF92223018B32B4D1FA46E071723D6817E2486D STOP EXTCODESIZE 0xEC 0xC5 PUSH0 STOP LOG2 PUSH5 0x6970667358 0x22 SLT KECCAK256 MLOAD SIGNEXTEND 0xE BLOCKHASH OR ISZERO PUSH26 0xE0037B04C6B28E7C2E5A6286D20F51FAC6802712BE5B3CBD3C64 PUSH20 0x6F6C634300081400332F8788117E7EFF1D82E926 0xEC PUSH26 0x4901D17C78024A50270940304540A733656F0D00000000000000 "},"methodIdentifiers":{"BURNER_ROLE()":"282c51f3","DEFAULT_ADMIN_ROLE()":"a217fddf","DEFAULT_MINT_AMOUNT()":"ab466a8d","LOCKER_ROLE()":"f3621367","MAX_SUPPLY()":"32cb6b0c","MEMBERSHIP_ROLE()":"df37bb19","MINTER_ROLE()":"d5391393","allowance(address,address)":"dd62ed3e","approve(address,uint256)":"095ea7b3","balanceOf(address)":"70a08231","burn(address,uint256)":"9dc29fac","decimals()":"313ce567","getAvailableBalance(address)":"6c24a76f","getLockedBalance(address)":"c4086893","getMemberCount()":"997072f7","getRoleAdmin(bytes32)":"248a9ca3","getVotingPower(address)":"bb4d4436","grantRole(bytes32,address)":"2f2ff15d","hasRole(bytes32,address)":"91d14854","isRegisteredMember(address)":"6a6b9a61","lakomiGovern()":"df817a71","lakomiLoans()":"ae20600b","lakomiVault()":"2144d0b9","lockTokens(address,uint256)":"b1c25586","memberCount()":"11aee380","mint(address,uint256)":"40c10f19","mintDefault(address)":"1ad33033","name()":"06fdde03","registerMember()":"60f8dd7e","registerMemberAdmin(address)":"901786c9","renounceRole(bytes32,address)":"36568abe","revokeMembership(address)":"c5ae086a","revokeRole(bytes32,address)":"d547741f","setLakomiGovern(address)":"2c4fbd2d","setLakomiLoans(address)":"dcab10d6","setLakomiVault(address)":"21a52799","setTransfersEnabled(bool)":"26b9ce13","supportsInterface(bytes4)":"01ffc9a7","symbol()":"95d89b41","totalSupply()":"18160ddd","transfer(address,uint256)":"a9059cbb","transferFrom(address,address,uint256)":"23b872dd","transfersEnabled()":"bef97c87","unlockTokens(address,uint256)":"9d564d9a"}}}}}