{"contracts/LakomiLoans.sol":{"LakomiLoans":{"abi":[{"inputs":[{"internalType":"address","name":"_token","type":"address"},{"internalType":"address","name":"_vault","type":"address"}],"stateMutability":"nonpayable","type":"constructor"},{"inputs":[],"name":"AccessControlBadConfirmation","type":"error"},{"inputs":[{"internalType":"address","name":"account","type":"address"},{"internalType":"bytes32","name":"neededRole","type":"bytes32"}],"name":"AccessControlUnauthorizedAccount","type":"error"},{"inputs":[],"name":"EnforcedPause","type":"error"},{"inputs":[],"name":"ExpectedPause","type":"error"},{"inputs":[],"name":"LakomiLoans__AlreadyRepaid","type":"error"},{"inputs":[],"name":"LakomiLoans__ExceedsMaxLoan","type":"error"},{"inputs":[],"name":"LakomiLoans__GracePeriodActive","type":"error"},{"inputs":[],"name":"LakomiLoans__InsufficientCollateral","type":"error"},{"inputs":[],"name":"LakomiLoans__InsufficientContribution","type":"error"},{"inputs":[],"name":"LakomiLoans__InvalidDuration","type":"error"},{"inputs":[],"name":"LakomiLoans__LoanNotActive","type":"error"},{"inputs":[],"name":"LakomiLoans__LoanNotApproved","type":"error"},{"inputs":[],"name":"LakomiLoans__LoanNotFound","type":"error"},{"inputs":[],"name":"LakomiLoans__LoanNotPending","type":"error"},{"inputs":[],"name":"LakomiLoans__NotDefaulted","type":"error"},{"inputs":[],"name":"LakomiLoans__Overpayment","type":"error"},{"inputs":[],"name":"LakomiLoans__TransferFailed","type":"error"},{"inputs":[],"name":"LakomiLoans__ZeroAddress","type":"error"},{"inputs":[],"name":"LakomiLoans__ZeroAmount","type":"error"},{"inputs":[],"name":"ReentrancyGuardReentrantCall","type":"error"},{"inputs":[{"internalType":"address","name":"token","type":"address"}],"name":"SafeERC20FailedOperation","type":"error"},{"anonymous":false,"inputs":[{"indexed":true,"internalType":"uint256","name":"id","type":"uint256"},{"indexed":true,"internalType":"address","name":"borrower","type":"address"},{"indexed":false,"internalType":"uint256","name":"collateralAmount","type":"uint256"}],"name":"CollateralClaimed","type":"event"},{"anonymous":false,"inputs":[{"indexed":false,"internalType":"uint256","name":"oldRatio","type":"uint256"},{"indexed":false,"internalType":"uint256","name":"newRatio","type":"uint256"}],"name":"CollateralRatioUpdated","type":"event"},{"anonymous":false,"inputs":[{"indexed":false,"internalType":"uint256","name":"oldRate","type":"uint256"},{"indexed":false,"internalType":"uint256","name":"newRate","type":"uint256"}],"name":"InterestRateUpdated","type":"event"},{"anonymous":false,"inputs":[{"indexed":true,"internalType":"uint256","name":"id","type":"uint256"},{"indexed":false,"internalType":"uint256","name":"collateralRequired","type":"uint256"}],"name":"LoanApproved","type":"event"},{"anonymous":false,"inputs":[{"indexed":true,"internalType":"uint256","name":"id","type":"uint256"},{"indexed":true,"internalType":"address","name":"borrower","type":"address"}],"name":"LoanDefaulted","type":"event"},{"anonymous":false,"inputs":[{"indexed":true,"internalType":"uint256","name":"id","type":"uint256"},{"indexed":true,"internalType":"address","name":"borrower","type":"address"},{"indexed":false,"internalType":"uint256","name":"amount","type":"uint256"}],"name":"LoanDisbursed","type":"event"},{"anonymous":false,"inputs":[{"indexed":true,"internalType":"uint256","name":"id","type":"uint256"},{"indexed":true,"internalType":"address","name":"borrower","type":"address"},{"indexed":false,"internalType":"uint256","name":"amount","type":"uint256"},{"indexed":false,"internalType":"uint256","name":"remaining","type":"uint256"}],"name":"LoanRepaid","type":"event"},{"anonymous":false,"inputs":[{"indexed":true,"internalType":"uint256","name":"id","type":"uint256"},{"indexed":true,"internalType":"address","name":"borrower","type":"address"},{"indexed":false,"internalType":"uint256","name":"amount","type":"uint256"},{"indexed":false,"internalType":"uint256","name":"duration","type":"uint256"},{"indexed":false,"internalType":"string","name":"reason","type":"string"}],"name":"LoanRequested","type":"event"},{"anonymous":false,"inputs":[{"indexed":false,"internalType":"uint256","name":"oldLTV","type":"uint256"},{"indexed":false,"internalType":"uint256","name":"newLTV","type":"uint256"}],"name":"MaxLTVUpdated","type":"event"},{"anonymous":false,"inputs":[{"indexed":false,"internalType":"address","name":"account","type":"address"}],"name":"Paused","type":"event"},{"anonymous":false,"inputs":[{"indexed":true,"internalType":"bytes32","name":"role","type":"bytes32"},{"indexed":true,"internalType":"bytes32","name":"previousAdminRole","type":"bytes32"},{"indexed":true,"internalType":"bytes32","name":"newAdminRole","type":"bytes32"}],"name":"RoleAdminChanged","type":"event"},{"anonymous":false,"inputs":[{"indexed":true,"internalType":"bytes32","name":"role","type":"bytes32"},{"indexed":true,"internalType":"address","name":"account","type":"address"},{"indexed":true,"internalType":"address","name":"sender","type":"address"}],"name":"RoleGranted","type":"event"},{"anonymous":false,"inputs":[{"indexed":true,"internalType":"bytes32","name":"role","type":"bytes32"},{"indexed":true,"internalType":"address","name":"account","type":"address"},{"indexed":true,"internalType":"address","name":"sender","type":"address"}],"name":"RoleRevoked","type":"event"},{"anonymous":false,"inputs":[{"indexed":false,"internalType":"uint256","name":"oldThreshold","type":"uint256"},{"indexed":false,"internalType":"uint256","name":"newThreshold","type":"uint256"}],"name":"ThresholdUpdated","type":"event"},{"anonymous":false,"inputs":[{"indexed":false,"internalType":"address","name":"account","type":"address"}],"name":"Unpaused","type":"event"},{"inputs":[],"name":"APPROVER_ROLE","outputs":[{"internalType":"bytes32","name":"","type":"bytes32"}],"stateMutability":"view","type":"function"},{"inputs":[],"name":"DEFAULT_ADMIN_ROLE","outputs":[{"internalType":"bytes32","name":"","type":"bytes32"}],"stateMutability":"view","type":"function"},{"inputs":[],"name":"TIER1_LTV","outputs":[{"internalType":"uint256","name":"","type":"uint256"}],"stateMutability":"view","type":"function"},{"inputs":[],"name":"TIER2_LTV","outputs":[{"internalType":"uint256","name":"","type":"uint256"}],"stateMutability":"view","type":"function"},{"inputs":[],"name":"TIER3_LTV","outputs":[{"internalType":"uint256","name":"","type":"uint256"}],"stateMutability":"view","type":"function"},{"inputs":[],"name":"activeLoanCount","outputs":[{"internalType":"uint256","name":"","type":"uint256"}],"stateMutability":"view","type":"function"},{"inputs":[{"internalType":"uint256","name":"loanId","type":"uint256"}],"name":"approveLoan","outputs":[],"stateMutability":"nonpayable","type":"function"},{"inputs":[],"name":"autoApproveThreshold","outputs":[{"internalType":"uint256","name":"","type":"uint256"}],"stateMutability":"view","type":"function"},{"inputs":[{"internalType":"address","name":"","type":"address"},{"internalType":"uint256","name":"","type":"uint256"}],"name":"borrowerLoans","outputs":[{"internalType":"uint256","name":"","type":"uint256"}],"stateMutability":"view","type":"function"},{"inputs":[{"internalType":"uint256","name":"principal","type":"uint256"},{"internalType":"uint256","name":"duration","type":"uint256"}],"name":"calculateInterest","outputs":[{"internalType":"uint256","name":"","type":"uint256"}],"stateMutability":"view","type":"function"},{"inputs":[{"internalType":"uint256","name":"loanId","type":"uint256"}],"name":"claimCollateral","outputs":[],"stateMutability":"nonpayable","type":"function"},{"inputs":[],"name":"collateralRatio","outputs":[{"internalType":"uint256","name":"","type":"uint256"}],"stateMutability":"view","type":"function"},{"inputs":[],"name":"defaultLoanDuration","outputs":[{"internalType":"uint256","name":"","type":"uint256"}],"stateMutability":"view","type":"function"},{"inputs":[{"internalType":"uint256","name":"loanId","type":"uint256"}],"name":"disburse","outputs":[],"stateMutability":"nonpayable","type":"function"},{"inputs":[{"internalType":"address","name":"borrower","type":"address"}],"name":"getBorrowerLoans","outputs":[{"internalType":"uint256[]","name":"","type":"uint256[]"}],"stateMutability":"view","type":"function"},{"inputs":[{"internalType":"uint256","name":"loanId","type":"uint256"}],"name":"getLoan","outputs":[{"internalType":"uint256","name":"id","type":"uint256"},{"internalType":"address","name":"borrower","type":"address"},{"internalType":"uint256","name":"principal","type":"uint256"},{"internalType":"uint256","name":"interest","type":"uint256"},{"internalType":"uint256","name":"collateralTokens","type":"uint256"},{"internalType":"uint256","name":"startTime","type":"uint256"},{"internalType":"uint256","name":"dueTime","type":"uint256"},{"internalType":"uint256","name":"repaidAmount","type":"uint256"},{"internalType":"uint256","name":"totalOwed","type":"uint256"},{"internalType":"uint256","name":"remaining","type":"uint256"},{"internalType":"enum LakomiLoans.LoanStatus","name":"status","type":"uint8"},{"internalType":"string","name":"reason","type":"string"}],"stateMutability":"view","type":"function"},{"inputs":[{"internalType":"address","name":"borrower","type":"address"}],"name":"getMaxLoanAmount","outputs":[{"internalType":"uint256","name":"","type":"uint256"}],"stateMutability":"view","type":"function"},{"inputs":[{"internalType":"uint256","name":"amount","type":"uint256"}],"name":"getRequiredCollateral","outputs":[{"internalType":"uint256","name":"","type":"uint256"}],"stateMutability":"view","type":"function"},{"inputs":[{"internalType":"bytes32","name":"role","type":"bytes32"}],"name":"getRoleAdmin","outputs":[{"internalType":"bytes32","name":"","type":"bytes32"}],"stateMutability":"view","type":"function"},{"inputs":[],"name":"gracePeriod","outputs":[{"internalType":"uint256","name":"","type":"uint256"}],"stateMutability":"view","type":"function"},{"inputs":[{"internalType":"bytes32","name":"role","type":"bytes32"},{"internalType":"address","name":"account","type":"address"}],"name":"grantRole","outputs":[],"stateMutability":"nonpayable","type":"function"},{"inputs":[{"internalType":"bytes32","name":"role","type":"bytes32"},{"internalType":"address","name":"account","type":"address"}],"name":"hasRole","outputs":[{"internalType":"bool","name":"","type":"bool"}],"stateMutability":"view","type":"function"},{"inputs":[],"name":"interestRate","outputs":[{"internalType":"uint256","name":"","type":"uint256"}],"stateMutability":"view","type":"function"},{"inputs":[],"name":"loanCount","outputs":[{"internalType":"uint256","name":"","type":"uint256"}],"stateMutability":"view","type":"function"},{"inputs":[{"internalType":"uint256","name":"","type":"uint256"}],"name":"loans","outputs":[{"internalType":"uint256","name":"id","type":"uint256"},{"internalType":"address","name":"borrower","type":"address"},{"internalType":"uint256","name":"principal","type":"uint256"},{"internalType":"uint256","name":"interest","type":"uint256"},{"internalType":"uint256","name":"collateralTokens","type":"uint256"},{"internalType":"uint256","name":"startTime","type":"uint256"},{"internalType":"uint256","name":"dueTime","type":"uint256"},{"internalType":"uint256","name":"repaidAmount","type":"uint256"},{"internalType":"enum LakomiLoans.LoanStatus","name":"status","type":"uint8"},{"internalType":"string","name":"reason","type":"string"}],"stateMutability":"view","type":"function"},{"inputs":[{"internalType":"uint256","name":"loanId","type":"uint256"}],"name":"markDefaulted","outputs":[],"stateMutability":"nonpayable","type":"function"},{"inputs":[],"name":"maxLTV","outputs":[{"internalType":"uint256","name":"","type":"uint256"}],"stateMutability":"view","type":"function"},{"inputs":[],"name":"pause","outputs":[],"stateMutability":"nonpayable","type":"function"},{"inputs":[],"name":"paused","outputs":[{"internalType":"bool","name":"","type":"bool"}],"stateMutability":"view","type":"function"},{"inputs":[{"internalType":"bytes32","name":"role","type":"bytes32"},{"internalType":"address","name":"callerConfirmation","type":"address"}],"name":"renounceRole","outputs":[],"stateMutability":"nonpayable","type":"function"},{"inputs":[{"internalType":"uint256","name":"loanId","type":"uint256"},{"internalType":"uint256","name":"amount","type":"uint256"}],"name":"repay","outputs":[],"stateMutability":"nonpayable","type":"function"},{"inputs":[{"internalType":"uint256","name":"loanId","type":"uint256"}],"name":"repayInFull","outputs":[],"stateMutability":"nonpayable","type":"function"},{"inputs":[{"internalType":"uint256","name":"amount","type":"uint256"},{"internalType":"uint256","name":"duration","type":"uint256"},{"internalType":"string","name":"reason","type":"string"}],"name":"requestLoan","outputs":[{"internalType":"uint256","name":"loanId","type":"uint256"}],"stateMutability":"nonpayable","type":"function"},{"inputs":[{"internalType":"bytes32","name":"role","type":"bytes32"},{"internalType":"address","name":"account","type":"address"}],"name":"revokeRole","outputs":[],"stateMutability":"nonpayable","type":"function"},{"inputs":[{"internalType":"uint256","name":"newThreshold","type":"uint256"}],"name":"setAutoApproveThreshold","outputs":[],"stateMutability":"nonpayable","type":"function"},{"inputs":[{"internalType":"uint256","name":"newRatio","type":"uint256"}],"name":"setCollateralRatio","outputs":[],"stateMutability":"nonpayable","type":"function"},{"inputs":[{"internalType":"uint256","name":"newRate","type":"uint256"}],"name":"setInterestRate","outputs":[],"stateMutability":"nonpayable","type":"function"},{"inputs":[{"internalType":"uint256","name":"newLTV","type":"uint256"}],"name":"setMaxLTV","outputs":[],"stateMutability":"nonpayable","type":"function"},{"inputs":[{"internalType":"bytes4","name":"interfaceId","type":"bytes4"}],"name":"supportsInterface","outputs":[{"internalType":"bool","name":"","type":"bool"}],"stateMutability":"view","type":"function"},{"inputs":[],"name":"token","outputs":[{"internalType":"contract LakomiToken","name":"","type":"address"}],"stateMutability":"view","type":"function"},{"inputs":[{"internalType":"address","name":"","type":"address"}],"name":"totalBorrowed","outputs":[{"internalType":"uint256","name":"","type":"uint256"}],"stateMutability":"view","type":"function"},{"inputs":[],"name":"unpause","outputs":[],"stateMutability":"nonpayable","type":"function"},{"inputs":[],"name":"vault","outputs":[{"internalType":"contract LakomiVault","name":"","type":"address"}],"stateMutability":"view","type":"function"}],"evm":{"bytecode":{"linkReferences":{},"object":"60c0346200016b57601f6200284c38819003918201601f19168301916001600160401b03831184841017620001705780849260409485528339810103126200016b576200005a6020620000528362000186565b920162000186565b60017f9b779b17422d0df92223018b32b4d1fa46e071723d6817e2486d003becc55f00556001600160a01b039182168015801562000160575b6200014e576080521660a0526101f46002556113886003556109c4600455630bebc20060055562278d0060065562093a80600755620000d2336200019b565b50620000de336200021b565b5060405161256e9081620002be823960805181818161020f0152818161069201528181610a0401528181610f770152818161114501526115b0015260a05181818161025701528181610586015281816109650152818161121001528181611360015281816114a501526124790152f35b60405163372be3a160e01b8152600490fd5b508282161562000093565b600080fd5b634e487b7160e01b600052604160045260246000fd5b51906001600160a01b03821682036200016b57565b6001600160a01b031660008181527fad3228b676f7d3cd4284a5443f17f1962b36e491b30a40b2405849e597ba5fb5602052604081205490919060ff166200021757818052816020526040822081835260205260408220600160ff1982541617905533916000805160206200282c8339815191528180a4600190565b5090565b6001600160a01b031660008181527f388301e6ac71f158ac8b29c21de3d490adc31828b570ec3663983f6bee199fa060205260408120549091907f408a36151f841709116a4e8aca4e0202874f7f54687dcb863b1ea4672dc9d8cf9060ff16620002b857808352826020526040832082845260205260408320600160ff198254161790556000805160206200282c833981519152339380a4600190565b50509056fe608080604052600436101561001357600080fd5b600090813560e01c90816301ffc9a714611e5c5750806308a0c37514611dc957806309cd4e2614611d6e57806314956f4414611d185780631a1b020a14611cfb578063248a9ca314611ccf5780632f2ff15d14611c9257806336568abe14611c4a5780633f4ba83a14611bdf5780634245962b14611ba4578063442c64c614611b86578063504006ca14611aae57806354edb3a014611a905780635c975abb14611a6d5780635f84f30214611a175780636060663e146119c15780636f083519146119a357806373216450146118cb5780637c3a00fd146118ad5780638456cb591461185357806391d148541461180b578063a06db7dc146117ed578063a217fddf146117d1578063aadc1ac114611739578063ad05db51146113e1578063ad73f38e14611320578063b4eae1cb14611302578063bd77ac2c146110da578063bf6a2710146110bd578063c49785b414610f14578063ce63094d14610ef6578063d3602dc6146108ca578063d547741f14610889578063d8aed145146104f0578063e1ec3c6814610438578063e2e1ca2b146103ff578063e3ed1902146103a9578063eee8b7ff146102f7578063efdd7c07146102c1578063f34b035a146102a4578063f384bd0514610286578063fbfa77cf146102415763fc0c546a146101fa57600080fd5b3461023e578060031936011261023e576040517f00000000000000000000000000000000000000000000000000000000000000006001600160a01b03168152602090f35b80fd5b503461023e578060031936011261023e576040517f00000000000000000000000000000000000000000000000000000000000000006001600160a01b03168152602090f35b503461023e578060031936011261023e576020600354604051908152f35b503461023e578060031936011261023e576020604051610bb88152f35b503461023e57602064496cebb8006102ee6102e96102de36611f44565b9190600254906121f1565b6121f1565b04604051908152f35b503461023e576020806003193601126103a5576001600160a01b0361031a611ecb565b168252600b81526040822060405192838383549182815201908193835284832090835b8181106103915750505084610353910385611fa8565b60405193838594850191818652518092526040850193925b82811061037a57505050500390f35b83518552869550938101939281019260010161036b565b82548452928601926001928301920161033d565b5080fd5b503461023e57604036600319011261023e576103c3611ecb565b6001600160a01b03168152600b602052604081208054602435929083101561023e5760206103f18484612070565b90546040519160031b1c8152f35b503461023e57602036600319011261023e576020906040906001600160a01b03610427611ecb565b168152600c83522054604051908152f35b503461023e57602036600319011261023e57604090600435815260086020522080546104ec60018060a01b03600184015416926104da6002820154916003810154600482015460058301546006840154916007850154936104a3600960ff6008890154169701611fca565b976040519b8c9b8c5260208c015260408b015260608a0152608089015260a088015260c087015260e0860152610100850190611ee1565b61014080610120850152830190611f04565b0390f35b503461023e576104ff36611f44565b90610508612249565b610510612267565b8083526008602052604083206001810180549093906001600160a01b039081161561087757600883019460ff865416600681101561086357600203610851576002840154610564600386019182549061231b565b9460078101976105758954886123d4565b801561083f57861161082d578992857f00000000000000000000000000000000000000000000000000000000000000001660405163a9d75b2b60e01b8152602081600481855afa801561082257889187916107f4575b5016916105da89303386612347565b8590548015908115806107eb575b610796575b505080610743575b6105ff90896123d4565b9081610732575b50505086610615878b5461231b565b808b551015610676575b5050507f553c9087bff5b534e499a66dac3fa9db2962cd252ea01165239755836ae5345e93604093926106569254169654906123d4565b82519182526020820152a360016000805160206125198339815191525580f35b600360ff1982541617905561068c600a546123e1565b600a55837f00000000000000000000000000000000000000000000000000000000000000001690600485855416910154823b1561072e57604051634eab26cd60e11b81526001600160a01b0392909216600483015260248201529082908290604490829084905af1801561072357610705575b8061061f565b61071190949394611f94565b61071f5786389392936106ff565b8680fd5b6040513d84823e3d90fd5b8380fd5b61073b926123ee565b388080610606565b61074e8183856123ee565b813b15610792578560405163bd4ebf3760e01b8152826004820152818160248183885af161077e575b50506105f5565b61078790611f94565b610792578538610777565b8580fd5b9150919293949550670de0b6b3a764000091828202918204831417156107d757906107cf6107c98b8f989796959461221a565b8a6121f1565b0438806105ed565b634e487b7160e01b8d52601160045260248dfd5b508b15156105e8565b610815915060203d811161081b575b61080d8183611fa8565b810190612328565b386105cb565b503d610803565b6040513d88823e3d90fd5b6040516314d0675960e11b8152600490fd5b604051634470d52560e11b8152600490fd5b6040516351092dcf60e11b8152600490fd5b634e487b7160e01b88526021600452602488fd5b60405163470f9a3d60e01b8152600490fd5b503461023e57604036600319011261023e576108c66004356108a9611eb5565b90808452836020526108c160016040862001546120d8565b61217c565b5080f35b503461023e57606036600319011261023e5767ffffffffffffffff6044351161023e5736602360443501121561023e5767ffffffffffffffff604435600401351161023e573660246044356004013560443501011161023e5761092b612249565b610933612267565b60043515610ee457602435158015610ed5575b610ec35760405163652aba9d60e11b81523360048201526020816024817f00000000000000000000000000000000000000000000000000000000000000006001600160a01b03165afa908115610723578291610e91575b5061271090816109b56109af3361244f565b836121f1565b0460043511610e7f5715610e6d576109d16004546004356121f1565b0464e8d4a5100090818102918183041490151715610e5957604051636c24a76f60e01b81523360048201526020816024817f00000000000000000000000000000000000000000000000000000000000000006001600160a01b03165afa8015610e4e5782918491610e14575b5010610e035764496cebb800610a5d6024356102e96002546004356121f1565b0460095491610a6b8361223a565b60095560405191610140830183811067ffffffffffffffff821117610ded576040528383523360208401526004356040840152606083015260808201528260a08201528260c08201528260e082015282610100820152604051610ade6020601f19601f6044356004013501160182611fa8565b6044356004810135808352906024016020830137836020604435600401358301015261012082015281835260086020526040832090805182556001820160018060a01b036020830151166bffffffffffffffffffffffff60a01b82541617905560408101516002830155606081015160038301556080810151600483015560a0810151600583015560c0810151600683015560e08101516007830155600882016101008201516006811015610dd95790610120929160ff80198354169116179055015180519067ffffffffffffffff8211610dc557610bc06009840154611f5a565b601f8111610d80575b50602090601f8311600114610d135760099291869183610d08575b50508160011b916000199060031b1c1916179101555b338252600b6020526040822080549068010000000000000000821015610cf45781610c2d91600160209694018155612070565b81549060031b9084821b91600019901b1916179055604051906004358252602435848301526060604083015260443560040135606083015260443560040135602460443501608084013760806044356004013583010152817f7b6ba427d6069eeb2637d7d2bb04f521157dd7df5da9e39b8bf1a2e7100c1b033392608081601f19601f6044356004013501168101030190a36005546004351115610ce6575b600160008051602061251983398151915255604051908152f35b610cef81612297565b610ccc565b634e487b7160e01b84526041600452602484fd5b015190503880610be4565b906009840186526020862091865b601f1985168110610d685750918391600193600995601f19811610610d4f575b505050811b01910155610bfa565b015160001960f88460031b161c19169055388080610d41565b91926020600181928685015181550194019201610d21565b60098401865260208620601f840160051c810160208510610dbe575b601f830160051c82018110610db2575050610bc9565b60008155600101610d9c565b5080610d9c565b634e487b7160e01b85526041600452602485fd5b634e487b7160e01b86526021600452602486fd5b634e487b7160e01b600052604160045260246000fd5b6040516240cc4160e61b8152600490fd5b9150506020813d602011610e46575b81610e3060209383611fa8565b81010312610e415781905138610a3d565b600080fd5b3d9150610e23565b6040513d85823e3d90fd5b634e487b7160e01b82526011600452602482fd5b60405163210045fd60e01b8152600490fd5b6040516305893b3360e11b8152600490fd5b90506020813d602011610ebb575b81610eac60209383611fa8565b81010312610e4157513861099d565b3d9150610e9f565b6040516375d25ed760e11b8152600490fd5b506301e1338060243511610946565b604051630b1f4a5560e31b8152600490fd5b503461023e578060031936011261023e576020600954604051908152f35b503461023e57602036600319011261023e57600435610f31612267565b8082526008602052604082206001810180546001600160a01b039081169392841561087757600881019060ff8254166006811015610863576004036110ab5786906004847f000000000000000000000000000000000000000000000000000000000000000016910196875490823b1561072e57604051634eab26cd60e11b81526001600160a01b039190911660048201526024810191909152828160448183865af1908115610e4e578391611097575b5050838554168754823b1561072e57604051632770a7eb60e21b81526001600160a01b0392909216600483015260248201529082908290604490829084905af180156107235761107f575b5050907fccd631c6a824eeaa91ba67065a44b5c5bc5aa9575248e5fd34144c665470fc3292602092600560ff1982541617905554169354604051908152a360016000805160206125198339815191525580f35b61108b90939293611f94565b6107925790853861102c565b6110a090611f94565b6103a5578138610fe1565b604051630f9f035360e31b8152600490fd5b503461023e578060031936011261023e5760206040516113888152f35b503461023e576020806003193601126103a5576004356110f8612249565b611100612267565b80835260088252604083206001810180546001600160a01b0394919290851690811561087757600881019160ff83541660068110156112ee576001036112dc578790877f000000000000000000000000000000000000000000000000000000000000000016906004840154823b1561072e576040516358e12ac360e11b81526001600160a01b0392909216600483015260248201529082908290604490829084905af18015610723576112c8575b50506002918260ff198254161790554260058201556111cf6006544261231b565b60068201556111df600a5461223a565b600a5501938454818454168752600c83526111ff6040882091825461231b565b905560405163a9d75b2b60e01b81527f0000000000000000000000000000000000000000000000000000000000000000821693908381600481885afa80156112bd577f0ceeb4503a2fe0b51298a0af21358f3d89e7eab3f65ae2a7835859c3e2c516049561127e928a9261129e575b508484541690858a549316612347565b54169354604051908152a360016000805160206125198339815191525580f35b6112b6919250863d881161081b5761080d8183611fa8565b903861126e565b6040513d8a823e3d90fd5b6112d190611f94565b61071f5786386111ae565b60405163102b2f3960e11b8152600490fd5b634e487b7160e01b89526021600452602489fd5b503461023e578060031936011261023e576020600454604051908152f35b503461023e576020908160031936011261023e5761133c611ecb565b9060405163652aba9d60e11b8152838160248160018060a01b0380881660048301527f0000000000000000000000000000000000000000000000000000000000000000165afa9182156113d557916113a6575b506102ee906113a06127109361244f565b906121f1565b90508281813d83116113ce575b6113bd8183611fa8565b81010312610e41575161271061138f565b503d6113b3565b604051903d90823e3d90fd5b503461023e576020806003193601126103a5576004358083526008825261142360408420600761141a600283015460038401549061231b565b910154906123d4565b61142b612249565b611433612267565b818452600883526040842090600182019360018060a01b03808654161561087757600884019560ff87541660068110156112ee57600203610851576002850154611483600387019182549061231b565b9560078101986114948a54896123d4565b801561083f57871161082d578a92857f00000000000000000000000000000000000000000000000000000000000000001660405163a9d75b2b60e01b81528881600481855afa8015610822578891879161171c575b5016916114f88a303386612347565b859054801590811580611713575b6116bd575b505080611654575b61151d908a6123d4565b9081611643575b50505087611533888c5461231b565b808c551015611594575b5050507f553c9087bff5b534e499a66dac3fa9db2962cd252ea01165239755836ae5345e9460409493926115759254169754906123d4565b908351928352820152a360016000805160206125198339815191525580f35b600360ff198254161790556115aa600a546123e1565b600a55837f00000000000000000000000000000000000000000000000000000000000000001690600485855416910154823b1561072e57604051634eab26cd60e11b81526001600160a01b0392909216600483015260248201529082908290604490829084905af1801561072357611623575b8061153d565b6116309095949395611f94565b61163f5787389492939461161d565b8780fd5b61164c926123ee565b388080611524565b9091929394506116658183856123ee565b813b156116b95760405163bd4ebf3760e01b8152600481018290528d8160248183875af161169a575b50908c94939291611513565b9c6116ad61151d9e969594939296611f94565b9c94909192939461168e565b8c80fd5b9150919293949550670de0b6b3a764000091828202918204831417156116ff57906116f76116f18f97969594938d9061221a565b8b6121f1565b04388061150b565b634e487b7160e01b8e52601160045260248efd5b508c1515611506565b61173391508a3d8c1161081b5761080d8183611fa8565b386114e9565b503461023e57602036600319011261023e577f408a36151f841709116a4e8aca4e0202874f7f54687dcb863b1ea4672dc9d8cf808252816020526040822033835260205260ff604083205416156117b35750611793612267565b61179e600435612297565b60016000805160206125198339815191525580f35b6044906040519063e2517d3f60e01b82523360048301526024820152fd5b503461023e578060031936011261023e57602090604051908152f35b503461023e578060031936011261023e576020600754604051908152f35b503461023e57604036600319011261023e5760ff604060209261182c611eb5565b60043582528185528282206001600160a01b03909116825284522054604051911615158152f35b503461023e578060031936011261023e5761186c61209e565b611874612249565b600160ff19815416176001557f62e78cea01bee320cd4e420270b5ea74000d11b0c9f74754ebdbfc544b05a2586020604051338152a180f35b503461023e578060031936011261023e576020600254604051908152f35b503461023e57602036600319011261023e576004356118e8612267565b8082526008602052604082206001810180546001600160a01b03929083161561087757600881019081549060ff821660068110156108635760020361085157600601546007546119379161231b565b42106119915760ff19166004179055600a54611952906123e1565b600a555416907f13b88e6866f0156d706fecfa22b678de5fc2b749c1d2307f6f47eb541385f1ec8380a360016000805160206125198339815191525580f35b604051631c3a175760e01b8152600490fd5b503461023e578060031936011261023e576020600a54604051908152f35b503461023e57602036600319011261023e577fea851fc89ebccda62380b76fc8e8317f0bcd4d75ea908cf501bd2ebc6ac1c8f26040600435611a0161209e565b600454908060045582519182526020820152a180f35b503461023e57602036600319011261023e577f41e376fd99913dea7fda140f5c0bd997515b1a181acc58737320322548ec6e726040600435611a5761209e565b600254908060025582519182526020820152a180f35b503461023e578060031936011261023e57602060ff600154166040519015158152f35b503461023e578060031936011261023e576020600554604051908152f35b503461023e57602036600319011261023e576040602091600435815260088352206104ec600282015491611b74600382015491611aeb838661231b565b9481549560018060a01b036001840154169460048401546005850154600686015491600787015493611b1d85876123d4565b96611b32600960ff60088c0154169a01611fca565b9a6040519e8f9e8f908152015260408d015260608c015260808b015260a08a015260c089015260e0880152610100870152610120860152610140850190611ee1565b61018080610160850152830190611f04565b503461023e578060031936011261023e576020600654604051908152f35b503461023e578060031936011261023e5760206040517f408a36151f841709116a4e8aca4e0202874f7f54687dcb863b1ea4672dc9d8cf8152f35b503461023e578060031936011261023e57611bf861209e565b60015460ff811615611c385760ff19166001557f5db9ee0a495bf2e6ff9c91a7834c1ba4fdd244a5e8aa4e537bd38aeae4b073aa6020604051338152a180f35b604051638dfc202b60e01b8152600490fd5b503461023e57604036600319011261023e57611c64611eb5565b336001600160a01b03821603611c80576108c69060043561217c565b60405163334bd91960e11b8152600490fd5b503461023e57604036600319011261023e576108c6600435611cb2611eb5565b9080845283602052611cca60016040862001546120d8565b6120fe565b503461023e57602036600319011261023e57600160406020926004358152808452200154604051908152f35b503461023e578060031936011261023e576020604051611b588152f35b503461023e57602036600319011261023e577fb06a54caabe58475c86c2bf9df3f2f06dd1213e9e10659c293117fe4893b274b6040600435611d5861209e565b600554908060055582519182526020820152a180f35b503461023e57602036600319011261023e57612710611d916004546004356121f1565b049064e8d4a5100091828102928184041490151715611db557602082604051908152f35b634e487b7160e01b81526011600452602490fd5b503461023e57602036600319011261023e57600435611de661209e565b6127108111611e295760407fefaf0263a58e2b37c18e8494288218521b8fc54c3d807e281d847e95c4b4d52491600354908060035582519182526020820152a180f35b60405162461bcd60e51b815260206004820152600b60248201526a24b73b30b634b210262a2b60a91b6044820152606490fd5b9050346103a55760203660031901126103a55760043563ffffffff60e01b8116809103611eb15760209250637965db0b60e01b8114908115611ea0575b5015158152f35b6301ffc9a760e01b14905038611e99565b8280fd5b602435906001600160a01b0382168203610e4157565b600435906001600160a01b0382168203610e4157565b906006821015611eee5752565b634e487b7160e01b600052602160045260246000fd5b919082519283825260005b848110611f30575050826000602080949584010152601f8019910116010190565b602081830181015184830182015201611f0f565b6040906003190112610e41576004359060243590565b90600182811c92168015611f8a575b6020831014611f7457565b634e487b7160e01b600052602260045260246000fd5b91607f1691611f69565b67ffffffffffffffff8111610ded57604052565b90601f8019910116810190811067ffffffffffffffff821117610ded57604052565b9060405191826000825492611fde84611f5a565b90818452600194858116908160001461204d575060011461200a575b505061200892500383611fa8565b565b9093915060005260209081600020936000915b81831061203557505061200893508201013880611ffa565b8554888401850152948501948794509183019161201d565b91505061200894506020925060ff191682840152151560051b8201013880611ffa565b80548210156120885760005260206000200190600090565b634e487b7160e01b600052603260045260246000fd5b3360009081527fad3228b676f7d3cd4284a5443f17f1962b36e491b30a40b2405849e597ba5fb5602052604081205460ff16156117b35750565b80600052600060205260406000203360005260205260ff60406000205416156117b35750565b9060009180835282602052604083209160018060a01b03169182845260205260ff6040842054161560001461217757808352826020526040832082845260205260408320600160ff198254161790557f2f8788117e7eff1d82e926ec794901d17c78024a50270940304540a733656f0d339380a4600190565b505090565b9060009180835282602052604083209160018060a01b03169182845260205260ff6040842054166000146121775780835282602052604083208284526020526040832060ff1981541690557ff6391f5c32d9c69d2a47ea670b442974b53935d1edc7fd64eb21e047a839171b339380a4600190565b8181029291811591840414171561220457565b634e487b7160e01b600052601160045260246000fd5b8115612224570490565b634e487b7160e01b600052601260045260246000fd5b60001981146122045760010190565b60ff6001541661225557565b60405163d93c066560e01b8152600490fd5b60008051602061251983398151915260028154146122855760029055565b604051633ee5aeb560e01b8152600490fd5b600081815260086020526040902060018101546001600160a01b0316156108775760088101805460ff81166006811015611eee576123095760ff19166001179055600401546040519081527e25a2d6ca1b3da40a46ecc2c7ecbddb416fe7180003a0155b7e7d782d895f2190602090a2565b60405163fb417ab160e01b8152600490fd5b9190820180921161220457565b90816020910312610e4157516001600160a01b0381168103610e415790565b6040516323b872dd60e01b60009081526001600160a01b03938416600452938316602452604494909452909160209060648180855af16001600051148116156123b4575b8360405260006060521561239e57505050565b635274afe760e01b835216600482015260249150fd5b60018115166123ca57813b15153d15161661238b565b833d6000823e3d90fd5b9190820391821161220457565b8015612204576000190190565b60405163a9059cbb60e01b60009081526001600160a01b039384166004526024949094529260209060448180855af1600160005114811615612439575b836040521561239e57505050565b60018115166123ca57813b15153d15161661242b565b6040516302587e2f60e21b81526001600160a01b03918216600482015290602090829060249082907f0000000000000000000000000000000000000000000000000000000000000000165afa90811561250c576000916124d0575b5060ff16600381146124c9576002146124c357610bb890565b61138890565b50611b5890565b6020813d8211612504575b816124e860209383611fa8565b810103126103a557519060ff8216820361023e575060ff6124aa565b3d91506124db565b6040513d6000823e3d90fdfe9b779b17422d0df92223018b32b4d1fa46e071723d6817e2486d003becc55f00a2646970667358221220de2c460a3cc557686bf7642286701ab3ce6376bf051a26caa3afabf9e736ddb164736f6c634300081400332f8788117e7eff1d82e926ec794901d17c78024a50270940304540a733656f0d","opcodes":"PUSH1 0xC0 CALLVALUE PUSH3 0x16B JUMPI PUSH1 0x1F PUSH3 0x284C CODESIZE DUP2 SWAP1 SUB SWAP2 DUP3 ADD PUSH1 0x1F NOT AND DUP4 ADD SWAP2 PUSH1 0x1 PUSH1 0x1 PUSH1 0x40 SHL SUB DUP4 GT DUP5 DUP5 LT OR PUSH3 0x170 JUMPI DUP1 DUP5 SWAP3 PUSH1 0x40 SWAP5 DUP6 MSTORE DUP4 CODECOPY DUP2 ADD SUB SLT PUSH3 0x16B JUMPI PUSH3 0x5A PUSH1 0x20 PUSH3 0x52 DUP4 PUSH3 0x186 JUMP JUMPDEST SWAP3 ADD PUSH3 0x186 JUMP JUMPDEST PUSH1 0x1 PUSH32 0x9B779B17422D0DF92223018B32B4D1FA46E071723D6817E2486D003BECC55F00 SSTORE PUSH1 0x1 PUSH1 0x1 PUSH1 0xA0 SHL SUB SWAP2 DUP3 AND DUP1 ISZERO DUP1 ISZERO PUSH3 0x160 JUMPI JUMPDEST PUSH3 0x14E JUMPI PUSH1 0x80 MSTORE AND PUSH1 0xA0 MSTORE PUSH2 0x1F4 PUSH1 0x2 SSTORE PUSH2 0x1388 PUSH1 0x3 SSTORE PUSH2 0x9C4 PUSH1 0x4 SSTORE PUSH4 0xBEBC200 PUSH1 0x5 SSTORE PUSH3 0x278D00 PUSH1 0x6 SSTORE PUSH3 0x93A80 PUSH1 0x7 SSTORE PUSH3 0xD2 CALLER PUSH3 0x19B JUMP JUMPDEST POP PUSH3 0xDE CALLER PUSH3 0x21B JUMP JUMPDEST POP PUSH1 0x40 MLOAD PUSH2 0x256E SWAP1 DUP2 PUSH3 0x2BE DUP3 CODECOPY PUSH1 0x80 MLOAD DUP2 DUP2 DUP2 PUSH2 0x20F ADD MSTORE DUP2 DUP2 PUSH2 0x692 ADD MSTORE DUP2 DUP2 PUSH2 0xA04 ADD MSTORE DUP2 DUP2 PUSH2 0xF77 ADD MSTORE DUP2 DUP2 PUSH2 0x1145 ADD MSTORE PUSH2 0x15B0 ADD MSTORE PUSH1 0xA0 MLOAD DUP2 DUP2 DUP2 PUSH2 0x257 ADD MSTORE DUP2 DUP2 PUSH2 0x586 ADD MSTORE DUP2 DUP2 PUSH2 0x965 ADD MSTORE DUP2 DUP2 PUSH2 0x1210 ADD MSTORE DUP2 DUP2 PUSH2 0x1360 ADD MSTORE DUP2 DUP2 PUSH2 0x14A5 ADD MSTORE PUSH2 0x2479 ADD MSTORE RETURN JUMPDEST PUSH1 0x40 MLOAD PUSH4 0x372BE3A1 PUSH1 0xE0 SHL DUP2 MSTORE PUSH1 0x4 SWAP1 REVERT JUMPDEST POP DUP3 DUP3 AND ISZERO PUSH3 0x93 JUMP JUMPDEST PUSH1 0x0 DUP1 REVERT JUMPDEST PUSH4 0x4E487B71 PUSH1 0xE0 SHL PUSH1 0x0 MSTORE PUSH1 0x41 PUSH1 0x4 MSTORE PUSH1 0x24 PUSH1 0x0 REVERT JUMPDEST MLOAD SWAP1 PUSH1 0x1 PUSH1 0x1 PUSH1 0xA0 SHL SUB DUP3 AND DUP3 SUB PUSH3 0x16B JUMPI JUMP JUMPDEST PUSH1 0x1 PUSH1 0x1 PUSH1 0xA0 SHL SUB AND PUSH1 0x0 DUP2 DUP2 MSTORE PUSH32 0xAD3228B676F7D3CD4284A5443F17F1962B36E491B30A40B2405849E597BA5FB5 PUSH1 0x20 MSTORE PUSH1 0x40 DUP2 KECCAK256 SLOAD SWAP1 SWAP2 SWAP1 PUSH1 0xFF AND PUSH3 0x217 JUMPI DUP2 DUP1 MSTORE DUP2 PUSH1 0x20 MSTORE PUSH1 0x40 DUP3 KECCAK256 DUP2 DUP4 MSTORE PUSH1 0x20 MSTORE PUSH1 0x40 DUP3 KECCAK256 PUSH1 0x1 PUSH1 0xFF NOT DUP3 SLOAD AND OR SWAP1 SSTORE CALLER SWAP2 PUSH1 0x0 DUP1 MLOAD PUSH1 0x20 PUSH3 0x282C DUP4 CODECOPY DUP2 MLOAD SWAP2 MSTORE DUP2 DUP1 LOG4 PUSH1 0x1 SWAP1 JUMP JUMPDEST POP SWAP1 JUMP JUMPDEST PUSH1 0x1 PUSH1 0x1 PUSH1 0xA0 SHL SUB AND PUSH1 0x0 DUP2 DUP2 MSTORE PUSH32 0x388301E6AC71F158AC8B29C21DE3D490ADC31828B570EC3663983F6BEE199FA0 PUSH1 0x20 MSTORE PUSH1 0x40 DUP2 KECCAK256 SLOAD SWAP1 SWAP2 SWAP1 PUSH32 0x408A36151F841709116A4E8ACA4E0202874F7F54687DCB863B1EA4672DC9D8CF SWAP1 PUSH1 0xFF AND PUSH3 0x2B8 JUMPI DUP1 DUP4 MSTORE DUP3 PUSH1 0x20 MSTORE PUSH1 0x40 DUP4 KECCAK256 DUP3 DUP5 MSTORE PUSH1 0x20 MSTORE PUSH1 0x40 DUP4 KECCAK256 PUSH1 0x1 PUSH1 0xFF NOT DUP3 SLOAD AND OR SWAP1 SSTORE PUSH1 0x0 DUP1 MLOAD PUSH1 0x20 PUSH3 0x282C DUP4 CODECOPY DUP2 MLOAD SWAP2 MSTORE CALLER SWAP4 DUP1 LOG4 PUSH1 0x1 SWAP1 JUMP JUMPDEST POP POP SWAP1 JUMP INVALID PUSH1 0x80 DUP1 PUSH1 0x40 MSTORE PUSH1 0x4 CALLDATASIZE LT ISZERO PUSH2 0x13 JUMPI PUSH1 0x0 DUP1 REVERT JUMPDEST PUSH1 0x0 SWAP1 DUP2 CALLDATALOAD PUSH1 0xE0 SHR SWAP1 DUP2 PUSH4 0x1FFC9A7 EQ PUSH2 0x1E5C JUMPI POP DUP1 PUSH4 0x8A0C375 EQ PUSH2 0x1DC9 JUMPI DUP1 PUSH4 0x9CD4E26 EQ PUSH2 0x1D6E JUMPI DUP1 PUSH4 0x14956F44 EQ PUSH2 0x1D18 JUMPI DUP1 PUSH4 0x1A1B020A EQ PUSH2 0x1CFB JUMPI DUP1 PUSH4 0x248A9CA3 EQ PUSH2 0x1CCF JUMPI DUP1 PUSH4 0x2F2FF15D EQ PUSH2 0x1C92 JUMPI DUP1 PUSH4 0x36568ABE EQ PUSH2 0x1C4A JUMPI DUP1 PUSH4 0x3F4BA83A EQ PUSH2 0x1BDF JUMPI DUP1 PUSH4 0x4245962B EQ PUSH2 0x1BA4 JUMPI DUP1 PUSH4 0x442C64C6 EQ PUSH2 0x1B86 JUMPI DUP1 PUSH4 0x504006CA EQ PUSH2 0x1AAE JUMPI DUP1 PUSH4 0x54EDB3A0 EQ PUSH2 0x1A90 JUMPI DUP1 PUSH4 0x5C975ABB EQ PUSH2 0x1A6D JUMPI DUP1 PUSH4 0x5F84F302 EQ PUSH2 0x1A17 JUMPI DUP1 PUSH4 0x6060663E EQ PUSH2 0x19C1 JUMPI DUP1 PUSH4 0x6F083519 EQ PUSH2 0x19A3 JUMPI DUP1 PUSH4 0x73216450 EQ PUSH2 0x18CB JUMPI DUP1 PUSH4 0x7C3A00FD EQ PUSH2 0x18AD JUMPI DUP1 PUSH4 0x8456CB59 EQ PUSH2 0x1853 JUMPI DUP1 PUSH4 0x91D14854 EQ PUSH2 0x180B JUMPI DUP1 PUSH4 0xA06DB7DC EQ PUSH2 0x17ED JUMPI DUP1 PUSH4 0xA217FDDF EQ PUSH2 0x17D1 JUMPI DUP1 PUSH4 0xAADC1AC1 EQ PUSH2 0x1739 JUMPI DUP1 PUSH4 0xAD05DB51 EQ PUSH2 0x13E1 JUMPI DUP1 PUSH4 0xAD73F38E EQ PUSH2 0x1320 JUMPI DUP1 PUSH4 0xB4EAE1CB EQ PUSH2 0x1302 JUMPI DUP1 PUSH4 0xBD77AC2C EQ PUSH2 0x10DA JUMPI DUP1 PUSH4 0xBF6A2710 EQ PUSH2 0x10BD JUMPI DUP1 PUSH4 0xC49785B4 EQ PUSH2 0xF14 JUMPI DUP1 PUSH4 0xCE63094D EQ PUSH2 0xEF6 JUMPI DUP1 PUSH4 0xD3602DC6 EQ PUSH2 0x8CA JUMPI DUP1 PUSH4 0xD547741F EQ PUSH2 0x889 JUMPI DUP1 PUSH4 0xD8AED145 EQ PUSH2 0x4F0 JUMPI DUP1 PUSH4 0xE1EC3C68 EQ PUSH2 0x438 JUMPI DUP1 PUSH4 0xE2E1CA2B EQ PUSH2 0x3FF JUMPI DUP1 PUSH4 0xE3ED1902 EQ PUSH2 0x3A9 JUMPI DUP1 PUSH4 0xEEE8B7FF EQ PUSH2 0x2F7 JUMPI DUP1 PUSH4 0xEFDD7C07 EQ PUSH2 0x2C1 JUMPI DUP1 PUSH4 0xF34B035A EQ PUSH2 0x2A4 JUMPI DUP1 PUSH4 0xF384BD05 EQ PUSH2 0x286 JUMPI DUP1 PUSH4 0xFBFA77CF EQ PUSH2 0x241 JUMPI PUSH4 0xFC0C546A EQ PUSH2 0x1FA JUMPI PUSH1 0x0 DUP1 REVERT JUMPDEST CALLVALUE PUSH2 0x23E JUMPI DUP1 PUSH1 0x3 NOT CALLDATASIZE ADD SLT PUSH2 0x23E JUMPI PUSH1 0x40 MLOAD PUSH32 0x0 PUSH1 0x1 PUSH1 0x1 PUSH1 0xA0 SHL SUB AND DUP2 MSTORE PUSH1 0x20 SWAP1 RETURN JUMPDEST DUP1 REVERT JUMPDEST POP CALLVALUE PUSH2 0x23E JUMPI DUP1 PUSH1 0x3 NOT CALLDATASIZE ADD SLT PUSH2 0x23E JUMPI PUSH1 0x40 MLOAD PUSH32 0x0 PUSH1 0x1 PUSH1 0x1 PUSH1 0xA0 SHL SUB AND DUP2 MSTORE PUSH1 0x20 SWAP1 RETURN JUMPDEST POP CALLVALUE PUSH2 0x23E JUMPI DUP1 PUSH1 0x3 NOT CALLDATASIZE ADD SLT PUSH2 0x23E JUMPI PUSH1 0x20 PUSH1 0x3 SLOAD PUSH1 0x40 MLOAD SWAP1 DUP2 MSTORE RETURN JUMPDEST POP CALLVALUE PUSH2 0x23E JUMPI DUP1 PUSH1 0x3 NOT CALLDATASIZE ADD SLT PUSH2 0x23E JUMPI PUSH1 0x20 PUSH1 0x40 MLOAD PUSH2 0xBB8 DUP2 MSTORE RETURN JUMPDEST POP CALLVALUE PUSH2 0x23E JUMPI PUSH1 0x20 PUSH5 0x496CEBB800 PUSH2 0x2EE PUSH2 0x2E9 PUSH2 0x2DE CALLDATASIZE PUSH2 0x1F44 JUMP JUMPDEST SWAP2 SWAP1 PUSH1 0x2 SLOAD SWAP1 PUSH2 0x21F1 JUMP JUMPDEST PUSH2 0x21F1 JUMP JUMPDEST DIV PUSH1 0x40 MLOAD SWAP1 DUP2 MSTORE RETURN JUMPDEST POP CALLVALUE PUSH2 0x23E JUMPI PUSH1 0x20 DUP1 PUSH1 0x3 NOT CALLDATASIZE ADD SLT PUSH2 0x3A5 JUMPI PUSH1 0x1 PUSH1 0x1 PUSH1 0xA0 SHL SUB PUSH2 0x31A PUSH2 0x1ECB JUMP JUMPDEST AND DUP3 MSTORE PUSH1 0xB DUP2 MSTORE PUSH1 0x40 DUP3 KECCAK256 PUSH1 0x40 MLOAD SWAP3 DUP4 DUP4 DUP4 SLOAD SWAP2 DUP3 DUP2 MSTORE ADD SWAP1 DUP2 SWAP4 DUP4 MSTORE DUP5 DUP4 KECCAK256 SWAP1 DUP4 JUMPDEST DUP2 DUP2 LT PUSH2 0x391 JUMPI POP POP POP DUP5 PUSH2 0x353 SWAP2 SUB DUP6 PUSH2 0x1FA8 JUMP JUMPDEST PUSH1 0x40 MLOAD SWAP4 DUP4 DUP6 SWAP5 DUP6 ADD SWAP2 DUP2 DUP7 MSTORE MLOAD DUP1 SWAP3 MSTORE PUSH1 0x40 DUP6 ADD SWAP4 SWAP3 JUMPDEST DUP3 DUP2 LT PUSH2 0x37A JUMPI POP POP POP POP SUB SWAP1 RETURN JUMPDEST DUP4 MLOAD DUP6 MSTORE DUP7 SWAP6 POP SWAP4 DUP2 ADD SWAP4 SWAP3 DUP2 ADD SWAP3 PUSH1 0x1 ADD PUSH2 0x36B JUMP JUMPDEST DUP3 SLOAD DUP5 MSTORE SWAP3 DUP7 ADD SWAP3 PUSH1 0x1 SWAP3 DUP4 ADD SWAP3 ADD PUSH2 0x33D JUMP JUMPDEST POP DUP1 REVERT JUMPDEST POP CALLVALUE PUSH2 0x23E JUMPI PUSH1 0x40 CALLDATASIZE PUSH1 0x3 NOT ADD SLT PUSH2 0x23E JUMPI PUSH2 0x3C3 PUSH2 0x1ECB JUMP JUMPDEST PUSH1 0x1 PUSH1 0x1 PUSH1 0xA0 SHL SUB AND DUP2 MSTORE PUSH1 0xB PUSH1 0x20 MSTORE PUSH1 0x40 DUP2 KECCAK256 DUP1 SLOAD PUSH1 0x24 CALLDATALOAD SWAP3 SWAP1 DUP4 LT ISZERO PUSH2 0x23E JUMPI PUSH1 0x20 PUSH2 0x3F1 DUP5 DUP5 PUSH2 0x2070 JUMP JUMPDEST SWAP1 SLOAD PUSH1 0x40 MLOAD SWAP2 PUSH1 0x3 SHL SHR DUP2 MSTORE RETURN JUMPDEST POP CALLVALUE PUSH2 0x23E JUMPI PUSH1 0x20 CALLDATASIZE PUSH1 0x3 NOT ADD SLT PUSH2 0x23E JUMPI PUSH1 0x20 SWAP1 PUSH1 0x40 SWAP1 PUSH1 0x1 PUSH1 0x1 PUSH1 0xA0 SHL SUB PUSH2 0x427 PUSH2 0x1ECB JUMP JUMPDEST AND DUP2 MSTORE PUSH1 0xC DUP4 MSTORE KECCAK256 SLOAD PUSH1 0x40 MLOAD SWAP1 DUP2 MSTORE RETURN JUMPDEST POP CALLVALUE PUSH2 0x23E JUMPI PUSH1 0x20 CALLDATASIZE PUSH1 0x3 NOT ADD SLT PUSH2 0x23E JUMPI PUSH1 0x40 SWAP1 PUSH1 0x4 CALLDATALOAD DUP2 MSTORE PUSH1 0x8 PUSH1 0x20 MSTORE KECCAK256 DUP1 SLOAD PUSH2 0x4EC PUSH1 0x1 DUP1 PUSH1 0xA0 SHL SUB PUSH1 0x1 DUP5 ADD SLOAD AND SWAP3 PUSH2 0x4DA PUSH1 0x2 DUP3 ADD SLOAD SWAP2 PUSH1 0x3 DUP2 ADD SLOAD PUSH1 0x4 DUP3 ADD SLOAD PUSH1 0x5 DUP4 ADD SLOAD PUSH1 0x6 DUP5 ADD SLOAD SWAP2 PUSH1 0x7 DUP6 ADD SLOAD SWAP4 PUSH2 0x4A3 PUSH1 0x9 PUSH1 0xFF PUSH1 0x8 DUP10 ADD SLOAD AND SWAP8 ADD PUSH2 0x1FCA JUMP JUMPDEST SWAP8 PUSH1 0x40 MLOAD SWAP12 DUP13 SWAP12 DUP13 MSTORE PUSH1 0x20 DUP13 ADD MSTORE PUSH1 0x40 DUP12 ADD MSTORE PUSH1 0x60 DUP11 ADD MSTORE PUSH1 0x80 DUP10 ADD MSTORE PUSH1 0xA0 DUP9 ADD MSTORE PUSH1 0xC0 DUP8 ADD MSTORE PUSH1 0xE0 DUP7 ADD MSTORE PUSH2 0x100 DUP6 ADD SWAP1 PUSH2 0x1EE1 JUMP JUMPDEST PUSH2 0x140 DUP1 PUSH2 0x120 DUP6 ADD MSTORE DUP4 ADD SWAP1 PUSH2 0x1F04 JUMP JUMPDEST SUB SWAP1 RETURN JUMPDEST POP CALLVALUE PUSH2 0x23E JUMPI PUSH2 0x4FF CALLDATASIZE PUSH2 0x1F44 JUMP JUMPDEST SWAP1 PUSH2 0x508 PUSH2 0x2249 JUMP JUMPDEST PUSH2 0x510 PUSH2 0x2267 JUMP JUMPDEST DUP1 DUP4 MSTORE PUSH1 0x8 PUSH1 0x20 MSTORE PUSH1 0x40 DUP4 KECCAK256 PUSH1 0x1 DUP2 ADD DUP1 SLOAD SWAP1 SWAP4 SWAP1 PUSH1 0x1 PUSH1 0x1 PUSH1 0xA0 SHL SUB SWAP1 DUP2 AND ISZERO PUSH2 0x877 JUMPI PUSH1 0x8 DUP4 ADD SWAP5 PUSH1 0xFF DUP7 SLOAD AND PUSH1 0x6 DUP2 LT ISZERO PUSH2 0x863 JUMPI PUSH1 0x2 SUB PUSH2 0x851 JUMPI PUSH1 0x2 DUP5 ADD SLOAD PUSH2 0x564 PUSH1 0x3 DUP7 ADD SWAP2 DUP3 SLOAD SWAP1 PUSH2 0x231B JUMP JUMPDEST SWAP5 PUSH1 0x7 DUP2 ADD SWAP8 PUSH2 0x575 DUP10 SLOAD DUP9 PUSH2 0x23D4 JUMP JUMPDEST DUP1 ISZERO PUSH2 0x83F JUMPI DUP7 GT PUSH2 0x82D JUMPI DUP10 SWAP3 DUP6 PUSH32 0x0 AND PUSH1 0x40 MLOAD PUSH4 0xA9D75B2B PUSH1 0xE0 SHL DUP2 MSTORE PUSH1 0x20 DUP2 PUSH1 0x4 DUP2 DUP6 GAS STATICCALL DUP1 ISZERO PUSH2 0x822 JUMPI DUP9 SWAP2 DUP8 SWAP2 PUSH2 0x7F4 JUMPI JUMPDEST POP AND SWAP2 PUSH2 0x5DA DUP10 ADDRESS CALLER DUP7 PUSH2 0x2347 JUMP JUMPDEST DUP6 SWAP1 SLOAD DUP1 ISZERO SWAP1 DUP2 ISZERO DUP1 PUSH2 0x7EB JUMPI JUMPDEST PUSH2 0x796 JUMPI JUMPDEST POP POP DUP1 PUSH2 0x743 JUMPI JUMPDEST PUSH2 0x5FF SWAP1 DUP10 PUSH2 0x23D4 JUMP JUMPDEST SWAP1 DUP2 PUSH2 0x732 JUMPI JUMPDEST POP POP POP DUP7 PUSH2 0x615 DUP8 DUP12 SLOAD PUSH2 0x231B JUMP JUMPDEST DUP1 DUP12 SSTORE LT ISZERO PUSH2 0x676 JUMPI JUMPDEST POP POP POP PUSH32 0x553C9087BFF5B534E499A66DAC3FA9DB2962CD252EA01165239755836AE5345E SWAP4 PUSH1 0x40 SWAP4 SWAP3 PUSH2 0x656 SWAP3 SLOAD AND SWAP7 SLOAD SWAP1 PUSH2 0x23D4 JUMP JUMPDEST DUP3 MLOAD SWAP2 DUP3 MSTORE PUSH1 0x20 DUP3 ADD MSTORE LOG3 PUSH1 0x1 PUSH1 0x0 DUP1 MLOAD PUSH1 0x20 PUSH2 0x2519 DUP4 CODECOPY DUP2 MLOAD SWAP2 MSTORE SSTORE DUP1 RETURN JUMPDEST PUSH1 0x3 PUSH1 0xFF NOT DUP3 SLOAD AND OR SWAP1 SSTORE PUSH2 0x68C PUSH1 0xA SLOAD PUSH2 0x23E1 JUMP JUMPDEST PUSH1 0xA SSTORE DUP4 PUSH32 0x0 AND SWAP1 PUSH1 0x4 DUP6 DUP6 SLOAD AND SWAP2 ADD SLOAD DUP3 EXTCODESIZE ISZERO PUSH2 0x72E JUMPI PUSH1 0x40 MLOAD PUSH4 0x4EAB26CD PUSH1 0xE1 SHL DUP2 MSTORE PUSH1 0x1 PUSH1 0x1 PUSH1 0xA0 SHL SUB SWAP3 SWAP1 SWAP3 AND PUSH1 0x4 DUP4 ADD MSTORE PUSH1 0x24 DUP3 ADD MSTORE SWAP1 DUP3 SWAP1 DUP3 SWAP1 PUSH1 0x44 SWAP1 DUP3 SWAP1 DUP5 SWAP1 GAS CALL DUP1 ISZERO PUSH2 0x723 JUMPI PUSH2 0x705 JUMPI JUMPDEST DUP1 PUSH2 0x61F JUMP JUMPDEST PUSH2 0x711 SWAP1 SWAP5 SWAP4 SWAP5 PUSH2 0x1F94 JUMP JUMPDEST PUSH2 0x71F JUMPI DUP7 CODESIZE SWAP4 SWAP3 SWAP4 PUSH2 0x6FF JUMP JUMPDEST DUP7 DUP1 REVERT JUMPDEST PUSH1 0x40 MLOAD RETURNDATASIZE DUP5 DUP3 RETURNDATACOPY RETURNDATASIZE SWAP1 REVERT JUMPDEST DUP4 DUP1 REVERT JUMPDEST PUSH2 0x73B SWAP3 PUSH2 0x23EE JUMP JUMPDEST CODESIZE DUP1 DUP1 PUSH2 0x606 JUMP JUMPDEST PUSH2 0x74E DUP2 DUP4 DUP6 PUSH2 0x23EE JUMP JUMPDEST DUP2 EXTCODESIZE ISZERO PUSH2 0x792 JUMPI DUP6 PUSH1 0x40 MLOAD PUSH4 0xBD4EBF37 PUSH1 0xE0 SHL DUP2 MSTORE DUP3 PUSH1 0x4 DUP3 ADD MSTORE DUP2 DUP2 PUSH1 0x24 DUP2 DUP4 DUP9 GAS CALL PUSH2 0x77E JUMPI JUMPDEST POP POP PUSH2 0x5F5 JUMP JUMPDEST PUSH2 0x787 SWAP1 PUSH2 0x1F94 JUMP JUMPDEST PUSH2 0x792 JUMPI DUP6 CODESIZE PUSH2 0x777 JUMP JUMPDEST DUP6 DUP1 REVERT JUMPDEST SWAP2 POP SWAP2 SWAP3 SWAP4 SWAP5 SWAP6 POP PUSH8 0xDE0B6B3A7640000 SWAP2 DUP3 DUP3 MUL SWAP2 DUP3 DIV DUP4 EQ OR ISZERO PUSH2 0x7D7 JUMPI SWAP1 PUSH2 0x7CF PUSH2 0x7C9 DUP12 DUP16 SWAP9 SWAP8 SWAP7 SWAP6 SWAP5 PUSH2 0x221A JUMP JUMPDEST DUP11 PUSH2 0x21F1 JUMP JUMPDEST DIV CODESIZE DUP1 PUSH2 0x5ED JUMP JUMPDEST PUSH4 0x4E487B71 PUSH1 0xE0 SHL DUP14 MSTORE PUSH1 0x11 PUSH1 0x4 MSTORE PUSH1 0x24 DUP14 REVERT JUMPDEST POP DUP12 ISZERO ISZERO PUSH2 0x5E8 JUMP JUMPDEST PUSH2 0x815 SWAP2 POP PUSH1 0x20 RETURNDATASIZE DUP2 GT PUSH2 0x81B JUMPI JUMPDEST PUSH2 0x80D DUP2 DUP4 PUSH2 0x1FA8 JUMP JUMPDEST DUP2 ADD SWAP1 PUSH2 0x2328 JUMP JUMPDEST CODESIZE PUSH2 0x5CB JUMP JUMPDEST POP RETURNDATASIZE PUSH2 0x803 JUMP JUMPDEST PUSH1 0x40 MLOAD RETURNDATASIZE DUP9 DUP3 RETURNDATACOPY RETURNDATASIZE SWAP1 REVERT JUMPDEST PUSH1 0x40 MLOAD PUSH4 0x14D06759 PUSH1 0xE1 SHL DUP2 MSTORE PUSH1 0x4 SWAP1 REVERT JUMPDEST PUSH1 0x40 MLOAD PUSH4 0x4470D525 PUSH1 0xE1 SHL DUP2 MSTORE PUSH1 0x4 SWAP1 REVERT JUMPDEST PUSH1 0x40 MLOAD PUSH4 0x51092DCF PUSH1 0xE1 SHL DUP2 MSTORE PUSH1 0x4 SWAP1 REVERT JUMPDEST PUSH4 0x4E487B71 PUSH1 0xE0 SHL DUP9 MSTORE PUSH1 0x21 PUSH1 0x4 MSTORE PUSH1 0x24 DUP9 REVERT JUMPDEST PUSH1 0x40 MLOAD PUSH4 0x470F9A3D PUSH1 0xE0 SHL DUP2 MSTORE PUSH1 0x4 SWAP1 REVERT JUMPDEST POP CALLVALUE PUSH2 0x23E JUMPI PUSH1 0x40 CALLDATASIZE PUSH1 0x3 NOT ADD SLT PUSH2 0x23E JUMPI PUSH2 0x8C6 PUSH1 0x4 CALLDATALOAD PUSH2 0x8A9 PUSH2 0x1EB5 JUMP JUMPDEST SWAP1 DUP1 DUP5 MSTORE DUP4 PUSH1 0x20 MSTORE PUSH2 0x8C1 PUSH1 0x1 PUSH1 0x40 DUP7 KECCAK256 ADD SLOAD PUSH2 0x20D8 JUMP JUMPDEST PUSH2 0x217C JUMP JUMPDEST POP DUP1 RETURN JUMPDEST POP CALLVALUE PUSH2 0x23E JUMPI PUSH1 0x60 CALLDATASIZE PUSH1 0x3 NOT ADD SLT PUSH2 0x23E JUMPI PUSH8 0xFFFFFFFFFFFFFFFF PUSH1 0x44 CALLDATALOAD GT PUSH2 0x23E JUMPI CALLDATASIZE PUSH1 0x23 PUSH1 0x44 CALLDATALOAD ADD SLT ISZERO PUSH2 0x23E JUMPI PUSH8 0xFFFFFFFFFFFFFFFF PUSH1 0x44 CALLDATALOAD PUSH1 0x4 ADD CALLDATALOAD GT PUSH2 0x23E JUMPI CALLDATASIZE PUSH1 0x24 PUSH1 0x44 CALLDATALOAD PUSH1 0x4 ADD CALLDATALOAD PUSH1 0x44 CALLDATALOAD ADD ADD GT PUSH2 0x23E JUMPI PUSH2 0x92B PUSH2 0x2249 JUMP JUMPDEST PUSH2 0x933 PUSH2 0x2267 JUMP JUMPDEST PUSH1 0x4 CALLDATALOAD ISZERO PUSH2 0xEE4 JUMPI PUSH1 0x24 CALLDATALOAD ISZERO DUP1 ISZERO PUSH2 0xED5 JUMPI JUMPDEST PUSH2 0xEC3 JUMPI PUSH1 0x40 MLOAD PUSH4 0x652ABA9D PUSH1 0xE1 SHL DUP2 MSTORE CALLER PUSH1 0x4 DUP3 ADD MSTORE PUSH1 0x20 DUP2 PUSH1 0x24 DUP2 PUSH32 0x0 PUSH1 0x1 PUSH1 0x1 PUSH1 0xA0 SHL SUB AND GAS STATICCALL SWAP1 DUP2 ISZERO PUSH2 0x723 JUMPI DUP3 SWAP2 PUSH2 0xE91 JUMPI JUMPDEST POP PUSH2 0x2710 SWAP1 DUP2 PUSH2 0x9B5 PUSH2 0x9AF CALLER PUSH2 0x244F JUMP JUMPDEST DUP4 PUSH2 0x21F1 JUMP JUMPDEST DIV PUSH1 0x4 CALLDATALOAD GT PUSH2 0xE7F JUMPI ISZERO PUSH2 0xE6D JUMPI PUSH2 0x9D1 PUSH1 0x4 SLOAD PUSH1 0x4 CALLDATALOAD PUSH2 0x21F1 JUMP JUMPDEST DIV PUSH5 0xE8D4A51000 SWAP1 DUP2 DUP2 MUL SWAP2 DUP2 DUP4 DIV EQ SWAP1 ISZERO OR ISZERO PUSH2 0xE59 JUMPI PUSH1 0x40 MLOAD PUSH4 0x6C24A76F PUSH1 0xE0 SHL DUP2 MSTORE CALLER PUSH1 0x4 DUP3 ADD MSTORE PUSH1 0x20 DUP2 PUSH1 0x24 DUP2 PUSH32 0x0 PUSH1 0x1 PUSH1 0x1 PUSH1 0xA0 SHL SUB AND GAS STATICCALL DUP1 ISZERO PUSH2 0xE4E JUMPI DUP3 SWAP2 DUP5 SWAP2 PUSH2 0xE14 JUMPI JUMPDEST POP LT PUSH2 0xE03 JUMPI PUSH5 0x496CEBB800 PUSH2 0xA5D PUSH1 0x24 CALLDATALOAD PUSH2 0x2E9 PUSH1 0x2 SLOAD PUSH1 0x4 CALLDATALOAD PUSH2 0x21F1 JUMP JUMPDEST DIV PUSH1 0x9 SLOAD SWAP2 PUSH2 0xA6B DUP4 PUSH2 0x223A JUMP JUMPDEST PUSH1 0x9 SSTORE PUSH1 0x40 MLOAD SWAP2 PUSH2 0x140 DUP4 ADD DUP4 DUP2 LT PUSH8 0xFFFFFFFFFFFFFFFF DUP3 GT OR PUSH2 0xDED JUMPI PUSH1 0x40 MSTORE DUP4 DUP4 MSTORE CALLER PUSH1 0x20 DUP5 ADD MSTORE PUSH1 0x4 CALLDATALOAD PUSH1 0x40 DUP5 ADD MSTORE PUSH1 0x60 DUP4 ADD MSTORE PUSH1 0x80 DUP3 ADD MSTORE DUP3 PUSH1 0xA0 DUP3 ADD MSTORE DUP3 PUSH1 0xC0 DUP3 ADD MSTORE DUP3 PUSH1 0xE0 DUP3 ADD MSTORE DUP3 PUSH2 0x100 DUP3 ADD MSTORE PUSH1 0x40 MLOAD PUSH2 0xADE PUSH1 0x20 PUSH1 0x1F NOT PUSH1 0x1F PUSH1 0x44 CALLDATALOAD PUSH1 0x4 ADD CALLDATALOAD ADD AND ADD DUP3 PUSH2 0x1FA8 JUMP JUMPDEST PUSH1 0x44 CALLDATALOAD PUSH1 0x4 DUP2 ADD CALLDATALOAD DUP1 DUP4 MSTORE SWAP1 PUSH1 0x24 ADD PUSH1 0x20 DUP4 ADD CALLDATACOPY DUP4 PUSH1 0x20 PUSH1 0x44 CALLDATALOAD PUSH1 0x4 ADD CALLDATALOAD DUP4 ADD ADD MSTORE PUSH2 0x120 DUP3 ADD MSTORE DUP2 DUP4 MSTORE PUSH1 0x8 PUSH1 0x20 MSTORE PUSH1 0x40 DUP4 KECCAK256 SWAP1 DUP1 MLOAD DUP3 SSTORE PUSH1 0x1 DUP3 ADD PUSH1 0x1 DUP1 PUSH1 0xA0 SHL SUB PUSH1 0x20 DUP4 ADD MLOAD AND PUSH12 0xFFFFFFFFFFFFFFFFFFFFFFFF PUSH1 0xA0 SHL DUP3 SLOAD AND OR SWAP1 SSTORE PUSH1 0x40 DUP2 ADD MLOAD PUSH1 0x2 DUP4 ADD SSTORE PUSH1 0x60 DUP2 ADD MLOAD PUSH1 0x3 DUP4 ADD SSTORE PUSH1 0x80 DUP2 ADD MLOAD PUSH1 0x4 DUP4 ADD SSTORE PUSH1 0xA0 DUP2 ADD MLOAD PUSH1 0x5 DUP4 ADD SSTORE PUSH1 0xC0 DUP2 ADD MLOAD PUSH1 0x6 DUP4 ADD SSTORE PUSH1 0xE0 DUP2 ADD MLOAD PUSH1 0x7 DUP4 ADD SSTORE PUSH1 0x8 DUP3 ADD PUSH2 0x100 DUP3 ADD MLOAD PUSH1 0x6 DUP2 LT ISZERO PUSH2 0xDD9 JUMPI SWAP1 PUSH2 0x120 SWAP3 SWAP2 PUSH1 0xFF DUP1 NOT DUP4 SLOAD AND SWAP2 AND OR SWAP1 SSTORE ADD MLOAD DUP1 MLOAD SWAP1 PUSH8 0xFFFFFFFFFFFFFFFF DUP3 GT PUSH2 0xDC5 JUMPI PUSH2 0xBC0 PUSH1 0x9 DUP5 ADD SLOAD PUSH2 0x1F5A JUMP JUMPDEST PUSH1 0x1F DUP2 GT PUSH2 0xD80 JUMPI JUMPDEST POP PUSH1 0x20 SWAP1 PUSH1 0x1F DUP4 GT PUSH1 0x1 EQ PUSH2 0xD13 JUMPI PUSH1 0x9 SWAP3 SWAP2 DUP7 SWAP2 DUP4 PUSH2 0xD08 JUMPI JUMPDEST POP POP DUP2 PUSH1 0x1 SHL SWAP2 PUSH1 0x0 NOT SWAP1 PUSH1 0x3 SHL SHR NOT AND OR SWAP2 ADD SSTORE JUMPDEST CALLER DUP3 MSTORE PUSH1 0xB PUSH1 0x20 MSTORE PUSH1 0x40 DUP3 KECCAK256 DUP1 SLOAD SWAP1 PUSH9 0x10000000000000000 DUP3 LT ISZERO PUSH2 0xCF4 JUMPI DUP2 PUSH2 0xC2D SWAP2 PUSH1 0x1 PUSH1 0x20 SWAP7 SWAP5 ADD DUP2 SSTORE PUSH2 0x2070 JUMP JUMPDEST DUP2 SLOAD SWAP1 PUSH1 0x3 SHL SWAP1 DUP5 DUP3 SHL SWAP2 PUSH1 0x0 NOT SWAP1 SHL NOT AND OR SWAP1 SSTORE PUSH1 0x40 MLOAD SWAP1 PUSH1 0x4 CALLDATALOAD DUP3 MSTORE PUSH1 0x24 CALLDATALOAD DUP5 DUP4 ADD MSTORE PUSH1 0x60 PUSH1 0x40 DUP4 ADD MSTORE PUSH1 0x44 CALLDATALOAD PUSH1 0x4 ADD CALLDATALOAD PUSH1 0x60 DUP4 ADD MSTORE PUSH1 0x44 CALLDATALOAD PUSH1 0x4 ADD CALLDATALOAD PUSH1 0x24 PUSH1 0x44 CALLDATALOAD ADD PUSH1 0x80 DUP5 ADD CALLDATACOPY PUSH1 0x80 PUSH1 0x44 CALLDATALOAD PUSH1 0x4 ADD CALLDATALOAD DUP4 ADD ADD MSTORE DUP2 PUSH32 0x7B6BA427D6069EEB2637D7D2BB04F521157DD7DF5DA9E39B8BF1A2E7100C1B03 CALLER SWAP3 PUSH1 0x80 DUP2 PUSH1 0x1F NOT PUSH1 0x1F PUSH1 0x44 CALLDATALOAD PUSH1 0x4 ADD CALLDATALOAD ADD AND DUP2 ADD SUB ADD SWAP1 LOG3 PUSH1 0x5 SLOAD PUSH1 0x4 CALLDATALOAD GT ISZERO PUSH2 0xCE6 JUMPI JUMPDEST PUSH1 0x1 PUSH1 0x0 DUP1 MLOAD PUSH1 0x20 PUSH2 0x2519 DUP4 CODECOPY DUP2 MLOAD SWAP2 MSTORE SSTORE PUSH1 0x40 MLOAD SWAP1 DUP2 MSTORE RETURN JUMPDEST PUSH2 0xCEF DUP2 PUSH2 0x2297 JUMP JUMPDEST PUSH2 0xCCC JUMP JUMPDEST PUSH4 0x4E487B71 PUSH1 0xE0 SHL DUP5 MSTORE PUSH1 0x41 PUSH1 0x4 MSTORE PUSH1 0x24 DUP5 REVERT JUMPDEST ADD MLOAD SWAP1 POP CODESIZE DUP1 PUSH2 0xBE4 JUMP JUMPDEST SWAP1 PUSH1 0x9 DUP5 ADD DUP7 MSTORE PUSH1 0x20 DUP7 KECCAK256 SWAP2 DUP7 JUMPDEST PUSH1 0x1F NOT DUP6 AND DUP2 LT PUSH2 0xD68 JUMPI POP SWAP2 DUP4 SWAP2 PUSH1 0x1 SWAP4 PUSH1 0x9 SWAP6 PUSH1 0x1F NOT DUP2 AND LT PUSH2 0xD4F JUMPI JUMPDEST POP POP POP DUP2 SHL ADD SWAP2 ADD SSTORE PUSH2 0xBFA JUMP JUMPDEST ADD MLOAD PUSH1 0x0 NOT PUSH1 0xF8 DUP5 PUSH1 0x3 SHL AND SHR NOT AND SWAP1 SSTORE CODESIZE DUP1 DUP1 PUSH2 0xD41 JUMP JUMPDEST SWAP2 SWAP3 PUSH1 0x20 PUSH1 0x1 DUP2 SWAP3 DUP7 DUP6 ADD MLOAD DUP2 SSTORE ADD SWAP5 ADD SWAP3 ADD PUSH2 0xD21 JUMP JUMPDEST PUSH1 0x9 DUP5 ADD DUP7 MSTORE PUSH1 0x20 DUP7 KECCAK256 PUSH1 0x1F DUP5 ADD PUSH1 0x5 SHR DUP2 ADD PUSH1 0x20 DUP6 LT PUSH2 0xDBE JUMPI JUMPDEST PUSH1 0x1F DUP4 ADD PUSH1 0x5 SHR DUP3 ADD DUP2 LT PUSH2 0xDB2 JUMPI POP POP PUSH2 0xBC9 JUMP JUMPDEST PUSH1 0x0 DUP2 SSTORE PUSH1 0x1 ADD PUSH2 0xD9C JUMP JUMPDEST POP DUP1 PUSH2 0xD9C JUMP JUMPDEST PUSH4 0x4E487B71 PUSH1 0xE0 SHL DUP6 MSTORE PUSH1 0x41 PUSH1 0x4 MSTORE PUSH1 0x24 DUP6 REVERT JUMPDEST PUSH4 0x4E487B71 PUSH1 0xE0 SHL DUP7 MSTORE PUSH1 0x21 PUSH1 0x4 MSTORE PUSH1 0x24 DUP7 REVERT JUMPDEST PUSH4 0x4E487B71 PUSH1 0xE0 SHL PUSH1 0x0 MSTORE PUSH1 0x41 PUSH1 0x4 MSTORE PUSH1 0x24 PUSH1 0x0 REVERT JUMPDEST PUSH1 0x40 MLOAD PUSH3 0x40CC41 PUSH1 0xE6 SHL DUP2 MSTORE PUSH1 0x4 SWAP1 REVERT JUMPDEST SWAP2 POP POP PUSH1 0x20 DUP2 RETURNDATASIZE PUSH1 0x20 GT PUSH2 0xE46 JUMPI JUMPDEST DUP2 PUSH2 0xE30 PUSH1 0x20 SWAP4 DUP4 PUSH2 0x1FA8 JUMP JUMPDEST DUP2 ADD SUB SLT PUSH2 0xE41 JUMPI DUP2 SWAP1 MLOAD CODESIZE PUSH2 0xA3D JUMP JUMPDEST PUSH1 0x0 DUP1 REVERT JUMPDEST RETURNDATASIZE SWAP2 POP PUSH2 0xE23 JUMP JUMPDEST PUSH1 0x40 MLOAD RETURNDATASIZE DUP6 DUP3 RETURNDATACOPY RETURNDATASIZE SWAP1 REVERT JUMPDEST PUSH4 0x4E487B71 PUSH1 0xE0 SHL DUP3 MSTORE PUSH1 0x11 PUSH1 0x4 MSTORE PUSH1 0x24 DUP3 REVERT JUMPDEST PUSH1 0x40 MLOAD PUSH4 0x210045FD PUSH1 0xE0 SHL DUP2 MSTORE PUSH1 0x4 SWAP1 REVERT JUMPDEST PUSH1 0x40 MLOAD PUSH4 0x5893B33 PUSH1 0xE1 SHL DUP2 MSTORE PUSH1 0x4 SWAP1 REVERT JUMPDEST SWAP1 POP PUSH1 0x20 DUP2 RETURNDATASIZE PUSH1 0x20 GT PUSH2 0xEBB JUMPI JUMPDEST DUP2 PUSH2 0xEAC PUSH1 0x20 SWAP4 DUP4 PUSH2 0x1FA8 JUMP JUMPDEST DUP2 ADD SUB SLT PUSH2 0xE41 JUMPI MLOAD CODESIZE PUSH2 0x99D JUMP JUMPDEST RETURNDATASIZE SWAP2 POP PUSH2 0xE9F JUMP JUMPDEST PUSH1 0x40 MLOAD PUSH4 0x75D25ED7 PUSH1 0xE1 SHL DUP2 MSTORE PUSH1 0x4 SWAP1 REVERT JUMPDEST POP PUSH4 0x1E13380 PUSH1 0x24 CALLDATALOAD GT PUSH2 0x946 JUMP JUMPDEST PUSH1 0x40 MLOAD PUSH4 0xB1F4A55 PUSH1 0xE3 SHL DUP2 MSTORE PUSH1 0x4 SWAP1 REVERT JUMPDEST POP CALLVALUE PUSH2 0x23E JUMPI DUP1 PUSH1 0x3 NOT CALLDATASIZE ADD SLT PUSH2 0x23E JUMPI PUSH1 0x20 PUSH1 0x9 SLOAD PUSH1 0x40 MLOAD SWAP1 DUP2 MSTORE RETURN JUMPDEST POP CALLVALUE PUSH2 0x23E JUMPI PUSH1 0x20 CALLDATASIZE PUSH1 0x3 NOT ADD SLT PUSH2 0x23E JUMPI PUSH1 0x4 CALLDATALOAD PUSH2 0xF31 PUSH2 0x2267 JUMP JUMPDEST DUP1 DUP3 MSTORE PUSH1 0x8 PUSH1 0x20 MSTORE PUSH1 0x40 DUP3 KECCAK256 PUSH1 0x1 DUP2 ADD DUP1 SLOAD PUSH1 0x1 PUSH1 0x1 PUSH1 0xA0 SHL SUB SWAP1 DUP2 AND SWAP4 SWAP3 DUP5 ISZERO PUSH2 0x877 JUMPI PUSH1 0x8 DUP2 ADD SWAP1 PUSH1 0xFF DUP3 SLOAD AND PUSH1 0x6 DUP2 LT ISZERO PUSH2 0x863 JUMPI PUSH1 0x4 SUB PUSH2 0x10AB JUMPI DUP7 SWAP1 PUSH1 0x4 DUP5 PUSH32 0x0 AND SWAP2 ADD SWAP7 DUP8 SLOAD SWAP1 DUP3 EXTCODESIZE ISZERO PUSH2 0x72E JUMPI PUSH1 0x40 MLOAD PUSH4 0x4EAB26CD PUSH1 0xE1 SHL DUP2 MSTORE PUSH1 0x1 PUSH1 0x1 PUSH1 0xA0 SHL SUB SWAP2 SWAP1 SWAP2 AND PUSH1 0x4 DUP3 ADD MSTORE PUSH1 0x24 DUP2 ADD SWAP2 SWAP1 SWAP2 MSTORE DUP3 DUP2 PUSH1 0x44 DUP2 DUP4 DUP7 GAS CALL SWAP1 DUP2 ISZERO PUSH2 0xE4E JUMPI DUP4 SWAP2 PUSH2 0x1097 JUMPI JUMPDEST POP POP DUP4 DUP6 SLOAD AND DUP8 SLOAD DUP3 EXTCODESIZE ISZERO PUSH2 0x72E JUMPI PUSH1 0x40 MLOAD PUSH4 0x2770A7EB PUSH1 0xE2 SHL DUP2 MSTORE PUSH1 0x1 PUSH1 0x1 PUSH1 0xA0 SHL SUB SWAP3 SWAP1 SWAP3 AND PUSH1 0x4 DUP4 ADD MSTORE PUSH1 0x24 DUP3 ADD MSTORE SWAP1 DUP3 SWAP1 DUP3 SWAP1 PUSH1 0x44 SWAP1 DUP3 SWAP1 DUP5 SWAP1 GAS CALL DUP1 ISZERO PUSH2 0x723 JUMPI PUSH2 0x107F JUMPI JUMPDEST POP POP SWAP1 PUSH32 0xCCD631C6A824EEAA91BA67065A44B5C5BC5AA9575248E5FD34144C665470FC32 SWAP3 PUSH1 0x20 SWAP3 PUSH1 0x5 PUSH1 0xFF NOT DUP3 SLOAD AND OR SWAP1 SSTORE SLOAD AND SWAP4 SLOAD PUSH1 0x40 MLOAD SWAP1 DUP2 MSTORE LOG3 PUSH1 0x1 PUSH1 0x0 DUP1 MLOAD PUSH1 0x20 PUSH2 0x2519 DUP4 CODECOPY DUP2 MLOAD SWAP2 MSTORE SSTORE DUP1 RETURN JUMPDEST PUSH2 0x108B SWAP1 SWAP4 SWAP3 SWAP4 PUSH2 0x1F94 JUMP JUMPDEST PUSH2 0x792 JUMPI SWAP1 DUP6 CODESIZE PUSH2 0x102C JUMP JUMPDEST PUSH2 0x10A0 SWAP1 PUSH2 0x1F94 JUMP JUMPDEST PUSH2 0x3A5 JUMPI DUP2 CODESIZE PUSH2 0xFE1 JUMP JUMPDEST PUSH1 0x40 MLOAD PUSH4 0xF9F0353 PUSH1 0xE3 SHL DUP2 MSTORE PUSH1 0x4 SWAP1 REVERT JUMPDEST POP CALLVALUE PUSH2 0x23E JUMPI DUP1 PUSH1 0x3 NOT CALLDATASIZE ADD SLT PUSH2 0x23E JUMPI PUSH1 0x20 PUSH1 0x40 MLOAD PUSH2 0x1388 DUP2 MSTORE RETURN JUMPDEST POP CALLVALUE PUSH2 0x23E JUMPI PUSH1 0x20 DUP1 PUSH1 0x3 NOT CALLDATASIZE ADD SLT PUSH2 0x3A5 JUMPI PUSH1 0x4 CALLDATALOAD PUSH2 0x10F8 PUSH2 0x2249 JUMP JUMPDEST PUSH2 0x1100 PUSH2 0x2267 JUMP JUMPDEST DUP1 DUP4 MSTORE PUSH1 0x8 DUP3 MSTORE PUSH1 0x40 DUP4 KECCAK256 PUSH1 0x1 DUP2 ADD DUP1 SLOAD PUSH1 0x1 PUSH1 0x1 PUSH1 0xA0 SHL SUB SWAP5 SWAP2 SWAP3 SWAP1 DUP6 AND SWAP1 DUP2 ISZERO PUSH2 0x877 JUMPI PUSH1 0x8 DUP2 ADD SWAP2 PUSH1 0xFF DUP4 SLOAD AND PUSH1 0x6 DUP2 LT ISZERO PUSH2 0x12EE JUMPI PUSH1 0x1 SUB PUSH2 0x12DC JUMPI DUP8 SWAP1 DUP8 PUSH32 0x0 AND SWAP1 PUSH1 0x4 DUP5 ADD SLOAD DUP3 EXTCODESIZE ISZERO PUSH2 0x72E JUMPI PUSH1 0x40 MLOAD PUSH4 0x58E12AC3 PUSH1 0xE1 SHL DUP2 MSTORE PUSH1 0x1 PUSH1 0x1 PUSH1 0xA0 SHL SUB SWAP3 SWAP1 SWAP3 AND PUSH1 0x4 DUP4 ADD MSTORE PUSH1 0x24 DUP3 ADD MSTORE SWAP1 DUP3 SWAP1 DUP3 SWAP1 PUSH1 0x44 SWAP1 DUP3 SWAP1 DUP5 SWAP1 GAS CALL DUP1 ISZERO PUSH2 0x723 JUMPI PUSH2 0x12C8 JUMPI JUMPDEST POP POP PUSH1 0x2 SWAP2 DUP3 PUSH1 0xFF NOT DUP3 SLOAD AND OR SWAP1 SSTORE TIMESTAMP PUSH1 0x5 DUP3 ADD SSTORE PUSH2 0x11CF PUSH1 0x6 SLOAD TIMESTAMP PUSH2 0x231B JUMP JUMPDEST PUSH1 0x6 DUP3 ADD SSTORE PUSH2 0x11DF PUSH1 0xA SLOAD PUSH2 0x223A JUMP JUMPDEST PUSH1 0xA SSTORE ADD SWAP4 DUP5 SLOAD DUP2 DUP5 SLOAD AND DUP8 MSTORE PUSH1 0xC DUP4 MSTORE PUSH2 0x11FF PUSH1 0x40 DUP9 KECCAK256 SWAP2 DUP3 SLOAD PUSH2 0x231B JUMP JUMPDEST SWAP1 SSTORE PUSH1 0x40 MLOAD PUSH4 0xA9D75B2B PUSH1 0xE0 SHL DUP2 MSTORE PUSH32 0x0 DUP3 AND SWAP4 SWAP1 DUP4 DUP2 PUSH1 0x4 DUP2 DUP9 GAS STATICCALL DUP1 ISZERO PUSH2 0x12BD JUMPI PUSH32 0xCEEB4503A2FE0B51298A0AF21358F3D89E7EAB3F65AE2A7835859C3E2C51604 SWAP6 PUSH2 0x127E SWAP3 DUP11 SWAP3 PUSH2 0x129E JUMPI JUMPDEST POP DUP5 DUP5 SLOAD AND SWAP1 DUP6 DUP11 SLOAD SWAP4 AND PUSH2 0x2347 JUMP JUMPDEST SLOAD AND SWAP4 SLOAD PUSH1 0x40 MLOAD SWAP1 DUP2 MSTORE LOG3 PUSH1 0x1 PUSH1 0x0 DUP1 MLOAD PUSH1 0x20 PUSH2 0x2519 DUP4 CODECOPY DUP2 MLOAD SWAP2 MSTORE SSTORE DUP1 RETURN JUMPDEST PUSH2 0x12B6 SWAP2 SWAP3 POP DUP7 RETURNDATASIZE DUP9 GT PUSH2 0x81B JUMPI PUSH2 0x80D DUP2 DUP4 PUSH2 0x1FA8 JUMP JUMPDEST SWAP1 CODESIZE PUSH2 0x126E JUMP JUMPDEST PUSH1 0x40 MLOAD RETURNDATASIZE DUP11 DUP3 RETURNDATACOPY RETURNDATASIZE SWAP1 REVERT JUMPDEST PUSH2 0x12D1 SWAP1 PUSH2 0x1F94 JUMP JUMPDEST PUSH2 0x71F JUMPI DUP7 CODESIZE PUSH2 0x11AE JUMP JUMPDEST PUSH1 0x40 MLOAD PUSH4 0x102B2F39 PUSH1 0xE1 SHL DUP2 MSTORE PUSH1 0x4 SWAP1 REVERT JUMPDEST PUSH4 0x4E487B71 PUSH1 0xE0 SHL DUP10 MSTORE PUSH1 0x21 PUSH1 0x4 MSTORE PUSH1 0x24 DUP10 REVERT JUMPDEST POP CALLVALUE PUSH2 0x23E JUMPI DUP1 PUSH1 0x3 NOT CALLDATASIZE ADD SLT PUSH2 0x23E JUMPI PUSH1 0x20 PUSH1 0x4 SLOAD PUSH1 0x40 MLOAD SWAP1 DUP2 MSTORE RETURN JUMPDEST POP CALLVALUE PUSH2 0x23E JUMPI PUSH1 0x20 SWAP1 DUP2 PUSH1 0x3 NOT CALLDATASIZE ADD SLT PUSH2 0x23E JUMPI PUSH2 0x133C PUSH2 0x1ECB JUMP JUMPDEST SWAP1 PUSH1 0x40 MLOAD PUSH4 0x652ABA9D PUSH1 0xE1 SHL DUP2 MSTORE DUP4 DUP2 PUSH1 0x24 DUP2 PUSH1 0x1 DUP1 PUSH1 0xA0 SHL SUB DUP1 DUP9 AND PUSH1 0x4 DUP4 ADD MSTORE PUSH32 0x0 AND GAS STATICCALL SWAP2 DUP3 ISZERO PUSH2 0x13D5 JUMPI SWAP2 PUSH2 0x13A6 JUMPI JUMPDEST POP PUSH2 0x2EE SWAP1 PUSH2 0x13A0 PUSH2 0x2710 SWAP4 PUSH2 0x244F JUMP JUMPDEST SWAP1 PUSH2 0x21F1 JUMP JUMPDEST SWAP1 POP DUP3 DUP2 DUP2 RETURNDATASIZE DUP4 GT PUSH2 0x13CE JUMPI JUMPDEST PUSH2 0x13BD DUP2 DUP4 PUSH2 0x1FA8 JUMP JUMPDEST DUP2 ADD SUB SLT PUSH2 0xE41 JUMPI MLOAD PUSH2 0x2710 PUSH2 0x138F JUMP JUMPDEST POP RETURNDATASIZE PUSH2 0x13B3 JUMP JUMPDEST PUSH1 0x40 MLOAD SWAP1 RETURNDATASIZE SWAP1 DUP3 RETURNDATACOPY RETURNDATASIZE SWAP1 REVERT JUMPDEST POP CALLVALUE PUSH2 0x23E JUMPI PUSH1 0x20 DUP1 PUSH1 0x3 NOT CALLDATASIZE ADD SLT PUSH2 0x3A5 JUMPI PUSH1 0x4 CALLDATALOAD DUP1 DUP4 MSTORE PUSH1 0x8 DUP3 MSTORE PUSH2 0x1423 PUSH1 0x40 DUP5 KECCAK256 PUSH1 0x7 PUSH2 0x141A PUSH1 0x2 DUP4 ADD SLOAD PUSH1 0x3 DUP5 ADD SLOAD SWAP1 PUSH2 0x231B JUMP JUMPDEST SWAP2 ADD SLOAD SWAP1 PUSH2 0x23D4 JUMP JUMPDEST PUSH2 0x142B PUSH2 0x2249 JUMP JUMPDEST PUSH2 0x1433 PUSH2 0x2267 JUMP JUMPDEST DUP2 DUP5 MSTORE PUSH1 0x8 DUP4 MSTORE PUSH1 0x40 DUP5 KECCAK256 SWAP1 PUSH1 0x1 DUP3 ADD SWAP4 PUSH1 0x1 DUP1 PUSH1 0xA0 SHL SUB DUP1 DUP7 SLOAD AND ISZERO PUSH2 0x877 JUMPI PUSH1 0x8 DUP5 ADD SWAP6 PUSH1 0xFF DUP8 SLOAD AND PUSH1 0x6 DUP2 LT ISZERO PUSH2 0x12EE JUMPI PUSH1 0x2 SUB PUSH2 0x851 JUMPI PUSH1 0x2 DUP6 ADD SLOAD PUSH2 0x1483 PUSH1 0x3 DUP8 ADD SWAP2 DUP3 SLOAD SWAP1 PUSH2 0x231B JUMP JUMPDEST SWAP6 PUSH1 0x7 DUP2 ADD SWAP9 PUSH2 0x1494 DUP11 SLOAD DUP10 PUSH2 0x23D4 JUMP JUMPDEST DUP1 ISZERO PUSH2 0x83F JUMPI DUP8 GT PUSH2 0x82D JUMPI DUP11 SWAP3 DUP6 PUSH32 0x0 AND PUSH1 0x40 MLOAD PUSH4 0xA9D75B2B PUSH1 0xE0 SHL DUP2 MSTORE DUP9 DUP2 PUSH1 0x4 DUP2 DUP6 GAS STATICCALL DUP1 ISZERO PUSH2 0x822 JUMPI DUP9 SWAP2 DUP8 SWAP2 PUSH2 0x171C JUMPI JUMPDEST POP AND SWAP2 PUSH2 0x14F8 DUP11 ADDRESS CALLER DUP7 PUSH2 0x2347 JUMP JUMPDEST DUP6 SWAP1 SLOAD DUP1 ISZERO SWAP1 DUP2 ISZERO DUP1 PUSH2 0x1713 JUMPI JUMPDEST PUSH2 0x16BD JUMPI JUMPDEST POP POP DUP1 PUSH2 0x1654 JUMPI JUMPDEST PUSH2 0x151D SWAP1 DUP11 PUSH2 0x23D4 JUMP JUMPDEST SWAP1 DUP2 PUSH2 0x1643 JUMPI JUMPDEST POP POP POP DUP8 PUSH2 0x1533 DUP9 DUP13 SLOAD PUSH2 0x231B JUMP JUMPDEST DUP1 DUP13 SSTORE LT ISZERO PUSH2 0x1594 JUMPI JUMPDEST POP POP POP PUSH32 0x553C9087BFF5B534E499A66DAC3FA9DB2962CD252EA01165239755836AE5345E SWAP5 PUSH1 0x40 SWAP5 SWAP4 SWAP3 PUSH2 0x1575 SWAP3 SLOAD AND SWAP8 SLOAD SWAP1 PUSH2 0x23D4 JUMP JUMPDEST SWAP1 DUP4 MLOAD SWAP3 DUP4 MSTORE DUP3 ADD MSTORE LOG3 PUSH1 0x1 PUSH1 0x0 DUP1 MLOAD PUSH1 0x20 PUSH2 0x2519 DUP4 CODECOPY DUP2 MLOAD SWAP2 MSTORE SSTORE DUP1 RETURN JUMPDEST PUSH1 0x3 PUSH1 0xFF NOT DUP3 SLOAD AND OR SWAP1 SSTORE PUSH2 0x15AA PUSH1 0xA SLOAD PUSH2 0x23E1 JUMP JUMPDEST PUSH1 0xA SSTORE DUP4 PUSH32 0x0 AND SWAP1 PUSH1 0x4 DUP6 DUP6 SLOAD AND SWAP2 ADD SLOAD DUP3 EXTCODESIZE ISZERO PUSH2 0x72E JUMPI PUSH1 0x40 MLOAD PUSH4 0x4EAB26CD PUSH1 0xE1 SHL DUP2 MSTORE PUSH1 0x1 PUSH1 0x1 PUSH1 0xA0 SHL SUB SWAP3 SWAP1 SWAP3 AND PUSH1 0x4 DUP4 ADD MSTORE PUSH1 0x24 DUP3 ADD MSTORE SWAP1 DUP3 SWAP1 DUP3 SWAP1 PUSH1 0x44 SWAP1 DUP3 SWAP1 DUP5 SWAP1 GAS CALL DUP1 ISZERO PUSH2 0x723 JUMPI PUSH2 0x1623 JUMPI JUMPDEST DUP1 PUSH2 0x153D JUMP JUMPDEST PUSH2 0x1630 SWAP1 SWAP6 SWAP5 SWAP4 SWAP6 PUSH2 0x1F94 JUMP JUMPDEST PUSH2 0x163F JUMPI DUP8 CODESIZE SWAP5 SWAP3 SWAP4 SWAP5 PUSH2 0x161D JUMP JUMPDEST DUP8 DUP1 REVERT JUMPDEST PUSH2 0x164C SWAP3 PUSH2 0x23EE JUMP JUMPDEST CODESIZE DUP1 DUP1 PUSH2 0x1524 JUMP JUMPDEST SWAP1 SWAP2 SWAP3 SWAP4 SWAP5 POP PUSH2 0x1665 DUP2 DUP4 DUP6 PUSH2 0x23EE JUMP JUMPDEST DUP2 EXTCODESIZE ISZERO PUSH2 0x16B9 JUMPI PUSH1 0x40 MLOAD PUSH4 0xBD4EBF37 PUSH1 0xE0 SHL DUP2 MSTORE PUSH1 0x4 DUP2 ADD DUP3 SWAP1 MSTORE DUP14 DUP2 PUSH1 0x24 DUP2 DUP4 DUP8 GAS CALL PUSH2 0x169A JUMPI JUMPDEST POP SWAP1 DUP13 SWAP5 SWAP4 SWAP3 SWAP2 PUSH2 0x1513 JUMP JUMPDEST SWAP13 PUSH2 0x16AD PUSH2 0x151D SWAP15 SWAP7 SWAP6 SWAP5 SWAP4 SWAP3 SWAP7 PUSH2 0x1F94 JUMP JUMPDEST SWAP13 SWAP5 SWAP1 SWAP2 SWAP3 SWAP4 SWAP5 PUSH2 0x168E JUMP JUMPDEST DUP13 DUP1 REVERT JUMPDEST SWAP2 POP SWAP2 SWAP3 SWAP4 SWAP5 SWAP6 POP PUSH8 0xDE0B6B3A7640000 SWAP2 DUP3 DUP3 MUL SWAP2 DUP3 DIV DUP4 EQ OR ISZERO PUSH2 0x16FF JUMPI SWAP1 PUSH2 0x16F7 PUSH2 0x16F1 DUP16 SWAP8 SWAP7 SWAP6 SWAP5 SWAP4 DUP14 SWAP1 PUSH2 0x221A JUMP JUMPDEST DUP12 PUSH2 0x21F1 JUMP JUMPDEST DIV CODESIZE DUP1 PUSH2 0x150B JUMP JUMPDEST PUSH4 0x4E487B71 PUSH1 0xE0 SHL DUP15 MSTORE PUSH1 0x11 PUSH1 0x4 MSTORE PUSH1 0x24 DUP15 REVERT JUMPDEST POP DUP13 ISZERO ISZERO PUSH2 0x1506 JUMP JUMPDEST PUSH2 0x1733 SWAP2 POP DUP11 RETURNDATASIZE DUP13 GT PUSH2 0x81B JUMPI PUSH2 0x80D DUP2 DUP4 PUSH2 0x1FA8 JUMP JUMPDEST CODESIZE PUSH2 0x14E9 JUMP JUMPDEST POP CALLVALUE PUSH2 0x23E JUMPI PUSH1 0x20 CALLDATASIZE PUSH1 0x3 NOT ADD SLT PUSH2 0x23E JUMPI PUSH32 0x408A36151F841709116A4E8ACA4E0202874F7F54687DCB863B1EA4672DC9D8CF DUP1 DUP3 MSTORE DUP2 PUSH1 0x20 MSTORE PUSH1 0x40 DUP3 KECCAK256 CALLER DUP4 MSTORE PUSH1 0x20 MSTORE PUSH1 0xFF PUSH1 0x40 DUP4 KECCAK256 SLOAD AND ISZERO PUSH2 0x17B3 JUMPI POP PUSH2 0x1793 PUSH2 0x2267 JUMP JUMPDEST PUSH2 0x179E PUSH1 0x4 CALLDATALOAD PUSH2 0x2297 JUMP JUMPDEST PUSH1 0x1 PUSH1 0x0 DUP1 MLOAD PUSH1 0x20 PUSH2 0x2519 DUP4 CODECOPY DUP2 MLOAD SWAP2 MSTORE SSTORE DUP1 RETURN JUMPDEST PUSH1 0x44 SWAP1 PUSH1 0x40 MLOAD SWAP1 PUSH4 0xE2517D3F PUSH1 0xE0 SHL DUP3 MSTORE CALLER PUSH1 0x4 DUP4 ADD MSTORE PUSH1 0x24 DUP3 ADD MSTORE REVERT JUMPDEST POP CALLVALUE PUSH2 0x23E JUMPI DUP1 PUSH1 0x3 NOT CALLDATASIZE ADD SLT PUSH2 0x23E JUMPI PUSH1 0x20 SWAP1 PUSH1 0x40 MLOAD SWAP1 DUP2 MSTORE RETURN JUMPDEST POP CALLVALUE PUSH2 0x23E JUMPI DUP1 PUSH1 0x3 NOT CALLDATASIZE ADD SLT PUSH2 0x23E JUMPI PUSH1 0x20 PUSH1 0x7 SLOAD PUSH1 0x40 MLOAD SWAP1 DUP2 MSTORE RETURN JUMPDEST POP CALLVALUE PUSH2 0x23E JUMPI PUSH1 0x40 CALLDATASIZE PUSH1 0x3 NOT ADD SLT PUSH2 0x23E JUMPI PUSH1 0xFF PUSH1 0x40 PUSH1 0x20 SWAP3 PUSH2 0x182C PUSH2 0x1EB5 JUMP JUMPDEST PUSH1 0x4 CALLDATALOAD DUP3 MSTORE DUP2 DUP6 MSTORE DUP3 DUP3 KECCAK256 PUSH1 0x1 PUSH1 0x1 PUSH1 0xA0 SHL SUB SWAP1 SWAP2 AND DUP3 MSTORE DUP5 MSTORE KECCAK256 SLOAD PUSH1 0x40 MLOAD SWAP2 AND ISZERO ISZERO DUP2 MSTORE RETURN JUMPDEST POP CALLVALUE PUSH2 0x23E JUMPI DUP1 PUSH1 0x3 NOT CALLDATASIZE ADD SLT PUSH2 0x23E JUMPI PUSH2 0x186C PUSH2 0x209E JUMP JUMPDEST PUSH2 0x1874 PUSH2 0x2249 JUMP JUMPDEST PUSH1 0x1 PUSH1 0xFF NOT DUP2 SLOAD AND OR PUSH1 0x1 SSTORE PUSH32 0x62E78CEA01BEE320CD4E420270B5EA74000D11B0C9F74754EBDBFC544B05A258 PUSH1 0x20 PUSH1 0x40 MLOAD CALLER DUP2 MSTORE LOG1 DUP1 RETURN JUMPDEST POP CALLVALUE PUSH2 0x23E JUMPI DUP1 PUSH1 0x3 NOT CALLDATASIZE ADD SLT PUSH2 0x23E JUMPI PUSH1 0x20 PUSH1 0x2 SLOAD PUSH1 0x40 MLOAD SWAP1 DUP2 MSTORE RETURN JUMPDEST POP CALLVALUE PUSH2 0x23E JUMPI PUSH1 0x20 CALLDATASIZE PUSH1 0x3 NOT ADD SLT PUSH2 0x23E JUMPI PUSH1 0x4 CALLDATALOAD PUSH2 0x18E8 PUSH2 0x2267 JUMP JUMPDEST DUP1 DUP3 MSTORE PUSH1 0x8 PUSH1 0x20 MSTORE PUSH1 0x40 DUP3 KECCAK256 PUSH1 0x1 DUP2 ADD DUP1 SLOAD PUSH1 0x1 PUSH1 0x1 PUSH1 0xA0 SHL SUB SWAP3 SWAP1 DUP4 AND ISZERO PUSH2 0x877 JUMPI PUSH1 0x8 DUP2 ADD SWAP1 DUP2 SLOAD SWAP1 PUSH1 0xFF DUP3 AND PUSH1 0x6 DUP2 LT ISZERO PUSH2 0x863 JUMPI PUSH1 0x2 SUB PUSH2 0x851 JUMPI PUSH1 0x6 ADD SLOAD PUSH1 0x7 SLOAD PUSH2 0x1937 SWAP2 PUSH2 0x231B JUMP JUMPDEST TIMESTAMP LT PUSH2 0x1991 JUMPI PUSH1 0xFF NOT AND PUSH1 0x4 OR SWAP1 SSTORE PUSH1 0xA SLOAD PUSH2 0x1952 SWAP1 PUSH2 0x23E1 JUMP JUMPDEST PUSH1 0xA SSTORE SLOAD AND SWAP1 PUSH32 0x13B88E6866F0156D706FECFA22B678DE5FC2B749C1D2307F6F47EB541385F1EC DUP4 DUP1 LOG3 PUSH1 0x1 PUSH1 0x0 DUP1 MLOAD PUSH1 0x20 PUSH2 0x2519 DUP4 CODECOPY DUP2 MLOAD SWAP2 MSTORE SSTORE DUP1 RETURN JUMPDEST PUSH1 0x40 MLOAD PUSH4 0x1C3A1757 PUSH1 0xE0 SHL DUP2 MSTORE PUSH1 0x4 SWAP1 REVERT JUMPDEST POP CALLVALUE PUSH2 0x23E JUMPI DUP1 PUSH1 0x3 NOT CALLDATASIZE ADD SLT PUSH2 0x23E JUMPI PUSH1 0x20 PUSH1 0xA SLOAD PUSH1 0x40 MLOAD SWAP1 DUP2 MSTORE RETURN JUMPDEST POP CALLVALUE PUSH2 0x23E JUMPI PUSH1 0x20 CALLDATASIZE PUSH1 0x3 NOT ADD SLT PUSH2 0x23E JUMPI PUSH32 0xEA851FC89EBCCDA62380B76FC8E8317F0BCD4D75EA908CF501BD2EBC6AC1C8F2 PUSH1 0x40 PUSH1 0x4 CALLDATALOAD PUSH2 0x1A01 PUSH2 0x209E JUMP JUMPDEST PUSH1 0x4 SLOAD SWAP1 DUP1 PUSH1 0x4 SSTORE DUP3 MLOAD SWAP2 DUP3 MSTORE PUSH1 0x20 DUP3 ADD MSTORE LOG1 DUP1 RETURN JUMPDEST POP CALLVALUE PUSH2 0x23E JUMPI PUSH1 0x20 CALLDATASIZE PUSH1 0x3 NOT ADD SLT PUSH2 0x23E JUMPI PUSH32 0x41E376FD99913DEA7FDA140F5C0BD997515B1A181ACC58737320322548EC6E72 PUSH1 0x40 PUSH1 0x4 CALLDATALOAD PUSH2 0x1A57 PUSH2 0x209E JUMP JUMPDEST PUSH1 0x2 SLOAD SWAP1 DUP1 PUSH1 0x2 SSTORE DUP3 MLOAD SWAP2 DUP3 MSTORE PUSH1 0x20 DUP3 ADD MSTORE LOG1 DUP1 RETURN JUMPDEST POP CALLVALUE PUSH2 0x23E JUMPI DUP1 PUSH1 0x3 NOT CALLDATASIZE ADD SLT PUSH2 0x23E JUMPI PUSH1 0x20 PUSH1 0xFF PUSH1 0x1 SLOAD AND PUSH1 0x40 MLOAD SWAP1 ISZERO ISZERO DUP2 MSTORE RETURN JUMPDEST POP CALLVALUE PUSH2 0x23E JUMPI DUP1 PUSH1 0x3 NOT CALLDATASIZE ADD SLT PUSH2 0x23E JUMPI PUSH1 0x20 PUSH1 0x5 SLOAD PUSH1 0x40 MLOAD SWAP1 DUP2 MSTORE RETURN JUMPDEST POP CALLVALUE PUSH2 0x23E JUMPI PUSH1 0x20 CALLDATASIZE PUSH1 0x3 NOT ADD SLT PUSH2 0x23E JUMPI PUSH1 0x40 PUSH1 0x20 SWAP2 PUSH1 0x4 CALLDATALOAD DUP2 MSTORE PUSH1 0x8 DUP4 MSTORE KECCAK256 PUSH2 0x4EC PUSH1 0x2 DUP3 ADD SLOAD SWAP2 PUSH2 0x1B74 PUSH1 0x3 DUP3 ADD SLOAD SWAP2 PUSH2 0x1AEB DUP4 DUP7 PUSH2 0x231B JUMP JUMPDEST SWAP5 DUP2 SLOAD SWAP6 PUSH1 0x1 DUP1 PUSH1 0xA0 SHL SUB PUSH1 0x1 DUP5 ADD SLOAD AND SWAP5 PUSH1 0x4 DUP5 ADD SLOAD PUSH1 0x5 DUP6 ADD SLOAD PUSH1 0x6 DUP7 ADD SLOAD SWAP2 PUSH1 0x7 DUP8 ADD SLOAD SWAP4 PUSH2 0x1B1D DUP6 DUP8 PUSH2 0x23D4 JUMP JUMPDEST SWAP7 PUSH2 0x1B32 PUSH1 0x9 PUSH1 0xFF PUSH1 0x8 DUP13 ADD SLOAD AND SWAP11 ADD PUSH2 0x1FCA JUMP JUMPDEST SWAP11 PUSH1 0x40 MLOAD SWAP15 DUP16 SWAP15 DUP16 SWAP1 DUP2 MSTORE ADD MSTORE PUSH1 0x40 DUP14 ADD MSTORE PUSH1 0x60 DUP13 ADD MSTORE PUSH1 0x80 DUP12 ADD MSTORE PUSH1 0xA0 DUP11 ADD MSTORE PUSH1 0xC0 DUP10 ADD MSTORE PUSH1 0xE0 DUP9 ADD MSTORE PUSH2 0x100 DUP8 ADD MSTORE PUSH2 0x120 DUP7 ADD MSTORE PUSH2 0x140 DUP6 ADD SWAP1 PUSH2 0x1EE1 JUMP JUMPDEST PUSH2 0x180 DUP1 PUSH2 0x160 DUP6 ADD MSTORE DUP4 ADD SWAP1 PUSH2 0x1F04 JUMP JUMPDEST POP CALLVALUE PUSH2 0x23E JUMPI DUP1 PUSH1 0x3 NOT CALLDATASIZE ADD SLT PUSH2 0x23E JUMPI PUSH1 0x20 PUSH1 0x6 SLOAD PUSH1 0x40 MLOAD SWAP1 DUP2 MSTORE RETURN JUMPDEST POP CALLVALUE PUSH2 0x23E JUMPI DUP1 PUSH1 0x3 NOT CALLDATASIZE ADD SLT PUSH2 0x23E JUMPI PUSH1 0x20 PUSH1 0x40 MLOAD PUSH32 0x408A36151F841709116A4E8ACA4E0202874F7F54687DCB863B1EA4672DC9D8CF DUP2 MSTORE RETURN JUMPDEST POP CALLVALUE PUSH2 0x23E JUMPI DUP1 PUSH1 0x3 NOT CALLDATASIZE ADD SLT PUSH2 0x23E JUMPI PUSH2 0x1BF8 PUSH2 0x209E JUMP JUMPDEST PUSH1 0x1 SLOAD PUSH1 0xFF DUP2 AND ISZERO PUSH2 0x1C38 JUMPI PUSH1 0xFF NOT AND PUSH1 0x1 SSTORE PUSH32 0x5DB9EE0A495BF2E6FF9C91A7834C1BA4FDD244A5E8AA4E537BD38AEAE4B073AA PUSH1 0x20 PUSH1 0x40 MLOAD CALLER DUP2 MSTORE LOG1 DUP1 RETURN JUMPDEST PUSH1 0x40 MLOAD PUSH4 0x8DFC202B PUSH1 0xE0 SHL DUP2 MSTORE PUSH1 0x4 SWAP1 REVERT JUMPDEST POP CALLVALUE PUSH2 0x23E JUMPI PUSH1 0x40 CALLDATASIZE PUSH1 0x3 NOT ADD SLT PUSH2 0x23E JUMPI PUSH2 0x1C64 PUSH2 0x1EB5 JUMP JUMPDEST CALLER PUSH1 0x1 PUSH1 0x1 PUSH1 0xA0 SHL SUB DUP3 AND SUB PUSH2 0x1C80 JUMPI PUSH2 0x8C6 SWAP1 PUSH1 0x4 CALLDATALOAD PUSH2 0x217C JUMP JUMPDEST PUSH1 0x40 MLOAD PUSH4 0x334BD919 PUSH1 0xE1 SHL DUP2 MSTORE PUSH1 0x4 SWAP1 REVERT JUMPDEST POP CALLVALUE PUSH2 0x23E JUMPI PUSH1 0x40 CALLDATASIZE PUSH1 0x3 NOT ADD SLT PUSH2 0x23E JUMPI PUSH2 0x8C6 PUSH1 0x4 CALLDATALOAD PUSH2 0x1CB2 PUSH2 0x1EB5 JUMP JUMPDEST SWAP1 DUP1 DUP5 MSTORE DUP4 PUSH1 0x20 MSTORE PUSH2 0x1CCA PUSH1 0x1 PUSH1 0x40 DUP7 KECCAK256 ADD SLOAD PUSH2 0x20D8 JUMP JUMPDEST PUSH2 0x20FE JUMP JUMPDEST POP CALLVALUE PUSH2 0x23E JUMPI PUSH1 0x20 CALLDATASIZE PUSH1 0x3 NOT ADD SLT PUSH2 0x23E JUMPI PUSH1 0x1 PUSH1 0x40 PUSH1 0x20 SWAP3 PUSH1 0x4 CALLDATALOAD DUP2 MSTORE DUP1 DUP5 MSTORE KECCAK256 ADD SLOAD PUSH1 0x40 MLOAD SWAP1 DUP2 MSTORE RETURN JUMPDEST POP CALLVALUE PUSH2 0x23E JUMPI DUP1 PUSH1 0x3 NOT CALLDATASIZE ADD SLT PUSH2 0x23E JUMPI PUSH1 0x20 PUSH1 0x40 MLOAD PUSH2 0x1B58 DUP2 MSTORE RETURN JUMPDEST POP CALLVALUE PUSH2 0x23E JUMPI PUSH1 0x20 CALLDATASIZE PUSH1 0x3 NOT ADD SLT PUSH2 0x23E JUMPI PUSH32 0xB06A54CAABE58475C86C2BF9DF3F2F06DD1213E9E10659C293117FE4893B274B PUSH1 0x40 PUSH1 0x4 CALLDATALOAD PUSH2 0x1D58 PUSH2 0x209E JUMP JUMPDEST PUSH1 0x5 SLOAD SWAP1 DUP1 PUSH1 0x5 SSTORE DUP3 MLOAD SWAP2 DUP3 MSTORE PUSH1 0x20 DUP3 ADD MSTORE LOG1 DUP1 RETURN JUMPDEST POP CALLVALUE PUSH2 0x23E JUMPI PUSH1 0x20 CALLDATASIZE PUSH1 0x3 NOT ADD SLT PUSH2 0x23E JUMPI PUSH2 0x2710 PUSH2 0x1D91 PUSH1 0x4 SLOAD PUSH1 0x4 CALLDATALOAD PUSH2 0x21F1 JUMP JUMPDEST DIV SWAP1 PUSH5 0xE8D4A51000 SWAP2 DUP3 DUP2 MUL SWAP3 DUP2 DUP5 DIV EQ SWAP1 ISZERO OR ISZERO PUSH2 0x1DB5 JUMPI PUSH1 0x20 DUP3 PUSH1 0x40 MLOAD SWAP1 DUP2 MSTORE RETURN JUMPDEST PUSH4 0x4E487B71 PUSH1 0xE0 SHL DUP2 MSTORE PUSH1 0x11 PUSH1 0x4 MSTORE PUSH1 0x24 SWAP1 REVERT JUMPDEST POP CALLVALUE PUSH2 0x23E JUMPI PUSH1 0x20 CALLDATASIZE PUSH1 0x3 NOT ADD SLT PUSH2 0x23E JUMPI PUSH1 0x4 CALLDATALOAD PUSH2 0x1DE6 PUSH2 0x209E JUMP JUMPDEST PUSH2 0x2710 DUP2 GT PUSH2 0x1E29 JUMPI PUSH1 0x40 PUSH32 0xEFAF0263A58E2B37C18E8494288218521B8FC54C3D807E281D847E95C4B4D524 SWAP2 PUSH1 0x3 SLOAD SWAP1 DUP1 PUSH1 0x3 SSTORE DUP3 MLOAD SWAP2 DUP3 MSTORE PUSH1 0x20 DUP3 ADD MSTORE LOG1 DUP1 RETURN JUMPDEST PUSH1 0x40 MLOAD PUSH3 0x461BCD PUSH1 0xE5 SHL DUP2 MSTORE PUSH1 0x20 PUSH1 0x4 DUP3 ADD MSTORE PUSH1 0xB PUSH1 0x24 DUP3 ADD MSTORE PUSH11 0x24B73B30B634B210262A2B PUSH1 0xA9 SHL PUSH1 0x44 DUP3 ADD MSTORE PUSH1 0x64 SWAP1 REVERT JUMPDEST SWAP1 POP CALLVALUE PUSH2 0x3A5 JUMPI PUSH1 0x20 CALLDATASIZE PUSH1 0x3 NOT ADD SLT PUSH2 0x3A5 JUMPI PUSH1 0x4 CALLDATALOAD PUSH4 0xFFFFFFFF PUSH1 0xE0 SHL DUP2 AND DUP1 SWAP2 SUB PUSH2 0x1EB1 JUMPI PUSH1 0x20 SWAP3 POP PUSH4 0x7965DB0B PUSH1 0xE0 SHL DUP2 EQ SWAP1 DUP2 ISZERO PUSH2 0x1EA0 JUMPI JUMPDEST POP ISZERO ISZERO DUP2 MSTORE RETURN JUMPDEST PUSH4 0x1FFC9A7 PUSH1 0xE0 SHL EQ SWAP1 POP CODESIZE PUSH2 0x1E99 JUMP JUMPDEST DUP3 DUP1 REVERT JUMPDEST PUSH1 0x24 CALLDATALOAD SWAP1 PUSH1 0x1 PUSH1 0x1 PUSH1 0xA0 SHL SUB DUP3 AND DUP3 SUB PUSH2 0xE41 JUMPI JUMP JUMPDEST PUSH1 0x4 CALLDATALOAD SWAP1 PUSH1 0x1 PUSH1 0x1 PUSH1 0xA0 SHL SUB DUP3 AND DUP3 SUB PUSH2 0xE41 JUMPI JUMP JUMPDEST SWAP1 PUSH1 0x6 DUP3 LT ISZERO PUSH2 0x1EEE JUMPI MSTORE JUMP JUMPDEST PUSH4 0x4E487B71 PUSH1 0xE0 SHL PUSH1 0x0 MSTORE PUSH1 0x21 PUSH1 0x4 MSTORE PUSH1 0x24 PUSH1 0x0 REVERT JUMPDEST SWAP2 SWAP1 DUP3 MLOAD SWAP3 DUP4 DUP3 MSTORE PUSH1 0x0 JUMPDEST DUP5 DUP2 LT PUSH2 0x1F30 JUMPI POP POP DUP3 PUSH1 0x0 PUSH1 0x20 DUP1 SWAP5 SWAP6 DUP5 ADD ADD MSTORE PUSH1 0x1F DUP1 NOT SWAP2 ADD AND ADD ADD SWAP1 JUMP JUMPDEST PUSH1 0x20 DUP2 DUP4 ADD DUP2 ADD MLOAD DUP5 DUP4 ADD DUP3 ADD MSTORE ADD PUSH2 0x1F0F JUMP JUMPDEST PUSH1 0x40 SWAP1 PUSH1 0x3 NOT ADD SLT PUSH2 0xE41 JUMPI PUSH1 0x4 CALLDATALOAD SWAP1 PUSH1 0x24 CALLDATALOAD SWAP1 JUMP JUMPDEST SWAP1 PUSH1 0x1 DUP3 DUP2 SHR SWAP3 AND DUP1 ISZERO PUSH2 0x1F8A JUMPI JUMPDEST PUSH1 0x20 DUP4 LT EQ PUSH2 0x1F74 JUMPI JUMP JUMPDEST PUSH4 0x4E487B71 PUSH1 0xE0 SHL PUSH1 0x0 MSTORE PUSH1 0x22 PUSH1 0x4 MSTORE PUSH1 0x24 PUSH1 0x0 REVERT JUMPDEST SWAP2 PUSH1 0x7F AND SWAP2 PUSH2 0x1F69 JUMP JUMPDEST PUSH8 0xFFFFFFFFFFFFFFFF DUP2 GT PUSH2 0xDED JUMPI PUSH1 0x40 MSTORE JUMP JUMPDEST SWAP1 PUSH1 0x1F DUP1 NOT SWAP2 ADD AND DUP2 ADD SWAP1 DUP2 LT PUSH8 0xFFFFFFFFFFFFFFFF DUP3 GT OR PUSH2 0xDED JUMPI PUSH1 0x40 MSTORE JUMP JUMPDEST SWAP1 PUSH1 0x40 MLOAD SWAP2 DUP3 PUSH1 0x0 DUP3 SLOAD SWAP3 PUSH2 0x1FDE DUP5 PUSH2 0x1F5A JUMP JUMPDEST SWAP1 DUP2 DUP5 MSTORE PUSH1 0x1 SWAP5 DUP6 DUP2 AND SWAP1 DUP2 PUSH1 0x0 EQ PUSH2 0x204D JUMPI POP PUSH1 0x1 EQ PUSH2 0x200A JUMPI JUMPDEST POP POP PUSH2 0x2008 SWAP3 POP SUB DUP4 PUSH2 0x1FA8 JUMP JUMPDEST JUMP JUMPDEST SWAP1 SWAP4 SWAP2 POP PUSH1 0x0 MSTORE PUSH1 0x20 SWAP1 DUP2 PUSH1 0x0 KECCAK256 SWAP4 PUSH1 0x0 SWAP2 JUMPDEST DUP2 DUP4 LT PUSH2 0x2035 JUMPI POP POP PUSH2 0x2008 SWAP4 POP DUP3 ADD ADD CODESIZE DUP1 PUSH2 0x1FFA JUMP JUMPDEST DUP6 SLOAD DUP9 DUP5 ADD DUP6 ADD MSTORE SWAP5 DUP6 ADD SWAP5 DUP8 SWAP5 POP SWAP2 DUP4 ADD SWAP2 PUSH2 0x201D JUMP JUMPDEST SWAP2 POP POP PUSH2 0x2008 SWAP5 POP PUSH1 0x20 SWAP3 POP PUSH1 0xFF NOT AND DUP3 DUP5 ADD MSTORE ISZERO ISZERO PUSH1 0x5 SHL DUP3 ADD ADD CODESIZE DUP1 PUSH2 0x1FFA JUMP JUMPDEST DUP1 SLOAD DUP3 LT ISZERO PUSH2 0x2088 JUMPI PUSH1 0x0 MSTORE PUSH1 0x20 PUSH1 0x0 KECCAK256 ADD SWAP1 PUSH1 0x0 SWAP1 JUMP JUMPDEST PUSH4 0x4E487B71 PUSH1 0xE0 SHL PUSH1 0x0 MSTORE PUSH1 0x32 PUSH1 0x4 MSTORE PUSH1 0x24 PUSH1 0x0 REVERT JUMPDEST CALLER PUSH1 0x0 SWAP1 DUP2 MSTORE PUSH32 0xAD3228B676F7D3CD4284A5443F17F1962B36E491B30A40B2405849E597BA5FB5 PUSH1 0x20 MSTORE PUSH1 0x40 DUP2 KECCAK256 SLOAD PUSH1 0xFF AND ISZERO PUSH2 0x17B3 JUMPI POP JUMP JUMPDEST DUP1 PUSH1 0x0 MSTORE PUSH1 0x0 PUSH1 0x20 MSTORE PUSH1 0x40 PUSH1 0x0 KECCAK256 CALLER PUSH1 0x0 MSTORE PUSH1 0x20 MSTORE PUSH1 0xFF PUSH1 0x40 PUSH1 0x0 KECCAK256 SLOAD AND ISZERO PUSH2 0x17B3 JUMPI POP JUMP JUMPDEST SWAP1 PUSH1 0x0 SWAP2 DUP1 DUP4 MSTORE DUP3 PUSH1 0x20 MSTORE PUSH1 0x40 DUP4 KECCAK256 SWAP2 PUSH1 0x1 DUP1 PUSH1 0xA0 SHL SUB AND SWAP2 DUP3 DUP5 MSTORE PUSH1 0x20 MSTORE PUSH1 0xFF PUSH1 0x40 DUP5 KECCAK256 SLOAD AND ISZERO PUSH1 0x0 EQ PUSH2 0x2177 JUMPI DUP1 DUP4 MSTORE DUP3 PUSH1 0x20 MSTORE PUSH1 0x40 DUP4 KECCAK256 DUP3 DUP5 MSTORE PUSH1 0x20 MSTORE PUSH1 0x40 DUP4 KECCAK256 PUSH1 0x1 PUSH1 0xFF NOT DUP3 SLOAD AND OR SWAP1 SSTORE PUSH32 0x2F8788117E7EFF1D82E926EC794901D17C78024A50270940304540A733656F0D CALLER SWAP4 DUP1 LOG4 PUSH1 0x1 SWAP1 JUMP JUMPDEST POP POP SWAP1 JUMP JUMPDEST SWAP1 PUSH1 0x0 SWAP2 DUP1 DUP4 MSTORE DUP3 PUSH1 0x20 MSTORE PUSH1 0x40 DUP4 KECCAK256 SWAP2 PUSH1 0x1 DUP1 PUSH1 0xA0 SHL SUB AND SWAP2 DUP3 DUP5 MSTORE PUSH1 0x20 MSTORE PUSH1 0xFF PUSH1 0x40 DUP5 KECCAK256 SLOAD AND PUSH1 0x0 EQ PUSH2 0x2177 JUMPI DUP1 DUP4 MSTORE DUP3 PUSH1 0x20 MSTORE PUSH1 0x40 DUP4 KECCAK256 DUP3 DUP5 MSTORE PUSH1 0x20 MSTORE PUSH1 0x40 DUP4 KECCAK256 PUSH1 0xFF NOT DUP2 SLOAD AND SWAP1 SSTORE PUSH32 0xF6391F5C32D9C69D2A47EA670B442974B53935D1EDC7FD64EB21E047A839171B CALLER SWAP4 DUP1 LOG4 PUSH1 0x1 SWAP1 JUMP JUMPDEST DUP2 DUP2 MUL SWAP3 SWAP2 DUP2 ISZERO SWAP2 DUP5 DIV EQ OR ISZERO PUSH2 0x2204 JUMPI JUMP JUMPDEST PUSH4 0x4E487B71 PUSH1 0xE0 SHL PUSH1 0x0 MSTORE PUSH1 0x11 PUSH1 0x4 MSTORE PUSH1 0x24 PUSH1 0x0 REVERT JUMPDEST DUP2 ISZERO PUSH2 0x2224 JUMPI DIV SWAP1 JUMP JUMPDEST PUSH4 0x4E487B71 PUSH1 0xE0 SHL PUSH1 0x0 MSTORE PUSH1 0x12 PUSH1 0x4 MSTORE PUSH1 0x24 PUSH1 0x0 REVERT JUMPDEST PUSH1 0x0 NOT DUP2 EQ PUSH2 0x2204 JUMPI PUSH1 0x1 ADD SWAP1 JUMP JUMPDEST PUSH1 0xFF PUSH1 0x1 SLOAD AND PUSH2 0x2255 JUMPI JUMP JUMPDEST PUSH1 0x40 MLOAD PUSH4 0xD93C0665 PUSH1 0xE0 SHL DUP2 MSTORE PUSH1 0x4 SWAP1 REVERT JUMPDEST PUSH1 0x0 DUP1 MLOAD PUSH1 0x20 PUSH2 0x2519 DUP4 CODECOPY DUP2 MLOAD SWAP2 MSTORE PUSH1 0x2 DUP2 SLOAD EQ PUSH2 0x2285 JUMPI PUSH1 0x2 SWAP1 SSTORE JUMP JUMPDEST PUSH1 0x40 MLOAD PUSH4 0x3EE5AEB5 PUSH1 0xE0 SHL DUP2 MSTORE PUSH1 0x4 SWAP1 REVERT JUMPDEST PUSH1 0x0 DUP2 DUP2 MSTORE PUSH1 0x8 PUSH1 0x20 MSTORE PUSH1 0x40 SWAP1 KECCAK256 PUSH1 0x1 DUP2 ADD SLOAD PUSH1 0x1 PUSH1 0x1 PUSH1 0xA0 SHL SUB AND ISZERO PUSH2 0x877 JUMPI PUSH1 0x8 DUP2 ADD DUP1 SLOAD PUSH1 0xFF DUP2 AND PUSH1 0x6 DUP2 LT ISZERO PUSH2 0x1EEE JUMPI PUSH2 0x2309 JUMPI PUSH1 0xFF NOT AND PUSH1 0x1 OR SWAP1 SSTORE PUSH1 0x4 ADD SLOAD PUSH1 0x40 MLOAD SWAP1 DUP2 MSTORE PUSH31 0x25A2D6CA1B3DA40A46ECC2C7ECBDDB416FE7180003A0155B7E7D782D895F21 SWAP1 PUSH1 0x20 SWAP1 LOG2 JUMP JUMPDEST PUSH1 0x40 MLOAD PUSH4 0xFB417AB1 PUSH1 0xE0 SHL DUP2 MSTORE PUSH1 0x4 SWAP1 REVERT JUMPDEST SWAP2 SWAP1 DUP3 ADD DUP1 SWAP3 GT PUSH2 0x2204 JUMPI JUMP JUMPDEST SWAP1 DUP2 PUSH1 0x20 SWAP2 SUB SLT PUSH2 0xE41 JUMPI MLOAD PUSH1 0x1 PUSH1 0x1 PUSH1 0xA0 SHL SUB DUP2 AND DUP2 SUB PUSH2 0xE41 JUMPI SWAP1 JUMP JUMPDEST PUSH1 0x40 MLOAD PUSH4 0x23B872DD PUSH1 0xE0 SHL PUSH1 0x0 SWAP1 DUP2 MSTORE PUSH1 0x1 PUSH1 0x1 PUSH1 0xA0 SHL SUB SWAP4 DUP5 AND PUSH1 0x4 MSTORE SWAP4 DUP4 AND PUSH1 0x24 MSTORE PUSH1 0x44 SWAP5 SWAP1 SWAP5 MSTORE SWAP1 SWAP2 PUSH1 0x20 SWAP1 PUSH1 0x64 DUP2 DUP1 DUP6 GAS CALL PUSH1 0x1 PUSH1 0x0 MLOAD EQ DUP2 AND ISZERO PUSH2 0x23B4 JUMPI JUMPDEST DUP4 PUSH1 0x40 MSTORE PUSH1 0x0 PUSH1 0x60 MSTORE ISZERO PUSH2 0x239E JUMPI POP POP POP JUMP JUMPDEST PUSH4 0x5274AFE7 PUSH1 0xE0 SHL DUP4 MSTORE AND PUSH1 0x4 DUP3 ADD MSTORE PUSH1 0x24 SWAP2 POP REVERT JUMPDEST PUSH1 0x1 DUP2 ISZERO AND PUSH2 0x23CA JUMPI DUP2 EXTCODESIZE ISZERO ISZERO RETURNDATASIZE ISZERO AND AND PUSH2 0x238B JUMP JUMPDEST DUP4 RETURNDATASIZE PUSH1 0x0 DUP3 RETURNDATACOPY RETURNDATASIZE SWAP1 REVERT JUMPDEST SWAP2 SWAP1 DUP3 SUB SWAP2 DUP3 GT PUSH2 0x2204 JUMPI JUMP JUMPDEST DUP1 ISZERO PUSH2 0x2204 JUMPI PUSH1 0x0 NOT ADD SWAP1 JUMP JUMPDEST PUSH1 0x40 MLOAD PUSH4 0xA9059CBB PUSH1 0xE0 SHL PUSH1 0x0 SWAP1 DUP2 MSTORE PUSH1 0x1 PUSH1 0x1 PUSH1 0xA0 SHL SUB SWAP4 DUP5 AND PUSH1 0x4 MSTORE PUSH1 0x24 SWAP5 SWAP1 SWAP5 MSTORE SWAP3 PUSH1 0x20 SWAP1 PUSH1 0x44 DUP2 DUP1 DUP6 GAS CALL PUSH1 0x1 PUSH1 0x0 MLOAD EQ DUP2 AND ISZERO PUSH2 0x2439 JUMPI JUMPDEST DUP4 PUSH1 0x40 MSTORE ISZERO PUSH2 0x239E JUMPI POP POP POP JUMP JUMPDEST PUSH1 0x1 DUP2 ISZERO AND PUSH2 0x23CA JUMPI DUP2 EXTCODESIZE ISZERO ISZERO RETURNDATASIZE ISZERO AND AND PUSH2 0x242B JUMP JUMPDEST PUSH1 0x40 MLOAD PUSH4 0x2587E2F PUSH1 0xE2 SHL DUP2 MSTORE PUSH1 0x1 PUSH1 0x1 PUSH1 0xA0 SHL SUB SWAP2 DUP3 AND PUSH1 0x4 DUP3 ADD MSTORE SWAP1 PUSH1 0x20 SWAP1 DUP3 SWAP1 PUSH1 0x24 SWAP1 DUP3 SWAP1 PUSH32 0x0 AND GAS STATICCALL SWAP1 DUP2 ISZERO PUSH2 0x250C JUMPI PUSH1 0x0 SWAP2 PUSH2 0x24D0 JUMPI JUMPDEST POP PUSH1 0xFF AND PUSH1 0x3 DUP2 EQ PUSH2 0x24C9 JUMPI PUSH1 0x2 EQ PUSH2 0x24C3 JUMPI PUSH2 0xBB8 SWAP1 JUMP JUMPDEST PUSH2 0x1388 SWAP1 JUMP JUMPDEST POP PUSH2 0x1B58 SWAP1 JUMP JUMPDEST PUSH1 0x20 DUP2 RETURNDATASIZE DUP3 GT PUSH2 0x2504 JUMPI JUMPDEST DUP2 PUSH2 0x24E8 PUSH1 0x20 SWAP4 DUP4 PUSH2 0x1FA8 JUMP JUMPDEST DUP2 ADD SUB SLT PUSH2 0x3A5 JUMPI MLOAD SWAP1 PUSH1 0xFF DUP3 AND DUP3 SUB PUSH2 0x23E JUMPI POP PUSH1 0xFF PUSH2 0x24AA JUMP JUMPDEST RETURNDATASIZE SWAP2 POP PUSH2 0x24DB JUMP JUMPDEST PUSH1 0x40 MLOAD RETURNDATASIZE PUSH1 0x0 DUP3 RETURNDATACOPY RETURNDATASIZE SWAP1 REVERT INVALID SWAP12 PUSH24 0x9B17422D0DF92223018B32B4D1FA46E071723D6817E2486D STOP EXTCODESIZE 0xEC 0xC5 PUSH0 STOP LOG2 PUSH5 0x6970667358 0x22 SLT KECCAK256 0xDE 0x2C CHAINID EXP EXTCODECOPY 0xC5 JUMPI PUSH9 0x6BF7642286701AB3CE PUSH4 0x76BF051A 0x26 0xCA LOG3 0xAF 0xAB 0xF9 0xE7 CALLDATASIZE 0xDD 0xB1 PUSH5 0x736F6C6343 STOP ADDMOD EQ STOP CALLER 0x2F DUP8 DUP9 GT PUSH31 0x7EFF1D82E926EC794901D17C78024A50270940304540A733656F0D00000000 "},"methodIdentifiers":{"APPROVER_ROLE()":"4245962b","DEFAULT_ADMIN_ROLE()":"a217fddf","TIER1_LTV()":"f34b035a","TIER2_LTV()":"bf6a2710","TIER3_LTV()":"1a1b020a","activeLoanCount()":"6f083519","approveLoan(uint256)":"aadc1ac1","autoApproveThreshold()":"54edb3a0","borrowerLoans(address,uint256)":"e3ed1902","calculateInterest(uint256,uint256)":"efdd7c07","claimCollateral(uint256)":"c49785b4","collateralRatio()":"b4eae1cb","defaultLoanDuration()":"442c64c6","disburse(uint256)":"bd77ac2c","getBorrowerLoans(address)":"eee8b7ff","getLoan(uint256)":"504006ca","getMaxLoanAmount(address)":"ad73f38e","getRequiredCollateral(uint256)":"09cd4e26","getRoleAdmin(bytes32)":"248a9ca3","gracePeriod()":"a06db7dc","grantRole(bytes32,address)":"2f2ff15d","hasRole(bytes32,address)":"91d14854","interestRate()":"7c3a00fd","loanCount()":"ce63094d","loans(uint256)":"e1ec3c68","markDefaulted(uint256)":"73216450","maxLTV()":"f384bd05","pause()":"8456cb59","paused()":"5c975abb","renounceRole(bytes32,address)":"36568abe","repay(uint256,uint256)":"d8aed145","repayInFull(uint256)":"ad05db51","requestLoan(uint256,uint256,string)":"d3602dc6","revokeRole(bytes32,address)":"d547741f","setAutoApproveThreshold(uint256)":"14956f44","setCollateralRatio(uint256)":"6060663e","setInterestRate(uint256)":"5f84f302","setMaxLTV(uint256)":"08a0c375","supportsInterface(bytes4)":"01ffc9a7","token()":"fc0c546a","totalBorrowed(address)":"e2e1ca2b","unpause()":"3f4ba83a","vault()":"fbfa77cf"}}}}}