{"contracts/LakomiGovern.sol":{"LakomiGovern":{"abi":[{"inputs":[{"internalType":"address","name":"_token","type":"address"},{"internalType":"uint256","name":"_votingPeriod","type":"uint256"},{"internalType":"uint256","name":"_quorumNumerator","type":"uint256"},{"internalType":"uint256","name":"_executionTimelock","type":"uint256"}],"stateMutability":"nonpayable","type":"constructor"},{"inputs":[],"name":"AccessControlBadConfirmation","type":"error"},{"inputs":[{"internalType":"address","name":"account","type":"address"},{"internalType":"bytes32","name":"neededRole","type":"bytes32"}],"name":"AccessControlUnauthorizedAccount","type":"error"},{"inputs":[],"name":"EnforcedPause","type":"error"},{"inputs":[],"name":"ExpectedPause","type":"error"},{"inputs":[],"name":"LakomiGovern__AlreadyExecuted","type":"error"},{"inputs":[],"name":"LakomiGovern__AlreadyVoted","type":"error"},{"inputs":[],"name":"LakomiGovern__EmptyDescription","type":"error"},{"inputs":[],"name":"LakomiGovern__ExecutionFailed","type":"error"},{"inputs":[],"name":"LakomiGovern__NotPengawas","type":"error"},{"inputs":[],"name":"LakomiGovern__NotProposer","type":"error"},{"inputs":[],"name":"LakomiGovern__NotRegisteredMember","type":"error"},{"inputs":[],"name":"LakomiGovern__ProposalNotActive","type":"error"},{"inputs":[],"name":"LakomiGovern__ProposalNotSucceeded","type":"error"},{"inputs":[],"name":"LakomiGovern__ProposalVetoed","type":"error"},{"inputs":[],"name":"LakomiGovern__RATNotDue","type":"error"},{"inputs":[],"name":"LakomiGovern__TimelockNotMet","type":"error"},{"inputs":[],"name":"LakomiGovern__ZeroAddress","type":"error"},{"inputs":[],"name":"ReentrancyGuardReentrantCall","type":"error"},{"anonymous":false,"inputs":[{"indexed":false,"internalType":"address","name":"account","type":"address"}],"name":"Paused","type":"event"},{"anonymous":false,"inputs":[{"indexed":true,"internalType":"uint256","name":"id","type":"uint256"}],"name":"ProposalCanceled","type":"event"},{"anonymous":false,"inputs":[{"indexed":true,"internalType":"uint256","name":"id","type":"uint256"},{"indexed":true,"internalType":"address","name":"proposer","type":"address"},{"indexed":false,"internalType":"string","name":"description","type":"string"},{"indexed":false,"internalType":"uint256","name":"startTime","type":"uint256"},{"indexed":false,"internalType":"uint256","name":"endTime","type":"uint256"}],"name":"ProposalCreated","type":"event"},{"anonymous":false,"inputs":[{"indexed":true,"internalType":"uint256","name":"id","type":"uint256"}],"name":"ProposalExecuted","type":"event"},{"anonymous":false,"inputs":[{"indexed":true,"internalType":"uint256","name":"id","type":"uint256"},{"indexed":false,"internalType":"uint256","name":"eta","type":"uint256"}],"name":"ProposalQueued","type":"event"},{"anonymous":false,"inputs":[{"indexed":true,"internalType":"uint256","name":"id","type":"uint256"},{"indexed":true,"internalType":"address","name":"pengawas","type":"address"}],"name":"ProposalVetoed","type":"event"},{"anonymous":false,"inputs":[{"indexed":true,"internalType":"uint256","name":"proposalId","type":"uint256"},{"indexed":false,"internalType":"uint256","name":"scheduledTime","type":"uint256"}],"name":"RATScheduled","type":"event"},{"anonymous":false,"inputs":[{"indexed":true,"internalType":"bytes32","name":"role","type":"bytes32"},{"indexed":true,"internalType":"bytes32","name":"previousAdminRole","type":"bytes32"},{"indexed":true,"internalType":"bytes32","name":"newAdminRole","type":"bytes32"}],"name":"RoleAdminChanged","type":"event"},{"anonymous":false,"inputs":[{"indexed":true,"internalType":"bytes32","name":"role","type":"bytes32"},{"indexed":true,"internalType":"address","name":"account","type":"address"},{"indexed":true,"internalType":"address","name":"sender","type":"address"}],"name":"RoleGranted","type":"event"},{"anonymous":false,"inputs":[{"indexed":true,"internalType":"bytes32","name":"role","type":"bytes32"},{"indexed":true,"internalType":"address","name":"account","type":"address"},{"indexed":true,"internalType":"address","name":"sender","type":"address"}],"name":"RoleRevoked","type":"event"},{"anonymous":false,"inputs":[{"indexed":false,"internalType":"address","name":"account","type":"address"}],"name":"Unpaused","type":"event"},{"anonymous":false,"inputs":[{"indexed":true,"internalType":"uint256","name":"proposalId","type":"uint256"},{"indexed":true,"internalType":"address","name":"voter","type":"address"},{"indexed":false,"internalType":"enum LakomiGovern.Vote","name":"support","type":"uint8"}],"name":"VoteCast","type":"event"},{"inputs":[],"name":"DEFAULT_ADMIN_ROLE","outputs":[{"internalType":"bytes32","name":"","type":"bytes32"}],"stateMutability":"view","type":"function"},{"inputs":[],"name":"PENGAWAS_ROLE","outputs":[{"internalType":"bytes32","name":"","type":"bytes32"}],"stateMutability":"view","type":"function"},{"inputs":[],"name":"QUORUM_DENOMINATOR","outputs":[{"internalType":"uint256","name":"","type":"uint256"}],"stateMutability":"view","type":"function"},{"inputs":[{"internalType":"uint256","name":"proposalId","type":"uint256"}],"name":"cancel","outputs":[],"stateMutability":"nonpayable","type":"function"},{"inputs":[{"internalType":"uint256","name":"proposalId","type":"uint256"},{"internalType":"enum LakomiGovern.Vote","name":"support","type":"uint8"}],"name":"castVote","outputs":[],"stateMutability":"nonpayable","type":"function"},{"inputs":[{"internalType":"uint256","name":"proposalId","type":"uint256"},{"internalType":"enum LakomiGovern.Vote","name":"support","type":"uint8"},{"internalType":"string","name":"","type":"string"}],"name":"castVoteWithReason","outputs":[],"stateMutability":"nonpayable","type":"function"},{"inputs":[{"internalType":"string","name":"description","type":"string"},{"internalType":"enum LakomiGovern.ProposalType","name":"_proposalType","type":"uint8"},{"internalType":"address","name":"target","type":"address"},{"internalType":"uint256","name":"value","type":"uint256"},{"internalType":"bytes","name":"callData","type":"bytes"}],"name":"createProposal","outputs":[{"internalType":"uint256","name":"","type":"uint256"}],"stateMutability":"nonpayable","type":"function"},{"inputs":[{"internalType":"uint256","name":"proposalId","type":"uint256"}],"name":"execute","outputs":[],"stateMutability":"nonpayable","type":"function"},{"inputs":[],"name":"executionTimelock","outputs":[{"internalType":"uint256","name":"","type":"uint256"}],"stateMutability":"view","type":"function"},{"inputs":[{"internalType":"uint256","name":"proposalId","type":"uint256"}],"name":"getProposal","outputs":[{"internalType":"address","name":"proposer","type":"address"},{"internalType":"string","name":"description","type":"string"},{"internalType":"enum LakomiGovern.ProposalType","name":"pType","type":"uint8"},{"internalType":"uint256","name":"startTime","type":"uint256"},{"internalType":"uint256","name":"endTime","type":"uint256"},{"internalType":"uint256","name":"forVotes","type":"uint256"},{"internalType":"uint256","name":"againstVotes","type":"uint256"},{"internalType":"uint256","name":"abstainVotes","type":"uint256"},{"internalType":"bool","name":"executed","type":"bool"},{"internalType":"bool","name":"canceled","type":"bool"},{"internalType":"bool","name":"vetoed","type":"bool"}],"stateMutability":"view","type":"function"},{"inputs":[{"internalType":"bytes32","name":"role","type":"bytes32"}],"name":"getRoleAdmin","outputs":[{"internalType":"bytes32","name":"","type":"bytes32"}],"stateMutability":"view","type":"function"},{"inputs":[{"internalType":"bytes32","name":"role","type":"bytes32"},{"internalType":"address","name":"account","type":"address"}],"name":"grantRole","outputs":[],"stateMutability":"nonpayable","type":"function"},{"inputs":[{"internalType":"bytes32","name":"role","type":"bytes32"},{"internalType":"address","name":"account","type":"address"}],"name":"hasRole","outputs":[{"internalType":"bool","name":"","type":"bool"}],"stateMutability":"view","type":"function"},{"inputs":[{"internalType":"uint256","name":"","type":"uint256"},{"internalType":"address","name":"","type":"address"}],"name":"hasVoted","outputs":[{"internalType":"bool","name":"","type":"bool"}],"stateMutability":"view","type":"function"},{"inputs":[],"name":"isRATDue","outputs":[{"internalType":"bool","name":"","type":"bool"}],"stateMutability":"view","type":"function"},{"inputs":[],"name":"lastRATTime","outputs":[{"internalType":"uint256","name":"","type":"uint256"}],"stateMutability":"view","type":"function"},{"inputs":[],"name":"pause","outputs":[],"stateMutability":"nonpayable","type":"function"},{"inputs":[],"name":"paused","outputs":[{"internalType":"bool","name":"","type":"bool"}],"stateMutability":"view","type":"function"},{"inputs":[],"name":"pengawasPause","outputs":[],"stateMutability":"nonpayable","type":"function"},{"inputs":[{"internalType":"uint256","name":"","type":"uint256"}],"name":"proposalAbstainVotes","outputs":[{"internalType":"uint256","name":"","type":"uint256"}],"stateMutability":"view","type":"function"},{"inputs":[{"internalType":"uint256","name":"","type":"uint256"}],"name":"proposalAgainstVotes","outputs":[{"internalType":"uint256","name":"","type":"uint256"}],"stateMutability":"view","type":"function"},{"inputs":[{"internalType":"uint256","name":"","type":"uint256"}],"name":"proposalCallData","outputs":[{"internalType":"bytes","name":"","type":"bytes"}],"stateMutability":"view","type":"function"},{"inputs":[{"internalType":"uint256","name":"","type":"uint256"}],"name":"proposalCanceled","outputs":[{"internalType":"bool","name":"","type":"bool"}],"stateMutability":"view","type":"function"},{"inputs":[],"name":"proposalCount","outputs":[{"internalType":"uint256","name":"","type":"uint256"}],"stateMutability":"view","type":"function"},{"inputs":[{"internalType":"uint256","name":"","type":"uint256"}],"name":"proposalDescription","outputs":[{"internalType":"string","name":"","type":"string"}],"stateMutability":"view","type":"function"},{"inputs":[{"internalType":"uint256","name":"","type":"uint256"}],"name":"proposalEndTime","outputs":[{"internalType":"uint256","name":"","type":"uint256"}],"stateMutability":"view","type":"function"},{"inputs":[{"internalType":"uint256","name":"","type":"uint256"}],"name":"proposalExecuted","outputs":[{"internalType":"bool","name":"","type":"bool"}],"stateMutability":"view","type":"function"},{"inputs":[{"internalType":"uint256","name":"","type":"uint256"}],"name":"proposalForVotes","outputs":[{"internalType":"uint256","name":"","type":"uint256"}],"stateMutability":"view","type":"function"},{"inputs":[{"internalType":"uint256","name":"","type":"uint256"}],"name":"proposalProposer","outputs":[{"internalType":"address","name":"","type":"address"}],"stateMutability":"view","type":"function"},{"inputs":[{"internalType":"uint256","name":"","type":"uint256"}],"name":"proposalQueuedTime","outputs":[{"internalType":"uint256","name":"","type":"uint256"}],"stateMutability":"view","type":"function"},{"inputs":[{"internalType":"uint256","name":"","type":"uint256"}],"name":"proposalStartTime","outputs":[{"internalType":"uint256","name":"","type":"uint256"}],"stateMutability":"view","type":"function"},{"inputs":[{"internalType":"uint256","name":"","type":"uint256"}],"name":"proposalTarget","outputs":[{"internalType":"address","name":"","type":"address"}],"stateMutability":"view","type":"function"},{"inputs":[{"internalType":"uint256","name":"","type":"uint256"}],"name":"proposalType","outputs":[{"internalType":"enum LakomiGovern.ProposalType","name":"","type":"uint8"}],"stateMutability":"view","type":"function"},{"inputs":[{"internalType":"uint256","name":"","type":"uint256"}],"name":"proposalValue","outputs":[{"internalType":"uint256","name":"","type":"uint256"}],"stateMutability":"view","type":"function"},{"inputs":[{"internalType":"uint256","name":"","type":"uint256"}],"name":"proposalVetoed","outputs":[{"internalType":"bool","name":"","type":"bool"}],"stateMutability":"view","type":"function"},{"inputs":[{"internalType":"uint256","name":"proposalId","type":"uint256"}],"name":"queue","outputs":[],"stateMutability":"nonpayable","type":"function"},{"inputs":[],"name":"quorum","outputs":[{"internalType":"uint256","name":"","type":"uint256"}],"stateMutability":"view","type":"function"},{"inputs":[],"name":"quorumNumerator","outputs":[{"internalType":"uint256","name":"","type":"uint256"}],"stateMutability":"view","type":"function"},{"inputs":[],"name":"ratPeriod","outputs":[{"internalType":"uint256","name":"","type":"uint256"}],"stateMutability":"view","type":"function"},{"inputs":[{"internalType":"bytes32","name":"role","type":"bytes32"},{"internalType":"address","name":"callerConfirmation","type":"address"}],"name":"renounceRole","outputs":[],"stateMutability":"nonpayable","type":"function"},{"inputs":[{"internalType":"bytes32","name":"role","type":"bytes32"},{"internalType":"address","name":"account","type":"address"}],"name":"revokeRole","outputs":[],"stateMutability":"nonpayable","type":"function"},{"inputs":[{"internalType":"string","name":"description","type":"string"}],"name":"scheduleAnnualRAT","outputs":[{"internalType":"uint256","name":"","type":"uint256"}],"stateMutability":"nonpayable","type":"function"},{"inputs":[{"internalType":"uint256","name":"newTimelock","type":"uint256"}],"name":"setExecutionTimelock","outputs":[],"stateMutability":"nonpayable","type":"function"},{"inputs":[{"internalType":"uint256","name":"newQuorum","type":"uint256"}],"name":"setQuorumNumerator","outputs":[],"stateMutability":"nonpayable","type":"function"},{"inputs":[{"internalType":"uint256","name":"newPeriod","type":"uint256"}],"name":"setVotingPeriod","outputs":[],"stateMutability":"nonpayable","type":"function"},{"inputs":[{"internalType":"uint256","name":"proposalId","type":"uint256"}],"name":"state","outputs":[{"internalType":"enum LakomiGovern.ProposalState","name":"","type":"uint8"}],"stateMutability":"view","type":"function"},{"inputs":[{"internalType":"bytes4","name":"interfaceId","type":"bytes4"}],"name":"supportsInterface","outputs":[{"internalType":"bool","name":"","type":"bool"}],"stateMutability":"view","type":"function"},{"inputs":[],"name":"timeUntilNextRAT","outputs":[{"internalType":"uint256","name":"","type":"uint256"}],"stateMutability":"view","type":"function"},{"inputs":[],"name":"token","outputs":[{"internalType":"contract LakomiToken","name":"","type":"address"}],"stateMutability":"view","type":"function"},{"inputs":[],"name":"unpause","outputs":[],"stateMutability":"nonpayable","type":"function"},{"inputs":[],"name":"vaultAddress","outputs":[{"internalType":"address","name":"","type":"address"}],"stateMutability":"view","type":"function"},{"inputs":[{"internalType":"uint256","name":"proposalId","type":"uint256"}],"name":"vetoProposal","outputs":[],"stateMutability":"nonpayable","type":"function"},{"inputs":[{"internalType":"uint256","name":"","type":"uint256"},{"internalType":"address","name":"","type":"address"}],"name":"voteChoice","outputs":[{"internalType":"enum LakomiGovern.Vote","name":"","type":"uint8"}],"stateMutability":"view","type":"function"},{"inputs":[],"name":"votingPeriod","outputs":[{"internalType":"uint256","name":"","type":"uint256"}],"stateMutability":"view","type":"function"}],"evm":{"bytecode":{"linkReferences":{},"object":"60a0346200010657601f620023cd38819003918201601f19168301916001600160401b038311848410176200010b57808492608094604052833981010312620001065780516001600160a01b038116919082900362000106576020810151606060408301519201519260017f9b779b17422d0df92223018b32b4d1fa46e071723d6817e2486d003becc55f00558015620000f4576080526002556003556004556301e13380601755620000b23362000121565b50620000be33620001a1565b50604051612169908162000244823960805181818161046901528181610f550152818161145201528181611cd9015261205e0152f35b6040516396a8520b60e01b8152600490fd5b600080fd5b634e487b7160e01b600052604160045260246000fd5b6001600160a01b031660008181527fad3228b676f7d3cd4284a5443f17f1962b36e491b30a40b2405849e597ba5fb5602052604081205490919060ff166200019d57818052816020526040822081835260205260408220600160ff198254161790553391600080516020620023ad8339815191528180a4600190565b5090565b6001600160a01b031660008181527ff044b3c47881e3ae9e51c59c873357a894cd00624795b43e885f3238116afa3160205260408120549091907fb02c64f0c28be59776465b163fa919b01da504b3a5dda0ee188fa6d028017ec39060ff166200023e57808352826020526040832082845260205260408320600160ff19825416179055600080516020620023ad833981519152339380a4600190565b50509056fe608060408181526004908136101561001657600080fd5b600092833560e01c90816301ffc9a7146117765750806302a251a314611757578063103616e81461172a57806313e11292146113fb578063143489d0146113c85780631703a018146113ab578063248a9ca3146113815780632a09c7721461134f5780632ce809151461132d5780632f2ff15d1461130557806336568abe146112be5780633830fdea146112815780633a29f85914610ec05780633e4f49e614610e7b5780633f4ba83a14610e1157806340e58ee514610d55578063430bf08a14610d2c5780634385963214610ce55780634cd2fc4014610cbf5780635678138814610c975780635c975abb14610c735780635dc4d8a614610c405780636e18113c14610c135780636f65108c14610b835780636fef541a14610b67578063737594ce14610b455780637780611814610b2757806378223af314610b035780637b3c71d314610a9c5780638456cb5914610a8257806391d1485414610a3c5780639461645114610a145780639c92fbc3146109ec578063a217fddf146109d1578063a7713a70146109b2578063a7e228601461098a578063a8f6bc2d1461096b578063abddc32714610894578063bb0fd75714610875578063bd468fe61461084d578063bd6af84814610820578063c7f758a814610733578063c8bb4dd51461070b578063ca2525f6146106e3578063d00a9f06146106bb578063d3bc2b8d14610680578063d547741f14610643578063da35c66414610624578063ddf0b00914610578578063ea0217cf14610556578063eb580dfe146104ea578063fb4688551461049c578063fc0c546a146104545763fe0d94c11461027657600080fd5b34610450576020918260031936011261044c57803591610294611c4a565b82855260118452808520541561043f57828552601184526102ba81862054835490611bab565b4210610433578285526012845260ff818620541661042657828552601284528085209360019460ff19908682825416179055600982528660018060a01b038482205416600a84528482205492600b8552858320938651918495805461031e81611836565b92818e169182156104125750506001146103d7575b505081849503925af1903d156103d1573d9067ffffffffffffffff82116103be57879084519261036c82601f19601f8401160185611870565b83523d92013e5b156103b15750507f712ae1383f79ac853f8d882153778e0260ef8f03b504e2866e0593e04d2b291f8380a26000805160206120f48339815191525580f35b5163816a6f3160e01b8152fd5b634e487b7160e01b885260418552602488fd5b50610373565b9095508452858420868b86925b8884106103fa5750505050818495810195610333565b8054868501528e9750929091019188918d91016103e4565b168552505080151502820194508184610333565b516338dbd33b60e11b8152fd5b51625c929960e81b8152fd5b516309ea93c360e41b8152fd5b8380fd5b8280fd5b838234610498578160031936011261049857517f00000000000000000000000000000000000000000000000000000000000000006001600160a01b03168152602090f35b5080fd5b509034610450578160031936011261045057816104e69360ff926104be611820565b9035825260166020528282209060018060a01b0316825260205220541690519182918261198e565b0390f35b5090346104505782600319360112610450576105046119f9565b6001549060ff821661054857507f62e78cea01bee320cd4e420270b5ea74000d11b0c9f74754ebdbfc544b05a25891600160209260ff19161760015551338152a180f35b825163d93c066560e01b8152fd5b505034610498576020366003190112610498576105716119a1565b3560025580f35b503461045057602036600319011261045057813591610595611c4a565b61059e83611f15565b6009811015610611578103610603577f9a2e42fd6722813d69113e7d0079d3d940171428df7373df9c7f7617cfda2892916105e86020928587526011845242838820555442611bab565b9051908152a260016000805160206120f48339815191525580f35b90516309ea93c360e41b8152fd5b634e487b7160e01b855260218252602485fd5b8382346104985781600319360112610498576020906005549051908152f35b503461045057806003193601126104505761067c91356106776001610666611820565b938387528660205286200154611a55565b611af9565b5080f35b838234610498578160031936011261049857602090517fb02c64f0c28be59776465b163fa919b01da504b3a5dda0ee188fa6d028017ec38152f35b5090346104505760203660031901126104505760209282913581526010845220549051908152f35b509034610450576020366003190112610450576020928291358152600a845220549051908152f35b509034610450576020366003190112610450576020928291358152600c845220549051908152f35b508290346104985760209283600319360112610450573582526006835260018060a01b03818320541691600784528380838320926008825260ff8582205416600f8352858220546010845286832054600c85528784205491600d86526107eb8986205494600e88526107e26107ca60ff8d808b20549a60128d5260138383832054169d5260148383832054169e522054169b6118a8565b8c519e8f9e8f9081526101608092820152019061194e565b9a8c01906117fd565b60608a0152608089015260a088015260c087015260e08601521515610100850152151561012084015215156101408301520390f35b509034610450576020366003190112610450578160209360ff923581526014855220541690519015158152f35b509034610450576020366003190112610450576020928291358152600e845220549051908152f35b8382346104985781600319360112610498576020906018549051908152f35b5034610450576020918260031936011261044c57358352600b82528083208151938491818154906108c482611836565b92838652600192888482169182600014610941575050600114610903575b85886104e6896108f4848a0385611870565b5192828493845283019061194e565b87945081939291528383205b82841061092957505050820101816108f46104e6386108e2565b8054848a01860152889550879490930192810161090f565b60ff19168882015294151560051b870190940194508593506108f492506104e691503890506108e2565b8382346104985781600319360112610498576020906017549051908152f35b509034610450576020366003190112610450576020928291358152600d845220549051908152f35b8382346104985781600319360112610498576020906003549051908152f35b83823461049857816003193601126104985751908152602090f35b5090346104505760203660031901126104505760209282913581526011845220549051908152f35b509034610450576020366003190112610450576020928291358152600f845220549051908152f35b5090346104505781600319360112610450578160209360ff92610a5d611820565b903582528186528282206001600160a01b039091168252855220549151911615158152f35b5090346104505782600319360112610450576105046119a1565b505034610498576060366003190112610498576024356003811015610450576044359167ffffffffffffffff831161044c57610ade610aee93369083016117ca565b5050610ae8611c4a565b35611c7a565b60016000805160206120f48339815191525580f35b838234610498578160031936011261049857602090610b20611ee5565b9051908152f35b50903461045057826003193601126104505760209250549051908152f35b50503461049857602036600319011261049857610b606119a1565b3560035580f35b8382346104985781600319360112610498576020905160648152f35b503461045057602036600319011261045057813591610ba06119f9565b828452601260205260ff8285205416610c0557828452601360205260ff8285205416610c05575081835260146020528220805460ff1916600117905533907fc2131db10d833d6b93ae553fa450ea0f6c0c2dfb0160cb3309468bf72718f3eb8380a380f35b90516338dbd33b60e11b8152fd5b509034610450576020366003190112610450578160209360ff923581526013855220541690519015158152f35b5090346104505760203660031901126104505735825260096020908152918190205490516001600160a01b039091168152f35b83823461049857816003193601126104985760209060ff6001541690519015158152f35b50346104505736600319011261049857602435600381101561045057610aee91610ae8611c4a565b838234610498578160031936011261049857602090610cdc611ec4565b90519015158152f35b5090346104505781600319360112610450578160209360ff92610d06611820565b90358252601586528282206001600160a01b039091168252855220549151911615158152f35b83823461049857816003193601126104985760195490516001600160a01b039091168152602090f35b50346104505760208060031936011261044c578235928385526006825260018060a01b03838620541633141580610df5575b610de7578385526012825260ff8386205416610dd95750828452601390528220805460ff191660011790557f789cf55be980739dad1d0699b93b58e806b51c9d96619bfa8fe0a28abaa7b30c8280a280f35b82516338dbd33b60e11b8152fd5b82516324dbeac960e11b8152fd5b50848052848252828520338652825260ff838620541615610d87565b509034610450578260031936011261045057610e2b6119a1565b6001549060ff821615610e6d575060ff1916600155513381527f5db9ee0a495bf2e6ff9c91a7834c1ba4fdd244a5e8aa4e537bd38aeae4b073aa90602090a180f35b8251638dfc202b60e01b8152fd5b5082903461049857602036600319011261049857610e998335611f15565b9051916009821015610ead57602083838152f35b634e487b7160e01b815260218452602490fd5b508290346104985760a03660031901126104985767ffffffffffffffff833581811161044c57610ef390369086016117ca565b91906005602435101561127d57604435946001600160a01b039283871687036104985760843581811161045057610f2d9036908a016117ca565b90610f36611c4a565b861561126d578751636a6b9a6160e01b8152338b8201526020816024817f00000000000000000000000000000000000000000000000000000000000000008b165afa908115611263578591611234575b50156112245760055498610f998a611b86565b600555610fa860025442611bab565b968a86526006602052898620906bffffffffffffffffffffffff60a01b91338382541617905560076020528a8720868b1161121057610ff18b610feb8354611836565b83611bcf565b8a88601f82116001146111a857899161119d575b508b60011b906000198d60031b1c19161790555b8b875260086020528a872060ff1981541660ff6024351617905560096020528a8720921690825416179055600a60205260643588852055600b60205287842092821161118a5760209950918189959361107f8a9896946110798554611836565b85611bcf565b8390601f831160011461110a5791806000805160206121148339815191529899949286948997926110ff575b50508160011b916000199060031b1c19161790555b868152600f8b52428282205560108b5220556110e486519283923397429185611c14565b0390a360016000805160206120f48339815191525551908152f35b013590508e806110ab565b8385528c85209894939291601f198316855b81811061116d57509960019284928a989796956000805160206121148339815191529c9d10611153575b505050811b0190556110c0565b0135600019600384901b60f8161c191690558e8080611146565b828401358c556001909b019a8e9a508d9750918f01918f0161111c565b634e487b7160e01b845260418a52602484fd5b90508901358f611005565b828a5260208a209150898b8e5b601f191682106111f65750508c601f198116106111dc575b505060018b811b019055611019565b8a013560001960038e901b60f8161c191690558e806111cd565b600183946020939484930135815501930191018b8e6111b5565b50634e487b7160e01b875260418d52602487fd5b8751639450a1d360e01b81528a90fd5b611256915060203d60201161125c575b61124e8183611870565b810190611b6e565b8b610f86565b503d611244565b89513d87823e3d90fd5b875163018e0a1560e51b81528a90fd5b8480fd5b50903461045057602036600319011261045057816104e6936112ab923581526007602052206118a8565b905191829160208352602083019061194e565b508290346104985780600319360112610498576112d9611820565b90336001600160a01b038316036112f6575061067c919235611af9565b5163334bd91960e11b81528390fd5b503461045057806003193601126104505761067c91356113286001610666611820565b611a7b565b505034610498576020366003190112610498576113486119a1565b8035905580f35b5090346104505760203660031901126104505760ff8260209461137f9335815260088652205416915180926117fd565bf35b50903461045057602036600319011261045057816020936001923581528085522001549051908152f35b838234610498578160031936011261049857602090610b20612049565b5090346104505760203660031901126104505735825260066020908152918190205490516001600160a01b039091168152f35b5082903461049857602092836003193601126104505767ffffffffffffffff813581811161127d5761143090369084016117ca565b929061143a611c4a565b8451636a6b9a6160e01b8152338382015287816024817f00000000000000000000000000000000000000000000000000000000000000006001600160a01b03165afa908115611720578791611703575b50156116f45760185480151590816116de575b506116cf57600554956114af87611b86565b6005556114be60025442611bab565b9287825260068952868220906bffffffffffffffffffffffff60a01b91338382541617905560078a528783209587116116bc575087939291879161150c886115068954611836565b89611bcf565b819688601f811160011461162d5790839291600080516020612114833981519152989988969591611622575b508a60011b906000198c60031b1c19161790555b87825260088c52828220600360ff1982541617905560098c52828220908154169055600a8b528082812055600b8b5260008282208c61158b8254611836565b601f8111611603575b505055868152600f8b52428282205560108b522055426018556115bf86519283923397429185611c14565b0390a3817fe07e33b3979d2ee923e3a1494b77f27c97acf236ae98804de7e3846b899639b6848351428152a260016000805160206120f48339815191525551908152f35b601f61161b928487528620910160051c810190611bb8565b8c8e611594565b90508601358e611538565b508083528b83208c988a601f198116865b81811061169057506000805160206121148339815191529a9b5090899796959493929110611676575b505060018a811b01905561154c565b87013560001960038d901b60f8161c191690558d80611667565b95989a509396505093969860018192868b013581550194019201928b9795928a8c96938f9b999661163e565b634e487b7160e01b835260419052602482fd5b5083516316bbed0f60e31b8152fd5b6116ec915060175490611bab565b42108861149d565b508351639450a1d360e01b8152fd5b61171a9150883d8a1161125c5761124e8183611870565b8861148a565b86513d89823e3d90fd5b509034610450576020366003190112610450578160209360ff923581526012855220541690519015158152f35b8382346104985781600319360112610498576020906002549051908152f35b84908434610450576020366003190112610450573563ffffffff60e01b81168091036104505760209250637965db0b60e01b81149081156117b9575b5015158152f35b6301ffc9a760e01b149050836117b2565b9181601f840112156117f85782359167ffffffffffffffff83116117f857602083818601950101116117f857565b600080fd5b90600582101561180a5752565b634e487b7160e01b600052602160045260246000fd5b602435906001600160a01b03821682036117f857565b90600182811c92168015611866575b602083101461185057565b634e487b7160e01b600052602260045260246000fd5b91607f1691611845565b90601f8019910116810190811067ffffffffffffffff82111761189257604052565b634e487b7160e01b600052604160045260246000fd5b90604051918260008254926118bc84611836565b90818452600194858116908160001461192b57506001146118e8575b50506118e692500383611870565b565b9093915060005260209081600020936000915b8183106119135750506118e6935082010138806118d8565b855488840185015294850194879450918301916118fb565b9150506118e694506020925060ff191682840152151560051b82010138806118d8565b919082519283825260005b84811061197a575050826000602080949584010152601f8019910116010190565b602081830181015184830182015201611959565b91906020830192600382101561180a5752565b3360009081527fad3228b676f7d3cd4284a5443f17f1962b36e491b30a40b2405849e597ba5fb5602052604081205460ff16156119db5750565b6044906040519063e2517d3f60e01b82523360048301526024820152fd5b3360009081527ff044b3c47881e3ae9e51c59c873357a894cd00624795b43e885f3238116afa3160205260409020547fb02c64f0c28be59776465b163fa919b01da504b3a5dda0ee188fa6d028017ec39060ff16156119db5750565b80600052600060205260406000203360005260205260ff60406000205416156119db5750565b9060009180835282602052604083209160018060a01b03169182845260205260ff60408420541615600014611af457808352826020526040832082845260205260408320600160ff198254161790557f2f8788117e7eff1d82e926ec794901d17c78024a50270940304540a733656f0d339380a4600190565b505090565b9060009180835282602052604083209160018060a01b03169182845260205260ff604084205416600014611af45780835282602052604083208284526020526040832060ff1981541690557ff6391f5c32d9c69d2a47ea670b442974b53935d1edc7fd64eb21e047a839171b339380a4600190565b908160209103126117f8575180151581036117f85790565b6000198114611b955760010190565b634e487b7160e01b600052601160045260246000fd5b91908201809211611b9557565b818110611bc3575050565b60008155600101611bb8565b9190601f8111611bde57505050565b6118e6926000526020600020906020601f840160051c83019310611c0a575b601f0160051c0190611bb8565b9091508190611bfd565b90826040936080929796959760608552816060860152838501376000828285010152601f80199101168201019460208201520152565b6000805160206120f48339815191526002815414611c685760029055565b604051633ee5aeb560e01b8152600490fd5b9190611c8583611f15565b92600984101561180a576001809403611eb257600081815260209460158652604091828120338252875260ff8382205416611ea1578251636a6b9a6160e01b815233600480830191909152979081816024817f00000000000000000000000000000000000000000000000000000000000000006001600160a01b03165afa908115611e97578391611e7a575b5015611e6a5784825260158152838220338352815283822060ff19908482825416179055858352601682528483203384528252848320906003881015611e575781541660ff8816179055828614600014611dca57600c9085835252828120908154928301809311611db757507feba4866100b822f0f391e610e7edfab790b9e8766c0012733c26b2f1858e8dd79394959650555b5180611db233958261198e565b0390a3565b634e487b7160e01b815260118852602490fd5b85611e1357600d9085835252828120908154928301809311611db757507feba4866100b822f0f391e610e7edfab790b9e8766c0012733c26b2f1858e8dd7939495965055611da5565b600e9085835252828120908154928301809311611db757507feba4866100b822f0f391e610e7edfab790b9e8766c0012733c26b2f1858e8dd7939495965055611da5565b634e487b7160e01b845260218a52602484fd5b8351639450a1d360e01b81528890fd5b611e919150823d841161125c5761124e8183611870565b38611d11565b85513d85823e3d90fd5b8251631b19daf560e21b8152600490fd5b60405163b6436b9560e01b8152600490fd5b6018548015611edf57601754611ed991611bab565b42101590565b50600190565b6018548015611f0f57601754611efa91611bab565b80421015611f0f57428103908111611b955790565b50600090565b60009080825260206013815260409160ff8385205416612040576014825260ff8385205416612037576012825260ff838520541661202e57600f8252828420544210612028576010825282842054421061201f57600c8252611f96611f8584862054600d85528587205490611bab565b828652600e84528486205490611bab565b611f9e612049565b11612016578352600c815281832054600d825282842054101561200e5760119052812054801561200757600454611fd491611bab565b90621275008201809211611ff357504211611fee57600590565b600690565b634e487b7160e01b81526011600452602490fd5b5050600490565b505050600390565b50505050600390565b50505050600190565b50505090565b50505050600790565b50505050600890565b50505050600290565b60405163997072f760e01b81526020816004817f00000000000000000000000000000000000000000000000000000000000000006001600160a01b03165afa9081156120e7576000916120b3575b5060035490818102918183041490151715611b95576064900490565b906020823d82116120df575b816120cc60209383611870565b810103126120dc57505138612097565b80fd5b3d91506120bf565b6040513d6000823e3d90fdfe9b779b17422d0df92223018b32b4d1fa46e071723d6817e2486d003becc55f006c98a8c940418b35614f0cd02412d5c9606faff474cbb6cdd6640ba5d1a9f06ba2646970667358221220996c190cc547f0bcb2f065ff6c702bb2dec68ba4574572aed0a8fe5f0ef2648d64736f6c634300081400332f8788117e7eff1d82e926ec794901d17c78024a50270940304540a733656f0d","opcodes":"PUSH1 0xA0 CALLVALUE PUSH3 0x106 JUMPI PUSH1 0x1F PUSH3 0x23CD CODESIZE DUP2 SWAP1 SUB SWAP2 DUP3 ADD PUSH1 0x1F NOT AND DUP4 ADD SWAP2 PUSH1 0x1 PUSH1 0x1 PUSH1 0x40 SHL SUB DUP4 GT DUP5 DUP5 LT OR PUSH3 0x10B JUMPI DUP1 DUP5 SWAP3 PUSH1 0x80 SWAP5 PUSH1 0x40 MSTORE DUP4 CODECOPY DUP2 ADD SUB SLT PUSH3 0x106 JUMPI DUP1 MLOAD PUSH1 0x1 PUSH1 0x1 PUSH1 0xA0 SHL SUB DUP2 AND SWAP2 SWAP1 DUP3 SWAP1 SUB PUSH3 0x106 JUMPI PUSH1 0x20 DUP2 ADD MLOAD PUSH1 0x60 PUSH1 0x40 DUP4 ADD MLOAD SWAP3 ADD MLOAD SWAP3 PUSH1 0x1 PUSH32 0x9B779B17422D0DF92223018B32B4D1FA46E071723D6817E2486D003BECC55F00 SSTORE DUP1 ISZERO PUSH3 0xF4 JUMPI PUSH1 0x80 MSTORE PUSH1 0x2 SSTORE PUSH1 0x3 SSTORE PUSH1 0x4 SSTORE PUSH4 0x1E13380 PUSH1 0x17 SSTORE PUSH3 0xB2 CALLER PUSH3 0x121 JUMP JUMPDEST POP PUSH3 0xBE CALLER PUSH3 0x1A1 JUMP JUMPDEST POP PUSH1 0x40 MLOAD PUSH2 0x2169 SWAP1 DUP2 PUSH3 0x244 DUP3 CODECOPY PUSH1 0x80 MLOAD DUP2 DUP2 DUP2 PUSH2 0x469 ADD MSTORE DUP2 DUP2 PUSH2 0xF55 ADD MSTORE DUP2 DUP2 PUSH2 0x1452 ADD MSTORE DUP2 DUP2 PUSH2 0x1CD9 ADD MSTORE PUSH2 0x205E ADD MSTORE RETURN JUMPDEST PUSH1 0x40 MLOAD PUSH4 0x96A8520B PUSH1 0xE0 SHL DUP2 MSTORE PUSH1 0x4 SWAP1 REVERT JUMPDEST PUSH1 0x0 DUP1 REVERT JUMPDEST PUSH4 0x4E487B71 PUSH1 0xE0 SHL PUSH1 0x0 MSTORE PUSH1 0x41 PUSH1 0x4 MSTORE PUSH1 0x24 PUSH1 0x0 REVERT JUMPDEST PUSH1 0x1 PUSH1 0x1 PUSH1 0xA0 SHL SUB AND PUSH1 0x0 DUP2 DUP2 MSTORE PUSH32 0xAD3228B676F7D3CD4284A5443F17F1962B36E491B30A40B2405849E597BA5FB5 PUSH1 0x20 MSTORE PUSH1 0x40 DUP2 KECCAK256 SLOAD SWAP1 SWAP2 SWAP1 PUSH1 0xFF AND PUSH3 0x19D JUMPI DUP2 DUP1 MSTORE DUP2 PUSH1 0x20 MSTORE PUSH1 0x40 DUP3 KECCAK256 DUP2 DUP4 MSTORE PUSH1 0x20 MSTORE PUSH1 0x40 DUP3 KECCAK256 PUSH1 0x1 PUSH1 0xFF NOT DUP3 SLOAD AND OR SWAP1 SSTORE CALLER SWAP2 PUSH1 0x0 DUP1 MLOAD PUSH1 0x20 PUSH3 0x23AD DUP4 CODECOPY DUP2 MLOAD SWAP2 MSTORE DUP2 DUP1 LOG4 PUSH1 0x1 SWAP1 JUMP JUMPDEST POP SWAP1 JUMP JUMPDEST PUSH1 0x1 PUSH1 0x1 PUSH1 0xA0 SHL SUB AND PUSH1 0x0 DUP2 DUP2 MSTORE PUSH32 0xF044B3C47881E3AE9E51C59C873357A894CD00624795B43E885F3238116AFA31 PUSH1 0x20 MSTORE PUSH1 0x40 DUP2 KECCAK256 SLOAD SWAP1 SWAP2 SWAP1 PUSH32 0xB02C64F0C28BE59776465B163FA919B01DA504B3A5DDA0EE188FA6D028017EC3 SWAP1 PUSH1 0xFF AND PUSH3 0x23E JUMPI DUP1 DUP4 MSTORE DUP3 PUSH1 0x20 MSTORE PUSH1 0x40 DUP4 KECCAK256 DUP3 DUP5 MSTORE PUSH1 0x20 MSTORE PUSH1 0x40 DUP4 KECCAK256 PUSH1 0x1 PUSH1 0xFF NOT DUP3 SLOAD AND OR SWAP1 SSTORE PUSH1 0x0 DUP1 MLOAD PUSH1 0x20 PUSH3 0x23AD DUP4 CODECOPY DUP2 MLOAD SWAP2 MSTORE CALLER SWAP4 DUP1 LOG4 PUSH1 0x1 SWAP1 JUMP JUMPDEST POP POP SWAP1 JUMP INVALID PUSH1 0x80 PUSH1 0x40 DUP2 DUP2 MSTORE PUSH1 0x4 SWAP1 DUP2 CALLDATASIZE LT ISZERO PUSH2 0x16 JUMPI PUSH1 0x0 DUP1 REVERT JUMPDEST PUSH1 0x0 SWAP3 DUP4 CALLDATALOAD PUSH1 0xE0 SHR SWAP1 DUP2 PUSH4 0x1FFC9A7 EQ PUSH2 0x1776 JUMPI POP DUP1 PUSH4 0x2A251A3 EQ PUSH2 0x1757 JUMPI DUP1 PUSH4 0x103616E8 EQ PUSH2 0x172A JUMPI DUP1 PUSH4 0x13E11292 EQ PUSH2 0x13FB JUMPI DUP1 PUSH4 0x143489D0 EQ PUSH2 0x13C8 JUMPI DUP1 PUSH4 0x1703A018 EQ PUSH2 0x13AB JUMPI DUP1 PUSH4 0x248A9CA3 EQ PUSH2 0x1381 JUMPI DUP1 PUSH4 0x2A09C772 EQ PUSH2 0x134F JUMPI DUP1 PUSH4 0x2CE80915 EQ PUSH2 0x132D JUMPI DUP1 PUSH4 0x2F2FF15D EQ PUSH2 0x1305 JUMPI DUP1 PUSH4 0x36568ABE EQ PUSH2 0x12BE JUMPI DUP1 PUSH4 0x3830FDEA EQ PUSH2 0x1281 JUMPI DUP1 PUSH4 0x3A29F859 EQ PUSH2 0xEC0 JUMPI DUP1 PUSH4 0x3E4F49E6 EQ PUSH2 0xE7B JUMPI DUP1 PUSH4 0x3F4BA83A EQ PUSH2 0xE11 JUMPI DUP1 PUSH4 0x40E58EE5 EQ PUSH2 0xD55 JUMPI DUP1 PUSH4 0x430BF08A EQ PUSH2 0xD2C JUMPI DUP1 PUSH4 0x43859632 EQ PUSH2 0xCE5 JUMPI DUP1 PUSH4 0x4CD2FC40 EQ PUSH2 0xCBF JUMPI DUP1 PUSH4 0x56781388 EQ PUSH2 0xC97 JUMPI DUP1 PUSH4 0x5C975ABB EQ PUSH2 0xC73 JUMPI DUP1 PUSH4 0x5DC4D8A6 EQ PUSH2 0xC40 JUMPI DUP1 PUSH4 0x6E18113C EQ PUSH2 0xC13 JUMPI DUP1 PUSH4 0x6F65108C EQ PUSH2 0xB83 JUMPI DUP1 PUSH4 0x6FEF541A EQ PUSH2 0xB67 JUMPI DUP1 PUSH4 0x737594CE EQ PUSH2 0xB45 JUMPI DUP1 PUSH4 0x77806118 EQ PUSH2 0xB27 JUMPI DUP1 PUSH4 0x78223AF3 EQ PUSH2 0xB03 JUMPI DUP1 PUSH4 0x7B3C71D3 EQ PUSH2 0xA9C JUMPI DUP1 PUSH4 0x8456CB59 EQ PUSH2 0xA82 JUMPI DUP1 PUSH4 0x91D14854 EQ PUSH2 0xA3C JUMPI DUP1 PUSH4 0x94616451 EQ PUSH2 0xA14 JUMPI DUP1 PUSH4 0x9C92FBC3 EQ PUSH2 0x9EC JUMPI DUP1 PUSH4 0xA217FDDF EQ PUSH2 0x9D1 JUMPI DUP1 PUSH4 0xA7713A70 EQ PUSH2 0x9B2 JUMPI DUP1 PUSH4 0xA7E22860 EQ PUSH2 0x98A JUMPI DUP1 PUSH4 0xA8F6BC2D EQ PUSH2 0x96B JUMPI DUP1 PUSH4 0xABDDC327 EQ PUSH2 0x894 JUMPI DUP1 PUSH4 0xBB0FD757 EQ PUSH2 0x875 JUMPI DUP1 PUSH4 0xBD468FE6 EQ PUSH2 0x84D JUMPI DUP1 PUSH4 0xBD6AF848 EQ PUSH2 0x820 JUMPI DUP1 PUSH4 0xC7F758A8 EQ PUSH2 0x733 JUMPI DUP1 PUSH4 0xC8BB4DD5 EQ PUSH2 0x70B JUMPI DUP1 PUSH4 0xCA2525F6 EQ PUSH2 0x6E3 JUMPI DUP1 PUSH4 0xD00A9F06 EQ PUSH2 0x6BB JUMPI DUP1 PUSH4 0xD3BC2B8D EQ PUSH2 0x680 JUMPI DUP1 PUSH4 0xD547741F EQ PUSH2 0x643 JUMPI DUP1 PUSH4 0xDA35C664 EQ PUSH2 0x624 JUMPI DUP1 PUSH4 0xDDF0B009 EQ PUSH2 0x578 JUMPI DUP1 PUSH4 0xEA0217CF EQ PUSH2 0x556 JUMPI DUP1 PUSH4 0xEB580DFE EQ PUSH2 0x4EA JUMPI DUP1 PUSH4 0xFB468855 EQ PUSH2 0x49C JUMPI DUP1 PUSH4 0xFC0C546A EQ PUSH2 0x454 JUMPI PUSH4 0xFE0D94C1 EQ PUSH2 0x276 JUMPI PUSH1 0x0 DUP1 REVERT JUMPDEST CALLVALUE PUSH2 0x450 JUMPI PUSH1 0x20 SWAP2 DUP3 PUSH1 0x3 NOT CALLDATASIZE ADD SLT PUSH2 0x44C JUMPI DUP1 CALLDATALOAD SWAP2 PUSH2 0x294 PUSH2 0x1C4A JUMP JUMPDEST DUP3 DUP6 MSTORE PUSH1 0x11 DUP5 MSTORE DUP1 DUP6 KECCAK256 SLOAD ISZERO PUSH2 0x43F JUMPI DUP3 DUP6 MSTORE PUSH1 0x11 DUP5 MSTORE PUSH2 0x2BA DUP2 DUP7 KECCAK256 SLOAD DUP4 SLOAD SWAP1 PUSH2 0x1BAB JUMP JUMPDEST TIMESTAMP LT PUSH2 0x433 JUMPI DUP3 DUP6 MSTORE PUSH1 0x12 DUP5 MSTORE PUSH1 0xFF DUP2 DUP7 KECCAK256 SLOAD AND PUSH2 0x426 JUMPI DUP3 DUP6 MSTORE PUSH1 0x12 DUP5 MSTORE DUP1 DUP6 KECCAK256 SWAP4 PUSH1 0x1 SWAP5 PUSH1 0xFF NOT SWAP1 DUP7 DUP3 DUP3 SLOAD AND OR SWAP1 SSTORE PUSH1 0x9 DUP3 MSTORE DUP7 PUSH1 0x1 DUP1 PUSH1 0xA0 SHL SUB DUP5 DUP3 KECCAK256 SLOAD AND PUSH1 0xA DUP5 MSTORE DUP5 DUP3 KECCAK256 SLOAD SWAP3 PUSH1 0xB DUP6 MSTORE DUP6 DUP4 KECCAK256 SWAP4 DUP7 MLOAD SWAP2 DUP5 SWAP6 DUP1 SLOAD PUSH2 0x31E DUP2 PUSH2 0x1836 JUMP JUMPDEST SWAP3 DUP2 DUP15 AND SWAP2 DUP3 ISZERO PUSH2 0x412 JUMPI POP POP PUSH1 0x1 EQ PUSH2 0x3D7 JUMPI JUMPDEST POP POP DUP2 DUP5 SWAP6 SUB SWAP3 GAS CALL SWAP1 RETURNDATASIZE ISZERO PUSH2 0x3D1 JUMPI RETURNDATASIZE SWAP1 PUSH8 0xFFFFFFFFFFFFFFFF DUP3 GT PUSH2 0x3BE JUMPI DUP8 SWAP1 DUP5 MLOAD SWAP3 PUSH2 0x36C DUP3 PUSH1 0x1F NOT PUSH1 0x1F DUP5 ADD AND ADD DUP6 PUSH2 0x1870 JUMP JUMPDEST DUP4 MSTORE RETURNDATASIZE SWAP3 ADD RETURNDATACOPY JUMPDEST ISZERO PUSH2 0x3B1 JUMPI POP POP PUSH32 0x712AE1383F79AC853F8D882153778E0260EF8F03B504E2866E0593E04D2B291F DUP4 DUP1 LOG2 PUSH1 0x0 DUP1 MLOAD PUSH1 0x20 PUSH2 0x20F4 DUP4 CODECOPY DUP2 MLOAD SWAP2 MSTORE SSTORE DUP1 RETURN JUMPDEST MLOAD PUSH4 0x816A6F31 PUSH1 0xE0 SHL DUP2 MSTORE REVERT JUMPDEST PUSH4 0x4E487B71 PUSH1 0xE0 SHL DUP9 MSTORE PUSH1 0x41 DUP6 MSTORE PUSH1 0x24 DUP9 REVERT JUMPDEST POP PUSH2 0x373 JUMP JUMPDEST SWAP1 SWAP6 POP DUP5 MSTORE DUP6 DUP5 KECCAK256 DUP7 DUP12 DUP7 SWAP3 JUMPDEST DUP9 DUP5 LT PUSH2 0x3FA JUMPI POP POP POP POP DUP2 DUP5 SWAP6 DUP2 ADD SWAP6 PUSH2 0x333 JUMP JUMPDEST DUP1 SLOAD DUP7 DUP6 ADD MSTORE DUP15 SWAP8 POP SWAP3 SWAP1 SWAP2 ADD SWAP2 DUP9 SWAP2 DUP14 SWAP2 ADD PUSH2 0x3E4 JUMP JUMPDEST AND DUP6 MSTORE POP POP DUP1 ISZERO ISZERO MUL DUP3 ADD SWAP5 POP DUP2 DUP5 PUSH2 0x333 JUMP JUMPDEST MLOAD PUSH4 0x38DBD33B PUSH1 0xE1 SHL DUP2 MSTORE REVERT JUMPDEST MLOAD PUSH3 0x5C9299 PUSH1 0xE8 SHL DUP2 MSTORE REVERT JUMPDEST MLOAD PUSH4 0x9EA93C3 PUSH1 0xE4 SHL DUP2 MSTORE REVERT JUMPDEST DUP4 DUP1 REVERT JUMPDEST DUP3 DUP1 REVERT JUMPDEST DUP4 DUP3 CALLVALUE PUSH2 0x498 JUMPI DUP2 PUSH1 0x3 NOT CALLDATASIZE ADD SLT PUSH2 0x498 JUMPI MLOAD PUSH32 0x0 PUSH1 0x1 PUSH1 0x1 PUSH1 0xA0 SHL SUB AND DUP2 MSTORE PUSH1 0x20 SWAP1 RETURN JUMPDEST POP DUP1 REVERT JUMPDEST POP SWAP1 CALLVALUE PUSH2 0x450 JUMPI DUP2 PUSH1 0x3 NOT CALLDATASIZE ADD SLT PUSH2 0x450 JUMPI DUP2 PUSH2 0x4E6 SWAP4 PUSH1 0xFF SWAP3 PUSH2 0x4BE PUSH2 0x1820 JUMP JUMPDEST SWAP1 CALLDATALOAD DUP3 MSTORE PUSH1 0x16 PUSH1 0x20 MSTORE DUP3 DUP3 KECCAK256 SWAP1 PUSH1 0x1 DUP1 PUSH1 0xA0 SHL SUB AND DUP3 MSTORE PUSH1 0x20 MSTORE KECCAK256 SLOAD AND SWAP1 MLOAD SWAP2 DUP3 SWAP2 DUP3 PUSH2 0x198E JUMP JUMPDEST SUB SWAP1 RETURN JUMPDEST POP SWAP1 CALLVALUE PUSH2 0x450 JUMPI DUP3 PUSH1 0x3 NOT CALLDATASIZE ADD SLT PUSH2 0x450 JUMPI PUSH2 0x504 PUSH2 0x19F9 JUMP JUMPDEST PUSH1 0x1 SLOAD SWAP1 PUSH1 0xFF DUP3 AND PUSH2 0x548 JUMPI POP PUSH32 0x62E78CEA01BEE320CD4E420270B5EA74000D11B0C9F74754EBDBFC544B05A258 SWAP2 PUSH1 0x1 PUSH1 0x20 SWAP3 PUSH1 0xFF NOT AND OR PUSH1 0x1 SSTORE MLOAD CALLER DUP2 MSTORE LOG1 DUP1 RETURN JUMPDEST DUP3 MLOAD PUSH4 0xD93C0665 PUSH1 0xE0 SHL DUP2 MSTORE REVERT JUMPDEST POP POP CALLVALUE PUSH2 0x498 JUMPI PUSH1 0x20 CALLDATASIZE PUSH1 0x3 NOT ADD SLT PUSH2 0x498 JUMPI PUSH2 0x571 PUSH2 0x19A1 JUMP JUMPDEST CALLDATALOAD PUSH1 0x2 SSTORE DUP1 RETURN JUMPDEST POP CALLVALUE PUSH2 0x450 JUMPI PUSH1 0x20 CALLDATASIZE PUSH1 0x3 NOT ADD SLT PUSH2 0x450 JUMPI DUP2 CALLDATALOAD SWAP2 PUSH2 0x595 PUSH2 0x1C4A JUMP JUMPDEST PUSH2 0x59E DUP4 PUSH2 0x1F15 JUMP JUMPDEST PUSH1 0x9 DUP2 LT ISZERO PUSH2 0x611 JUMPI DUP2 SUB PUSH2 0x603 JUMPI PUSH32 0x9A2E42FD6722813D69113E7D0079D3D940171428DF7373DF9C7F7617CFDA2892 SWAP2 PUSH2 0x5E8 PUSH1 0x20 SWAP3 DUP6 DUP8 MSTORE PUSH1 0x11 DUP5 MSTORE TIMESTAMP DUP4 DUP9 KECCAK256 SSTORE SLOAD TIMESTAMP PUSH2 0x1BAB JUMP JUMPDEST SWAP1 MLOAD SWAP1 DUP2 MSTORE LOG2 PUSH1 0x1 PUSH1 0x0 DUP1 MLOAD PUSH1 0x20 PUSH2 0x20F4 DUP4 CODECOPY DUP2 MLOAD SWAP2 MSTORE SSTORE DUP1 RETURN JUMPDEST SWAP1 MLOAD PUSH4 0x9EA93C3 PUSH1 0xE4 SHL DUP2 MSTORE REVERT JUMPDEST PUSH4 0x4E487B71 PUSH1 0xE0 SHL DUP6 MSTORE PUSH1 0x21 DUP3 MSTORE PUSH1 0x24 DUP6 REVERT JUMPDEST DUP4 DUP3 CALLVALUE PUSH2 0x498 JUMPI DUP2 PUSH1 0x3 NOT CALLDATASIZE ADD SLT PUSH2 0x498 JUMPI PUSH1 0x20 SWAP1 PUSH1 0x5 SLOAD SWAP1 MLOAD SWAP1 DUP2 MSTORE RETURN JUMPDEST POP CALLVALUE PUSH2 0x450 JUMPI DUP1 PUSH1 0x3 NOT CALLDATASIZE ADD SLT PUSH2 0x450 JUMPI PUSH2 0x67C SWAP2 CALLDATALOAD PUSH2 0x677 PUSH1 0x1 PUSH2 0x666 PUSH2 0x1820 JUMP JUMPDEST SWAP4 DUP4 DUP8 MSTORE DUP7 PUSH1 0x20 MSTORE DUP7 KECCAK256 ADD SLOAD PUSH2 0x1A55 JUMP JUMPDEST PUSH2 0x1AF9 JUMP JUMPDEST POP DUP1 RETURN JUMPDEST DUP4 DUP3 CALLVALUE PUSH2 0x498 JUMPI DUP2 PUSH1 0x3 NOT CALLDATASIZE ADD SLT PUSH2 0x498 JUMPI PUSH1 0x20 SWAP1 MLOAD PUSH32 0xB02C64F0C28BE59776465B163FA919B01DA504B3A5DDA0EE188FA6D028017EC3 DUP2 MSTORE RETURN JUMPDEST POP SWAP1 CALLVALUE PUSH2 0x450 JUMPI PUSH1 0x20 CALLDATASIZE PUSH1 0x3 NOT ADD SLT PUSH2 0x450 JUMPI PUSH1 0x20 SWAP3 DUP3 SWAP2 CALLDATALOAD DUP2 MSTORE PUSH1 0x10 DUP5 MSTORE KECCAK256 SLOAD SWAP1 MLOAD SWAP1 DUP2 MSTORE RETURN JUMPDEST POP SWAP1 CALLVALUE PUSH2 0x450 JUMPI PUSH1 0x20 CALLDATASIZE PUSH1 0x3 NOT ADD SLT PUSH2 0x450 JUMPI PUSH1 0x20 SWAP3 DUP3 SWAP2 CALLDATALOAD DUP2 MSTORE PUSH1 0xA DUP5 MSTORE KECCAK256 SLOAD SWAP1 MLOAD SWAP1 DUP2 MSTORE RETURN JUMPDEST POP SWAP1 CALLVALUE PUSH2 0x450 JUMPI PUSH1 0x20 CALLDATASIZE PUSH1 0x3 NOT ADD SLT PUSH2 0x450 JUMPI PUSH1 0x20 SWAP3 DUP3 SWAP2 CALLDATALOAD DUP2 MSTORE PUSH1 0xC DUP5 MSTORE KECCAK256 SLOAD SWAP1 MLOAD SWAP1 DUP2 MSTORE RETURN JUMPDEST POP DUP3 SWAP1 CALLVALUE PUSH2 0x498 JUMPI PUSH1 0x20 SWAP3 DUP4 PUSH1 0x3 NOT CALLDATASIZE ADD SLT PUSH2 0x450 JUMPI CALLDATALOAD DUP3 MSTORE PUSH1 0x6 DUP4 MSTORE PUSH1 0x1 DUP1 PUSH1 0xA0 SHL SUB DUP2 DUP4 KECCAK256 SLOAD AND SWAP2 PUSH1 0x7 DUP5 MSTORE DUP4 DUP1 DUP4 DUP4 KECCAK256 SWAP3 PUSH1 0x8 DUP3 MSTORE PUSH1 0xFF DUP6 DUP3 KECCAK256 SLOAD AND PUSH1 0xF DUP4 MSTORE DUP6 DUP3 KECCAK256 SLOAD PUSH1 0x10 DUP5 MSTORE DUP7 DUP4 KECCAK256 SLOAD PUSH1 0xC DUP6 MSTORE DUP8 DUP5 KECCAK256 SLOAD SWAP2 PUSH1 0xD DUP7 MSTORE PUSH2 0x7EB DUP10 DUP7 KECCAK256 SLOAD SWAP5 PUSH1 0xE DUP9 MSTORE PUSH2 0x7E2 PUSH2 0x7CA PUSH1 0xFF DUP14 DUP1 DUP12 KECCAK256 SLOAD SWAP11 PUSH1 0x12 DUP14 MSTORE PUSH1 0x13 DUP4 DUP4 DUP4 KECCAK256 SLOAD AND SWAP14 MSTORE PUSH1 0x14 DUP4 DUP4 DUP4 KECCAK256 SLOAD AND SWAP15 MSTORE KECCAK256 SLOAD AND SWAP12 PUSH2 0x18A8 JUMP JUMPDEST DUP13 MLOAD SWAP15 DUP16 SWAP15 DUP16 SWAP1 DUP2 MSTORE PUSH2 0x160 DUP1 SWAP3 DUP3 ADD MSTORE ADD SWAP1 PUSH2 0x194E JUMP JUMPDEST SWAP11 DUP13 ADD SWAP1 PUSH2 0x17FD JUMP JUMPDEST PUSH1 0x60 DUP11 ADD MSTORE PUSH1 0x80 DUP10 ADD MSTORE PUSH1 0xA0 DUP9 ADD MSTORE PUSH1 0xC0 DUP8 ADD MSTORE PUSH1 0xE0 DUP7 ADD MSTORE ISZERO ISZERO PUSH2 0x100 DUP6 ADD MSTORE ISZERO ISZERO PUSH2 0x120 DUP5 ADD MSTORE ISZERO ISZERO PUSH2 0x140 DUP4 ADD MSTORE SUB SWAP1 RETURN JUMPDEST POP SWAP1 CALLVALUE PUSH2 0x450 JUMPI PUSH1 0x20 CALLDATASIZE PUSH1 0x3 NOT ADD SLT PUSH2 0x450 JUMPI DUP2 PUSH1 0x20 SWAP4 PUSH1 0xFF SWAP3 CALLDATALOAD DUP2 MSTORE PUSH1 0x14 DUP6 MSTORE KECCAK256 SLOAD AND SWAP1 MLOAD SWAP1 ISZERO ISZERO DUP2 MSTORE RETURN JUMPDEST POP SWAP1 CALLVALUE PUSH2 0x450 JUMPI PUSH1 0x20 CALLDATASIZE PUSH1 0x3 NOT ADD SLT PUSH2 0x450 JUMPI PUSH1 0x20 SWAP3 DUP3 SWAP2 CALLDATALOAD DUP2 MSTORE PUSH1 0xE DUP5 MSTORE KECCAK256 SLOAD SWAP1 MLOAD SWAP1 DUP2 MSTORE RETURN JUMPDEST DUP4 DUP3 CALLVALUE PUSH2 0x498 JUMPI DUP2 PUSH1 0x3 NOT CALLDATASIZE ADD SLT PUSH2 0x498 JUMPI PUSH1 0x20 SWAP1 PUSH1 0x18 SLOAD SWAP1 MLOAD SWAP1 DUP2 MSTORE RETURN JUMPDEST POP CALLVALUE PUSH2 0x450 JUMPI PUSH1 0x20 SWAP2 DUP3 PUSH1 0x3 NOT CALLDATASIZE ADD SLT PUSH2 0x44C JUMPI CALLDATALOAD DUP4 MSTORE PUSH1 0xB DUP3 MSTORE DUP1 DUP4 KECCAK256 DUP2 MLOAD SWAP4 DUP5 SWAP2 DUP2 DUP2 SLOAD SWAP1 PUSH2 0x8C4 DUP3 PUSH2 0x1836 JUMP JUMPDEST SWAP3 DUP4 DUP7 MSTORE PUSH1 0x1 SWAP3 DUP9 DUP5 DUP3 AND SWAP2 DUP3 PUSH1 0x0 EQ PUSH2 0x941 JUMPI POP POP PUSH1 0x1 EQ PUSH2 0x903 JUMPI JUMPDEST DUP6 DUP9 PUSH2 0x4E6 DUP10 PUSH2 0x8F4 DUP5 DUP11 SUB DUP6 PUSH2 0x1870 JUMP JUMPDEST MLOAD SWAP3 DUP3 DUP5 SWAP4 DUP5 MSTORE DUP4 ADD SWAP1 PUSH2 0x194E JUMP JUMPDEST DUP8 SWAP5 POP DUP2 SWAP4 SWAP3 SWAP2 MSTORE DUP4 DUP4 KECCAK256 JUMPDEST DUP3 DUP5 LT PUSH2 0x929 JUMPI POP POP POP DUP3 ADD ADD DUP2 PUSH2 0x8F4 PUSH2 0x4E6 CODESIZE PUSH2 0x8E2 JUMP JUMPDEST DUP1 SLOAD DUP5 DUP11 ADD DUP7 ADD MSTORE DUP9 SWAP6 POP DUP8 SWAP5 SWAP1 SWAP4 ADD SWAP3 DUP2 ADD PUSH2 0x90F JUMP JUMPDEST PUSH1 0xFF NOT AND DUP9 DUP3 ADD MSTORE SWAP5 ISZERO ISZERO PUSH1 0x5 SHL DUP8 ADD SWAP1 SWAP5 ADD SWAP5 POP DUP6 SWAP4 POP PUSH2 0x8F4 SWAP3 POP PUSH2 0x4E6 SWAP2 POP CODESIZE SWAP1 POP PUSH2 0x8E2 JUMP JUMPDEST DUP4 DUP3 CALLVALUE PUSH2 0x498 JUMPI DUP2 PUSH1 0x3 NOT CALLDATASIZE ADD SLT PUSH2 0x498 JUMPI PUSH1 0x20 SWAP1 PUSH1 0x17 SLOAD SWAP1 MLOAD SWAP1 DUP2 MSTORE RETURN JUMPDEST POP SWAP1 CALLVALUE PUSH2 0x450 JUMPI PUSH1 0x20 CALLDATASIZE PUSH1 0x3 NOT ADD SLT PUSH2 0x450 JUMPI PUSH1 0x20 SWAP3 DUP3 SWAP2 CALLDATALOAD DUP2 MSTORE PUSH1 0xD DUP5 MSTORE KECCAK256 SLOAD SWAP1 MLOAD SWAP1 DUP2 MSTORE RETURN JUMPDEST DUP4 DUP3 CALLVALUE PUSH2 0x498 JUMPI DUP2 PUSH1 0x3 NOT CALLDATASIZE ADD SLT PUSH2 0x498 JUMPI PUSH1 0x20 SWAP1 PUSH1 0x3 SLOAD SWAP1 MLOAD SWAP1 DUP2 MSTORE RETURN JUMPDEST DUP4 DUP3 CALLVALUE PUSH2 0x498 JUMPI DUP2 PUSH1 0x3 NOT CALLDATASIZE ADD SLT PUSH2 0x498 JUMPI MLOAD SWAP1 DUP2 MSTORE PUSH1 0x20 SWAP1 RETURN JUMPDEST POP SWAP1 CALLVALUE PUSH2 0x450 JUMPI PUSH1 0x20 CALLDATASIZE PUSH1 0x3 NOT ADD SLT PUSH2 0x450 JUMPI PUSH1 0x20 SWAP3 DUP3 SWAP2 CALLDATALOAD DUP2 MSTORE PUSH1 0x11 DUP5 MSTORE KECCAK256 SLOAD SWAP1 MLOAD SWAP1 DUP2 MSTORE RETURN JUMPDEST POP SWAP1 CALLVALUE PUSH2 0x450 JUMPI PUSH1 0x20 CALLDATASIZE PUSH1 0x3 NOT ADD SLT PUSH2 0x450 JUMPI PUSH1 0x20 SWAP3 DUP3 SWAP2 CALLDATALOAD DUP2 MSTORE PUSH1 0xF DUP5 MSTORE KECCAK256 SLOAD SWAP1 MLOAD SWAP1 DUP2 MSTORE RETURN JUMPDEST POP SWAP1 CALLVALUE PUSH2 0x450 JUMPI DUP2 PUSH1 0x3 NOT CALLDATASIZE ADD SLT PUSH2 0x450 JUMPI DUP2 PUSH1 0x20 SWAP4 PUSH1 0xFF SWAP3 PUSH2 0xA5D PUSH2 0x1820 JUMP JUMPDEST SWAP1 CALLDATALOAD DUP3 MSTORE DUP2 DUP7 MSTORE DUP3 DUP3 KECCAK256 PUSH1 0x1 PUSH1 0x1 PUSH1 0xA0 SHL SUB SWAP1 SWAP2 AND DUP3 MSTORE DUP6 MSTORE KECCAK256 SLOAD SWAP2 MLOAD SWAP2 AND ISZERO ISZERO DUP2 MSTORE RETURN JUMPDEST POP SWAP1 CALLVALUE PUSH2 0x450 JUMPI DUP3 PUSH1 0x3 NOT CALLDATASIZE ADD SLT PUSH2 0x450 JUMPI PUSH2 0x504 PUSH2 0x19A1 JUMP JUMPDEST POP POP CALLVALUE PUSH2 0x498 JUMPI PUSH1 0x60 CALLDATASIZE PUSH1 0x3 NOT ADD SLT PUSH2 0x498 JUMPI PUSH1 0x24 CALLDATALOAD PUSH1 0x3 DUP2 LT ISZERO PUSH2 0x450 JUMPI PUSH1 0x44 CALLDATALOAD SWAP2 PUSH8 0xFFFFFFFFFFFFFFFF DUP4 GT PUSH2 0x44C JUMPI PUSH2 0xADE PUSH2 0xAEE SWAP4 CALLDATASIZE SWAP1 DUP4 ADD PUSH2 0x17CA JUMP JUMPDEST POP POP PUSH2 0xAE8 PUSH2 0x1C4A JUMP JUMPDEST CALLDATALOAD PUSH2 0x1C7A JUMP JUMPDEST PUSH1 0x1 PUSH1 0x0 DUP1 MLOAD PUSH1 0x20 PUSH2 0x20F4 DUP4 CODECOPY DUP2 MLOAD SWAP2 MSTORE SSTORE DUP1 RETURN JUMPDEST DUP4 DUP3 CALLVALUE PUSH2 0x498 JUMPI DUP2 PUSH1 0x3 NOT CALLDATASIZE ADD SLT PUSH2 0x498 JUMPI PUSH1 0x20 SWAP1 PUSH2 0xB20 PUSH2 0x1EE5 JUMP JUMPDEST SWAP1 MLOAD SWAP1 DUP2 MSTORE RETURN JUMPDEST POP SWAP1 CALLVALUE PUSH2 0x450 JUMPI DUP3 PUSH1 0x3 NOT CALLDATASIZE ADD SLT PUSH2 0x450 JUMPI PUSH1 0x20 SWAP3 POP SLOAD SWAP1 MLOAD SWAP1 DUP2 MSTORE RETURN JUMPDEST POP POP CALLVALUE PUSH2 0x498 JUMPI PUSH1 0x20 CALLDATASIZE PUSH1 0x3 NOT ADD SLT PUSH2 0x498 JUMPI PUSH2 0xB60 PUSH2 0x19A1 JUMP JUMPDEST CALLDATALOAD PUSH1 0x3 SSTORE DUP1 RETURN JUMPDEST DUP4 DUP3 CALLVALUE PUSH2 0x498 JUMPI DUP2 PUSH1 0x3 NOT CALLDATASIZE ADD SLT PUSH2 0x498 JUMPI PUSH1 0x20 SWAP1 MLOAD PUSH1 0x64 DUP2 MSTORE RETURN JUMPDEST POP CALLVALUE PUSH2 0x450 JUMPI PUSH1 0x20 CALLDATASIZE PUSH1 0x3 NOT ADD SLT PUSH2 0x450 JUMPI DUP2 CALLDATALOAD SWAP2 PUSH2 0xBA0 PUSH2 0x19F9 JUMP JUMPDEST DUP3 DUP5 MSTORE PUSH1 0x12 PUSH1 0x20 MSTORE PUSH1 0xFF DUP3 DUP6 KECCAK256 SLOAD AND PUSH2 0xC05 JUMPI DUP3 DUP5 MSTORE PUSH1 0x13 PUSH1 0x20 MSTORE PUSH1 0xFF DUP3 DUP6 KECCAK256 SLOAD AND PUSH2 0xC05 JUMPI POP DUP2 DUP4 MSTORE PUSH1 0x14 PUSH1 0x20 MSTORE DUP3 KECCAK256 DUP1 SLOAD PUSH1 0xFF NOT AND PUSH1 0x1 OR SWAP1 SSTORE CALLER SWAP1 PUSH32 0xC2131DB10D833D6B93AE553FA450EA0F6C0C2DFB0160CB3309468BF72718F3EB DUP4 DUP1 LOG3 DUP1 RETURN JUMPDEST SWAP1 MLOAD PUSH4 0x38DBD33B PUSH1 0xE1 SHL DUP2 MSTORE REVERT JUMPDEST POP SWAP1 CALLVALUE PUSH2 0x450 JUMPI PUSH1 0x20 CALLDATASIZE PUSH1 0x3 NOT ADD SLT PUSH2 0x450 JUMPI DUP2 PUSH1 0x20 SWAP4 PUSH1 0xFF SWAP3 CALLDATALOAD DUP2 MSTORE PUSH1 0x13 DUP6 MSTORE KECCAK256 SLOAD AND SWAP1 MLOAD SWAP1 ISZERO ISZERO DUP2 MSTORE RETURN JUMPDEST POP SWAP1 CALLVALUE PUSH2 0x450 JUMPI PUSH1 0x20 CALLDATASIZE PUSH1 0x3 NOT ADD SLT PUSH2 0x450 JUMPI CALLDATALOAD DUP3 MSTORE PUSH1 0x9 PUSH1 0x20 SWAP1 DUP2 MSTORE SWAP2 DUP2 SWAP1 KECCAK256 SLOAD SWAP1 MLOAD PUSH1 0x1 PUSH1 0x1 PUSH1 0xA0 SHL SUB SWAP1 SWAP2 AND DUP2 MSTORE RETURN JUMPDEST DUP4 DUP3 CALLVALUE PUSH2 0x498 JUMPI DUP2 PUSH1 0x3 NOT CALLDATASIZE ADD SLT PUSH2 0x498 JUMPI PUSH1 0x20 SWAP1 PUSH1 0xFF PUSH1 0x1 SLOAD AND SWAP1 MLOAD SWAP1 ISZERO ISZERO DUP2 MSTORE RETURN JUMPDEST POP CALLVALUE PUSH2 0x450 JUMPI CALLDATASIZE PUSH1 0x3 NOT ADD SLT PUSH2 0x498 JUMPI PUSH1 0x24 CALLDATALOAD PUSH1 0x3 DUP2 LT ISZERO PUSH2 0x450 JUMPI PUSH2 0xAEE SWAP2 PUSH2 0xAE8 PUSH2 0x1C4A JUMP JUMPDEST DUP4 DUP3 CALLVALUE PUSH2 0x498 JUMPI DUP2 PUSH1 0x3 NOT CALLDATASIZE ADD SLT PUSH2 0x498 JUMPI PUSH1 0x20 SWAP1 PUSH2 0xCDC PUSH2 0x1EC4 JUMP JUMPDEST SWAP1 MLOAD SWAP1 ISZERO ISZERO DUP2 MSTORE RETURN JUMPDEST POP SWAP1 CALLVALUE PUSH2 0x450 JUMPI DUP2 PUSH1 0x3 NOT CALLDATASIZE ADD SLT PUSH2 0x450 JUMPI DUP2 PUSH1 0x20 SWAP4 PUSH1 0xFF SWAP3 PUSH2 0xD06 PUSH2 0x1820 JUMP JUMPDEST SWAP1 CALLDATALOAD DUP3 MSTORE PUSH1 0x15 DUP7 MSTORE DUP3 DUP3 KECCAK256 PUSH1 0x1 PUSH1 0x1 PUSH1 0xA0 SHL SUB SWAP1 SWAP2 AND DUP3 MSTORE DUP6 MSTORE KECCAK256 SLOAD SWAP2 MLOAD SWAP2 AND ISZERO ISZERO DUP2 MSTORE RETURN JUMPDEST DUP4 DUP3 CALLVALUE PUSH2 0x498 JUMPI DUP2 PUSH1 0x3 NOT CALLDATASIZE ADD SLT PUSH2 0x498 JUMPI PUSH1 0x19 SLOAD SWAP1 MLOAD PUSH1 0x1 PUSH1 0x1 PUSH1 0xA0 SHL SUB SWAP1 SWAP2 AND DUP2 MSTORE PUSH1 0x20 SWAP1 RETURN JUMPDEST POP CALLVALUE PUSH2 0x450 JUMPI PUSH1 0x20 DUP1 PUSH1 0x3 NOT CALLDATASIZE ADD SLT PUSH2 0x44C JUMPI DUP3 CALLDATALOAD SWAP3 DUP4 DUP6 MSTORE PUSH1 0x6 DUP3 MSTORE PUSH1 0x1 DUP1 PUSH1 0xA0 SHL SUB DUP4 DUP7 KECCAK256 SLOAD AND CALLER EQ ISZERO DUP1 PUSH2 0xDF5 JUMPI JUMPDEST PUSH2 0xDE7 JUMPI DUP4 DUP6 MSTORE PUSH1 0x12 DUP3 MSTORE PUSH1 0xFF DUP4 DUP7 KECCAK256 SLOAD AND PUSH2 0xDD9 JUMPI POP DUP3 DUP5 MSTORE PUSH1 0x13 SWAP1 MSTORE DUP3 KECCAK256 DUP1 SLOAD PUSH1 0xFF NOT AND PUSH1 0x1 OR SWAP1 SSTORE PUSH32 0x789CF55BE980739DAD1D0699B93B58E806B51C9D96619BFA8FE0A28ABAA7B30C DUP3 DUP1 LOG2 DUP1 RETURN JUMPDEST DUP3 MLOAD PUSH4 0x38DBD33B PUSH1 0xE1 SHL DUP2 MSTORE REVERT JUMPDEST DUP3 MLOAD PUSH4 0x24DBEAC9 PUSH1 0xE1 SHL DUP2 MSTORE REVERT JUMPDEST POP DUP5 DUP1 MSTORE DUP5 DUP3 MSTORE DUP3 DUP6 KECCAK256 CALLER DUP7 MSTORE DUP3 MSTORE PUSH1 0xFF DUP4 DUP7 KECCAK256 SLOAD AND ISZERO PUSH2 0xD87 JUMP JUMPDEST POP SWAP1 CALLVALUE PUSH2 0x450 JUMPI DUP3 PUSH1 0x3 NOT CALLDATASIZE ADD SLT PUSH2 0x450 JUMPI PUSH2 0xE2B PUSH2 0x19A1 JUMP JUMPDEST PUSH1 0x1 SLOAD SWAP1 PUSH1 0xFF DUP3 AND ISZERO PUSH2 0xE6D JUMPI POP PUSH1 0xFF NOT AND PUSH1 0x1 SSTORE MLOAD CALLER DUP2 MSTORE PUSH32 0x5DB9EE0A495BF2E6FF9C91A7834C1BA4FDD244A5E8AA4E537BD38AEAE4B073AA SWAP1 PUSH1 0x20 SWAP1 LOG1 DUP1 RETURN JUMPDEST DUP3 MLOAD PUSH4 0x8DFC202B PUSH1 0xE0 SHL DUP2 MSTORE REVERT JUMPDEST POP DUP3 SWAP1 CALLVALUE PUSH2 0x498 JUMPI PUSH1 0x20 CALLDATASIZE PUSH1 0x3 NOT ADD SLT PUSH2 0x498 JUMPI PUSH2 0xE99 DUP4 CALLDATALOAD PUSH2 0x1F15 JUMP JUMPDEST SWAP1 MLOAD SWAP2 PUSH1 0x9 DUP3 LT ISZERO PUSH2 0xEAD JUMPI PUSH1 0x20 DUP4 DUP4 DUP2 MSTORE RETURN JUMPDEST PUSH4 0x4E487B71 PUSH1 0xE0 SHL DUP2 MSTORE PUSH1 0x21 DUP5 MSTORE PUSH1 0x24 SWAP1 REVERT JUMPDEST POP DUP3 SWAP1 CALLVALUE PUSH2 0x498 JUMPI PUSH1 0xA0 CALLDATASIZE PUSH1 0x3 NOT ADD SLT PUSH2 0x498 JUMPI PUSH8 0xFFFFFFFFFFFFFFFF DUP4 CALLDATALOAD DUP2 DUP2 GT PUSH2 0x44C JUMPI PUSH2 0xEF3 SWAP1 CALLDATASIZE SWAP1 DUP7 ADD PUSH2 0x17CA JUMP JUMPDEST SWAP2 SWAP1 PUSH1 0x5 PUSH1 0x24 CALLDATALOAD LT ISZERO PUSH2 0x127D JUMPI PUSH1 0x44 CALLDATALOAD SWAP5 PUSH1 0x1 PUSH1 0x1 PUSH1 0xA0 SHL SUB SWAP3 DUP4 DUP8 AND DUP8 SUB PUSH2 0x498 JUMPI PUSH1 0x84 CALLDATALOAD DUP2 DUP2 GT PUSH2 0x450 JUMPI PUSH2 0xF2D SWAP1 CALLDATASIZE SWAP1 DUP11 ADD PUSH2 0x17CA JUMP JUMPDEST SWAP1 PUSH2 0xF36 PUSH2 0x1C4A JUMP JUMPDEST DUP7 ISZERO PUSH2 0x126D JUMPI DUP8 MLOAD PUSH4 0x6A6B9A61 PUSH1 0xE0 SHL DUP2 MSTORE CALLER DUP12 DUP3 ADD MSTORE PUSH1 0x20 DUP2 PUSH1 0x24 DUP2 PUSH32 0x0 DUP12 AND GAS STATICCALL SWAP1 DUP2 ISZERO PUSH2 0x1263 JUMPI DUP6 SWAP2 PUSH2 0x1234 JUMPI JUMPDEST POP ISZERO PUSH2 0x1224 JUMPI PUSH1 0x5 SLOAD SWAP9 PUSH2 0xF99 DUP11 PUSH2 0x1B86 JUMP JUMPDEST PUSH1 0x5 SSTORE PUSH2 0xFA8 PUSH1 0x2 SLOAD TIMESTAMP PUSH2 0x1BAB JUMP JUMPDEST SWAP7 DUP11 DUP7 MSTORE PUSH1 0x6 PUSH1 0x20 MSTORE DUP10 DUP7 KECCAK256 SWAP1 PUSH12 0xFFFFFFFFFFFFFFFFFFFFFFFF PUSH1 0xA0 SHL SWAP2 CALLER DUP4 DUP3 SLOAD AND OR SWAP1 SSTORE PUSH1 0x7 PUSH1 0x20 MSTORE DUP11 DUP8 KECCAK256 DUP7 DUP12 GT PUSH2 0x1210 JUMPI PUSH2 0xFF1 DUP12 PUSH2 0xFEB DUP4 SLOAD PUSH2 0x1836 JUMP JUMPDEST DUP4 PUSH2 0x1BCF JUMP JUMPDEST DUP11 DUP9 PUSH1 0x1F DUP3 GT PUSH1 0x1 EQ PUSH2 0x11A8 JUMPI DUP10 SWAP2 PUSH2 0x119D JUMPI JUMPDEST POP DUP12 PUSH1 0x1 SHL SWAP1 PUSH1 0x0 NOT DUP14 PUSH1 0x3 SHL SHR NOT AND OR SWAP1 SSTORE JUMPDEST DUP12 DUP8 MSTORE PUSH1 0x8 PUSH1 0x20 MSTORE DUP11 DUP8 KECCAK256 PUSH1 0xFF NOT DUP2 SLOAD AND PUSH1 0xFF PUSH1 0x24 CALLDATALOAD AND OR SWAP1 SSTORE PUSH1 0x9 PUSH1 0x20 MSTORE DUP11 DUP8 KECCAK256 SWAP3 AND SWAP1 DUP3 SLOAD AND OR SWAP1 SSTORE PUSH1 0xA PUSH1 0x20 MSTORE PUSH1 0x64 CALLDATALOAD DUP9 DUP6 KECCAK256 SSTORE PUSH1 0xB PUSH1 0x20 MSTORE DUP8 DUP5 KECCAK256 SWAP3 DUP3 GT PUSH2 0x118A JUMPI PUSH1 0x20 SWAP10 POP SWAP2 DUP2 DUP10 SWAP6 SWAP4 PUSH2 0x107F DUP11 SWAP9 SWAP7 SWAP5 PUSH2 0x1079 DUP6 SLOAD PUSH2 0x1836 JUMP JUMPDEST DUP6 PUSH2 0x1BCF JUMP JUMPDEST DUP4 SWAP1 PUSH1 0x1F DUP4 GT PUSH1 0x1 EQ PUSH2 0x110A JUMPI SWAP2 DUP1 PUSH1 0x0 DUP1 MLOAD PUSH1 0x20 PUSH2 0x2114 DUP4 CODECOPY DUP2 MLOAD SWAP2 MSTORE SWAP9 SWAP10 SWAP5 SWAP3 DUP7 SWAP5 DUP10 SWAP8 SWAP3 PUSH2 0x10FF JUMPI JUMPDEST POP POP DUP2 PUSH1 0x1 SHL SWAP2 PUSH1 0x0 NOT SWAP1 PUSH1 0x3 SHL SHR NOT AND OR SWAP1 SSTORE JUMPDEST DUP7 DUP2 MSTORE PUSH1 0xF DUP12 MSTORE TIMESTAMP DUP3 DUP3 KECCAK256 SSTORE PUSH1 0x10 DUP12 MSTORE KECCAK256 SSTORE PUSH2 0x10E4 DUP7 MLOAD SWAP3 DUP4 SWAP3 CALLER SWAP8 TIMESTAMP SWAP2 DUP6 PUSH2 0x1C14 JUMP JUMPDEST SUB SWAP1 LOG3 PUSH1 0x1 PUSH1 0x0 DUP1 MLOAD PUSH1 0x20 PUSH2 0x20F4 DUP4 CODECOPY DUP2 MLOAD SWAP2 MSTORE SSTORE MLOAD SWAP1 DUP2 MSTORE RETURN JUMPDEST ADD CALLDATALOAD SWAP1 POP DUP15 DUP1 PUSH2 0x10AB JUMP JUMPDEST DUP4 DUP6 MSTORE DUP13 DUP6 KECCAK256 SWAP9 SWAP5 SWAP4 SWAP3 SWAP2 PUSH1 0x1F NOT DUP4 AND DUP6 JUMPDEST DUP2 DUP2 LT PUSH2 0x116D JUMPI POP SWAP10 PUSH1 0x1 SWAP3 DUP5 SWAP3 DUP11 SWAP9 SWAP8 SWAP7 SWAP6 PUSH1 0x0 DUP1 MLOAD PUSH1 0x20 PUSH2 0x2114 DUP4 CODECOPY DUP2 MLOAD SWAP2 MSTORE SWAP13 SWAP14 LT PUSH2 0x1153 JUMPI JUMPDEST POP POP POP DUP2 SHL ADD SWAP1 SSTORE PUSH2 0x10C0 JUMP JUMPDEST ADD CALLDATALOAD PUSH1 0x0 NOT PUSH1 0x3 DUP5 SWAP1 SHL PUSH1 0xF8 AND SHR NOT AND SWAP1 SSTORE DUP15 DUP1 DUP1 PUSH2 0x1146 JUMP JUMPDEST DUP3 DUP5 ADD CALLDATALOAD DUP13 SSTORE PUSH1 0x1 SWAP1 SWAP12 ADD SWAP11 DUP15 SWAP11 POP DUP14 SWAP8 POP SWAP2 DUP16 ADD SWAP2 DUP16 ADD PUSH2 0x111C JUMP JUMPDEST PUSH4 0x4E487B71 PUSH1 0xE0 SHL DUP5 MSTORE PUSH1 0x41 DUP11 MSTORE PUSH1 0x24 DUP5 REVERT JUMPDEST SWAP1 POP DUP10 ADD CALLDATALOAD DUP16 PUSH2 0x1005 JUMP JUMPDEST DUP3 DUP11 MSTORE PUSH1 0x20 DUP11 KECCAK256 SWAP2 POP DUP10 DUP12 DUP15 JUMPDEST PUSH1 0x1F NOT AND DUP3 LT PUSH2 0x11F6 JUMPI POP POP DUP13 PUSH1 0x1F NOT DUP2 AND LT PUSH2 0x11DC JUMPI JUMPDEST POP POP PUSH1 0x1 DUP12 DUP2 SHL ADD SWAP1 SSTORE PUSH2 0x1019 JUMP JUMPDEST DUP11 ADD CALLDATALOAD PUSH1 0x0 NOT PUSH1 0x3 DUP15 SWAP1 SHL PUSH1 0xF8 AND SHR NOT AND SWAP1 SSTORE DUP15 DUP1 PUSH2 0x11CD JUMP JUMPDEST PUSH1 0x1 DUP4 SWAP5 PUSH1 0x20 SWAP4 SWAP5 DUP5 SWAP4 ADD CALLDATALOAD DUP2 SSTORE ADD SWAP4 ADD SWAP2 ADD DUP12 DUP15 PUSH2 0x11B5 JUMP JUMPDEST POP PUSH4 0x4E487B71 PUSH1 0xE0 SHL DUP8 MSTORE PUSH1 0x41 DUP14 MSTORE PUSH1 0x24 DUP8 REVERT JUMPDEST DUP8 MLOAD PUSH4 0x9450A1D3 PUSH1 0xE0 SHL DUP2 MSTORE DUP11 SWAP1 REVERT JUMPDEST PUSH2 0x1256 SWAP2 POP PUSH1 0x20 RETURNDATASIZE PUSH1 0x20 GT PUSH2 0x125C JUMPI JUMPDEST PUSH2 0x124E DUP2 DUP4 PUSH2 0x1870 JUMP JUMPDEST DUP2 ADD SWAP1 PUSH2 0x1B6E JUMP JUMPDEST DUP12 PUSH2 0xF86 JUMP JUMPDEST POP RETURNDATASIZE PUSH2 0x1244 JUMP JUMPDEST DUP10 MLOAD RETURNDATASIZE DUP8 DUP3 RETURNDATACOPY RETURNDATASIZE SWAP1 REVERT JUMPDEST DUP8 MLOAD PUSH4 0x18E0A15 PUSH1 0xE5 SHL DUP2 MSTORE DUP11 SWAP1 REVERT JUMPDEST DUP5 DUP1 REVERT JUMPDEST POP SWAP1 CALLVALUE PUSH2 0x450 JUMPI PUSH1 0x20 CALLDATASIZE PUSH1 0x3 NOT ADD SLT PUSH2 0x450 JUMPI DUP2 PUSH2 0x4E6 SWAP4 PUSH2 0x12AB SWAP3 CALLDATALOAD DUP2 MSTORE PUSH1 0x7 PUSH1 0x20 MSTORE KECCAK256 PUSH2 0x18A8 JUMP JUMPDEST SWAP1 MLOAD SWAP2 DUP3 SWAP2 PUSH1 0x20 DUP4 MSTORE PUSH1 0x20 DUP4 ADD SWAP1 PUSH2 0x194E JUMP JUMPDEST POP DUP3 SWAP1 CALLVALUE PUSH2 0x498 JUMPI DUP1 PUSH1 0x3 NOT CALLDATASIZE ADD SLT PUSH2 0x498 JUMPI PUSH2 0x12D9 PUSH2 0x1820 JUMP JUMPDEST SWAP1 CALLER PUSH1 0x1 PUSH1 0x1 PUSH1 0xA0 SHL SUB DUP4 AND SUB PUSH2 0x12F6 JUMPI POP PUSH2 0x67C SWAP2 SWAP3 CALLDATALOAD PUSH2 0x1AF9 JUMP JUMPDEST MLOAD PUSH4 0x334BD919 PUSH1 0xE1 SHL DUP2 MSTORE DUP4 SWAP1 REVERT JUMPDEST POP CALLVALUE PUSH2 0x450 JUMPI DUP1 PUSH1 0x3 NOT CALLDATASIZE ADD SLT PUSH2 0x450 JUMPI PUSH2 0x67C SWAP2 CALLDATALOAD PUSH2 0x1328 PUSH1 0x1 PUSH2 0x666 PUSH2 0x1820 JUMP JUMPDEST PUSH2 0x1A7B JUMP JUMPDEST POP POP CALLVALUE PUSH2 0x498 JUMPI PUSH1 0x20 CALLDATASIZE PUSH1 0x3 NOT ADD SLT PUSH2 0x498 JUMPI PUSH2 0x1348 PUSH2 0x19A1 JUMP JUMPDEST DUP1 CALLDATALOAD SWAP1 SSTORE DUP1 RETURN JUMPDEST POP SWAP1 CALLVALUE PUSH2 0x450 JUMPI PUSH1 0x20 CALLDATASIZE PUSH1 0x3 NOT ADD SLT PUSH2 0x450 JUMPI PUSH1 0xFF DUP3 PUSH1 0x20 SWAP5 PUSH2 0x137F SWAP4 CALLDATALOAD DUP2 MSTORE PUSH1 0x8 DUP7 MSTORE KECCAK256 SLOAD AND SWAP2 MLOAD DUP1 SWAP3 PUSH2 0x17FD JUMP JUMPDEST RETURN JUMPDEST POP SWAP1 CALLVALUE PUSH2 0x450 JUMPI PUSH1 0x20 CALLDATASIZE PUSH1 0x3 NOT ADD SLT PUSH2 0x450 JUMPI DUP2 PUSH1 0x20 SWAP4 PUSH1 0x1 SWAP3 CALLDATALOAD DUP2 MSTORE DUP1 DUP6 MSTORE KECCAK256 ADD SLOAD SWAP1 MLOAD SWAP1 DUP2 MSTORE RETURN JUMPDEST DUP4 DUP3 CALLVALUE PUSH2 0x498 JUMPI DUP2 PUSH1 0x3 NOT CALLDATASIZE ADD SLT PUSH2 0x498 JUMPI PUSH1 0x20 SWAP1 PUSH2 0xB20 PUSH2 0x2049 JUMP JUMPDEST POP SWAP1 CALLVALUE PUSH2 0x450 JUMPI PUSH1 0x20 CALLDATASIZE PUSH1 0x3 NOT ADD SLT PUSH2 0x450 JUMPI CALLDATALOAD DUP3 MSTORE PUSH1 0x6 PUSH1 0x20 SWAP1 DUP2 MSTORE SWAP2 DUP2 SWAP1 KECCAK256 SLOAD SWAP1 MLOAD PUSH1 0x1 PUSH1 0x1 PUSH1 0xA0 SHL SUB SWAP1 SWAP2 AND DUP2 MSTORE RETURN JUMPDEST POP DUP3 SWAP1 CALLVALUE PUSH2 0x498 JUMPI PUSH1 0x20 SWAP3 DUP4 PUSH1 0x3 NOT CALLDATASIZE ADD SLT PUSH2 0x450 JUMPI PUSH8 0xFFFFFFFFFFFFFFFF DUP2 CALLDATALOAD DUP2 DUP2 GT PUSH2 0x127D JUMPI PUSH2 0x1430 SWAP1 CALLDATASIZE SWAP1 DUP5 ADD PUSH2 0x17CA JUMP JUMPDEST SWAP3 SWAP1 PUSH2 0x143A PUSH2 0x1C4A JUMP JUMPDEST DUP5 MLOAD PUSH4 0x6A6B9A61 PUSH1 0xE0 SHL DUP2 MSTORE CALLER DUP4 DUP3 ADD MSTORE DUP8 DUP2 PUSH1 0x24 DUP2 PUSH32 0x0 PUSH1 0x1 PUSH1 0x1 PUSH1 0xA0 SHL SUB AND GAS STATICCALL SWAP1 DUP2 ISZERO PUSH2 0x1720 JUMPI DUP8 SWAP2 PUSH2 0x1703 JUMPI JUMPDEST POP ISZERO PUSH2 0x16F4 JUMPI PUSH1 0x18 SLOAD DUP1 ISZERO ISZERO SWAP1 DUP2 PUSH2 0x16DE JUMPI JUMPDEST POP PUSH2 0x16CF JUMPI PUSH1 0x5 SLOAD SWAP6 PUSH2 0x14AF DUP8 PUSH2 0x1B86 JUMP JUMPDEST PUSH1 0x5 SSTORE PUSH2 0x14BE PUSH1 0x2 SLOAD TIMESTAMP PUSH2 0x1BAB JUMP JUMPDEST SWAP3 DUP8 DUP3 MSTORE PUSH1 0x6 DUP10 MSTORE DUP7 DUP3 KECCAK256 SWAP1 PUSH12 0xFFFFFFFFFFFFFFFFFFFFFFFF PUSH1 0xA0 SHL SWAP2 CALLER DUP4 DUP3 SLOAD AND OR SWAP1 SSTORE PUSH1 0x7 DUP11 MSTORE DUP8 DUP4 KECCAK256 SWAP6 DUP8 GT PUSH2 0x16BC JUMPI POP DUP8 SWAP4 SWAP3 SWAP2 DUP8 SWAP2 PUSH2 0x150C DUP9 PUSH2 0x1506 DUP10 SLOAD PUSH2 0x1836 JUMP JUMPDEST DUP10 PUSH2 0x1BCF JUMP JUMPDEST DUP2 SWAP7 DUP9 PUSH1 0x1F DUP2 GT PUSH1 0x1 EQ PUSH2 0x162D JUMPI SWAP1 DUP4 SWAP3 SWAP2 PUSH1 0x0 DUP1 MLOAD PUSH1 0x20 PUSH2 0x2114 DUP4 CODECOPY DUP2 MLOAD SWAP2 MSTORE SWAP9 SWAP10 DUP9 SWAP7 SWAP6 SWAP2 PUSH2 0x1622 JUMPI JUMPDEST POP DUP11 PUSH1 0x1 SHL SWAP1 PUSH1 0x0 NOT DUP13 PUSH1 0x3 SHL SHR NOT AND OR SWAP1 SSTORE JUMPDEST DUP8 DUP3 MSTORE PUSH1 0x8 DUP13 MSTORE DUP3 DUP3 KECCAK256 PUSH1 0x3 PUSH1 0xFF NOT DUP3 SLOAD AND OR SWAP1 SSTORE PUSH1 0x9 DUP13 MSTORE DUP3 DUP3 KECCAK256 SWAP1 DUP2 SLOAD AND SWAP1 SSTORE PUSH1 0xA DUP12 MSTORE DUP1 DUP3 DUP2 KECCAK256 SSTORE PUSH1 0xB DUP12 MSTORE PUSH1 0x0 DUP3 DUP3 KECCAK256 DUP13 PUSH2 0x158B DUP3 SLOAD PUSH2 0x1836 JUMP JUMPDEST PUSH1 0x1F DUP2 GT PUSH2 0x1603 JUMPI JUMPDEST POP POP SSTORE DUP7 DUP2 MSTORE PUSH1 0xF DUP12 MSTORE TIMESTAMP DUP3 DUP3 KECCAK256 SSTORE PUSH1 0x10 DUP12 MSTORE KECCAK256 SSTORE TIMESTAMP PUSH1 0x18 SSTORE PUSH2 0x15BF DUP7 MLOAD SWAP3 DUP4 SWAP3 CALLER SWAP8 TIMESTAMP SWAP2 DUP6 PUSH2 0x1C14 JUMP JUMPDEST SUB SWAP1 LOG3 DUP2 PUSH32 0xE07E33B3979D2EE923E3A1494B77F27C97ACF236AE98804DE7E3846B899639B6 DUP5 DUP4 MLOAD TIMESTAMP DUP2 MSTORE LOG2 PUSH1 0x1 PUSH1 0x0 DUP1 MLOAD PUSH1 0x20 PUSH2 0x20F4 DUP4 CODECOPY DUP2 MLOAD SWAP2 MSTORE SSTORE MLOAD SWAP1 DUP2 MSTORE RETURN JUMPDEST PUSH1 0x1F PUSH2 0x161B SWAP3 DUP5 DUP8 MSTORE DUP7 KECCAK256 SWAP2 ADD PUSH1 0x5 SHR DUP2 ADD SWAP1 PUSH2 0x1BB8 JUMP JUMPDEST DUP13 DUP15 PUSH2 0x1594 JUMP JUMPDEST SWAP1 POP DUP7 ADD CALLDATALOAD DUP15 PUSH2 0x1538 JUMP JUMPDEST POP DUP1 DUP4 MSTORE DUP12 DUP4 KECCAK256 DUP13 SWAP9 DUP11 PUSH1 0x1F NOT DUP2 AND DUP7 JUMPDEST DUP2 DUP2 LT PUSH2 0x1690 JUMPI POP PUSH1 0x0 DUP1 MLOAD PUSH1 0x20 PUSH2 0x2114 DUP4 CODECOPY DUP2 MLOAD SWAP2 MSTORE SWAP11 SWAP12 POP SWAP1 DUP10 SWAP8 SWAP7 SWAP6 SWAP5 SWAP4 SWAP3 SWAP2 LT PUSH2 0x1676 JUMPI JUMPDEST POP POP PUSH1 0x1 DUP11 DUP2 SHL ADD SWAP1 SSTORE PUSH2 0x154C JUMP JUMPDEST DUP8 ADD CALLDATALOAD PUSH1 0x0 NOT PUSH1 0x3 DUP14 SWAP1 SHL PUSH1 0xF8 AND SHR NOT AND SWAP1 SSTORE DUP14 DUP1 PUSH2 0x1667 JUMP JUMPDEST SWAP6 SWAP9 SWAP11 POP SWAP4 SWAP7 POP POP SWAP4 SWAP7 SWAP9 PUSH1 0x1 DUP2 SWAP3 DUP7 DUP12 ADD CALLDATALOAD DUP2 SSTORE ADD SWAP5 ADD SWAP3 ADD SWAP3 DUP12 SWAP8 SWAP6 SWAP3 DUP11 DUP13 SWAP7 SWAP4 DUP16 SWAP12 SWAP10 SWAP7 PUSH2 0x163E JUMP JUMPDEST PUSH4 0x4E487B71 PUSH1 0xE0 SHL DUP4 MSTORE PUSH1 0x41 SWAP1 MSTORE PUSH1 0x24 DUP3 REVERT JUMPDEST POP DUP4 MLOAD PUSH4 0x16BBED0F PUSH1 0xE3 SHL DUP2 MSTORE REVERT JUMPDEST PUSH2 0x16EC SWAP2 POP PUSH1 0x17 SLOAD SWAP1 PUSH2 0x1BAB JUMP JUMPDEST TIMESTAMP LT DUP9 PUSH2 0x149D JUMP JUMPDEST POP DUP4 MLOAD PUSH4 0x9450A1D3 PUSH1 0xE0 SHL DUP2 MSTORE REVERT JUMPDEST PUSH2 0x171A SWAP2 POP DUP9 RETURNDATASIZE DUP11 GT PUSH2 0x125C JUMPI PUSH2 0x124E DUP2 DUP4 PUSH2 0x1870 JUMP JUMPDEST DUP9 PUSH2 0x148A JUMP JUMPDEST DUP7 MLOAD RETURNDATASIZE DUP10 DUP3 RETURNDATACOPY RETURNDATASIZE SWAP1 REVERT JUMPDEST POP SWAP1 CALLVALUE PUSH2 0x450 JUMPI PUSH1 0x20 CALLDATASIZE PUSH1 0x3 NOT ADD SLT PUSH2 0x450 JUMPI DUP2 PUSH1 0x20 SWAP4 PUSH1 0xFF SWAP3 CALLDATALOAD DUP2 MSTORE PUSH1 0x12 DUP6 MSTORE KECCAK256 SLOAD AND SWAP1 MLOAD SWAP1 ISZERO ISZERO DUP2 MSTORE RETURN JUMPDEST DUP4 DUP3 CALLVALUE PUSH2 0x498 JUMPI DUP2 PUSH1 0x3 NOT CALLDATASIZE ADD SLT PUSH2 0x498 JUMPI PUSH1 0x20 SWAP1 PUSH1 0x2 SLOAD SWAP1 MLOAD SWAP1 DUP2 MSTORE RETURN JUMPDEST DUP5 SWAP1 DUP5 CALLVALUE PUSH2 0x450 JUMPI PUSH1 0x20 CALLDATASIZE PUSH1 0x3 NOT ADD SLT PUSH2 0x450 JUMPI CALLDATALOAD PUSH4 0xFFFFFFFF PUSH1 0xE0 SHL DUP2 AND DUP1 SWAP2 SUB PUSH2 0x450 JUMPI PUSH1 0x20 SWAP3 POP PUSH4 0x7965DB0B PUSH1 0xE0 SHL DUP2 EQ SWAP1 DUP2 ISZERO PUSH2 0x17B9 JUMPI JUMPDEST POP ISZERO ISZERO DUP2 MSTORE RETURN JUMPDEST PUSH4 0x1FFC9A7 PUSH1 0xE0 SHL EQ SWAP1 POP DUP4 PUSH2 0x17B2 JUMP JUMPDEST SWAP2 DUP2 PUSH1 0x1F DUP5 ADD SLT ISZERO PUSH2 0x17F8 JUMPI DUP3 CALLDATALOAD SWAP2 PUSH8 0xFFFFFFFFFFFFFFFF DUP4 GT PUSH2 0x17F8 JUMPI PUSH1 0x20 DUP4 DUP2 DUP7 ADD SWAP6 ADD ADD GT PUSH2 0x17F8 JUMPI JUMP JUMPDEST PUSH1 0x0 DUP1 REVERT JUMPDEST SWAP1 PUSH1 0x5 DUP3 LT ISZERO PUSH2 0x180A JUMPI MSTORE JUMP JUMPDEST PUSH4 0x4E487B71 PUSH1 0xE0 SHL PUSH1 0x0 MSTORE PUSH1 0x21 PUSH1 0x4 MSTORE PUSH1 0x24 PUSH1 0x0 REVERT JUMPDEST PUSH1 0x24 CALLDATALOAD SWAP1 PUSH1 0x1 PUSH1 0x1 PUSH1 0xA0 SHL SUB DUP3 AND DUP3 SUB PUSH2 0x17F8 JUMPI JUMP JUMPDEST SWAP1 PUSH1 0x1 DUP3 DUP2 SHR SWAP3 AND DUP1 ISZERO PUSH2 0x1866 JUMPI JUMPDEST PUSH1 0x20 DUP4 LT EQ PUSH2 0x1850 JUMPI JUMP JUMPDEST PUSH4 0x4E487B71 PUSH1 0xE0 SHL PUSH1 0x0 MSTORE PUSH1 0x22 PUSH1 0x4 MSTORE PUSH1 0x24 PUSH1 0x0 REVERT JUMPDEST SWAP2 PUSH1 0x7F AND SWAP2 PUSH2 0x1845 JUMP JUMPDEST SWAP1 PUSH1 0x1F DUP1 NOT SWAP2 ADD AND DUP2 ADD SWAP1 DUP2 LT PUSH8 0xFFFFFFFFFFFFFFFF DUP3 GT OR PUSH2 0x1892 JUMPI PUSH1 0x40 MSTORE JUMP JUMPDEST PUSH4 0x4E487B71 PUSH1 0xE0 SHL PUSH1 0x0 MSTORE PUSH1 0x41 PUSH1 0x4 MSTORE PUSH1 0x24 PUSH1 0x0 REVERT JUMPDEST SWAP1 PUSH1 0x40 MLOAD SWAP2 DUP3 PUSH1 0x0 DUP3 SLOAD SWAP3 PUSH2 0x18BC DUP5 PUSH2 0x1836 JUMP JUMPDEST SWAP1 DUP2 DUP5 MSTORE PUSH1 0x1 SWAP5 DUP6 DUP2 AND SWAP1 DUP2 PUSH1 0x0 EQ PUSH2 0x192B JUMPI POP PUSH1 0x1 EQ PUSH2 0x18E8 JUMPI JUMPDEST POP POP PUSH2 0x18E6 SWAP3 POP SUB DUP4 PUSH2 0x1870 JUMP JUMPDEST JUMP JUMPDEST SWAP1 SWAP4 SWAP2 POP PUSH1 0x0 MSTORE PUSH1 0x20 SWAP1 DUP2 PUSH1 0x0 KECCAK256 SWAP4 PUSH1 0x0 SWAP2 JUMPDEST DUP2 DUP4 LT PUSH2 0x1913 JUMPI POP POP PUSH2 0x18E6 SWAP4 POP DUP3 ADD ADD CODESIZE DUP1 PUSH2 0x18D8 JUMP JUMPDEST DUP6 SLOAD DUP9 DUP5 ADD DUP6 ADD MSTORE SWAP5 DUP6 ADD SWAP5 DUP8 SWAP5 POP SWAP2 DUP4 ADD SWAP2 PUSH2 0x18FB JUMP JUMPDEST SWAP2 POP POP PUSH2 0x18E6 SWAP5 POP PUSH1 0x20 SWAP3 POP PUSH1 0xFF NOT AND DUP3 DUP5 ADD MSTORE ISZERO ISZERO PUSH1 0x5 SHL DUP3 ADD ADD CODESIZE DUP1 PUSH2 0x18D8 JUMP JUMPDEST SWAP2 SWAP1 DUP3 MLOAD SWAP3 DUP4 DUP3 MSTORE PUSH1 0x0 JUMPDEST DUP5 DUP2 LT PUSH2 0x197A JUMPI POP POP DUP3 PUSH1 0x0 PUSH1 0x20 DUP1 SWAP5 SWAP6 DUP5 ADD ADD MSTORE PUSH1 0x1F DUP1 NOT SWAP2 ADD AND ADD ADD SWAP1 JUMP JUMPDEST PUSH1 0x20 DUP2 DUP4 ADD DUP2 ADD MLOAD DUP5 DUP4 ADD DUP3 ADD MSTORE ADD PUSH2 0x1959 JUMP JUMPDEST SWAP2 SWAP1 PUSH1 0x20 DUP4 ADD SWAP3 PUSH1 0x3 DUP3 LT ISZERO PUSH2 0x180A JUMPI MSTORE JUMP JUMPDEST CALLER PUSH1 0x0 SWAP1 DUP2 MSTORE PUSH32 0xAD3228B676F7D3CD4284A5443F17F1962B36E491B30A40B2405849E597BA5FB5 PUSH1 0x20 MSTORE PUSH1 0x40 DUP2 KECCAK256 SLOAD PUSH1 0xFF AND ISZERO PUSH2 0x19DB JUMPI POP JUMP JUMPDEST PUSH1 0x44 SWAP1 PUSH1 0x40 MLOAD SWAP1 PUSH4 0xE2517D3F PUSH1 0xE0 SHL DUP3 MSTORE CALLER PUSH1 0x4 DUP4 ADD MSTORE PUSH1 0x24 DUP3 ADD MSTORE REVERT JUMPDEST CALLER PUSH1 0x0 SWAP1 DUP2 MSTORE PUSH32 0xF044B3C47881E3AE9E51C59C873357A894CD00624795B43E885F3238116AFA31 PUSH1 0x20 MSTORE PUSH1 0x40 SWAP1 KECCAK256 SLOAD PUSH32 0xB02C64F0C28BE59776465B163FA919B01DA504B3A5DDA0EE188FA6D028017EC3 SWAP1 PUSH1 0xFF AND ISZERO PUSH2 0x19DB JUMPI POP JUMP JUMPDEST DUP1 PUSH1 0x0 MSTORE PUSH1 0x0 PUSH1 0x20 MSTORE PUSH1 0x40 PUSH1 0x0 KECCAK256 CALLER PUSH1 0x0 MSTORE PUSH1 0x20 MSTORE PUSH1 0xFF PUSH1 0x40 PUSH1 0x0 KECCAK256 SLOAD AND ISZERO PUSH2 0x19DB JUMPI POP JUMP JUMPDEST SWAP1 PUSH1 0x0 SWAP2 DUP1 DUP4 MSTORE DUP3 PUSH1 0x20 MSTORE PUSH1 0x40 DUP4 KECCAK256 SWAP2 PUSH1 0x1 DUP1 PUSH1 0xA0 SHL SUB AND SWAP2 DUP3 DUP5 MSTORE PUSH1 0x20 MSTORE PUSH1 0xFF PUSH1 0x40 DUP5 KECCAK256 SLOAD AND ISZERO PUSH1 0x0 EQ PUSH2 0x1AF4 JUMPI DUP1 DUP4 MSTORE DUP3 PUSH1 0x20 MSTORE PUSH1 0x40 DUP4 KECCAK256 DUP3 DUP5 MSTORE PUSH1 0x20 MSTORE PUSH1 0x40 DUP4 KECCAK256 PUSH1 0x1 PUSH1 0xFF NOT DUP3 SLOAD AND OR SWAP1 SSTORE PUSH32 0x2F8788117E7EFF1D82E926EC794901D17C78024A50270940304540A733656F0D CALLER SWAP4 DUP1 LOG4 PUSH1 0x1 SWAP1 JUMP JUMPDEST POP POP SWAP1 JUMP JUMPDEST SWAP1 PUSH1 0x0 SWAP2 DUP1 DUP4 MSTORE DUP3 PUSH1 0x20 MSTORE PUSH1 0x40 DUP4 KECCAK256 SWAP2 PUSH1 0x1 DUP1 PUSH1 0xA0 SHL SUB AND SWAP2 DUP3 DUP5 MSTORE PUSH1 0x20 MSTORE PUSH1 0xFF PUSH1 0x40 DUP5 KECCAK256 SLOAD AND PUSH1 0x0 EQ PUSH2 0x1AF4 JUMPI DUP1 DUP4 MSTORE DUP3 PUSH1 0x20 MSTORE PUSH1 0x40 DUP4 KECCAK256 DUP3 DUP5 MSTORE PUSH1 0x20 MSTORE PUSH1 0x40 DUP4 KECCAK256 PUSH1 0xFF NOT DUP2 SLOAD AND SWAP1 SSTORE PUSH32 0xF6391F5C32D9C69D2A47EA670B442974B53935D1EDC7FD64EB21E047A839171B CALLER SWAP4 DUP1 LOG4 PUSH1 0x1 SWAP1 JUMP JUMPDEST SWAP1 DUP2 PUSH1 0x20 SWAP2 SUB SLT PUSH2 0x17F8 JUMPI MLOAD DUP1 ISZERO ISZERO DUP2 SUB PUSH2 0x17F8 JUMPI SWAP1 JUMP JUMPDEST PUSH1 0x0 NOT DUP2 EQ PUSH2 0x1B95 JUMPI PUSH1 0x1 ADD SWAP1 JUMP JUMPDEST PUSH4 0x4E487B71 PUSH1 0xE0 SHL PUSH1 0x0 MSTORE PUSH1 0x11 PUSH1 0x4 MSTORE PUSH1 0x24 PUSH1 0x0 REVERT JUMPDEST SWAP2 SWAP1 DUP3 ADD DUP1 SWAP3 GT PUSH2 0x1B95 JUMPI JUMP JUMPDEST DUP2 DUP2 LT PUSH2 0x1BC3 JUMPI POP POP JUMP JUMPDEST PUSH1 0x0 DUP2 SSTORE PUSH1 0x1 ADD PUSH2 0x1BB8 JUMP JUMPDEST SWAP2 SWAP1 PUSH1 0x1F DUP2 GT PUSH2 0x1BDE JUMPI POP POP POP JUMP JUMPDEST PUSH2 0x18E6 SWAP3 PUSH1 0x0 MSTORE PUSH1 0x20 PUSH1 0x0 KECCAK256 SWAP1 PUSH1 0x20 PUSH1 0x1F DUP5 ADD PUSH1 0x5 SHR DUP4 ADD SWAP4 LT PUSH2 0x1C0A JUMPI JUMPDEST PUSH1 0x1F ADD PUSH1 0x5 SHR ADD SWAP1 PUSH2 0x1BB8 JUMP JUMPDEST SWAP1 SWAP2 POP DUP2 SWAP1 PUSH2 0x1BFD JUMP JUMPDEST SWAP1 DUP3 PUSH1 0x40 SWAP4 PUSH1 0x80 SWAP3 SWAP8 SWAP7 SWAP6 SWAP8 PUSH1 0x60 DUP6 MSTORE DUP2 PUSH1 0x60 DUP7 ADD MSTORE DUP4 DUP6 ADD CALLDATACOPY PUSH1 0x0 DUP3 DUP3 DUP6 ADD ADD MSTORE PUSH1 0x1F DUP1 NOT SWAP2 ADD AND DUP3 ADD ADD SWAP5 PUSH1 0x20 DUP3 ADD MSTORE ADD MSTORE JUMP JUMPDEST PUSH1 0x0 DUP1 MLOAD PUSH1 0x20 PUSH2 0x20F4 DUP4 CODECOPY DUP2 MLOAD SWAP2 MSTORE PUSH1 0x2 DUP2 SLOAD EQ PUSH2 0x1C68 JUMPI PUSH1 0x2 SWAP1 SSTORE JUMP JUMPDEST PUSH1 0x40 MLOAD PUSH4 0x3EE5AEB5 PUSH1 0xE0 SHL DUP2 MSTORE PUSH1 0x4 SWAP1 REVERT JUMPDEST SWAP2 SWAP1 PUSH2 0x1C85 DUP4 PUSH2 0x1F15 JUMP JUMPDEST SWAP3 PUSH1 0x9 DUP5 LT ISZERO PUSH2 0x180A JUMPI PUSH1 0x1 DUP1 SWAP5 SUB PUSH2 0x1EB2 JUMPI PUSH1 0x0 DUP2 DUP2 MSTORE PUSH1 0x20 SWAP5 PUSH1 0x15 DUP7 MSTORE PUSH1 0x40 SWAP2 DUP3 DUP2 KECCAK256 CALLER DUP3 MSTORE DUP8 MSTORE PUSH1 0xFF DUP4 DUP3 KECCAK256 SLOAD AND PUSH2 0x1EA1 JUMPI DUP3 MLOAD PUSH4 0x6A6B9A61 PUSH1 0xE0 SHL DUP2 MSTORE CALLER PUSH1 0x4 DUP1 DUP4 ADD SWAP2 SWAP1 SWAP2 MSTORE SWAP8 SWAP1 DUP2 DUP2 PUSH1 0x24 DUP2 PUSH32 0x0 PUSH1 0x1 PUSH1 0x1 PUSH1 0xA0 SHL SUB AND GAS STATICCALL SWAP1 DUP2 ISZERO PUSH2 0x1E97 JUMPI DUP4 SWAP2 PUSH2 0x1E7A JUMPI JUMPDEST POP ISZERO PUSH2 0x1E6A JUMPI DUP5 DUP3 MSTORE PUSH1 0x15 DUP2 MSTORE DUP4 DUP3 KECCAK256 CALLER DUP4 MSTORE DUP2 MSTORE DUP4 DUP3 KECCAK256 PUSH1 0xFF NOT SWAP1 DUP5 DUP3 DUP3 SLOAD AND OR SWAP1 SSTORE DUP6 DUP4 MSTORE PUSH1 0x16 DUP3 MSTORE DUP5 DUP4 KECCAK256 CALLER DUP5 MSTORE DUP3 MSTORE DUP5 DUP4 KECCAK256 SWAP1 PUSH1 0x3 DUP9 LT ISZERO PUSH2 0x1E57 JUMPI DUP2 SLOAD AND PUSH1 0xFF DUP9 AND OR SWAP1 SSTORE DUP3 DUP7 EQ PUSH1 0x0 EQ PUSH2 0x1DCA JUMPI PUSH1 0xC SWAP1 DUP6 DUP4 MSTORE MSTORE DUP3 DUP2 KECCAK256 SWAP1 DUP2 SLOAD SWAP3 DUP4 ADD DUP1 SWAP4 GT PUSH2 0x1DB7 JUMPI POP PUSH32 0xEBA4866100B822F0F391E610E7EDFAB790B9E8766C0012733C26B2F1858E8DD7 SWAP4 SWAP5 SWAP6 SWAP7 POP SSTORE JUMPDEST MLOAD DUP1 PUSH2 0x1DB2 CALLER SWAP6 DUP3 PUSH2 0x198E JUMP JUMPDEST SUB SWAP1 LOG3 JUMP JUMPDEST PUSH4 0x4E487B71 PUSH1 0xE0 SHL DUP2 MSTORE PUSH1 0x11 DUP9 MSTORE PUSH1 0x24 SWAP1 REVERT JUMPDEST DUP6 PUSH2 0x1E13 JUMPI PUSH1 0xD SWAP1 DUP6 DUP4 MSTORE MSTORE DUP3 DUP2 KECCAK256 SWAP1 DUP2 SLOAD SWAP3 DUP4 ADD DUP1 SWAP4 GT PUSH2 0x1DB7 JUMPI POP PUSH32 0xEBA4866100B822F0F391E610E7EDFAB790B9E8766C0012733C26B2F1858E8DD7 SWAP4 SWAP5 SWAP6 SWAP7 POP SSTORE PUSH2 0x1DA5 JUMP JUMPDEST PUSH1 0xE SWAP1 DUP6 DUP4 MSTORE MSTORE DUP3 DUP2 KECCAK256 SWAP1 DUP2 SLOAD SWAP3 DUP4 ADD DUP1 SWAP4 GT PUSH2 0x1DB7 JUMPI POP PUSH32 0xEBA4866100B822F0F391E610E7EDFAB790B9E8766C0012733C26B2F1858E8DD7 SWAP4 SWAP5 SWAP6 SWAP7 POP SSTORE PUSH2 0x1DA5 JUMP JUMPDEST PUSH4 0x4E487B71 PUSH1 0xE0 SHL DUP5 MSTORE PUSH1 0x21 DUP11 MSTORE PUSH1 0x24 DUP5 REVERT JUMPDEST DUP4 MLOAD PUSH4 0x9450A1D3 PUSH1 0xE0 SHL DUP2 MSTORE DUP9 SWAP1 REVERT JUMPDEST PUSH2 0x1E91 SWAP2 POP DUP3 RETURNDATASIZE DUP5 GT PUSH2 0x125C JUMPI PUSH2 0x124E DUP2 DUP4 PUSH2 0x1870 JUMP JUMPDEST CODESIZE PUSH2 0x1D11 JUMP JUMPDEST DUP6 MLOAD RETURNDATASIZE DUP6 DUP3 RETURNDATACOPY RETURNDATASIZE SWAP1 REVERT JUMPDEST DUP3 MLOAD PUSH4 0x1B19DAF5 PUSH1 0xE2 SHL DUP2 MSTORE PUSH1 0x4 SWAP1 REVERT JUMPDEST PUSH1 0x40 MLOAD PUSH4 0xB6436B95 PUSH1 0xE0 SHL DUP2 MSTORE PUSH1 0x4 SWAP1 REVERT JUMPDEST PUSH1 0x18 SLOAD DUP1 ISZERO PUSH2 0x1EDF JUMPI PUSH1 0x17 SLOAD PUSH2 0x1ED9 SWAP2 PUSH2 0x1BAB JUMP JUMPDEST TIMESTAMP LT ISZERO SWAP1 JUMP JUMPDEST POP PUSH1 0x1 SWAP1 JUMP JUMPDEST PUSH1 0x18 SLOAD DUP1 ISZERO PUSH2 0x1F0F JUMPI PUSH1 0x17 SLOAD PUSH2 0x1EFA SWAP2 PUSH2 0x1BAB JUMP JUMPDEST DUP1 TIMESTAMP LT ISZERO PUSH2 0x1F0F JUMPI TIMESTAMP DUP2 SUB SWAP1 DUP2 GT PUSH2 0x1B95 JUMPI SWAP1 JUMP JUMPDEST POP PUSH1 0x0 SWAP1 JUMP JUMPDEST PUSH1 0x0 SWAP1 DUP1 DUP3 MSTORE PUSH1 0x20 PUSH1 0x13 DUP2 MSTORE PUSH1 0x40 SWAP2 PUSH1 0xFF DUP4 DUP6 KECCAK256 SLOAD AND PUSH2 0x2040 JUMPI PUSH1 0x14 DUP3 MSTORE PUSH1 0xFF DUP4 DUP6 KECCAK256 SLOAD AND PUSH2 0x2037 JUMPI PUSH1 0x12 DUP3 MSTORE PUSH1 0xFF DUP4 DUP6 KECCAK256 SLOAD AND PUSH2 0x202E JUMPI PUSH1 0xF DUP3 MSTORE DUP3 DUP5 KECCAK256 SLOAD TIMESTAMP LT PUSH2 0x2028 JUMPI PUSH1 0x10 DUP3 MSTORE DUP3 DUP5 KECCAK256 SLOAD TIMESTAMP LT PUSH2 0x201F JUMPI PUSH1 0xC DUP3 MSTORE PUSH2 0x1F96 PUSH2 0x1F85 DUP5 DUP7 KECCAK256 SLOAD PUSH1 0xD DUP6 MSTORE DUP6 DUP8 KECCAK256 SLOAD SWAP1 PUSH2 0x1BAB JUMP JUMPDEST DUP3 DUP7 MSTORE PUSH1 0xE DUP5 MSTORE DUP5 DUP7 KECCAK256 SLOAD SWAP1 PUSH2 0x1BAB JUMP JUMPDEST PUSH2 0x1F9E PUSH2 0x2049 JUMP JUMPDEST GT PUSH2 0x2016 JUMPI DUP4 MSTORE PUSH1 0xC DUP2 MSTORE DUP2 DUP4 KECCAK256 SLOAD PUSH1 0xD DUP3 MSTORE DUP3 DUP5 KECCAK256 SLOAD LT ISZERO PUSH2 0x200E JUMPI PUSH1 0x11 SWAP1 MSTORE DUP2 KECCAK256 SLOAD DUP1 ISZERO PUSH2 0x2007 JUMPI PUSH1 0x4 SLOAD PUSH2 0x1FD4 SWAP2 PUSH2 0x1BAB JUMP JUMPDEST SWAP1 PUSH3 0x127500 DUP3 ADD DUP1 SWAP3 GT PUSH2 0x1FF3 JUMPI POP TIMESTAMP GT PUSH2 0x1FEE JUMPI PUSH1 0x5 SWAP1 JUMP JUMPDEST PUSH1 0x6 SWAP1 JUMP JUMPDEST PUSH4 0x4E487B71 PUSH1 0xE0 SHL DUP2 MSTORE PUSH1 0x11 PUSH1 0x4 MSTORE PUSH1 0x24 SWAP1 REVERT JUMPDEST POP POP PUSH1 0x4 SWAP1 JUMP JUMPDEST POP POP POP PUSH1 0x3 SWAP1 JUMP JUMPDEST POP POP POP POP PUSH1 0x3 SWAP1 JUMP JUMPDEST POP POP POP POP PUSH1 0x1 SWAP1 JUMP JUMPDEST POP POP POP SWAP1 JUMP JUMPDEST POP POP POP POP PUSH1 0x7 SWAP1 JUMP JUMPDEST POP POP POP POP PUSH1 0x8 SWAP1 JUMP JUMPDEST POP POP POP POP PUSH1 0x2 SWAP1 JUMP JUMPDEST PUSH1 0x40 MLOAD PUSH4 0x997072F7 PUSH1 0xE0 SHL DUP2 MSTORE PUSH1 0x20 DUP2 PUSH1 0x4 DUP2 PUSH32 0x0 PUSH1 0x1 PUSH1 0x1 PUSH1 0xA0 SHL SUB AND GAS STATICCALL SWAP1 DUP2 ISZERO PUSH2 0x20E7 JUMPI PUSH1 0x0 SWAP2 PUSH2 0x20B3 JUMPI JUMPDEST POP PUSH1 0x3 SLOAD SWAP1 DUP2 DUP2 MUL SWAP2 DUP2 DUP4 DIV EQ SWAP1 ISZERO OR ISZERO PUSH2 0x1B95 JUMPI PUSH1 0x64 SWAP1 DIV SWAP1 JUMP JUMPDEST SWAP1 PUSH1 0x20 DUP3 RETURNDATASIZE DUP3 GT PUSH2 0x20DF JUMPI JUMPDEST DUP2 PUSH2 0x20CC PUSH1 0x20 SWAP4 DUP4 PUSH2 0x1870 JUMP JUMPDEST DUP2 ADD SUB SLT PUSH2 0x20DC JUMPI POP MLOAD CODESIZE PUSH2 0x2097 JUMP JUMPDEST DUP1 REVERT JUMPDEST RETURNDATASIZE SWAP2 POP PUSH2 0x20BF JUMP JUMPDEST PUSH1 0x40 MLOAD RETURNDATASIZE PUSH1 0x0 DUP3 RETURNDATACOPY RETURNDATASIZE SWAP1 REVERT INVALID SWAP12 PUSH24 0x9B17422D0DF92223018B32B4D1FA46E071723D6817E2486D STOP EXTCODESIZE 0xEC 0xC5 PUSH0 STOP PUSH13 0x98A8C940418B35614F0CD02412 0xD5 0xC9 PUSH1 0x6F 0xAF DELEGATECALL PUSH21 0xCBB6CDD6640BA5D1A9F06BA2646970667358221220 SWAP10 PUSH13 0x190CC547F0BCB2F065FF6C702B 0xB2 0xDE 0xC6 DUP12 LOG4 JUMPI GASLIMIT PUSH19 0xAED0A8FE5F0EF2648D64736F6C634300081400 CALLER 0x2F DUP8 DUP9 GT PUSH31 0x7EFF1D82E926EC794901D17C78024A50270940304540A733656F0D00000000 "},"methodIdentifiers":{"DEFAULT_ADMIN_ROLE()":"a217fddf","PENGAWAS_ROLE()":"d3bc2b8d","QUORUM_DENOMINATOR()":"6fef541a","cancel(uint256)":"40e58ee5","castVote(uint256,uint8)":"56781388","castVoteWithReason(uint256,uint8,string)":"7b3c71d3","createProposal(string,uint8,address,uint256,bytes)":"3a29f859","execute(uint256)":"fe0d94c1","executionTimelock()":"77806118","getProposal(uint256)":"c7f758a8","getRoleAdmin(bytes32)":"248a9ca3","grantRole(bytes32,address)":"2f2ff15d","hasRole(bytes32,address)":"91d14854","hasVoted(uint256,address)":"43859632","isRATDue()":"4cd2fc40","lastRATTime()":"bb0fd757","pause()":"8456cb59","paused()":"5c975abb","pengawasPause()":"eb580dfe","proposalAbstainVotes(uint256)":"bd468fe6","proposalAgainstVotes(uint256)":"a7e22860","proposalCallData(uint256)":"abddc327","proposalCanceled(uint256)":"6e18113c","proposalCount()":"da35c664","proposalDescription(uint256)":"3830fdea","proposalEndTime(uint256)":"d00a9f06","proposalExecuted(uint256)":"103616e8","proposalForVotes(uint256)":"c8bb4dd5","proposalProposer(uint256)":"143489d0","proposalQueuedTime(uint256)":"9c92fbc3","proposalStartTime(uint256)":"94616451","proposalTarget(uint256)":"5dc4d8a6","proposalType(uint256)":"2a09c772","proposalValue(uint256)":"ca2525f6","proposalVetoed(uint256)":"bd6af848","queue(uint256)":"ddf0b009","quorum()":"1703a018","quorumNumerator()":"a7713a70","ratPeriod()":"a8f6bc2d","renounceRole(bytes32,address)":"36568abe","revokeRole(bytes32,address)":"d547741f","scheduleAnnualRAT(string)":"13e11292","setExecutionTimelock(uint256)":"2ce80915","setQuorumNumerator(uint256)":"737594ce","setVotingPeriod(uint256)":"ea0217cf","state(uint256)":"3e4f49e6","supportsInterface(bytes4)":"01ffc9a7","timeUntilNextRAT()":"78223af3","token()":"fc0c546a","unpause()":"3f4ba83a","vaultAddress()":"430bf08a","vetoProposal(uint256)":"6f65108c","voteChoice(uint256,address)":"fb468855","votingPeriod()":"02a251a3"}}}}}