{"contracts/LakomiToken.sol":{"LakomiToken":{"abi":[{"inputs":[],"stateMutability":"nonpayable","type":"constructor"},{"inputs":[],"name":"AccessControlBadConfirmation","type":"error"},{"inputs":[{"internalType":"address","name":"account","type":"address"},{"internalType":"bytes32","name":"neededRole","type":"bytes32"}],"name":"AccessControlUnauthorizedAccount","type":"error"},{"inputs":[{"internalType":"address","name":"spender","type":"address"},{"internalType":"uint256","name":"allowance","type":"uint256"},{"internalType":"uint256","name":"needed","type":"uint256"}],"name":"ERC20InsufficientAllowance","type":"error"},{"inputs":[{"internalType":"address","name":"sender","type":"address"},{"internalType":"uint256","name":"balance","type":"uint256"},{"internalType":"uint256","name":"needed","type":"uint256"}],"name":"ERC20InsufficientBalance","type":"error"},{"inputs":[{"internalType":"address","name":"approver","type":"address"}],"name":"ERC20InvalidApprover","type":"error"},{"inputs":[{"internalType":"address","name":"receiver","type":"address"}],"name":"ERC20InvalidReceiver","type":"error"},{"inputs":[{"internalType":"address","name":"sender","type":"address"}],"name":"ERC20InvalidSender","type":"error"},{"inputs":[{"internalType":"address","name":"spender","type":"address"}],"name":"ERC20InvalidSpender","type":"error"},{"inputs":[],"name":"LakomiToken__AlreadySet","type":"error"},{"inputs":[],"name":"LakomiToken__ExceedsMaxSupply","type":"error"},{"inputs":[],"name":"LakomiToken__InsufficientBalance","type":"error"},{"inputs":[],"name":"LakomiToken__InsufficientUnlockedTokens","type":"error"},{"inputs":[],"name":"LakomiToken__NothingToUnlock","type":"error"},{"inputs":[],"name":"LakomiToken__TransfersDisabled","type":"error"},{"inputs":[],"name":"LakomiToken__ZeroAddress","type":"error"},{"inputs":[],"name":"ReentrancyGuardReentrantCall","type":"error"},{"anonymous":false,"inputs":[{"indexed":true,"internalType":"address","name":"owner","type":"address"},{"indexed":true,"internalType":"address","name":"spender","type":"address"},{"indexed":false,"internalType":"uint256","name":"value","type":"uint256"}],"name":"Approval","type":"event"},{"anonymous":false,"inputs":[{"indexed":true,"internalType":"address","name":"govern","type":"address"}],"name":"GovernSet","type":"event"},{"anonymous":false,"inputs":[{"indexed":true,"internalType":"address","name":"loans","type":"address"}],"name":"LoansSet","type":"event"},{"anonymous":false,"inputs":[{"indexed":true,"internalType":"address","name":"member","type":"address"},{"indexed":false,"internalType":"uint256","name":"timestamp","type":"uint256"}],"name":"MemberRegistered","type":"event"},{"anonymous":false,"inputs":[{"indexed":true,"internalType":"address","name":"member","type":"address"},{"indexed":false,"internalType":"uint256","name":"timestamp","type":"uint256"}],"name":"MembershipRevoked","type":"event"},{"anonymous":false,"inputs":[{"indexed":true,"internalType":"bytes32","name":"role","type":"bytes32"},{"indexed":true,"internalType":"bytes32","name":"previousAdminRole","type":"bytes32"},{"indexed":true,"internalType":"bytes32","name":"newAdminRole","type":"bytes32"}],"name":"RoleAdminChanged","type":"event"},{"anonymous":false,"inputs":[{"indexed":true,"internalType":"bytes32","name":"role","type":"bytes32"},{"indexed":true,"internalType":"address","name":"account","type":"address"},{"indexed":true,"internalType":"address","name":"sender","type":"address"}],"name":"RoleGranted","type":"event"},{"anonymous":false,"inputs":[{"indexed":true,"internalType":"bytes32","name":"role","type":"bytes32"},{"indexed":true,"internalType":"address","name":"account","type":"address"},{"indexed":true,"internalType":"address","name":"sender","type":"address"}],"name":"RoleRevoked","type":"event"},{"anonymous":false,"inputs":[{"indexed":true,"internalType":"address","name":"from","type":"address"},{"indexed":false,"internalType":"uint256","name":"amount","type":"uint256"},{"indexed":false,"internalType":"uint256","name":"timestamp","type":"uint256"}],"name":"TokensBurned","type":"event"},{"anonymous":false,"inputs":[{"indexed":true,"internalType":"address","name":"account","type":"address"},{"indexed":false,"internalType":"uint256","name":"amount","type":"uint256"},{"indexed":false,"internalType":"uint256","name":"timestamp","type":"uint256"}],"name":"TokensLocked","type":"event"},{"anonymous":false,"inputs":[{"indexed":true,"internalType":"address","name":"to","type":"address"},{"indexed":false,"internalType":"uint256","name":"amount","type":"uint256"},{"indexed":false,"internalType":"uint256","name":"timestamp","type":"uint256"}],"name":"TokensMinted","type":"event"},{"anonymous":false,"inputs":[{"indexed":true,"internalType":"address","name":"account","type":"address"},{"indexed":false,"internalType":"uint256","name":"amount","type":"uint256"},{"indexed":false,"internalType":"uint256","name":"timestamp","type":"uint256"}],"name":"TokensUnlocked","type":"event"},{"anonymous":false,"inputs":[{"indexed":true,"internalType":"address","name":"from","type":"address"},{"indexed":true,"internalType":"address","name":"to","type":"address"},{"indexed":false,"internalType":"uint256","name":"value","type":"uint256"}],"name":"Transfer","type":"event"},{"anonymous":false,"inputs":[{"indexed":false,"internalType":"bool","name":"enabled","type":"bool"},{"indexed":true,"internalType":"address","name":"by","type":"address"}],"name":"TransfersToggled","type":"event"},{"anonymous":false,"inputs":[{"indexed":true,"internalType":"address","name":"vault","type":"address"}],"name":"VaultSet","type":"event"},{"inputs":[],"name":"BURNER_ROLE","outputs":[{"internalType":"bytes32","name":"","type":"bytes32"}],"stateMutability":"view","type":"function"},{"inputs":[],"name":"DEFAULT_ADMIN_ROLE","outputs":[{"internalType":"bytes32","name":"","type":"bytes32"}],"stateMutability":"view","type":"function"},{"inputs":[],"name":"DEFAULT_MINT_AMOUNT","outputs":[{"internalType":"uint256","name":"","type":"uint256"}],"stateMutability":"view","type":"function"},{"inputs":[],"name":"LOCKER_ROLE","outputs":[{"internalType":"bytes32","name":"","type":"bytes32"}],"stateMutability":"view","type":"function"},{"inputs":[],"name":"MAX_SUPPLY","outputs":[{"internalType":"uint256","name":"","type":"uint256"}],"stateMutability":"view","type":"function"},{"inputs":[],"name":"MEMBERSHIP_ROLE","outputs":[{"internalType":"bytes32","name":"","type":"bytes32"}],"stateMutability":"view","type":"function"},{"inputs":[],"name":"MINTER_ROLE","outputs":[{"internalType":"bytes32","name":"","type":"bytes32"}],"stateMutability":"view","type":"function"},{"inputs":[{"internalType":"address","name":"owner","type":"address"},{"internalType":"address","name":"spender","type":"address"}],"name":"allowance","outputs":[{"internalType":"uint256","name":"","type":"uint256"}],"stateMutability":"view","type":"function"},{"inputs":[{"internalType":"address","name":"spender","type":"address"},{"internalType":"uint256","name":"value","type":"uint256"}],"name":"approve","outputs":[{"internalType":"bool","name":"","type":"bool"}],"stateMutability":"nonpayable","type":"function"},{"inputs":[{"internalType":"address","name":"account","type":"address"}],"name":"balanceOf","outputs":[{"internalType":"uint256","name":"","type":"uint256"}],"stateMutability":"view","type":"function"},{"inputs":[{"internalType":"address","name":"from","type":"address"},{"internalType":"uint256","name":"amount","type":"uint256"}],"name":"burn","outputs":[],"stateMutability":"nonpayable","type":"function"},{"inputs":[],"name":"decimals","outputs":[{"internalType":"uint8","name":"","type":"uint8"}],"stateMutability":"view","type":"function"},{"inputs":[{"internalType":"address","name":"account","type":"address"}],"name":"getAvailableBalance","outputs":[{"internalType":"uint256","name":"","type":"uint256"}],"stateMutability":"view","type":"function"},{"inputs":[{"internalType":"address","name":"account","type":"address"}],"name":"getLockedBalance","outputs":[{"internalType":"uint256","name":"","type":"uint256"}],"stateMutability":"view","type":"function"},{"inputs":[],"name":"getMemberCount","outputs":[{"internalType":"uint256","name":"","type":"uint256"}],"stateMutability":"view","type":"function"},{"inputs":[{"internalType":"bytes32","name":"role","type":"bytes32"}],"name":"getRoleAdmin","outputs":[{"internalType":"bytes32","name":"","type":"bytes32"}],"stateMutability":"view","type":"function"},{"inputs":[{"internalType":"address","name":"account","type":"address"}],"name":"getVotingPower","outputs":[{"internalType":"uint256","name":"","type":"uint256"}],"stateMutability":"view","type":"function"},{"inputs":[{"internalType":"bytes32","name":"role","type":"bytes32"},{"internalType":"address","name":"account","type":"address"}],"name":"grantRole","outputs":[],"stateMutability":"nonpayable","type":"function"},{"inputs":[{"internalType":"bytes32","name":"role","type":"bytes32"},{"internalType":"address","name":"account","type":"address"}],"name":"hasRole","outputs":[{"internalType":"bool","name":"","type":"bool"}],"stateMutability":"view","type":"function"},{"inputs":[{"internalType":"address","name":"","type":"address"}],"name":"isRegisteredMember","outputs":[{"internalType":"bool","name":"","type":"bool"}],"stateMutability":"view","type":"function"},{"inputs":[],"name":"lakomiGovern","outputs":[{"internalType":"address","name":"","type":"address"}],"stateMutability":"view","type":"function"},{"inputs":[],"name":"lakomiLoans","outputs":[{"internalType":"address","name":"","type":"address"}],"stateMutability":"view","type":"function"},{"inputs":[],"name":"lakomiVault","outputs":[{"internalType":"address","name":"","type":"address"}],"stateMutability":"view","type":"function"},{"inputs":[{"internalType":"address","name":"account","type":"address"},{"internalType":"uint256","name":"amount","type":"uint256"}],"name":"lockTokens","outputs":[],"stateMutability":"nonpayable","type":"function"},{"inputs":[],"name":"memberCount","outputs":[{"internalType":"uint256","name":"","type":"uint256"}],"stateMutability":"view","type":"function"},{"inputs":[{"internalType":"address","name":"to","type":"address"},{"internalType":"uint256","name":"amount","type":"uint256"}],"name":"mint","outputs":[],"stateMutability":"nonpayable","type":"function"},{"inputs":[{"internalType":"address","name":"to","type":"address"}],"name":"mintDefault","outputs":[],"stateMutability":"nonpayable","type":"function"},{"inputs":[],"name":"name","outputs":[{"internalType":"string","name":"","type":"string"}],"stateMutability":"view","type":"function"},{"inputs":[],"name":"registerMember","outputs":[],"stateMutability":"nonpayable","type":"function"},{"inputs":[{"internalType":"address","name":"member","type":"address"}],"name":"registerMemberAdmin","outputs":[],"stateMutability":"nonpayable","type":"function"},{"inputs":[{"internalType":"bytes32","name":"role","type":"bytes32"},{"internalType":"address","name":"callerConfirmation","type":"address"}],"name":"renounceRole","outputs":[],"stateMutability":"nonpayable","type":"function"},{"inputs":[{"internalType":"address","name":"member","type":"address"}],"name":"revokeMembership","outputs":[],"stateMutability":"nonpayable","type":"function"},{"inputs":[{"internalType":"bytes32","name":"role","type":"bytes32"},{"internalType":"address","name":"account","type":"address"}],"name":"revokeRole","outputs":[],"stateMutability":"nonpayable","type":"function"},{"inputs":[{"internalType":"address","name":"govern","type":"address"}],"name":"setLakomiGovern","outputs":[],"stateMutability":"nonpayable","type":"function"},{"inputs":[{"internalType":"address","name":"loans","type":"address"}],"name":"setLakomiLoans","outputs":[],"stateMutability":"nonpayable","type":"function"},{"inputs":[{"internalType":"address","name":"vault","type":"address"}],"name":"setLakomiVault","outputs":[],"stateMutability":"nonpayable","type":"function"},{"inputs":[{"internalType":"bool","name":"enabled","type":"bool"}],"name":"setTransfersEnabled","outputs":[],"stateMutability":"nonpayable","type":"function"},{"inputs":[{"internalType":"bytes4","name":"interfaceId","type":"bytes4"}],"name":"supportsInterface","outputs":[{"internalType":"bool","name":"","type":"bool"}],"stateMutability":"view","type":"function"},{"inputs":[],"name":"symbol","outputs":[{"internalType":"string","name":"","type":"string"}],"stateMutability":"view","type":"function"},{"inputs":[],"name":"totalSupply","outputs":[{"internalType":"uint256","name":"","type":"uint256"}],"stateMutability":"view","type":"function"},{"inputs":[{"internalType":"address","name":"to","type":"address"},{"internalType":"uint256","name":"value","type":"uint256"}],"name":"transfer","outputs":[{"internalType":"bool","name":"","type":"bool"}],"stateMutability":"nonpayable","type":"function"},{"inputs":[{"internalType":"address","name":"from","type":"address"},{"internalType":"address","name":"to","type":"address"},{"internalType":"uint256","name":"value","type":"uint256"}],"name":"transferFrom","outputs":[{"internalType":"bool","name":"","type":"bool"}],"stateMutability":"nonpayable","type":"function"},{"inputs":[],"name":"transfersEnabled","outputs":[{"internalType":"bool","name":"","type":"bool"}],"stateMutability":"view","type":"function"},{"inputs":[{"internalType":"address","name":"account","type":"address"},{"internalType":"uint256","name":"amount","type":"uint256"}],"name":"unlockTokens","outputs":[],"stateMutability":"nonpayable","type":"function"}],"evm":{"bytecode":{"linkReferences":{},"object":"60806040523480156200001157600080fd5b506040518060400160405280600c81526020016b2630b5b7b6b4902a37b5b2b760a11b815250604051806040016040528060038152602001624c414b60e81b815250816003908162000064919062000287565b50600462000073828262000287565b50505060016200008f6200008c6200010b60201b60201c565b90565b556200009d6000336200012f565b50620000ca7f9f2df0fed2c77648de5860a4cc508cd0818c85b8b8a1ab4ceeef8d981c8956a6336200012f565b50620000f77f3c11d16cbaffd01df69ce1c404f6340ee057498f5f00246190ea54220576a848336200012f565b506007805460ff1916600117905562000353565b7f9b779b17422d0df92223018b32b4d1fa46e071723d6817e2486d003becc55f0090565b60008281526005602090815260408083206001600160a01b038516845290915281205460ff16620001d85760008381526005602090815260408083206001600160a01b03861684529091529020805460ff191660011790556200018f3390565b6001600160a01b0316826001600160a01b0316847f2f8788117e7eff1d82e926ec794901d17c78024a50270940304540a733656f0d60405160405180910390a4506001620001dc565b5060005b92915050565b634e487b7160e01b600052604160045260246000fd5b600181811c908216806200020d57607f821691505b6020821081036200022e57634e487b7160e01b600052602260045260246000fd5b50919050565b601f8211156200028257600081815260208120601f850160051c810160208610156200025d5750805b601f850160051c820191505b818110156200027e5782815560010162000269565b5050505b505050565b81516001600160401b03811115620002a357620002a3620001e2565b620002bb81620002b48454620001f8565b8462000234565b602080601f831160018114620002f35760008415620002da5750858301515b600019600386901b1c1916600185901b1785556200027e565b600085815260208120601f198616915b82811015620003245788860151825594840194600190910190840162000303565b5085821015620003435787850151600019600388901b60f8161c191681555b5050505050600190811b01905550565b611d8180620003636000396000f3fe608060405234801561001057600080fd5b50600436106102745760003560e01c8063901786c911610151578063bb4d4436116100c3578063d547741f11610087578063d547741f1461059d578063dcab10d6146105b0578063dd62ed3e146105c3578063df37bb19146105fc578063df817a7114610623578063f36213671461063657600080fd5b8063bb4d44361461051a578063bef97c871461052d578063c40868931461053a578063c5ae086a14610563578063d53913931461057657600080fd5b80639dc29fac116101155780639dc29fac146104b6578063a217fddf146104c9578063a9059cbb146104d1578063ab466a8d146104e4578063ae20600b146104f4578063b1c255861461050757600080fd5b8063901786c91461046d57806391d148541461048057806395d89b4114610493578063997072f71461049b5780639d564d9a146104a357600080fd5b8063282c51f3116101ea57806336568abe116101ae57806336568abe146103f657806340c10f191461040957806360f8dd7e1461041c5780636a6b9a61146104245780636c24a76f1461044757806370a082311461045a57600080fd5b8063282c51f3146103895780632c4fbd2d146103b05780632f2ff15d146103c3578063313ce567146103d657806332cb6b0c146103e557600080fd5b80631ad330331161023c5780631ad33033146102e85780632144d0b9146102fd57806321a527991461032d57806323b872dd14610340578063248a9ca31461035357806326b9ce131461037657600080fd5b806301ffc9a71461027957806306fdde03146102a1578063095ea7b3146102b657806311aee380146102c957806318160ddd146102e0575b600080fd5b61028c610287366004611abf565b61065d565b60405190151581526020015b60405180910390f35b6102a9610694565b6040516102989190611ae9565b61028c6102c4366004611b53565b610726565b6102d2600b5481565b604051908152602001610298565b6002546102d2565b6102fb6102f6366004611b7d565b61073e565b005b6007546103159061010090046001600160a01b031681565b6040516001600160a01b039091168152602001610298565b6102fb61033b366004611b7d565b610847565b61028c61034e366004611b98565b6108fb565b6102d2610361366004611bd4565b60009081526005602052604090206001015490565b6102fb610384366004611bed565b61095b565b6102d27f3c11d16cbaffd01df69ce1c404f6340ee057498f5f00246190ea54220576a84881565b6102fb6103be366004611b7d565b6109b0565b6102fb6103d1366004611c0f565b610a57565b60405160128152602001610298565b6102d269d3c21bcecceda100000081565b6102fb610404366004611c0f565b610a82565b6102fb610417366004611b53565b610aba565b6102fb610ba4565b61028c610432366004611b7d565b600a6020526000908152604090205460ff1681565b6102d2610455366004611b7d565b610d11565b6102d2610468366004611b7d565b610d3d565b6102fb61047b366004611b7d565b610d58565b61028c61048e366004611c0f565b610efb565b6102a9610f26565b600b546102d2565b6102fb6104b1366004611b53565b610f35565b6102fb6104c4366004611b53565b611034565b6102d2600081565b61028c6104df366004611b53565b611100565b6102d268056bc75e2d6310000081565b600954610315906001600160a01b031681565b6102fb610515366004611b53565b611158565b6102d2610528366004611b7d565b61126b565b60075461028c9060ff1681565b6102d2610548366004611b7d565b6001600160a01b031660009081526006602052604090205490565b6102fb610571366004611b7d565b61129e565b6102d27f9f2df0fed2c77648de5860a4cc508cd0818c85b8b8a1ab4ceeef8d981c8956a681565b6102fb6105ab366004611c0f565b61148e565b6102fb6105be366004611b7d565b6114b3565b6102d26105d1366004611c3b565b6001600160a01b03918216600090815260016020908152604080832093909416825291909152205490565b6102d27f41a3fffbda0f1c9e28bd52ae72187b3406590146b6ca8f19961d2250566efd1681565b600854610315906001600160a01b031681565b6102d27faf9a8bb3cbd6b84fbccefa71ff73e26e798553c6914585a84886212a46a9027981565b60006001600160e01b03198216637965db0b60e01b148061068e57506301ffc9a760e01b6001600160e01b03198316145b92915050565b6060600380546106a390611c65565b80601f01602080910402602001604051908101604052809291908181526020018280546106cf90611c65565b801561071c5780601f106106f15761010080835404028352916020019161071c565b820191906000526020600020905b8154815290600101906020018083116106ff57829003601f168201915b5050505050905090565b60003361073481858561155a565b5060019392505050565b7f9f2df0fed2c77648de5860a4cc508cd0818c85b8b8a1ab4ceeef8d981c8956a661076881611567565b610770611571565b6001600160a01b0382166107975760405163aacf746b60e01b815260040160405180910390fd5b69d3c21bcecceda100000068056bc75e2d631000006107b560025490565b6107bf9190611cb5565b11156107de57604051632e1198f160e11b815260040160405180910390fd5b6107f18268056bc75e2d6310000061158d565b6040805168056bc75e2d6310000081524260208201526001600160a01b03841691600080516020611d0c83398151915291015b60405180910390a26108436001600080516020611d2c83398151915255565b5050565b600061085281611567565b6001600160a01b0382166108795760405163aacf746b60e01b815260040160405180910390fd5b60075461010090046001600160a01b0316156108a857604051630bcf2c7760e31b815260040160405180910390fd5b60078054610100600160a81b0319166101006001600160a01b038516908102919091179091556040517fe7ae49f883c825b05681b3e00e8be6fdea9ed2a8a45e4c6ecb9390fc44cce61590600090a25050565b6001600160a01b038316600090815260066020526040812054829061091f86610d3d565b6109299190611cc8565b101561094857604051632f992abf60e01b815260040160405180910390fd5b6109538484846115c3565b949350505050565b600061096681611567565b6007805460ff191683151590811790915560405190815233907f60a5428eca561d7fc92d217a2f3ca72fa49ce364b20e5cc90110bae2a41491189060200160405180910390a25050565b60006109bb81611567565b6001600160a01b0382166109e25760405163aacf746b60e01b815260040160405180910390fd5b6008546001600160a01b031615610a0c57604051630bcf2c7760e31b815260040160405180910390fd5b600880546001600160a01b0319166001600160a01b0384169081179091556040517f02ede59ede14fc8a452f4d9c602afef004380e4a5bf668b99ca6580878a80a5c90600090a25050565b600082815260056020526040902060010154610a7281611567565b610a7c83836115e7565b50505050565b6001600160a01b0381163314610aab5760405163334bd91960e11b815260040160405180910390fd5b610ab5828261167b565b505050565b7f9f2df0fed2c77648de5860a4cc508cd0818c85b8b8a1ab4ceeef8d981c8956a6610ae481611567565b610aec611571565b6001600160a01b038316610b135760405163aacf746b60e01b815260040160405180910390fd5b69d3c21bcecceda100000082610b2860025490565b610b329190611cb5565b1115610b5157604051632e1198f160e11b815260040160405180910390fd5b610b5b838361158d565b604080518381524260208201526001600160a01b03851691600080516020611d0c83398151915291015b60405180910390a2610ab56001600080516020611d2c83398151915255565b610bac611571565b33610bca5760405163aacf746b60e01b815260040160405180910390fd5b336000908152600a602052604090205460ff1615610c245760405162461bcd60e51b8152602060048201526012602482015271105b1c9958591e481c9959da5cdd195c995960721b60448201526064015b60405180910390fd5b336000908152600a60205260408120805460ff19166001179055600b805491610c4c83611cdb565b919050555069d3c21bcecceda100000068056bc75e2d63100000610c6f60025490565b610c799190611cb5565b11610cc357610c913368056bc75e2d6310000061158d565b6040805168056bc75e2d6310000081524260208201523391600080516020611d0c833981519152910160405180910390a25b60405142815233907f67e0244e28040fec15240cd4b6c04c776a2a0278caef23b59e8ada1df31f76899060200160405180910390a2610d0f6001600080516020611d2c83398151915255565b565b6001600160a01b038116600090815260066020526040812054610d3383610d3d565b61068e9190611cc8565b6001600160a01b031660009081526020819052604090205490565b7f41a3fffbda0f1c9e28bd52ae72187b3406590146b6ca8f19961d2250566efd16610d8281611567565b610d8a611571565b6001600160a01b038216610db15760405163aacf746b60e01b815260040160405180910390fd5b6001600160a01b0382166000908152600a602052604090205460ff1615610e0f5760405162461bcd60e51b8152602060048201526012602482015271105b1c9958591e481c9959da5cdd195c995960721b6044820152606401610c1b565b6001600160a01b0382166000908152600a60205260408120805460ff19166001179055600b805491610e4083611cdb565b919050555069d3c21bcecceda100000068056bc75e2d63100000610e6360025490565b610e6d9190611cb5565b11610ec057610e858268056bc75e2d6310000061158d565b6040805168056bc75e2d6310000081524260208201526001600160a01b03841691600080516020611d0c833981519152910160405180910390a25b816001600160a01b03167f67e0244e28040fec15240cd4b6c04c776a2a0278caef23b59e8ada1df31f76894260405161082491815260200190565b60009182526005602090815260408084206001600160a01b0393909316845291905290205460ff1690565b6060600480546106a390611c65565b7faf9a8bb3cbd6b84fbccefa71ff73e26e798553c6914585a84886212a46a90279610f5f81611567565b610f67611571565b6001600160a01b038316610f8e5760405163aacf746b60e01b815260040160405180910390fd5b6001600160a01b038316600090815260066020526040902054821115610fc75760405163713ca3c160e11b815260040160405180910390fd5b6001600160a01b03831660009081526006602052604081208054849290610fef908490611cc8565b9091555050604080518381524260208201526001600160a01b038516917f89882ad382a3742d4db24e4dabc5000c5852aed762904db28442e4e1630a1d079101610b85565b7f3c11d16cbaffd01df69ce1c404f6340ee057498f5f00246190ea54220576a84861105e81611567565b611066611571565b6001600160a01b03831661108d5760405163aacf746b60e01b815260040160405180910390fd5b8161109784610d3d565b10156110b657604051632f100e0360e11b815260040160405180910390fd5b6110c083836116e8565b604080518381524260208201526001600160a01b038516917fccbea4088a3b7ae9ca2d15fab9a9742a4075b4d7247768a1eecea917565aba009101610b85565b33600081815260066020526040812054909183919061111e90610d3d565b6111289190611cc8565b101561114757604051632f992abf60e01b815260040160405180910390fd5b611151838361171e565b9392505050565b7faf9a8bb3cbd6b84fbccefa71ff73e26e798553c6914585a84886212a46a9027961118281611567565b61118a611571565b6001600160a01b0383166111b15760405163aacf746b60e01b815260040160405180910390fd5b6001600160a01b03831660009081526006602052604090205482906111d585610d3d565b6111df9190611cc8565b10156111fe57604051632f992abf60e01b815260040160405180910390fd5b6001600160a01b03831660009081526006602052604081208054849290611226908490611cb5565b9091555050604080518381524260208201526001600160a01b038516917fd741e738a23fd18a03a26522320d9fc6cac1fed483e215ea9150fbc2fc43385d9101610b85565b6001600160a01b0381166000908152600a602052604081205460ff16611292576000611295565b60015b60ff1692915050565b6112a6611571565b6001600160a01b0381166112cd5760405163aacf746b60e01b815260040160405180910390fd5b6001600160a01b0381166000908152600a602052604090205460ff166113245760405162461bcd60e51b815260206004820152600c60248201526b2737ba10309036b2b6b132b960a11b6044820152606401610c1b565b61134e7f41a3fffbda0f1c9e28bd52ae72187b3406590146b6ca8f19961d2250566efd1633610efb565b8061135f575061135f600033610efb565b61139c5760405162461bcd60e51b815260206004820152600e60248201526d139bdd08185d5d1a1bdc9a5e995960921b6044820152606401610c1b565b6001600160a01b0381166000908152600a60205260408120805460ff19169055600b8054916113ca83611cf4565b919050555060006113da82610d3d565b90508015611430576113ec82826116e8565b604080518281524260208201526001600160a01b038416917fccbea4088a3b7ae9ca2d15fab9a9742a4075b4d7247768a1eecea917565aba00910160405180910390a25b816001600160a01b03167fbf62ed977dbe8fac296246c481da9d7398f13c289ed4f178507b32d16a25f3af4260405161146b91815260200190565b60405180910390a25061148b6001600080516020611d2c83398151915255565b50565b6000828152600560205260409020600101546114a981611567565b610a7c838361167b565b60006114be81611567565b6001600160a01b0382166114e55760405163aacf746b60e01b815260040160405180910390fd5b6009546001600160a01b03161561150f57604051630bcf2c7760e31b815260040160405180910390fd5b600980546001600160a01b0319166001600160a01b0384169081179091556040517ff54cdf149ced77f64aefa26253e0703062cc3f3be92a9d759576f9741725b2a190600090a25050565b610ab5838383600161172c565b61148b8133611801565b61157961183a565b6002600080516020611d2c83398151915255565b6001600160a01b0382166115b75760405163ec442f0560e01b815260006004820152602401610c1b565b6108436000838361186a565b6000336115d18582856118bd565b6115dc858585611936565b506001949350505050565b60006115f38383610efb565b6116735760008381526005602090815260408083206001600160a01b03861684529091529020805460ff1916600117905561162b3390565b6001600160a01b0316826001600160a01b0316847f2f8788117e7eff1d82e926ec794901d17c78024a50270940304540a733656f0d60405160405180910390a450600161068e565b50600061068e565b60006116878383610efb565b156116735760008381526005602090815260408083206001600160a01b0386168085529252808320805460ff1916905551339286917ff6391f5c32d9c69d2a47ea670b442974b53935d1edc7fd64eb21e047a839171b9190a450600161068e565b6001600160a01b03821661171257604051634b637e8f60e11b815260006004820152602401610c1b565b6108438260008361186a565b600033610734818585611936565b6001600160a01b0384166117565760405163e602df0560e01b815260006004820152602401610c1b565b6001600160a01b03831661178057604051634a1406b160e11b815260006004820152602401610c1b565b6001600160a01b0380851660009081526001602090815260408083209387168352929052208290558015610a7c57826001600160a01b0316846001600160a01b03167f8c5be1e5ebec7d5bd14f71427d1e84f3dd0314c0f7b2291e5b200ac8c7c3b925846040516117f391815260200190565b60405180910390a350505050565b61180b8282610efb565b6108435760405163e2517d3f60e01b81526001600160a01b038216600482015260248101839052604401610c1b565b600080516020611d2c83398151915254600203610d0f57604051633ee5aeb560e01b815260040160405180910390fd5b611875838383611995565b6001600160a01b0383161580159061189557506001600160a01b03821615155b15610ab55760075460ff16610ab557604051630202da8560e11b815260040160405180910390fd5b6001600160a01b03838116600090815260016020908152604080832093861683529290522054600019811015610a7c578181101561192757604051637dc7a0d960e11b81526001600160a01b03841660048201526024810182905260448101839052606401610c1b565b610a7c8484848403600061172c565b6001600160a01b03831661196057604051634b637e8f60e11b815260006004820152602401610c1b565b6001600160a01b03821661198a5760405163ec442f0560e01b815260006004820152602401610c1b565b610ab583838361186a565b6001600160a01b0383166119c05780600260008282546119b59190611cb5565b90915550611a329050565b6001600160a01b03831660009081526020819052604090205481811015611a135760405163391434e360e21b81526001600160a01b03851660048201526024810182905260448101839052606401610c1b565b6001600160a01b03841660009081526020819052604090209082900390555b6001600160a01b038216611a4e57600280548290039055611a6d565b6001600160a01b03821660009081526020819052604090208054820190555b816001600160a01b0316836001600160a01b03167fddf252ad1be2c89b69c2b068fc378daa952ba7f163c4a11628f55a4df523b3ef83604051611ab291815260200190565b60405180910390a3505050565b600060208284031215611ad157600080fd5b81356001600160e01b03198116811461115157600080fd5b600060208083528351808285015260005b81811015611b1657858101830151858201604001528201611afa565b506000604082860101526040601f19601f8301168501019250505092915050565b80356001600160a01b0381168114611b4e57600080fd5b919050565b60008060408385031215611b6657600080fd5b611b6f83611b37565b946020939093013593505050565b600060208284031215611b8f57600080fd5b61115182611b37565b600080600060608486031215611bad57600080fd5b611bb684611b37565b9250611bc460208501611b37565b9150604084013590509250925092565b600060208284031215611be657600080fd5b5035919050565b600060208284031215611bff57600080fd5b8135801515811461115157600080fd5b60008060408385031215611c2257600080fd5b82359150611c3260208401611b37565b90509250929050565b60008060408385031215611c4e57600080fd5b611c5783611b37565b9150611c3260208401611b37565b600181811c90821680611c7957607f821691505b602082108103611c9957634e487b7160e01b600052602260045260246000fd5b50919050565b634e487b7160e01b600052601160045260246000fd5b8082018082111561068e5761068e611c9f565b8181038181111561068e5761068e611c9f565b600060018201611ced57611ced611c9f565b5060010190565b600081611d0357611d03611c9f565b50600019019056fe2e8ac5177a616f2aec08c3048f5021e4e9743ece034e8d83ba5caf76688bb4759b779b17422d0df92223018b32b4d1fa46e071723d6817e2486d003becc55f00a26469706673582212207127d58a56d2d7ed0acf863aa19f66112e8097aff7b728d5322ab430bdd822e864736f6c63430008140033","opcodes":"PUSH1 0x80 PUSH1 0x40 MSTORE CALLVALUE DUP1 ISZERO PUSH3 0x11 JUMPI PUSH1 0x0 DUP1 REVERT JUMPDEST POP PUSH1 0x40 MLOAD DUP1 PUSH1 0x40 ADD PUSH1 0x40 MSTORE DUP1 PUSH1 0xC DUP2 MSTORE PUSH1 0x20 ADD PUSH12 0x2630B5B7B6B4902A37B5B2B7 PUSH1 0xA1 SHL DUP2 MSTORE POP PUSH1 0x40 MLOAD DUP1 PUSH1 0x40 ADD PUSH1 0x40 MSTORE DUP1 PUSH1 0x3 DUP2 MSTORE PUSH1 0x20 ADD PUSH3 0x4C414B PUSH1 0xE8 SHL DUP2 MSTORE POP DUP2 PUSH1 0x3 SWAP1 DUP2 PUSH3 0x64 SWAP2 SWAP1 PUSH3 0x287 JUMP JUMPDEST POP PUSH1 0x4 PUSH3 0x73 DUP3 DUP3 PUSH3 0x287 JUMP JUMPDEST POP POP POP PUSH1 0x1 PUSH3 0x8F PUSH3 0x8C PUSH3 0x10B PUSH1 0x20 SHL PUSH1 0x20 SHR JUMP JUMPDEST SWAP1 JUMP JUMPDEST SSTORE PUSH3 0x9D PUSH1 0x0 CALLER PUSH3 0x12F JUMP JUMPDEST POP PUSH3 0xCA PUSH32 0x9F2DF0FED2C77648DE5860A4CC508CD0818C85B8B8A1AB4CEEEF8D981C8956A6 CALLER PUSH3 0x12F JUMP JUMPDEST POP PUSH3 0xF7 PUSH32 0x3C11D16CBAFFD01DF69CE1C404F6340EE057498F5F00246190EA54220576A848 CALLER PUSH3 0x12F JUMP JUMPDEST POP PUSH1 0x7 DUP1 SLOAD PUSH1 0xFF NOT AND PUSH1 0x1 OR SWAP1 SSTORE PUSH3 0x353 JUMP JUMPDEST PUSH32 0x9B779B17422D0DF92223018B32B4D1FA46E071723D6817E2486D003BECC55F00 SWAP1 JUMP JUMPDEST PUSH1 0x0 DUP3 DUP2 MSTORE PUSH1 0x5 PUSH1 0x20 SWAP1 DUP2 MSTORE PUSH1 0x40 DUP1 DUP4 KECCAK256 PUSH1 0x1 PUSH1 0x1 PUSH1 0xA0 SHL SUB DUP6 AND DUP5 MSTORE SWAP1 SWAP2 MSTORE DUP2 KECCAK256 SLOAD PUSH1 0xFF AND PUSH3 0x1D8 JUMPI PUSH1 0x0 DUP4 DUP2 MSTORE PUSH1 0x5 PUSH1 0x20 SWAP1 DUP2 MSTORE PUSH1 0x40 DUP1 DUP4 KECCAK256 PUSH1 0x1 PUSH1 0x1 PUSH1 0xA0 SHL SUB DUP7 AND DUP5 MSTORE SWAP1 SWAP2 MSTORE SWAP1 KECCAK256 DUP1 SLOAD PUSH1 0xFF NOT AND PUSH1 0x1 OR SWAP1 SSTORE PUSH3 0x18F CALLER SWAP1 JUMP JUMPDEST PUSH1 0x1 PUSH1 0x1 PUSH1 0xA0 SHL SUB AND DUP3 PUSH1 0x1 PUSH1 0x1 PUSH1 0xA0 SHL SUB AND DUP5 PUSH32 0x2F8788117E7EFF1D82E926EC794901D17C78024A50270940304540A733656F0D PUSH1 0x40 MLOAD PUSH1 0x40 MLOAD DUP1 SWAP2 SUB SWAP1 LOG4 POP PUSH1 0x1 PUSH3 0x1DC JUMP JUMPDEST POP PUSH1 0x0 JUMPDEST SWAP3 SWAP2 POP POP JUMP JUMPDEST PUSH4 0x4E487B71 PUSH1 0xE0 SHL PUSH1 0x0 MSTORE PUSH1 0x41 PUSH1 0x4 MSTORE PUSH1 0x24 PUSH1 0x0 REVERT JUMPDEST PUSH1 0x1 DUP2 DUP2 SHR SWAP1 DUP3 AND DUP1 PUSH3 0x20D JUMPI PUSH1 0x7F DUP3 AND SWAP2 POP JUMPDEST PUSH1 0x20 DUP3 LT DUP2 SUB PUSH3 0x22E JUMPI PUSH4 0x4E487B71 PUSH1 0xE0 SHL PUSH1 0x0 MSTORE PUSH1 0x22 PUSH1 0x4 MSTORE PUSH1 0x24 PUSH1 0x0 REVERT JUMPDEST POP SWAP2 SWAP1 POP JUMP JUMPDEST PUSH1 0x1F DUP3 GT ISZERO PUSH3 0x282 JUMPI PUSH1 0x0 DUP2 DUP2 MSTORE PUSH1 0x20 DUP2 KECCAK256 PUSH1 0x1F DUP6 ADD PUSH1 0x5 SHR DUP2 ADD PUSH1 0x20 DUP7 LT ISZERO PUSH3 0x25D JUMPI POP DUP1 JUMPDEST PUSH1 0x1F DUP6 ADD PUSH1 0x5 SHR DUP3 ADD SWAP2 POP JUMPDEST DUP2 DUP2 LT ISZERO PUSH3 0x27E JUMPI DUP3 DUP2 SSTORE PUSH1 0x1 ADD PUSH3 0x269 JUMP JUMPDEST POP POP POP JUMPDEST POP POP POP JUMP JUMPDEST DUP2 MLOAD PUSH1 0x1 PUSH1 0x1 PUSH1 0x40 SHL SUB DUP2 GT ISZERO PUSH3 0x2A3 JUMPI PUSH3 0x2A3 PUSH3 0x1E2 JUMP JUMPDEST PUSH3 0x2BB DUP2 PUSH3 0x2B4 DUP5 SLOAD PUSH3 0x1F8 JUMP JUMPDEST DUP5 PUSH3 0x234 JUMP JUMPDEST PUSH1 0x20 DUP1 PUSH1 0x1F DUP4 GT PUSH1 0x1 DUP2 EQ PUSH3 0x2F3 JUMPI PUSH1 0x0 DUP5 ISZERO PUSH3 0x2DA JUMPI POP DUP6 DUP4 ADD MLOAD JUMPDEST PUSH1 0x0 NOT PUSH1 0x3 DUP7 SWAP1 SHL SHR NOT AND PUSH1 0x1 DUP6 SWAP1 SHL OR DUP6 SSTORE PUSH3 0x27E JUMP JUMPDEST PUSH1 0x0 DUP6 DUP2 MSTORE PUSH1 0x20 DUP2 KECCAK256 PUSH1 0x1F NOT DUP7 AND SWAP2 JUMPDEST DUP3 DUP2 LT ISZERO PUSH3 0x324 JUMPI DUP9 DUP7 ADD MLOAD DUP3 SSTORE SWAP5 DUP5 ADD SWAP5 PUSH1 0x1 SWAP1 SWAP2 ADD SWAP1 DUP5 ADD PUSH3 0x303 JUMP JUMPDEST POP DUP6 DUP3 LT ISZERO PUSH3 0x343 JUMPI DUP8 DUP6 ADD MLOAD PUSH1 0x0 NOT PUSH1 0x3 DUP9 SWAP1 SHL PUSH1 0xF8 AND SHR NOT AND DUP2 SSTORE JUMPDEST POP POP POP POP POP PUSH1 0x1 SWAP1 DUP2 SHL ADD SWAP1 SSTORE POP JUMP JUMPDEST PUSH2 0x1D81 DUP1 PUSH3 0x363 PUSH1 0x0 CODECOPY PUSH1 0x0 RETURN INVALID PUSH1 0x80 PUSH1 0x40 MSTORE CALLVALUE DUP1 ISZERO PUSH2 0x10 JUMPI PUSH1 0x0 DUP1 REVERT JUMPDEST POP PUSH1 0x4 CALLDATASIZE LT PUSH2 0x274 JUMPI PUSH1 0x0 CALLDATALOAD PUSH1 0xE0 SHR DUP1 PUSH4 0x901786C9 GT PUSH2 0x151 JUMPI DUP1 PUSH4 0xBB4D4436 GT PUSH2 0xC3 JUMPI DUP1 PUSH4 0xD547741F GT PUSH2 0x87 JUMPI DUP1 PUSH4 0xD547741F EQ PUSH2 0x59D JUMPI DUP1 PUSH4 0xDCAB10D6 EQ PUSH2 0x5B0 JUMPI DUP1 PUSH4 0xDD62ED3E EQ PUSH2 0x5C3 JUMPI DUP1 PUSH4 0xDF37BB19 EQ PUSH2 0x5FC JUMPI DUP1 PUSH4 0xDF817A71 EQ PUSH2 0x623 JUMPI DUP1 PUSH4 0xF3621367 EQ PUSH2 0x636 JUMPI PUSH1 0x0 DUP1 REVERT JUMPDEST DUP1 PUSH4 0xBB4D4436 EQ PUSH2 0x51A JUMPI DUP1 PUSH4 0xBEF97C87 EQ PUSH2 0x52D JUMPI DUP1 PUSH4 0xC4086893 EQ PUSH2 0x53A JUMPI DUP1 PUSH4 0xC5AE086A EQ PUSH2 0x563 JUMPI DUP1 PUSH4 0xD5391393 EQ PUSH2 0x576 JUMPI PUSH1 0x0 DUP1 REVERT JUMPDEST DUP1 PUSH4 0x9DC29FAC GT PUSH2 0x115 JUMPI DUP1 PUSH4 0x9DC29FAC EQ PUSH2 0x4B6 JUMPI DUP1 PUSH4 0xA217FDDF EQ PUSH2 0x4C9 JUMPI DUP1 PUSH4 0xA9059CBB EQ PUSH2 0x4D1 JUMPI DUP1 PUSH4 0xAB466A8D EQ PUSH2 0x4E4 JUMPI DUP1 PUSH4 0xAE20600B EQ PUSH2 0x4F4 JUMPI DUP1 PUSH4 0xB1C25586 EQ PUSH2 0x507 JUMPI PUSH1 0x0 DUP1 REVERT JUMPDEST DUP1 PUSH4 0x901786C9 EQ PUSH2 0x46D JUMPI DUP1 PUSH4 0x91D14854 EQ PUSH2 0x480 JUMPI DUP1 PUSH4 0x95D89B41 EQ PUSH2 0x493 JUMPI DUP1 PUSH4 0x997072F7 EQ PUSH2 0x49B JUMPI DUP1 PUSH4 0x9D564D9A EQ PUSH2 0x4A3 JUMPI PUSH1 0x0 DUP1 REVERT JUMPDEST DUP1 PUSH4 0x282C51F3 GT PUSH2 0x1EA JUMPI DUP1 PUSH4 0x36568ABE GT PUSH2 0x1AE JUMPI DUP1 PUSH4 0x36568ABE EQ PUSH2 0x3F6 JUMPI DUP1 PUSH4 0x40C10F19 EQ PUSH2 0x409 JUMPI DUP1 PUSH4 0x60F8DD7E EQ PUSH2 0x41C JUMPI DUP1 PUSH4 0x6A6B9A61 EQ PUSH2 0x424 JUMPI DUP1 PUSH4 0x6C24A76F EQ PUSH2 0x447 JUMPI DUP1 PUSH4 0x70A08231 EQ PUSH2 0x45A JUMPI PUSH1 0x0 DUP1 REVERT JUMPDEST DUP1 PUSH4 0x282C51F3 EQ PUSH2 0x389 JUMPI DUP1 PUSH4 0x2C4FBD2D EQ PUSH2 0x3B0 JUMPI DUP1 PUSH4 0x2F2FF15D EQ PUSH2 0x3C3 JUMPI DUP1 PUSH4 0x313CE567 EQ PUSH2 0x3D6 JUMPI DUP1 PUSH4 0x32CB6B0C EQ PUSH2 0x3E5 JUMPI PUSH1 0x0 DUP1 REVERT JUMPDEST DUP1 PUSH4 0x1AD33033 GT PUSH2 0x23C JUMPI DUP1 PUSH4 0x1AD33033 EQ PUSH2 0x2E8 JUMPI DUP1 PUSH4 0x2144D0B9 EQ PUSH2 0x2FD JUMPI DUP1 PUSH4 0x21A52799 EQ PUSH2 0x32D JUMPI DUP1 PUSH4 0x23B872DD EQ PUSH2 0x340 JUMPI DUP1 PUSH4 0x248A9CA3 EQ PUSH2 0x353 JUMPI DUP1 PUSH4 0x26B9CE13 EQ PUSH2 0x376 JUMPI PUSH1 0x0 DUP1 REVERT JUMPDEST DUP1 PUSH4 0x1FFC9A7 EQ PUSH2 0x279 JUMPI DUP1 PUSH4 0x6FDDE03 EQ PUSH2 0x2A1 JUMPI DUP1 PUSH4 0x95EA7B3 EQ PUSH2 0x2B6 JUMPI DUP1 PUSH4 0x11AEE380 EQ PUSH2 0x2C9 JUMPI DUP1 PUSH4 0x18160DDD EQ PUSH2 0x2E0 JUMPI JUMPDEST PUSH1 0x0 DUP1 REVERT JUMPDEST PUSH2 0x28C PUSH2 0x287 CALLDATASIZE PUSH1 0x4 PUSH2 0x1ABF JUMP JUMPDEST PUSH2 0x65D JUMP JUMPDEST PUSH1 0x40 MLOAD SWAP1 ISZERO ISZERO DUP2 MSTORE PUSH1 0x20 ADD JUMPDEST PUSH1 0x40 MLOAD DUP1 SWAP2 SUB SWAP1 RETURN JUMPDEST PUSH2 0x2A9 PUSH2 0x694 JUMP JUMPDEST PUSH1 0x40 MLOAD PUSH2 0x298 SWAP2 SWAP1 PUSH2 0x1AE9 JUMP JUMPDEST PUSH2 0x28C PUSH2 0x2C4 CALLDATASIZE PUSH1 0x4 PUSH2 0x1B53 JUMP JUMPDEST PUSH2 0x726 JUMP JUMPDEST PUSH2 0x2D2 PUSH1 0xB SLOAD DUP2 JUMP JUMPDEST PUSH1 0x40 MLOAD SWAP1 DUP2 MSTORE PUSH1 0x20 ADD PUSH2 0x298 JUMP JUMPDEST PUSH1 0x2 SLOAD PUSH2 0x2D2 JUMP JUMPDEST PUSH2 0x2FB PUSH2 0x2F6 CALLDATASIZE PUSH1 0x4 PUSH2 0x1B7D JUMP JUMPDEST PUSH2 0x73E JUMP JUMPDEST STOP JUMPDEST PUSH1 0x7 SLOAD PUSH2 0x315 SWAP1 PUSH2 0x100 SWAP1 DIV PUSH1 0x1 PUSH1 0x1 PUSH1 0xA0 SHL SUB AND DUP2 JUMP JUMPDEST PUSH1 0x40 MLOAD PUSH1 0x1 PUSH1 0x1 PUSH1 0xA0 SHL SUB SWAP1 SWAP2 AND DUP2 MSTORE PUSH1 0x20 ADD PUSH2 0x298 JUMP JUMPDEST PUSH2 0x2FB PUSH2 0x33B CALLDATASIZE PUSH1 0x4 PUSH2 0x1B7D JUMP JUMPDEST PUSH2 0x847 JUMP JUMPDEST PUSH2 0x28C PUSH2 0x34E CALLDATASIZE PUSH1 0x4 PUSH2 0x1B98 JUMP JUMPDEST PUSH2 0x8FB JUMP JUMPDEST PUSH2 0x2D2 PUSH2 0x361 CALLDATASIZE PUSH1 0x4 PUSH2 0x1BD4 JUMP JUMPDEST PUSH1 0x0 SWAP1 DUP2 MSTORE PUSH1 0x5 PUSH1 0x20 MSTORE PUSH1 0x40 SWAP1 KECCAK256 PUSH1 0x1 ADD SLOAD SWAP1 JUMP JUMPDEST PUSH2 0x2FB PUSH2 0x384 CALLDATASIZE PUSH1 0x4 PUSH2 0x1BED JUMP JUMPDEST PUSH2 0x95B JUMP JUMPDEST PUSH2 0x2D2 PUSH32 0x3C11D16CBAFFD01DF69CE1C404F6340EE057498F5F00246190EA54220576A848 DUP2 JUMP JUMPDEST PUSH2 0x2FB PUSH2 0x3BE CALLDATASIZE PUSH1 0x4 PUSH2 0x1B7D JUMP JUMPDEST PUSH2 0x9B0 JUMP JUMPDEST PUSH2 0x2FB PUSH2 0x3D1 CALLDATASIZE PUSH1 0x4 PUSH2 0x1C0F JUMP JUMPDEST PUSH2 0xA57 JUMP JUMPDEST PUSH1 0x40 MLOAD PUSH1 0x12 DUP2 MSTORE PUSH1 0x20 ADD PUSH2 0x298 JUMP JUMPDEST PUSH2 0x2D2 PUSH10 0xD3C21BCECCEDA1000000 DUP2 JUMP JUMPDEST PUSH2 0x2FB PUSH2 0x404 CALLDATASIZE PUSH1 0x4 PUSH2 0x1C0F JUMP JUMPDEST PUSH2 0xA82 JUMP JUMPDEST PUSH2 0x2FB PUSH2 0x417 CALLDATASIZE PUSH1 0x4 PUSH2 0x1B53 JUMP JUMPDEST PUSH2 0xABA JUMP JUMPDEST PUSH2 0x2FB PUSH2 0xBA4 JUMP JUMPDEST PUSH2 0x28C PUSH2 0x432 CALLDATASIZE PUSH1 0x4 PUSH2 0x1B7D JUMP JUMPDEST PUSH1 0xA PUSH1 0x20 MSTORE PUSH1 0x0 SWAP1 DUP2 MSTORE PUSH1 0x40 SWAP1 KECCAK256 SLOAD PUSH1 0xFF AND DUP2 JUMP JUMPDEST PUSH2 0x2D2 PUSH2 0x455 CALLDATASIZE PUSH1 0x4 PUSH2 0x1B7D JUMP JUMPDEST PUSH2 0xD11 JUMP JUMPDEST PUSH2 0x2D2 PUSH2 0x468 CALLDATASIZE PUSH1 0x4 PUSH2 0x1B7D JUMP JUMPDEST PUSH2 0xD3D JUMP JUMPDEST PUSH2 0x2FB PUSH2 0x47B CALLDATASIZE PUSH1 0x4 PUSH2 0x1B7D JUMP JUMPDEST PUSH2 0xD58 JUMP JUMPDEST PUSH2 0x28C PUSH2 0x48E CALLDATASIZE PUSH1 0x4 PUSH2 0x1C0F JUMP JUMPDEST PUSH2 0xEFB JUMP JUMPDEST PUSH2 0x2A9 PUSH2 0xF26 JUMP JUMPDEST PUSH1 0xB SLOAD PUSH2 0x2D2 JUMP JUMPDEST PUSH2 0x2FB PUSH2 0x4B1 CALLDATASIZE PUSH1 0x4 PUSH2 0x1B53 JUMP JUMPDEST PUSH2 0xF35 JUMP JUMPDEST PUSH2 0x2FB PUSH2 0x4C4 CALLDATASIZE PUSH1 0x4 PUSH2 0x1B53 JUMP JUMPDEST PUSH2 0x1034 JUMP JUMPDEST PUSH2 0x2D2 PUSH1 0x0 DUP2 JUMP JUMPDEST PUSH2 0x28C PUSH2 0x4DF CALLDATASIZE PUSH1 0x4 PUSH2 0x1B53 JUMP JUMPDEST PUSH2 0x1100 JUMP JUMPDEST PUSH2 0x2D2 PUSH9 0x56BC75E2D63100000 DUP2 JUMP JUMPDEST PUSH1 0x9 SLOAD PUSH2 0x315 SWAP1 PUSH1 0x1 PUSH1 0x1 PUSH1 0xA0 SHL SUB AND DUP2 JUMP JUMPDEST PUSH2 0x2FB PUSH2 0x515 CALLDATASIZE PUSH1 0x4 PUSH2 0x1B53 JUMP JUMPDEST PUSH2 0x1158 JUMP JUMPDEST PUSH2 0x2D2 PUSH2 0x528 CALLDATASIZE PUSH1 0x4 PUSH2 0x1B7D JUMP JUMPDEST PUSH2 0x126B JUMP JUMPDEST PUSH1 0x7 SLOAD PUSH2 0x28C SWAP1 PUSH1 0xFF AND DUP2 JUMP JUMPDEST PUSH2 0x2D2 PUSH2 0x548 CALLDATASIZE PUSH1 0x4 PUSH2 0x1B7D JUMP JUMPDEST PUSH1 0x1 PUSH1 0x1 PUSH1 0xA0 SHL SUB AND PUSH1 0x0 SWAP1 DUP2 MSTORE PUSH1 0x6 PUSH1 0x20 MSTORE PUSH1 0x40 SWAP1 KECCAK256 SLOAD SWAP1 JUMP JUMPDEST PUSH2 0x2FB PUSH2 0x571 CALLDATASIZE PUSH1 0x4 PUSH2 0x1B7D JUMP JUMPDEST PUSH2 0x129E JUMP JUMPDEST PUSH2 0x2D2 PUSH32 0x9F2DF0FED2C77648DE5860A4CC508CD0818C85B8B8A1AB4CEEEF8D981C8956A6 DUP2 JUMP JUMPDEST PUSH2 0x2FB PUSH2 0x5AB CALLDATASIZE PUSH1 0x4 PUSH2 0x1C0F JUMP JUMPDEST PUSH2 0x148E JUMP JUMPDEST PUSH2 0x2FB PUSH2 0x5BE CALLDATASIZE PUSH1 0x4 PUSH2 0x1B7D JUMP JUMPDEST PUSH2 0x14B3 JUMP JUMPDEST PUSH2 0x2D2 PUSH2 0x5D1 CALLDATASIZE PUSH1 0x4 PUSH2 0x1C3B JUMP JUMPDEST PUSH1 0x1 PUSH1 0x1 PUSH1 0xA0 SHL SUB SWAP2 DUP3 AND PUSH1 0x0 SWAP1 DUP2 MSTORE PUSH1 0x1 PUSH1 0x20 SWAP1 DUP2 MSTORE PUSH1 0x40 DUP1 DUP4 KECCAK256 SWAP4 SWAP1 SWAP5 AND DUP3 MSTORE SWAP2 SWAP1 SWAP2 MSTORE KECCAK256 SLOAD SWAP1 JUMP JUMPDEST PUSH2 0x2D2 PUSH32 0x41A3FFFBDA0F1C9E28BD52AE72187B3406590146B6CA8F19961D2250566EFD16 DUP2 JUMP JUMPDEST PUSH1 0x8 SLOAD PUSH2 0x315 SWAP1 PUSH1 0x1 PUSH1 0x1 PUSH1 0xA0 SHL SUB AND DUP2 JUMP JUMPDEST PUSH2 0x2D2 PUSH32 0xAF9A8BB3CBD6B84FBCCEFA71FF73E26E798553C6914585A84886212A46A90279 DUP2 JUMP JUMPDEST PUSH1 0x0 PUSH1 0x1 PUSH1 0x1 PUSH1 0xE0 SHL SUB NOT DUP3 AND PUSH4 0x7965DB0B PUSH1 0xE0 SHL EQ DUP1 PUSH2 0x68E JUMPI POP PUSH4 0x1FFC9A7 PUSH1 0xE0 SHL PUSH1 0x1 PUSH1 0x1 PUSH1 0xE0 SHL SUB NOT DUP4 AND EQ JUMPDEST SWAP3 SWAP2 POP POP JUMP JUMPDEST PUSH1 0x60 PUSH1 0x3 DUP1 SLOAD PUSH2 0x6A3 SWAP1 PUSH2 0x1C65 JUMP JUMPDEST DUP1 PUSH1 0x1F ADD PUSH1 0x20 DUP1 SWAP2 DIV MUL PUSH1 0x20 ADD PUSH1 0x40 MLOAD SWAP1 DUP2 ADD PUSH1 0x40 MSTORE DUP1 SWAP3 SWAP2 SWAP1 DUP2 DUP2 MSTORE PUSH1 0x20 ADD DUP3 DUP1 SLOAD PUSH2 0x6CF SWAP1 PUSH2 0x1C65 JUMP JUMPDEST DUP1 ISZERO PUSH2 0x71C JUMPI DUP1 PUSH1 0x1F LT PUSH2 0x6F1 JUMPI PUSH2 0x100 DUP1 DUP4 SLOAD DIV MUL DUP4 MSTORE SWAP2 PUSH1 0x20 ADD SWAP2 PUSH2 0x71C JUMP JUMPDEST DUP3 ADD SWAP2 SWAP1 PUSH1 0x0 MSTORE PUSH1 0x20 PUSH1 0x0 KECCAK256 SWAP1 JUMPDEST DUP2 SLOAD DUP2 MSTORE SWAP1 PUSH1 0x1 ADD SWAP1 PUSH1 0x20 ADD DUP1 DUP4 GT PUSH2 0x6FF JUMPI DUP3 SWAP1 SUB PUSH1 0x1F AND DUP3 ADD SWAP2 JUMPDEST POP POP POP POP POP SWAP1 POP SWAP1 JUMP JUMPDEST PUSH1 0x0 CALLER PUSH2 0x734 DUP2 DUP6 DUP6 PUSH2 0x155A JUMP JUMPDEST POP PUSH1 0x1 SWAP4 SWAP3 POP POP POP JUMP JUMPDEST PUSH32 0x9F2DF0FED2C77648DE5860A4CC508CD0818C85B8B8A1AB4CEEEF8D981C8956A6 PUSH2 0x768 DUP2 PUSH2 0x1567 JUMP JUMPDEST PUSH2 0x770 PUSH2 0x1571 JUMP JUMPDEST PUSH1 0x1 PUSH1 0x1 PUSH1 0xA0 SHL SUB DUP3 AND PUSH2 0x797 JUMPI PUSH1 0x40 MLOAD PUSH4 0xAACF746B PUSH1 0xE0 SHL DUP2 MSTORE PUSH1 0x4 ADD PUSH1 0x40 MLOAD DUP1 SWAP2 SUB SWAP1 REVERT JUMPDEST PUSH10 0xD3C21BCECCEDA1000000 PUSH9 0x56BC75E2D63100000 PUSH2 0x7B5 PUSH1 0x2 SLOAD SWAP1 JUMP JUMPDEST PUSH2 0x7BF SWAP2 SWAP1 PUSH2 0x1CB5 JUMP JUMPDEST GT ISZERO PUSH2 0x7DE JUMPI PUSH1 0x40 MLOAD PUSH4 0x2E1198F1 PUSH1 0xE1 SHL DUP2 MSTORE PUSH1 0x4 ADD PUSH1 0x40 MLOAD DUP1 SWAP2 SUB SWAP1 REVERT JUMPDEST PUSH2 0x7F1 DUP3 PUSH9 0x56BC75E2D63100000 PUSH2 0x158D JUMP JUMPDEST PUSH1 0x40 DUP1 MLOAD PUSH9 0x56BC75E2D63100000 DUP2 MSTORE TIMESTAMP PUSH1 0x20 DUP3 ADD MSTORE PUSH1 0x1 PUSH1 0x1 PUSH1 0xA0 SHL SUB DUP5 AND SWAP2 PUSH1 0x0 DUP1 MLOAD PUSH1 0x20 PUSH2 0x1D0C DUP4 CODECOPY DUP2 MLOAD SWAP2 MSTORE SWAP2 ADD JUMPDEST PUSH1 0x40 MLOAD DUP1 SWAP2 SUB SWAP1 LOG2 PUSH2 0x843 PUSH1 0x1 PUSH1 0x0 DUP1 MLOAD PUSH1 0x20 PUSH2 0x1D2C DUP4 CODECOPY DUP2 MLOAD SWAP2 MSTORE SSTORE JUMP JUMPDEST POP POP JUMP JUMPDEST PUSH1 0x0 PUSH2 0x852 DUP2 PUSH2 0x1567 JUMP JUMPDEST PUSH1 0x1 PUSH1 0x1 PUSH1 0xA0 SHL SUB DUP3 AND PUSH2 0x879 JUMPI PUSH1 0x40 MLOAD PUSH4 0xAACF746B PUSH1 0xE0 SHL DUP2 MSTORE PUSH1 0x4 ADD PUSH1 0x40 MLOAD DUP1 SWAP2 SUB SWAP1 REVERT JUMPDEST PUSH1 0x7 SLOAD PUSH2 0x100 SWAP1 DIV PUSH1 0x1 PUSH1 0x1 PUSH1 0xA0 SHL SUB AND ISZERO PUSH2 0x8A8 JUMPI PUSH1 0x40 MLOAD PUSH4 0xBCF2C77 PUSH1 0xE3 SHL DUP2 MSTORE PUSH1 0x4 ADD PUSH1 0x40 MLOAD DUP1 SWAP2 SUB SWAP1 REVERT JUMPDEST PUSH1 0x7 DUP1 SLOAD PUSH2 0x100 PUSH1 0x1 PUSH1 0xA8 SHL SUB NOT AND PUSH2 0x100 PUSH1 0x1 PUSH1 0x1 PUSH1 0xA0 SHL SUB DUP6 AND SWAP1 DUP2 MUL SWAP2 SWAP1 SWAP2 OR SWAP1 SWAP2 SSTORE PUSH1 0x40 MLOAD PUSH32 0xE7AE49F883C825B05681B3E00E8BE6FDEA9ED2A8A45E4C6ECB9390FC44CCE615 SWAP1 PUSH1 0x0 SWAP1 LOG2 POP POP JUMP JUMPDEST PUSH1 0x1 PUSH1 0x1 PUSH1 0xA0 SHL SUB DUP4 AND PUSH1 0x0 SWAP1 DUP2 MSTORE PUSH1 0x6 PUSH1 0x20 MSTORE PUSH1 0x40 DUP2 KECCAK256 SLOAD DUP3 SWAP1 PUSH2 0x91F DUP7 PUSH2 0xD3D JUMP JUMPDEST PUSH2 0x929 SWAP2 SWAP1 PUSH2 0x1CC8 JUMP JUMPDEST LT ISZERO PUSH2 0x948 JUMPI PUSH1 0x40 MLOAD PUSH4 0x2F992ABF PUSH1 0xE0 SHL DUP2 MSTORE PUSH1 0x4 ADD PUSH1 0x40 MLOAD DUP1 SWAP2 SUB SWAP1 REVERT JUMPDEST PUSH2 0x953 DUP5 DUP5 DUP5 PUSH2 0x15C3 JUMP JUMPDEST SWAP5 SWAP4 POP POP POP POP JUMP JUMPDEST PUSH1 0x0 PUSH2 0x966 DUP2 PUSH2 0x1567 JUMP JUMPDEST PUSH1 0x7 DUP1 SLOAD PUSH1 0xFF NOT AND DUP4 ISZERO ISZERO SWAP1 DUP2 OR SWAP1 SWAP2 SSTORE PUSH1 0x40 MLOAD SWAP1 DUP2 MSTORE CALLER SWAP1 PUSH32 0x60A5428ECA561D7FC92D217A2F3CA72FA49CE364B20E5CC90110BAE2A4149118 SWAP1 PUSH1 0x20 ADD PUSH1 0x40 MLOAD DUP1 SWAP2 SUB SWAP1 LOG2 POP POP JUMP JUMPDEST PUSH1 0x0 PUSH2 0x9BB DUP2 PUSH2 0x1567 JUMP JUMPDEST PUSH1 0x1 PUSH1 0x1 PUSH1 0xA0 SHL SUB DUP3 AND PUSH2 0x9E2 JUMPI PUSH1 0x40 MLOAD PUSH4 0xAACF746B PUSH1 0xE0 SHL DUP2 MSTORE PUSH1 0x4 ADD PUSH1 0x40 MLOAD DUP1 SWAP2 SUB SWAP1 REVERT JUMPDEST PUSH1 0x8 SLOAD PUSH1 0x1 PUSH1 0x1 PUSH1 0xA0 SHL SUB AND ISZERO PUSH2 0xA0C JUMPI PUSH1 0x40 MLOAD PUSH4 0xBCF2C77 PUSH1 0xE3 SHL DUP2 MSTORE PUSH1 0x4 ADD PUSH1 0x40 MLOAD DUP1 SWAP2 SUB SWAP1 REVERT JUMPDEST PUSH1 0x8 DUP1 SLOAD PUSH1 0x1 PUSH1 0x1 PUSH1 0xA0 SHL SUB NOT AND PUSH1 0x1 PUSH1 0x1 PUSH1 0xA0 SHL SUB DUP5 AND SWAP1 DUP2 OR SWAP1 SWAP2 SSTORE PUSH1 0x40 MLOAD PUSH32 0x2EDE59EDE14FC8A452F4D9C602AFEF004380E4A5BF668B99CA6580878A80A5C SWAP1 PUSH1 0x0 SWAP1 LOG2 POP POP JUMP JUMPDEST PUSH1 0x0 DUP3 DUP2 MSTORE PUSH1 0x5 PUSH1 0x20 MSTORE PUSH1 0x40 SWAP1 KECCAK256 PUSH1 0x1 ADD SLOAD PUSH2 0xA72 DUP2 PUSH2 0x1567 JUMP JUMPDEST PUSH2 0xA7C DUP4 DUP4 PUSH2 0x15E7 JUMP JUMPDEST POP POP POP POP JUMP JUMPDEST PUSH1 0x1 PUSH1 0x1 PUSH1 0xA0 SHL SUB DUP2 AND CALLER EQ PUSH2 0xAAB JUMPI PUSH1 0x40 MLOAD PUSH4 0x334BD919 PUSH1 0xE1 SHL DUP2 MSTORE PUSH1 0x4 ADD PUSH1 0x40 MLOAD DUP1 SWAP2 SUB SWAP1 REVERT JUMPDEST PUSH2 0xAB5 DUP3 DUP3 PUSH2 0x167B JUMP JUMPDEST POP POP POP JUMP JUMPDEST PUSH32 0x9F2DF0FED2C77648DE5860A4CC508CD0818C85B8B8A1AB4CEEEF8D981C8956A6 PUSH2 0xAE4 DUP2 PUSH2 0x1567 JUMP JUMPDEST PUSH2 0xAEC PUSH2 0x1571 JUMP JUMPDEST PUSH1 0x1 PUSH1 0x1 PUSH1 0xA0 SHL SUB DUP4 AND PUSH2 0xB13 JUMPI PUSH1 0x40 MLOAD PUSH4 0xAACF746B PUSH1 0xE0 SHL DUP2 MSTORE PUSH1 0x4 ADD PUSH1 0x40 MLOAD DUP1 SWAP2 SUB SWAP1 REVERT JUMPDEST PUSH10 0xD3C21BCECCEDA1000000 DUP3 PUSH2 0xB28 PUSH1 0x2 SLOAD SWAP1 JUMP JUMPDEST PUSH2 0xB32 SWAP2 SWAP1 PUSH2 0x1CB5 JUMP JUMPDEST GT ISZERO PUSH2 0xB51 JUMPI PUSH1 0x40 MLOAD PUSH4 0x2E1198F1 PUSH1 0xE1 SHL DUP2 MSTORE PUSH1 0x4 ADD PUSH1 0x40 MLOAD DUP1 SWAP2 SUB SWAP1 REVERT JUMPDEST PUSH2 0xB5B DUP4 DUP4 PUSH2 0x158D JUMP JUMPDEST PUSH1 0x40 DUP1 MLOAD DUP4 DUP2 MSTORE TIMESTAMP PUSH1 0x20 DUP3 ADD MSTORE PUSH1 0x1 PUSH1 0x1 PUSH1 0xA0 SHL SUB DUP6 AND SWAP2 PUSH1 0x0 DUP1 MLOAD PUSH1 0x20 PUSH2 0x1D0C DUP4 CODECOPY DUP2 MLOAD SWAP2 MSTORE SWAP2 ADD JUMPDEST PUSH1 0x40 MLOAD DUP1 SWAP2 SUB SWAP1 LOG2 PUSH2 0xAB5 PUSH1 0x1 PUSH1 0x0 DUP1 MLOAD PUSH1 0x20 PUSH2 0x1D2C DUP4 CODECOPY DUP2 MLOAD SWAP2 MSTORE SSTORE JUMP JUMPDEST PUSH2 0xBAC PUSH2 0x1571 JUMP JUMPDEST CALLER PUSH2 0xBCA JUMPI PUSH1 0x40 MLOAD PUSH4 0xAACF746B PUSH1 0xE0 SHL DUP2 MSTORE PUSH1 0x4 ADD PUSH1 0x40 MLOAD DUP1 SWAP2 SUB SWAP1 REVERT JUMPDEST CALLER PUSH1 0x0 SWAP1 DUP2 MSTORE PUSH1 0xA PUSH1 0x20 MSTORE PUSH1 0x40 SWAP1 KECCAK256 SLOAD PUSH1 0xFF AND ISZERO PUSH2 0xC24 JUMPI PUSH1 0x40 MLOAD PUSH3 0x461BCD PUSH1 0xE5 SHL DUP2 MSTORE PUSH1 0x20 PUSH1 0x4 DUP3 ADD MSTORE PUSH1 0x12 PUSH1 0x24 DUP3 ADD MSTORE PUSH18 0x105B1C9958591E481C9959DA5CDD195C9959 PUSH1 0x72 SHL PUSH1 0x44 DUP3 ADD MSTORE PUSH1 0x64 ADD JUMPDEST PUSH1 0x40 MLOAD DUP1 SWAP2 SUB SWAP1 REVERT JUMPDEST CALLER PUSH1 0x0 SWAP1 DUP2 MSTORE PUSH1 0xA PUSH1 0x20 MSTORE PUSH1 0x40 DUP2 KECCAK256 DUP1 SLOAD PUSH1 0xFF NOT AND PUSH1 0x1 OR SWAP1 SSTORE PUSH1 0xB DUP1 SLOAD SWAP2 PUSH2 0xC4C DUP4 PUSH2 0x1CDB JUMP JUMPDEST SWAP2 SWAP1 POP SSTORE POP PUSH10 0xD3C21BCECCEDA1000000 PUSH9 0x56BC75E2D63100000 PUSH2 0xC6F PUSH1 0x2 SLOAD SWAP1 JUMP JUMPDEST PUSH2 0xC79 SWAP2 SWAP1 PUSH2 0x1CB5 JUMP JUMPDEST GT PUSH2 0xCC3 JUMPI PUSH2 0xC91 CALLER PUSH9 0x56BC75E2D63100000 PUSH2 0x158D JUMP JUMPDEST PUSH1 0x40 DUP1 MLOAD PUSH9 0x56BC75E2D63100000 DUP2 MSTORE TIMESTAMP PUSH1 0x20 DUP3 ADD MSTORE CALLER SWAP2 PUSH1 0x0 DUP1 MLOAD PUSH1 0x20 PUSH2 0x1D0C DUP4 CODECOPY DUP2 MLOAD SWAP2 MSTORE SWAP2 ADD PUSH1 0x40 MLOAD DUP1 SWAP2 SUB SWAP1 LOG2 JUMPDEST PUSH1 0x40 MLOAD TIMESTAMP DUP2 MSTORE CALLER SWAP1 PUSH32 0x67E0244E28040FEC15240CD4B6C04C776A2A0278CAEF23B59E8ADA1DF31F7689 SWAP1 PUSH1 0x20 ADD PUSH1 0x40 MLOAD DUP1 SWAP2 SUB SWAP1 LOG2 PUSH2 0xD0F PUSH1 0x1 PUSH1 0x0 DUP1 MLOAD PUSH1 0x20 PUSH2 0x1D2C DUP4 CODECOPY DUP2 MLOAD SWAP2 MSTORE SSTORE JUMP JUMPDEST JUMP JUMPDEST PUSH1 0x1 PUSH1 0x1 PUSH1 0xA0 SHL SUB DUP2 AND PUSH1 0x0 SWAP1 DUP2 MSTORE PUSH1 0x6 PUSH1 0x20 MSTORE PUSH1 0x40 DUP2 KECCAK256 SLOAD PUSH2 0xD33 DUP4 PUSH2 0xD3D JUMP JUMPDEST PUSH2 0x68E SWAP2 SWAP1 PUSH2 0x1CC8 JUMP JUMPDEST PUSH1 0x1 PUSH1 0x1 PUSH1 0xA0 SHL SUB AND PUSH1 0x0 SWAP1 DUP2 MSTORE PUSH1 0x20 DUP2 SWAP1 MSTORE PUSH1 0x40 SWAP1 KECCAK256 SLOAD SWAP1 JUMP JUMPDEST PUSH32 0x41A3FFFBDA0F1C9E28BD52AE72187B3406590146B6CA8F19961D2250566EFD16 PUSH2 0xD82 DUP2 PUSH2 0x1567 JUMP JUMPDEST PUSH2 0xD8A PUSH2 0x1571 JUMP JUMPDEST PUSH1 0x1 PUSH1 0x1 PUSH1 0xA0 SHL SUB DUP3 AND PUSH2 0xDB1 JUMPI PUSH1 0x40 MLOAD PUSH4 0xAACF746B PUSH1 0xE0 SHL DUP2 MSTORE PUSH1 0x4 ADD PUSH1 0x40 MLOAD DUP1 SWAP2 SUB SWAP1 REVERT JUMPDEST PUSH1 0x1 PUSH1 0x1 PUSH1 0xA0 SHL SUB DUP3 AND PUSH1 0x0 SWAP1 DUP2 MSTORE PUSH1 0xA PUSH1 0x20 MSTORE PUSH1 0x40 SWAP1 KECCAK256 SLOAD PUSH1 0xFF AND ISZERO PUSH2 0xE0F JUMPI PUSH1 0x40 MLOAD PUSH3 0x461BCD PUSH1 0xE5 SHL DUP2 MSTORE PUSH1 0x20 PUSH1 0x4 DUP3 ADD MSTORE PUSH1 0x12 PUSH1 0x24 DUP3 ADD MSTORE PUSH18 0x105B1C9958591E481C9959DA5CDD195C9959 PUSH1 0x72 SHL PUSH1 0x44 DUP3 ADD MSTORE PUSH1 0x64 ADD PUSH2 0xC1B JUMP JUMPDEST PUSH1 0x1 PUSH1 0x1 PUSH1 0xA0 SHL SUB DUP3 AND PUSH1 0x0 SWAP1 DUP2 MSTORE PUSH1 0xA PUSH1 0x20 MSTORE PUSH1 0x40 DUP2 KECCAK256 DUP1 SLOAD PUSH1 0xFF NOT AND PUSH1 0x1 OR SWAP1 SSTORE PUSH1 0xB DUP1 SLOAD SWAP2 PUSH2 0xE40 DUP4 PUSH2 0x1CDB JUMP JUMPDEST SWAP2 SWAP1 POP SSTORE POP PUSH10 0xD3C21BCECCEDA1000000 PUSH9 0x56BC75E2D63100000 PUSH2 0xE63 PUSH1 0x2 SLOAD SWAP1 JUMP JUMPDEST PUSH2 0xE6D SWAP2 SWAP1 PUSH2 0x1CB5 JUMP JUMPDEST GT PUSH2 0xEC0 JUMPI PUSH2 0xE85 DUP3 PUSH9 0x56BC75E2D63100000 PUSH2 0x158D JUMP JUMPDEST PUSH1 0x40 DUP1 MLOAD PUSH9 0x56BC75E2D63100000 DUP2 MSTORE TIMESTAMP PUSH1 0x20 DUP3 ADD MSTORE PUSH1 0x1 PUSH1 0x1 PUSH1 0xA0 SHL SUB DUP5 AND SWAP2 PUSH1 0x0 DUP1 MLOAD PUSH1 0x20 PUSH2 0x1D0C DUP4 CODECOPY DUP2 MLOAD SWAP2 MSTORE SWAP2 ADD PUSH1 0x40 MLOAD DUP1 SWAP2 SUB SWAP1 LOG2 JUMPDEST DUP2 PUSH1 0x1 PUSH1 0x1 PUSH1 0xA0 SHL SUB AND PUSH32 0x67E0244E28040FEC15240CD4B6C04C776A2A0278CAEF23B59E8ADA1DF31F7689 TIMESTAMP PUSH1 0x40 MLOAD PUSH2 0x824 SWAP2 DUP2 MSTORE PUSH1 0x20 ADD SWAP1 JUMP JUMPDEST PUSH1 0x0 SWAP2 DUP3 MSTORE PUSH1 0x5 PUSH1 0x20 SWAP1 DUP2 MSTORE PUSH1 0x40 DUP1 DUP5 KECCAK256 PUSH1 0x1 PUSH1 0x1 PUSH1 0xA0 SHL SUB SWAP4 SWAP1 SWAP4 AND DUP5 MSTORE SWAP2 SWAP1 MSTORE SWAP1 KECCAK256 SLOAD PUSH1 0xFF AND SWAP1 JUMP JUMPDEST PUSH1 0x60 PUSH1 0x4 DUP1 SLOAD PUSH2 0x6A3 SWAP1 PUSH2 0x1C65 JUMP JUMPDEST PUSH32 0xAF9A8BB3CBD6B84FBCCEFA71FF73E26E798553C6914585A84886212A46A90279 PUSH2 0xF5F DUP2 PUSH2 0x1567 JUMP JUMPDEST PUSH2 0xF67 PUSH2 0x1571 JUMP JUMPDEST PUSH1 0x1 PUSH1 0x1 PUSH1 0xA0 SHL SUB DUP4 AND PUSH2 0xF8E JUMPI PUSH1 0x40 MLOAD PUSH4 0xAACF746B PUSH1 0xE0 SHL DUP2 MSTORE PUSH1 0x4 ADD PUSH1 0x40 MLOAD DUP1 SWAP2 SUB SWAP1 REVERT JUMPDEST PUSH1 0x1 PUSH1 0x1 PUSH1 0xA0 SHL SUB DUP4 AND PUSH1 0x0 SWAP1 DUP2 MSTORE PUSH1 0x6 PUSH1 0x20 MSTORE PUSH1 0x40 SWAP1 KECCAK256 SLOAD DUP3 GT ISZERO PUSH2 0xFC7 JUMPI PUSH1 0x40 MLOAD PUSH4 0x713CA3C1 PUSH1 0xE1 SHL DUP2 MSTORE PUSH1 0x4 ADD PUSH1 0x40 MLOAD DUP1 SWAP2 SUB SWAP1 REVERT JUMPDEST PUSH1 0x1 PUSH1 0x1 PUSH1 0xA0 SHL SUB DUP4 AND PUSH1 0x0 SWAP1 DUP2 MSTORE PUSH1 0x6 PUSH1 0x20 MSTORE PUSH1 0x40 DUP2 KECCAK256 DUP1 SLOAD DUP5 SWAP3 SWAP1 PUSH2 0xFEF SWAP1 DUP5 SWAP1 PUSH2 0x1CC8 JUMP JUMPDEST SWAP1 SWAP2 SSTORE POP POP PUSH1 0x40 DUP1 MLOAD DUP4 DUP2 MSTORE TIMESTAMP PUSH1 0x20 DUP3 ADD MSTORE PUSH1 0x1 PUSH1 0x1 PUSH1 0xA0 SHL SUB DUP6 AND SWAP2 PUSH32 0x89882AD382A3742D4DB24E4DABC5000C5852AED762904DB28442E4E1630A1D07 SWAP2 ADD PUSH2 0xB85 JUMP JUMPDEST PUSH32 0x3C11D16CBAFFD01DF69CE1C404F6340EE057498F5F00246190EA54220576A848 PUSH2 0x105E DUP2 PUSH2 0x1567 JUMP JUMPDEST PUSH2 0x1066 PUSH2 0x1571 JUMP JUMPDEST PUSH1 0x1 PUSH1 0x1 PUSH1 0xA0 SHL SUB DUP4 AND PUSH2 0x108D JUMPI PUSH1 0x40 MLOAD PUSH4 0xAACF746B PUSH1 0xE0 SHL DUP2 MSTORE PUSH1 0x4 ADD PUSH1 0x40 MLOAD DUP1 SWAP2 SUB SWAP1 REVERT JUMPDEST DUP2 PUSH2 0x1097 DUP5 PUSH2 0xD3D JUMP JUMPDEST LT ISZERO PUSH2 0x10B6 JUMPI PUSH1 0x40 MLOAD PUSH4 0x2F100E03 PUSH1 0xE1 SHL DUP2 MSTORE PUSH1 0x4 ADD PUSH1 0x40 MLOAD DUP1 SWAP2 SUB SWAP1 REVERT JUMPDEST PUSH2 0x10C0 DUP4 DUP4 PUSH2 0x16E8 JUMP JUMPDEST PUSH1 0x40 DUP1 MLOAD DUP4 DUP2 MSTORE TIMESTAMP PUSH1 0x20 DUP3 ADD MSTORE PUSH1 0x1 PUSH1 0x1 PUSH1 0xA0 SHL SUB DUP6 AND SWAP2 PUSH32 0xCCBEA4088A3B7AE9CA2D15FAB9A9742A4075B4D7247768A1EECEA917565ABA00 SWAP2 ADD PUSH2 0xB85 JUMP JUMPDEST CALLER PUSH1 0x0 DUP2 DUP2 MSTORE PUSH1 0x6 PUSH1 0x20 MSTORE PUSH1 0x40 DUP2 KECCAK256 SLOAD SWAP1 SWAP2 DUP4 SWAP2 SWAP1 PUSH2 0x111E SWAP1 PUSH2 0xD3D JUMP JUMPDEST PUSH2 0x1128 SWAP2 SWAP1 PUSH2 0x1CC8 JUMP JUMPDEST LT ISZERO PUSH2 0x1147 JUMPI PUSH1 0x40 MLOAD PUSH4 0x2F992ABF PUSH1 0xE0 SHL DUP2 MSTORE PUSH1 0x4 ADD PUSH1 0x40 MLOAD DUP1 SWAP2 SUB SWAP1 REVERT JUMPDEST PUSH2 0x1151 DUP4 DUP4 PUSH2 0x171E JUMP JUMPDEST SWAP4 SWAP3 POP POP POP JUMP JUMPDEST PUSH32 0xAF9A8BB3CBD6B84FBCCEFA71FF73E26E798553C6914585A84886212A46A90279 PUSH2 0x1182 DUP2 PUSH2 0x1567 JUMP JUMPDEST PUSH2 0x118A PUSH2 0x1571 JUMP JUMPDEST PUSH1 0x1 PUSH1 0x1 PUSH1 0xA0 SHL SUB DUP4 AND PUSH2 0x11B1 JUMPI PUSH1 0x40 MLOAD PUSH4 0xAACF746B PUSH1 0xE0 SHL DUP2 MSTORE PUSH1 0x4 ADD PUSH1 0x40 MLOAD DUP1 SWAP2 SUB SWAP1 REVERT JUMPDEST PUSH1 0x1 PUSH1 0x1 PUSH1 0xA0 SHL SUB DUP4 AND PUSH1 0x0 SWAP1 DUP2 MSTORE PUSH1 0x6 PUSH1 0x20 MSTORE PUSH1 0x40 SWAP1 KECCAK256 SLOAD DUP3 SWAP1 PUSH2 0x11D5 DUP6 PUSH2 0xD3D JUMP JUMPDEST PUSH2 0x11DF SWAP2 SWAP1 PUSH2 0x1CC8 JUMP JUMPDEST LT ISZERO PUSH2 0x11FE JUMPI PUSH1 0x40 MLOAD PUSH4 0x2F992ABF PUSH1 0xE0 SHL DUP2 MSTORE PUSH1 0x4 ADD PUSH1 0x40 MLOAD DUP1 SWAP2 SUB SWAP1 REVERT JUMPDEST PUSH1 0x1 PUSH1 0x1 PUSH1 0xA0 SHL SUB DUP4 AND PUSH1 0x0 SWAP1 DUP2 MSTORE PUSH1 0x6 PUSH1 0x20 MSTORE PUSH1 0x40 DUP2 KECCAK256 DUP1 SLOAD DUP5 SWAP3 SWAP1 PUSH2 0x1226 SWAP1 DUP5 SWAP1 PUSH2 0x1CB5 JUMP JUMPDEST SWAP1 SWAP2 SSTORE POP POP PUSH1 0x40 DUP1 MLOAD DUP4 DUP2 MSTORE TIMESTAMP PUSH1 0x20 DUP3 ADD MSTORE PUSH1 0x1 PUSH1 0x1 PUSH1 0xA0 SHL SUB DUP6 AND SWAP2 PUSH32 0xD741E738A23FD18A03A26522320D9FC6CAC1FED483E215EA9150FBC2FC43385D SWAP2 ADD PUSH2 0xB85 JUMP JUMPDEST PUSH1 0x1 PUSH1 0x1 PUSH1 0xA0 SHL SUB DUP2 AND PUSH1 0x0 SWAP1 DUP2 MSTORE PUSH1 0xA PUSH1 0x20 MSTORE PUSH1 0x40 DUP2 KECCAK256 SLOAD PUSH1 0xFF AND PUSH2 0x1292 JUMPI PUSH1 0x0 PUSH2 0x1295 JUMP JUMPDEST PUSH1 0x1 JUMPDEST PUSH1 0xFF AND SWAP3 SWAP2 POP POP JUMP JUMPDEST PUSH2 0x12A6 PUSH2 0x1571 JUMP JUMPDEST PUSH1 0x1 PUSH1 0x1 PUSH1 0xA0 SHL SUB DUP2 AND PUSH2 0x12CD JUMPI PUSH1 0x40 MLOAD PUSH4 0xAACF746B PUSH1 0xE0 SHL DUP2 MSTORE PUSH1 0x4 ADD PUSH1 0x40 MLOAD DUP1 SWAP2 SUB SWAP1 REVERT JUMPDEST PUSH1 0x1 PUSH1 0x1 PUSH1 0xA0 SHL SUB DUP2 AND PUSH1 0x0 SWAP1 DUP2 MSTORE PUSH1 0xA PUSH1 0x20 MSTORE PUSH1 0x40 SWAP1 KECCAK256 SLOAD PUSH1 0xFF AND PUSH2 0x1324 JUMPI PUSH1 0x40 MLOAD PUSH3 0x461BCD PUSH1 0xE5 SHL DUP2 MSTORE PUSH1 0x20 PUSH1 0x4 DUP3 ADD MSTORE PUSH1 0xC PUSH1 0x24 DUP3 ADD MSTORE PUSH12 0x2737BA10309036B2B6B132B9 PUSH1 0xA1 SHL PUSH1 0x44 DUP3 ADD MSTORE PUSH1 0x64 ADD PUSH2 0xC1B JUMP JUMPDEST PUSH2 0x134E PUSH32 0x41A3FFFBDA0F1C9E28BD52AE72187B3406590146B6CA8F19961D2250566EFD16 CALLER PUSH2 0xEFB JUMP JUMPDEST DUP1 PUSH2 0x135F JUMPI POP PUSH2 0x135F PUSH1 0x0 CALLER PUSH2 0xEFB JUMP JUMPDEST PUSH2 0x139C JUMPI PUSH1 0x40 MLOAD PUSH3 0x461BCD PUSH1 0xE5 SHL DUP2 MSTORE PUSH1 0x20 PUSH1 0x4 DUP3 ADD MSTORE PUSH1 0xE PUSH1 0x24 DUP3 ADD MSTORE PUSH14 0x139BDD08185D5D1A1BDC9A5E9959 PUSH1 0x92 SHL PUSH1 0x44 DUP3 ADD MSTORE PUSH1 0x64 ADD PUSH2 0xC1B JUMP JUMPDEST PUSH1 0x1 PUSH1 0x1 PUSH1 0xA0 SHL SUB DUP2 AND PUSH1 0x0 SWAP1 DUP2 MSTORE PUSH1 0xA PUSH1 0x20 MSTORE PUSH1 0x40 DUP2 KECCAK256 DUP1 SLOAD PUSH1 0xFF NOT AND SWAP1 SSTORE PUSH1 0xB DUP1 SLOAD SWAP2 PUSH2 0x13CA DUP4 PUSH2 0x1CF4 JUMP JUMPDEST SWAP2 SWAP1 POP SSTORE POP PUSH1 0x0 PUSH2 0x13DA DUP3 PUSH2 0xD3D JUMP JUMPDEST SWAP1 POP DUP1 ISZERO PUSH2 0x1430 JUMPI PUSH2 0x13EC DUP3 DUP3 PUSH2 0x16E8 JUMP JUMPDEST PUSH1 0x40 DUP1 MLOAD DUP3 DUP2 MSTORE TIMESTAMP PUSH1 0x20 DUP3 ADD MSTORE PUSH1 0x1 PUSH1 0x1 PUSH1 0xA0 SHL SUB DUP5 AND SWAP2 PUSH32 0xCCBEA4088A3B7AE9CA2D15FAB9A9742A4075B4D7247768A1EECEA917565ABA00 SWAP2 ADD PUSH1 0x40 MLOAD DUP1 SWAP2 SUB SWAP1 LOG2 JUMPDEST DUP2 PUSH1 0x1 PUSH1 0x1 PUSH1 0xA0 SHL SUB AND PUSH32 0xBF62ED977DBE8FAC296246C481DA9D7398F13C289ED4F178507B32D16A25F3AF TIMESTAMP PUSH1 0x40 MLOAD PUSH2 0x146B SWAP2 DUP2 MSTORE PUSH1 0x20 ADD SWAP1 JUMP JUMPDEST PUSH1 0x40 MLOAD DUP1 SWAP2 SUB SWAP1 LOG2 POP PUSH2 0x148B PUSH1 0x1 PUSH1 0x0 DUP1 MLOAD PUSH1 0x20 PUSH2 0x1D2C DUP4 CODECOPY DUP2 MLOAD SWAP2 MSTORE SSTORE JUMP JUMPDEST POP JUMP JUMPDEST PUSH1 0x0 DUP3 DUP2 MSTORE PUSH1 0x5 PUSH1 0x20 MSTORE PUSH1 0x40 SWAP1 KECCAK256 PUSH1 0x1 ADD SLOAD PUSH2 0x14A9 DUP2 PUSH2 0x1567 JUMP JUMPDEST PUSH2 0xA7C DUP4 DUP4 PUSH2 0x167B JUMP JUMPDEST PUSH1 0x0 PUSH2 0x14BE DUP2 PUSH2 0x1567 JUMP JUMPDEST PUSH1 0x1 PUSH1 0x1 PUSH1 0xA0 SHL SUB DUP3 AND PUSH2 0x14E5 JUMPI PUSH1 0x40 MLOAD PUSH4 0xAACF746B PUSH1 0xE0 SHL DUP2 MSTORE PUSH1 0x4 ADD PUSH1 0x40 MLOAD DUP1 SWAP2 SUB SWAP1 REVERT JUMPDEST PUSH1 0x9 SLOAD PUSH1 0x1 PUSH1 0x1 PUSH1 0xA0 SHL SUB AND ISZERO PUSH2 0x150F JUMPI PUSH1 0x40 MLOAD PUSH4 0xBCF2C77 PUSH1 0xE3 SHL DUP2 MSTORE PUSH1 0x4 ADD PUSH1 0x40 MLOAD DUP1 SWAP2 SUB SWAP1 REVERT JUMPDEST PUSH1 0x9 DUP1 SLOAD PUSH1 0x1 PUSH1 0x1 PUSH1 0xA0 SHL SUB NOT AND PUSH1 0x1 PUSH1 0x1 PUSH1 0xA0 SHL SUB DUP5 AND SWAP1 DUP2 OR SWAP1 SWAP2 SSTORE PUSH1 0x40 MLOAD PUSH32 0xF54CDF149CED77F64AEFA26253E0703062CC3F3BE92A9D759576F9741725B2A1 SWAP1 PUSH1 0x0 SWAP1 LOG2 POP POP JUMP JUMPDEST PUSH2 0xAB5 DUP4 DUP4 DUP4 PUSH1 0x1 PUSH2 0x172C JUMP JUMPDEST PUSH2 0x148B DUP2 CALLER PUSH2 0x1801 JUMP JUMPDEST PUSH2 0x1579 PUSH2 0x183A JUMP JUMPDEST PUSH1 0x2 PUSH1 0x0 DUP1 MLOAD PUSH1 0x20 PUSH2 0x1D2C DUP4 CODECOPY DUP2 MLOAD SWAP2 MSTORE SSTORE JUMP JUMPDEST PUSH1 0x1 PUSH1 0x1 PUSH1 0xA0 SHL SUB DUP3 AND PUSH2 0x15B7 JUMPI PUSH1 0x40 MLOAD PUSH4 0xEC442F05 PUSH1 0xE0 SHL DUP2 MSTORE PUSH1 0x0 PUSH1 0x4 DUP3 ADD MSTORE PUSH1 0x24 ADD PUSH2 0xC1B JUMP JUMPDEST PUSH2 0x843 PUSH1 0x0 DUP4 DUP4 PUSH2 0x186A JUMP JUMPDEST PUSH1 0x0 CALLER PUSH2 0x15D1 DUP6 DUP3 DUP6 PUSH2 0x18BD JUMP JUMPDEST PUSH2 0x15DC DUP6 DUP6 DUP6 PUSH2 0x1936 JUMP JUMPDEST POP PUSH1 0x1 SWAP5 SWAP4 POP POP POP POP JUMP JUMPDEST PUSH1 0x0 PUSH2 0x15F3 DUP4 DUP4 PUSH2 0xEFB JUMP JUMPDEST PUSH2 0x1673 JUMPI PUSH1 0x0 DUP4 DUP2 MSTORE PUSH1 0x5 PUSH1 0x20 SWAP1 DUP2 MSTORE PUSH1 0x40 DUP1 DUP4 KECCAK256 PUSH1 0x1 PUSH1 0x1 PUSH1 0xA0 SHL SUB DUP7 AND DUP5 MSTORE SWAP1 SWAP2 MSTORE SWAP1 KECCAK256 DUP1 SLOAD PUSH1 0xFF NOT AND PUSH1 0x1 OR SWAP1 SSTORE PUSH2 0x162B CALLER SWAP1 JUMP JUMPDEST PUSH1 0x1 PUSH1 0x1 PUSH1 0xA0 SHL SUB AND DUP3 PUSH1 0x1 PUSH1 0x1 PUSH1 0xA0 SHL SUB AND DUP5 PUSH32 0x2F8788117E7EFF1D82E926EC794901D17C78024A50270940304540A733656F0D PUSH1 0x40 MLOAD PUSH1 0x40 MLOAD DUP1 SWAP2 SUB SWAP1 LOG4 POP PUSH1 0x1 PUSH2 0x68E JUMP JUMPDEST POP PUSH1 0x0 PUSH2 0x68E JUMP JUMPDEST PUSH1 0x0 PUSH2 0x1687 DUP4 DUP4 PUSH2 0xEFB JUMP JUMPDEST ISZERO PUSH2 0x1673 JUMPI PUSH1 0x0 DUP4 DUP2 MSTORE PUSH1 0x5 PUSH1 0x20 SWAP1 DUP2 MSTORE PUSH1 0x40 DUP1 DUP4 KECCAK256 PUSH1 0x1 PUSH1 0x1 PUSH1 0xA0 SHL SUB DUP7 AND DUP1 DUP6 MSTORE SWAP3 MSTORE DUP1 DUP4 KECCAK256 DUP1 SLOAD PUSH1 0xFF NOT AND SWAP1 SSTORE MLOAD CALLER SWAP3 DUP7 SWAP2 PUSH32 0xF6391F5C32D9C69D2A47EA670B442974B53935D1EDC7FD64EB21E047A839171B SWAP2 SWAP1 LOG4 POP PUSH1 0x1 PUSH2 0x68E JUMP JUMPDEST PUSH1 0x1 PUSH1 0x1 PUSH1 0xA0 SHL SUB DUP3 AND PUSH2 0x1712 JUMPI PUSH1 0x40 MLOAD PUSH4 0x4B637E8F PUSH1 0xE1 SHL DUP2 MSTORE PUSH1 0x0 PUSH1 0x4 DUP3 ADD MSTORE PUSH1 0x24 ADD PUSH2 0xC1B JUMP JUMPDEST PUSH2 0x843 DUP3 PUSH1 0x0 DUP4 PUSH2 0x186A JUMP JUMPDEST PUSH1 0x0 CALLER PUSH2 0x734 DUP2 DUP6 DUP6 PUSH2 0x1936 JUMP JUMPDEST PUSH1 0x1 PUSH1 0x1 PUSH1 0xA0 SHL SUB DUP5 AND PUSH2 0x1756 JUMPI PUSH1 0x40 MLOAD PUSH4 0xE602DF05 PUSH1 0xE0 SHL DUP2 MSTORE PUSH1 0x0 PUSH1 0x4 DUP3 ADD MSTORE PUSH1 0x24 ADD PUSH2 0xC1B JUMP JUMPDEST PUSH1 0x1 PUSH1 0x1 PUSH1 0xA0 SHL SUB DUP4 AND PUSH2 0x1780 JUMPI PUSH1 0x40 MLOAD PUSH4 0x4A1406B1 PUSH1 0xE1 SHL DUP2 MSTORE PUSH1 0x0 PUSH1 0x4 DUP3 ADD MSTORE PUSH1 0x24 ADD PUSH2 0xC1B JUMP JUMPDEST PUSH1 0x1 PUSH1 0x1 PUSH1 0xA0 SHL SUB DUP1 DUP6 AND PUSH1 0x0 SWAP1 DUP2 MSTORE PUSH1 0x1 PUSH1 0x20 SWAP1 DUP2 MSTORE PUSH1 0x40 DUP1 DUP4 KECCAK256 SWAP4 DUP8 AND DUP4 MSTORE SWAP3 SWAP1 MSTORE KECCAK256 DUP3 SWAP1 SSTORE DUP1 ISZERO PUSH2 0xA7C JUMPI DUP3 PUSH1 0x1 PUSH1 0x1 PUSH1 0xA0 SHL SUB AND DUP5 PUSH1 0x1 PUSH1 0x1 PUSH1 0xA0 SHL SUB AND PUSH32 0x8C5BE1E5EBEC7D5BD14F71427D1E84F3DD0314C0F7B2291E5B200AC8C7C3B925 DUP5 PUSH1 0x40 MLOAD PUSH2 0x17F3 SWAP2 DUP2 MSTORE PUSH1 0x20 ADD SWAP1 JUMP JUMPDEST PUSH1 0x40 MLOAD DUP1 SWAP2 SUB SWAP1 LOG3 POP POP POP POP JUMP JUMPDEST PUSH2 0x180B DUP3 DUP3 PUSH2 0xEFB JUMP JUMPDEST PUSH2 0x843 JUMPI PUSH1 0x40 MLOAD PUSH4 0xE2517D3F PUSH1 0xE0 SHL DUP2 MSTORE PUSH1 0x1 PUSH1 0x1 PUSH1 0xA0 SHL SUB DUP3 AND PUSH1 0x4 DUP3 ADD MSTORE PUSH1 0x24 DUP2 ADD DUP4 SWAP1 MSTORE PUSH1 0x44 ADD PUSH2 0xC1B JUMP JUMPDEST PUSH1 0x0 DUP1 MLOAD PUSH1 0x20 PUSH2 0x1D2C DUP4 CODECOPY DUP2 MLOAD SWAP2 MSTORE SLOAD PUSH1 0x2 SUB PUSH2 0xD0F JUMPI PUSH1 0x40 MLOAD PUSH4 0x3EE5AEB5 PUSH1 0xE0 SHL DUP2 MSTORE PUSH1 0x4 ADD PUSH1 0x40 MLOAD DUP1 SWAP2 SUB SWAP1 REVERT JUMPDEST PUSH2 0x1875 DUP4 DUP4 DUP4 PUSH2 0x1995 JUMP JUMPDEST PUSH1 0x1 PUSH1 0x1 PUSH1 0xA0 SHL SUB DUP4 AND ISZERO DUP1 ISZERO SWAP1 PUSH2 0x1895 JUMPI POP PUSH1 0x1 PUSH1 0x1 PUSH1 0xA0 SHL SUB DUP3 AND ISZERO ISZERO JUMPDEST ISZERO PUSH2 0xAB5 JUMPI PUSH1 0x7 SLOAD PUSH1 0xFF AND PUSH2 0xAB5 JUMPI PUSH1 0x40 MLOAD PUSH4 0x202DA85 PUSH1 0xE1 SHL DUP2 MSTORE PUSH1 0x4 ADD PUSH1 0x40 MLOAD DUP1 SWAP2 SUB SWAP1 REVERT JUMPDEST PUSH1 0x1 PUSH1 0x1 PUSH1 0xA0 SHL SUB DUP4 DUP2 AND PUSH1 0x0 SWAP1 DUP2 MSTORE PUSH1 0x1 PUSH1 0x20 SWAP1 DUP2 MSTORE PUSH1 0x40 DUP1 DUP4 KECCAK256 SWAP4 DUP7 AND DUP4 MSTORE SWAP3 SWAP1 MSTORE KECCAK256 SLOAD PUSH1 0x0 NOT DUP2 LT ISZERO PUSH2 0xA7C JUMPI DUP2 DUP2 LT ISZERO PUSH2 0x1927 JUMPI PUSH1 0x40 MLOAD PUSH4 0x7DC7A0D9 PUSH1 0xE1 SHL DUP2 MSTORE PUSH1 0x1 PUSH1 0x1 PUSH1 0xA0 SHL SUB DUP5 AND PUSH1 0x4 DUP3 ADD MSTORE PUSH1 0x24 DUP2 ADD DUP3 SWAP1 MSTORE PUSH1 0x44 DUP2 ADD DUP4 SWAP1 MSTORE PUSH1 0x64 ADD PUSH2 0xC1B JUMP JUMPDEST PUSH2 0xA7C DUP5 DUP5 DUP5 DUP5 SUB PUSH1 0x0 PUSH2 0x172C JUMP JUMPDEST PUSH1 0x1 PUSH1 0x1 PUSH1 0xA0 SHL SUB DUP4 AND PUSH2 0x1960 JUMPI PUSH1 0x40 MLOAD PUSH4 0x4B637E8F PUSH1 0xE1 SHL DUP2 MSTORE PUSH1 0x0 PUSH1 0x4 DUP3 ADD MSTORE PUSH1 0x24 ADD PUSH2 0xC1B JUMP JUMPDEST PUSH1 0x1 PUSH1 0x1 PUSH1 0xA0 SHL SUB DUP3 AND PUSH2 0x198A JUMPI PUSH1 0x40 MLOAD PUSH4 0xEC442F05 PUSH1 0xE0 SHL DUP2 MSTORE PUSH1 0x0 PUSH1 0x4 DUP3 ADD MSTORE PUSH1 0x24 ADD PUSH2 0xC1B JUMP JUMPDEST PUSH2 0xAB5 DUP4 DUP4 DUP4 PUSH2 0x186A JUMP JUMPDEST PUSH1 0x1 PUSH1 0x1 PUSH1 0xA0 SHL SUB DUP4 AND PUSH2 0x19C0 JUMPI DUP1 PUSH1 0x2 PUSH1 0x0 DUP3 DUP3 SLOAD PUSH2 0x19B5 SWAP2 SWAP1 PUSH2 0x1CB5 JUMP JUMPDEST SWAP1 SWAP2 SSTORE POP PUSH2 0x1A32 SWAP1 POP JUMP JUMPDEST PUSH1 0x1 PUSH1 0x1 PUSH1 0xA0 SHL SUB DUP4 AND PUSH1 0x0 SWAP1 DUP2 MSTORE PUSH1 0x20 DUP2 SWAP1 MSTORE PUSH1 0x40 SWAP1 KECCAK256 SLOAD DUP2 DUP2 LT ISZERO PUSH2 0x1A13 JUMPI PUSH1 0x40 MLOAD PUSH4 0x391434E3 PUSH1 0xE2 SHL DUP2 MSTORE PUSH1 0x1 PUSH1 0x1 PUSH1 0xA0 SHL SUB DUP6 AND PUSH1 0x4 DUP3 ADD MSTORE PUSH1 0x24 DUP2 ADD DUP3 SWAP1 MSTORE PUSH1 0x44 DUP2 ADD DUP4 SWAP1 MSTORE PUSH1 0x64 ADD PUSH2 0xC1B JUMP JUMPDEST PUSH1 0x1 PUSH1 0x1 PUSH1 0xA0 SHL SUB DUP5 AND PUSH1 0x0 SWAP1 DUP2 MSTORE PUSH1 0x20 DUP2 SWAP1 MSTORE PUSH1 0x40 SWAP1 KECCAK256 SWAP1 DUP3 SWAP1 SUB SWAP1 SSTORE JUMPDEST PUSH1 0x1 PUSH1 0x1 PUSH1 0xA0 SHL SUB DUP3 AND PUSH2 0x1A4E JUMPI PUSH1 0x2 DUP1 SLOAD DUP3 SWAP1 SUB SWAP1 SSTORE PUSH2 0x1A6D JUMP JUMPDEST PUSH1 0x1 PUSH1 0x1 PUSH1 0xA0 SHL SUB DUP3 AND PUSH1 0x0 SWAP1 DUP2 MSTORE PUSH1 0x20 DUP2 SWAP1 MSTORE PUSH1 0x40 SWAP1 KECCAK256 DUP1 SLOAD DUP3 ADD SWAP1 SSTORE JUMPDEST DUP2 PUSH1 0x1 PUSH1 0x1 PUSH1 0xA0 SHL SUB AND DUP4 PUSH1 0x1 PUSH1 0x1 PUSH1 0xA0 SHL SUB AND PUSH32 0xDDF252AD1BE2C89B69C2B068FC378DAA952BA7F163C4A11628F55A4DF523B3EF DUP4 PUSH1 0x40 MLOAD PUSH2 0x1AB2 SWAP2 DUP2 MSTORE PUSH1 0x20 ADD SWAP1 JUMP JUMPDEST PUSH1 0x40 MLOAD DUP1 SWAP2 SUB SWAP1 LOG3 POP POP POP JUMP JUMPDEST PUSH1 0x0 PUSH1 0x20 DUP3 DUP5 SUB SLT ISZERO PUSH2 0x1AD1 JUMPI PUSH1 0x0 DUP1 REVERT JUMPDEST DUP2 CALLDATALOAD PUSH1 0x1 PUSH1 0x1 PUSH1 0xE0 SHL SUB NOT DUP2 AND DUP2 EQ PUSH2 0x1151 JUMPI PUSH1 0x0 DUP1 REVERT JUMPDEST PUSH1 0x0 PUSH1 0x20 DUP1 DUP4 MSTORE DUP4 MLOAD DUP1 DUP3 DUP6 ADD MSTORE PUSH1 0x0 JUMPDEST DUP2 DUP2 LT ISZERO PUSH2 0x1B16 JUMPI DUP6 DUP2 ADD DUP4 ADD MLOAD DUP6 DUP3 ADD PUSH1 0x40 ADD MSTORE DUP3 ADD PUSH2 0x1AFA JUMP JUMPDEST POP PUSH1 0x0 PUSH1 0x40 DUP3 DUP7 ADD ADD MSTORE PUSH1 0x40 PUSH1 0x1F NOT PUSH1 0x1F DUP4 ADD AND DUP6 ADD ADD SWAP3 POP POP POP SWAP3 SWAP2 POP POP JUMP JUMPDEST DUP1 CALLDATALOAD PUSH1 0x1 PUSH1 0x1 PUSH1 0xA0 SHL SUB DUP2 AND DUP2 EQ PUSH2 0x1B4E JUMPI PUSH1 0x0 DUP1 REVERT JUMPDEST SWAP2 SWAP1 POP JUMP JUMPDEST PUSH1 0x0 DUP1 PUSH1 0x40 DUP4 DUP6 SUB SLT ISZERO PUSH2 0x1B66 JUMPI PUSH1 0x0 DUP1 REVERT JUMPDEST PUSH2 0x1B6F DUP4 PUSH2 0x1B37 JUMP JUMPDEST SWAP5 PUSH1 0x20 SWAP4 SWAP1 SWAP4 ADD CALLDATALOAD SWAP4 POP POP POP JUMP JUMPDEST PUSH1 0x0 PUSH1 0x20 DUP3 DUP5 SUB SLT ISZERO PUSH2 0x1B8F JUMPI PUSH1 0x0 DUP1 REVERT JUMPDEST PUSH2 0x1151 DUP3 PUSH2 0x1B37 JUMP JUMPDEST PUSH1 0x0 DUP1 PUSH1 0x0 PUSH1 0x60 DUP5 DUP7 SUB SLT ISZERO PUSH2 0x1BAD JUMPI PUSH1 0x0 DUP1 REVERT JUMPDEST PUSH2 0x1BB6 DUP5 PUSH2 0x1B37 JUMP JUMPDEST SWAP3 POP PUSH2 0x1BC4 PUSH1 0x20 DUP6 ADD PUSH2 0x1B37 JUMP JUMPDEST SWAP2 POP PUSH1 0x40 DUP5 ADD CALLDATALOAD SWAP1 POP SWAP3 POP SWAP3 POP SWAP3 JUMP JUMPDEST PUSH1 0x0 PUSH1 0x20 DUP3 DUP5 SUB SLT ISZERO PUSH2 0x1BE6 JUMPI PUSH1 0x0 DUP1 REVERT JUMPDEST POP CALLDATALOAD SWAP2 SWAP1 POP JUMP JUMPDEST PUSH1 0x0 PUSH1 0x20 DUP3 DUP5 SUB SLT ISZERO PUSH2 0x1BFF JUMPI PUSH1 0x0 DUP1 REVERT JUMPDEST DUP2 CALLDATALOAD DUP1 ISZERO ISZERO DUP2 EQ PUSH2 0x1151 JUMPI PUSH1 0x0 DUP1 REVERT JUMPDEST PUSH1 0x0 DUP1 PUSH1 0x40 DUP4 DUP6 SUB SLT ISZERO PUSH2 0x1C22 JUMPI PUSH1 0x0 DUP1 REVERT JUMPDEST DUP3 CALLDATALOAD SWAP2 POP PUSH2 0x1C32 PUSH1 0x20 DUP5 ADD PUSH2 0x1B37 JUMP JUMPDEST SWAP1 POP SWAP3 POP SWAP3 SWAP1 POP JUMP JUMPDEST PUSH1 0x0 DUP1 PUSH1 0x40 DUP4 DUP6 SUB SLT ISZERO PUSH2 0x1C4E JUMPI PUSH1 0x0 DUP1 REVERT JUMPDEST PUSH2 0x1C57 DUP4 PUSH2 0x1B37 JUMP JUMPDEST SWAP2 POP PUSH2 0x1C32 PUSH1 0x20 DUP5 ADD PUSH2 0x1B37 JUMP JUMPDEST PUSH1 0x1 DUP2 DUP2 SHR SWAP1 DUP3 AND DUP1 PUSH2 0x1C79 JUMPI PUSH1 0x7F DUP3 AND SWAP2 POP JUMPDEST PUSH1 0x20 DUP3 LT DUP2 SUB PUSH2 0x1C99 JUMPI PUSH4 0x4E487B71 PUSH1 0xE0 SHL PUSH1 0x0 MSTORE PUSH1 0x22 PUSH1 0x4 MSTORE PUSH1 0x24 PUSH1 0x0 REVERT JUMPDEST POP SWAP2 SWAP1 POP JUMP JUMPDEST PUSH4 0x4E487B71 PUSH1 0xE0 SHL PUSH1 0x0 MSTORE PUSH1 0x11 PUSH1 0x4 MSTORE PUSH1 0x24 PUSH1 0x0 REVERT JUMPDEST DUP1 DUP3 ADD DUP1 DUP3 GT ISZERO PUSH2 0x68E JUMPI PUSH2 0x68E PUSH2 0x1C9F JUMP JUMPDEST DUP2 DUP2 SUB DUP2 DUP2 GT ISZERO PUSH2 0x68E JUMPI PUSH2 0x68E PUSH2 0x1C9F JUMP JUMPDEST PUSH1 0x0 PUSH1 0x1 DUP3 ADD PUSH2 0x1CED JUMPI PUSH2 0x1CED PUSH2 0x1C9F JUMP JUMPDEST POP PUSH1 0x1 ADD SWAP1 JUMP JUMPDEST PUSH1 0x0 DUP2 PUSH2 0x1D03 JUMPI PUSH2 0x1D03 PUSH2 0x1C9F JUMP JUMPDEST POP PUSH1 0x0 NOT ADD SWAP1 JUMP INVALID 0x2E DUP11 0xC5 OR PUSH27 0x616F2AEC08C3048F5021E4E9743ECE034E8D83BA5CAF76688BB475 SWAP12 PUSH24 0x9B17422D0DF92223018B32B4D1FA46E071723D6817E2486D STOP EXTCODESIZE 0xEC 0xC5 PUSH0 STOP LOG2 PUSH5 0x6970667358 0x22 SLT KECCAK256 PUSH18 0x27D58A56D2D7ED0ACF863AA19F66112E8097 0xAF 0xF7 0xB7 0x28 0xD5 ORIGIN 0x2A 0xB4 ADDRESS 0xBD 0xD8 0x22 0xE8 PUSH5 0x736F6C6343 STOP ADDMOD EQ STOP CALLER "},"methodIdentifiers":{"BURNER_ROLE()":"282c51f3","DEFAULT_ADMIN_ROLE()":"a217fddf","DEFAULT_MINT_AMOUNT()":"ab466a8d","LOCKER_ROLE()":"f3621367","MAX_SUPPLY()":"32cb6b0c","MEMBERSHIP_ROLE()":"df37bb19","MINTER_ROLE()":"d5391393","allowance(address,address)":"dd62ed3e","approve(address,uint256)":"095ea7b3","balanceOf(address)":"70a08231","burn(address,uint256)":"9dc29fac","decimals()":"313ce567","getAvailableBalance(address)":"6c24a76f","getLockedBalance(address)":"c4086893","getMemberCount()":"997072f7","getRoleAdmin(bytes32)":"248a9ca3","getVotingPower(address)":"bb4d4436","grantRole(bytes32,address)":"2f2ff15d","hasRole(bytes32,address)":"91d14854","isRegisteredMember(address)":"6a6b9a61","lakomiGovern()":"df817a71","lakomiLoans()":"ae20600b","lakomiVault()":"2144d0b9","lockTokens(address,uint256)":"b1c25586","memberCount()":"11aee380","mint(address,uint256)":"40c10f19","mintDefault(address)":"1ad33033","name()":"06fdde03","registerMember()":"60f8dd7e","registerMemberAdmin(address)":"901786c9","renounceRole(bytes32,address)":"36568abe","revokeMembership(address)":"c5ae086a","revokeRole(bytes32,address)":"d547741f","setLakomiGovern(address)":"2c4fbd2d","setLakomiLoans(address)":"dcab10d6","setLakomiVault(address)":"21a52799","setTransfersEnabled(bool)":"26b9ce13","supportsInterface(bytes4)":"01ffc9a7","symbol()":"95d89b41","totalSupply()":"18160ddd","transfer(address,uint256)":"a9059cbb","transferFrom(address,address,uint256)":"23b872dd","transfersEnabled()":"bef97c87","unlockTokens(address,uint256)":"9d564d9a"}}}}}