{"contracts/LakomiGovern.sol":{"LakomiGovern":{"abi":[{"inputs":[{"internalType":"address","name":"_token","type":"address"},{"internalType":"uint256","name":"_votingPeriod","type":"uint256"},{"internalType":"uint256","name":"_quorumNumerator","type":"uint256"},{"internalType":"uint256","name":"_executionTimelock","type":"uint256"}],"stateMutability":"nonpayable","type":"constructor"},{"inputs":[],"name":"AccessControlBadConfirmation","type":"error"},{"inputs":[{"internalType":"address","name":"account","type":"address"},{"internalType":"bytes32","name":"neededRole","type":"bytes32"}],"name":"AccessControlUnauthorizedAccount","type":"error"},{"inputs":[],"name":"EnforcedPause","type":"error"},{"inputs":[],"name":"ExpectedPause","type":"error"},{"inputs":[],"name":"LakomiGovern__AlreadyExecuted","type":"error"},{"inputs":[],"name":"LakomiGovern__AlreadyVoted","type":"error"},{"inputs":[],"name":"LakomiGovern__EmptyDescription","type":"error"},{"inputs":[],"name":"LakomiGovern__ExecutionFailed","type":"error"},{"inputs":[],"name":"LakomiGovern__NotPengawas","type":"error"},{"inputs":[],"name":"LakomiGovern__NotProposer","type":"error"},{"inputs":[],"name":"LakomiGovern__NotRegisteredMember","type":"error"},{"inputs":[],"name":"LakomiGovern__ProposalNotActive","type":"error"},{"inputs":[],"name":"LakomiGovern__ProposalNotSucceeded","type":"error"},{"inputs":[],"name":"LakomiGovern__ProposalVetoed","type":"error"},{"inputs":[],"name":"LakomiGovern__RATNotDue","type":"error"},{"inputs":[],"name":"LakomiGovern__TimelockNotMet","type":"error"},{"inputs":[],"name":"LakomiGovern__ZeroAddress","type":"error"},{"inputs":[],"name":"ReentrancyGuardReentrantCall","type":"error"},{"anonymous":false,"inputs":[{"indexed":false,"internalType":"address","name":"account","type":"address"}],"name":"Paused","type":"event"},{"anonymous":false,"inputs":[{"indexed":true,"internalType":"uint256","name":"id","type":"uint256"}],"name":"ProposalCanceled","type":"event"},{"anonymous":false,"inputs":[{"indexed":true,"internalType":"uint256","name":"id","type":"uint256"},{"indexed":true,"internalType":"address","name":"proposer","type":"address"},{"indexed":false,"internalType":"string","name":"description","type":"string"},{"indexed":false,"internalType":"uint256","name":"startTime","type":"uint256"},{"indexed":false,"internalType":"uint256","name":"endTime","type":"uint256"}],"name":"ProposalCreated","type":"event"},{"anonymous":false,"inputs":[{"indexed":true,"internalType":"uint256","name":"id","type":"uint256"}],"name":"ProposalExecuted","type":"event"},{"anonymous":false,"inputs":[{"indexed":true,"internalType":"uint256","name":"id","type":"uint256"},{"indexed":false,"internalType":"uint256","name":"eta","type":"uint256"}],"name":"ProposalQueued","type":"event"},{"anonymous":false,"inputs":[{"indexed":true,"internalType":"uint256","name":"id","type":"uint256"},{"indexed":true,"internalType":"address","name":"pengawas","type":"address"}],"name":"ProposalVetoed","type":"event"},{"anonymous":false,"inputs":[{"indexed":true,"internalType":"uint256","name":"proposalId","type":"uint256"},{"indexed":false,"internalType":"uint256","name":"scheduledTime","type":"uint256"}],"name":"RATScheduled","type":"event"},{"anonymous":false,"inputs":[{"indexed":true,"internalType":"bytes32","name":"role","type":"bytes32"},{"indexed":true,"internalType":"bytes32","name":"previousAdminRole","type":"bytes32"},{"indexed":true,"internalType":"bytes32","name":"newAdminRole","type":"bytes32"}],"name":"RoleAdminChanged","type":"event"},{"anonymous":false,"inputs":[{"indexed":true,"internalType":"bytes32","name":"role","type":"bytes32"},{"indexed":true,"internalType":"address","name":"account","type":"address"},{"indexed":true,"internalType":"address","name":"sender","type":"address"}],"name":"RoleGranted","type":"event"},{"anonymous":false,"inputs":[{"indexed":true,"internalType":"bytes32","name":"role","type":"bytes32"},{"indexed":true,"internalType":"address","name":"account","type":"address"},{"indexed":true,"internalType":"address","name":"sender","type":"address"}],"name":"RoleRevoked","type":"event"},{"anonymous":false,"inputs":[{"indexed":false,"internalType":"address","name":"account","type":"address"}],"name":"Unpaused","type":"event"},{"anonymous":false,"inputs":[{"indexed":true,"internalType":"uint256","name":"proposalId","type":"uint256"},{"indexed":true,"internalType":"address","name":"voter","type":"address"},{"indexed":false,"internalType":"enum LakomiGovern.Vote","name":"support","type":"uint8"}],"name":"VoteCast","type":"event"},{"inputs":[],"name":"DEFAULT_ADMIN_ROLE","outputs":[{"internalType":"bytes32","name":"","type":"bytes32"}],"stateMutability":"view","type":"function"},{"inputs":[],"name":"PENGAWAS_ROLE","outputs":[{"internalType":"bytes32","name":"","type":"bytes32"}],"stateMutability":"view","type":"function"},{"inputs":[],"name":"QUORUM_DENOMINATOR","outputs":[{"internalType":"uint256","name":"","type":"uint256"}],"stateMutability":"view","type":"function"},{"inputs":[{"internalType":"uint256","name":"proposalId","type":"uint256"}],"name":"cancel","outputs":[],"stateMutability":"nonpayable","type":"function"},{"inputs":[{"internalType":"uint256","name":"proposalId","type":"uint256"},{"internalType":"enum LakomiGovern.Vote","name":"support","type":"uint8"}],"name":"castVote","outputs":[],"stateMutability":"nonpayable","type":"function"},{"inputs":[{"internalType":"uint256","name":"proposalId","type":"uint256"},{"internalType":"enum LakomiGovern.Vote","name":"support","type":"uint8"},{"internalType":"string","name":"","type":"string"}],"name":"castVoteWithReason","outputs":[],"stateMutability":"nonpayable","type":"function"},{"inputs":[{"internalType":"string","name":"description","type":"string"},{"internalType":"enum LakomiGovern.ProposalType","name":"_proposalType","type":"uint8"},{"internalType":"address","name":"target","type":"address"},{"internalType":"uint256","name":"value","type":"uint256"},{"internalType":"bytes","name":"callData","type":"bytes"}],"name":"createProposal","outputs":[{"internalType":"uint256","name":"","type":"uint256"}],"stateMutability":"nonpayable","type":"function"},{"inputs":[{"internalType":"uint256","name":"proposalId","type":"uint256"}],"name":"execute","outputs":[],"stateMutability":"nonpayable","type":"function"},{"inputs":[],"name":"executionTimelock","outputs":[{"internalType":"uint256","name":"","type":"uint256"}],"stateMutability":"view","type":"function"},{"inputs":[{"internalType":"bytes32","name":"role","type":"bytes32"}],"name":"getRoleAdmin","outputs":[{"internalType":"bytes32","name":"","type":"bytes32"}],"stateMutability":"view","type":"function"},{"inputs":[{"internalType":"bytes32","name":"role","type":"bytes32"},{"internalType":"address","name":"account","type":"address"}],"name":"grantRole","outputs":[],"stateMutability":"nonpayable","type":"function"},{"inputs":[{"internalType":"bytes32","name":"role","type":"bytes32"},{"internalType":"address","name":"account","type":"address"}],"name":"hasRole","outputs":[{"internalType":"bool","name":"","type":"bool"}],"stateMutability":"view","type":"function"},{"inputs":[{"internalType":"uint256","name":"","type":"uint256"},{"internalType":"address","name":"","type":"address"}],"name":"hasVoted","outputs":[{"internalType":"bool","name":"","type":"bool"}],"stateMutability":"view","type":"function"},{"inputs":[],"name":"isRATDue","outputs":[{"internalType":"bool","name":"","type":"bool"}],"stateMutability":"view","type":"function"},{"inputs":[],"name":"lastRATTime","outputs":[{"internalType":"uint256","name":"","type":"uint256"}],"stateMutability":"view","type":"function"},{"inputs":[],"name":"pause","outputs":[],"stateMutability":"nonpayable","type":"function"},{"inputs":[],"name":"paused","outputs":[{"internalType":"bool","name":"","type":"bool"}],"stateMutability":"view","type":"function"},{"inputs":[],"name":"pengawasPause","outputs":[],"stateMutability":"nonpayable","type":"function"},{"inputs":[{"internalType":"uint256","name":"","type":"uint256"}],"name":"proposalAbstainVotes","outputs":[{"internalType":"uint256","name":"","type":"uint256"}],"stateMutability":"view","type":"function"},{"inputs":[{"internalType":"uint256","name":"","type":"uint256"}],"name":"proposalAgainstVotes","outputs":[{"internalType":"uint256","name":"","type":"uint256"}],"stateMutability":"view","type":"function"},{"inputs":[{"internalType":"uint256","name":"","type":"uint256"}],"name":"proposalCallData","outputs":[{"internalType":"bytes","name":"","type":"bytes"}],"stateMutability":"view","type":"function"},{"inputs":[{"internalType":"uint256","name":"","type":"uint256"}],"name":"proposalCanceled","outputs":[{"internalType":"bool","name":"","type":"bool"}],"stateMutability":"view","type":"function"},{"inputs":[],"name":"proposalCount","outputs":[{"internalType":"uint256","name":"","type":"uint256"}],"stateMutability":"view","type":"function"},{"inputs":[{"internalType":"uint256","name":"","type":"uint256"}],"name":"proposalDescription","outputs":[{"internalType":"string","name":"","type":"string"}],"stateMutability":"view","type":"function"},{"inputs":[{"internalType":"uint256","name":"","type":"uint256"}],"name":"proposalEndTime","outputs":[{"internalType":"uint256","name":"","type":"uint256"}],"stateMutability":"view","type":"function"},{"inputs":[{"internalType":"uint256","name":"","type":"uint256"}],"name":"proposalExecuted","outputs":[{"internalType":"bool","name":"","type":"bool"}],"stateMutability":"view","type":"function"},{"inputs":[{"internalType":"uint256","name":"","type":"uint256"}],"name":"proposalForVotes","outputs":[{"internalType":"uint256","name":"","type":"uint256"}],"stateMutability":"view","type":"function"},{"inputs":[{"internalType":"uint256","name":"","type":"uint256"}],"name":"proposalProposer","outputs":[{"internalType":"address","name":"","type":"address"}],"stateMutability":"view","type":"function"},{"inputs":[{"internalType":"uint256","name":"","type":"uint256"}],"name":"proposalQueuedTime","outputs":[{"internalType":"uint256","name":"","type":"uint256"}],"stateMutability":"view","type":"function"},{"inputs":[{"internalType":"uint256","name":"","type":"uint256"}],"name":"proposalStartTime","outputs":[{"internalType":"uint256","name":"","type":"uint256"}],"stateMutability":"view","type":"function"},{"inputs":[{"internalType":"uint256","name":"","type":"uint256"}],"name":"proposalTarget","outputs":[{"internalType":"address","name":"","type":"address"}],"stateMutability":"view","type":"function"},{"inputs":[{"internalType":"uint256","name":"","type":"uint256"}],"name":"proposalType","outputs":[{"internalType":"enum LakomiGovern.ProposalType","name":"","type":"uint8"}],"stateMutability":"view","type":"function"},{"inputs":[{"internalType":"uint256","name":"","type":"uint256"}],"name":"proposalValue","outputs":[{"internalType":"uint256","name":"","type":"uint256"}],"stateMutability":"view","type":"function"},{"inputs":[{"internalType":"uint256","name":"","type":"uint256"}],"name":"proposalVetoed","outputs":[{"internalType":"bool","name":"","type":"bool"}],"stateMutability":"view","type":"function"},{"inputs":[{"internalType":"uint256","name":"proposalId","type":"uint256"}],"name":"queue","outputs":[],"stateMutability":"nonpayable","type":"function"},{"inputs":[],"name":"quorum","outputs":[{"internalType":"uint256","name":"","type":"uint256"}],"stateMutability":"view","type":"function"},{"inputs":[],"name":"quorumNumerator","outputs":[{"internalType":"uint256","name":"","type":"uint256"}],"stateMutability":"view","type":"function"},{"inputs":[],"name":"ratPeriod","outputs":[{"internalType":"uint256","name":"","type":"uint256"}],"stateMutability":"view","type":"function"},{"inputs":[{"internalType":"bytes32","name":"role","type":"bytes32"},{"internalType":"address","name":"callerConfirmation","type":"address"}],"name":"renounceRole","outputs":[],"stateMutability":"nonpayable","type":"function"},{"inputs":[{"internalType":"bytes32","name":"role","type":"bytes32"},{"internalType":"address","name":"account","type":"address"}],"name":"revokeRole","outputs":[],"stateMutability":"nonpayable","type":"function"},{"inputs":[{"internalType":"string","name":"description","type":"string"}],"name":"scheduleAnnualRAT","outputs":[{"internalType":"uint256","name":"","type":"uint256"}],"stateMutability":"nonpayable","type":"function"},{"inputs":[{"internalType":"uint256","name":"newTimelock","type":"uint256"}],"name":"setExecutionTimelock","outputs":[],"stateMutability":"nonpayable","type":"function"},{"inputs":[{"internalType":"uint256","name":"newQuorum","type":"uint256"}],"name":"setQuorumNumerator","outputs":[],"stateMutability":"nonpayable","type":"function"},{"inputs":[{"internalType":"uint256","name":"newPeriod","type":"uint256"}],"name":"setVotingPeriod","outputs":[],"stateMutability":"nonpayable","type":"function"},{"inputs":[{"internalType":"uint256","name":"proposalId","type":"uint256"}],"name":"state","outputs":[{"internalType":"enum LakomiGovern.ProposalState","name":"","type":"uint8"}],"stateMutability":"view","type":"function"},{"inputs":[{"internalType":"bytes4","name":"interfaceId","type":"bytes4"}],"name":"supportsInterface","outputs":[{"internalType":"bool","name":"","type":"bool"}],"stateMutability":"view","type":"function"},{"inputs":[],"name":"timeUntilNextRAT","outputs":[{"internalType":"uint256","name":"","type":"uint256"}],"stateMutability":"view","type":"function"},{"inputs":[],"name":"token","outputs":[{"internalType":"contract LakomiToken","name":"","type":"address"}],"stateMutability":"view","type":"function"},{"inputs":[],"name":"unpause","outputs":[],"stateMutability":"nonpayable","type":"function"},{"inputs":[],"name":"vaultAddress","outputs":[{"internalType":"address","name":"","type":"address"}],"stateMutability":"view","type":"function"},{"inputs":[{"internalType":"uint256","name":"proposalId","type":"uint256"}],"name":"vetoProposal","outputs":[],"stateMutability":"nonpayable","type":"function"},{"inputs":[{"internalType":"uint256","name":"","type":"uint256"},{"internalType":"address","name":"","type":"address"}],"name":"voteChoice","outputs":[{"internalType":"enum LakomiGovern.Vote","name":"","type":"uint8"}],"stateMutability":"view","type":"function"},{"inputs":[],"name":"votingPeriod","outputs":[{"internalType":"uint256","name":"","type":"uint256"}],"stateMutability":"view","type":"function"}],"evm":{"bytecode":{"linkReferences":{},"object":"60a06040523480156200001157600080fd5b506040516200235a3803806200235a833981016040819052620000349162000198565b60017f9b779b17422d0df92223018b32b4d1fa46e071723d6817e2486d003becc55f00556001600160a01b03841662000080576040516396a8520b60e01b815260040160405180910390fd5b6001600160a01b0384166080526002839055600382905560048190556301e13380601755620000b1600033620000e9565b50620000de7fb02c64f0c28be59776465b163fa919b01da504b3a5dda0ee188fa6d028017ec333620000e9565b5050505050620001e5565b6000828152602081815260408083206001600160a01b038516845290915281205460ff166200018e576000838152602081815260408083206001600160a01b03861684529091529020805460ff19166001179055620001453390565b6001600160a01b0316826001600160a01b0316847f2f8788117e7eff1d82e926ec794901d17c78024a50270940304540a733656f0d60405160405180910390a450600162000192565b5060005b92915050565b60008060008060808587031215620001af57600080fd5b84516001600160a01b0381168114620001c757600080fd5b60208601516040870151606090970151919890975090945092505050565b60805161213d6200021d600039600081816107f00152818161087b01528181610ac401528181610cb50152611787015261213d6000f3fe608060405234801561001057600080fd5b50600436106103275760003560e01c806377806118116101b8578063bd468fe611610104578063da35c664116100a2578063eb580dfe1161007c578063eb580dfe146107a8578063fb468855146107b0578063fc0c546a146107eb578063fe0d94c11461081257600080fd5b8063da35c66414610779578063ddf0b00914610782578063ea0217cf1461079557600080fd5b8063ca2525f6116100de578063ca2525f6146106ff578063d00a9f061461071f578063d3bc2b8d1461073f578063d547741f1461076657600080fd5b8063bd468fe61461069c578063bd6af848146106bc578063c8bb4dd5146106df57600080fd5b80639c92fbc311610171578063a7e228601161014b578063a7e2286014610657578063a8f6bc2d14610677578063abddc32714610680578063bb0fd7571461069357600080fd5b80639c92fbc314610626578063a217fddf14610646578063a7713a701461064e57600080fd5b806377806118146105c757806378223af3146105d05780637b3c71d3146105d85780638456cb59146105eb57806391d14854146105f3578063946164511461060657600080fd5b80633e4f49e61161027757806356781388116102305780636e18113c1161020a5780636e18113c146105765780636f65108c146105995780636fef541a146105ac578063737594ce146105b457600080fd5b8063567813881461052f5780635c975abb146105425780635dc4d8a61461054d57600080fd5b80633e4f49e6146104ab5780633f4ba83a146104cb57806340e58ee5146104d3578063430bf08a146104e657806343859632146104f95780634cd2fc401461052757600080fd5b8063248a9ca3116102e45780632f2ff15d116102be5780632f2ff15d1461045257806336568abe146104655780633830fdea146104785780633a29f8591461049857600080fd5b8063248a9ca3146103ea5780632a09c7721461040d5780632ce809151461043d57600080fd5b806301ffc9a71461032c57806302a251a314610354578063103616e81461036b57806313e112921461038e578063143489d0146103a15780631703a018146103e2575b600080fd5b61033f61033a366004611a4b565b610825565b60405190151581526020015b60405180910390f35b61035d60025481565b60405190815260200161034b565b61033f610379366004611a7c565b60126020526000908152604090205460ff1681565b61035d61039c366004611ade565b61085c565b6103ca6103af366004611a7c565b6006602052600090815260409020546001600160a01b031681565b6040516001600160a01b03909116815260200161034b565b61035d610abf565b61035d6103f8366004611a7c565b60009081526020819052604090206001015490565b61043061041b366004611a7c565b60086020526000908152604090205460ff1681565b60405161034b9190611b36565b61045061044b366004611a7c565b610b66565b005b610450610460366004611b6c565b610b77565b610450610473366004611b6c565b610ba2565b61048b610486366004611a7c565b610bda565b60405161034b9190611bde565b61035d6104a6366004611bf1565b610c74565b6104be6104b9366004611a7c565b610e9d565b60405161034b9190611c95565b61045061101b565b6104506104e1366004611a7c565b611031565b6019546103ca906001600160a01b031681565b61033f610507366004611b6c565b601560209081526000928352604080842090915290825290205460ff1681565b61033f6110f1565b61045061053d366004611cb8565b61111b565b60015460ff1661033f565b6103ca61055b366004611a7c565b6009602052600090815260409020546001600160a01b031681565b61033f610584366004611a7c565b60136020526000908152604090205460ff1681565b6104506105a7366004611a7c565b611148565b61035d606481565b6104506105c2366004611a7c565b611219565b61035d60045481565b61035d61122a565b6104506105e6366004611cdb565b611269565b610450611292565b61033f610601366004611b6c565b6112a5565b61035d610614366004611a7c565b600f6020526000908152604090205481565b61035d610634366004611a7c565b60116020526000908152604090205481565b61035d600081565b61035d60035481565b61035d610665366004611a7c565b600d6020526000908152604090205481565b61035d60175481565b61048b61068e366004611a7c565b6112ce565b61035d60185481565b61035d6106aa366004611a7c565b600e6020526000908152604090205481565b61033f6106ca366004611a7c565b60146020526000908152604090205460ff1681565b61035d6106ed366004611a7c565b600c6020526000908152604090205481565b61035d61070d366004611a7c565b600a6020526000908152604090205481565b61035d61072d366004611a7c565b60106020526000908152604090205481565b61035d7fb02c64f0c28be59776465b163fa919b01da504b3a5dda0ee188fa6d028017ec381565b610450610774366004611b6c565b6112e7565b61035d60055481565b610450610790366004611a7c565b61130c565b6104506107a3366004611a7c565b6113b9565b6104506113ca565b6107de6107be366004611b6c565b601660209081526000928352604080842090915290825290205460ff1681565b60405161034b9190611d35565b6103ca7f000000000000000000000000000000000000000000000000000000000000000081565b610450610820366004611a7c565b6113f4565b60006001600160e01b03198216637965db0b60e01b148061085657506301ffc9a760e01b6001600160e01b03198316145b92915050565b6000610866611588565b604051636a6b9a6160e01b81523360048201527f00000000000000000000000000000000000000000000000000000000000000006001600160a01b031690636a6b9a6190602401602060405180830381865afa1580156108ca573d6000803e3d6000fd5b505050506040513d601f19601f820116820180604052508101906108ee9190611d49565b61090b57604051639450a1d360e01b815260040160405180910390fd5b600060185411801561092b57506017546018546109289190611d81565b42105b15610949576040516316bbed0f60e31b815260040160405180910390fd5b600580546000918261095a83611d94565b9091555060025490915042906000906109739083611d81565b600084815260066020908152604080832080546001600160a01b03191633179055600790915290209091506109a9868883611e4b565b506000838152600860209081526040808320805460ff191660031790556009825280832080546001600160a01b0319169055600a825280832083905580518083018252838152868452600b90925290912090610a059082611f0c565b506000838152600f602090815260408083208590556010909152908190208290554260185551339084907f6c98a8c940418b35614f0cd02412d5c9606faff474cbb6cdd6640ba5d1a9f06b90610a62908a908a9088908890611fcc565b60405180910390a3827fe07e33b3979d2ee923e3a1494b77f27c97acf236ae98804de7e3846b899639b642604051610a9c91815260200190565b60405180910390a2505060016000805160206120e8833981519152559050610856565b6000807f00000000000000000000000000000000000000000000000000000000000000006001600160a01b031663997072f76040518163ffffffff1660e01b8152600401602060405180830381865afa158015610b20573d6000803e3d6000fd5b505050506040513d601f19601f82011682018060405250810190610b44919061200c565b9050606460035482610b569190612025565b610b60919061203c565b91505090565b6000610b71816115a4565b50600455565b600082815260208190526040902060010154610b92816115a4565b610b9c83836115ae565b50505050565b6001600160a01b0381163314610bcb5760405163334bd91960e11b815260040160405180910390fd5b610bd58282611640565b505050565b60076020526000908152604090208054610bf390611dc3565b80601f0160208091040260200160405190810160405280929190818152602001828054610c1f90611dc3565b8015610c6c5780601f10610c4157610100808354040283529160200191610c6c565b820191906000526020600020905b815481529060010190602001808311610c4f57829003601f168201915b505050505081565b6000610c7e611588565b6000879003610ca05760405163018e0a1560e51b815260040160405180910390fd5b604051636a6b9a6160e01b81523360048201527f00000000000000000000000000000000000000000000000000000000000000006001600160a01b031690636a6b9a6190602401602060405180830381865afa158015610d04573d6000803e3d6000fd5b505050506040513d601f19601f82011682018060405250810190610d289190611d49565b610d4557604051639450a1d360e01b815260040160405180910390fd5b6005805460009182610d5683611d94565b909155506002549091504290600090610d6f9083611d81565b600084815260066020908152604080832080546001600160a01b0319163317905560079091529020909150610da58b8d83611e4b565b50600083815260086020526040902080548a919060ff19166001836004811115610dd157610dd1611b20565b0217905550600083815260096020908152604080832080546001600160a01b0319166001600160a01b038d16179055600a82528083208a9055600b9091529020610e1c868883611e4b565b506000838152600f6020908152604080832085905560109091529081902082905551339084907f6c98a8c940418b35614f0cd02412d5c9606faff474cbb6cdd6640ba5d1a9f06b90610e75908f908f9088908890611fcc565b60405180910390a3505060016000805160206120e88339815191525598975050505050505050565b60008181526013602052604081205460ff1615610ebc57506002919050565b60008281526014602052604090205460ff1615610edb57506008919050565b60008281526012602052604090205460ff1615610efa57506007919050565b6000828152600f6020526040902054421015610f1857506000919050565b600082815260106020526040902054421015610f3657506001919050565b6000828152600e6020908152604080832054600d835281842054600c909352908320549091610f6491611d81565b610f6e9190611d81565b90506000610f7a610abf565b905080821015610f8e575060039392505050565b6000848152600d6020908152604080832054600c9092529091205411610fb8575060039392505050565b6000848152601160205260408120549003610fd7575060049392505050565b600454600085815260116020526040902054610ff39190611d81565b6110009062127500611d81565b421115611011575060069392505050565b5060059392505050565b6000611026816115a4565b61102e6116ab565b50565b6000818152600660205260409020546001600160a01b03163314801590611060575061105e6000336112a5565b155b1561107e576040516324dbeac960e11b815260040160405180910390fd5b60008181526012602052604090205460ff16156110ae576040516338dbd33b60e11b815260040160405180910390fd5b600081815260136020526040808220805460ff191660011790555182917f789cf55be980739dad1d0699b93b58e806b51c9d96619bfa8fe0a28abaa7b30c91a250565b60006018546000036111035750600190565b6017546018546111139190611d81565b421015905090565b611123611588565b61112d82826116fd565b61114460016000805160206120e883398151915255565b5050565b7fb02c64f0c28be59776465b163fa919b01da504b3a5dda0ee188fa6d028017ec3611172816115a4565b60008281526012602052604090205460ff16156111a2576040516338dbd33b60e11b815260040160405180910390fd5b60008281526013602052604090205460ff16156111d2576040516338dbd33b60e11b815260040160405180910390fd5b600082815260146020526040808220805460ff1916600117905551339184917fc2131db10d833d6b93ae553fa450ea0f6c0c2dfb0160cb3309468bf72718f3eb9190a35050565b6000611224816115a4565b50600355565b600060185460000361123c5750600090565b600060175460185461124e9190611d81565b905080421061125f57600091505090565b610b60428261205e565b611271611588565b61127b84846116fd565b610b9c60016000805160206120e883398151915255565b600061129d816115a4565b61102e61195a565b6000918252602082815260408084206001600160a01b0393909316845291905290205460ff1690565b600b6020526000908152604090208054610bf390611dc3565b600082815260208190526040902060010154611302816115a4565b610b9c8383611640565b611314611588565b600461131f82610e9d565b600881111561133057611330611b20565b1461134e576040516309ea93c360e41b815260040160405180910390fd5b6000818152601160205260409020429081905560045482917f9a2e42fd6722813d69113e7d0079d3d940171428df7373df9c7f7617cfda28929161139191611d81565b60405190815260200160405180910390a261102e60016000805160206120e883398151915255565b60006113c4816115a4565b50600255565b7fb02c64f0c28be59776465b163fa919b01da504b3a5dda0ee188fa6d028017ec361129d816115a4565b6113fc611588565b600081815260116020526040812054900361142a576040516309ea93c360e41b815260040160405180910390fd5b6004546000828152601160205260409020546114469190611d81565b42101561146557604051625c929960e81b815260040160405180910390fd5b60008181526012602052604090205460ff1615611495576040516338dbd33b60e11b815260040160405180910390fd5b6000818152601260209081526040808320805460ff191660011790556009825280832054600a835281842054600b90935281842091516001600160a01b0390911692916114e191612071565b60006040518083038185875af1925050503d806000811461151e576040519150601f19603f3d011682016040523d82523d6000602084013e611523565b606091505b50509050806115455760405163816a6f3160e01b815260040160405180910390fd5b60405182907f712ae1383f79ac853f8d882153778e0260ef8f03b504e2866e0593e04d2b291f90600090a25061102e60016000805160206120e883398151915255565b611590611995565b60026000805160206120e883398151915255565b61102e81336119c7565b60006115ba83836112a5565b611638576000838152602081815260408083206001600160a01b03861684529091529020805460ff191660011790556115f03390565b6001600160a01b0316826001600160a01b0316847f2f8788117e7eff1d82e926ec794901d17c78024a50270940304540a733656f0d60405160405180910390a4506001610856565b506000610856565b600061164c83836112a5565b15611638576000838152602081815260408083206001600160a01b0386168085529252808320805460ff1916905551339286917ff6391f5c32d9c69d2a47ea670b442974b53935d1edc7fd64eb21e047a839171b9190a4506001610856565b6116b3611a04565b6001805460ff191690557f5db9ee0a495bf2e6ff9c91a7834c1ba4fdd244a5e8aa4e537bd38aeae4b073aa335b6040516001600160a01b03909116815260200160405180910390a1565b600161170883610e9d565b600881111561171957611719611b20565b146117375760405163b6436b9560e01b815260040160405180910390fd5b600082815260156020908152604080832033845290915290205460ff161561177257604051631b19daf560e21b815260040160405180910390fd5b604051636a6b9a6160e01b81523360048201527f00000000000000000000000000000000000000000000000000000000000000006001600160a01b031690636a6b9a6190602401602060405180830381865afa1580156117d6573d6000803e3d6000fd5b505050506040513d601f19601f820116820180604052508101906117fa9190611d49565b61181757604051639450a1d360e01b815260040160405180910390fd5b6000828152601560209081526040808320338085529083528184208054600160ff1991821681179092558786526016855283862092865291909352922080548493919291169083600281111561186f5761186f611b20565b0217905550600181600281111561188857611888611b20565b036118b7576000828152600c602052604081208054600192906118ac908490611d81565b909155506119149050565b60008160028111156118cb576118cb611b20565b036118ef576000828152600d602052604081208054600192906118ac908490611d81565b6000828152600e6020526040812080546001929061190e908490611d81565b90915550505b336001600160a01b0316827feba4866100b822f0f391e610e7edfab790b9e8766c0012733c26b2f1858e8dd78360405161194e9190611d35565b60405180910390a35050565b611962611a27565b6001805460ff1916811790557f62e78cea01bee320cd4e420270b5ea74000d11b0c9f74754ebdbfc544b05a258336116e0565b6000805160206120e8833981519152546002036119c557604051633ee5aeb560e01b815260040160405180910390fd5b565b6119d182826112a5565b6111445760405163e2517d3f60e01b81526001600160a01b03821660048201526024810183905260440160405180910390fd5b60015460ff166119c557604051638dfc202b60e01b815260040160405180910390fd5b60015460ff16156119c55760405163d93c066560e01b815260040160405180910390fd5b600060208284031215611a5d57600080fd5b81356001600160e01b031981168114611a7557600080fd5b9392505050565b600060208284031215611a8e57600080fd5b5035919050565b60008083601f840112611aa757600080fd5b50813567ffffffffffffffff811115611abf57600080fd5b602083019150836020828501011115611ad757600080fd5b9250929050565b60008060208385031215611af157600080fd5b823567ffffffffffffffff811115611b0857600080fd5b611b1485828601611a95565b90969095509350505050565b634e487b7160e01b600052602160045260246000fd5b6020810160058310611b4a57611b4a611b20565b91905290565b80356001600160a01b0381168114611b6757600080fd5b919050565b60008060408385031215611b7f57600080fd5b82359150611b8f60208401611b50565b90509250929050565b6000815180845260005b81811015611bbe57602081850181015186830182015201611ba2565b506000602082860101526020601f19601f83011685010191505092915050565b602081526000611a756020830184611b98565b600080600080600080600060a0888a031215611c0c57600080fd5b873567ffffffffffffffff80821115611c2457600080fd5b611c308b838c01611a95565b909950975060208a0135915060058210611c4957600080fd5b819650611c5860408b01611b50565b955060608a0135945060808a0135915080821115611c7557600080fd5b50611c828a828b01611a95565b989b979a50959850939692959293505050565b6020810160098310611b4a57611b4a611b20565b803560038110611b6757600080fd5b60008060408385031215611ccb57600080fd5b82359150611b8f60208401611ca9565b60008060008060608587031215611cf157600080fd5b84359350611d0160208601611ca9565b9250604085013567ffffffffffffffff811115611d1d57600080fd5b611d2987828801611a95565b95989497509550505050565b6020810160038310611b4a57611b4a611b20565b600060208284031215611d5b57600080fd5b81518015158114611a7557600080fd5b634e487b7160e01b600052601160045260246000fd5b8082018082111561085657610856611d6b565b600060018201611da657611da6611d6b565b5060010190565b634e487b7160e01b600052604160045260246000fd5b600181811c90821680611dd757607f821691505b602082108103611df757634e487b7160e01b600052602260045260246000fd5b50919050565b601f821115610bd557600081815260208120601f850160051c81016020861015611e245750805b601f850160051c820191505b81811015611e4357828155600101611e30565b505050505050565b67ffffffffffffffff831115611e6357611e63611dad565b611e7783611e718354611dc3565b83611dfd565b6000601f841160018114611eab5760008515611e935750838201355b600019600387901b1c1916600186901b178355611f05565b600083815260209020601f19861690835b82811015611edc5786850135825560209485019460019092019101611ebc565b5086821015611ef95760001960f88860031b161c19848701351681555b505060018560011b0183555b5050505050565b815167ffffffffffffffff811115611f2657611f26611dad565b611f3a81611f348454611dc3565b84611dfd565b602080601f831160018114611f6f5760008415611f575750858301515b600019600386901b1c1916600185901b178555611e43565b600085815260208120601f198616915b82811015611f9e57888601518255948401946001909101908401611f7f565b5085821015611fbc5787850151600019600388901b60f8161c191681555b5050505050600190811b01905550565b606081528360608201528385608083013760006080858301015260006080601f19601f870116830101905083602083015282604083015295945050505050565b60006020828403121561201e57600080fd5b5051919050565b808202811582820484141761085657610856611d6b565b60008261205957634e487b7160e01b600052601260045260246000fd5b500490565b8181038181111561085657610856611d6b565b600080835461207f81611dc3565b6001828116801561209757600181146120ac576120db565b60ff19841687528215158302870194506120db565b8760005260208060002060005b858110156120d25781548a8201529084019082016120b9565b50505082870194505b5092969550505050505056fe9b779b17422d0df92223018b32b4d1fa46e071723d6817e2486d003becc55f00a2646970667358221220e8d1065e5e8250ff9c238c78ef969715f3bc86b8ff973484b3c5244c8bbbe5eb64736f6c63430008140033","opcodes":"PUSH1 0xA0 PUSH1 0x40 MSTORE CALLVALUE DUP1 ISZERO PUSH3 0x11 JUMPI PUSH1 0x0 DUP1 REVERT JUMPDEST POP PUSH1 0x40 MLOAD PUSH3 0x235A CODESIZE SUB DUP1 PUSH3 0x235A DUP4 CODECOPY DUP2 ADD PUSH1 0x40 DUP2 SWAP1 MSTORE PUSH3 0x34 SWAP2 PUSH3 0x198 JUMP JUMPDEST PUSH1 0x1 PUSH32 0x9B779B17422D0DF92223018B32B4D1FA46E071723D6817E2486D003BECC55F00 SSTORE PUSH1 0x1 PUSH1 0x1 PUSH1 0xA0 SHL SUB DUP5 AND PUSH3 0x80 JUMPI PUSH1 0x40 MLOAD PUSH4 0x96A8520B PUSH1 0xE0 SHL DUP2 MSTORE PUSH1 0x4 ADD PUSH1 0x40 MLOAD DUP1 SWAP2 SUB SWAP1 REVERT JUMPDEST PUSH1 0x1 PUSH1 0x1 PUSH1 0xA0 SHL SUB DUP5 AND PUSH1 0x80 MSTORE PUSH1 0x2 DUP4 SWAP1 SSTORE PUSH1 0x3 DUP3 SWAP1 SSTORE PUSH1 0x4 DUP2 SWAP1 SSTORE PUSH4 0x1E13380 PUSH1 0x17 SSTORE PUSH3 0xB1 PUSH1 0x0 CALLER PUSH3 0xE9 JUMP JUMPDEST POP PUSH3 0xDE PUSH32 0xB02C64F0C28BE59776465B163FA919B01DA504B3A5DDA0EE188FA6D028017EC3 CALLER PUSH3 0xE9 JUMP JUMPDEST POP POP POP POP POP PUSH3 0x1E5 JUMP JUMPDEST PUSH1 0x0 DUP3 DUP2 MSTORE PUSH1 0x20 DUP2 DUP2 MSTORE PUSH1 0x40 DUP1 DUP4 KECCAK256 PUSH1 0x1 PUSH1 0x1 PUSH1 0xA0 SHL SUB DUP6 AND DUP5 MSTORE SWAP1 SWAP2 MSTORE DUP2 KECCAK256 SLOAD PUSH1 0xFF AND PUSH3 0x18E JUMPI PUSH1 0x0 DUP4 DUP2 MSTORE PUSH1 0x20 DUP2 DUP2 MSTORE PUSH1 0x40 DUP1 DUP4 KECCAK256 PUSH1 0x1 PUSH1 0x1 PUSH1 0xA0 SHL SUB DUP7 AND DUP5 MSTORE SWAP1 SWAP2 MSTORE SWAP1 KECCAK256 DUP1 SLOAD PUSH1 0xFF NOT AND PUSH1 0x1 OR SWAP1 SSTORE PUSH3 0x145 CALLER SWAP1 JUMP JUMPDEST PUSH1 0x1 PUSH1 0x1 PUSH1 0xA0 SHL SUB AND DUP3 PUSH1 0x1 PUSH1 0x1 PUSH1 0xA0 SHL SUB AND DUP5 PUSH32 0x2F8788117E7EFF1D82E926EC794901D17C78024A50270940304540A733656F0D PUSH1 0x40 MLOAD PUSH1 0x40 MLOAD DUP1 SWAP2 SUB SWAP1 LOG4 POP PUSH1 0x1 PUSH3 0x192 JUMP JUMPDEST POP PUSH1 0x0 JUMPDEST SWAP3 SWAP2 POP POP JUMP JUMPDEST PUSH1 0x0 DUP1 PUSH1 0x0 DUP1 PUSH1 0x80 DUP6 DUP8 SUB SLT ISZERO PUSH3 0x1AF JUMPI PUSH1 0x0 DUP1 REVERT JUMPDEST DUP5 MLOAD PUSH1 0x1 PUSH1 0x1 PUSH1 0xA0 SHL SUB DUP2 AND DUP2 EQ PUSH3 0x1C7 JUMPI PUSH1 0x0 DUP1 REVERT JUMPDEST PUSH1 0x20 DUP7 ADD MLOAD PUSH1 0x40 DUP8 ADD MLOAD PUSH1 0x60 SWAP1 SWAP8 ADD MLOAD SWAP2 SWAP9 SWAP1 SWAP8 POP SWAP1 SWAP5 POP SWAP3 POP POP POP JUMP JUMPDEST PUSH1 0x80 MLOAD PUSH2 0x213D PUSH3 0x21D PUSH1 0x0 CODECOPY PUSH1 0x0 DUP2 DUP2 PUSH2 0x7F0 ADD MSTORE DUP2 DUP2 PUSH2 0x87B ADD MSTORE DUP2 DUP2 PUSH2 0xAC4 ADD MSTORE DUP2 DUP2 PUSH2 0xCB5 ADD MSTORE PUSH2 0x1787 ADD MSTORE PUSH2 0x213D PUSH1 0x0 RETURN INVALID PUSH1 0x80 PUSH1 0x40 MSTORE CALLVALUE DUP1 ISZERO PUSH2 0x10 JUMPI PUSH1 0x0 DUP1 REVERT JUMPDEST POP PUSH1 0x4 CALLDATASIZE LT PUSH2 0x327 JUMPI PUSH1 0x0 CALLDATALOAD PUSH1 0xE0 SHR DUP1 PUSH4 0x77806118 GT PUSH2 0x1B8 JUMPI DUP1 PUSH4 0xBD468FE6 GT PUSH2 0x104 JUMPI DUP1 PUSH4 0xDA35C664 GT PUSH2 0xA2 JUMPI DUP1 PUSH4 0xEB580DFE GT PUSH2 0x7C JUMPI DUP1 PUSH4 0xEB580DFE EQ PUSH2 0x7A8 JUMPI DUP1 PUSH4 0xFB468855 EQ PUSH2 0x7B0 JUMPI DUP1 PUSH4 0xFC0C546A EQ PUSH2 0x7EB JUMPI DUP1 PUSH4 0xFE0D94C1 EQ PUSH2 0x812 JUMPI PUSH1 0x0 DUP1 REVERT JUMPDEST DUP1 PUSH4 0xDA35C664 EQ PUSH2 0x779 JUMPI DUP1 PUSH4 0xDDF0B009 EQ PUSH2 0x782 JUMPI DUP1 PUSH4 0xEA0217CF EQ PUSH2 0x795 JUMPI PUSH1 0x0 DUP1 REVERT JUMPDEST DUP1 PUSH4 0xCA2525F6 GT PUSH2 0xDE JUMPI DUP1 PUSH4 0xCA2525F6 EQ PUSH2 0x6FF JUMPI DUP1 PUSH4 0xD00A9F06 EQ PUSH2 0x71F JUMPI DUP1 PUSH4 0xD3BC2B8D EQ PUSH2 0x73F JUMPI DUP1 PUSH4 0xD547741F EQ PUSH2 0x766 JUMPI PUSH1 0x0 DUP1 REVERT JUMPDEST DUP1 PUSH4 0xBD468FE6 EQ PUSH2 0x69C JUMPI DUP1 PUSH4 0xBD6AF848 EQ PUSH2 0x6BC JUMPI DUP1 PUSH4 0xC8BB4DD5 EQ PUSH2 0x6DF JUMPI PUSH1 0x0 DUP1 REVERT JUMPDEST DUP1 PUSH4 0x9C92FBC3 GT PUSH2 0x171 JUMPI DUP1 PUSH4 0xA7E22860 GT PUSH2 0x14B JUMPI DUP1 PUSH4 0xA7E22860 EQ PUSH2 0x657 JUMPI DUP1 PUSH4 0xA8F6BC2D EQ PUSH2 0x677 JUMPI DUP1 PUSH4 0xABDDC327 EQ PUSH2 0x680 JUMPI DUP1 PUSH4 0xBB0FD757 EQ PUSH2 0x693 JUMPI PUSH1 0x0 DUP1 REVERT JUMPDEST DUP1 PUSH4 0x9C92FBC3 EQ PUSH2 0x626 JUMPI DUP1 PUSH4 0xA217FDDF EQ PUSH2 0x646 JUMPI DUP1 PUSH4 0xA7713A70 EQ PUSH2 0x64E JUMPI PUSH1 0x0 DUP1 REVERT JUMPDEST DUP1 PUSH4 0x77806118 EQ PUSH2 0x5C7 JUMPI DUP1 PUSH4 0x78223AF3 EQ PUSH2 0x5D0 JUMPI DUP1 PUSH4 0x7B3C71D3 EQ PUSH2 0x5D8 JUMPI DUP1 PUSH4 0x8456CB59 EQ PUSH2 0x5EB JUMPI DUP1 PUSH4 0x91D14854 EQ PUSH2 0x5F3 JUMPI DUP1 PUSH4 0x94616451 EQ PUSH2 0x606 JUMPI PUSH1 0x0 DUP1 REVERT JUMPDEST DUP1 PUSH4 0x3E4F49E6 GT PUSH2 0x277 JUMPI DUP1 PUSH4 0x56781388 GT PUSH2 0x230 JUMPI DUP1 PUSH4 0x6E18113C GT PUSH2 0x20A JUMPI DUP1 PUSH4 0x6E18113C EQ PUSH2 0x576 JUMPI DUP1 PUSH4 0x6F65108C EQ PUSH2 0x599 JUMPI DUP1 PUSH4 0x6FEF541A EQ PUSH2 0x5AC JUMPI DUP1 PUSH4 0x737594CE EQ PUSH2 0x5B4 JUMPI PUSH1 0x0 DUP1 REVERT JUMPDEST DUP1 PUSH4 0x56781388 EQ PUSH2 0x52F JUMPI DUP1 PUSH4 0x5C975ABB EQ PUSH2 0x542 JUMPI DUP1 PUSH4 0x5DC4D8A6 EQ PUSH2 0x54D JUMPI PUSH1 0x0 DUP1 REVERT JUMPDEST DUP1 PUSH4 0x3E4F49E6 EQ PUSH2 0x4AB JUMPI DUP1 PUSH4 0x3F4BA83A EQ PUSH2 0x4CB JUMPI DUP1 PUSH4 0x40E58EE5 EQ PUSH2 0x4D3 JUMPI DUP1 PUSH4 0x430BF08A EQ PUSH2 0x4E6 JUMPI DUP1 PUSH4 0x43859632 EQ PUSH2 0x4F9 JUMPI DUP1 PUSH4 0x4CD2FC40 EQ PUSH2 0x527 JUMPI PUSH1 0x0 DUP1 REVERT JUMPDEST DUP1 PUSH4 0x248A9CA3 GT PUSH2 0x2E4 JUMPI DUP1 PUSH4 0x2F2FF15D GT PUSH2 0x2BE JUMPI DUP1 PUSH4 0x2F2FF15D EQ PUSH2 0x452 JUMPI DUP1 PUSH4 0x36568ABE EQ PUSH2 0x465 JUMPI DUP1 PUSH4 0x3830FDEA EQ PUSH2 0x478 JUMPI DUP1 PUSH4 0x3A29F859 EQ PUSH2 0x498 JUMPI PUSH1 0x0 DUP1 REVERT JUMPDEST DUP1 PUSH4 0x248A9CA3 EQ PUSH2 0x3EA JUMPI DUP1 PUSH4 0x2A09C772 EQ PUSH2 0x40D JUMPI DUP1 PUSH4 0x2CE80915 EQ PUSH2 0x43D JUMPI PUSH1 0x0 DUP1 REVERT JUMPDEST DUP1 PUSH4 0x1FFC9A7 EQ PUSH2 0x32C JUMPI DUP1 PUSH4 0x2A251A3 EQ PUSH2 0x354 JUMPI DUP1 PUSH4 0x103616E8 EQ PUSH2 0x36B JUMPI DUP1 PUSH4 0x13E11292 EQ PUSH2 0x38E JUMPI DUP1 PUSH4 0x143489D0 EQ PUSH2 0x3A1 JUMPI DUP1 PUSH4 0x1703A018 EQ PUSH2 0x3E2 JUMPI JUMPDEST PUSH1 0x0 DUP1 REVERT JUMPDEST PUSH2 0x33F PUSH2 0x33A CALLDATASIZE PUSH1 0x4 PUSH2 0x1A4B JUMP JUMPDEST PUSH2 0x825 JUMP JUMPDEST PUSH1 0x40 MLOAD SWAP1 ISZERO ISZERO DUP2 MSTORE PUSH1 0x20 ADD JUMPDEST PUSH1 0x40 MLOAD DUP1 SWAP2 SUB SWAP1 RETURN JUMPDEST PUSH2 0x35D PUSH1 0x2 SLOAD DUP2 JUMP JUMPDEST PUSH1 0x40 MLOAD SWAP1 DUP2 MSTORE PUSH1 0x20 ADD PUSH2 0x34B JUMP JUMPDEST PUSH2 0x33F PUSH2 0x379 CALLDATASIZE PUSH1 0x4 PUSH2 0x1A7C JUMP JUMPDEST PUSH1 0x12 PUSH1 0x20 MSTORE PUSH1 0x0 SWAP1 DUP2 MSTORE PUSH1 0x40 SWAP1 KECCAK256 SLOAD PUSH1 0xFF AND DUP2 JUMP JUMPDEST PUSH2 0x35D PUSH2 0x39C CALLDATASIZE PUSH1 0x4 PUSH2 0x1ADE JUMP JUMPDEST PUSH2 0x85C JUMP JUMPDEST PUSH2 0x3CA PUSH2 0x3AF CALLDATASIZE PUSH1 0x4 PUSH2 0x1A7C JUMP JUMPDEST PUSH1 0x6 PUSH1 0x20 MSTORE PUSH1 0x0 SWAP1 DUP2 MSTORE PUSH1 0x40 SWAP1 KECCAK256 SLOAD PUSH1 0x1 PUSH1 0x1 PUSH1 0xA0 SHL SUB AND DUP2 JUMP JUMPDEST PUSH1 0x40 MLOAD PUSH1 0x1 PUSH1 0x1 PUSH1 0xA0 SHL SUB SWAP1 SWAP2 AND DUP2 MSTORE PUSH1 0x20 ADD PUSH2 0x34B JUMP JUMPDEST PUSH2 0x35D PUSH2 0xABF JUMP JUMPDEST PUSH2 0x35D PUSH2 0x3F8 CALLDATASIZE PUSH1 0x4 PUSH2 0x1A7C JUMP JUMPDEST PUSH1 0x0 SWAP1 DUP2 MSTORE PUSH1 0x20 DUP2 SWAP1 MSTORE PUSH1 0x40 SWAP1 KECCAK256 PUSH1 0x1 ADD SLOAD SWAP1 JUMP JUMPDEST PUSH2 0x430 PUSH2 0x41B CALLDATASIZE PUSH1 0x4 PUSH2 0x1A7C JUMP JUMPDEST PUSH1 0x8 PUSH1 0x20 MSTORE PUSH1 0x0 SWAP1 DUP2 MSTORE PUSH1 0x40 SWAP1 KECCAK256 SLOAD PUSH1 0xFF AND DUP2 JUMP JUMPDEST PUSH1 0x40 MLOAD PUSH2 0x34B SWAP2 SWAP1 PUSH2 0x1B36 JUMP JUMPDEST PUSH2 0x450 PUSH2 0x44B CALLDATASIZE PUSH1 0x4 PUSH2 0x1A7C JUMP JUMPDEST PUSH2 0xB66 JUMP JUMPDEST STOP JUMPDEST PUSH2 0x450 PUSH2 0x460 CALLDATASIZE PUSH1 0x4 PUSH2 0x1B6C JUMP JUMPDEST PUSH2 0xB77 JUMP JUMPDEST PUSH2 0x450 PUSH2 0x473 CALLDATASIZE PUSH1 0x4 PUSH2 0x1B6C JUMP JUMPDEST PUSH2 0xBA2 JUMP JUMPDEST PUSH2 0x48B PUSH2 0x486 CALLDATASIZE PUSH1 0x4 PUSH2 0x1A7C JUMP JUMPDEST PUSH2 0xBDA JUMP JUMPDEST PUSH1 0x40 MLOAD PUSH2 0x34B SWAP2 SWAP1 PUSH2 0x1BDE JUMP JUMPDEST PUSH2 0x35D PUSH2 0x4A6 CALLDATASIZE PUSH1 0x4 PUSH2 0x1BF1 JUMP JUMPDEST PUSH2 0xC74 JUMP JUMPDEST PUSH2 0x4BE PUSH2 0x4B9 CALLDATASIZE PUSH1 0x4 PUSH2 0x1A7C JUMP JUMPDEST PUSH2 0xE9D JUMP JUMPDEST PUSH1 0x40 MLOAD PUSH2 0x34B SWAP2 SWAP1 PUSH2 0x1C95 JUMP JUMPDEST PUSH2 0x450 PUSH2 0x101B JUMP JUMPDEST PUSH2 0x450 PUSH2 0x4E1 CALLDATASIZE PUSH1 0x4 PUSH2 0x1A7C JUMP JUMPDEST PUSH2 0x1031 JUMP JUMPDEST PUSH1 0x19 SLOAD PUSH2 0x3CA SWAP1 PUSH1 0x1 PUSH1 0x1 PUSH1 0xA0 SHL SUB AND DUP2 JUMP JUMPDEST PUSH2 0x33F PUSH2 0x507 CALLDATASIZE PUSH1 0x4 PUSH2 0x1B6C JUMP JUMPDEST PUSH1 0x15 PUSH1 0x20 SWAP1 DUP2 MSTORE PUSH1 0x0 SWAP3 DUP4 MSTORE PUSH1 0x40 DUP1 DUP5 KECCAK256 SWAP1 SWAP2 MSTORE SWAP1 DUP3 MSTORE SWAP1 KECCAK256 SLOAD PUSH1 0xFF AND DUP2 JUMP JUMPDEST PUSH2 0x33F PUSH2 0x10F1 JUMP JUMPDEST PUSH2 0x450 PUSH2 0x53D CALLDATASIZE PUSH1 0x4 PUSH2 0x1CB8 JUMP JUMPDEST PUSH2 0x111B JUMP JUMPDEST PUSH1 0x1 SLOAD PUSH1 0xFF AND PUSH2 0x33F JUMP JUMPDEST PUSH2 0x3CA PUSH2 0x55B CALLDATASIZE PUSH1 0x4 PUSH2 0x1A7C JUMP JUMPDEST PUSH1 0x9 PUSH1 0x20 MSTORE PUSH1 0x0 SWAP1 DUP2 MSTORE PUSH1 0x40 SWAP1 KECCAK256 SLOAD PUSH1 0x1 PUSH1 0x1 PUSH1 0xA0 SHL SUB AND DUP2 JUMP JUMPDEST PUSH2 0x33F PUSH2 0x584 CALLDATASIZE PUSH1 0x4 PUSH2 0x1A7C JUMP JUMPDEST PUSH1 0x13 PUSH1 0x20 MSTORE PUSH1 0x0 SWAP1 DUP2 MSTORE PUSH1 0x40 SWAP1 KECCAK256 SLOAD PUSH1 0xFF AND DUP2 JUMP JUMPDEST PUSH2 0x450 PUSH2 0x5A7 CALLDATASIZE PUSH1 0x4 PUSH2 0x1A7C JUMP JUMPDEST PUSH2 0x1148 JUMP JUMPDEST PUSH2 0x35D PUSH1 0x64 DUP2 JUMP JUMPDEST PUSH2 0x450 PUSH2 0x5C2 CALLDATASIZE PUSH1 0x4 PUSH2 0x1A7C JUMP JUMPDEST PUSH2 0x1219 JUMP JUMPDEST PUSH2 0x35D PUSH1 0x4 SLOAD DUP2 JUMP JUMPDEST PUSH2 0x35D PUSH2 0x122A JUMP JUMPDEST PUSH2 0x450 PUSH2 0x5E6 CALLDATASIZE PUSH1 0x4 PUSH2 0x1CDB JUMP JUMPDEST PUSH2 0x1269 JUMP JUMPDEST PUSH2 0x450 PUSH2 0x1292 JUMP JUMPDEST PUSH2 0x33F PUSH2 0x601 CALLDATASIZE PUSH1 0x4 PUSH2 0x1B6C JUMP JUMPDEST PUSH2 0x12A5 JUMP JUMPDEST PUSH2 0x35D PUSH2 0x614 CALLDATASIZE PUSH1 0x4 PUSH2 0x1A7C JUMP JUMPDEST PUSH1 0xF PUSH1 0x20 MSTORE PUSH1 0x0 SWAP1 DUP2 MSTORE PUSH1 0x40 SWAP1 KECCAK256 SLOAD DUP2 JUMP JUMPDEST PUSH2 0x35D PUSH2 0x634 CALLDATASIZE PUSH1 0x4 PUSH2 0x1A7C JUMP JUMPDEST PUSH1 0x11 PUSH1 0x20 MSTORE PUSH1 0x0 SWAP1 DUP2 MSTORE PUSH1 0x40 SWAP1 KECCAK256 SLOAD DUP2 JUMP JUMPDEST PUSH2 0x35D PUSH1 0x0 DUP2 JUMP JUMPDEST PUSH2 0x35D PUSH1 0x3 SLOAD DUP2 JUMP JUMPDEST PUSH2 0x35D PUSH2 0x665 CALLDATASIZE PUSH1 0x4 PUSH2 0x1A7C JUMP JUMPDEST PUSH1 0xD PUSH1 0x20 MSTORE PUSH1 0x0 SWAP1 DUP2 MSTORE PUSH1 0x40 SWAP1 KECCAK256 SLOAD DUP2 JUMP JUMPDEST PUSH2 0x35D PUSH1 0x17 SLOAD DUP2 JUMP JUMPDEST PUSH2 0x48B PUSH2 0x68E CALLDATASIZE PUSH1 0x4 PUSH2 0x1A7C JUMP JUMPDEST PUSH2 0x12CE JUMP JUMPDEST PUSH2 0x35D PUSH1 0x18 SLOAD DUP2 JUMP JUMPDEST PUSH2 0x35D PUSH2 0x6AA CALLDATASIZE PUSH1 0x4 PUSH2 0x1A7C JUMP JUMPDEST PUSH1 0xE PUSH1 0x20 MSTORE PUSH1 0x0 SWAP1 DUP2 MSTORE PUSH1 0x40 SWAP1 KECCAK256 SLOAD DUP2 JUMP JUMPDEST PUSH2 0x33F PUSH2 0x6CA CALLDATASIZE PUSH1 0x4 PUSH2 0x1A7C JUMP JUMPDEST PUSH1 0x14 PUSH1 0x20 MSTORE PUSH1 0x0 SWAP1 DUP2 MSTORE PUSH1 0x40 SWAP1 KECCAK256 SLOAD PUSH1 0xFF AND DUP2 JUMP JUMPDEST PUSH2 0x35D PUSH2 0x6ED CALLDATASIZE PUSH1 0x4 PUSH2 0x1A7C JUMP JUMPDEST PUSH1 0xC PUSH1 0x20 MSTORE PUSH1 0x0 SWAP1 DUP2 MSTORE PUSH1 0x40 SWAP1 KECCAK256 SLOAD DUP2 JUMP JUMPDEST PUSH2 0x35D PUSH2 0x70D CALLDATASIZE PUSH1 0x4 PUSH2 0x1A7C JUMP JUMPDEST PUSH1 0xA PUSH1 0x20 MSTORE PUSH1 0x0 SWAP1 DUP2 MSTORE PUSH1 0x40 SWAP1 KECCAK256 SLOAD DUP2 JUMP JUMPDEST PUSH2 0x35D PUSH2 0x72D CALLDATASIZE PUSH1 0x4 PUSH2 0x1A7C JUMP JUMPDEST PUSH1 0x10 PUSH1 0x20 MSTORE PUSH1 0x0 SWAP1 DUP2 MSTORE PUSH1 0x40 SWAP1 KECCAK256 SLOAD DUP2 JUMP JUMPDEST PUSH2 0x35D PUSH32 0xB02C64F0C28BE59776465B163FA919B01DA504B3A5DDA0EE188FA6D028017EC3 DUP2 JUMP JUMPDEST PUSH2 0x450 PUSH2 0x774 CALLDATASIZE PUSH1 0x4 PUSH2 0x1B6C JUMP JUMPDEST PUSH2 0x12E7 JUMP JUMPDEST PUSH2 0x35D PUSH1 0x5 SLOAD DUP2 JUMP JUMPDEST PUSH2 0x450 PUSH2 0x790 CALLDATASIZE PUSH1 0x4 PUSH2 0x1A7C JUMP JUMPDEST PUSH2 0x130C JUMP JUMPDEST PUSH2 0x450 PUSH2 0x7A3 CALLDATASIZE PUSH1 0x4 PUSH2 0x1A7C JUMP JUMPDEST PUSH2 0x13B9 JUMP JUMPDEST PUSH2 0x450 PUSH2 0x13CA JUMP JUMPDEST PUSH2 0x7DE PUSH2 0x7BE CALLDATASIZE PUSH1 0x4 PUSH2 0x1B6C JUMP JUMPDEST PUSH1 0x16 PUSH1 0x20 SWAP1 DUP2 MSTORE PUSH1 0x0 SWAP3 DUP4 MSTORE PUSH1 0x40 DUP1 DUP5 KECCAK256 SWAP1 SWAP2 MSTORE SWAP1 DUP3 MSTORE SWAP1 KECCAK256 SLOAD PUSH1 0xFF AND DUP2 JUMP JUMPDEST PUSH1 0x40 MLOAD PUSH2 0x34B SWAP2 SWAP1 PUSH2 0x1D35 JUMP JUMPDEST PUSH2 0x3CA PUSH32 0x0 DUP2 JUMP JUMPDEST PUSH2 0x450 PUSH2 0x820 CALLDATASIZE PUSH1 0x4 PUSH2 0x1A7C JUMP JUMPDEST PUSH2 0x13F4 JUMP JUMPDEST PUSH1 0x0 PUSH1 0x1 PUSH1 0x1 PUSH1 0xE0 SHL SUB NOT DUP3 AND PUSH4 0x7965DB0B PUSH1 0xE0 SHL EQ DUP1 PUSH2 0x856 JUMPI POP PUSH4 0x1FFC9A7 PUSH1 0xE0 SHL PUSH1 0x1 PUSH1 0x1 PUSH1 0xE0 SHL SUB NOT DUP4 AND EQ JUMPDEST SWAP3 SWAP2 POP POP JUMP JUMPDEST PUSH1 0x0 PUSH2 0x866 PUSH2 0x1588 JUMP JUMPDEST PUSH1 0x40 MLOAD PUSH4 0x6A6B9A61 PUSH1 0xE0 SHL DUP2 MSTORE CALLER PUSH1 0x4 DUP3 ADD MSTORE PUSH32 0x0 PUSH1 0x1 PUSH1 0x1 PUSH1 0xA0 SHL SUB AND SWAP1 PUSH4 0x6A6B9A61 SWAP1 PUSH1 0x24 ADD PUSH1 0x20 PUSH1 0x40 MLOAD DUP1 DUP4 SUB DUP2 DUP7 GAS STATICCALL ISZERO DUP1 ISZERO PUSH2 0x8CA JUMPI RETURNDATASIZE PUSH1 0x0 DUP1 RETURNDATACOPY RETURNDATASIZE PUSH1 0x0 REVERT JUMPDEST POP POP POP POP PUSH1 0x40 MLOAD RETURNDATASIZE PUSH1 0x1F NOT PUSH1 0x1F DUP3 ADD AND DUP3 ADD DUP1 PUSH1 0x40 MSTORE POP DUP2 ADD SWAP1 PUSH2 0x8EE SWAP2 SWAP1 PUSH2 0x1D49 JUMP JUMPDEST PUSH2 0x90B JUMPI PUSH1 0x40 MLOAD PUSH4 0x9450A1D3 PUSH1 0xE0 SHL DUP2 MSTORE PUSH1 0x4 ADD PUSH1 0x40 MLOAD DUP1 SWAP2 SUB SWAP1 REVERT JUMPDEST PUSH1 0x0 PUSH1 0x18 SLOAD GT DUP1 ISZERO PUSH2 0x92B JUMPI POP PUSH1 0x17 SLOAD PUSH1 0x18 SLOAD PUSH2 0x928 SWAP2 SWAP1 PUSH2 0x1D81 JUMP JUMPDEST TIMESTAMP LT JUMPDEST ISZERO PUSH2 0x949 JUMPI PUSH1 0x40 MLOAD PUSH4 0x16BBED0F PUSH1 0xE3 SHL DUP2 MSTORE PUSH1 0x4 ADD PUSH1 0x40 MLOAD DUP1 SWAP2 SUB SWAP1 REVERT JUMPDEST PUSH1 0x5 DUP1 SLOAD PUSH1 0x0 SWAP2 DUP3 PUSH2 0x95A DUP4 PUSH2 0x1D94 JUMP JUMPDEST SWAP1 SWAP2 SSTORE POP PUSH1 0x2 SLOAD SWAP1 SWAP2 POP TIMESTAMP SWAP1 PUSH1 0x0 SWAP1 PUSH2 0x973 SWAP1 DUP4 PUSH2 0x1D81 JUMP JUMPDEST PUSH1 0x0 DUP5 DUP2 MSTORE PUSH1 0x6 PUSH1 0x20 SWAP1 DUP2 MSTORE PUSH1 0x40 DUP1 DUP4 KECCAK256 DUP1 SLOAD PUSH1 0x1 PUSH1 0x1 PUSH1 0xA0 SHL SUB NOT AND CALLER OR SWAP1 SSTORE PUSH1 0x7 SWAP1 SWAP2 MSTORE SWAP1 KECCAK256 SWAP1 SWAP2 POP PUSH2 0x9A9 DUP7 DUP9 DUP4 PUSH2 0x1E4B JUMP JUMPDEST POP PUSH1 0x0 DUP4 DUP2 MSTORE PUSH1 0x8 PUSH1 0x20 SWAP1 DUP2 MSTORE PUSH1 0x40 DUP1 DUP4 KECCAK256 DUP1 SLOAD PUSH1 0xFF NOT AND PUSH1 0x3 OR SWAP1 SSTORE PUSH1 0x9 DUP3 MSTORE DUP1 DUP4 KECCAK256 DUP1 SLOAD PUSH1 0x1 PUSH1 0x1 PUSH1 0xA0 SHL SUB NOT AND SWAP1 SSTORE PUSH1 0xA DUP3 MSTORE DUP1 DUP4 KECCAK256 DUP4 SWAP1 SSTORE DUP1 MLOAD DUP1 DUP4 ADD DUP3 MSTORE DUP4 DUP2 MSTORE DUP7 DUP5 MSTORE PUSH1 0xB SWAP1 SWAP3 MSTORE SWAP1 SWAP2 KECCAK256 SWAP1 PUSH2 0xA05 SWAP1 DUP3 PUSH2 0x1F0C JUMP JUMPDEST POP PUSH1 0x0 DUP4 DUP2 MSTORE PUSH1 0xF PUSH1 0x20 SWAP1 DUP2 MSTORE PUSH1 0x40 DUP1 DUP4 KECCAK256 DUP6 SWAP1 SSTORE PUSH1 0x10 SWAP1 SWAP2 MSTORE SWAP1 DUP2 SWAP1 KECCAK256 DUP3 SWAP1 SSTORE TIMESTAMP PUSH1 0x18 SSTORE MLOAD CALLER SWAP1 DUP5 SWAP1 PUSH32 0x6C98A8C940418B35614F0CD02412D5C9606FAFF474CBB6CDD6640BA5D1A9F06B SWAP1 PUSH2 0xA62 SWAP1 DUP11 SWAP1 DUP11 SWAP1 DUP9 SWAP1 DUP9 SWAP1 PUSH2 0x1FCC JUMP JUMPDEST PUSH1 0x40 MLOAD DUP1 SWAP2 SUB SWAP1 LOG3 DUP3 PUSH32 0xE07E33B3979D2EE923E3A1494B77F27C97ACF236AE98804DE7E3846B899639B6 TIMESTAMP PUSH1 0x40 MLOAD PUSH2 0xA9C SWAP2 DUP2 MSTORE PUSH1 0x20 ADD SWAP1 JUMP JUMPDEST PUSH1 0x40 MLOAD DUP1 SWAP2 SUB SWAP1 LOG2 POP POP PUSH1 0x1 PUSH1 0x0 DUP1 MLOAD PUSH1 0x20 PUSH2 0x20E8 DUP4 CODECOPY DUP2 MLOAD SWAP2 MSTORE SSTORE SWAP1 POP PUSH2 0x856 JUMP JUMPDEST PUSH1 0x0 DUP1 PUSH32 0x0 PUSH1 0x1 PUSH1 0x1 PUSH1 0xA0 SHL SUB AND PUSH4 0x997072F7 PUSH1 0x40 MLOAD DUP2 PUSH4 0xFFFFFFFF AND PUSH1 0xE0 SHL DUP2 MSTORE PUSH1 0x4 ADD PUSH1 0x20 PUSH1 0x40 MLOAD DUP1 DUP4 SUB DUP2 DUP7 GAS STATICCALL ISZERO DUP1 ISZERO PUSH2 0xB20 JUMPI RETURNDATASIZE PUSH1 0x0 DUP1 RETURNDATACOPY RETURNDATASIZE PUSH1 0x0 REVERT JUMPDEST POP POP POP POP PUSH1 0x40 MLOAD RETURNDATASIZE PUSH1 0x1F NOT PUSH1 0x1F DUP3 ADD AND DUP3 ADD DUP1 PUSH1 0x40 MSTORE POP DUP2 ADD SWAP1 PUSH2 0xB44 SWAP2 SWAP1 PUSH2 0x200C JUMP JUMPDEST SWAP1 POP PUSH1 0x64 PUSH1 0x3 SLOAD DUP3 PUSH2 0xB56 SWAP2 SWAP1 PUSH2 0x2025 JUMP JUMPDEST PUSH2 0xB60 SWAP2 SWAP1 PUSH2 0x203C JUMP JUMPDEST SWAP2 POP POP SWAP1 JUMP JUMPDEST PUSH1 0x0 PUSH2 0xB71 DUP2 PUSH2 0x15A4 JUMP JUMPDEST POP PUSH1 0x4 SSTORE JUMP JUMPDEST PUSH1 0x0 DUP3 DUP2 MSTORE PUSH1 0x20 DUP2 SWAP1 MSTORE PUSH1 0x40 SWAP1 KECCAK256 PUSH1 0x1 ADD SLOAD PUSH2 0xB92 DUP2 PUSH2 0x15A4 JUMP JUMPDEST PUSH2 0xB9C DUP4 DUP4 PUSH2 0x15AE JUMP JUMPDEST POP POP POP POP JUMP JUMPDEST PUSH1 0x1 PUSH1 0x1 PUSH1 0xA0 SHL SUB DUP2 AND CALLER EQ PUSH2 0xBCB JUMPI PUSH1 0x40 MLOAD PUSH4 0x334BD919 PUSH1 0xE1 SHL DUP2 MSTORE PUSH1 0x4 ADD PUSH1 0x40 MLOAD DUP1 SWAP2 SUB SWAP1 REVERT JUMPDEST PUSH2 0xBD5 DUP3 DUP3 PUSH2 0x1640 JUMP JUMPDEST POP POP POP JUMP JUMPDEST PUSH1 0x7 PUSH1 0x20 MSTORE PUSH1 0x0 SWAP1 DUP2 MSTORE PUSH1 0x40 SWAP1 KECCAK256 DUP1 SLOAD PUSH2 0xBF3 SWAP1 PUSH2 0x1DC3 JUMP JUMPDEST DUP1 PUSH1 0x1F ADD PUSH1 0x20 DUP1 SWAP2 DIV MUL PUSH1 0x20 ADD PUSH1 0x40 MLOAD SWAP1 DUP2 ADD PUSH1 0x40 MSTORE DUP1 SWAP3 SWAP2 SWAP1 DUP2 DUP2 MSTORE PUSH1 0x20 ADD DUP3 DUP1 SLOAD PUSH2 0xC1F SWAP1 PUSH2 0x1DC3 JUMP JUMPDEST DUP1 ISZERO PUSH2 0xC6C JUMPI DUP1 PUSH1 0x1F LT PUSH2 0xC41 JUMPI PUSH2 0x100 DUP1 DUP4 SLOAD DIV MUL DUP4 MSTORE SWAP2 PUSH1 0x20 ADD SWAP2 PUSH2 0xC6C JUMP JUMPDEST DUP3 ADD SWAP2 SWAP1 PUSH1 0x0 MSTORE PUSH1 0x20 PUSH1 0x0 KECCAK256 SWAP1 JUMPDEST DUP2 SLOAD DUP2 MSTORE SWAP1 PUSH1 0x1 ADD SWAP1 PUSH1 0x20 ADD DUP1 DUP4 GT PUSH2 0xC4F JUMPI DUP3 SWAP1 SUB PUSH1 0x1F AND DUP3 ADD SWAP2 JUMPDEST POP POP POP POP POP DUP2 JUMP JUMPDEST PUSH1 0x0 PUSH2 0xC7E PUSH2 0x1588 JUMP JUMPDEST PUSH1 0x0 DUP8 SWAP1 SUB PUSH2 0xCA0 JUMPI PUSH1 0x40 MLOAD PUSH4 0x18E0A15 PUSH1 0xE5 SHL DUP2 MSTORE PUSH1 0x4 ADD PUSH1 0x40 MLOAD DUP1 SWAP2 SUB SWAP1 REVERT JUMPDEST PUSH1 0x40 MLOAD PUSH4 0x6A6B9A61 PUSH1 0xE0 SHL DUP2 MSTORE CALLER PUSH1 0x4 DUP3 ADD MSTORE PUSH32 0x0 PUSH1 0x1 PUSH1 0x1 PUSH1 0xA0 SHL SUB AND SWAP1 PUSH4 0x6A6B9A61 SWAP1 PUSH1 0x24 ADD PUSH1 0x20 PUSH1 0x40 MLOAD DUP1 DUP4 SUB DUP2 DUP7 GAS STATICCALL ISZERO DUP1 ISZERO PUSH2 0xD04 JUMPI RETURNDATASIZE PUSH1 0x0 DUP1 RETURNDATACOPY RETURNDATASIZE PUSH1 0x0 REVERT JUMPDEST POP POP POP POP PUSH1 0x40 MLOAD RETURNDATASIZE PUSH1 0x1F NOT PUSH1 0x1F DUP3 ADD AND DUP3 ADD DUP1 PUSH1 0x40 MSTORE POP DUP2 ADD SWAP1 PUSH2 0xD28 SWAP2 SWAP1 PUSH2 0x1D49 JUMP JUMPDEST PUSH2 0xD45 JUMPI PUSH1 0x40 MLOAD PUSH4 0x9450A1D3 PUSH1 0xE0 SHL DUP2 MSTORE PUSH1 0x4 ADD PUSH1 0x40 MLOAD DUP1 SWAP2 SUB SWAP1 REVERT JUMPDEST PUSH1 0x5 DUP1 SLOAD PUSH1 0x0 SWAP2 DUP3 PUSH2 0xD56 DUP4 PUSH2 0x1D94 JUMP JUMPDEST SWAP1 SWAP2 SSTORE POP PUSH1 0x2 SLOAD SWAP1 SWAP2 POP TIMESTAMP SWAP1 PUSH1 0x0 SWAP1 PUSH2 0xD6F SWAP1 DUP4 PUSH2 0x1D81 JUMP JUMPDEST PUSH1 0x0 DUP5 DUP2 MSTORE PUSH1 0x6 PUSH1 0x20 SWAP1 DUP2 MSTORE PUSH1 0x40 DUP1 DUP4 KECCAK256 DUP1 SLOAD PUSH1 0x1 PUSH1 0x1 PUSH1 0xA0 SHL SUB NOT AND CALLER OR SWAP1 SSTORE PUSH1 0x7 SWAP1 SWAP2 MSTORE SWAP1 KECCAK256 SWAP1 SWAP2 POP PUSH2 0xDA5 DUP12 DUP14 DUP4 PUSH2 0x1E4B JUMP JUMPDEST POP PUSH1 0x0 DUP4 DUP2 MSTORE PUSH1 0x8 PUSH1 0x20 MSTORE PUSH1 0x40 SWAP1 KECCAK256 DUP1 SLOAD DUP11 SWAP2 SWAP1 PUSH1 0xFF NOT AND PUSH1 0x1 DUP4 PUSH1 0x4 DUP2 GT ISZERO PUSH2 0xDD1 JUMPI PUSH2 0xDD1 PUSH2 0x1B20 JUMP JUMPDEST MUL OR SWAP1 SSTORE POP PUSH1 0x0 DUP4 DUP2 MSTORE PUSH1 0x9 PUSH1 0x20 SWAP1 DUP2 MSTORE PUSH1 0x40 DUP1 DUP4 KECCAK256 DUP1 SLOAD PUSH1 0x1 PUSH1 0x1 PUSH1 0xA0 SHL SUB NOT AND PUSH1 0x1 PUSH1 0x1 PUSH1 0xA0 SHL SUB DUP14 AND OR SWAP1 SSTORE PUSH1 0xA DUP3 MSTORE DUP1 DUP4 KECCAK256 DUP11 SWAP1 SSTORE PUSH1 0xB SWAP1 SWAP2 MSTORE SWAP1 KECCAK256 PUSH2 0xE1C DUP7 DUP9 DUP4 PUSH2 0x1E4B JUMP JUMPDEST POP PUSH1 0x0 DUP4 DUP2 MSTORE PUSH1 0xF PUSH1 0x20 SWAP1 DUP2 MSTORE PUSH1 0x40 DUP1 DUP4 KECCAK256 DUP6 SWAP1 SSTORE PUSH1 0x10 SWAP1 SWAP2 MSTORE SWAP1 DUP2 SWAP1 KECCAK256 DUP3 SWAP1 SSTORE MLOAD CALLER SWAP1 DUP5 SWAP1 PUSH32 0x6C98A8C940418B35614F0CD02412D5C9606FAFF474CBB6CDD6640BA5D1A9F06B SWAP1 PUSH2 0xE75 SWAP1 DUP16 SWAP1 DUP16 SWAP1 DUP9 SWAP1 DUP9 SWAP1 PUSH2 0x1FCC JUMP JUMPDEST PUSH1 0x40 MLOAD DUP1 SWAP2 SUB SWAP1 LOG3 POP POP PUSH1 0x1 PUSH1 0x0 DUP1 MLOAD PUSH1 0x20 PUSH2 0x20E8 DUP4 CODECOPY DUP2 MLOAD SWAP2 MSTORE SSTORE SWAP9 SWAP8 POP POP POP POP POP POP POP POP JUMP JUMPDEST PUSH1 0x0 DUP2 DUP2 MSTORE PUSH1 0x13 PUSH1 0x20 MSTORE PUSH1 0x40 DUP2 KECCAK256 SLOAD PUSH1 0xFF AND ISZERO PUSH2 0xEBC JUMPI POP PUSH1 0x2 SWAP2 SWAP1 POP JUMP JUMPDEST PUSH1 0x0 DUP3 DUP2 MSTORE PUSH1 0x14 PUSH1 0x20 MSTORE PUSH1 0x40 SWAP1 KECCAK256 SLOAD PUSH1 0xFF AND ISZERO PUSH2 0xEDB JUMPI POP PUSH1 0x8 SWAP2 SWAP1 POP JUMP JUMPDEST PUSH1 0x0 DUP3 DUP2 MSTORE PUSH1 0x12 PUSH1 0x20 MSTORE PUSH1 0x40 SWAP1 KECCAK256 SLOAD PUSH1 0xFF AND ISZERO PUSH2 0xEFA JUMPI POP PUSH1 0x7 SWAP2 SWAP1 POP JUMP JUMPDEST PUSH1 0x0 DUP3 DUP2 MSTORE PUSH1 0xF PUSH1 0x20 MSTORE PUSH1 0x40 SWAP1 KECCAK256 SLOAD TIMESTAMP LT ISZERO PUSH2 0xF18 JUMPI POP PUSH1 0x0 SWAP2 SWAP1 POP JUMP JUMPDEST PUSH1 0x0 DUP3 DUP2 MSTORE PUSH1 0x10 PUSH1 0x20 MSTORE PUSH1 0x40 SWAP1 KECCAK256 SLOAD TIMESTAMP LT ISZERO PUSH2 0xF36 JUMPI POP PUSH1 0x1 SWAP2 SWAP1 POP JUMP JUMPDEST PUSH1 0x0 DUP3 DUP2 MSTORE PUSH1 0xE PUSH1 0x20 SWAP1 DUP2 MSTORE PUSH1 0x40 DUP1 DUP4 KECCAK256 SLOAD PUSH1 0xD DUP4 MSTORE DUP2 DUP5 KECCAK256 SLOAD PUSH1 0xC SWAP1 SWAP4 MSTORE SWAP1 DUP4 KECCAK256 SLOAD SWAP1 SWAP2 PUSH2 0xF64 SWAP2 PUSH2 0x1D81 JUMP JUMPDEST PUSH2 0xF6E SWAP2 SWAP1 PUSH2 0x1D81 JUMP JUMPDEST SWAP1 POP PUSH1 0x0 PUSH2 0xF7A PUSH2 0xABF JUMP JUMPDEST SWAP1 POP DUP1 DUP3 LT ISZERO PUSH2 0xF8E JUMPI POP PUSH1 0x3 SWAP4 SWAP3 POP POP POP JUMP JUMPDEST PUSH1 0x0 DUP5 DUP2 MSTORE PUSH1 0xD PUSH1 0x20 SWAP1 DUP2 MSTORE PUSH1 0x40 DUP1 DUP4 KECCAK256 SLOAD PUSH1 0xC SWAP1 SWAP3 MSTORE SWAP1 SWAP2 KECCAK256 SLOAD GT PUSH2 0xFB8 JUMPI POP PUSH1 0x3 SWAP4 SWAP3 POP POP POP JUMP JUMPDEST PUSH1 0x0 DUP5 DUP2 MSTORE PUSH1 0x11 PUSH1 0x20 MSTORE PUSH1 0x40 DUP2 KECCAK256 SLOAD SWAP1 SUB PUSH2 0xFD7 JUMPI POP PUSH1 0x4 SWAP4 SWAP3 POP POP POP JUMP JUMPDEST PUSH1 0x4 SLOAD PUSH1 0x0 DUP6 DUP2 MSTORE PUSH1 0x11 PUSH1 0x20 MSTORE PUSH1 0x40 SWAP1 KECCAK256 SLOAD PUSH2 0xFF3 SWAP2 SWAP1 PUSH2 0x1D81 JUMP JUMPDEST PUSH2 0x1000 SWAP1 PUSH3 0x127500 PUSH2 0x1D81 JUMP JUMPDEST TIMESTAMP GT ISZERO PUSH2 0x1011 JUMPI POP PUSH1 0x6 SWAP4 SWAP3 POP POP POP JUMP JUMPDEST POP PUSH1 0x5 SWAP4 SWAP3 POP POP POP JUMP JUMPDEST PUSH1 0x0 PUSH2 0x1026 DUP2 PUSH2 0x15A4 JUMP JUMPDEST PUSH2 0x102E PUSH2 0x16AB JUMP JUMPDEST POP JUMP JUMPDEST PUSH1 0x0 DUP2 DUP2 MSTORE PUSH1 0x6 PUSH1 0x20 MSTORE PUSH1 0x40 SWAP1 KECCAK256 SLOAD PUSH1 0x1 PUSH1 0x1 PUSH1 0xA0 SHL SUB AND CALLER EQ DUP1 ISZERO SWAP1 PUSH2 0x1060 JUMPI POP PUSH2 0x105E PUSH1 0x0 CALLER PUSH2 0x12A5 JUMP JUMPDEST ISZERO JUMPDEST ISZERO PUSH2 0x107E JUMPI PUSH1 0x40 MLOAD PUSH4 0x24DBEAC9 PUSH1 0xE1 SHL DUP2 MSTORE PUSH1 0x4 ADD PUSH1 0x40 MLOAD DUP1 SWAP2 SUB SWAP1 REVERT JUMPDEST PUSH1 0x0 DUP2 DUP2 MSTORE PUSH1 0x12 PUSH1 0x20 MSTORE PUSH1 0x40 SWAP1 KECCAK256 SLOAD PUSH1 0xFF AND ISZERO PUSH2 0x10AE JUMPI PUSH1 0x40 MLOAD PUSH4 0x38DBD33B PUSH1 0xE1 SHL DUP2 MSTORE PUSH1 0x4 ADD PUSH1 0x40 MLOAD DUP1 SWAP2 SUB SWAP1 REVERT JUMPDEST PUSH1 0x0 DUP2 DUP2 MSTORE PUSH1 0x13 PUSH1 0x20 MSTORE PUSH1 0x40 DUP1 DUP3 KECCAK256 DUP1 SLOAD PUSH1 0xFF NOT AND PUSH1 0x1 OR SWAP1 SSTORE MLOAD DUP3 SWAP2 PUSH32 0x789CF55BE980739DAD1D0699B93B58E806B51C9D96619BFA8FE0A28ABAA7B30C SWAP2 LOG2 POP JUMP JUMPDEST PUSH1 0x0 PUSH1 0x18 SLOAD PUSH1 0x0 SUB PUSH2 0x1103 JUMPI POP PUSH1 0x1 SWAP1 JUMP JUMPDEST PUSH1 0x17 SLOAD PUSH1 0x18 SLOAD PUSH2 0x1113 SWAP2 SWAP1 PUSH2 0x1D81 JUMP JUMPDEST TIMESTAMP LT ISZERO SWAP1 POP SWAP1 JUMP JUMPDEST PUSH2 0x1123 PUSH2 0x1588 JUMP JUMPDEST PUSH2 0x112D DUP3 DUP3 PUSH2 0x16FD JUMP JUMPDEST PUSH2 0x1144 PUSH1 0x1 PUSH1 0x0 DUP1 MLOAD PUSH1 0x20 PUSH2 0x20E8 DUP4 CODECOPY DUP2 MLOAD SWAP2 MSTORE SSTORE JUMP JUMPDEST POP POP JUMP JUMPDEST PUSH32 0xB02C64F0C28BE59776465B163FA919B01DA504B3A5DDA0EE188FA6D028017EC3 PUSH2 0x1172 DUP2 PUSH2 0x15A4 JUMP JUMPDEST PUSH1 0x0 DUP3 DUP2 MSTORE PUSH1 0x12 PUSH1 0x20 MSTORE PUSH1 0x40 SWAP1 KECCAK256 SLOAD PUSH1 0xFF AND ISZERO PUSH2 0x11A2 JUMPI PUSH1 0x40 MLOAD PUSH4 0x38DBD33B PUSH1 0xE1 SHL DUP2 MSTORE PUSH1 0x4 ADD PUSH1 0x40 MLOAD DUP1 SWAP2 SUB SWAP1 REVERT JUMPDEST PUSH1 0x0 DUP3 DUP2 MSTORE PUSH1 0x13 PUSH1 0x20 MSTORE PUSH1 0x40 SWAP1 KECCAK256 SLOAD PUSH1 0xFF AND ISZERO PUSH2 0x11D2 JUMPI PUSH1 0x40 MLOAD PUSH4 0x38DBD33B PUSH1 0xE1 SHL DUP2 MSTORE PUSH1 0x4 ADD PUSH1 0x40 MLOAD DUP1 SWAP2 SUB SWAP1 REVERT JUMPDEST PUSH1 0x0 DUP3 DUP2 MSTORE PUSH1 0x14 PUSH1 0x20 MSTORE PUSH1 0x40 DUP1 DUP3 KECCAK256 DUP1 SLOAD PUSH1 0xFF NOT AND PUSH1 0x1 OR SWAP1 SSTORE MLOAD CALLER SWAP2 DUP5 SWAP2 PUSH32 0xC2131DB10D833D6B93AE553FA450EA0F6C0C2DFB0160CB3309468BF72718F3EB SWAP2 SWAP1 LOG3 POP POP JUMP JUMPDEST PUSH1 0x0 PUSH2 0x1224 DUP2 PUSH2 0x15A4 JUMP JUMPDEST POP PUSH1 0x3 SSTORE JUMP JUMPDEST PUSH1 0x0 PUSH1 0x18 SLOAD PUSH1 0x0 SUB PUSH2 0x123C JUMPI POP PUSH1 0x0 SWAP1 JUMP JUMPDEST PUSH1 0x0 PUSH1 0x17 SLOAD PUSH1 0x18 SLOAD PUSH2 0x124E SWAP2 SWAP1 PUSH2 0x1D81 JUMP JUMPDEST SWAP1 POP DUP1 TIMESTAMP LT PUSH2 0x125F JUMPI PUSH1 0x0 SWAP2 POP POP SWAP1 JUMP JUMPDEST PUSH2 0xB60 TIMESTAMP DUP3 PUSH2 0x205E JUMP JUMPDEST PUSH2 0x1271 PUSH2 0x1588 JUMP JUMPDEST PUSH2 0x127B DUP5 DUP5 PUSH2 0x16FD JUMP JUMPDEST PUSH2 0xB9C PUSH1 0x1 PUSH1 0x0 DUP1 MLOAD PUSH1 0x20 PUSH2 0x20E8 DUP4 CODECOPY DUP2 MLOAD SWAP2 MSTORE SSTORE JUMP JUMPDEST PUSH1 0x0 PUSH2 0x129D DUP2 PUSH2 0x15A4 JUMP JUMPDEST PUSH2 0x102E PUSH2 0x195A JUMP JUMPDEST PUSH1 0x0 SWAP2 DUP3 MSTORE PUSH1 0x20 DUP3 DUP2 MSTORE PUSH1 0x40 DUP1 DUP5 KECCAK256 PUSH1 0x1 PUSH1 0x1 PUSH1 0xA0 SHL SUB SWAP4 SWAP1 SWAP4 AND DUP5 MSTORE SWAP2 SWAP1 MSTORE SWAP1 KECCAK256 SLOAD PUSH1 0xFF AND SWAP1 JUMP JUMPDEST PUSH1 0xB PUSH1 0x20 MSTORE PUSH1 0x0 SWAP1 DUP2 MSTORE PUSH1 0x40 SWAP1 KECCAK256 DUP1 SLOAD PUSH2 0xBF3 SWAP1 PUSH2 0x1DC3 JUMP JUMPDEST PUSH1 0x0 DUP3 DUP2 MSTORE PUSH1 0x20 DUP2 SWAP1 MSTORE PUSH1 0x40 SWAP1 KECCAK256 PUSH1 0x1 ADD SLOAD PUSH2 0x1302 DUP2 PUSH2 0x15A4 JUMP JUMPDEST PUSH2 0xB9C DUP4 DUP4 PUSH2 0x1640 JUMP JUMPDEST PUSH2 0x1314 PUSH2 0x1588 JUMP JUMPDEST PUSH1 0x4 PUSH2 0x131F DUP3 PUSH2 0xE9D JUMP JUMPDEST PUSH1 0x8 DUP2 GT ISZERO PUSH2 0x1330 JUMPI PUSH2 0x1330 PUSH2 0x1B20 JUMP JUMPDEST EQ PUSH2 0x134E JUMPI PUSH1 0x40 MLOAD PUSH4 0x9EA93C3 PUSH1 0xE4 SHL DUP2 MSTORE PUSH1 0x4 ADD PUSH1 0x40 MLOAD DUP1 SWAP2 SUB SWAP1 REVERT JUMPDEST PUSH1 0x0 DUP2 DUP2 MSTORE PUSH1 0x11 PUSH1 0x20 MSTORE PUSH1 0x40 SWAP1 KECCAK256 TIMESTAMP SWAP1 DUP2 SWAP1 SSTORE PUSH1 0x4 SLOAD DUP3 SWAP2 PUSH32 0x9A2E42FD6722813D69113E7D0079D3D940171428DF7373DF9C7F7617CFDA2892 SWAP2 PUSH2 0x1391 SWAP2 PUSH2 0x1D81 JUMP JUMPDEST PUSH1 0x40 MLOAD SWAP1 DUP2 MSTORE PUSH1 0x20 ADD PUSH1 0x40 MLOAD DUP1 SWAP2 SUB SWAP1 LOG2 PUSH2 0x102E PUSH1 0x1 PUSH1 0x0 DUP1 MLOAD PUSH1 0x20 PUSH2 0x20E8 DUP4 CODECOPY DUP2 MLOAD SWAP2 MSTORE SSTORE JUMP JUMPDEST PUSH1 0x0 PUSH2 0x13C4 DUP2 PUSH2 0x15A4 JUMP JUMPDEST POP PUSH1 0x2 SSTORE JUMP JUMPDEST PUSH32 0xB02C64F0C28BE59776465B163FA919B01DA504B3A5DDA0EE188FA6D028017EC3 PUSH2 0x129D DUP2 PUSH2 0x15A4 JUMP JUMPDEST PUSH2 0x13FC PUSH2 0x1588 JUMP JUMPDEST PUSH1 0x0 DUP2 DUP2 MSTORE PUSH1 0x11 PUSH1 0x20 MSTORE PUSH1 0x40 DUP2 KECCAK256 SLOAD SWAP1 SUB PUSH2 0x142A JUMPI PUSH1 0x40 MLOAD PUSH4 0x9EA93C3 PUSH1 0xE4 SHL DUP2 MSTORE PUSH1 0x4 ADD PUSH1 0x40 MLOAD DUP1 SWAP2 SUB SWAP1 REVERT JUMPDEST PUSH1 0x4 SLOAD PUSH1 0x0 DUP3 DUP2 MSTORE PUSH1 0x11 PUSH1 0x20 MSTORE PUSH1 0x40 SWAP1 KECCAK256 SLOAD PUSH2 0x1446 SWAP2 SWAP1 PUSH2 0x1D81 JUMP JUMPDEST TIMESTAMP LT ISZERO PUSH2 0x1465 JUMPI PUSH1 0x40 MLOAD PUSH3 0x5C9299 PUSH1 0xE8 SHL DUP2 MSTORE PUSH1 0x4 ADD PUSH1 0x40 MLOAD DUP1 SWAP2 SUB SWAP1 REVERT JUMPDEST PUSH1 0x0 DUP2 DUP2 MSTORE PUSH1 0x12 PUSH1 0x20 MSTORE PUSH1 0x40 SWAP1 KECCAK256 SLOAD PUSH1 0xFF AND ISZERO PUSH2 0x1495 JUMPI PUSH1 0x40 MLOAD PUSH4 0x38DBD33B PUSH1 0xE1 SHL DUP2 MSTORE PUSH1 0x4 ADD PUSH1 0x40 MLOAD DUP1 SWAP2 SUB SWAP1 REVERT JUMPDEST PUSH1 0x0 DUP2 DUP2 MSTORE PUSH1 0x12 PUSH1 0x20 SWAP1 DUP2 MSTORE PUSH1 0x40 DUP1 DUP4 KECCAK256 DUP1 SLOAD PUSH1 0xFF NOT AND PUSH1 0x1 OR SWAP1 SSTORE PUSH1 0x9 DUP3 MSTORE DUP1 DUP4 KECCAK256 SLOAD PUSH1 0xA DUP4 MSTORE DUP2 DUP5 KECCAK256 SLOAD PUSH1 0xB SWAP1 SWAP4 MSTORE DUP2 DUP5 KECCAK256 SWAP2 MLOAD PUSH1 0x1 PUSH1 0x1 PUSH1 0xA0 SHL SUB SWAP1 SWAP2 AND SWAP3 SWAP2 PUSH2 0x14E1 SWAP2 PUSH2 0x2071 JUMP JUMPDEST PUSH1 0x0 PUSH1 0x40 MLOAD DUP1 DUP4 SUB DUP2 DUP6 DUP8 GAS CALL SWAP3 POP POP POP RETURNDATASIZE DUP1 PUSH1 0x0 DUP2 EQ PUSH2 0x151E JUMPI PUSH1 0x40 MLOAD SWAP2 POP PUSH1 0x1F NOT PUSH1 0x3F RETURNDATASIZE ADD AND DUP3 ADD PUSH1 0x40 MSTORE RETURNDATASIZE DUP3 MSTORE RETURNDATASIZE PUSH1 0x0 PUSH1 0x20 DUP5 ADD RETURNDATACOPY PUSH2 0x1523 JUMP JUMPDEST PUSH1 0x60 SWAP2 POP JUMPDEST POP POP SWAP1 POP DUP1 PUSH2 0x1545 JUMPI PUSH1 0x40 MLOAD PUSH4 0x816A6F31 PUSH1 0xE0 SHL DUP2 MSTORE PUSH1 0x4 ADD PUSH1 0x40 MLOAD DUP1 SWAP2 SUB SWAP1 REVERT JUMPDEST PUSH1 0x40 MLOAD DUP3 SWAP1 PUSH32 0x712AE1383F79AC853F8D882153778E0260EF8F03B504E2866E0593E04D2B291F SWAP1 PUSH1 0x0 SWAP1 LOG2 POP PUSH2 0x102E PUSH1 0x1 PUSH1 0x0 DUP1 MLOAD PUSH1 0x20 PUSH2 0x20E8 DUP4 CODECOPY DUP2 MLOAD SWAP2 MSTORE SSTORE JUMP JUMPDEST PUSH2 0x1590 PUSH2 0x1995 JUMP JUMPDEST PUSH1 0x2 PUSH1 0x0 DUP1 MLOAD PUSH1 0x20 PUSH2 0x20E8 DUP4 CODECOPY DUP2 MLOAD SWAP2 MSTORE SSTORE JUMP JUMPDEST PUSH2 0x102E DUP2 CALLER PUSH2 0x19C7 JUMP JUMPDEST PUSH1 0x0 PUSH2 0x15BA DUP4 DUP4 PUSH2 0x12A5 JUMP JUMPDEST PUSH2 0x1638 JUMPI PUSH1 0x0 DUP4 DUP2 MSTORE PUSH1 0x20 DUP2 DUP2 MSTORE PUSH1 0x40 DUP1 DUP4 KECCAK256 PUSH1 0x1 PUSH1 0x1 PUSH1 0xA0 SHL SUB DUP7 AND DUP5 MSTORE SWAP1 SWAP2 MSTORE SWAP1 KECCAK256 DUP1 SLOAD PUSH1 0xFF NOT AND PUSH1 0x1 OR SWAP1 SSTORE PUSH2 0x15F0 CALLER SWAP1 JUMP JUMPDEST PUSH1 0x1 PUSH1 0x1 PUSH1 0xA0 SHL SUB AND DUP3 PUSH1 0x1 PUSH1 0x1 PUSH1 0xA0 SHL SUB AND DUP5 PUSH32 0x2F8788117E7EFF1D82E926EC794901D17C78024A50270940304540A733656F0D PUSH1 0x40 MLOAD PUSH1 0x40 MLOAD DUP1 SWAP2 SUB SWAP1 LOG4 POP PUSH1 0x1 PUSH2 0x856 JUMP JUMPDEST POP PUSH1 0x0 PUSH2 0x856 JUMP JUMPDEST PUSH1 0x0 PUSH2 0x164C DUP4 DUP4 PUSH2 0x12A5 JUMP JUMPDEST ISZERO PUSH2 0x1638 JUMPI PUSH1 0x0 DUP4 DUP2 MSTORE PUSH1 0x20 DUP2 DUP2 MSTORE PUSH1 0x40 DUP1 DUP4 KECCAK256 PUSH1 0x1 PUSH1 0x1 PUSH1 0xA0 SHL SUB DUP7 AND DUP1 DUP6 MSTORE SWAP3 MSTORE DUP1 DUP4 KECCAK256 DUP1 SLOAD PUSH1 0xFF NOT AND SWAP1 SSTORE MLOAD CALLER SWAP3 DUP7 SWAP2 PUSH32 0xF6391F5C32D9C69D2A47EA670B442974B53935D1EDC7FD64EB21E047A839171B SWAP2 SWAP1 LOG4 POP PUSH1 0x1 PUSH2 0x856 JUMP JUMPDEST PUSH2 0x16B3 PUSH2 0x1A04 JUMP JUMPDEST PUSH1 0x1 DUP1 SLOAD PUSH1 0xFF NOT AND SWAP1 SSTORE PUSH32 0x5DB9EE0A495BF2E6FF9C91A7834C1BA4FDD244A5E8AA4E537BD38AEAE4B073AA CALLER JUMPDEST PUSH1 0x40 MLOAD PUSH1 0x1 PUSH1 0x1 PUSH1 0xA0 SHL SUB SWAP1 SWAP2 AND DUP2 MSTORE PUSH1 0x20 ADD PUSH1 0x40 MLOAD DUP1 SWAP2 SUB SWAP1 LOG1 JUMP JUMPDEST PUSH1 0x1 PUSH2 0x1708 DUP4 PUSH2 0xE9D JUMP JUMPDEST PUSH1 0x8 DUP2 GT ISZERO PUSH2 0x1719 JUMPI PUSH2 0x1719 PUSH2 0x1B20 JUMP JUMPDEST EQ PUSH2 0x1737 JUMPI PUSH1 0x40 MLOAD PUSH4 0xB6436B95 PUSH1 0xE0 SHL DUP2 MSTORE PUSH1 0x4 ADD PUSH1 0x40 MLOAD DUP1 SWAP2 SUB SWAP1 REVERT JUMPDEST PUSH1 0x0 DUP3 DUP2 MSTORE PUSH1 0x15 PUSH1 0x20 SWAP1 DUP2 MSTORE PUSH1 0x40 DUP1 DUP4 KECCAK256 CALLER DUP5 MSTORE SWAP1 SWAP2 MSTORE SWAP1 KECCAK256 SLOAD PUSH1 0xFF AND ISZERO PUSH2 0x1772 JUMPI PUSH1 0x40 MLOAD PUSH4 0x1B19DAF5 PUSH1 0xE2 SHL DUP2 MSTORE PUSH1 0x4 ADD PUSH1 0x40 MLOAD DUP1 SWAP2 SUB SWAP1 REVERT JUMPDEST PUSH1 0x40 MLOAD PUSH4 0x6A6B9A61 PUSH1 0xE0 SHL DUP2 MSTORE CALLER PUSH1 0x4 DUP3 ADD MSTORE PUSH32 0x0 PUSH1 0x1 PUSH1 0x1 PUSH1 0xA0 SHL SUB AND SWAP1 PUSH4 0x6A6B9A61 SWAP1 PUSH1 0x24 ADD PUSH1 0x20 PUSH1 0x40 MLOAD DUP1 DUP4 SUB DUP2 DUP7 GAS STATICCALL ISZERO DUP1 ISZERO PUSH2 0x17D6 JUMPI RETURNDATASIZE PUSH1 0x0 DUP1 RETURNDATACOPY RETURNDATASIZE PUSH1 0x0 REVERT JUMPDEST POP POP POP POP PUSH1 0x40 MLOAD RETURNDATASIZE PUSH1 0x1F NOT PUSH1 0x1F DUP3 ADD AND DUP3 ADD DUP1 PUSH1 0x40 MSTORE POP DUP2 ADD SWAP1 PUSH2 0x17FA SWAP2 SWAP1 PUSH2 0x1D49 JUMP JUMPDEST PUSH2 0x1817 JUMPI PUSH1 0x40 MLOAD PUSH4 0x9450A1D3 PUSH1 0xE0 SHL DUP2 MSTORE PUSH1 0x4 ADD PUSH1 0x40 MLOAD DUP1 SWAP2 SUB SWAP1 REVERT JUMPDEST PUSH1 0x0 DUP3 DUP2 MSTORE PUSH1 0x15 PUSH1 0x20 SWAP1 DUP2 MSTORE PUSH1 0x40 DUP1 DUP4 KECCAK256 CALLER DUP1 DUP6 MSTORE SWAP1 DUP4 MSTORE DUP2 DUP5 KECCAK256 DUP1 SLOAD PUSH1 0x1 PUSH1 0xFF NOT SWAP2 DUP3 AND DUP2 OR SWAP1 SWAP3 SSTORE DUP8 DUP7 MSTORE PUSH1 0x16 DUP6 MSTORE DUP4 DUP7 KECCAK256 SWAP3 DUP7 MSTORE SWAP2 SWAP1 SWAP4 MSTORE SWAP3 KECCAK256 DUP1 SLOAD DUP5 SWAP4 SWAP2 SWAP3 SWAP2 AND SWAP1 DUP4 PUSH1 0x2 DUP2 GT ISZERO PUSH2 0x186F JUMPI PUSH2 0x186F PUSH2 0x1B20 JUMP JUMPDEST MUL OR SWAP1 SSTORE POP PUSH1 0x1 DUP2 PUSH1 0x2 DUP2 GT ISZERO PUSH2 0x1888 JUMPI PUSH2 0x1888 PUSH2 0x1B20 JUMP JUMPDEST SUB PUSH2 0x18B7 JUMPI PUSH1 0x0 DUP3 DUP2 MSTORE PUSH1 0xC PUSH1 0x20 MSTORE PUSH1 0x40 DUP2 KECCAK256 DUP1 SLOAD PUSH1 0x1 SWAP3 SWAP1 PUSH2 0x18AC SWAP1 DUP5 SWAP1 PUSH2 0x1D81 JUMP JUMPDEST SWAP1 SWAP2 SSTORE POP PUSH2 0x1914 SWAP1 POP JUMP JUMPDEST PUSH1 0x0 DUP2 PUSH1 0x2 DUP2 GT ISZERO PUSH2 0x18CB JUMPI PUSH2 0x18CB PUSH2 0x1B20 JUMP JUMPDEST SUB PUSH2 0x18EF JUMPI PUSH1 0x0 DUP3 DUP2 MSTORE PUSH1 0xD PUSH1 0x20 MSTORE PUSH1 0x40 DUP2 KECCAK256 DUP1 SLOAD PUSH1 0x1 SWAP3 SWAP1 PUSH2 0x18AC SWAP1 DUP5 SWAP1 PUSH2 0x1D81 JUMP JUMPDEST PUSH1 0x0 DUP3 DUP2 MSTORE PUSH1 0xE PUSH1 0x20 MSTORE PUSH1 0x40 DUP2 KECCAK256 DUP1 SLOAD PUSH1 0x1 SWAP3 SWAP1 PUSH2 0x190E SWAP1 DUP5 SWAP1 PUSH2 0x1D81 JUMP JUMPDEST SWAP1 SWAP2 SSTORE POP POP JUMPDEST CALLER PUSH1 0x1 PUSH1 0x1 PUSH1 0xA0 SHL SUB AND DUP3 PUSH32 0xEBA4866100B822F0F391E610E7EDFAB790B9E8766C0012733C26B2F1858E8DD7 DUP4 PUSH1 0x40 MLOAD PUSH2 0x194E SWAP2 SWAP1 PUSH2 0x1D35 JUMP JUMPDEST PUSH1 0x40 MLOAD DUP1 SWAP2 SUB SWAP1 LOG3 POP POP JUMP JUMPDEST PUSH2 0x1962 PUSH2 0x1A27 JUMP JUMPDEST PUSH1 0x1 DUP1 SLOAD PUSH1 0xFF NOT AND DUP2 OR SWAP1 SSTORE PUSH32 0x62E78CEA01BEE320CD4E420270B5EA74000D11B0C9F74754EBDBFC544B05A258 CALLER PUSH2 0x16E0 JUMP JUMPDEST PUSH1 0x0 DUP1 MLOAD PUSH1 0x20 PUSH2 0x20E8 DUP4 CODECOPY DUP2 MLOAD SWAP2 MSTORE SLOAD PUSH1 0x2 SUB PUSH2 0x19C5 JUMPI PUSH1 0x40 MLOAD PUSH4 0x3EE5AEB5 PUSH1 0xE0 SHL DUP2 MSTORE PUSH1 0x4 ADD PUSH1 0x40 MLOAD DUP1 SWAP2 SUB SWAP1 REVERT JUMPDEST JUMP JUMPDEST PUSH2 0x19D1 DUP3 DUP3 PUSH2 0x12A5 JUMP JUMPDEST PUSH2 0x1144 JUMPI PUSH1 0x40 MLOAD PUSH4 0xE2517D3F PUSH1 0xE0 SHL DUP2 MSTORE PUSH1 0x1 PUSH1 0x1 PUSH1 0xA0 SHL SUB DUP3 AND PUSH1 0x4 DUP3 ADD MSTORE PUSH1 0x24 DUP2 ADD DUP4 SWAP1 MSTORE PUSH1 0x44 ADD PUSH1 0x40 MLOAD DUP1 SWAP2 SUB SWAP1 REVERT JUMPDEST PUSH1 0x1 SLOAD PUSH1 0xFF AND PUSH2 0x19C5 JUMPI PUSH1 0x40 MLOAD PUSH4 0x8DFC202B PUSH1 0xE0 SHL DUP2 MSTORE PUSH1 0x4 ADD PUSH1 0x40 MLOAD DUP1 SWAP2 SUB SWAP1 REVERT JUMPDEST PUSH1 0x1 SLOAD PUSH1 0xFF AND ISZERO PUSH2 0x19C5 JUMPI PUSH1 0x40 MLOAD PUSH4 0xD93C0665 PUSH1 0xE0 SHL DUP2 MSTORE PUSH1 0x4 ADD PUSH1 0x40 MLOAD DUP1 SWAP2 SUB SWAP1 REVERT JUMPDEST PUSH1 0x0 PUSH1 0x20 DUP3 DUP5 SUB SLT ISZERO PUSH2 0x1A5D JUMPI PUSH1 0x0 DUP1 REVERT JUMPDEST DUP2 CALLDATALOAD PUSH1 0x1 PUSH1 0x1 PUSH1 0xE0 SHL SUB NOT DUP2 AND DUP2 EQ PUSH2 0x1A75 JUMPI PUSH1 0x0 DUP1 REVERT JUMPDEST SWAP4 SWAP3 POP POP POP JUMP JUMPDEST PUSH1 0x0 PUSH1 0x20 DUP3 DUP5 SUB SLT ISZERO PUSH2 0x1A8E JUMPI PUSH1 0x0 DUP1 REVERT JUMPDEST POP CALLDATALOAD SWAP2 SWAP1 POP JUMP JUMPDEST PUSH1 0x0 DUP1 DUP4 PUSH1 0x1F DUP5 ADD SLT PUSH2 0x1AA7 JUMPI PUSH1 0x0 DUP1 REVERT JUMPDEST POP DUP2 CALLDATALOAD PUSH8 0xFFFFFFFFFFFFFFFF DUP2 GT ISZERO PUSH2 0x1ABF JUMPI PUSH1 0x0 DUP1 REVERT JUMPDEST PUSH1 0x20 DUP4 ADD SWAP2 POP DUP4 PUSH1 0x20 DUP3 DUP6 ADD ADD GT ISZERO PUSH2 0x1AD7 JUMPI PUSH1 0x0 DUP1 REVERT JUMPDEST SWAP3 POP SWAP3 SWAP1 POP JUMP JUMPDEST PUSH1 0x0 DUP1 PUSH1 0x20 DUP4 DUP6 SUB SLT ISZERO PUSH2 0x1AF1 JUMPI PUSH1 0x0 DUP1 REVERT JUMPDEST DUP3 CALLDATALOAD PUSH8 0xFFFFFFFFFFFFFFFF DUP2 GT ISZERO PUSH2 0x1B08 JUMPI PUSH1 0x0 DUP1 REVERT JUMPDEST PUSH2 0x1B14 DUP6 DUP3 DUP7 ADD PUSH2 0x1A95 JUMP JUMPDEST SWAP1 SWAP7 SWAP1 SWAP6 POP SWAP4 POP POP POP POP JUMP JUMPDEST PUSH4 0x4E487B71 PUSH1 0xE0 SHL PUSH1 0x0 MSTORE PUSH1 0x21 PUSH1 0x4 MSTORE PUSH1 0x24 PUSH1 0x0 REVERT JUMPDEST PUSH1 0x20 DUP2 ADD PUSH1 0x5 DUP4 LT PUSH2 0x1B4A JUMPI PUSH2 0x1B4A PUSH2 0x1B20 JUMP JUMPDEST SWAP2 SWAP1 MSTORE SWAP1 JUMP JUMPDEST DUP1 CALLDATALOAD PUSH1 0x1 PUSH1 0x1 PUSH1 0xA0 SHL SUB DUP2 AND DUP2 EQ PUSH2 0x1B67 JUMPI PUSH1 0x0 DUP1 REVERT JUMPDEST SWAP2 SWAP1 POP JUMP JUMPDEST PUSH1 0x0 DUP1 PUSH1 0x40 DUP4 DUP6 SUB SLT ISZERO PUSH2 0x1B7F JUMPI PUSH1 0x0 DUP1 REVERT JUMPDEST DUP3 CALLDATALOAD SWAP2 POP PUSH2 0x1B8F PUSH1 0x20 DUP5 ADD PUSH2 0x1B50 JUMP JUMPDEST SWAP1 POP SWAP3 POP SWAP3 SWAP1 POP JUMP JUMPDEST PUSH1 0x0 DUP2 MLOAD DUP1 DUP5 MSTORE PUSH1 0x0 JUMPDEST DUP2 DUP2 LT ISZERO PUSH2 0x1BBE JUMPI PUSH1 0x20 DUP2 DUP6 ADD DUP2 ADD MLOAD DUP7 DUP4 ADD DUP3 ADD MSTORE ADD PUSH2 0x1BA2 JUMP JUMPDEST POP PUSH1 0x0 PUSH1 0x20 DUP3 DUP7 ADD ADD MSTORE PUSH1 0x20 PUSH1 0x1F NOT PUSH1 0x1F DUP4 ADD AND DUP6 ADD ADD SWAP2 POP POP SWAP3 SWAP2 POP POP JUMP JUMPDEST PUSH1 0x20 DUP2 MSTORE PUSH1 0x0 PUSH2 0x1A75 PUSH1 0x20 DUP4 ADD DUP5 PUSH2 0x1B98 JUMP JUMPDEST PUSH1 0x0 DUP1 PUSH1 0x0 DUP1 PUSH1 0x0 DUP1 PUSH1 0x0 PUSH1 0xA0 DUP9 DUP11 SUB SLT ISZERO PUSH2 0x1C0C JUMPI PUSH1 0x0 DUP1 REVERT JUMPDEST DUP8 CALLDATALOAD PUSH8 0xFFFFFFFFFFFFFFFF DUP1 DUP3 GT ISZERO PUSH2 0x1C24 JUMPI PUSH1 0x0 DUP1 REVERT JUMPDEST PUSH2 0x1C30 DUP12 DUP4 DUP13 ADD PUSH2 0x1A95 JUMP JUMPDEST SWAP1 SWAP10 POP SWAP8 POP PUSH1 0x20 DUP11 ADD CALLDATALOAD SWAP2 POP PUSH1 0x5 DUP3 LT PUSH2 0x1C49 JUMPI PUSH1 0x0 DUP1 REVERT JUMPDEST DUP2 SWAP7 POP PUSH2 0x1C58 PUSH1 0x40 DUP12 ADD PUSH2 0x1B50 JUMP JUMPDEST SWAP6 POP PUSH1 0x60 DUP11 ADD CALLDATALOAD SWAP5 POP PUSH1 0x80 DUP11 ADD CALLDATALOAD SWAP2 POP DUP1 DUP3 GT ISZERO PUSH2 0x1C75 JUMPI PUSH1 0x0 DUP1 REVERT JUMPDEST POP PUSH2 0x1C82 DUP11 DUP3 DUP12 ADD PUSH2 0x1A95 JUMP JUMPDEST SWAP9 SWAP12 SWAP8 SWAP11 POP SWAP6 SWAP9 POP SWAP4 SWAP7 SWAP3 SWAP6 SWAP3 SWAP4 POP POP POP JUMP JUMPDEST PUSH1 0x20 DUP2 ADD PUSH1 0x9 DUP4 LT PUSH2 0x1B4A JUMPI PUSH2 0x1B4A PUSH2 0x1B20 JUMP JUMPDEST DUP1 CALLDATALOAD PUSH1 0x3 DUP2 LT PUSH2 0x1B67 JUMPI PUSH1 0x0 DUP1 REVERT JUMPDEST PUSH1 0x0 DUP1 PUSH1 0x40 DUP4 DUP6 SUB SLT ISZERO PUSH2 0x1CCB JUMPI PUSH1 0x0 DUP1 REVERT JUMPDEST DUP3 CALLDATALOAD SWAP2 POP PUSH2 0x1B8F PUSH1 0x20 DUP5 ADD PUSH2 0x1CA9 JUMP JUMPDEST PUSH1 0x0 DUP1 PUSH1 0x0 DUP1 PUSH1 0x60 DUP6 DUP8 SUB SLT ISZERO PUSH2 0x1CF1 JUMPI PUSH1 0x0 DUP1 REVERT JUMPDEST DUP5 CALLDATALOAD SWAP4 POP PUSH2 0x1D01 PUSH1 0x20 DUP7 ADD PUSH2 0x1CA9 JUMP JUMPDEST SWAP3 POP PUSH1 0x40 DUP6 ADD CALLDATALOAD PUSH8 0xFFFFFFFFFFFFFFFF DUP2 GT ISZERO PUSH2 0x1D1D JUMPI PUSH1 0x0 DUP1 REVERT JUMPDEST PUSH2 0x1D29 DUP8 DUP3 DUP9 ADD PUSH2 0x1A95 JUMP JUMPDEST SWAP6 SWAP9 SWAP5 SWAP8 POP SWAP6 POP POP POP POP JUMP JUMPDEST PUSH1 0x20 DUP2 ADD PUSH1 0x3 DUP4 LT PUSH2 0x1B4A JUMPI PUSH2 0x1B4A PUSH2 0x1B20 JUMP JUMPDEST PUSH1 0x0 PUSH1 0x20 DUP3 DUP5 SUB SLT ISZERO PUSH2 0x1D5B JUMPI PUSH1 0x0 DUP1 REVERT JUMPDEST DUP2 MLOAD DUP1 ISZERO ISZERO DUP2 EQ PUSH2 0x1A75 JUMPI PUSH1 0x0 DUP1 REVERT JUMPDEST PUSH4 0x4E487B71 PUSH1 0xE0 SHL PUSH1 0x0 MSTORE PUSH1 0x11 PUSH1 0x4 MSTORE PUSH1 0x24 PUSH1 0x0 REVERT JUMPDEST DUP1 DUP3 ADD DUP1 DUP3 GT ISZERO PUSH2 0x856 JUMPI PUSH2 0x856 PUSH2 0x1D6B JUMP JUMPDEST PUSH1 0x0 PUSH1 0x1 DUP3 ADD PUSH2 0x1DA6 JUMPI PUSH2 0x1DA6 PUSH2 0x1D6B JUMP JUMPDEST POP PUSH1 0x1 ADD SWAP1 JUMP JUMPDEST PUSH4 0x4E487B71 PUSH1 0xE0 SHL PUSH1 0x0 MSTORE PUSH1 0x41 PUSH1 0x4 MSTORE PUSH1 0x24 PUSH1 0x0 REVERT JUMPDEST PUSH1 0x1 DUP2 DUP2 SHR SWAP1 DUP3 AND DUP1 PUSH2 0x1DD7 JUMPI PUSH1 0x7F DUP3 AND SWAP2 POP JUMPDEST PUSH1 0x20 DUP3 LT DUP2 SUB PUSH2 0x1DF7 JUMPI PUSH4 0x4E487B71 PUSH1 0xE0 SHL PUSH1 0x0 MSTORE PUSH1 0x22 PUSH1 0x4 MSTORE PUSH1 0x24 PUSH1 0x0 REVERT JUMPDEST POP SWAP2 SWAP1 POP JUMP JUMPDEST PUSH1 0x1F DUP3 GT ISZERO PUSH2 0xBD5 JUMPI PUSH1 0x0 DUP2 DUP2 MSTORE PUSH1 0x20 DUP2 KECCAK256 PUSH1 0x1F DUP6 ADD PUSH1 0x5 SHR DUP2 ADD PUSH1 0x20 DUP7 LT ISZERO PUSH2 0x1E24 JUMPI POP DUP1 JUMPDEST PUSH1 0x1F DUP6 ADD PUSH1 0x5 SHR DUP3 ADD SWAP2 POP JUMPDEST DUP2 DUP2 LT ISZERO PUSH2 0x1E43 JUMPI DUP3 DUP2 SSTORE PUSH1 0x1 ADD PUSH2 0x1E30 JUMP JUMPDEST POP POP POP POP POP POP JUMP JUMPDEST PUSH8 0xFFFFFFFFFFFFFFFF DUP4 GT ISZERO PUSH2 0x1E63 JUMPI PUSH2 0x1E63 PUSH2 0x1DAD JUMP JUMPDEST PUSH2 0x1E77 DUP4 PUSH2 0x1E71 DUP4 SLOAD PUSH2 0x1DC3 JUMP JUMPDEST DUP4 PUSH2 0x1DFD JUMP JUMPDEST PUSH1 0x0 PUSH1 0x1F DUP5 GT PUSH1 0x1 DUP2 EQ PUSH2 0x1EAB JUMPI PUSH1 0x0 DUP6 ISZERO PUSH2 0x1E93 JUMPI POP DUP4 DUP3 ADD CALLDATALOAD JUMPDEST PUSH1 0x0 NOT PUSH1 0x3 DUP8 SWAP1 SHL SHR NOT AND PUSH1 0x1 DUP7 SWAP1 SHL OR DUP4 SSTORE PUSH2 0x1F05 JUMP JUMPDEST PUSH1 0x0 DUP4 DUP2 MSTORE PUSH1 0x20 SWAP1 KECCAK256 PUSH1 0x1F NOT DUP7 AND SWAP1 DUP4 JUMPDEST DUP3 DUP2 LT ISZERO PUSH2 0x1EDC JUMPI DUP7 DUP6 ADD CALLDATALOAD DUP3 SSTORE PUSH1 0x20 SWAP5 DUP6 ADD SWAP5 PUSH1 0x1 SWAP1 SWAP3 ADD SWAP2 ADD PUSH2 0x1EBC JUMP JUMPDEST POP DUP7 DUP3 LT ISZERO PUSH2 0x1EF9 JUMPI PUSH1 0x0 NOT PUSH1 0xF8 DUP9 PUSH1 0x3 SHL AND SHR NOT DUP5 DUP8 ADD CALLDATALOAD AND DUP2 SSTORE JUMPDEST POP POP PUSH1 0x1 DUP6 PUSH1 0x1 SHL ADD DUP4 SSTORE JUMPDEST POP POP POP POP POP JUMP JUMPDEST DUP2 MLOAD PUSH8 0xFFFFFFFFFFFFFFFF DUP2 GT ISZERO PUSH2 0x1F26 JUMPI PUSH2 0x1F26 PUSH2 0x1DAD JUMP JUMPDEST PUSH2 0x1F3A DUP2 PUSH2 0x1F34 DUP5 SLOAD PUSH2 0x1DC3 JUMP JUMPDEST DUP5 PUSH2 0x1DFD JUMP JUMPDEST PUSH1 0x20 DUP1 PUSH1 0x1F DUP4 GT PUSH1 0x1 DUP2 EQ PUSH2 0x1F6F JUMPI PUSH1 0x0 DUP5 ISZERO PUSH2 0x1F57 JUMPI POP DUP6 DUP4 ADD MLOAD JUMPDEST PUSH1 0x0 NOT PUSH1 0x3 DUP7 SWAP1 SHL SHR NOT AND PUSH1 0x1 DUP6 SWAP1 SHL OR DUP6 SSTORE PUSH2 0x1E43 JUMP JUMPDEST PUSH1 0x0 DUP6 DUP2 MSTORE PUSH1 0x20 DUP2 KECCAK256 PUSH1 0x1F NOT DUP7 AND SWAP2 JUMPDEST DUP3 DUP2 LT ISZERO PUSH2 0x1F9E JUMPI DUP9 DUP7 ADD MLOAD DUP3 SSTORE SWAP5 DUP5 ADD SWAP5 PUSH1 0x1 SWAP1 SWAP2 ADD SWAP1 DUP5 ADD PUSH2 0x1F7F JUMP JUMPDEST POP DUP6 DUP3 LT ISZERO PUSH2 0x1FBC JUMPI DUP8 DUP6 ADD MLOAD PUSH1 0x0 NOT PUSH1 0x3 DUP9 SWAP1 SHL PUSH1 0xF8 AND SHR NOT AND DUP2 SSTORE JUMPDEST POP POP POP POP POP PUSH1 0x1 SWAP1 DUP2 SHL ADD SWAP1 SSTORE POP JUMP JUMPDEST PUSH1 0x60 DUP2 MSTORE DUP4 PUSH1 0x60 DUP3 ADD MSTORE DUP4 DUP6 PUSH1 0x80 DUP4 ADD CALLDATACOPY PUSH1 0x0 PUSH1 0x80 DUP6 DUP4 ADD ADD MSTORE PUSH1 0x0 PUSH1 0x80 PUSH1 0x1F NOT PUSH1 0x1F DUP8 ADD AND DUP4 ADD ADD SWAP1 POP DUP4 PUSH1 0x20 DUP4 ADD MSTORE DUP3 PUSH1 0x40 DUP4 ADD MSTORE SWAP6 SWAP5 POP POP POP POP POP JUMP JUMPDEST PUSH1 0x0 PUSH1 0x20 DUP3 DUP5 SUB SLT ISZERO PUSH2 0x201E JUMPI PUSH1 0x0 DUP1 REVERT JUMPDEST POP MLOAD SWAP2 SWAP1 POP JUMP JUMPDEST DUP1 DUP3 MUL DUP2 ISZERO DUP3 DUP3 DIV DUP5 EQ OR PUSH2 0x856 JUMPI PUSH2 0x856 PUSH2 0x1D6B JUMP JUMPDEST PUSH1 0x0 DUP3 PUSH2 0x2059 JUMPI PUSH4 0x4E487B71 PUSH1 0xE0 SHL PUSH1 0x0 MSTORE PUSH1 0x12 PUSH1 0x4 MSTORE PUSH1 0x24 PUSH1 0x0 REVERT JUMPDEST POP DIV SWAP1 JUMP JUMPDEST DUP2 DUP2 SUB DUP2 DUP2 GT ISZERO PUSH2 0x856 JUMPI PUSH2 0x856 PUSH2 0x1D6B JUMP JUMPDEST PUSH1 0x0 DUP1 DUP4 SLOAD PUSH2 0x207F DUP2 PUSH2 0x1DC3 JUMP JUMPDEST PUSH1 0x1 DUP3 DUP2 AND DUP1 ISZERO PUSH2 0x2097 JUMPI PUSH1 0x1 DUP2 EQ PUSH2 0x20AC JUMPI PUSH2 0x20DB JUMP JUMPDEST PUSH1 0xFF NOT DUP5 AND DUP8 MSTORE DUP3 ISZERO ISZERO DUP4 MUL DUP8 ADD SWAP5 POP PUSH2 0x20DB JUMP JUMPDEST DUP8 PUSH1 0x0 MSTORE PUSH1 0x20 DUP1 PUSH1 0x0 KECCAK256 PUSH1 0x0 JUMPDEST DUP6 DUP2 LT ISZERO PUSH2 0x20D2 JUMPI DUP2 SLOAD DUP11 DUP3 ADD MSTORE SWAP1 DUP5 ADD SWAP1 DUP3 ADD PUSH2 0x20B9 JUMP JUMPDEST POP POP POP DUP3 DUP8 ADD SWAP5 POP JUMPDEST POP SWAP3 SWAP7 SWAP6 POP POP POP POP POP POP JUMP INVALID SWAP12 PUSH24 0x9B17422D0DF92223018B32B4D1FA46E071723D6817E2486D STOP EXTCODESIZE 0xEC 0xC5 PUSH0 STOP LOG2 PUSH5 0x6970667358 0x22 SLT KECCAK256 0xE8 0xD1 MOD 0x5E 0x5E DUP3 POP SELFDESTRUCT SWAP13 0x23 DUP13 PUSH25 0xEF969715F3BC86B8FF973484B3C5244C8BBBE5EB64736F6C63 NUMBER STOP ADDMOD EQ STOP CALLER "},"methodIdentifiers":{"DEFAULT_ADMIN_ROLE()":"a217fddf","PENGAWAS_ROLE()":"d3bc2b8d","QUORUM_DENOMINATOR()":"6fef541a","cancel(uint256)":"40e58ee5","castVote(uint256,uint8)":"56781388","castVoteWithReason(uint256,uint8,string)":"7b3c71d3","createProposal(string,uint8,address,uint256,bytes)":"3a29f859","execute(uint256)":"fe0d94c1","executionTimelock()":"77806118","getRoleAdmin(bytes32)":"248a9ca3","grantRole(bytes32,address)":"2f2ff15d","hasRole(bytes32,address)":"91d14854","hasVoted(uint256,address)":"43859632","isRATDue()":"4cd2fc40","lastRATTime()":"bb0fd757","pause()":"8456cb59","paused()":"5c975abb","pengawasPause()":"eb580dfe","proposalAbstainVotes(uint256)":"bd468fe6","proposalAgainstVotes(uint256)":"a7e22860","proposalCallData(uint256)":"abddc327","proposalCanceled(uint256)":"6e18113c","proposalCount()":"da35c664","proposalDescription(uint256)":"3830fdea","proposalEndTime(uint256)":"d00a9f06","proposalExecuted(uint256)":"103616e8","proposalForVotes(uint256)":"c8bb4dd5","proposalProposer(uint256)":"143489d0","proposalQueuedTime(uint256)":"9c92fbc3","proposalStartTime(uint256)":"94616451","proposalTarget(uint256)":"5dc4d8a6","proposalType(uint256)":"2a09c772","proposalValue(uint256)":"ca2525f6","proposalVetoed(uint256)":"bd6af848","queue(uint256)":"ddf0b009","quorum()":"1703a018","quorumNumerator()":"a7713a70","ratPeriod()":"a8f6bc2d","renounceRole(bytes32,address)":"36568abe","revokeRole(bytes32,address)":"d547741f","scheduleAnnualRAT(string)":"13e11292","setExecutionTimelock(uint256)":"2ce80915","setQuorumNumerator(uint256)":"737594ce","setVotingPeriod(uint256)":"ea0217cf","state(uint256)":"3e4f49e6","supportsInterface(bytes4)":"01ffc9a7","timeUntilNextRAT()":"78223af3","token()":"fc0c546a","unpause()":"3f4ba83a","vaultAddress()":"430bf08a","vetoProposal(uint256)":"6f65108c","voteChoice(uint256,address)":"fb468855","votingPeriod()":"02a251a3"}}}}}